:1000000000800020BD010000C99E0000859E000008
:10001000859E0000859E0000859E0000859E000054
:10002000859E0000859E0000859E0000C99E000000
:10003000C99E0000859E00009193000095930000EA
:10004000C99E0000C99E0000C99E0000C99E000014
:10005000C99E0000C99E0000C99E0000C99E000004
:10006000C99E0000C99E0000C99E0000C99E0000F4
:10007000C99E0000C99E0000C99E0000C99E0000E4
:10008000C99E0000C99E0000C99E0000C99E0000D4
:10009000B1230000C99E0000C99E0000C99E000057
:1000A000C99E0000C99E0000C99E0000C99E0000B4
:1000B000C99E0000318900003D890000418900008F
:1000C0004D8900005189000055890000C99E00003B
:1000D000C99E0000C99E0000C99E0000C99E000084
:1000E000C99E0000C99E0000C99E0000C99E000074
:1000F000C99E0000C99E0000C99E0000FDAD000021
:10010000C99E000025B50000C99E0000C99E0000E0
:10011000C99E0000C99E0000C99E0000C99E000043
:10012000C99E0000C99E0000C99E0000C99E000033
:10013000C99E0000C99E0000C99E0000C99E000023
:10014000C99E0000C99E0000C99E0000C99E000013
:10015000C99E0000C99E0000C99E0000C99E000003
:10016000C99E000029B80000C99E0000C99E000079
:10017000C99E0000C99E0000C99E0000C99E0000E3
:10018000C99E0000C99E0000C99E0000C99E0000D3
:10019000C99E0000C99E0000C99E0000C99E0000C3
:1001A000C99E0000C99E0000C99E0000C99E0000B3
:1001B000C99E0000C99E0000C99E0000574B4CF22A
:1001C000205210B5DA814DF62812DA8100BF00BF47
:1001D00009F07EFE524B4FF010621A63514A9A6347
:1001E000514ADA63514A136913F4807303D153619E
:1001F0004FF4A85313614E4B9A78110703D59A78A0
:1002000042F008029A704B4B4B482A221A704B4B13
:10021000DA1C121AC11E22F00302994288BF002282
:10022000474909F05BFD474B4748DA1C121AC11ECB
:1002300022F00302994288BF002200210DF01EFF28
:10024000424943484FF4DE7209F048FD414B424AAF
:10025000802103F8011B9342FBD14FF0E0233C4A7D
:10026000C3F8082D3D4B8A221A70A3F5805324222F
:100270005A70A0221A709A799207FCD59A79D406FE
:10028000FCD4374B9A7902F00C02082AFAD10322E7
:100290001A7140225A719A799006FCD5304A9379A6
:1002A0005906FCD51E4B2F4959640221996420211F
:1002B0001170917901F00C010C29FAD12A4A5A6087
:1002C0004FF0E023294A5A6100229A6107221A61FD
:1002D000274AC3F8202D62B609F02CFF134B5B6947
:1002E000DA0705D5234809F019FF234B234ADA61C1
:1002F000234B1B785B0609D51F4C204BE2699A42C1
:1003000004D11C4809F00AFF0023E36109F0E6FD6F
:100310000DF0AAFF09F0DAFCFEE700BF002005405F
:1003200000800440823F04000100002B00D0034005
:1003300000D0074000E007402087FF1F6891FF1FA3
:10034000945A01000CD9FF1F6891FF1F00000000A4
:100350000082FF1F00E400E05FE400E00050064080
:100360000040064000000301C0100500FF760100B8
:10037000000020202594046600E00340A5C3945AA1
:1003800000F00740FFFFFFFFFFFFFFFFFFFFFFFF42
:10039000FFFFFFFFFFFFFFFFFFFFFFFFFFFFFFFF6D
:1003A000FFFFFFFFFFFFFFFFFFFFFFFFFFFFFFFF5D
:1003B000FFFFFFFFFFFFFFFFFFFFFFFFFFFFFFFF4D
:1003C000FFFFFFFFFFFFFFFFFFFFFFFFFFFFFFFF3D
:1003D000FFFFFFFFFFFFFFFFFFFFFFFFFFFFFFFF2D
:1003E000FFFFFFFFFFFFFFFFFFFFFFFFFFFFFFFF1D
:1003F000FFFFFFFFFFFFFFFFFFFFFFFFFFFFFFFF0D
:10040000FFFFFFFFFFFFFFFFFFFFFFFFDEF9FFFF23
:100410000548064B1B1AD90F01EBA301491002D066
:10042000034B03B1184770476891FF1F6891FF1F86
:100430000000000008B5054B1BB105490548AFF3A6
:100440000080BDE80840FFF7E3BF00BF00000000E8
:100450006891FF1F945A010010B534220021044610
:100460000DF00CFE184904F1300304F1640243F866
:10047000041F9A42FBD13422002104F168000DF0E0
:10048000FDFD0023002211481149C4F89C30C4F836
:10049000A030C4F8A430C4F8A830C4F8B000C4F840
:1004A000B83047F23050012384F8DC20C4F8F00063
:1004B000C4F8AC10C4F8B410C4F8E420A4F8C42004
:1004C000C4F8F430204610BD0000A0400000C8C2AF
:1004D00000004843012A38B505460C4614D00223D3
:1004E000C0F8F4304B7B087B1B01DBB243EA1010F1
:1004F0000CF0EEFC4FF07C510CF03EFD2C490CF062
:1005000031FCC5F8A00038BDC0F8F420CB7BFD2B32
:1005100049D0087ADE2828D9C87A0CF0D9FC4FF0E7
:100520007C510CF029FD23490CF01CFCC5F8A000FF
:10053000207BEF282DD80CF0CBFC4FF07C510CF039
:100540001BFD1C490CF00EFCC5F8A400607BEF28D5
:1005500025D80CF0BDFC4FF07C510CF00DFD154979
:100560000CF000FCC5F8A80038BD0CF0B1FC4FF051
:100570007C510CF001FD0F490CF0F4FBC5F8A00014
:10058000E27AA37A03EB0223C5F8E430207BEF285C
:10059000D1D90020C5F8A400607BEF28D9D9002369
:1005A000C5F8A83038BD887AFD28A1D138BD00BF74
:1005B0000000204200002C4290F8CC00704700BFA1
:1005C00090F8C800704700BF90F8D000704700BF97
:1005D00090F8D400704700BF0D2994BF50F8210057
:1005E000002070472DE9F0410C4E8046051F00F1B8
:1005F000300755F8044F314620460CF05BFE0346A9
:1006000020462BB1D8F8BC100CF072FE00B1264683
:10061000BD42EED13046BDE8F08100BF0000204170
:100620002DE9F843D0F8BC800F4F4FF00009051FAB
:1006300000F1300655F8044F414620460CF058FEB4
:100640000346394620464BB10CF034FE034649467A
:1006500020461BB10CF04CFE00B1A146B542E9D1D9
:100660004846BDE8F88300BF0000A0402DE9F84FE0
:10067000D0F8BC90174F83460026051F00F13008C4
:100680004FF0000A55F8044F494620460CF030FE62
:100690000346394620464BB10CF00CFE30B13046D3
:1006A00021460CF061FB0AF1010A06464545E9D1F5
:1006B000CBF8E0A0BAF1000F08D050460CF008FCCF
:1006C000014630460CF00CFDBDE8F88F0020BDE877
:1006D000F88F00BF0000A040D0F8E000704700BFD6
:1006E00038B5D0F8F430012B0ED1D0F8D8307BB922
:1006F000D0F8A440D0F8A050214628460CF0DAFDEE
:1007000020B92C46204638BDD0F8A040204638BD40
:10071000273350F82340204638BD00BFD0F8F430CE
:10072000012B2DE9F041044647D1D0F8D830002BF9
:1007300048D1D0F8A050D0F8A460284631460CF03B
:1007400013FBD4F8A870394680460CF00DFB5F49C6
:100750000CF0C6FC4FF07C51044628460CF0C8FD56
:100760004FF07C51002833D128460CF0A3FD30B166
:100770004FF07C5130460CF0BBFD002872D14FF099
:100780007C5128460CF0B4FD002834D14FF07C5148
:1007900030460CF0ADFD38B14FF07C5138460CF0CE
:1007A00089FD002840F090804FF07C5138460CF0D5
:1007B0009FFD00286DD03C4601E0D0F8A0402046C7
:1007C000BDE8F081273350F823402046BDE8F08192
:1007D00030460CF08DFD4FF07C51002836D0384665
:1007E0000CF086FD0028EAD14FF07C5128460CF031
:1007F00061FD00284FD14FF07C5130460CF05AFD7E
:100800004FF07C5100283ED038460CF071FD002896
:1008100049D14FF07C5130460CF06AFD68B14FF081
:100820007C5138460CF046FD002846D14FF07C51F3
:1008300030460CF03FFD0028A8D04FF07C513846E0
:100840000CF038FD0028A1D02C46B8E728460CF063
:1008500031FD0028CFD04FF07C5130460CF048FDE0
:100860000028C8D04FF07C5138460CF041FD0028DC
:1008700085D0394630460CF077FA4FF07C510CF0B9
:100880007BFB04469BE730460CF032FD0028CDD0C0
:10089000C5E70F4C93E74FF07C5138460CF028FD2C
:1008A0000028A8D0E5E7394628460CF05DFA4FF05D
:1008B0007C510CF061FB044681E74FF07C514046CF
:1008C0000CF05AFB04467AE7344678E700004040D3
:1008D0000000A0C2D0F8F430012B70B5044620D13E
:1008E000D0F8D8300BBBD0F8A0604FF07C51304628
:1008F0000CF0FEFCD4F8A450E0B9D4F8A8404FF0B6
:100900007C5128460CF0F4FC68B1314628460CF0C6
:10091000D1FC40B1214628460CF0CCFC18B12C4645
:1009200001E0D0F8A040204670BD273350F82340A6
:10093000204670BD304629460CF0BCFCD4F8A840D7
:100940000028DCD0304621460CF0B4FC0028D6D07C
:100950003446E8E72DE9F041064684B01446032901
:100960003ED8DFE811F004003201F800E700002370
:1009700080F8EC30907A537A000100EB131000F508
:100980007A700CF0A5FAAE490CF0F6FA3060207BD4
:10099000637B000900EB031000F57A700CF098FA05
:1009A000A7490CF0E9FAB060207BE37A000200F47A
:1009B0007060184400F57A700CF08AFAA0490CF0C7
:1009C000DBFA7060E07BA37B000200F470601844E7
:1009D00000F57A700CF07CFA99490CF0CDFAF060D1
:1009E0003046FFF777FFD6F8AC1004460CF062FCF7
:1009F00008B1C6F8AC40D6F8F430012B0FD1D6F8C8
:100A0000D830002B40F09280D6F8A050D6F8A44001
:100A1000284621460CF04EFC18B92C4601E0D6F8C9
:100A2000A040D6F8B00021460CF044FC08B1C6F84E
:100A3000B040DFF81082341F06F13007A06B54F885
:100A4000045F29460CF054FC034628462BB1D6F827
:100A5000BC100CF043FC00B16563A16E28460CF09D
:100A600047FC0346414628461BB10CF041FC00B14F
:100A7000A566A742E2D196F8EC3043B9724B1B68E9
:100A80000093009BC6F8E83004B0BDE8F0816E4CDE
:100A9000D6F8E83022680192019AD6F8F010D21AFE
:100AA0008A4232D222680292029A0B449B1A41F285
:100AB00087329342E8D8022164480BF07DFB6448FA
:100AC00008F02AFE062163480BF076FB96F8DC104E
:100AD0005F4800230A2208F037FE19215E480BF018
:100AE0006BFB2168D6F8E830D6F8F0200391039C20
:100AF00057489918091B00230A2208F025FE54487C
:100B000004B0BDE8F04108F007BE202200213046C5
:100B10000DF0B4FA0023C6F89C30C6F8A030C6F831
:100B2000A430C6F8A83004B0BDE8F081273356F8E9
:100B3000234076E7002380F8EC30907A537A000166
:100B400000EB131000F57A700CF0C2F93C490CF080
:100B500013FA306344E7002380F8EC30907A537A3C
:100B6000000100EB131000F57A700CF0B1F9344974
:100B70000CF002FA3062207B637B000900EB03106B
:100B800000F57A700CF0A4F92D490CF0F5F9B0627B
:100B9000207BE37A000200F47060184400F57A705C
:100BA0000CF096F926490CF0E7F97062E07BA37B24
:100BB000000200F47060184400F57A700CF088F9B7
:100BC0001F490CF0D9F9F0620AE7002380F8EC30F5
:100BD000907A537A000100EB131000F57A700CF054
:100BE00077F917490CF0C8F93061207B637B000965
:100BF00000EB031000F57A700CF06AF910490CF064
:100C0000BBF9B061207BE37A000200F47060184405
:100C100000F57A700CF05CF909490CF0ADF97061DF
:100C2000E07BA37B000200F47060184400F57A704A
:100C30000CF04EF902490CF09FF9F061D0E600BFCC
:100C40006F12833A0000A040C0D3FF1FB04F0100D5
:100C5000FC89FF1F8C3C0100943C01002DE9F0470A
:100C60000026D0F8BC90104FC0F89C608246051F4B
:100C700000F1300855F8044F494620460CF038FB87
:100C800003463946204653B10CF014FB0346214677
:100C9000304623B10CF068F80646CAF89C0045457A
:100CA000E8D13046BDE8F0870000A04002299ABF95
:100CB000283150F821000020704700BF3E2998BF1E
:100CC00080F8DC10704700BFD0F8F400704700BF18
:100CD000D0F8E400704700BF90F8C400704700BF30
:100CE00090F8C500704700BFC0F8D810704700BF2B
:100CF00080F8C410704700BFC0F8C010704700BF34
:100D000080F8C510704700BF30B50F4CC0F8BC105C
:100D100083B020460D4608F0FFFC204608F0FCFC9E
:100D200028460BF005FF0B460221024600912046A3
:100D300008F016FD204608F0EFFC204603B0BDE8A1
:100D4000304008F0E9BC00BFFC89FF1F70B500F51A
:100D50007455064600F12C0434352046F834FFF76C
:100D60007BFBAC42F9D106F592750124284600219F
:100D7000FFF7BEFF214628460134FFF79FFF3F2CB7
:100D800005F1F805F2D106F540530748306100211E
:100D90007161002205480649B061F16183F83E2D7A
:100DA0003046A3F83C2D70BD00007A440000484353
:100DB0000000C8C270B500F59274012500260DE050
:100DC000012620460021FFF79BFF294620460135DA
:100DD000FFF774FF3F2D04F1F8040FD02046FFF712
:100DE0007BFF03462046002BEBD0FFF779FF06463A
:100DF0000028E5D101462046FFF77AFF304670BD56
:100E0000816270472DE9F04F00F5405383B093F8AD
:100E10003E4D01933C2C00910ED9DFF898820123BE
:100E200098F8062001996FF3000281F83E3D88F89A
:100E3000062003B0BDE8F08F0A2C40F27B81142C11
:100E400005460ED9A4F11903DBB21E2B04D89A4A29
:100E500022FA03F3DA070CD4631CDFF85882DBB202
:100E6000DEE7A4F10B02D2B240F21123D340DB073C
:100E7000F2D5019ADFF83C82002382F83D3D05F56A
:100E80009276012705E001373F2F06F1F80600F0C2
:100E900094803046FFF720FF0028F4D04FF0000B7D
:100EA0005C464FF00109A96AA8680BF05DFF59463E
:100EB00082463046FFF790FB014650460CF0FAF9A7
:100EC00018B109FA0BF323439CB20BF1010BBBF1F0
:100ED0000D0FE8D11CB1019A012382F83D3D009B22
:100EE000012B00F0CD800023744AC8F80830C8F800
:100EF0000C30994644FA09F303F0010309F10109A2
:100F0000DB00B9F1080F02F8013FF3D107F1FF3B15
:100F1000BBF10B0F0AD8DFE80BF0938F8B87A39FF1
:100F20009B97ABA7AF06664BC8F80030B8F8063001
:100F30006049644803F0FE0343F4006343F0010397
:100F4000A8F8063007F018FB012009F051FB5E49B4
:100F5000082044FA09F313F0010309F1010914BF51
:100F600008700B70B9F10D0F01F10101F1D14FF0D3
:100F7000FE33C8F80C30BBF10B0F0AD8DFE80BF0DA
:100F80004C504844403C3834302C28064F4BC8F86D
:100F90000030B8F8063047494A4803F0FE0343F4EE
:100FA000006343F001030137A8F8063007F0E4FAC4
:100FB0003F2F06F1F8067FF46CAF019A92F83D3DA1
:100FC000002B3FF42CAF92F83E3D0133DBB227E714
:100FD0003F4BC8F80030DCE73E4BC8F80030D8E79C
:100FE0003D4BC8F80030D4E73C4BC8F80030D0E7A0
:100FF0003B4BC8F80030CCE73A4BC8F80030C8E7A4
:10100000394BC8F80030C4E7384BC8F80030C0E7A7
:10101000374BC8F80030BCE7364BC8F80030B8E7AB
:10102000354BC8F80030B4E7344BC8F800307DE7E2
:10103000334BC8F8003079E7324BC8F8003075E719
:10104000314BC8F8003071E7304BC8F800306DE71D
:101050002F4BC8F8003069E72E4BC8F8003065E721
:101060002D4BC8F8003061E72C4BC8F800305DE725
:101070002B4BC8F8003059E72A4BC8F8003055E729
:10108000294808F049FB072128480BF095F8394614
:10109000254808F039FB032125480BF08DF8002383
:1010A00010222146204808F04FFB1F4808F034FB6F
:1010B00019E700BF8091FF1F218410428791FF1F15
:1010C000AF54551ACCD1FF1F8891FF1FB054551A49
:1010D000AE54551AAC54551A1B54551A1954551A76
:1010E0001754551A1554551A1354551A1154551AA4
:1010F0000F54551A0B54551A0D54551A1054551AAD
:101100000E54551A0C54551A0A54551A1854551A97
:101110001654551A1454551A1254551AAB54551ADC
:101120001A54551AAD54551AFC89FF1FB03C0100E2
:10113000B83C0100012C7FF48FAEDFF81C82874899
:10114000B8F8063003F0FE0343F4006343F00103F4
:1011500000254146A8F80630814BC8F80030C8F891
:101160000850C8F80C5007F007FA204609F040FA7A
:101170007C4B7A48C8F80030414607F0FDF920461C
:1011800009F036FA784B7548C8F80030414607F048
:10119000F3F9204609F02CFA744B7048C8F8003077
:1011A000414607F0E9F9204609F022FA704B6B48F6
:1011B000C8F80030414607F0DFF9204609F018FA78
:1011C0006C4B6648C8F80030414607F0D5F9204618
:1011D00009F00EFA684B6148C8F80030414607F044
:1011E000CBF9204609F004FA644B5C48C8F800309B
:1011F000414607F0C1F9204609F0FAF9604B57481B
:10120000C8F80030414607F0B7F9204609F0F0F978
:101210005C4B5248C8F80030414607F0ADF9204613
:1012200009F0E6F9584B4D48C8F80030414607F040
:10123000A3F9204609F0DCF9544B4848C8F80030BF
:10124000414607F099F9204609F0D2F94FF0FE33F4
:101250004146C8F80C3041484D4BC8F80030C8F83A
:10126000085007F089F9204609F0C2F9494B3B487C
:10127000C8F80030414607F07FF9204609F0B8F978
:10128000454B3648C8F80030414607F075F920460E
:1012900009F0AEF9414B3148C8F80030414607F03B
:1012A0006BF9204609F0A4F93D4B2C48C8F80030F2
:1012B000414607F061F9204609F09AF9394B274871
:1012C000C8F80030414607F057F9204609F090F978
:1012D000354B2248C8F80030414607F04DF920460A
:1012E00009F086F9314B1D48C8F80030414607F037
:1012F00043F9204609F07CF92D4B1848C8F8003016
:10130000414607F039F9204609F072F9294B134894
:10131000C8F80030414607F02FF9204609F068F977
:10132000254B0E48C8F80030414607F025F9204605
:1013300009F05EF9214B0948C8F80030414607F032
:101340001BF9204609F054F9019A92F83E3D82F8C3
:101350003D5D0133DBB263E58091FF1FCCD1FF1F00
:101360000A54551A0C54551A0E54551A1054551A3D
:101370001254551A1454551A1654551A1854551A0D
:101380001A54551AAB54551AAD54551AAF54551A30
:101390000B54551A0D54551A0F54551A1154551A09
:1013A0001354551A1554551A1754551A1954551AD9
:1013B0001B54551AAC54551AAE54551AB054551AFC
:1013C000F8B500F54057002300F57456C7F8403DC6
:1013D00000F59274343602E0F834B4420FD020465F
:1013E000FFF77AFC0028F7D02046D7F8405DFFF7DA
:1013F00073F9F8340544B442C7F8405DEFD1D7F82B
:10140000400DF8BD012B2DE9F04105460E4617466B
:1014100008D0022B1C4603D14A7B0B68DF2A38D147
:10142000BDE8F08108685FFA80F8A8F10B03302B63
:101430000ED800F00F000BF04BFD4FF07C510BF07D
:101440009BFD4FF07E510BF08FFC0BF05BFF804655
:10145000C8EB481405EBC4042C3401212046FFF7E7
:1014600047FC01212046FFF74BFC01223146204674
:10147000FFF730F8012FD3D1184808F04DF9414655
:10148000164808F041F9BDE8F04115480D210AF071
:1014900093BE03F00F0808F10108C8EB481300EBF6
:1014A000C3052C3501212846FFF722FC01212846DF
:1014B000FFF726FC224631462846FFF70BF8012F9E
:1014C000AED1064808F028F94146044808F01CF956
:1014D000BDE8F04103480D210AF06EBEFC89FF1FF4
:1014E000BC3C0100CC3C010000F5405393F83D3D6D
:1014F00003B17047F0B50B68A3F5D87383B0054608
:101500000C463E2B2CD8DFE803F020504A4D5356B2
:10151000595C5F6265686B6E7174777A7D808386D3
:10152000898C8F9295989B9EA1A4E3E9A7ECAAAD24
:10153000E62BB0B3B62BB9BCBF2BC2C5C82BCBCEE4
:10154000D12BD4D7DA2BDDE02D0000270126A37A9A
:10155000FF2B05D0637BFF2B02D0E37BFF2B06D153
:1015600003B0F0BD02271026A37AFF2BF8D0012A82
:1015700000F0BA80C6EB461605EBC6052C352846AA
:101580000121FFF7B5FB28460121FFF7B9FB2246F1
:101590003946284603B0BDE8F040FFF7DBB9022723
:1015A0000126E1E703270126DEE701273E46CEE7D5
:1015B00000270226CBE701270226C8E702273E467E
:1015C000D2E703270226CFE700270326BFE701273C
:1015D0000326BCE702270326C6E703273E46C3E7E8
:1015E00000270426B3E701270426B0E702270426D4
:1015F000BAE703270426B7E700270526A7E7012750
:101600000526A4E702270526AEE703270526ABE754
:10161000002706269BE70127062698E702270626CD
:10162000A2E7032706269FE7002707268FE7012763
:1016300007268CE70227072696E70327072693E766
:101640000027082683E70127082680E702270826C7
:101650008AE70327082687E70227092684E7002769
:101660000A2674E701270A2671E700270B266EE792
:1016700001270B266BE702270B2675E700270C26B0
:1016800065E701270C2662E702270C266CE7002796
:101690000D265CE701270D2659E702270D2663E793
:1016A00000270E2653E701270E2650E702270E26B5
:1016B0005AE700270F264AE701270F2647E70227A8
:1016C0000F2651E70027102641E7012710263EE7A5
:1016D000002709263BE702270A2645E701270926B6
:1016E00035E7032709263FE70A48019208F014F876
:1016F0003146084808F008F8019A074811460AF0F0
:101700005BFD3946034807F0FFFF032103480AF059
:1017100053FD2FE7FC89FF1FDC3C0100B83C0100B2
:101720002DE9F04F0023DFF86491DFF86481594F11
:10173000036083B0064600F59274012504E001358C
:101740003F2D04F1F80468D02046FFF7C5FA0028C1
:10175000F5D0484600F084FD2946404600F080FD63
:101760002046FFF77BFA0BF0E3F902460B463846BA
:1017700000F076FD2046FEF735FF82462046FEF754
:101780004FFF834650460BF0D3F902465846924627
:101790008B460BF0CDF95B465246CDE900013E4841
:1017A00000F05EFD00212046FFF780FA012182460D
:1017B0002046FFF77BFA834650460BF0B9F9024604
:1017C000584692468B460BF0B3F95246CDE90001DC
:1017D0005B46324800F044FD2046FFF73FFA0146E1
:1017E00030680BF0C1FA30602046FFF773F8B1693A
:1017F0000BF060FD002833D12046FEF771FFF16940
:101800000BF076FD00289AD02046FEF769FF0135DF
:101810003F2DF06104F1F80496D170680BF058FB8D
:10182000014630680BF05CFC7169306004460BF0D7
:101830005FFD00B17461316920460BF03BFD00B1E2
:1018400034610B2008F06AFE06F5405696F83C3DE0
:1018500058B9B3B1012386F83C3D03B0BDE8F08F21
:101860002046FFF737F8B061C6E72BB9002386F8AA
:101870003C3D03B0BDE8F08F094800F003FD0023B4
:10188000F5E7084800F012FDE4E700BF444301001B
:10189000E03C01001C3D0100303D01005C3D0100C9
:1018A000B03D0100783D010070B5114B836000F53B
:1018B0007455064600F59274343502E0F834AC42B3
:1018C00013D02046FFF708FA0028F7D02046FEF78D
:1018D00089FEB1680BF0EEFC0028EFD02046FEF741
:1018E00081FEF834AC42B060EBD1B06870BD00BF8F
:1018F0000000A04070B5002300F574550646C36093
:1019000000F59274343502E0F834AC4213D020462E
:10191000FFF7E2F90028F7D02046FEF781FEF168D4
:101920000BF0E6FC0028EFD02046FEF779FEF834F5
:10193000AC42F060EBD1F06870BD00BF006870474A
:1019400000F54050D0F8380D704700BF4160704737
:101950002DE9F04100F57455884617461E4600F5FE
:101960009274343502E0F834AC4213D02046FFF7CD
:10197000B3F90028F7D020464146FFF7B5F92046D5
:101980003946FFF7C1F920463146F834FFF7B4F97C
:10199000AC42EBD1BDE8F0812DE9F8432A4A2B4B4C
:1019A000DFF8AC90426200F574558046036200F5A2
:1019B000927434350026002702E0F834A54210D096
:1019C0002046FFF789F90028F7D02046FEF7A6FE4B
:1019D00049460BF08DFC88B9F834A54206F10106A2
:1019E000EED108F54058D8F8380D801B0BF070FA8E
:1019F000014638460BF074FBBDE8F8832046FEF73D
:101A00008DFE014638460BF0AFF907462046FEF73B
:101A100067FED8F820100BF06BFC70B92046FEF77B
:101A200059FFD8F824100BF045FC0028C5D02046FB
:101A3000FEF750FFC8F82400BFE72046FEF750FE2F
:101A4000C8F82000EAE700BF00C0794400C079C4AC
:101A500000008CC2006A7047406A70472DE9F0416F
:101A600000F540580026002300F57455C8F8383DAD
:101A700000F592743435374602E0F834AC421DD09C
:101A80002046FFF729F90028F7D02046FEF7EEFDA3
:101A900039460BF02DFC03462046002BEDD0FEF717
:101AA000E5FD014630460BF05FF9D8F8383DF834D3
:101AB0000133AC420646C8F8383DE1D1D8F8380DBC
:101AC0000BF006FA014630460BF00AFBBDE8F08148
:101AD0002DE9F04F91B00446A4480E9100F066FB4A
:101AE000A24800F063FB04F54058A04804F5745781
:101AF00000F05CFB04F5927500233437D8F838BD4C
:101B0000C8F8403D2E46B94602E0F836B1450FD040
:101B10003046FFF7E1F80028F7D03046D8F8407D8E
:101B2000FEF7DAFDF8360744B145C8F8407DEFD13D
:101B3000D8F8402D20680F920AF0FAFF63680D93E1
:101B4000064620460F46FFF789FF80462046D4F818
:101B50000890D4F80CA0FFF71FFF0AF0E9FFCDE9C9
:101B60000A01494650460BF0FDF881490BF004FA92
:101B70000AF0DEFFCDE9080150460AF0D9FFCDE9B1
:101B8000060148460AF0D4FFCDE9040140460AF0B8
:101B9000CFFF0D9B0F9ACDE90201CDE90067754893
:101BA000754E594600F002FB704800F0FFFA002322
:101BB0004FF001080D9307E008F10108B8F13F0F5D
:101BC00005F1F80500F09D802846FFF785F800280C
:101BD000F2D02846FEF7F0FC2846FEF7F1FC284636
:101BE000FEF7F2FC2846FEF7F3FC082163480AF0F2
:101BF000E3FA4146304607F087FDB8F1090F40F39C
:101C0000B08002215E48DFF87CA10AF0D5FA2846B0
:101C1000FFF724F80AF08CFF9DF83890CDF800907B
:101C20000B460246304607F09BFD574801210AF05B
:101C3000C3FA2B46DDF834B04D46002499461FE028
:101C4000062152480AF0B8FA5946304607F05CFDC2
:101C500002214F480AF0B0FA21464846FEF7BCFC84
:101C60000AF066FF009502460B46304607F078FD05
:101C70000134454801210AF09FFA0D2C0AD0BB46D9
:101C8000BBF1090F0BF10107DADC012150460AF024
:101C900093FAD5E7304607F03FFD4846FFF714F8C2
:101CA0000D9B04460D33012C3A480D934D464FF0E1
:101CB000090129D00AF080FA00214846FEF7F6FF14
:101CC0000AF036FF0B46022102460091304607F02B
:101CD00047FD0E2130480AF06FFA2846FEF7F8FF5C
:101CE000002301461022304607F02EFD08F10108BE
:101CF000304607F011FDB8F13F0F05F1F8057FF40C
:101D000063AF11B0BDE8F08F0AF056FA00214846E3
:101D1000FEF7CCFF0AF00CFF022702460B460097A5
:101D2000304607F01DFD0A211C480AF045FA2146FD
:101D30004846FEF7BBFF0AF0FBFE009702460B4643
:101D4000304607F00DFD0A2115480AF035FA3946EC
:101D50004846FEF7ABFF0AF0EBFE009702460B4643
:101D6000B4E7012107480AF027FA4AE74443010093
:101D700000007A4460400100FC89FF1F004101001F
:101D8000B04F0100CC4101000C41010010410100A5
:101D9000BC410100184101003C4101002441010007
:101DA000304101002DE9F04F87B000F59274DFF863
:101DB0004882DFF84892039104929B462646012709
:101DC0000594924604E001373F2F06F1F80675D0DE
:101DD0003046FEF781FF0028F5D000230A22039940
:101DE000404607F0B1FC012148460AF0E5F95046AB
:101DF0000AF09EFE0B46002102460091404607F085
:101E0000AFFC012148460AF0D7F95946404607F091
:101E10007BFC012148460AF0CFF93946404607F0DD
:101E200073FC012148460AF0C7F900240225214627
:101E30003046FEF7D1FB0AF07BFE009502460B46CA
:101E4000404607F08DFC0134012148460AF0B4F900
:101E5000082CECD100213046FEF728FF0AF068FE7E
:101E6000009502460B46404607F07AFC01214846A1
:101E70000AF0A2F901213046FEF718FF0AF058FED9
:101E8000009502460B46404607F06AFC0121484691
:101E90000AF092F902213046FEF708FF0AF048FEE8
:101EA000009502460B46404607F05AFC0137404673
:101EB00007F032FC3F2F06F1F80689D1059C504F00
:101EC000DFF8388101264FF0000A04E001363F2E8A
:101ED00004F1F8045CD02046FEF7FEFE0028F5D0A1
:101EE00000230A220399384607F02EFC01214046C0
:101EF00008F034FE04980AF01BFECDF800A002465C
:101F00000B46384607F02CFC0121404608F026FE1F
:101F10005946384607F0F8FB0121404608F01EFEFE
:101F20003146384607F0F0FB0121404608F016FE26
:101F300000254FF0020929462046FEF74DFB0AF026
:101F4000F7FDCDF8009002460B46384607F008FC36
:101F500001350121404608F001FE0D2DEBD1204650
:101F6000FEF7B2FE0546012D4FF00001204612D0CB
:101F7000FEF79CFE0AF0DCFD013602460B46CDF86A
:101F80000090384607F0ECFB3F2E04F1F804A2D194
:101F900007B0BDE8F08FFEF789FE0AF0C9FDCDF865
:101FA000009002460B46384607F0DAFB29464046C9
:101FB00008F0D4FD29462046FEF778FE0AF0B8FD69
:101FC000CDF8009002460B46384607F0C9FB29467B
:101FD000404608F0C3FD02212046FEF767FE0AF0E6
:101FE000A7FDCDF8009002460B46384607F0B8FB37
:101FF000384607F091FB69E7FC89FF1FDC3C0100D4
:10200000BC88FF1F014B1870704700BF2488FF1F5A
:102010000278002A00F0B8802DE9F0435C4FDFF829
:1020200074815D4E83B003460D46252A34D158781D
:102030005C1C002838D0A0F12503552B2ED8DFE8F2
:1020400003F09F2D2D2D2D2D2D2D2D2D2D2D2D2DB5
:102050002D2D2D2D2D2D2D2D2D2D2D2D2D2D2D934A
:102060002D2D2D2D2D2D2D2D2D2D2D2D2D2D2D2DA0
:102070002D882D2D2D7C2D2D2D2D2D2D2D2D2D749F
:1020800039392D5E2D2D392D2D392D2D2D2D2D2D1F
:10209000493F2D2D2D562D6918781C460AF010F950
:1020A0006278631C002AC0D13C4803B0BDE8F0430D
:1020B00007F032BB55F8041B384807F025FBEFE763
:1020C00055F8041B01290EBF3548012130460AF09E
:1020D00073F8E5E755F8049BB9F1000FE0D04846E6
:1020E0000CF0EEF8014648460AF066F8D8E755F8D5
:1020F000041B2A480023102207F026FBD0E70735EF
:1021000025F007050321F5E802232448009107F094
:1021100027FBC5E7073525F007050021F5E8022371
:102120001E48009107F01CFBBAE755F8041B1B483A
:102130000023022207F008FBB2E7022119480AF047
:102140003BF855F8041B15480023102207F0FCFA51
:10215000A6E755F8043B012B07BF042140460521A3
:1021600038460AF029F89BE702210F480AF024F8C4
:1021700055F8041B09480023022207F0E5FA8FE70F
:1021800025200AF09DF88BE7044807F0C5BA00BF88
:10219000644101005C41010058410100FC89FF1FBE
:1021A000544101004C410100504101000FB400B501
:1021B00083B004A951F8040B0191FFF729FF03B084
:1021C0005DF804EB04B07047F0B51C4B1C4F1B6866
:1021D00083B004460193019B3B600D4616461946A9
:1021E0000A220023174807F0AFFA0321164809F026
:1021F000E3FF032C07D8DFE804F01B160211134895
:10220000072109F0D9FF0221114809F0D5FF314615
:10221000284603B0BDE8F040FFF7FABE05210D489F
:1022200009F0CAFFEFE704210B4809F0C5FFEAE710
:1022300005210A4809F0C0FFE5E700BFC0D3FF1F32
:102240009091FF1FFC89FF1F6C410100804101003C
:10225000BC4101008841010078410100704101004A
:102260000FB400B5064B187883B020B905AA0499BD
:102270000192FFF7A9FF03B05DF804EB04B07047CB
:102280002488FF1F0FB4084B00B51B78012B83B0C7
:1022900005D805AA049901920120FFF795FF03B024
:1022A0005DF804EB04B070472488FF1F0FB4084B9F
:1022B00000B51B78032B83B005D805AA04990192B9
:1022C0000320FFF781FF03B05DF804EB04B0704713
:1022D0002488FF1F30B4074D074C084900232B709A
:1022E0002360036530BC4365836580F85C300B6018
:1022F000704700BF9891FF1F9491FF1F9C91FF1F93
:1023000070B5132008F00AF958B9114C08F050F9CB
:102310002268104B801A80B2188008F049F92060BA
:1023200070BD0C4D0A4B2C881E6808F041F9A4B210
:102330003444201A2A880849C0EB00139B0092B24B
:10234000A3F63403B3FBF2F39BB20B8070BD00BF66
:10235000D0D0FF1FD0CFFF1FD891FF1FDDF800C0E6
:10236000521AACEB030C1CD0401ABCF1000F0CFB52
:1023700000F002EBD27109DB00EB610000FB02F11F
:10238000002990FBF2F0184410DB7047A0EB6100CD
:1023900000FB02F1002990FBF2F01844F5DB01305C
:1023A00070470CEBDC7C03EB6C0070470138704726
:1023B000114B10B54FF47A701C7807F0C9FB8442BA
:1023C00004D021464FF47A7007F0DCFB0B4B0C482D
:1023D0005A7842F040025A701A7842F040021A705D
:1023E00007F09AF90748072109F0E6FEBDE810401A
:1023F000034807F091B900BF2888FF1F00D00740AD
:10240000FC89FF1F9041010038B5044649B10846D8
:102410000D460BF055FF236802465B6829462046AF
:1024200098472046BDE8384007F076B92DE9F047D7
:102430004048414E414CDFF80891DFF80881424F97
:10244000FFF7B4FE414B4249D96042491961424904
:1024500059614249596242499961DE624FF07C51AB
:102460000026596419651E634FF496713D4E196636
:1024700099665E6340F61C413B4ED9669E630A2115
:102480003A4E196740F2122541F204015E60384E5F
:102490001D805967374D1E625A21374EDC6100227C
:1024A00001209D62DC6364250C2499679E643221BF
:1024B000324E83F8402040F2012AC3F8D4005C6514
:1024C00098655966DE64DD652D4EA3F808A0DA67CD
:1024D000C3F88420C3F8A820FF220224DFF8A4E078
:1024E000DFF8A4C0C3F8B400C3F89C10C3F8AC1064
:1024F000C3F8B02044F6206041F288314FF47A727C
:10250000C3F8C860C3F88890C3F89080C3F894E01B
:10251000C3F8BC50C3F8C070C3F8C4C0C3F880404F
:10252000C3F8B840C3F88C00C3F89810C3F8A020D3
:10253000BDE8F08798410100000020C1CDCC4C3EA1
:10254000D606D6060000684288130500D8D0FF1FC3
:10255000666686400000404033338340CDCCCC3D9E
:10256000CDCC4C40000020420000A04020A107003C
:1025700033337340000082429A9979400AD7233D51
:102580000101F40100C020449A99993EF8B5504DDC
:10259000504C5148E66800232B70FFF7ABF9014619
:1025A00030460AF087FE002814BF042308232B704E
:1025B0004948FFF779F921690AF07CFE2B78002859
:1025C00079D043F010032B704348FFF743FAA16A18
:1025D0000AF08EFE2B78002876D043F040030027C7
:1025E0002B706F703C48FFF737FAE16A0AF062FE21
:1025F000B84214BF012302236B70EF703648FFF717
:1026000079F906463448FFF74FF9014630460AF09B
:10261000A9FBE16B314E0AF06BFEB84214BF0123F7
:102620000223EB702C483770FFF764F9616A0546A6
:10263000E0680AF097FB014628460AF059FEB842C6
:1026400014BF0423082333702348FFF72DF9616A70
:10265000054620690AF088FB014628460AF02AFE52
:10266000337870B343F0100333701B48FFF7F2F96F
:10267000A16B0546A06A0AF075FB014628460AF0E0
:1026800037FE3378D0B143F04003002272703370CC
:102690001148FFF7E1F9A16B0346E06A1C460AF016
:1026A00063FB014620460AF005FE002814BF012303
:1026B00002237370F8BD43F0200384E743F08003E6
:1026C000E3E743F02003CFE743F0800387E700BF51
:1026D000E091FF1FD8D0FF1FF091FF1FC4D1FF1F53
:1026E0002DE9F0417F4C2368012B82B049D0022BA9
:1026F00000F0C380032B03D02BB302B0BDE8F08100
:10270000794B7A4E4FF47A721A60D6F8AC000AF020
:10271000DFFB0546D6F8B0000AF0DAFB29460AF0DE
:1027200021FB73490AF028FC71490AF0D9FC2946BB
:102730000AF01AFB0AF0E6FD0146062007F04CFD00
:102740002368002BD9D1694B6A48D3F8AC10D3F871
:10275000B02003686848521A002A02FB03F3C0F253
:10276000B280323380FB0320DA17C2EB6012002BF9
:102770001144C0F2B480062002B0BDE8F04107F079
:102780002BBD594F38680A30B0F57A7F00F3968038
:1027900038600AF09DFB59490AF0EEFB8046534E23
:1027A000D6F8AC000AF094FB0546D6F8B0000AF063
:1027B0008FFB29460AF0D6FA41460AF0DDFB4C4968
:1027C0000AF08EFC29460AF0CFFA0AF09BFD01467A
:1027D000062007F001FD0221494809F0EDFC4948B7
:1027E00006F09AFF0621484809F0E6FC38680AF02E
:1027F0006FFB42490AF0C0FB0AF09AF94FF0020859
:1028000002460B463F48CDF8008006F0A9FF0D2197
:102810003E4809F0D1FCD6F8AC000AF059FB054659
:1028200038680AF055FB35490AF0A6FB0346D6F88E
:10283000B0001E460AF04CFB29460AF093FA014606
:1028400030460AF099FB2A490AF04AFC29460AF068
:102850008BFA0AF06DF9CDF800800B460246294844
:1028600006F07EFF4146264809F0A6FC254806F002
:1028700053FF2368022B7FF43DAF1B4B1B4E0022FE
:102880001A60D6F8AC000AF023FB0546D6F8B00073
:102890000AF01EFB29460AF065FA00210AF06CFBDB
:1028A00013490AF01DFC29460AF05EFA0AF02AFDD7
:1028B0000146062007F090FC23681BE700234FF039
:1028C00000083B606BE7323B80FB0320DA17C2EB6A
:1028D0006012002B1144FFF64EAF01314BE7013976
:1028E00049E700BFDCCFFF1FD091FF1FD8D0FF1FEB
:1028F0000000C8422888FF1F1F85EB51CDCCCC3D7E
:10290000B04F0100FC89FF1FB8410100C041010028
:1029100070B5B248B24C06F0FFFEB04806F0FCFEBF
:10292000AE4806F0F9FEAF480D2109F045FCD4F899
:10293000A830012B11D0AC4CA848217800230A22E2
:1029400006F002FF2378052B57D8DFE813F00601C5
:102950000B01100115011A0101010921A34809F019
:102960002BFCA348FEF7A0FF21690AF0A3FC002876
:1029700040F02E819E48FEF7BDFFE1680AF0B8FCEA
:10298000002840F06C819A48FEF7B4FF054698484D
:10299000FEF78AFF014628460AF0E4F9E16B0AF0E7
:1029A000A7FC002840F056819148FEF7F5FFA16A88
:1029B0000AF09EFC002840F05C818D48FEF7ECFF99
:1029C000E16A0AF077FC002840F04E81894B884884
:1029D0001B68012B00F0EC80FEF766FF21690AF00E
:1029E00087FC002840F0D2800721834809F0E4FBEF
:1029F000824B7A48196806F087FE0221804809F068
:102A0000DBFB122007F08AFD012800F09C801120DA
:102A100007F084FD012800F091807A4B1B68012BA0
:102A200000F0878002217648774C09F0C5FB774B90
:102A30006A48196806F068FE684806F06DFE0421D1
:102A4000734809F0B9FB0B2007F068FD002301462D
:102A50000A22624806F078FE0C2007F05FFD002392
:102A600001460A225D4806F06FFE142007F056FD6D
:102A7000002301460A22594806F066FE152007F099
:102A80004DFD0A2201460023544806F05DFE062152
:102A9000604809F091FB2368D8074BBF0121012151
:102AA0005D485E4809F088FB236899074BBF012108
:102AB00001215948594809F07FFB23685A074BBF49
:102AC000012101215448554809F076FB23681B0772
:102AD0004BBF012101215048504809F06DFB0421F2
:102AE0004F4809F069FB112007F018FD002301464B
:102AF0000A223A4806F028FE102007F00FFD0023B6
:102B000001460A22354806F01FFE122007F006FD96
:102B1000002301460A22314806F016FE132007F072
:102B2000FDFCBDE87040014600232C480A2206F057
:102B30000BBE11213B4809F03FFB73E70A213A48DD
:102B400009F03AFB69E70E21384809F035FB5EE7EA
:102B50000721374809F030FB4FE70621354809F0D7
:102B60002BFB4AE70721344809F026FB45E70721FC
:102B7000324809F021FB40E70821314809F01CFBED
:102B80003BE70B212F4809F017FB36E71848FEF703
:102B9000B1FEE1680AF08EFB00283FF425AF124B2E
:102BA0001B78052B6AD10A21274809F005FB1BE792
:102BB000FEF77AFE216A0AF09BFB00285ED0162100
:102BC000224809F0F9FA0A211F4809F0F5FA0BE743
:102BD0000F211F4809F0F0FACCE600BFFC89FF1F67
:102BE000D8D0FF1FD041010034CFFF1FE0410100CA
:102BF000F091FF1FB0D1FF1F70420100B091FF1F85
:102C0000B04F0100E891FF1FB4CFFF1F3CCFFF1F63
:102C1000E0420100E8420100F0420100F4420100FC
:102C2000F8420100CC420100C0420100B042010064
:102C3000A842010078420100804201009442010054
:102C40009C420100884201005842010040420100BC
:102C5000EC41010011210C4809F0AEFAA4E60E2166
:102C60000A4809F0A9FA8EE60D21094809F0A4FAEC
:102C7000ACE60C21074809F09FFA9EE608210648B9
:102C800009F09AFAB0E600BF0C420100FC410100D5
:102C90003042010020420100644201002DE9F0476A
:102CA000B54CD4F88060012E8CB000F04481032E26
:102CB0005CD0DFF8C882B24FB24EE36FB248012B4E
:102CC00009BF3168316801F10041316006F0C8FA8E
:102CD0003B68002B40F01581AB4806F095FA3B6845
:102CE000C8F800000546002B40F0FB80D4F8803087
:102CF000012B00F0BA80A54928460AF0F9FA30B94C
:102D0000A34928460AF0D6FA002800F0E081DFF84F
:102D100084A2DFF88492DAF800300A930A98D9F88E
:102D200000309E4FC01A0AF0CFF829460AF024F965
:102D30009B490AF0D5F99A490AF0D2F939680AF0A4
:102D400013F8DAF800300993099B3860C9F80030AD
:102D5000D4F8B4000AF0BCF829460AF00DF90023B3
:102D6000C8F8000033600CB0BDE8F0878D4D8E4F81
:102D70002A68DFF80882D2F8840001230F213B6023
:102D800006F02CF93B687E4F012B3B6800F02C814C
:102D9000002B40F0AF812B68DFF81092D3F884004D
:102DA000436B1E69B6B2C9F8006005F05FFEB4F867
:102DB0008A2040F6E44306FB03F3B3FBF0F0801AED
:102DC00000B20AF085F87A490646D4F890000AF075
:102DD000D3F8014630460AF083F9D9F80030694E3D
:102DE000632B306000F37A81002333603B68002B53
:102DF0003FF463AF02216F4809F0DEF92B68D9F880
:102E00000050D3F8840040F6E44303FB05F505F0D9
:102E10002DFEB5FBF0F00AF057F80546B4F88A002D
:102E20000AF056F80146284609F09CFF09F080FE9A
:102E3000022502460B4600955F4806F091FC2946A4
:102E40005C4809F0B9F9306809F072FE0095024655
:102E50000B46594806F084FC2946584809F0ACF95D
:102E60002946544809F0A8F927E74F4B1B68012B66
:102E700000F07581022B7FF46BAFD4F88C7038466C
:102E80000AF026F829460AF015FA40B978420AF005
:102E90001FF829460AF02CFA002800F0CE81DFF84E
:102EA000F4A0DFF8F490DAF8003007930798D9F827
:102EB00000303A4FC01A0AF007F829460AF05CF8C9
:102EC00037490AF00DF936490AF00AF9396809F06C
:102ED0004BFFDAF800300693069B3860C9F80030E3
:102EE00036E709F025FE0B460221024600913248E2
:102EF00006F036FC3248042109F05EF9D8F800509B
:102F0000F4E6214806F080F909F012FE0B46022192
:102F100002460091284806F023FC0321294809F0C5
:102F20004BF9D4F88C10244806F0EEFB0321254819
:102F300009F042F9D0E6DFF84480D4F88C70D8F874
:102F40000050384609F0C4FF29460AF0D1F900289C
:102F50003AD0784209F0BCFF014628460AF0C8F989
:102F600090B3104D104F28683E604FF0FF320F2194
:102F700005F026FD06E700BFD8D0FF1FC4CFFF1F16
:102F8000C8CFFF1FC091FF1F0CD0FF1F0000FA43E6
:102F90000000FAC3C0D3FF1F00D0FF1FE491FF1F42
:102FA00000007A44DC91FF1F7888FF1FB8D1FF1F13
:102FB000ACC52737B04F0100FC89FF1F3C4301001F
:102FC00040430100B83C01009F4FA04D02233B60ED
:102FD0002B680E21D3F8840006F000F83B689C4F64
:102FE000012B3B687FF4D4AE002B40F0E5802B68CA
:102FF000DFF86092D3F88400436B1E69B6B2C9F85B
:10300000006005F033FDB4F8883040F6E44A0AFB6E
:1030100006F6B6FBF0F6F01A00B209F059FF8E4939
:103020000646D4F8940009F0A7FF014630460AF09E
:1030300057F82B68894E0246D3F88400D9F800303F
:1030400032600AFB03FA05F011FDB4F88820BAFBE0
:10305000F0F31BB29B1A002BB4F8C220B8BF5B423E
:103060009A42C4BF002333603B68002B3FF425AE77
:1030700002217B4809F0A0F82B68D9F80050D3F85A
:10308000840040F6E44303FB05F505F0EFFCB4F8DB
:103090008810B5FBF0F52DB2691A724806F034FBC2
:1030A00002216F4809F088F8306809F041FD0225D7
:1030B00002460B4600956B4806F052FB03216A4816
:1030C00009F07AF82946664809F076F8F5E5674B85
:1030D0001B680B93664B0B9A1A6039E62B68D3F882
:1030E000840005F0C3FCD9F8003064389842FFF43E
:1030F0007BAE7BE65B48DFF85C9106F00DFB0C21B4
:103100005C4809F059F85C480C2109F055F82B6827
:103110003A68D3F88400436B1E69B6B2C9F8006000
:10312000002A3FF442AE05F0A1FC40F6E442002341
:1031300006FB02F2B2FBF0F10A224A4806F004FB59
:103140000221474809F038F8B4F88A10454806F0DB
:10315000DBFA2B68D9F80060D3F8840025E64749EC
:1031600028460AF0C5F828B9454928460AF0A2F8C9
:1031700000285BD0DFF8F4A0DFF8F490DAF8003034
:1031800004930498D9F800303E4FC01A09F09CFE11
:10319000294609F0F1FE3C4909F0A2FF3A4909F03D
:1031A0009FFF396809F0E0FDDAF800300393039BD4
:1031B0003860C9F80030CBE52A48DFF8989006F06F
:1031C000ABFAD4F88030012B0CBF304830480B21CB
:1031D00008F0F2FF28480C2108F0EEFF2A683B684F
:1031E000D2F88400426B1669B6B2C9F80060002BB1
:1031F0003FF407AF05F03AFC40F6E44306FB03F367
:103200000A22B3FBF0F10023164806F09DFA0121D3
:10321000204808F0D1FFB4F88810124806F074FA7C
:103220002B68D9F80060D3F88400EAE60F4B1B68DE
:1032300005930F4B059A1A608AE50C4B1B6808939F
:103240000B4B089A1A6083E57888FF1FDC91FF1FFB
:10325000C8CFFF1FB8D1FF1FACC52737C091FF1FD4
:10326000B04F0100FC89FF1F28430100C0D3FF1F9E
:1032700000D0FF1F2C430100184301000000FA4357
:103280000000FAC3E491FF1F00007A4400430100EC
:103290000C430100CC4101002DE9F04FA94DAA4C8F
:1032A0002B68012B87B000F00A81A84EA84FDFF8E9
:1032B000A492D9F80030002B00F0A680D4F85CB0BE
:1032C000A56DDFF89482A549386809F055FE05FB25
:1032D0000BF581464FF47A7005FB00F009F0F8FD1C
:1032E0000146484609F0FCFE9D4909F045FE0AF0FA
:1032F00009F8D4F884303060012B054656D0D4F854
:103300008030002B52D0632D73DDA36DE06D03FB85
:1033100000F04FF47A7303FB00F009F0D9FD8F49F8
:1033200009F0DEFE64233360D8F800303860002BEB
:1033300067D0D4F88030012B00F0E880032B00F038
:10334000F380022B00F0F9800221864808F034FF58
:10335000854B186809F0ECFB022402460B460094EA
:10336000824806F0FDF92146814808F025FF2146F4
:103370007C4808F021FF31687C4806F0C5F9062139
:103380007C4808F019FF3868744909F0F5FD09F028
:10339000CFFB009402460B46744806F0E1F97648EC
:1033A000032107B0BDE8F04F08F006BF7348FEF7F1
:1033B0007BFA734909F0E0FD09F0CAFFA56F626F5F
:1033C000E16E236F009580B2FEF7C8FF05463060BE
:1033D000E06DA36D05FB00F003FB00F000EB800047
:1033E000400009F075FD5D4909F07AFE632D3860F3
:1033F0008BDC002DBCBF00233360D8F80030002BDD
:1034000097D107B0BDE8F08FDFF878A1DAF8003087
:10341000002B37D0D4F85CB0A56DDFF83C81012BD0
:103420007FF451AF306800FB0BF005FB00F000EBC0
:103430008000554D400009F04BFD484909F050FE11
:103440002B680493049A386042F228339A4200F2BF
:10345000E2802B680593059A42F210739A420DD9C7
:10346000D8F800300122C9F80020002B40F0DB80A2
:10347000D4F8A830012B04BF444A1370D4F85CB0D0
:10348000A56D20E7404D2A680292029A42F2283345
:103490009A4200F2B8802B680393039A42F21073A9
:1034A0009A427FD8D9F80030D4F85CB0A56DDFF827
:1034B000A880002B7FF407AFDAF80030AFE72F4881
:1034C000FEF7F2F92E49666F276F09F055FD09F0F6
:1034D0003FFF3246A66FE16E00963B4680B2FEF794
:1034E0003DFF1A4EE36D306003FB00F0A36D184FF3
:1034F00003FB00F000EB8000400009F0E9FC1749F5
:1035000009F0EEFD002338602B60D0E6204B1B68ED
:10351000012B0CBF1F4820480A2108F04DFED4F8AB
:103520008030032B7FF40DAF1C48102108F044FEBF
:10353000D4F88030022B7FF407AF0721184808F039
:103540003BFE01E7C891FF1FD8D0FF1F2888FF1F4F
:10355000E491FF1FCC91FF1F4C88FF1FE4388E3E83
:103560000000C842B04F0100C4CFFF1FFC89FF1FFD
:103570003C430100D8430100E0430100F091FF1FEC
:1035800000007A44C491FF1FC0D3FF1F34CFFF1F38
:103590007888FF1FA4430100B0430100BC43010031
:1035A000D04301003448DFF8D480FEF77DF9344978
:1035B00009F0E2FC09F0CCFEA56F236F626FE16EAB
:1035C000009580B2FEF7CAFED4F85CB0A56D3060FD
:1035D0000BFB00F005FB00F000EB8000400009F061
:1035E00077FC284909F07CFDD8F8003038600122CA
:1035F000C9F8002033BBD4F8A830012B7FF463AEA8
:10360000214A13705FE6236D626C94F840101A48EB
:10361000FEF79EF93FE7236D626C94F84010164860
:10362000FEF796F915E70221184808F0C5FD18487D
:1036300006F072F85921174808F0BEFD144806F04C
:103640006BF815E70221114808F0B6FD104806F0A6
:1036500063F859210F4808F0AFFD0D4806F05CF8FB
:10366000D4F8A830D4F85CB0A56D012B04BF064A8D
:103670001370D9F800301CE7F091FF1F4C88FF1F32
:1036800000007A44E4388E3E34CFFF1FB04F010073
:10369000FC89FF1F4843010030B5112083B006F0BC
:1036A0003DFF012804D0122006F038FF012822D166
:1036B0000121152006F00CFF2A4B2B4A2B4C1B68CE
:1036C0002B4D116801930222D4F898302A60019A98
:1036D0000B44934208D8D4F8A00009F0F9FB254B1D
:1036E000196809F0E7FDD0B101210C2003B0BDE855
:1036F000304006F0EDBE00210B2006F0E9FE00216F
:103700000C2006F0E5FE0021152006F0E1FE1A4926
:10371000174B0120002208701A6003B030BD012150
:103720000B2006F0D5FE94F8C83003242C604BB172
:10373000114B02221A7000210C2003B0BDE830406A
:1037400006F0C6BE122006F0E9FE012808BF0A4BAB
:103750004FF0110008BF1C7006F0E0FE0128EAD10E
:10376000E6E700BFC0D3FF1FB891FF1FD8D0FF1FEF
:10377000B0CFFF1FC4CFFF1F34CFFF1FF0B5714E76
:10378000714C33682568AB4287B02DD013F001012E
:103790004BD013F002015FD013F0040151D0DA07CF
:1037A0000ED52268D7070BD4684D2A68002A00F08E
:1037B0009380674B1B680193019B93427FD83368CA
:1037C0009D0714D4590722D5226852070DD4614FA2
:1037D0003A68002A00F09E805D4B1B680593059BAC
:1037E000934200F286803568A5B107B0F0BD22682B
:1037F00090073DD4584D2A68002A49D0544B1B6885
:103800000393039B9A4236D333685907DCD41D4691
:10381000002DEAD12946162006F0DEFC29461720A5
:1038200007B0BDE8F04006F0D7BC162006F0D4FC87
:103830002268336802F0FE0213F002012260ABD16D
:103840000AE0052006F0C8FC2268336802F0FB029B
:103850002260DA07B4D5A4E7172006F0BDFC226881
:10386000336802F0FD0213F00401226097D1E8E70B
:103870005B07AAD4B9E7394B1720D3F89C1006F0A0
:10388000ABFC2368002243F0020323602A60BBE7FD
:10389000334805F041FF0C21324808F08DFC3048D8
:1038A00005F03AFFFF21172006F096FC284B2E4921
:1038B0001A680292029A09680A442A609FE7274B15
:1038C0001620D3F89C1006F087FC2368002243F0F2
:1038D000010323602A6072E7FF21162006F07CFCBA
:1038E0001B4B21491A680092009A09680A442A6011
:1038F00060E71A4B0520D3F89C1006F06DFC236896
:103900003568002243F0040323603A60002D7FF401
:103910006CAF7FE7124805F0FFFE0C21134808F05A
:103920004BFC0F4805F0F8FEFF21052006F054FC83
:10393000074B0D491A680492049A09680A443A60D0
:103940004BE700BFB0CFFF1FB4CFFF1FB8CFFF1FA3
:10395000C0D3FF1FC0CFFF1FBCCFFF1FD8D0FF1F9A
:10396000FC89FF1FE44301006888FF1FF443010046
:103970002DE9F84F544EDFF854A13368DFF8509129
:10398000D3F88400534D0F2105F028FB0123CAF81A
:103990000030514800232221C9F8003008F00CFC07
:1039A000D9F80030132B21DC4C4F40F6E448336843
:1039B000B5F888B0D3F88400436B1C6905F056F85D
:1039C000A4B2012108FB04F4B4FBF0F43846A3448C
:1039D000A5F888B008F0F0FB642006F009FED9F8DD
:1039E00000300133132BC9F80030E0DDB5F8883022
:1039F0003B493C48A1FB03215B1A01EB5301C1F396
:103A00000F11A5F8881005F07FFE1D21364808F03B
:103A1000D3FB0221354808F0CFFB324805F07CFE8D
:103A20000023C9F8003033680E21D3F8840005F074
:103A3000D5FA02232848CAF80030222108F0BCFB3E
:103A4000D9F80030132B22DCDFF8908040F6E447F1
:103A50003368B5F88AA0D3F88400436B1C6905F07D
:103A600005F8A4B2012107FB04F4B4FBF0F44046CE
:103A7000A244A5F88AA008F09FFB642006F0B8FDD8
:103A8000D9F800300133132BC9F80030E0DDB5F868
:103A90008A3013491348A1FB03215B1A01EB530140
:103AA000C1F30F11A5F88A1005F02EFE1D21104854
:103AB00008F082FB0D48022108F07EFBBDE8F84FBC
:103AC000084805F029BE00BFDC91FF1F7888FF1F62
:103AD000C8D1FF1FD8D0FF1F0444010028440100B3
:103AE00087611886FC89FF1F2C440100B04F01003C
:103AF0004C440100F8B59F4DD5F8B830072B00F0C5
:103B00005D819D4B9D4C1B68686D40F251310822D0
:103B10002160E271002B00F0288109F0D9F9296AAF
:103B2000064609F029FA964909F026FA09F010FC30
:103B3000C2B22272934AA969C0F307236372138841
:103B40006381914B30461B88A38109F015FA8C499B
:103B500009F012FA09F0FCFB884903468B48E3811F
:103B600004F00AFD8A4A894813681288228103EB0F
:103B70008303884A08265B0040F255311288216091
:103B800000277E492373334162816373E671E781C5
:103B900004F0F2FC40F256337F482360E671FDF7F3
:103BA000CDFE7E4909F0E8F909F0D2FB20727A488F
:103BB000FDF7C4FE794909F0DFF909F0C9FB784B3C
:103BC0007649C0F307206072186809F089FA09F095
:103BD00099FB60817048FDF7DFFE694909F0CCF977
:103BE00009F090FB20736C48FDF7D6FE644909F09C
:103BF000C3F909F087FB40F307206049607363480D
:103C0000E78104F0B9FC022006F0F2FC40F25A33DE
:103C10002360644B59491B68A360634B5B481B6876
:103C2000E360E67104F0A8FC40F25E3323605F4B72
:103C300052491A6855485B68A260E360E67104F077
:103C40009BFC022006F0D4FC4FF45C732360584BBD
:103C50004A491A684D485B68A260E360E67104F067
:103C60008BFC022006F0C4FC40F273334A48236008
:103C7000E671FDF719FE4F4909F07EF909F068FB7E
:103C800020724548FDF710FE4A4909F075F909F020
:103C90005FFBC0F3072060723F48FDF72BFE4549EC
:103CA00009F06AF909F054FBA0723B48FDF722FEC7
:103CB000404909F061F909F04BFBC0F30720E072BD
:103CC0003548FDF7C9FE3C4909F04EF809F040FBC4
:103CD00020733148FDF7C0FE374909F045F809F077
:103CE00037FBC0F3072060732B48FDF7B3FE324962
:103CF00009F03AF809F02CFBA0732748FDF7AAFE5B
:103D00002D4909F031F809F023FBC0F307201B49C6
:103D1000E0731E4804F030FC022006F069FC40F21B
:103D20007933EA6D2360AB6D13FB02F3022023723B
:103D3000C3F30723E071637206F05AFC40F272335A
:103D400015482360E671FDF7FBFD03461248237218
:103D5000FDF7F6FD40FA06F363726781E7600749F5
:103D60000A48BDE8F84004F007BC09F0B1F86969F9
:103D7000D6E600BFD8D0FF1FB0D1FF1F34D0FF1F41
:103D80000000204140CFFF1FCCCFFF1FCCD1FF1F31
:103D90002888FF1F2C88FF1FF091FF1F0000C842DA
:103DA000C4CFFF1FE091FF1FC4D1FF1F3888FF1F42
:103DB0003088FF1F00007A4433938843554C564B9C
:103DC000E36040F25932002308262146534822601E
:103DD000A360E67104F0D0FB022006F009FC504B12
:103DE000686D1B68E67140F251322260002B00F0D2
:103DF0008D8009F06DF8296A09F0BEF8494909F08B
:103E0000BBF809F0A5FA484A484B12881B88628122
:103E1000C1B2C0F307200025217260723D493F48BE
:103E2000A381E58104F0A8FB022006F0E1FB404BF2
:103E3000404A1B88128837496381082640F255336F
:103E4000364822812360E560E67104F095FB02208C
:103E500006F0CEFB40F2563337482360E671FDF79B
:103E60006DFD364909F088F809F072FA03463248C8
:103E70002372FDF763FD314909F07EF809F068FA15
:103E80002F4A2E490346C3F307231068637209F0D3
:103E900027F909F037FA034627486381FDF77CFDCF
:103EA000204909F069F809F02DFA034622482373E6
:103EB000FDF772FD1B4909F05FF809F023FA154977
:103EC000E58140F307231548637304F055FB022096
:103ED00006F08EFB4FF4577302250E4923600F48FE
:103EE000E571C023238104F047FB284606F080FBE0
:103EF000144B154AE57140F25E3121602272637203
:103F000004490648BDE8F84004F036BB08F0E0FF7D
:103F1000696971E734D0FF1F01504E00CCD1FF1FFB
:103F2000B0D1FF1F0000204140CFFF1FCCCFFF1FAB
:103F30002C88FF1F2888FF1FF091FF1F0000C84238
:103F4000C4CFFF1F6C440100544101002DE9F04132
:103F5000A64CA74D82B008F0C1F823682860042B56
:103F60005DD0022B40F06681A0F13102422A4AD88E
:103F7000DFE812F09E041A055005270541056A0581
:103F800077055D054900490049004900490049009D
:103F900049004900490049004900490049004900D9
:103FA00049004900490049004900490049004900C9
:103FB00049004900490049004900490049004900B9
:103FC00049004900490049004900490049004900A9
:103FD00049004900490049005C0149004900490085
:103FE0004900490049004900490049004900490089
:103FF00049004900450049008505712803D1002387
:10400000732023602860002B08BF73280CBF012396
:104010000023002B40F08C8002B0BDE8F081A0F1BD
:104020003102402AEFD801A151F822F0AD4800003A
:104030009F4700002948000045480000494800000B
:104040006348000083480000874800008B48000058
:104050000740000007400000074000000740000044
:104060000740000007400000074000000740000034
:104070000740000007400000074000000740000024
:104080000740000007400000074000000740000014
:104090000740000007400000074000000740000004
:1040A00007400000074000000740000007400000F4
:1040B00007400000074000000740000007400000E4
:1040C00007400000074000000740000007400000D4
:1040D00007400000074000000740000007400000C4
:1040E00007400000074000000740000007400000B4
:1040F00005460000074000000740000007400000A0
:104100000740000007400000074000000740000093
:104110000740000007400000074000000740000083
:10412000074000000740000007400000FF3F00007C
:10413000304E314805F0F0FA0421304808F03CF8E0
:104140002D4805F0E9FA10212D4808F035F82A48E5
:1041500005F0E2FA13212B4808F02EF82A4B2648E6
:10416000196805F0D1FA244805F0D6FA1421274839
:1041700008F022F8204805F0CFFA1E21244808F064
:104180001BF81D4805F0C8FA1521224808F014F85C
:10419000194805F0C1FA1E211F4808F00DF816480D
:1041A00005F0BAFA20211D4808F006F8124805F07B
:1041B000B3FA19211A4807F0FFFF0F4805F0ACFACF
:1041C0001221184807F0F8FF0B4805F0A5FA0D2159
:1041D000154807F0F1FF084805F09EFA0022012378
:1041E0003260236002B0BDE8F08100BF30D0FF1F15
:1041F000F4CFFF1F4C88FF1FFC89FF1F3C4E0100BE
:10420000444E0100584E01005888FF1F6C4E0100BB
:10421000844E0100A44E0100BC4E0100DC4E0100A2
:10422000004F01001C4F0100304F0100FFF7A0FBC1
:1042300023682868082B71D1322868D071283FF490
:10424000DEAE31287FF4DFAE07F084FF002800F3F4
:10425000C581974E96F84010336D726C032984BF68
:10426000002186F840109348FDF772FB0122692374
:1042700022602B6001E007F031FF07F06BFF05467D
:104280000028F8D18C4805F047FA8B4805F044FA2D
:10429000894805F041FA884805F03EFA864805F05D
:1042A0003BFA1521854807F087FF834805F034FA6B
:1042B0001821834807F080FF2B460A2296F8401009
:1042C0007D4805F041FA7C4805F026FA28217D4812
:1042D00007F072FF706C7C4908F04EFE08F028FC75
:1042E00000950B460246744805F03AFA02217748D9
:1042F00007F062FF704805F00FFA1321744807F0C9
:104300005BFF6D4805F008FA0823236084E607F098
:1043100021FF002800F3538123682868072B14D15C
:1043200034283FF76AAE30287FF76DAE3238022866
:1043300001F29384DFE800F09802AC0007F00AFF76
:10434000002800F3538123682868062B40F0AC83D3
:10435000A0F13003412B00F2748601A252F823F041
:10436000F34E00009F4D00009B4A00001F500000CC
:10437000FB4F0000DF4F0000BF4F0000A94F0000BF
:1043800043500000794F00004350000043500000AC
:1043900043500000435000004350000043500000D1
:1043A00043500000435000004350000043500000C1
:1043B00043500000435000004350000043500000B1
:1043C00043500000435000004350000043500000A1
:1043D0004350000043500000435000004350000091
:1043E0004350000043500000435000004350000081
:1043F0004350000043500000435000004350000071
:104400004350000043500000435000004350000060
:104410004350000043500000435000004350000050
:104420004350000043500000435000004350000040
:104430004350000043500000435000004350000030
:104440004350000043500000435000004350000020
:104450004350000043500000435000004350000010
:1044600043500000FF3F000007F074FE00287FF774
:104470006AAF11480E4E05F0AFFA08F029FD154954
:1044800008F07AFD012323606123F0632B6025E0AF
:1044900007F060FE00287FF756AF0748044E05F08E
:1044A0009BFA012323606123A6F8CA002B6015E064
:1044B000D8D0FF1FF091FF1FFC89FF1F044F0100A0
:1044C00094440100B044010000007A44DC4401003F
:1044D000E04401006F12833A07F000FE07F03AFE55
:1044E00005460028F8D1AF4805F016F9AD4805F0AB
:1044F00013F9AC4805F010F9AA4805F00DF9A948E0
:1045000005F00AF91F21A84807F056FEA54805F056
:1045100003F91C21A54807F04FFE706AA44908F072
:104520002BFD08F005FB009502460B469D4805F063
:1045300017F902219F4807F03FFE9A4805F0ECF872
:1045400023219D4807F038FEF06B994908F014FDCF
:1045500008F0EEFA009502460B46924805F000F985
:104560000221944807F028FE8E4805F0D5F819215D
:10457000924807F021FEB06B08F0DAFA02250B46EC
:1045800002460095874805F0EBF829468C4807F06D
:1045900013FE844805F0C0F822218A4807F00CFE7B
:1045A000B6F8CA107F4805F0AFF80321864807F037
:1045B00003FE7C4805F0B0F8072323602CE579481A
:1045C000824E05F009FA08F083FC814908F0D4FC1A
:1045D000336D96F840107064024644E671487B4E95
:1045E00005F0FAF9C1B286F8401035E66D48774E0D
:1045F00005F0F2F908F06CFC012323606123B0633D
:104600002B606BE7734A1368B3FA83F364200121CC
:104610005B09216013602860A0F152031F2B00F298
:10462000BC80DFE813F0B405BA00BA00BA00BA00E3
:10463000BA00BA00BA00BA00BA00BA00BA00BA00AA
:10464000BA00BA00B105B605030B2200FA0ABA0097
:10465000BA00BA00F70ABA00060BBA00BA00BA00EC
:10466000BA00BA00A10507F039FD07F073FD002874
:10467000F9D14C4805F050F84A4805F04DF8494842
:1046800005F04AF8474805F047F8464805F044F871
:104690001321514807F090FD424805F03DF80D21E7
:1046A0004E4807F089FD3F4805F036F80F214C4889
:1046B00007F082FD4B4B3B48196805F025F8394857
:1046C00005F02AF81321484807F076FD474B354896
:1046D000196805F019F8334805F01EF8122144480E
:1046E00007F06AFD434B2F48196805F00DF82D4877
:1046F00005F012F81121404807F05EFD3F4B2948B4
:10470000196805F001F8274805F006F80E213C4825
:1047100007F052FD2D4B2348D3F8A81004F0F4FF06
:10472000204804F0F9FF1921364807F045FD364BC3
:104730001C48196804F0E8FF1A4804F0EDFF112145
:10474000324807F039FD324B1648196804F0DCFF97
:10475000144804F0E1FF10212E4807F02DFD2E4BE8
:104760001048196804F0D0FF0E4804F0D5FF1C2152
:104770002A4807F021FD2A4B0A48196804F0C4FFB3
:10478000084804F0C9FF1321264807F015FD054825
:1047900004F0C2FF042323603EE4236833E4134A99
:1047A00031E700BFFC89FF1FC8460100E846010051
:1047B00000007A44DC440100084701002C47010056
:1047C000A4460100484701006C470100D8D0FF1FF4
:1047D0006F12833AEC91FF1F7C4801009048010062
:1047E000A048010038CFFF1FB0480100C8CFFF1F0D
:1047F000C4480100C4D0FF1FD8480100F8CFFF1FF4
:10480000EC480100FC4801003CCFFF1F18490100A3
:10481000DCCFFF1F2C490100A491FF1F404901007C
:104820005088FF1FE0440100A94B1A680121002AAB
:104830000CBF0A46002221601A6041F050816420BA
:104840002860E9E6A34ADEE6A34ED6F8A830B3FA1C
:1048500083F3642001225B092260C6F8A830286037
:10486000DAE601239D482360FCF7AAFD9C4B6422F5
:10487000186023682A60082B40F023876420FFF724
:10488000C2BB984ABFE6984ABDE60123236007F001
:1048900061FC002801F31481944B18680428C4BFFC
:1048A00002221A60642223682A60E4E7904AAAE69A
:1048B000894EF36FB3FA83F35B090122F367632335
:1048C00022602B6001E007F009FC07F043FC0028A0
:1048D000F9D1884804F020FF864804F01DFF854880
:1048E00004F01AFF834804F017FF824804F014FF15
:1048F0001F21814807F060FC7E4804F00DFF1E2157
:104900007E4807F059FC7B4804F006FF7C481A21DA
:1049100007F052FCD6F88030022B01F00A81032BFD
:1049200001F0FE80012B01F0F2807648092107F0AA
:1049300043FC704804F0F0FE1421734807F03CFC7F
:10494000F16F6C4804F0E0FE6A4804F0E5FE1C21BB
:104950006E4807F031FCD6F88410664804F0D4FEA7
:10496000644804F0D9FE1C21694807F025FCD6F8FC
:10497000B410604804F0C8FE5E4804F0CDFED6F8DE
:10498000805025F00207012F00F0B786022D01F0BC
:10499000D98013215F4807F00FFC564804F0BCFE95
:1049A00002232360FFF738BB4B4ED6F88430B3FAAE
:1049B00083F35B090122C6F88430632322602B60F5
:1049C00083E70123236007F0C5FB002807DD494882
:1049D000414E05F001F808F07BFAC6F89400236810
:1049E0006320072B28603FF40EAB052B41F01881A4
:1049F0000523FFF708BB0123236007F0ABFB00286A
:104A0000EDDD3C48344E04F0E7FF08F061FAC6F8EB
:104A10009000E4E70123236007F09CFB002801F3EA
:104A200056802D4E0122632322602B604DE7012327
:104A3000236007F08FFB0028F3DD2E48264E04F09C
:104A4000CBFFC6F88C00EDE70123236007F082FB63
:104A50000028C4DD2748204E04F0BEFFA6F8C2009F
:104A6000BDE71D4ED6F8D43001221344052BA8BF54
:104A7000134622606322C6F8D4302A6025E7164E1A
:104A8000D6F8803001221344042B2260A8BF0023F3
:104A90006322C6F880302A6017E707F05BFB002826
:104AA00000F3FE8723682868052B3CD1362800F3E5
:104AB000CD8530287FF7A7AA3238042801F2BC80C0
:104AC000DFE810F05D014001C2002A00500100BF84
:104AD000C4D0FF1FF8CFFF1FD8D0FF1FF091FF1FDA
:104AE0003CCFFF1FDCCFFF1FA491FF1F5088FF1F8B
:104AF00038CFFF1FFC89FF1F60490100804901007A
:104B0000A0490100184A0100244A01003C4A010062
:104B10005C4A0100E044010007F01CFB002800F3A0
:104B20005B8623682868032B40F0C685A0F130021D
:104B3000422A3FF668AA01A151F822F04759000025
:104B400071590000275900006D5A0000535A0000A7
:104B5000335A0000F9590000E3590000C75900001A
:104B6000A759000007400000074000000740000070
:104B70000740000007400000074000000740000019
:104B80000740000007400000074000000740000009
:104B900007400000074000000740000007400000F9
:104BA00007400000074000000740000007400000E9
:104BB00007400000074000000740000007400000D9
:104BC00007400000074000000740000007400000C9
:104BD00007400000074000000740000007400000B9
:104BE00007400000074000000740000007400000A9
:104BF0000740000007400000074000000740000099
:104C000091590000AD5600001B58000047580000A5
:104C100031580000B9580000635600008756000064
:104C200007400000875A00000559000007400000B7
:104C30000740000007400000074000000740000058
:104C4000F7580000ED57000007F084FA00287FF7BE
:104C500068AFB448B44E04F0BFFEB44BC6F8AC0025
:104C600002221A60FDF73CFD01226B2322602B60BB
:104C700001E007F033FA07F06DFA0028F9D1A948EE
:104C800004F04AFDA74804F047FDA64804F044FD9F
:104C9000A44804F041FDA34804F03EFD2121A448AE
:104CA00007F08AFA9F4804F037FD1521A14807F064
:104CB00083FAD6F898109B4804F026FD02219E48FE
:104CC00007F07AFA974804F027FD1E219B4807F069
:104CD00073FAD6F8A010934804F016FD0321984803
:104CE00007F06AFA8F4804F017FD1E21954807F077
:104CF00063FAD6F89C108B4804F006FD894804F04E
:104D00000BFD1D21904807F057FAD6F8AC108548E6
:104D100004F0FAFC834804F0FFFC1E218B4807F0E6
:104D20004BFAD6F8B0107F4804F0EEFC7D4804F052
:104D3000F3FCD6F8A830012B00F019870523236077
:104D4000FFF76AB907F006FA00287FF7EAAE754860
:104D5000754E04F041FE012323606B23C6F89C00CE
:104D60002B6088E7704E96F8C9300122B3FA83F3BE
:104D700022605B096B2286F8C9302A607BE707F066
:104D8000E9F900287FF7CDAE6648674E04F024FEAF
:104D9000012323606B23C6F8A0002B606BE707F0AC
:104DA000D9F900287FF77EAE5E485F4E04F014FE0E
:104DB00008F08EF8664908F093F901232360652313
:104DC00070612B6001E007F089F907F0C3F905462F
:104DD0000028F8D1534804F09FFC524804F09CFC92
:104DE000504804F099FC4F4804F096FC4D4804F0FC
:104DF00093FC1121574807F0DFF94A4804F08CFC76
:104E00002821554807F0D8F97069514908F0B4F8DD
:104E100007F08EFE009502460B46424804F0A0FCC7
:104E200002214E4807F0C8F93E4804F075FC1621EF
:104E30004B4807F0C1F9F069454908F09DF807F0C3
:104E400077FE00950B460246364804F089FC0221A5
:104E5000424807F0B1F9334804F05EFCD6F8B830A8
:104E6000002B32DD1D213F4807F0A6F9306E08F017
:104E70002FF83D4908F080F807F05AFE0225024657
:104E80000B462848009504F06BFC0121374807F0D9
:104E900093F9244804F040FC1F21354807F08CF9B1
:104EA000706E08F015F8304908F066F807F040FE1B
:104EB000009502460B461B4804F052FC2B4801218A
:104EC00007F07AF9174804F027FC2A48112107F067
:104ED00073F9D6F8B830082B00F2BA80DFE813F087
:104EE0003A013F01350130012B01260121011C014E
:104EF000B40007F02FF900287FF7D4AD09480A4E17
:104F000004F06AFD00EB8000326E43001BB2934256
:104F1000A6F8D030C8BFA6F8D020652301222260B1
:104F20002B6052E7FC89FF1FD8D0FF1FDCCFFF1F8B
:104F3000704701009447010038460100AC4701006A
:104F400028430100CC470100EC4701000C48010058
:104F500000007A44A84E0100F4440100DC44010042
:104F60002045010038450100CDCCCC3DA04A0100D0
:104F7000584501007845010007F0ECF800287FF75C
:104F800091AD8548854E04F027FD07F0A1FFF76A33
:104F90003946804608F08EF900B947460123236060
:104FA000652337632B6010E77C4E96F8C8300122EA
:104FB00053402260652286F8C8302A6005E707F072
:104FC000C9F800287FF76EAD7348744E04F004FDF5
:104FD000012323606523C6F8BC002B60F5E66F4E05
:104FE000D6F8B83001221344092B2260A8BF002351
:104FF0006522C6F8B8302A60E7E607F0ABF800286B
:105000007FF750AD6448654E04F0E6FC00EB80008D
:10501000400001226523706622602B60D5E607F010
:1050200099F800287FF73EAD5B485C4E04F0D4FC55
:1050300000EB8000400001226523306622602B6077
:10504000C3E60623FEF7DFBF5548112107F0B4F889
:10505000514804F061FBD6F8B830002B12DD18215E
:10506000504807F0A9F8D6F8BC104B4804F04CFBA8
:1050700002214D4807F0A0F8474804F04DFB464890
:1050800004F04AFB49481B2107F096F896F8C8300F
:10509000002B40F023834648122107F08DF83E484C
:1050A00004F03AFB1F21434807F086F8306B07F005
:1050B0003FFD022502460B463748009504F050FBA1
:1050C00029463D4807F078F8334804F025FB1E21B7
:1050D0003A4807F071F8B6F9D00007F0F9FE384900
:1050E00007F04AFF07F024FD00950B4602462A48C8
:1050F00004F036FB0121334807F05EF8264804F03F
:105100000BFB1321304807F057F8234804F004FB49
:1051100006232360FEF780BF14212C4807F04CF8CB
:1051200096E704212A4807F047F891E70B21294820
:1051300007F042F88CE70D21274807F03DF887E794
:105140000D21264807F038F882E70C21244807F0A3
:1051500033F87DE70D21234807F02EF878E70C217E
:10516000214807F029F873E7D82200210B481F4E89
:1051700004F02EFD2B6800210122732B2160326088
:105180007EF44AAFFEF7D5BF044EFFF7A7B906F08D
:1051900049FB024E2EE000BFFC89FF1FD8D0FF1F45
:1051A000084601001C460100384601003C4601004B
:1051B0005846010084460100A4460100A8460100AB
:1051C000CDCCCC3DA04A0100E0440100F0450100F7
:1051D000E8450100DC450100CC450100BC4501006B
:1051E000AC4501008C4501009C4501004C88FF1F27
:1051F00006F074FF06F0AEFF05460028F8D1C2485D
:1052000004F08AFAC04804F087FABF4804F084FA30
:10521000BD4804F081FABC4804F07EFA1521BB4871
:1052200006F0CAFFB84804F077FA1421B84806F02F
:10523000C3FFB54804F070FA1B21B64806F0BCFF66
:10524000B14804F069FA1321B34806F0B5FFAE483F
:1052500004F062FAAC4804F05FFAAB4804F05CFA80
:105260002021AE4806F0A8FFF068AD4907F084FEA3
:1052700007F05EFC009502460B46A34804F070FA66
:105280000221A84806F098FF0221A74806F094FFE3
:105290009D4804F041FA2121A44806F08DFF3069B1
:1052A0009F4907F069FE07F043FC009502460B4654
:1052B000954804F055FA02219A4806F07DFF022134
:1052C000994806F079FF904804F026FA1F21984883
:1052D00006F072FFB06A07F02BFC022702460B466D
:1052E0008948009704F03CFA0121924806F064FFD7
:1052F00039468D4806F060FF834804F00DFA2021FE
:105300008D4806F059FFF06A07F012FC009702463C
:105310000B467D4804F024FA0121864806F04CFF34
:105320003946814806F048FF774804F0F5F9232113
:10533000824806F041FFB06C794907F01DFE07F086
:10534000F7FB009502460B466F4804F009FA394610
:10535000744806F031FF3946734806F02DFF6A485D
:1053600004F0DAF91F21764806F026FFF06C6C494C
:1053700007F002FE07F0DCFB009502460B46624890
:1053800004F0EEF93946674806F016FF39466648DC
:1053900006F012FF5C4804F0BFF91921694806F0D5
:1053A0000BFFF16D584804F0AFF93946664806F036
:1053B00003FF39465C4806F0FFFE534804F0ACF9A1
:1053C0001821624806F0F8FEB06E07F081FD6049D2
:1053D00007F0D2FD07F0ACFB009702460B464A48A7
:1053E00004F0BEF901215B4806F0E6FE39464E485E
:1053F00006F0E2FE444804F08FF92B21564806F0EF
:10540000DBFEB069464907F0B7FD07F091FB009558
:1054100002460B463C4804F0A3F93946414806F0E1
:10542000CBFE3946404806F0C7FE374804F074F911
:105430001F214A4806F0C0FEB16D334804F064F9FC
:105440003946394806F0B8FE2F4804F065F92021A6
:10545000434806F0B1FE716D2B4804F055F939460A
:10546000314806F0A9FE284804F056F910213D48BD
:1054700006F0A2FEF16E244804F046F939462948A8
:1054800006F09AFE3946284806F096FE1E4804F0BB
:1054900043F91321344806F08FFE316F1A4804F0A7
:1054A00033F90121314806F087FE39461E4806F0DF
:1054B00083FE154804F030F910212D4806F07CFEDB
:1054C000716F114804F020F93946164806F074FE51
:1054D0003946154806F070FE0B4804F01DF91421FA
:1054E000244806F069FEB16F074804F00DF9012168
:1054F0001E4806F061FE39460B4806F05DFE024884
:1055000004F00AF9162137E0FC89FF1F844B0100E3
:105510009C4B0100B44B0100E0440100D04B010062
:1055200000007A44DC440100B04F0100F44B01005C
:10553000184C0100384C01003C4C0100604C01004B
:10554000844C0100A44C0100C04C0100C44C01007B
:10555000CDCCCC3DA04A0100E04C01000C4D010037
:105560002C4D0100504D0100644D0100784D0100AB
:105570007C4D0100904D0100B84806F01DFE306AD8
:10558000B74907F0F9FC07F0D3FA009502460B463D
:10559000B44804F0E5F83946B34806F00DFE394644
:1055A000B24806F009FEAF4804F0B6F82421B0482E
:1055B00006F002FED6F8C400A94907F0DDFC07F0AA
:1055C000B7FA009502460B46A64804F0C9F83946DA
:1055D000A54806F0F1FD3946A44806F0EDFDA148C6
:1055E00004F09AF82B21A34806F0E6FD706B07F053
:1055F0009FFA009702460B469A4804F0B1F8012141
:105600009D4806F0D9FD3946984806F0D5FD9548E5
:1056100004F082F82721994806F0CEFDD6F8CC0098
:105620008F4907F0A9FC07F083FA00950B46024664
:105630008C4804F095F839468B4806F0BDFD894842
:1056400004F06AF803232360FEF7E6BC71287FF4B8
:10565000CFA98B4A00237320136023602860FEF7D4
:10566000D2BC06F077FD00280DDD7E48854E04F0A3
:10567000B3F907F02DFC7A4907F032FD01226223CD
:10568000306222602B6006F065FD00280EDD754853
:105690007C4E04F0A1F907F01BFC714907F020FDD6
:1056A00001226223C6F8C40022602B6006F052FD7E
:1056B000002818DC23682868012B7EF4A4ACFEF7D0
:1056C000ABBF072B3FF4DAA8062B4FF064003FF482
:1056D000B8AC052B3FF48CA9FFF725BA14216A4812
:1056E00006F06AFDDBE45F48664E04F075F9F0668B
:1056F0000122622322602B607CE51C21634806F0B6
:105700005BFDD6F89400624907F036FC07F010FA0A
:10571000009702460B46534804F022F805215D48E5
:1057200006F04AFD4F4803F0F7FFD6F88050012DF0
:1057300019D11D21584806F03FFDD6F89000544974
:1057400007F01AFC07F0F4F9009502460B464548AD
:1057500004F006F805214F4806F02EFD414803F0FD
:10576000DBFFD6F8805025F00203012B7FF40EA951
:105770001C214A4806F020FDB6F8C210394803F053
:10578000C3FF0321464806F017FD364803F0C4FF67
:10579000D6F88050012D7FF4F9A81F21414806F06A
:1057A0000BFDD6F88C0007F093FB3F4907F0E4FBB4
:1057B00007F0BEF9022502460B460095294803F082
:1057C000CFFF2946394806F0F7FC264803F0A4FF2E
:1057D000D6F88050FFF7DAB822482A4E04F0FCF8D9
:1057E000274BC6F8B0000322FFF73BBA304B1F48E7
:1057F000022101221A6006F0DFFC1A4803F08CFF38
:105800002C480B2106F0D8FC022118481D4E06F04A
:10581000D3FC144803F080FF6AE706F09BFC0028E5
:105820007FF748AF0F48174E04F0D6F830675FE7B0
:1058300006F090FC00287FF73DAF0A48114E04F0B7
:10584000CBF8B06754E706F085FC00287FF732AF4D
:1058500004480C4E04F0C0F8706749E7A84D0100F9
:1058600000007A44FC89FF1FDC440100B04F0100B6
:10587000C04D0100E84D0100384C0100144E0100FC
:10588000DCCFFF1FD8D0FF1F6C4601007C4A01000F
:10589000CDCCCC3D9C4A0100A44A0100C44A010081
:1058A000E44A0100E84A01006F12833A084B010004
:1058B000C891FF1F88440100FCF7B8FD0221B848D9
:1058C00006F07AFCB74803F027FF0221B44806F03F
:1058D00073FCB44803F020FF0221B14806F06CFCD1
:1058E000B04803F019FF1721AF4806F065FCAD483A
:1058F00003F012FF88E700227323AC4E22602B6076
:10590000FEF717BC06F026FC00287FF7D3AEA548AB
:10591000A74E04F061F807F0DBFAA64907F0E0FBB8
:10592000C6F8CC00E4E606F015FC00287FF7C2AE0E
:105930009C489F4E04F050F807F0CAFA9D4907F0C2
:10594000CFFB3061D4E606F005FC00287FF7B2AE4D
:105950009448974E04F040F801230146236096488E
:10596000B16562232B60FBF7F1FF23682868A3E68B
:1059700006F0F0FB00287FF79DAE8A488C4E04F0BD
:105980002BF807F0A5FA8B4907F0AAFBF060AFE609
:1059900006F0E0FB00287FF78DAE8248844E04F0CD
:1059A0001BF87065A4E606F0D5FB00287FF782AEF1
:1059B0007C487F4E04F010F807F08AFA7D4907F022
:1059C0008FFBB06194E606F0C5FB00287FF772AE4E
:1059D0007448774E04F000F800EB80004000B06699
:1059E00086E606F0B7FB00287FF764AE6D48704E80
:1059F00003F0F2FFF0657BE606F0ACFB00287FF7D2
:105A000059AE68486A4E03F0E7FF07F061FA69494A
:105A100007F066FB01230146F06467482360FBF74B
:105A2000EFF923686222012B2A607EF4F5AAFFF7C2
:105A3000E1BB06F08FFB00287FF73CAE59485C4E77
:105A400003F0CAFF07F044FA5A4907F049FBB06473
:105A50004EE606F07FFB00287FF72CAE5148544EEF
:105A600003F0BAFF07F034FAF06241E606F072FB89
:105A700000287FF71FAE4B484D4E03F0ADFF07F0F7
:105A800027FAB06234E606F065FB00287FF712AE15
:105A90004448474E03F0A0FF07F01AFA706327E668
:105AA0004048434E03F098FF07F012FA414907F0CF
:105AB00017FB012323606523F0612B60FFF785B995
:105AC000384803F089FF3D4B1860FEF7E7BE3548C4
:105AD000374E03F081FFC6F8B400FEF7A3BF384B82
