:1000000000800020BD010000C19200007992000034
:1000100079920000799200007992000079920000B4
:10002000799200007992000079920000C19200005C
:10003000C1920000799200009DB00000A1B00000C4
:10004000C1920000C1920000C1920000C192000064
:10005000C1920000C1920000C1920000C192000054
:10006000C1920000C1920000C1920000C192000044
:10007000C1920000C1920000C1920000C192000034
:10008000C1920000C1920000C1920000C192000024
:10009000C1920000C1920000C1920000C192000014
:1000A000C1920000C1920000C1920000C192000004
:1000B000C1920000018600000D860000118600003C
:1000C0001D8600002186000025860000C1920000E8
:1000D000C1920000C1920000C1920000C1920000D4
:1000E000C1920000C1920000C1920000C1920000C4
:1000F000C1920000C1920000C192000089A00000DE
:10010000C192000085BD0000C1920000C1920000B4
:10011000C1920000C1920000C1920000C192000093
:10012000C1920000C1920000C1920000C192000083
:10013000C1920000C1920000C1920000C192000073
:10014000C1920000C1920000C1920000C192000063
:10015000C1920000C1920000C1920000C192000053
:10016000C1920000D1A30000C1920000C192000022
:10017000C1920000C1920000C1920000C192000033
:10018000C1920000C1920000C1920000C192000023
:10019000C1920000C1920000C1920000C192000013
:1001A000C1920000C1920000C1920000C192000003
:1001B000C1920000C1920000C1920000564B4CF267
:1001C000205210B51A804DF628121A8000BF00BFC9
:1001D00009F07AF8514B4FF010621A60504A9A6059
:1001E000504ADA60504A136813F4807304D14F49BF
:1001F0000B604FF4A85313604D4B1A78110703D5C9
:100200001A7842F008021A704A4B4B492A221A7097
:100210004A4A4B4B8B4204D252F8040F43F8040B6A
:10022000F8E7484B484900228B4202D243F8042B9E
:10023000FAE74649464A002352F8230041F82300D2
:1002400001336F2BF8D1434B434A802103F8011B44
:100250009342FBD1414B3D4A1A60414B8A221A70AE
:10026000A3F5805324225A70A0221A709A7992071B
:10027000FCD59A79D406FCD43A4A937903F00C035E
:10028000082B384BF9D103221A7140225A719A79FE
:100290009006FCD5334A9179324B4906FBD5324A58
:1002A000324911600221516020221A709A7902F0BD
:1002B0000C020C2AFAD12E4B2E4A1A602E4B2F4AD2
:1002C0001A6000225A60072243F8042C2C4AC3F813
:1002D0000C2D62B609F0B0FA144B1B68DA0705D58D
:1002E000284809F08BF8284B284A1A60284B1B78BD
:1002F0005B0609D5244C254B22689A4204D121483B
:1003000009F07CF80023236008F0E4FF0DF00EFAFA
:100310000BF0D8F9FEE700BF0E2005403080044006
:10032000823F04000100002B10D0034014D0034092
:1003300002D0074000E007408092FF1F58320100C2
:100340002087FF1F8092FF1F04D6FF1F0082FF1F20
:100350000000000000E400E05FE400E008ED00E0E1
:100360000050064000400640448004400000030165
:1003700004800440C010050014E000E0FF76010096
:10038000000020206F5E72621CE00340A5C3945AF7
:1003900000F00740FFFFFFFFFFFFFFFFFFFFFFFF32
:1003A000FFFFFFFFFFFFFFFFFFFFFFFFFFFFFFFF5D
:1003B000FFFFFFFFFFFFFFFFFFFFFFFFFFFFFFFF4D
:1003C000FFFFFFFFFFFFFFFFFFFFFFFFFFFFFFFF3D
:1003D000FFFFFFFFFFFFFFFFFFFFFFFFFFFFFFFF2D
:1003E000FFFFFFFFFFFFFFFFFFFFFFFFFFFFFFFF1D
:1003F000FFFFFFFFFFFFFFFFFFFFFFFFFFFFFFFF0D
:10040000FFFFFFFFFFFFFFFFFFFFFFFFDEF9FFFF23
:1004100010B5054C237833B9044B13B10448AFF33E
:1004200000800123237010BD8092FF1F0000000098
:1004300054320100084B10B51BB108490848AFF30E
:1004400000800848036803B910BD074B002BFBD0A0
:10045000BDE81040184700BF000000008492FF1F55
:10046000543201008092FF1F00000000F0B400F140
:100470003006184F00243146031F00F1640243F890
:10048000044FB34241F8047F4FF0000542F8044F97
:10049000F5D10023104A114CC0F89C5047F230515E
:1004A000C0F8A050C0F8A450C0F8A850C0F8B85088
:1004B000C0F8B040C0F8AC20C0F8B420C0F8E430B8
:1004C00080F8C43080F8C53080F8DC30C0F8F01017
:1004D000F0BC70470000A040000048430000C8C2C4
:1004E00038B5CB7BFD2B0C46054649D0087ADE2873
:1004F00020D9C87A0CF028FD4FF07C510CF078FD23
:1005000027490CF06BFCC5F8A000207BEF2825D80C
:100510000CF01AFD4FF07C510CF06AFD20490CF0F4
:100520005DFCC5F8A400607BEF281DD90023C5F849
:10053000A83038BD0CF008FD4FF07C510CF058FD90
:1005400017490CF04BFCC5F8A000E27AA37A03EB44
:100550000223C5F8E430207BEF28D9D90023C5F861
:10056000A430607BEF28E1D80CF0EEFC4FF07C511A
:100570000CF03EFD0A490CF031FCC5F8A80038BD6E
:10058000887AFD28D5D00CF0DFFC4FF07C510CF0C0
:100590002FFD04490CF022FCC5F8A00038BD00BFB7
:1005A00000002C420000204290F8CC00704700BFB1
:1005B00090F8C800704700BF90F8D000704700BFA7
:1005C00090F8D400704700BF0D2994BF50F8210067
:1005D000002070472DE9F0410B4E8046041F00F1CA
:1005E000300754F8045F314628460CF09FFE30B1C6
:1005F000D8F8BC1028460CF0B7FE00B12E46BC421D
:10060000EFD13046BDE8F081000020412DE9F041F6
:10061000D0F8BC704FF00008041F00F1300654F809
:10062000045F394628460CF09FFE084948B1284629
:100630000CF07CFE414620B128460CF095FE00B13E
:10064000A846B442EBD14046BDE8F0810000A0408E
:100650002DE9F047D0F8BC7082464FF00009041F26
:1006600000F130064FF0000854F8045F3946284680
:100670000CF07AFE0F4950B128460CF057FE30B10D
:10068000484629460CF0ACFB08F101088146B4420B
:10069000EAD1CAF8E080B8F1000F02D10020BDE82D
:1006A000F08740460CF050FC014648460CF054FDE3
:1006B000BDE8F0870000A040D0F8E000704700BF20
:1006C00038B5D0F8D83053B9D0F8A440D0F8A050FD
:1006D000214628460CF02AFE30B1204638BD27338B
:1006E00050F82340204638BD2C46204638BD00BF78
:1006F000D0F8D8302DE9F041002B7CD1D0F8A4609F
:10070000D0F8A0500446314628460CF069FBD4F8D6
:10071000A870394680460CF063FB7E490CF01CFD46
:100720004FF07C5104460CF01FFE002861D04FF0C2
:100730007C5128460CF018FE4FF07C51002860D107
:1007400028460CF0F3FD38B14FF07C5130460CF0E8
:100750000BFE002840F0A7804FF07C5128460CF09B
:1007600003FE002860D14FF07C5128460CF0FCFDC0
:10077000002840F0A1804FF07C5128460CF0F4FD99
:1007800000286CD14FF07C5128460CF0CFFD4FF083
:100790007C5110B330460CF0E7FD38B14FF07C517E
:1007A00038460CF0C3FD002840F0B0804FF07C517B
:1007B00030460CF0BBFD002861D04FF07C5138462C
:1007C0000CF0D2FD002840F0A38038464FF07C5159
:1007D0000CF0ACFD68B1504C10E028460CF0A6FDC2
:1007E0000028E3D128464FF07C510CF09FFD0028F3
:1007F00045D1BDE8F081273350F823402046BDE8BD
:10080000F08130460CF0B0FD4FF07C5100283ED016
:1008100038460CF0A9FD0028F0D14FF07C51284655
:100820000CF084FD002859D14FF07C5130460CF07B
:100830007DFD002840D04FF07C5138460CF094FDEF
:10084000002841D14FF07C5130460CF08DFD68B14D
:100850004FF07C5138460CF069FD00284FD14FF025
:100860007C5130460CF062FD00288BD04FF07C515B
:1008700038460CF05BFD002884D02C46BEE730469D
:100880004FF07C510CF052FD0028B2D09DE7284675
:100890000CF04CFD0028C7D04FF07C5130460CF0D6
:1008A00063FD0028C0D04FF07C5138460CF05CFD51
:1008B00000283FF451AF18E04FF07C5130460CF067
:1008C00053FD0028CBD0C3E7394628460CF088FA00
:1008D0004FF07C510CF08CFB04468FE74FF07C51BD
:1008E00038460CF041FD00289ED0394630460CF0C9
:1008F00077FA4FF07C510CF07BFB04467EE74046D4
:100900004FF07C510CF074FB044677E7344675E7F2
:100910003C4673E7000040400000A0C2D0F8D82059
:1009200070B5002A34D10446FFF7E2FE4FF07C5147
:100930000CF01AFD58B3D4F8A0604FF07C5130464B
:100940000CF012FDD4F8A45038BBD4F8A8404FF0F6
:100950007C5128460CF008FD48B1294630460CF081
:1009600003FD20B1214628460CF0E0FC28BB4FF0E7
:100970007C5120460CF0F8FC48B1284621460CF08A
:10098000F3FC20B1304621460CF0EEFC18B970BDE6
:10099000273250F82240204670BD304629460CF0E0
:1009A000C5FCD4F8A8400028D1D0304621460CF030
:1009B000BDFC0028CBD03446EDE72C46EBE700BF6A
:1009C0002DE9F047814684B01546032900F27B816A
:1009D000DFE811F0FF00BE007D0004004FF0000AC8
:1009E00080F8ECA0937A507A1B0103EB101000F50D
:1009F0007A700CF0A9FAB6490CF0FAFAD9F800406E
:100A0000C9F830004846FFF789FFD9F8AC10054611
:100A10000CF08CFC08B1C9F8AC50D9F8D830002BD8
:100A200040F02381D9F8A060D9F8A4503046294677
:100A30000CF07CFC002800F00C81D9F8B01028469E
:100A40000CF092FC002840F00D8109F13406C846F4
:100A500009F168050D2701E058F8044F3168204678
:100A60000CF064FC30B1D9F8BC1020460CF072FCDC
:100A700000B13460296820460CF076FC04369549B4
:100A800020B120460CF070FC00B12C60013F05F154
:100A90000405E1D1BAF1000F00F0F6808E4CD9F8D0
:100AA000E81023680193019AD9F8F030521A9A425B
:100AB00080F0F38022680292029A0B449B1A41F262
:100AC0008732934240F20A8104B0BDE8F0874FF0CC
:100AD000000A80F8ECA0937A507A1B0103EB101007
:100AE00000F57A700CF030FA79490CF081FAC9F807
:100AF00020002B7B687B1B1103EB001000F57A7044
:100B00000CF022FA72490CF073FAC9F828002B7B1A
:100B1000EA7A1B0203F47063981800F57A700CF0FF
:100B200013FA6B490CF064FAC9F82400EB7BAA7B3A
:100B30001B0203F47063981800F57A700CF004FA45
:100B400063490CF055FAD9F80040C9F82C0059E770
:100B50004FF0000A80F8ECA0937A507A1B0103EB67
:100B6000101000F57A700CF0EFF959490CF040FACA
:100B7000C9F810002B7B687B1B1103EB001000F5FC
:100B80007A700CF0E1F952490CF032FAC9F8180009
:100B90002B7BEA7A1B0203F47063981800F57A70D5
:100BA0000CF0D2F94A490CF023FAC9F81400EB7B97
:100BB000AA7B1B0203F47063981800F57A700CF09E
:100BC000C3F943490CF014FAD9F80040C9F81C00E5
:100BD00018E74FF0000A80F8ECA0937A507A1B01D6
:100BE00003EB101000F57A700CF0AEF938490CF0F8
:100BF000FFF9C9F800002B7B0446687B1B1103EB4F
:100C0000001000F57A700CF09FF931490CF0F0F902
:100C1000C9F808002B7BEA7A1B0203F4706398186A
:100C200000F57A700CF090F929490CF0E1F9C9F857
:100C30000400EB7BAA7B1B0203F47063981800F599
:100C40007A700CF081F922490CF0D2F9C9F80C0045
:100C5000D8E63146D9F8B0000CF068FB00283FF424
:100C6000F4AE3546C9F8B050EFE609EB8303D9F886
:100C7000B010D3F89C5028460CF076FB00283FF4C7
:100C8000E4AEC9F8B050E0E6134B1B680093009B3C
:100C9000C9F8E83004B0BDE8F0870020A9F10403EA
:100CA00009F11C0143F8040F8B424FF00002F9D107
:100CB000C9F89C20C9F8A020C9F8A420C9F8A82028
:100CC00004B0BDE8F08790F8ECA004689AE600BF95
:100CD0006F12833A0000A0408CD3FF1F02211348FB
:100CE0000AF0B6F812480AF053FB062111480AF040
:100CF000AFF83B460A2299F8DC100D480AF05CFB7D
:100D000019210D480AF0A4F823680393D9F8E820C4
:100D1000D9F8F030039906481A44511A3B460A2282
:100D20000AF04AFB02480AF033FBCDE6B428010082
:100D30000888FF1FC0150100C81501002DE9F84300
:100D40000026D0F8BC80C0F89C608146041F00F1EA
:100D5000300754F8045F414628460CF005FB09496A
:100D600050B128460CF0E2FA30B1304629460CF07A
:100D700037F80646C9F89C00BC42EAD13046BDE8C7
:100D8000F88300BF0000A04002299ABF283150F824
:100D900021000020704700BF3E2998BF80F8DC107A
:100DA000704700BFD0F8E400704700BF90F8C4005F
:100DB000704700BF90F8C500704700BFC0F8D8105A
:100DC000704700BF80F8C410704700BFC0F8C01063
:100DD000704700BF80F8C510704700BF30B50F4C9A
:100DE000C0F8BC1083B020460D460AF0D1FA204668
:100DF0000AF0CEFA28460BF051FC022502460B46BB
:100E0000009520460AF020FB20460AF0C1FA204651
:100E100003B0BDE830400AF0BBBA00BF0888FF1F2E
:100E200070B500F570550646383500F12C042046A3
:100E3000F434FFF71BFBAC42F9D106F590750124A1
:100E400028460021FFF7BEFF214628460134FFF760
:100E5000A3FF3F2C05F1F405F2D106F57153064AC4
:100E60003261002405480649B06100227461F161D5
:100E700030461A7070BD00BF00007A44000048433D
:100E80000000C8C270B500F59074012500260DE081
:100E9000012620460021FFF79DFF29462046013507
:100EA000FFF77AFF3F2D04F1F4040ED02046FFF740
:100EB0007DFF0028EDD02046FFF77CFF0646002886
:100EC000E6D120463146FFF77DFF304670BD00BFBA
:100ED00030B50B4C8162054683B020460AF058FAC3
:100EE000A86A0BF0DBFB032502460B460095204663
:100EF0000AF0AAFA204603B0BDE830400AF048BA2A
:100F00000888FF1F2DE9F04F83B00546019100F5D9
:100F100090774FF001093846FFF748FF002847D087
:100F2000002634464FF0010BA96AA8680BF058FF61
:100F3000214680463846FFF747FB014640460CF005
:100F4000F5F918B10BFA04F31E43B6B201340C2CB8
:100F5000EAD1019B012B3AD06D4C0022214608209A
:100F600046FA02F313F0010302F1010214BF087004
:100F70000B70082A01F10101F2D109F1FF38B8F133
:100F8000070F21D8DFE808F0A29C96908A847E3C67
:100F9000604BCBF800309BF806305F495F4843F068
:100FA00001038BF8063008238BF8073007F0C8F9E7
:100FB00009F10109B9F13F0F07F1F407ABD1564B25
:100FC0009A796FF300029A7103B0BDE8F08F54482C
:100FD0000AF0DEF90721534809F03AFF4946504824
:100FE0000AF02AFA0321504809F032FF00231022A8
:100FF00031464B480AF0E0F949480AF0C9F9ABE735
:10100000DFF814B1494BCBF800309BF80630424969
:10101000424843F001034FF0080A8BF806308BF882
:1010200007A007F08DF95346504646FA03F212F036
:10103000010203F1010314BF207022700D2B04F193
:101040000104F2D1FE238BF80C308BF80D308BF8B5
:101050000E308BF80F30B8F1070FB5D801A353F855
:1010600028F000BF0911000001110000F910000074
:10107000F1100000E9100000E1100000D91000009C
:10108000910F0000DFF890B0294BCBF80030BCE79F
:10109000DFF884B0274BCBF80030B6E7DFF878B044
:1010A000254BCBF80030B0E7DFF86CB0234BCBF822
:1010B0000030AAE7DFF860B0214BCBF80030A4E79E
:1010C000DFF854B01F4BCBF800309EE7DFF848B094
:1010D0001D4BCBF8003098E71C4BCBF800305AE79B
:1010E0001B4BCBF8003056E71A4BCBF8003052E7D9
:1010F000194BCBF800304EE7184BCBF800304AE7DD
:10110000174BCBF8003046E7164BCBF8003042E7E0
:10111000A492FF1F1954551A9C92FF1FE4D1FF1F80
:101120000888FF1FE4150100EC1501001854551A3A
:101130001654551A1454551A1254551A1054551A57
:101140000E54551A0C54551A0A54551A1754551A58
:101150001554551A1354551A1154551A0F54551A3B
:101160000D54551A0B54551A43F644432DE9F041DA
:10117000002200F5705600F571578046C25038368F
:10118000043700F5907402E0F434B4420DD02046E8
:10119000FFF70CFE0028F7D020463D68FFF78CFAD9
:1011A000F4342844B4423860F1D143F6444358F84B
:1011B0000300BDE8F08100BF012AF8B50E460446E1
:1011C0000D7827D0A5F10B03302B11D9F42000FBAB
:1011D00005442C3420460121FFF7F4FD204601216F
:1011E000FFF7F8FD31462046BDE8F840FFF778B933
:1011F00028460BF0A9FE4FF07C510BF0F9FE224976
:101200000BF0ECFD0CF0BAF8F42303FB004000F106
:101210002C04DFE71D4817460AF0BAF829461B4898
:101220000AF00AF903211A4809F012FEA5F10B038E
:10123000302B0CD828460BF087FE4FF07C510BF07A
:10124000D7FE11490BF0CAFD0CF098F80546F423BF
:1012500003FB05442C3420463946FFF7B3FD3946DD
:101260002046FFF7B7FD31462046FFF739F907481A
:101270000AF08EF8294605480AF0DEF80B210548E9
:10128000BDE8F84009F0E4BD000070410888FF1F88
:10129000EC150100F01501000B68A3F5D8732DE9DA
:1012A000F0413E2B40D8DFE813F0D900D500D10043
:1012B000CD00C900C500C100BD00B900B500B10036
:1012C000AD00A900A500A1009D0099009500910026
:1012D0008D008900850081007D006D00690065003A
:1012E00061007500710079005D0041003901350130
:1012F00031012D01290125013F0021011D011901A5
:101300003F00150111010D013F0009010501010117
:101310003F00FD00F900F5003F00F100ED00E9009D
:101320003F00E500E100DD00BDE8F0814FF000087E
:101330000925012A174604460E4600F0F380F420E2
:1013400000FB05442C3420460121FFF73BFD2046DD
:101350000121FFF73FFD324641462046BDE8F041FE
:10136000FFF72EBB4FF003080825E2E74FF0030814
:101370000725DEE74FF002080725DAE74FF00108FE
:101380000725D6E74FF000080725D2E74FF0010800
:101390000825CEE74FF000080825CAE74FF00208FD
:1013A0000825C6E74FF003080625C2E74FF00208FC
:1013B0000625BEE74FF001080625BAE74FF0000802
:1013C0000625B6E74FF003080525B2E74FF00208FF
:1013D0000525AEE74FF001080525AAE74FF0000804
:1013E0000525A6E74FF003080425A2E74FF0020801
:1013F00004259EE74FF0010804259AE74FF0000806
:10140000042596E74FF00308454692E74FF002089F
:1014100003258EE74FF0010803258AE74FF0000807
:10142000032586E74FF00308022582E74FF0020804
:1014300045467EE74FF0010802257AE74FF00008A5
:10144000022576E74FF00308012572E74FF0020806
:1014500001256EE74FF0010845466AE74FF00008A6
:10146000012566E74FF00208102562E74FF00108FA
:1014700010255EE74FF0000810255AE74FF00208EC
:101480000F2556E74FF001080F2552E74FF00008EF
:101490000F254EE74FF002080E254AE74FF00108EE
:1014A0000E2546E74FF000080E2542E74FF00208F0
:1014B0000D253EE74FF001080D253AE74FF00008F3
:1014C0000D2536E74FF002080C2532E74FF00108F2
:1014D0000C252EE74FF000080C252AE74FF00208F4
:1014E0000B2526E74FF001080B2522E74FF00008F7
:1014F0000B251EE74FF002080A251AE74FF00108F6
:101500000A2516E74FF000080A2512E74FF00308F6
:1015100009250EE74FF0020809250AE74FF00108F8
:10152000092506E7094809F033FF2946074809F06D
:1015300083FF3946064809F08BFC4146034809F011
:101540007BFF024809F024FFF9E600BF0888FF1F6F
:10155000FC1501002DE9F043002383B0064603602B
:1015600000F59074012504E001353F2D04F1F404E9
:1015700066D02046FFF71AFC0028F5D04B4800F053
:1015800003FD29464A4800F0FFFC2046FFF7D6FB42
:101590000BF084F802460B46464800F0F5FC204666
:1015A000FFF718F880462046FFF730F80746404618
:1015B0000BF074F88046384689460BF06FF84246C7
:1015C0004B46CDE900013C4800F0DEFC00212046FE
:1015D000FFF7DAFB012180462046FFF7D5FB0746DF
:1015E00040460BF05BF88046384689460BF056F8CB
:1015F00042464B46CDE90001304800F0C5FC20468C
:10160000FFF79CFB014630680BF0EAFB3060204698
:10161000FFF784F9B1690BF089FE002831D120462B
:10162000FFF74EF8F1690BF09FFE00289CD0204692
:10163000FFF746F801353F2DF06104F1F40498D12D
:1016400070680BF081FC014630680BF085FD716914
:10165000306004460BF088FE00B1746131692046A9
:101660000BF064FE00B134610B2008F061F806F560
:101670007156337850B97BB10123337003B0BDE8A4
:10168000F0832046FFF74AF9B061C8E743B9002369
:10169000337003B0BDE8F083094800F0A3FCEBE72A
:1016A000084800F089FC00233370F2E75C1C01005D
:1016B000001601003C160100501601007C160100C6
:1016C00098160100D016010070B5114B836000F52B
:1016D00070550646383500F5907402E0F434AC429B
:1016E00013D02046FFF762FB0028F7D02046FEF714
:1016F00071FFB1680BF01AFE0028EFD02046FEF70C
:1017000069FFF434AC42B060EBD1B06870BD00BF8B
:101710000000A04070B5002300F570550646C36078
:10172000383500F5907402E0F434AC4213D0204612
:10173000FFF73CFB0028F7D02046FEF767FFF16873
:101740000BF012FE0028EFD02046FEF75FFFF434C6
:10175000AC42F060EBD1F06870BD00BF006870472C
:1017600043F63C43C0587047416070472DE9F04153
:1017700000F57055884617461E46383500F59074BA
:1017800002E0F434AC4213D02046FFF70FFB0028F0
:10179000F7D020464146FFF711FB20463946FFF7B8
:1017A0001DFB20463146F434FFF710FBAC42EBD171
:1017B000BDE8F0812DE9F041274A284B426200F54F
:1017C000705507464FF000080362383500F59074F5
:1017D000002602E0F434A54210D02046FFF7E6FAD6
:1017E0000028F7D02046FEF783FF1D490BF0BCFD13
:1017F00080B9F434A54206F10106EED143F63C432C
:10180000F858801B0BF0A0FB014640460BF0A4FCEF
:10181000BDE8F0812046FEF76BFF014640460BF025
:10182000DFFA80462046FEF74BFF396A0BF09CFD3D
:1018300060B92046FFF772F8796A0BF077FD00284F
:10184000C8D02046FFF76AF87862C3E72046FEF763
:1018500037FF3862EDE700BF00C0794400C079C4AB
:1018600000008CC2006A7047406A70472DE9F04161
:1018700043F63C4300F570552E4600228046C25088
:10188000002738353C3600F5907402E0F434AC4261
:101890001AD02046FFF78AFA0028F7D02046FEF734
:1018A000D7FE00210BF060FD0028EFD02046FEF7A8
:1018B000CFFE014638460BF093FA3368F434013317
:1018C000AC4207463360E4D143F63C4358F803008A
:1018D0000BF03AFB014638460BF03EFCBDE8F081C8
:1018E0002DE9F04F06468FB088488B4600F0F4FA99
:1018F000864800F0F1FA854800F0EEFA43F63C43E2
:101900003046F2580D92FFF72FFC73680C93074690
:1019100030680AF0C3FE804630468946FFF7A6FFCE
:1019200082463046B468F568FFF744FF0AF0B6FE19
:10193000CDE90A01214628460BF050FA74490BF014
:1019400057FB0AF0ABFECDE9080128460AF0A6FED7
:10195000CDE9060120460AF0A1FECDE9040150467A
:101960000AF09CFE0D9A0C9BCDE90201CDE900899D
:10197000114668483A4600F0AFFA644800F0ACFA05
:1019800006F590764FF001094FF0000A07E009F1E3
:101990000109B9F13F0F06F1F40600F0AE803046C0
:1019A000FFF704FA0028F2D03046FEF7FDFD30467E
:1019B000FEF7FEFD3046FEF7FFFD3046FEF700FE67
:1019C0000821554809F044FA4946544809F034FDC5
:1019D000B9F1090F40F394800221514809F038FA17
:1019E0003046FFF7ABF90AF059FE5FFA8BF8024672
:1019F0000B46CDF80080494809F026FD01214948F1
:101A000009F026FA5546002420E00621464809F050
:101A10001FFA2946414809F00FFD0221434809F009
:101A200017FA21463046FEF7CFFD0AF037FECDF813
:101A3000008002460B46394809F006FD01340121B9
:101A4000384809F005FA0D2C09D03D46092D05F15D
:101A50000107DADC0121364809F0FAF9D5E72F4809
:101A600009F096FC0921334809F0F2F900213046CB
:101A7000FFF78AF90AF012FE022402460B46009490
:101A8000264809F0E1FC0A212B4809F0E1F901217F
:101A90003046FFF779F90AF001FE009402460B4642
:101AA0001E4809F0D1FC0A21244809F0D1F9214649
:101AB0003046FFF769F90AF0F1FD009402460B4643
:101AC000164809F0C1FC0E211D4809F0C1F9304645
:101AD000FFF768F9002301461022104809F06CFC5A
:101AE00009F101090D4809F053FCB9F13F0F0AF162
:101AF0000D0A06F1F4067FF452AF0FB0BDE8F08F87
:101B000001210B4809F0A4F966E700BF5C1C010045
:101B100000007A4480190100201A01000888FF1F84
:101B2000B42801002C1A0100301A0100D81A010053
:101B3000E81A0100381A0100441A0100501A010085
:101B40005C1A01002DE9F04F85B000F590758A46CA
:101B500003929B462E464FF0010806E008F101086B
:101B6000B8F13F0F06F1F4067BD03046FFF71EF9BF
:101B70000028F3D000230A2251467E4809F01CFCBD
:101B800001217D4809F064F903980AF087FD0023DC
:101B90000246009377480B4609F056FC012176482F
:101BA00009F056F95946734809F046FC012172487C
:101BB00009F04EF941466F4809F03EFC01216E489C
:101BC00009F046F900244FF0020921463046FEF79D
:101BD000FBFC0AF063FDCDF8009002460B46654819
:101BE00009F032FC01340121634809F031F9082C75
:101BF0004FF00207E9D100213046FFF7C5F80AF09F
:101C00004DFD009702460B465A4809F01DFC012184
:101C1000594809F01DF901213046FFF7B5F80AF0DF
:101C20003DFD009702460B46524809F00DFC01218C
:101C3000514809F00DF939463046FFF7A5F80AF08A
:101C40002DFD009702460B464A4809F0FDFB08F1BE
:101C50000108484809F09CFBB8F13F0F06F1F40673
:101C600083D14FF001084FF0000906E008F10108A8
:101C7000B8F13F0F05F1F40579D02846FFF796F843
:101C80000028F3D000230A2251463C4809F094FB77
:101C90000121394808F0A4F803980AF0FFFCCDF8B8
:101CA000009002460B46354809F0CEFB0121324830
:101CB00008F096F85946314809F0BEFB01212E483C
:101CC00008F08EF841462D4809F0B6FB01212A485C
:101CD00008F086F80024022721462846FEF774FC07
:101CE0000AF0DCFC009702460B46244809F0ACFBE6
:101CF00001340121204808F073F80D2C4FF0020642
:101D0000EAD100212846FFF73FF80AF0C7FC009609
:101D100002460B46194809F097FB0121164808F0C6
:101D20005FF801212846FFF72FF80AF0B7FC00966C
:101D300002460B46114809F087FB01210E4808F0C6
:101D40004FF831462846FFF71FF80AF0A7FC009627
:101D500002460B46094809F077FB08F101080748DD
:101D600009F016FBB8F13F0F05F1F40585D105B078
:101D7000BDE8F08F0888FF1FFC150100DC87FF1FFE
:101D8000014B1870704700BF2087FF1F0278002AA0
:101D900000F0908070B5034682B00D46252A2AD106
:101DA00058785C1C08B325282FD0732831D06428BC
:101DB00024D0692822D066284FD07A2859D0782894
:101DC00035D058282FD062283ED0422838D06C28F1
:101DD00014D0632812D0742857D054285FD009F04B
:101DE000BBF86278631C002AD8D1344802B0BDE841
:101DF000704009F0CDBA18781C46F0E72B1D296811
:101E00002E481D4609F018FBEBE7104609F0A4F830
:101E1000E7E72E6830460CF073FA01463046043589
:101E200009F016F8DDE70221254809F011F82E1D0A
:101E30002968224800231022354609F0BDFAD0E770
:101E40000221204809F004F82E1D29681B480023B0
:101E50000222354609F0B0FAC3E7073525F0070539
:101E60000321D5E9002315480091083509F0ECFA63
:101E7000B7E7073525F007050021D5E900230F480E
:101E80000091083509F0E0FAABE7296801290EBF97
:101E90000D480E480121043508F0DAFFA1E72B6850
:101EA000012B07BF04210A480A480521043508F020
:101EB000CFFF96E7014809F06BBA00BF0888FF1F03
:101EC0006C1A0100701A0100741A0100781A0100DE
:101ED0007C1A0100841A01000FB400B583B004A974
:101EE00051F8040B0191FFF751FF03B05DF804EBCB
:101EF00004B0704770B51B4B1B4C1B6882B00D467D
:101F00000193019B23601946044600231646174897
:101F10000A2209F051FA0321154808F099FF032C11
:101F200007D8DFE804F01A1510020521114808F05F
:101F30008FFF0221104808F08BFF31462846FFF73B
:101F400025FF02B070BD07210C4808F081FFF0E7C3
:101F500004210B4808F07CFFEBE70521094808F055
:101F600077FFE6E78CD3FF1FAC92FF1F0888FF1FA7
:101F70008C1A0100A81A0100D81A0100A01A010049
:101F8000981A0100901A01000FB400B5094B187897
:101F900083B020B103B05DF804EB04B0704705AB2B
:101FA0001A4604990193FFF7A5FF03B05DF804EB0F
:101FB00004B070472087FF1F0FB4094B00B51B7892
:101FC000012B83B004D903B05DF804EB04B0704773
:101FD00005AB1A46049901930120FFF78BFFF2E746
:101FE0002087FF1F0FB40B4B00B51B78032B83B06A
:101FF00004D903B05DF804EB04B0704705AB1A4692
:10200000049901930320FFF775FF03B05DF804EB1B
:1020100004B070472087FF1F30B4074D074C0849B4
:1020200000232B70236003654365836580F85C3073
:102030000B6030BC704700BFB892FF1FB492FF1F07
:10204000B092FF1F0A4A0B49D06D936D03FB00F35A
:102050004FF47A7000FB03F0642310B50B600AF0B4
:1020600073FF0549054C0BF077F8206010BD00BFE9
:1020700084D0FF1F3487FF1FE4388E3EB0D1FF1F8E
:1020800010B4019C521AA4EB030412D0401A002C85
:1020900004FB00F002EBD27111DB00EB610101FBEC
:1020A00002F0002891FBF2F10B4414DB184610BC3F
:1020B000704704EBD47003EB600010BC7047A0EBDA
:1020C000610000FB02F1002990FBF2F01844EEDB06
:1020D000013010BC7047581E10BC704710B5074C3B
:1020E000204609F055F9064B2046196809F0A4F975
:1020F00003210448BDE8104008F0AABE0888FF1F6D
:102100006093FF1FB01A010038B5044608460D461B
:102110000CF0F6F82368024629465B68204698478B
:102120000546204609F034F9284438BD2DE9F84326
:102130004848494D494F4A4CFFF7CEFE494BDFF81E
:1021400050E14949494A4A485D601226494D1E708E
:10215000DF600026484F1C61C3F818E0474C596106
:102160004FF00C0E46495A629862464A4648DD6274
:102170001E63464D5F6340F61C460A279C63C3F806
:1021800054E041F20404DFF80CE19964DA640221BE
:1021900001221862C3F8C45000204FF07C55DE665F
:1021A0001F6764264FF496775C67C3F81CE03224FF
:1021B000C3F83CE04FF05A0E597059721A729A6582
:1021C00083F840009F661F665C665D64DE654FF4C1
:1021D0007A78C3F878E0DFF8C0C0D867C3F8801019
:1021E000C3F8D420C3F88400C3F89C40C3F8AC40C3
:1021F000DFF8A8E0C3F8A80044F62069C3F8B420CB
:10220000C3F8B810FF2741F28831052483F8C820AD
:102210004FF4FA7083F8C92040F2D662C3F8BC606C
:102220001D65C3F8A080C3F890C0C3F894E0C3F85C
:102230008C90C3F8B070A3F8C240A3F8CA00C3F8EA
:102240009810A3F8C010A3F88820A3F88A20BDE84E
:10225000F88300BFB41A010020A10700666686401B
:102260000000404084D0FF1F33338340CDCCCC3DB1
:1022700000008242000020C1000020420000A04077
:102280009A9979400AD7233D333373409A99993EFE
:10229000CDCC4C40CDCC4C3E0000684200C0204428
:1022A00070B5464C464D4748E66800232B70FFF753
:1022B00031FA014630460BF039F808B104232B708F
:1022C0004048FFF701FA21690BF030F818B12B787C
:1022D00043F010032B703B48FFF7C4FAA16A0BF0E0
:1022E00043F818B12B7843F040032B700023354896
:1022F0006B70FFF7B9FAE16A314E0BF017F808B1CD
:102300000123737000232F48EB70FFF703FA054693
:102310002C482B4EFFF7D8F9014628460AF05EFDFF
:10232000E16B0BF021F808B10123F370264D25482D
:1023300000232B70FFF7EEF9616A0646E0680AF0A9
:102340004DFD014630460BF00FF808B104232B7009
:102350001C48FFF7B9F9616A064620690AF040FD9A
:10236000014630460AF0E2FF18B12B7843F0100323
:102370002B701448FFF776FAA16B0646A06A0AF0A4
:102380002DFD014630460AF0EFFF18B12B7843F0DF
:1023900040032B7000230B486B70FFF765FAA16BAD
:1023A0000546E06A084C0AF01BFD014628460AF083
:1023B000BDFF08B10123637070BD00BF84D0FF1F53
:1023C00070D0FF1F7093FF1FC092FF1F2DE9F041D7
:1023D000844C2368012B82B027D0022B00F09E8012
:1023E000032B00F0BE80EBB97F4B8048D3F8AC20C4
:1023F000D3F8B0100368891A002903FB01F37C4964
:10240000C0F2D180323381FB0301D817C0EB6111D8
:10241000002B1144C0F2DC80062002B0BDE8F04180
:1024200007F000B802B0BDE8F081724E33680A339D
:10243000B3F57A7F00F3C780184633600AF084FD55
:102440006D490AF0D5FD8046674DD5F8AC000AF01D
:102450007BFD0746D5F8B0000AF076FD39460AF054
:10246000BDFC41460AF0C4FD64490AF075FE3946D8
:102470000AF0B6FC0AF082FF0146062006F0D2FF01
:1024800002215F4808F0E4FC5E4808F081FF062165
:102490005D4808F0DDFC30680AF056FD56490AF048
:1024A000A7FD0AF0FBF8022702460B4600975548A5
:1024B00008F0CAFF0D21554808F0CAFCD5F8AC0059
:1024C0000AF042FD804630680AF03EFD4A490AF0B3
:1024D0008FFD0646D5F8B0000AF036FD41460AF0F9
:1024E0007DFC014630460AF083FD44490AF034FE83
:1024F00041460AF075FC0AF0D1F800970B460246F7
:10250000404808F0A1FF39463D4808F0A1FC3D488D
:1025100008F03EFF2368022B7FF462AF354B324E4A
:1025200000221A60D6F8AC000AF00EFD0546D6F877
:10253000B0000AF009FD29460AF050FC00210AF01B
:1025400057FD2E490AF008FE29460AF049FC0AF018
:1025500015FF0146062006F065FF2368032B7FF474
:1025600042AF244B204E4FF47A721A60D6F8AC007A
:102570000AF0EAFC0546D6F8B0000AF0E5FC294668
:102580000AF02CFC1D490AF033FD1C490AF0E4FD59
:1025900029460AF025FC0AF0F1FE0146062006F065
:1025A00041FF23681FE7323B81FB0310D917C1EBC2
:1025B0006011002B0A4412DB511C062002B0BDE85A
:1025C000F04106F02FBF00234FF0000833603BE7D7
:1025D0000139062002B0BDE8F04106F023BF1146E4
:1025E0001AE700BFEC92FF1F84D0FF1F3487FF1F44
:1025F0001F85EB515CD1FF1FCDCCCC3D0000C84204
:10260000B42801000888FF1FD41A0100DC1A010059
:1026100070B5B548B54C08F0BBFEB34808F0B8FE3D
:10262000B14808F0B5FE0D21B14808F011FCD4F80E
:10263000A830012B00F0B180AE4CAB4821780023CC
:102640000A2208F0B9FE2378052B0BD8DFE813F037
:10265000F100F600FB000001050106000721A64875
:1026600008F0F6FB0221A54808F0F2FB122007F063
:102670005FF8012800F02081112007F059F80128A7
:1026800000F024819E4B1B68012B00F02881022161
:102690009A489C4C08F0DCFB9B4B9348196808F067
:1026A000CBFE914808F074FE0421984808F0D0FB56
:1026B0000B2007F03DF8002301460A228A4808F063
:1026C0007BFE0C2007F034F8002301460A228648DE
:1026D00008F072FE142007F02BF8002301460A22AE
:1026E000814808F069FE152007F022F80A2200232D
:1026F00001467D4808F060FE0621854808F0A8FBE9
:102700002368DD074FF001014CBF8248824808F082
:102710009FFB236898074FF001014CBF7D487E481E
:1027200008F096FB23685A074FF001014CBF794827
:10273000794808F08DFB23681B074CBF7548764825
:10274000012108F085FB0421744808F081FB112069
:1027500006F0EEFF002301460A22634808F02CFE33
:10276000102006F0E5FF002301460A225E4808F02B
:1027700023FE122006F0DCFF002301460A225A48FD
:1027800008F01AFE132006F0D3FF002301460A22A8
:102790005548BDE8704008F00FBE0921604808F0B8
:1027A00057FB6048FEF790FF21690AF0BFFD002843
:1027B00062D15C48FEF7AEFFE1680AF0D5FD002863
:1027C00064D15848FEF7A6FF05465648FEF77CFF41
:1027D000014628460AF002FBE16B0AF0C5FD00281D
:1027E0004FD15048FEF7E6FFA16A0AF0BDFD002870
:1027F0003DD14C48FEF7DEFFE16A0AF097FD002864
:1028000030D1494B47481B68012B00F0AF80FEF7E1
:102810005BFF2169354D0AF0A7FD00283BD1072158
:10282000424808F015FB424B2F48196808F004FE97
:1028300018E706213F4808F00BFB13E707213E4845
:1028400008F006FB0EE707213C4808F001FB09E70A
:1028500008213B4808F0FCFA04E70B21394808F04E
:10286000F7FAFFE60D21384808F0F2FAC9E70C2123
:10287000364808F0EDFABCE70F21354808F0E8FAD1
:1028800097E71121334808F0E3FAAAE70E2132480E
:1028900008F0DEFA95E72348FEF73CFFE9680AF006
:1028A00045FD0028BBD0134B1B78052B6ED00821AB
:1028B0002A4808F0CDFAB2E70E21294808F0C8FAF4
:1028C000112006F035FF01287FF4DCAE0A212548EF
:1028D00008F0BEFA0A4B1B68012B7FF4D8AE112119
:1028E000214808F0B5FAD2E60888FF1F84D0FF1F00
:1028F000EC1A010078D0FF1FC41B0100B4280100AE
:10290000A4D1FF1FD0D1FF1FC892FF1FFC1B0100E5
:10291000041C01000C1C0100402C0100101C0100D3
:10292000FC1A01007093FF1FFC92FF1F8C1B01001B
:10293000F892FF1F941B01009C1B0100B01B0100BB
:10294000B81B0100A41B01004C1B01003C1B010033
:10295000081B0100281B0100181B0100801B01003F
:10296000CC1B0100DC1B0100E81B0100FEF7ACFEE4
:10297000216A0AF0F9FC002899D01621064808F0CF
:1029800067FA0A21054808F063FA48E70A21034874
:1029900008F05EFA43E700BF5C1B0100741B0100F6
:1029A0002DE9F04FAB4CD4F88060012E8DB000F0D3
:1029B0007981032E00F0CC80DFF8DC82A64FA74E91
:1029C000E36FA748012B09BF3168316801F100416D
:1029D000316006F0D3F93B68002B40F09F80A0489F
:1029E000DFF8B49206F0A0F93B68C8F8000005468D
:1029F000002B44D1D4F88030964A012B53D099490A
:102A000028460AF0B1FCC0B9974928460AF08EFC66
:102A100098B9964A964B12680B920B9A1A60D4F8A2
:102A2000B4000AF091FA29460AF0E2FA0023C8F845
:102A3000000033600DB0BDE8F08FDFF830A28C4F9E
:102A4000DAF800300A930A983B68DFF85092C01A0F
:102A50000AF076FA29460AF0CBFA86490AF07CFB9E
:102A600084490AF079FBD9F800100AF0B9F9DAF8CC
:102A700000300993099BC9F800003B60CFE709F0DB
:102A80000DFE022502460B4600957B4808F0DCFC53
:102A900004217A4808F0DCF9D4F88030D9F80050E5
:102AA0006C4A012BABD1764B1B68012B00F0DA810D
:102AB000022BB4D1D2F88C7038460AF045FA294678
:102AC0000AF034FC40B978420AF03EFA29460AF08E
:102AD0004BFC002800F0F981DFF890A1644FDAF890
:102AE0000030079307983B68DFF8B091C01A0AF0EE
:102AF00027FA29460AF07CFA5E490AF02DFB5D4967
:102B00000AF02AFBD9F800100AF06AF9DAF8003066
:102B10000693069BC9F800003B6080E7504806F02A
:102B200003F909F0BBFD022502460B460095524809
:102B300008F08AFC0321534808F08AF9D4F88C1075
:102B40004D4808F079FC03214E4808F081F946E72A
:102B50004D4D4B4F2B68DFF84081D3F884000F2197
:102B600001233B6006F098F83B683B4F012B3B6824
:102B700000F0BF80002B40F03D812B68DFF82091F2
:102B8000D3F88400436B19698EB2C9F8006005F070
:102B900005FEB4F88A2040F6E44303FB06F1B1FBDE
:102BA000F0F0801A00B20AF0CFF938492B4E824675
:102BB000D4F890000AF01CFA014650460AF0CCFA0C
:102BC000D9F800303060632BDFF8D4A000F3068121
:102BD000002333603B68002B3FF4F2AE02212C4807
:102BE00008F036F92B68D9F80050D3F8840040F685
:102BF000E44303FB05F505F0D1FDB5FBF0F00AF069
:102C00009FF90546B4F88A000AF09EF90146284665
:102C10000AF0E4F809F042FD022502460B46009551
:102C2000154808F011FC2946194808F011F93068D8
:102C300009F034FD009502460B460F4808F004FCED
:102C40002946144808F004F92946114808F000F90B
:102C5000B6E600BF84D0FF1FF092FF1FC0D1FF1F58
:102C600078D1FF1F0000FA430000FAC38CD3FF1F86
:102C70006CD0FF1F00007A440888FF1F581C010019
:102C80004C87FF1FEC150100D8D1FF1FACC52737BB
:102C9000B4280100541C010074D0FF1FB0D1FF1FE5
:102CA000E0D1FF1FDFF80883D4F88C70D8F800500B
:102CB00038460AF049F929460AF056FB48B17842ED
:102CC0000AF042F9014628460AF04EFB002840F07F
:102CD0000381A54DA54F2A680223D2F884003B60EA
:102CE0000E2105F0D9FF3B68A14F012B3B687FF413
:102CF00041AF002B40F0FA802B68DFF8B892D3F890
:102D00008400436B19691FFA81FBC9F800B005F014
:102D100045FDB4F88830974E40F6E44A0AFB0BFBB9
:102D2000BBFBF0F0C01A00B20AF00EF992498346DC
:102D3000D4F894000AF05CF9014658460AF00CFAFF
:102D40002A68D9F800303060D2F884000AFB03FA10
:102D500005F024FDB4F88830BAFBF0F00FFA80FAE1
:102D6000C3EB0A03002BB4F8C220B8BF5B42934206
:102D7000BCBF002333603B68002B3FF421AE02212F
:102D80007E4808F065F82B68D9F80050D3F8840025
:102D900040F6E44303FB05F505F000FDB4F88810A8
:102DA000B5FBF0F000B2411A754808F045FB02216E
:102DB000724808F04DF8306809F070FC02250246B0
:102DC0000B4600956E4808F03FFB03216D4808F064
:102DD0003FF82946694808F03BF8F1E52B68D3F83D
:102DE000840005F0DBFCDAF8003064389842FFF428
:102DF000EFAEEFE66248DFF8BC91DFF86CA108F0B7
:102E0000C7FA0C21604808F023F80C215F4808F04D
:102E10001FF82A683B68D2F88400426B11698EB2B1
:102E2000C9F80060002B3FF4B2AE05F0B7FC40F6E5
:102E3000E44100230A2201FB06F1B1FBF0F1504806
:102E400008F0BAFA02214D4808F002F8B4F88A10E6
:102E50004B4808F0F1FADAF80030D9F80060D3F8FE
:102E6000840094E64A4928460AF07EFA58B949494E
:102E700028460AF05BFA30B9474A484B1268059277
:102E8000059A1A60CBE5DFF810A1444FDAF800305C
:102E9000049304983B68DFF82091C01A0AF050F8B8
:102EA00029460AF0A5F83E490AF056F93C490AF0CD
:102EB00053F9D9F8001009F093FFDAF800300393C2
:102EC000039BC9F800003B60A9E5334A334B126805
:102ED0000892089A1A60A2E5234D244F28683E60A4
:102EE0004FF0FF320F2105F0D3FB3DE62448DFF819
:102EF000C4901D4E08F04CFAD4F88030012B4FF0EE
:102F00000B010CBF2748284807F0A2FF0C211F48DF
:102F100007F09EFF2A683B68D2F88400426B116973
:102F20001FFA81FBC9F800B0002B3FF4F0AE05F0AA
:102F300035FC40F6E44100230A2201FB0BF1B1FB12
:102F4000F0F10F4808F038FA0121184807F080FF27
:102F5000B4F888100A4808F06FFA3368D9F800B05E
:102F6000D3F88400D3E600BFD8D1FF1F4C87FF1FE2
:102F7000F092FF1FC0D1FF1FACC52737B428010056
:102F80000888FF1F401C0100441C0100301C010088
:102F90000000FA430000FAC38CD3FF1F6CD0FF1F60
:102FA00000007A44181C0100241C0100E81A0100EA
:102FB00074D0FF1FE0D1FF1FB0D1FF1F2DE9F047F4
:102FC000844D2B6884B043B9834B1B680393039AE9
:102FD00042F210739A4200F2B180804C804F814ED1
:102FE000DFF84482D4F884207C4B012A04D0D3F843
:102FF0008020002A40F08F807B48FEF737FC7B4919
:10300000D4F870A0D4F87490E56E09F0F1FF0AF0DE
:10301000DBF9A36F00934A465346294680B2FFF777
:103020002FF8E56DD4F858A005FB00F00AFB00F07E
:1030300000EB8000400009F087FF6D490AF08CF832
:103040008146306005FB0AF54FF47A7000FB05F00D
:1030500009F07AFF6649DFF888A10546484609F07D
:10306000C7FF29460AF078F8624909F0C1FF0AF063
:1030700085F96328386048DD28465D490AF06CF818
:1030800064233060CAF80030D8F80030002B39D003
:10309000D4F88030514D012B43D0032B00F09380A6
:1030A000022B00F08B800221534807F0D1FE534BD6
:1030B000186809F0F3FA022402460B4600945048BF
:1030C00008F0C2F921464F4807F0C2FE21464A489F
:1030D00007F0BEFE39684A4808F0AEF906214A48B2
:1030E00007F0B6FE3068424909F082FF09F0D6FACF
:1030F000009402460B46424808F0A6F903214348D3
:1031000007F0A6FE04B0BDE8F0870028BCBF00238E
:10311000CAF80030B8E7D6F80090DD6DD3F858A0B3
:1031200090E73B4B1B68012B4FF00A010CBF39485D
:10313000394807F08DFED5F88030AEE72A48274C95
:10314000274FFEF793FB2949D4F87480E66ED4F834
:10315000709009F04DFF0AF037F9A36F00933146E4
:1031600042464B4680B2FEF78BFFE26DA36D38609E
:1031700002FB00F003FB00F000EB8000400009F0D0
:10318000E3FEDFF8A4801A49164E09F0E5FFD8F8EF
:103190000030306001222A60002B3FF423AF02216F
:1031A000154807F055FE164808F0F2F859211B485B
:1031B00007F04EFE124808F0EBF813E70721184815
:1031C00007F046FE6FE71021164807F041FED4F8DD
:1031D000803065E76C93FF1F8CD3FF1F84D0FF1FE7
:1031E0003487FF1FB0D1FF1F7093FF1F00007A4488
:1031F000E4388E3E0000C842B428010074D0FF1F9E
:103200000888FF1F541C0100F01C0100F81C01007D
:103210004C87FF1FBC1C0100C81C0100601C010082
:10322000E81C0100D41C01002487FF1F30B51120C9
:1032300083B006F07DFA012818D0122006F078FA43
:10324000012813D000210B2006F06CFA00210C207D
:1032500006F068FA0021152006F064FA2649274B8B
:103260000120002208701A6003B030BD0121152032
:1032700006F058FA224A234C234B1268D4F89810CF
:1032800001921B68019A1D4D0B4493424FF00201BD
:10329000296005D901210C2006F044FA03B030BDA5
:1032A000D4F8A00009F050FE184B19680AF03EF857
:1032B0000028EFD101210B2006F034FA94F8C83031
:1032C00003242C6043B10C4B02221A7000210C2005
:1032D00006F028FA03B030BD122006F029FA0128C2
:1032E00008BF054B4FF0110008BF1C7006F020FA14
:1032F0000128EBD1E7E700BF78D0FF1F6893FF1FDD
:103300008CD3FF1F84D0FF1FCCCFFF1F74D0FF1FB3
:10331000F0B5684E684D34682B689C4287B039D050
:1033200014F0010155D014F0020149D014F0040149
:103330003DD0E3070ED52B68DF070BD45F4F3A680B
:10334000002A00F082805E4B1B680193019B934230
:103350006DD83468A0070DD52B6899070AD4594F4A
:103360003A68002A4CD0564B1B680393039B934248
:1033700038D8346862070DD52B685B070BD4524FE1
:103380003A68002A7ED04E4B1B680593059B9342FA
:1033900068D834680CB107B0F0BD2146162006F09D
:1033A00041F82146172006F03DF807B0F0BD052092
:1033B00006F038F82B68346803F0FB032B60B8E79D
:1033C000172006F02FF82B68346803F0FD032B60FC
:1033D000ACE7162006F026F82B68346803F0FE03ED
:1033E0002B60A0E7394B1720D3F89C1006F01AF891
:1033F0002B68346843F0020300222B603A60B9E77F
:10340000334807F0C5FF0C21324807F021FD304852
:1034100007F0BEFFFF21172006F004F8284B2E4AC4
:1034200019680291029912680A443A609CE7274B96
:103430001620D3F89C1005F0F5FF2B68346843F094
:10344000010300222B603A6084E7FF21162005F07B
:10345000E9FF1B4B204A19680091009912680A4441
:103460003A6071E7194B0520D3F89C1005F0DAFF9C
:103470002B68346843F0040300222B603A60002C70
:1034800089D18AE7124807F083FF0C21134807F01F
:10349000DFFC0F4807F07CFFFF21052005F0C2FF8D
:1034A000074B0D4A19680491049912680A443A605E
:1034B0006AE700BF6893FF1FD0D1FF1F60D1FF1FD5
:1034C0008CD3FF1F64D1FF1F68D1FF1F84D0FF1F63
:1034D0000888FF1FFC1C01003C87FF1F0C1D01001A
:1034E0002DE9F047534EDFF870813368DFF86C91B7
:1034F000D3F88400504D0F2105F0CEFB00230122AC
:1035000022214E48C8F80030C9F8002007F0A0FC7E
:10351000D8F80030132B20DC40F6E4473368B5F8C8
:1035200088A0D3F88400436B1C6905F037F9A4B276
:10353000012107FB04F4B4FBF0F441485444A5F81E
:10354000884007F085FC642006F028F9D8F80030A0
:103550000133132BC8F80030E0DDB5F88830394A64
:103560003948A2FB03129B1A02EB5303C3F30F1358
:103570001946A5F8883007F05FFF1D21334807F092
:1035800067FC0221324807F063FC2F4807F000FF78
:1035900032680023D2F88400C8F800300E2105F00C
:1035A0007BFB022322212548C9F8003007F050FC9C
:1035B000D8F80030132B20DC40F6E4473368B5F828
:1035C0008A90D3F88400436B1C6905F0E7F8A4B235
:1035D000012107FB04F4B4FBF0F419484C44A5F8AE
:1035E0008A4007F035FC642006F0D8F8D8F800309F
:1035F0000133132BC8F80030E0DDB5F88A30114AEA
:103600001148A2FB03129B1A02EB5303C3F30F13DF
:103610001946A5F88A3007F00FFF1D210D4807F065
:1036200017FC02210A4807F013FC0748BDE8F047E1
:1036300007F0AEBED8D1FF1F84D0FF1F1C1D0100B4
:10364000601D0100876118860888FF1F401D01006A
:10365000B4280100641D0100D092FF1F4C87FF1F9A
:10366000F8B5BD4BBD4CBE4F1B68786D40F2513173
:1036700008222160E271002B00F0698109F064FCEE
:10368000396A054609F0B4FCB64909F0B1FC09F005
:103690009BFE80B203126372B34AB44B12681B687C
:1036A000B9692072A37228461B121512E3722273A5
:1036B000657309F09DFCAB4909F09AFC09F084FEA2
:1036C00083B21A12A549AA48A373E27304F038FE24
:1036D000A84BA94A1B681288A049A272DDB22572C4
:1036E00005EB850603EB8305760045F3D71540F21D
:1036F000553E12121B1226736573082600259C483E
:10370000C4F800E0E2726372E671A573E57304F039
:1037100017FE40F2563399482360E671FEF71EF813
:10372000974909F065FC09F04FFE20729348FEF7B7
:1037300015F8934909F05CFC09F046FE914A90495E
:10374000C0F307231068637209F006FD09F016FE46
:1037500040FA06F203468948E272A372FEF72AF89D
:10376000804909F045FC09F009FE20738348FEF703
:1037700021F87C4909F03CFC09F000FE7749A5736B
:1037800040F307237A486373E57304F0D9FD022000
:1037900006F004F87C4A7D4B1178507821729178BC
:1037A0006072D2789878A172597893F800E0E2724A
:1037B0006173DA78A07340F25A3368496C4884F830
:1037C0000CE0E2732360E67104F0BAFD704B6349CC
:1037D0001A785878227260729A78D878A272E07259
:1037E0001A79987993F805E02273A073DA79604822
:1037F00084F80DE040F25E33E2732360E67104F07A
:103800009FFD022005F0CAFF624B54491A78587890
:10381000227260729A78D878A272E0721A799879D6
:1038200093F805E02273A073DA79514884F80DE02B
:103830004FF45C73E2732360E67104F081FD0220B3
:1038400005F0ACFF40F273334C482360E671FDF79E
:103850003BFF514909F0CCFB09F0B6FD2072474807
:10386000FDF732FF4C4909F0C3FB09F0ADFDC0F391
:10387000072342486372FDF74DFF474909F0B8FB43
:1038800009F0A2FDA0723D48FDF744FF424909F04E
:10389000AFFB09F099FDC0F307233848E372FDF749
:1038A000E3FF3E4909F09CFA09F08EFD207333488E
:1038B000FDF7DAFF394909F093FA09F085FDC0F305
:1038C00007232E486373FDF7CDFF344909F088FACA
:1038D00009F07AFDA0732948FDF7C4FF2F4909F0CC
:1038E0007FFA09F071FD1D49C0F307232048E373F7
:1038F00004F026FD022005F051FFB96DFB6D022298
:1039000011FB03F3C3F3072740F27931104621601E
:10391000E2712372677205F041FF40F2723317487B
:103920002360E671FDF71CFF20721448FDF718FFB5
:1039300040FA06F3A5726372E57225736573A57389
:10394000E57306490A48BDE8F84004F0F9BC09F0FF
:10395000FBFA7969054695E6FC92FF1FD492FF1F9A
:1039600084D0FF1F00002041C8D1FF1FE892FF1F35
:10397000E4D1FF1F3487FF1F3A87FF1F7093FF1F9B
:103980000000C84274D0FF1F70D0FF1FC092FF1FFD
:103990006487FF1F6C87FF1F00007A4433938843BE
:1039A0002DE9F041874C884D82B007F0EBF9236890
:1039B0002860042B00F0F982022B4BD0082B00F07A
:1039C0009280072B40F02481332801F0C08500F35A
:1039D0007783312801F0A585322840F08D8007F0EB
:1039E0000DFA002840F312817848794E07F066FE00
:1039F00009F0AAFA774909F0FBFA61230122F06382
:103A000022602B601846A0F152031F2B01F26D8536
:103A1000DFE813F0570D6B0D6B0D6B0D6B0D6B0D20
:103A20006B0D6B0D6B0D6B0D6B0D6B0D6B0D6B0DD6
:103A30006B0D9603CB0E1005AC057A046B0D6B0D68
:103A40006B0D0A046B0DCE0E6B0D6B0D6B0D6B0DBC
:103A50006B0D590DA0F13102422A4DD8DFE812F06A
:103A60006F087B08890896083308460853086208DF
:103A70004C004C004C004C004C004C004C004C00E6
:103A80004C004C004C004C004C004C004C004C00D6
:103A90004C004C004C004C004C004C004C004C00C6
:103AA0004C004C004C004C004C004C004C004C00B6
:103AB0004C004C004C004C004C004C004C004C00A6
:103AC0004C004C002D084C004C004C004C004C00AD
:103AD0004C004C004C004C004C004C004C004C0086
:103AE00036034C00A508322800F0F582712800F05A
:103AF000ED82312800F00583002B08BF73280CBF2E
:103B000001200020002859D0304807F041FC042152
:103B1000314807F09DF92D4807F03AFC10212F4855
:103B200007F096F9294807F033FC13212C4807F0D9
:103B30008FF92C4B2548196807F07EFC234807F0C5
:103B400027FC1421284807F083F9204807F020FCBF
:103B50001E21264807F07CF91C4807F019FC1521A6
:103B6000234807F075F9194807F012FC1E21214877
:103B700007F06EF9154807F00BFC20211E4807F0EE
:103B800067F9124807F004FC19211C4807F060F996
:103B90000E4807F0FDFB1221194807F059F90B48B0
:103BA00007F0F6FB0D21174807F052F9074807F018
:103BB000EFFB154A002101231160236002B0BDE82C
:103BC000F08100BF98D1FF1FB8CFFF1F0888FF1FEB
:103BD00084D0FF1F6F12833A442701004C27010055
:103BE000602701004887FF1F742701008C27010010
:103BF000AC270100C4270100E427010008280100C8
:103C000024280100382801002487FF1F2368286822
:103C1000062B40F08F80A0F13002412A3FF66CAFB6
:103C200001A151F822F000BF494900007549000088
:103C3000A1490000CD490000F349000053480000AD
:103C400025490000E9480000F93A0000FD4800005D
:103C5000F93A0000F93A0000F93A0000F93A000098
:103C6000F93A0000F93A0000F93A0000F93A000088
:103C7000F93A0000F93A0000F93A0000F93A000078
:103C8000F93A0000F93A0000F93A0000F93A000068
:103C9000F93A0000F93A0000F93A0000F93A000058
:103CA000F93A0000F93A0000F93A0000F93A000048
:103CB000F93A0000F93A0000F93A0000F93A000038
:103CC000F93A0000F93A0000F93A0000F93A000028
:103CD000F93A0000F93A0000F93A0000F93A000018
:103CE000F93A0000F93A0000F93A0000F93A000008
:103CF000F93A0000F93A0000F93A0000F93A0000F8
:103D0000F93A0000F93A0000F93A0000F93A0000E7
:103D1000F93A0000F93A0000F93A0000F93A0000D7
:103D2000F93A0000F93A0000F93A0000CD400000ED
:103D300023682868052B40F08D80A0F13102402ACD
:103D40003FF6DAAE01A151F822F000BF9F46000015
:103D500013480000D7470000F747000093470000D2
:103D6000BD470000F93A0000F93A0000F93A0000B6
:103D7000F93A0000F93A0000F93A0000F93A000077
:103D8000F93A0000F93A0000F93A0000F93A000067
:103D9000F93A0000F93A0000F93A0000F93A000057
:103DA000F93A0000F93A0000F93A0000F93A000047
:103DB000F93A0000F93A0000F93A0000F93A000037
:103DC000F93A0000F93A0000F93A0000F93A000027
:103DD000F93A0000F93A0000F93A0000F93A000017
:103DE000F93A0000F93A0000F93A0000F93A000007
:103DF000F93A0000F93A0000F93A0000F93A0000F7
:103E0000F93A0000F93A0000F93A0000F93A0000E6
:103E1000F93A0000F93A0000F93A0000F93A0000D6
:103E2000F93A0000F93A0000F93A0000F93A0000C6
:103E3000F93A0000F93A0000F93A0000F93A0000B6
:103E4000F93A0000F93A0000F93A0000334800005E
:103E500023682868032B40F0A480A0F13002422A96
:103E60003FF64AAE01A151F822F000BF793F0000B1
:103E7000355100005D51000085510000A751000040
:103E8000C9510000F15100002B5200001D530000E9
:103E900041530000F93A0000F93A0000F93A0000F5
:103EA000F93A0000F93A0000F93A0000F93A000046
:103EB000F93A0000F93A0000F93A0000F93A000036
:103EC000F93A0000F93A0000F93A0000F93A000026
:103ED000F93A0000F93A0000F93A0000F93A000016
:103EE000F93A0000F93A0000F93A0000F93A000006
:103EF000F93A0000F93A0000F93A0000F93A0000F6
:103F0000F93A0000F93A0000F93A0000F93A0000E5
:103F1000F93A0000F93A0000F93A0000F93A0000D5
:103F2000F93A0000F93A0000F93A0000F93A0000C5
:103F300069530000434C00004952000067520000E2
:103F400085520000A3520000F94B00001D4C0000F8
:103F5000F93A000087530000C9500000F93A000008
:103F6000F93A0000F93A0000F93A0000F93A000085
:103F7000F3500000FF50000006F040FF002841F31E
:103F8000B782CF48CF4E07F099FB01270346014681
:103F90006222CD48B36527602A60FDF7E5FB236800
:103FA0002868012B7FF4A8AD2DE5A0F13102402A4D
:103FB0003FF6A2AD01A151F822F000BF5B4A00001C
:103FC000994A00009D4A00005F4A0000634A0000D1
:103FD0007F4A0000954A0000314A0000354A00003F
:103FE000F93A0000F93A0000F93A0000F93A000005
:103FF000F93A0000F93A0000F93A0000F93A0000F5
:10400000F93A0000F93A0000F93A0000F93A0000E4
:10401000F93A0000F93A0000F93A0000F93A0000D4
:10402000F93A0000F93A0000F93A0000F93A0000C4
:10403000F93A0000F93A0000F93A0000F93A0000B4
:10404000F93A0000F93A0000F93A0000F93A0000A4
:10405000F93A0000F93A0000F93A0000F93A000094
:10406000F93A0000F93A0000F93A0000F93A000084
:10407000F93A0000F93A0000F93A0000F93A000074
:10408000194A0000F93A0000F93A0000F93A000034
:10409000F93A0000F93A0000F93A0000F93A000054
:1040A000F93A0000F93A0000F93A0000F93A000044
:1040B000F93A0000F93A0000F93A0000CD4000005A
:1040C000342801F01C8271287FF416AD0023732080
:1040D0002360286010E506F091FE002840F3B183CC
:1040E0007748784E07F0EAFA08F02EFF774908F093
:1040F0007FFF07460246336D96F84010724877649A
:1041000015E006F07BFE002840F39F836C486D4E5F
:1041100007F0D4FAC0B286F84000032894BF0146E5
:104120000021336D726C684888BF86F84010FDF737
:104130001DFB012369202360286064E406F022FE51
:1041400006F05CFE05460028F8D15D485D4E07F09C
:104150001FF95B4807F01CF9594807F019F958484E
:1041600007F016F9564807F013F91F21584806F0D2
:104170006FFE534807F00CF91C21564806F068FE04
:10418000706A554908F034FF08F088FA0095024635
:104190000B464B4807F058F90221504806F058FEEC
:1041A000474807F0F5F823214D4806F051FEF06B23
:1041B000494908F01DFF08F071FA009502460B46C8
:1041C0003F4807F041F90221444806F041FE3C48CF
:1041D00007F0DEF81921434806F03AFEB06B08F00C
:1041E0005DFA02250B4602460095354807F02CF98A
:1041F00029463D4806F02CFE314807F0C9F8222137
:104200003A4806F025FEB6F8CA102D4807F014F912
:104210000321374806F01CFE294807F0B9F80723A8
:104220002360CBE406F0AEFD06F0E8FD054600286D
:10423000F8D12348234E07F0ABF8214807F0A8F83F
:104240001F4807F0A5F81E4807F0A2F81C4807F021
:104250009FF81521274806F0FBFD194807F098F84C
:104260001821254806F0F4FD2B460A2296F8401046
:10427000134807F0A1F8124807F08AF828211F48D0
:1042800006F0E6FD706C144908F0B2FE08F006FA7C
:1042900000950B4602460A4807F0D6F802210F485F
:1042A00006F0D6FD064807F073F81321144806F00F
:1042B000CFFD034807F06CF8082323607EE400BFBD
:1042C0000888FF1F84D0FF1F7093FF1F6F12833A6F
:1042D000D01F0100F01F010000007A44FC1D010006
:1042E0001020010034200100AC1F0100502001000B
:1042F000742001000C280100B41D0100D01D010034
:10430000001E010006F03EFD06F078FD054600287F
:10431000F8D18148814E07F03BF87F4807F038F824
:104320007D4807F035F87C4807F032F87A4807F006
:104330002FF811217A4806F08BFD774807F028F80E
:104340002821784806F084FD7069774908F050FE0E
:1043500008F0A4F9009502460B466F4807F074F880
:104360000221724806F074FD6B4807F011F816211F
:104370006F4806F06DFDF0696B4908F039FE08F0F2
:104380008DF900950B460246634807F05DF802215F
:10439000664806F05DFD604806F0FAFFD6F8B830D2
:1043A000002B32DD1D21634806F052FD306E08F00F
:1043B000CBFD614908F01CFE08F070F902250246A9
:1043C0000B460095544807F03FF801215B4806F082
:1043D0003FFD514806F0DCFF1F21594806F038FD2B
:1043E000706E08F0B1FD544908F002FE08F056F96D
:1043F000009502460B46484807F026F801214F4831
:1044000006F026FD444806F0C3FF11214D4806F092
:104410001FFDD6F8B830072B00F2CA87DFE813F08B
:1044200047084C0842083D08380833082E08C407DE
:1044300006F0A8FC06F0E2FC0028F9D13648374E19
:1044400006F0A6FF344806F0A3FF334806F0A0FFAD
:10445000314806F09DFF304806F09AFF1F213A4888
:1044600006F0F6FC2C4806F093FF1E21374806F0B4
:10447000EFFC294806F08CFF1A21354806F0E8FCCD
:10448000D6F88030022B01F03781032B01F02B810D
:10449000012B01F01F8109212E4806F0D9FC1E488E
:1044A00006F076FF14212C48DFF8708006F0D0FC6F
:1044B000F16F194806F0C0FF174806F069FF1C218C
:1044C000264806F0C5FCD6F88410134806F0B4FF61
:1044D000114806F05DFF1C21214806F0B9FCD6F812
:1044E000B4100D4806F0A8FF0B4806F051FFD6F8AF
:1044F000805025F00207012F01F07C80022D01F091
:104500001A811321174806F0A3FC034806F040FF68
:1045100002232360FFF752BB0888FF1F84D0FF1FD0
:10452000B0270100141E010000007A44FC1D0100A8
:10453000401E0100581E0100CDCCCC3DA823010037
:10454000781E0100981E01006822010088220100E7
:10455000A8220100202301002C2301004423010094
:1045600064230100001E010006F00CFC06F046FC6E
:104570000028F9D1BE4806F00BFFBD4806F008FF41
:10458000BB4806F005FFBA4806F002FFB84806F03F
:10459000FFFE1321B74806F05BFCB54806F0F8FEB5
:1045A0000D21B54806F054FCB14806F0F1FE0F218C
:1045B000B24806F04DFCB24BAD48196806F03CFF1E
:1045C000AB4806F0E5FE1321AE4806F041FCAE4BC9
:1045D000A748196806F030FFA54806F0D9FE122159
:1045E000AA4806F035FCAA4BA148196806F024FF3A
:1045F0009F4806F0CDFE1121A64806F029FCA64BE7
:104600009B48196806F018FF994806F0C1FE0E2174
:10461000A24806F01DFCA24B9548D3F8A81006F05E
:104620000BFF934806F0B4FE19219E4806F010FCDB
:104630009D4B8F48196806F0FFFE8D4806F0A8FED6
:1046400011219A4806F004FC994B8948196806F034
:10465000F3FE874806F09CFE1021964806F0F8FB12
:10466000954B8348196806F0E7FE814806F090FEF6
:104670001C21924806F0ECFB914B7D48196806F02E
:10468000DBFE7B4806F084FE13218E4806F0E0FB3B
:10469000774806F07DFE04232360FFF78FBA06F00B
:1046A000ADFB00287FF7D4AB71487D4E07F006F8CC
:1046B00001226B23C6F8980022602B6001E006F00F
:1046C00061FB06F09BFB0028F9D16948744D06F0A8
:1046D0005FFE674806F05CFE654806F059FE6448D8
:1046E00006F056FE624806F053FE2121764806F099
:1046F000AFFB5F4806F04CFE1521744806F0A8FB9E
:10470000D6F898105A4806F097FE0221704806F035
:104710009FFB574806F03CFE1E216E4806F098FBB2
:10472000D6F8A010524806F087FE03216A4806F02A
:104730008FFB4F4806F02CFE1E21684806F088FBD0
:10474000D6F89C104A4806F077FE494806F020FE4D
:104750001D21634806F07CFBD6F8AC10444806F0F7
:104760006BFE434806F014FE1E215E4806F070FB07
:10477000D6F8B0103E4806F05FFE3D4806F008FE51
:10478000D6F8A830012B00F0EB8705232360FFF754
:1047900015BA06F033FB00287FF75AAB3448404E79
:1047A00006F08CFF424BC6F8B00003221A60FDF7FA
:1047B0000DFE01226B2322602B6082E7384E96F8B3
:1047C000C930B3FA83F35B0901216B2286F8C93043
:1047D00021602A6075E706F011FB00287FF738ABEF
:1047E00023482F4E06F06AFF01226B23C6F89C0077
:1047F00022602B6065E706F001FB00287FF728ABFD
:104800001B48274E06F05AFF294BC6F8AC0002227F
:10481000CCE706F0F3FA00287FF71AAB1448204ED5
:1048200006F04CFF01226B23C6F8A00022602B602B
:1048300047E71F4A00237320136023602860FFF7B7
:104840005BB923682868FFF7BCB8154E96F840009E
:1048500063E4134AD2F8B8300133072BC8BF0023F2
:10486000C2F8B8300123652023602860FFF7CBB879
:104870000888FF1F8421010098210100A821010060
:10488000D4D1FF1FB8210100F092FF1FCC210100FD
:10489000B4D1FF1FE02101007CD0FF1FF4210100F3
:1048A00084D0FF1F04220100C892FF1F20220100B4
:1048B000EC92FF1F34220100DCD1FF1F48220100CF
:1048C0004487FF1F001E0100782001009C2001008A
:1048D000401F0100B4200100401C0100D420010051
:1048E000F420010014210100B54B93F8C820002AE0
:1048F00000F04086002283F8C820B3E706F07EFA75
:1049000000287FF715AAAF48AD4E06F0D7FE08F095
:104910001BFBF76A3063394608F008FD0028A1D078
:1049200037639FE706F06AFA00287FF701AAA548D7
:10493000A34E06F0C3FE65230122C6F8BC00226028
:104940002B601846FFF75FB806F058FA00287FF78B
:10495000EFA99C4806F0B2FE994A00EB80004300A4
:10496000116E1BB28B42A2F8D0307FF77BAFA2F85A
:10497000D01077E706F042FA00287FF7D9A99148CE
:104980008F4E06F09BFE08F0DFFA8F4908F0E4FB3B
:1049900065230122706122602B601846FFF733B84F
:1049A00006F02CFA00287FF7C3A98648844E06F04B
:1049B00085FE08F0C9FA844908F0CEFB6523012280
:1049C000F06122602B601846FFF71DB806F016FA5A
:1049D00000287FF7ADA97B48794E06F06FFE00EB0B
:1049E0008000430001226520336622602860FFF7C3
:1049F0000AB806F003FA00287FF79AA97148704EAA
:104A000006F05CFE00EB8000430001226520736627
:104A100022602860FEF7F7BF6C4A1368B3FA83F38D
:104A20005B0901216420136021602860FEF7EBBF61
:104A3000674AF2E70123236006F0E0F9002800F35B
:104A40009E85644B1A68042AC4BF02221A6064233C
:104A50002B6023686420FEF7B1BF5F4ADDE75F4A41
:104A6000DBE7574ED6F8A830B3FA83F35B0901228F
:104A70006420C6F8A83022602860FEF7C4BF012376
:104A800057482360FCF770FB564A23681060642285
:104A90002A60DFE7544AC0E7544ABEE7544A554FFC
:104AA0001368002B0CBF012300234FF0010013609B
:104AB000206040F02A860346E9E7FEF711FD2368EF
:104AC0002868FEF77BBF0123236006F097F90028D2
:104AD00007DD3C483A4E06F0F1FD08F035FAC6F81D
:104AE0009000632028602368FEF76BBF01232360DA
:104AF00006F084F90028F4DD3248314E06F0DEFD80
:104B0000A6F8C200EDE72E4AD2F8D4300133042BC8
:104B1000C8BF0123C2F8D43001236320236028607A
:104B2000FEF771BF0123236006F068F90028F3DD6A
:104B30002448234E06F0C2FDC6F88C00ECE7204E58
:104B4000F36FB3FA83F35B0901226320F3672260FA
:104B50002860FEF758BF1A4ED6F88430B3FA83F3B4
:104B60005B0901226320C6F8843022602860FEF7CA
:104B70004ABF0123236006F041F90028CCDD11482B
:104B80000F4E06F09BFDC6F8B400C5E70123236075
:104B900006F034F90028A4DD0A48094E06F08EFD1F
:104BA00008F0D2F9C6F894009BE7054AD2F88030A5
:104BB0000133032BC8BF0023C2F88030ACE700BF2D
:104BC00084D0FF1F0888FF1F00007A44C4D1FF1F54
:104BD000DCD1FF1F4487FF1FD4D1FF1F7CD0FF1FF4
:104BE0007093FF1FC892FF1FEC92FF1FF092FF1FF0
:104BF000B4D1FF1F98D1FF1F06F000F900280DDD8A
:104C00001748184E06F05AFD08F09EF9164908F0AC
:104C1000A3FA01226223306222602B6006F0EEF8D4
:104C200000280EDD0E480F4E06F048FD08F08CF906
:104C30000D4908F091FA01226223C6F8C4002260EF
:104C40002B6006F0DBF8002840F352840448054E40
:104C500006F034FD01226223F06622602B6007E03B
:104C60000888FF1F84D0FF1F00007A4406F08AF8EE
:104C700006F0C4F805460028F8D1C24806F088FBC3
:104C8000C04806F085FBBF4806F082FBBD4806F031
:104C90007FFBBC4806F07CFB1521BB4806F0D8F82A
:104CA000B84806F075FB1421B84806F0D1F8B548AD
:104CB00006F06EFB1B21B64806F0CAF8B14806F0B4
:104CC00067FB1321B34806F0C3F8AE4806F060FB5B
:104CD000AC4806F05DFBAB4806F05AFB2021AE481D
:104CE00006F0B6F8F068AD4908F082F907F0D6FC96
:104CF000009502460B46A34806F0A6FB0221A848F1
:104D000006F0A6F80221A74806F0A2F89D4806F092
:104D10003FFB2121A44806F09BF830699F4908F029
:104D200067F907F0BBFC009502460B46954806F074
:104D30008BFB02219A4806F08BF80221994806F075
:104D400087F8904806F024FB1F21984806F080F869
:104D5000B06A07F0A3FC022702460B460097894879
:104D600006F072FB0121924806F072F839468D4830
:104D700006F06EF8834806F00BFB20218D4806F004
:104D800067F8F06A07F08AFC009702460B467D48F8
:104D900006F05AFB0121864806F05AF83946814848
:104DA00006F056F8774806F0F3FA2321824806F019
:104DB0004FF8B06C794908F01BF907F06FFC0095CB
:104DC00002460B466F4806F03FFB3946744806F032
:104DD0003FF83946734806F03BF86A4806F0D8FABF
:104DE0001F21764806F034F8F06C6C4908F000F9A1
:104DF00007F054FC009502460B46624806F024FB7F
:104E00003946674806F024F83946664806F020F827
:104E10005C4806F0BDFA1921694806F019F8F16DF1
:104E2000584806F009FB3946664806F011F839463D
:104E30005C4806F00DF8534806F0AAFA18216248BB
:104E400006F006F8B06E08F07FF8604908F0D0F878
:104E500007F024FC009702460B464A4806F0F4FA95
:104E600001215B4805F0F4FF39464E4805F0F0FF9C
:104E7000444806F08DFA2B21564805F0E9FFB06949
:104E8000464908F0B5F807F009FC009502460B46C4
:104E90003C4806F0D9FA3946414805F0D9FF394671
:104EA000404805F0D5FF374806F072FA1F214A48FE
:104EB00005F0CEFFB16D334806F0BEFA39463948E9
:104EC00005F0C6FF2F4806F063FA2021434805F09D
:104ED000BFFF716D2B4806F0AFFA3946314805F037
:104EE000B7FF284806F054FA10213D4805F0B0FFFE
:104EF000F16E244806F0A0FA3946294805F0A8FFCB
:104F00003946284805F0A4FF1E4806F041FA13214F
:104F1000344805F09DFF316F1A4806F08DFA0121E3
:104F2000314805F095FF39461E4805F091FF1548B8
:104F300006F02EFA10212D4805F08AFF716F1148F6
:104F400006F07AFA3946164805F082FF39461548C8
:104F500005F07EFF0B4806F01BFA1421244805F0EB
:104F600077FFB16F074806F067FA01211E4805F088
:104F70006FFF39460B4805F06BFF024806F008FA50
:104F8000162137E00888FF1F8C240100A4240100AB
:104F9000BC240100001E0100D824010000007A4456
:104FA000FC1D0100B4280100FC24010020250100A3
:104FB0004025010044250100682501008C250100E1
:104FC000AC250100C8250100CC250100CDCCCC3D8D
:104FD000A8230100E8250100142601003426010061
:104FE000582601006C26010080260100842601005D
:104FF00098260100BB4805F02BFF306ABA4907F03C
:10500000F7FF07F04BFB009502460B46B74806F04A
:105010001BFA3946B64805F01BFF3946B54805F07E
:1050200017FFB24806F0B4F92421B34805F010FF89
:10503000D6F8C400AC4907F0DBFF07F02FFB009562
:1050400002460B46A94806F0FFF93946A84805F084
:10505000FFFE3946A74805F0FBFEA44806F098F984
:105060002B21A64805F0F4FE706B07F017FB0097A4
:1050700002460B469D4806F0E7F90121A04805F0DD
:10508000E7FE39469B4805F0E3FE984806F080F9B4
:1050900027219C4805F0DCFED6F8CC00924907F0A9
:1050A000A7FF07F0FBFA00950B4602468F4806F073
:1050B000CBF939468E4805F0CBFE8C4806F068F9EE
:1050C00003232360FEF77ABD05F098FE002840F325
:1050D0000F8286488C4E06F0F1FA07F035FF8249C0
:1050E00008F03AF801226223C6F8CC0022602B6057
:1050F000BEE50022732322602B60FEF705BD834BC3
:105100007C48814E002202211A6005F0A1FE7748FA
:1051100006F03EF90B217E4805F09AFE0221754803
:1051200005F096FE714806F033F9012262232260F1
:105130002B609DE505F062FE002840F3D9816B48A5
:10514000714E06F0BBFA07F0FFFE674908F004F85D
:1051500001226223F06022602B6089E505F04EFE9B
:10516000002840F3C5816148674E06F0A7FA07F0B2
:10517000EBFE5D4907F0F0FF0122622330612260FF
:105180002B6075E505F03AFE002840F3B1815748E1
:105190005D4E06F093FA07F0D7FE01226223B0625B
:1051A00022602B6064E505F029FE002840F3A08111
:1051B0004E48554E06F082FA07F0C6FE01226223E1
:1051C000F06222602B6053E505F018FE002840F3E2
:1051D0008F8146484C4E06F071FA07F0B5FE424901
:1051E00007F0BAFF01226223B06422602B603FE522
:1051F00005F004FE002840F37B813C48424E06F057
:105200005DFA07F0A1FE384907F0A6FF0122034628
:1052100001464048F3642260FBF75AFE236862228D
:10522000012B2A607EF4CAAC22E505F0E7FD0028D8
:1052300040F35E812D48344E06F040FA012262238D
:10524000F06522602B6013E505F0D8FD002840F3DF
:105250004F8126482C4E06F031FA01226223306736
:1052600022602B6004E505F0C9FD002840F3408171
:105270001E48254E06F022FA012262237067226042
:105280002B60F5E405F0BAFD002840F331811748A2
:105290001D4E06F013FA01226223B06722602B60D4
:1052A000E6E4FCF743FF02211248174E05F0D0FD5B
:1052B0000E4806F06DF802210E4805F0C9FD0B48B6
:1052C00006F066F802210B4805F0C2FD074806F01B
:1052D0005FF81721104805F0BBFD044806F058F8A8
:1052E0001CE700BFB026010000007A440888FF1FB9
:1052F000FC1D0100B4280100C8260100F0260100B1
:10530000402501001C27010084D0FF1F6C93FF1F64
:10531000A81D01007093FF1F901D010005F06EFD98
:10532000002840F3E5809A489A4E06F0C7F900EB52
:105330008000430001216222B36621602A6097E465
:1053400005F05CFD002840F3D3809148914E06F0B3
:10535000B5F907F0F9FD904907F0FEFE012262233E
:10536000B06122602B6083E405F048FD002840F323
:10537000BF808748874E06F0A1F90122622370653D
:1053800022602B6074E405F039FD002840F3B08002
:105390007F48804E06F092F907F0D6FD0122622385
:1053A000706322602B6063E410217C4805F050FD9F
:1053B0007748784D05F0ECFFD6F8B830002B12DDB9
:1053C0001821774805F044FDD5F8BC10704806F068
:1053D00033F80221734805F03BFD6D4805F0D8FF16
:1053E0006B4805F0D5FF1B216F4805F031FD96F89D
:1053F000C830012B15BF122114216C486C4805F0F0
:1054000027FD634805F0C4FF1F216A4805F020FD11
:10541000306B07F043F9022502460B4600955C48C5
:1054200006F012F82946644805F012FD584805F0C8
:10543000AFFF1E21614805F00BFDB6F9D00007F063
:1054400083FD5F4907F0D4FD07F028F900950B466E
:1054500002464F4805F0F8FF01215A4805F0F8FCD4
:105460004B4805F095FF1321574805F0F1FC4848DB
:1054700005F08EFF06232360FEF7A0BB04215348EE
:1054800005F0E6FC94E70B21514805F0E1FC8FE7BD
:105490000D21504805F0DCFC8AE70D214E4805F04F
:1054A000D7FC85E70C214D4805F0D2FC80E70D21A3
:1054B0004B4805F0CDFC7BE70C214A4805F0C8FCC1
:1054C00076E704F083FFD8220021324803F050FE33
:1054D0002868454AA0F1730001210023B0FA80F04A
:1054E000400911602360FEF70DBB2368FEF704BB83
:1054F00023682868012B7EF4FFAAFEF784BA05F022
:105500007DFC00287EF782AB2148224E06F0D6F8BB
:1055100061230122A6F8CA0022602B601846FEF71C
:1055200072BA05F06BFC00287EF770AB1848194E74
:1055300006F0C4F807F008FD2C4907F059FD612377
:105540000122706222602B601846FEF75CBA05F0FB
:1055500055FC00287EF75AAB0D480E4E06F0AEF80B
:1055600007F0F2FC61230122B06322602B60184631
:10557000FEF749BA012283F8C820FFF773B904483F
:1055800006F09CF81A4B02461860FFF75CBA00BFA1
:105590000888FF1F84D0FF1F00007A44101F0100FD
:1055A000241F0100401F0100441F0100601F010073
:1055B000741F01008C1F0100AC1F0100B01F01000F
:1055C000CDCCCC3DA8230100001E0100081F010026
:1055D000FC1E0100EC1E0100DC1E0100CC1E0100BF
:1055E000AC1E0100BC1E01002487FF1F6F12833A0E
:1055F0004487FF1F1C21704805F02AFC6F49D8F82A
:10560000940007F0F5FC07F049F8009702460B46B6
:105610006B4805F019FF05216A4805F019FC684838
:1056200005F0B6FED8F88050012D19D11D2166482D
:1056300005F00EFC6149D8F8900007F0D9FC07F09E
:105640002DF8009502460B465D4805F0FDFE05214C
:105650005C4805F0FDFB5A4805F09AFED8F88050EA
:1056600025F00203012B7EF449AF1C215748584F07
:1056700005F0EEFBB6F8C210514805F0DDFE03213F
:10568000544805F0E5FB4E4805F082FED6F8805000
:10569000012D7EF433AF1F214F4805F0D9FBD7F819
:1056A0008C0007F051FC4D4907F0A2FC06F0F6FF14
:1056B000022502460B460095414805F0C5FE2946E5
:1056C000474805F0C5FB3E4805F062FED7F880501C
:1056D000FEF714BF1E21434805F0BAFB384805F019
:1056E00057FEFEF7DFBE20213F4805F0B1FB3448EE
:1056F00005F04EFEFEF7D6BE17213C4805F0A8FB8C
:105700002F4805F045FEFEF7CDBE394B0026314649
:105710000B201E6004F006F831460C2004F002F85D
:105720003146142003F0FEFF3146152003F0FAFF46
:105730003B68FFF7ACB917212E4805F089FBD6F876
:10574000D430012B25D0022B1DD0032B27D0042BC6
:105750007EF4D7AE28491A48FCF7D6FCFEF7D1BE36
:105760002021264805F074FB95F8C9302BB924494F
:105770001348FCF7C9FCFFF708B822491048FCF7AA
:10578000C3FCFFF702B820490D48FCF7BDFCFEF74B
:10579000B8BE1E490A48FCF7B7FCFEF7B2BE1C496A
:1057A0000748FCF7B1FCFEF7ACBE094EFFF760BA44
:1057B000074EFEF786BF00BF84230100CDCCCC3D51
:1057C0000888FF1FA4230100AC230100CC230100A3
:1057D00084D0FF1FEC230100F02301006F12833AF5
:1057E00010240100C4220100E4220100082301006A
:1057F0006893FF1F1424010070240100342101006C
:105800005821010064210100442401002C240100DE
:105810005C24010010B5124C124A2368101D12F8C6
:10582000011F904241EA0323F9D10F4A236003F19B
:10583000004313600D4BD3F88030022B08D00C4B83
:105840001B68012B00D010BDBDE81040FCF746BC22
:105850001068084C07F078FB2060FDF7A1F8EEE730
:10586000CCD1FF1FC3CFFF1F6093FF1F84D0FF1F4A
:10587000D4D1FF1FC0D1FF1F70B51E4A1E4C507AF5
:10588000937A2168D27A1D4E1D4D43EA002342EAE5
:105890000323012933602B6019D01846194BD3F824
:1058A0008030A0F50000022B28601BD02368012B5C
:1058B00000D070BD144805F06BFD2968124805F052
:1058C000BBFD03211148BDE8704005F0C1BA0E4888
:1058D00005F05EFD0023102229680B4805F06CFDE1
:1058E0002868DBE707F030FB094B1860FDF758F834
:1058F000DCE700BFBCCFFF1FD4D1FF1FCCD1FF1FFF
:105900006093FF1F84D0FF1F0888FF1FB01A01009B
:10591000C0D1FF1F08B5134B187BDB7AFF2813D0CB
:1059200040B243EA0020104B104AD3F8803000EB1D
:10593000800000EB80008000022B10600BD00C4B2D
:105940001B68012B03D008BDFF2BE9D1FBE7BDE8A5
:105950000840FCF7C3BB07F0F7FA064B1860FDF7E9
:105960001FF8ECE7BCCFFF1F84D0FF1F6093FF1F21
:10597000D4D1FF1FC0D1FF1FF0B57A4D7A4C7B48C0
:1059800083B0294602F0DAFBD4F88030022B20D015
:105990002B68774CB3F5407F08D22268714975486F
:1059A000012A18BF0022FBF777FC2B68724A23F00C
:1059B00060431A44EE2A07D822686A496D48012AD2
:1059C00018BF0022FBF7F8FB2368012B4BD003B074
:1059D000F0BDD4F8D4202B68012A7BD0022A13D042
:1059E000032A1FD0042AD4D1D90064491A4648BFDB
:1059F000C3F311228A42CCD12A7A5A4C002AC8D148
:105A0000FFF788FF2368C4E740F2C132934203D016
:105A100040F2C2329342BCD1FFF72EFFD4F8D4201B
:105A20002B68DDE740F22252934200F08D8040F275
:105A30002352934273D040F221529342A9D1504E47
:105A4000D4F8804032797179F778B0784D4E01EB17
:105A5000022202EB074202EB0060022C3060424E51
:105A600075D0434CA2E7484B48481B6801930A2273
:105A70000023019905F0A0FC2A683A4B002ADB7943
:105A800046DB4349434808F007FC424808F038FC2D
:105A90000146404805F0DCF92C68324B14F0804494
:105AA00027D1DB798BB12B193B491A7A394808F099
:105AB000F3FB384808F024FC0146364805F0C8F9E5
:105AC0000134EB79E4B2A342EDD8304805F060FC34
:105AD00003B0F0BD40F2C13293422FD040F2C23247
