:1000000000800020BD010000998800005188000098
:10001000518800005188000051880000518800007C
:100020005188000051880000518800009988000024
:10003000998800005188000061A9000065AA0000AD
:10004000998800009988000099880000998800002C
:10005000998800009988000099880000998800001C
:10006000998800009988000099880000998800000C
:1000700099880000998800009988000099880000FC
:1000800099880000998800009988000099880000EC
:1000900099880000998800009988000099880000DC
:1000A00099880000998800009988000099880000CC
:1000B00099880000817D00008D7D0000917D000009
:1000C0009D7D0000A17D0000A57D000099880000B5
:1000D000998800009988000099880000998800009C
:1000E000998800009988000099880000998800008C
:1000F000998800006DB100009988000039950000D2
:1001000099880000059700009988000099880000F0
:10011000998800009988000099880000998800005B
:10012000998800009988000099880000998800004B
:10013000998800009988000099880000998800003B
:10014000998800009988000099880000998800002B
:10015000998800009988000099880000998800001B
:1001600099880000959900009988000099880000FE
:1001700099880000998800009988000099880000FB
:1001800099880000998800009988000099880000EB
:1001900099880000998800009988000099880000DB
:1001A00099880000998800009988000099880000CB
:1001B000998800009988000099880000564B4CF2FD
:1001C000205210B51A804DF628121A8000BF00BFC9
:1001D00008F066FB514B4FF010621A60504A9A606B
:1001E000504ADA60504A136813F4807304D14F49BF
:1001F0000B604FF4A85313604D4B1A78110703D5C9
:100200001A7842F008021A704A4B4B492A221A7097
:100210004A4A4B4B8B4204D252F8040F43F8040B6A
:10022000F8E7484B484900228B4202D243F8042B9E
:10023000FAE74649464A002352F8230041F82300D2
:1002400001336F2BF8D1434B434A802103F8011B44
:100250009342FBD1414B3D4A1A60414B8A221A70AE
:10026000A3F5805324225A70A0221A709A7992071B
:10027000FCD59A79D406FCD43A4A937903F00C035E
:10028000082B384BF9D103221A7140225A719A79FE
:100290009006FCD5334A9179324B4906FBD5324A58
:1002A000324911600221516020221A709A7902F0BD
:1002B0000C020C2AFAD12E4B2E4A1A602E4B2F4AD2
:1002C0001A6000225A60072243F8042C2C4AC3F813
:1002D0000C2D62B608F09AFD144B1B68DA0705D5A1
:1002E000284808F077FB284B284A1A60284B1B78CF
:1002F0005B0609D5244C254B22689A4204D121483B
:1003000008F068FB002323600CF018FA08F0CEFA1E
:100310000AF0ECFDFEE700BF0E20054030800440EF
:10032000823F04000100002B10D0034014D0034092
:1003300002D0074000E007403892FF1F142401005C
:100340002087FF1F3892FF1F08D6FF1F0082FF1F64
:100350000000000000E400E05FE400E008ED00E0E1
:100360000050064000400640448004400000030165
:1003700004800440C010050014E000E0FF76010096
:100380000000202094BD1E601CE00340A5C3945AC9
:1003900000F00740FFFFFFFFFFFFFFFFFFFFFFFF32
:1003A000FFFFFFFFFFFFFFFFFFFFFFFFFFFFFFFF5D
:1003B000FFFFFFFFFFFFFFFFFFFFFFFFFFFFFFFF4D
:1003C000FFFFFFFFFFFFFFFFFFFFFFFFFFFFFFFF3D
:1003D000FFFFFFFFFFFFFFFFFFFFFFFFFFFFFFFF2D
:1003E000FFFFFFFFFFFFFFFFFFFFFFFFFFFFFFFF1D
:1003F000FFFFFFFFFFFFFFFFFFFFFFFFFFFFFFFF0D
:10040000FFFFFFFFFFFFFFFFFFFFFFFFDEF9FFFF23
:1004100010B5054C237833B9044B13B10448AFF33E
:1004200000800123237010BD3892FF1F00000000E0
:1004300010240100084B10B51BB108490848AFF360
:1004400000800848036803B910BD074B002BFBD0A0
:10045000BDE81040184700BF000000003C92FF1F9D
:10046000102401003892FF1F00000000F0B400F1DA
:100470003006174F00243146031F00F1640243F891
:10048000044FB34241F8047F4FF0000542F8044F97
:10049000F5D100230F4A104CC0F89C5047F2305160
:1004A000C0F8A050C0F8A450C0F8A850C0F8B85088
:1004B000C0F8B040C0F8AC20C0F8B42080F8C43018
:1004C00080F8C53080F8DC30C0F8F010F0BC704720
:1004D0000000A040000048430000C8C238B5CB7BF4
:1004E000FD2B0C46054632D0087A0BF0C1FE4FF0CA
:1004F0007C510BF011FF1D490BF004FEC5F8A00064
:10050000207BEF2809D90023C5F8A430607BEF28B1
:1005100011D90023C5F8A83038BD0BF0A9FE4FF063
:100520007C510BF0F9FE11490BF0ECFDC5F8A4006D
:10053000607BEF28EDD80BF09BFE4FF07C510BF069
:10054000EBFE0A490BF0DEFDC5F8A80038BD887A3D
:10055000FD28E1D00BF08CFE4FF07C510BF0DCFE5F
:1005600003490BF0CFFDC5F8A00038BD00002C42B8
:100570000000204290F8CC00704700BF90F8C800FF
:10058000704700BF90F8D000704700BF90F8D400CB
:10059000704700BF0D2994BF50F82100002070471C
:1005A0002DE9F0410B4E8046041F00F1300754F84E
:1005B000045F314628460CF04DF830B1D8F8BC1035
:1005C00028460CF065F800B12E46BC42EFD130460B
:1005D000BDE8F081000020412DE9F041D0F8BC7069
:1005E0004FF00008041F00F1300654F8045F39464C
:1005F00028460CF04DF8084948B128460CF02AF876
:10060000414620B128460CF043F800B1A846B44258
:10061000EBD14046BDE8F0810000A0402DE9F04755
:10062000D0F8BC7082464FF00009041F00F130067C
:100630004FF0000854F8045F394628460CF028F8BB
:100640000C4950B128460CF005F830B1484629460F
:100650000BF05AFD08F101088146B442EAD1CAF80C
:10066000E08040460BF004FE014648460BF008FFD0
:10067000BDE8F0870000A040D0F8E000704700BF60
:1006800038B5D0F8D83053B9D0F8A440D0F8A0503D
:10069000214628460BF0DEFF30B1204638BD273317
:1006A00050F82340204638BD2C46204638BD00BFB8
:1006B000D0F8D8302DE9F041002B7CD1D0F8A460DF
:1006C000D0F8A0500446314628460BF01DFDD4F862
:1006D000A870394680460BF017FD7E490BF0D0FE1E
:1006E0004FF07C5104460BF0D3FF002861D04FF04F
:1006F0007C5128460BF0CCFF4FF07C51002860D194
:1007000028460BF0A7FF38B14FF07C5130460BF074
:10071000BFFF002840F0A7804FF07C5128460BF027
:10072000B7FF002860D14FF07C5128460BF0B0FF96
:10073000002840F0A1804FF07C5128460BF0A8FF24
:1007400000286CD14FF07C5128460BF083FF4FF00E
:100750007C5110B330460BF09BFF38B14FF07C5109
:1007600038460BF077FF002840F0B0804FF07C5106
:1007700030460BF06FFF002861D04FF07C513846B7
:100780000BF086FF002840F0A38038464FF07C51E4
:100790000BF060FF68B1504C10E028460BF05AFF98
:1007A0000028E3D128464FF07C510BF053FF00287E
:1007B00045D1BDE8F081273350F823402046BDE8FD
:1007C000F08130460BF064FF4FF07C5100283ED0A2
:1007D00038460BF05DFF0028F0D14FF07C512846E1
:1007E0000BF038FF002859D14FF07C5130460BF008
:1007F00031FF002840D04FF07C5138460BF048FFC5
:10080000002841D14FF07C5130460BF041FF68B1D8
:100810004FF07C5138460BF01DFF00284FD14FF0B0
:100820007C5130460BF016FF00288BD04FF07C51E6
:1008300038460BF00FFF002884D02C46BEE7304628
:100840004FF07C510BF006FF0028B2D09DE7284600
:100850000BF000FF0028C7D04FF07C5130460BF062
:1008600017FF0028C0D04FF07C5138460BF010FF26
:1008700000283FF451AF18E04FF07C5130460BF0A8
:1008800007FF0028CBD0C3E7394628460BF03CFCD5
:100890004FF07C510BF040FD04468FE74FF07C5148
:1008A00038460BF0F5FE00289ED0394630460BF056
:1008B0002BFC4FF07C510BF02FFD04467EE74046A9
:1008C0004FF07C510BF028FD044677E7344675E77E
:1008D0003C4673E7000040400000A0C2D0F8D8209A
:1008E00070B5002A34D10446FFF7E2FE4FF07C5188
:1008F0000BF0CEFE58B3D4F8A0604FF07C513046D8
:100900000BF0C6FED4F8A45038BBD4F8A8404FF082
:100910007C5128460BF0BCFE48B1294630460BF00E
:10092000B7FE20B1214628460BF094FE28BB4FF0BD
:100930007C5120460BF0ACFE48B1284621460BF016
:10094000A7FE20B1304621460BF0A2FE18B970BDBB
:10095000273250F82240204670BD304629460BF021
:1009600079FED4F8A8400028D1D0304621460BF0BB
:1009700071FE0028CBD03446EDE72C46EBE700BFF4
:100980002DE9F047814684B01546032900F27B81AA
:10099000DFE811F0FF00BE007D0004004FF0000A08
:1009A00080F8ECA0937A507A1B0103EB101000F54D
:1009B0007A700BF05DFCB6490BF0AEFCD9F8004044
:1009C000C9F830004846FFF789FFD9F8AC10054652
:1009D0000BF040FE08B1C9F8AC50D9F8D830002B64
:1009E00040F02381D9F8A060D9F8A45030462946B8
:1009F0000BF030FE002800F00C81D9F8B01028462A
:100A00000BF046FE002840F00D8109F13406C8467F
:100A100009F168050D2701E058F8044F31682046B8
:100A20000BF018FE30B1D9F8BC1020460BF026FEB2
:100A300000B13460296820460BF02AFE043695493F
:100A400020B120460BF024FE00B12C60013F05F1DF
:100A50000405E1D1BAF1000F00F0F6808E4CD9F810
:100A6000E81023680193019AD9F8F030521A9A429B
:100A700080F0F38022680292029A0B449B1A41F2A2
:100A80008732934240F20A8104B0BDE8F0874FF00C
:100A9000000A80F8ECA0937A507A1B0103EB101047
:100AA00000F57A700BF0E4FB79490BF035FCC9F8DE
:100AB00020002B7B687B1B1103EB001000F57A7084
:100AC0000BF0D6FB72490BF027FCC9F828002B7BF2
:100AD000EA7A1B0203F47063981800F57A700BF041
:100AE000C7FB6B490BF018FCC9F82400EB7BAA7B11
:100AF0001B0203F47063981800F57A700BF0B8FBD2
:100B000063490BF009FCD9F80040C9F82C0059E7FB
:100B10004FF0000A80F8ECA0937A507A1B0103EBA7
:100B2000101000F57A700BF0A3FB59490BF0F4FBA1
:100B3000C9F810002B7B687B1B1103EB001000F53C
:100B40007A700BF095FB52490BF0E6FBC9F81800E0
:100B50002B7BEA7A1B0203F47063981800F57A7015
:100B60000BF086FB4A490BF0D7FBC9F81400EB7B6E
:100B7000AA7B1B0203F47063981800F57A700BF0DF
:100B800077FB43490BF0C8FBD9F80040C9F81C00BB
:100B900018E74FF0000A80F8ECA0937A507A1B0116
:100BA00003EB101000F57A700BF062FB38490BF084
:100BB000B3FBC9F800002B7B0446687B1B1103EBD9
:100BC000001000F57A700BF053FB31490BF0A4FBD9
:100BD000C9F808002B7BEA7A1B0203F470639818AB
:100BE00000F57A700BF044FB29490BF095FBC9F82E
:100BF0000400EB7BAA7B1B0203F47063981800F5DA
:100C00007A700BF035FB22490BF086FBC9F80C001B
:100C1000D8E63146D9F8B0000BF01CFD00283FF4AF
:100C2000F4AE3546C9F8B050EFE609EB8303D9F8C6
:100C3000B010D3F89C5028460BF02AFD00283FF452
:100C4000E4AEC9F8B050E0E6134B1B680093009B7C
:100C5000C9F8E83004B0BDE8F0870020A9F104032A
:100C600009F11C0143F8040F8B424FF00002F9D147
:100C7000C9F89C20C9F8A020C9F8A420C9F8A82068
:100C800004B0BDE8F08790F8ECA004689AE600BFD5
:100C90006F12833A0000A04010D3FF1F02211348B7
:100CA00009F0F8FC124809F08BFF0621114809F001
:100CB000F1FC3B460A2299F8DC100D4809F090FF40
:100CC00019210D4809F0E6FC23680393D9F8E820C0
:100CD000D9F8F030039906481A44511A3B460A22C3
:100CE00009F07EFF024809F06BFFCDE6841C01008D
:100CF000D887FF1FD8080100E00801002DE9F8435C
:100D00000026D0F8BC80C0F89C608146041F00F12A
:100D1000300754F8045F414628460BF0B9FC0949F6
:100D200050B128460BF096FC30B1304629460BF006
:100D3000EBF90646C9F89C00BC42EAD13046BDE852
:100D4000F88300BF0000A04002299ABF283150F864
:100D500021000020704700BF3E2998BF80F8DC10BA
:100D6000704700BF90F8C400704700BF90F8C500FE
:100D7000704700BFC0F8D810704700BF80F8C4109B
:100D8000704700BFC0F8C010704700BF80F8C510A2
:100D9000704700BF30B50F4CC0F8BC1083B0204680
:100DA0000D4609F00DFF204609F00AFF28460AF01B
:100DB00009FE022502460B460095204609F058FF21
:100DC000204609F0FDFE204603B0BDE8304009F0A2
:100DD000F7BE00BFD887FF1F70B500F570550646F7
:100DE000343500F128042046F434FFF73FFBAC42D1
:100DF000F9D106F58E75012428460021FFF7BEFFC4
:100E0000214628460134FFF7A7FF3F2C05F1F405E2
:100E1000F2D143F63C4400250548064A064B3555B9
:100E2000002130617161B261F361304670BD00BF75
:100E300000007A44000048430000C8C270B500F5C5
:100E40008E74012500260DE0012620460021FFF7C3
:100E50009DFF294620460135FFF77EFF3F2D04F117
:100E6000F4040ED02046FFF77DFF0028EDD0204689
:100E7000FFF77CFF06460028E6D120463146FFF703
:100E80007DFF304670BD00BFF8B500F571570023F7
:100E900000F570563B60343600F58E7402E0F43491
:100EA000B4420DD02046FFF75DFF0028F7D0204662
:100EB0003D68FFF7E1FBF4342844B4423860F1D1D7
:100EC0003868F8BD012A70B50D4606460C7820D06A
:100ED000A4F10B03302B07D9F42000FB0460283069
:100EE000BDE87040FFF7FABA20460BF0C1F94FF0A9
:100EF0007C510BF011FA21490BF004F90BF0D2FBF5
:100F0000F42404FB006029462830BDE87040FFF758
:100F1000E5BA1B4809F054FE2146194809F0A0FE25
:100F20000321184809F0B6FBA4F10B03302B0CD8B1
:100F300020460BF09DF94FF07C510BF0EDF90F4975
:100F40000BF0E0F80BF0AEFB0446F42000FB04606D
:100F500029462830FFF7C2FA631E0D2B0CD808482B
:100F600009F02EFE2146064809F07AFE0B210648BC
:100F7000BDE8704009F08EBB70BD00BF000070413D
:100F8000D887FF1FFC080100000901000B68A3F5CA
:100F9000D8732DE9F0413E2B40D8DFE813F0D9009B
:100FA000D500D100CD00C900C500C100BD00B90009
:100FB000B500B100AD00A900A500A1009D009900F9
:100FC000950091008D008900850081007D006D00F5
:100FD0006900650061007500710079005D004100E5
:100FE0003901350131012D01290125013F00210180
:100FF0001D0119013F00150111010D013F000901FB
:10100000050101013F00FD00F900F5003F00F1007E
:10101000ED00E9003F00E500E100DD00BDE8F08102
:101020004FF000080925012A174604460E4600F035
:10103000F380F42000FB0544283420460121FFF70B
:101040009DFE20460121FFF7A1FE32464146204683
:10105000BDE8F041FFF794BC4FF003080825E2E734
:101060004FF003080725DEE74FF002080725DAE70F
:101070004FF001080725D6E74FF000080725D2E713
:101080004FF001080825CEE74FF000080825CAE711
:101090004FF002080825C6E74FF003080625C2E70F
:1010A0004FF002080625BEE74FF001080625BAE713
:1010B0004FF000080625B6E74FF003080525B2E714
:1010C0004FF002080525AEE74FF001080525AAE715
:1010D0004FF000080525A6E74FF003080425A2E716
:1010E0004FF0020804259EE74FF0010804259AE717
:1010F0004FF00008042596E74FF00308454692E7B5
:101100004FF0020803258EE74FF0010803258AE718
:101110004FF00008032586E74FF00308022582E719
:101120004FF0020845467EE74FF0010802257AE7B6
:101130004FF00008022576E74FF00308012572E71B
:101140004FF0020801256EE74FF0010845466AE7B7
:101150004FF00008012566E74FF00208102562E70E
:101160004FF0010810255EE74FF0000810255AE700
:101170004FF002080F2556E74FF001080F2552E700
:101180004FF000080F254EE74FF002080E254AE702
:101190004FF001080E2546E74FF000080E2542E704
:1011A0004FF002080D253EE74FF001080D253AE704
:1011B0004FF000080D2536E74FF002080C2532E706
:1011C0004FF001080C252EE74FF000080C252AE708
:1011D0004FF002080B2526E74FF001080B2522E708
:1011E0004FF000080B251EE74FF002080A251AE70A
:1011F0004FF001080A2516E74FF000080A2512E70C
:101200004FF0030809250EE74FF0020809250AE709
:101210004FF00108092506E7094809F0D1FC2946E5
:10122000074809F01DFD3946064809F033FA4146E2
:10123000034809F015FD024809F0C2FCF9E600BFB9
:10124000D887FF1F0C0901002DE9F043002383B06C
:101250000646036000F58E74012504E001353F2D3C
:1012600004F1F40466D02046FFF77CFD0028F5D099
:101270004E4800F0F7FC29464D4800F0F3FC2046AC
:10128000FFF73CFD0AF09EFB02460B46494800F082
:10129000E9FC2046FFF784F980462046FFF79CF9D9
:1012A000074640460AF08EFB8046384689460AF0DB
:1012B00089FB42464B46CDE900013F4800F0D2FC95
:1012C00000212046FFF740FD012180462046FFF720
:1012D0003BFD074640460AF075FB80463846894686
:1012E0000AF070FB42464B46CDE90001334800F05E
:1012F000B9FC2046FFF702FD014630680AF004FF02
:1013000030602046FFF7EAFAB1690BF0A3F9002834
:1013100033D12046FFF7B4F9F1690BF0B9F9002891
:101320009CD02046FFF7ACF901353F2DF06104F168
:10133000F40498D170680AF09BFF014630680BF006
:101340009FF87169306004460BF0A2F900B1746136
:10135000316920460BF07EF900B134610B2007F0B3
:10136000D1FC43F63C43F35C60B99BB143F63C438C
:101370000122F25403B0BDE8F0832046FFF7AEFA35
:10138000B061C6E753B943F63C430022F25403B0C0
:10139000BDE8F0830A4800F093FCE7E7094800F055
:1013A00079FC43F63C430022F254F0E7A41001001C
:1013B000100901004C090100600901008C090100BD
:1013C000A8090100E009010070B5114B836000F528
:1013D00070550646343500F58E7402E0F434AC42A4
:1013E00013D02046FFF7BEFC0028F7D02046FFF7B9
:1013F000D7F8B1680BF02EF90028EFD02046FFF7A0
:10140000CFF8F434AC42B060EBD1B06870BD00BF2F
:101410000000A04070B5002300F570550646C3607B
:10142000343500F58E7402E0F434AC4213D020461B
:10143000FFF798FC0028F7D02046FFF7CDF8F168B9
:101440000BF026F90028EFD02046FFF7C5F8F4345A
:10145000AC42F060EBD1F06870BD00BF006870472F
:1014600043F63843C0587047416070472DE9F0415A
:1014700000F57055884617461E46343500F58E74C3
:1014800002E0F434AC4213D02046FFF76BFC002896
:10149000F7D020464146FFF76DFC20463946FFF75E
:1014A00079FC20463146F434FFF76CFCAC42EBD1BA
:1014B000BDE8F0812DE9F84343F6384300F5705557
:1014C0000027C7502E462A4A2A4B426280464FF0D8
:1014D000000903623435383600F58E7402E0F434C6
:1014E000A54213D02046FFF73DFC0028F7D0336813
:1014F000013333602046FFF7DBF81F490BF0C8F8D3
:1015000088B9F434A54207F10107EBD143F638431B
:1015100058F80300C01B0AF0ABFE014648460AF02B
:10152000AFFFBDE8F8832046FFF7C2F80146484602
:101530000AF0EAFD81462046FFF7A2F8D8F820100D
:101540000BF0A6F870B92046FFF7C8F9D8F82410B8
:101550000BF080F80028C2D02046FFF7BFF9C8F88A
:101560002400BCE72046FFF78BF8C8F82000EAE724
:1015700000C0794400C079C400008CC2006A704782
:10158000406A7047F8B500F57055074600263435B7
:1015900000F58E7402E0F434AC420FD02046FFF721
:1015A000E1FB0028F7D02046FFF738F80146304627
:1015B0000AF0AAFDF434AC420646EFD143F63843B4
:1015C000F8580AF055FE014630460AF059FFF8BDBA
:1015D0002DE9F04F06468FB083488B4600F0EAFABB
:1015E000814800F0E7FA804800F0E4FA43F6384317
:1015F0003046F2580D92FFF747FC73680C9307468C
:1016000030680AF0DFF9804630468946FFF7BAFFB6
:1016100082463046B468F568FFF74CFF0AF0D2F90D
:10162000CDE90A01214628460AF06CFD6F490AF00F
:1016300073FE0AF0C7F9CDE9080128460AF0C2F99D
:10164000CDE9060120460AF0BDF9CDE90401504676
:101650000AF0B8F90D9A0C9BCDE90201CDE9008999
:10166000114663483A4600F0A5FA5F4800F0A2FA36
:1016700006F58E764FF001094FF0000A07E009F1F8
:101680000109B9F13F0F06F1F40600F0A5803046DC
:10169000FFF768FB0028F2D03046FEF76BFF3046BC
:1016A000FEF76CFF3046FEF76DFF3046FEF76EFF2B
:1016B0000821504808F0EEFF49464F4809F0D0FA9B
:1016C000B9F1090F40F38B8002214C4808F0E2FF8A
:1016D0003046FFF713FB0AF075F95FFA8BF8024604
:1016E0000B46CDF80080444809F0C2FA0121444875
:1016F00008F0D0FF5546002420E00621414808F0BC
:10170000C9FF29463C4809F0ABFA02213E4808F0DF
:10171000C1FF21463046FEF73DFF0AF053F9CDF8F0
:10172000008002460B46344809F0A2FA0134012138
:10173000334808F0AFFF0D2C09D03D46092D05F1C7
:101740000107DADC0121314808F0A4FFD5E72A4877
:1017500009F036FA09212E4808F09CFF0021304696
:10176000FFF7F2FA0AF02EF9022402460B46009423
:10177000214809F07DFA0A21264808F08BFF012153
:101780003046FFF7E1FA0AF01DF9009402460B46D5
:10179000194809F06DFA0A211F4808F07BFF21461D
:1017A0003046FFF7D1FA0AF00DF9009402460B46D5
:1017B000114809F05DFA0121184808F06BFF09F1A2
:1017C00001090D4809F0FCF9B9F13F0F0AF10D0AC2
:1017D00006F1F4067FF45BAF0FB0BDE8F08F012196
:1017E0000A4808F057FF6FE7A410010000007A4490
:1017F000900C0100300D0100D887FF1F841C0100F0
:101800003C0D0100400D0100200F0100300F0100D0
:10181000480D0100540D0100600D01006C0D010028
:101820002DE9F04F85B000F58E758A4603929B46F0
:101830002E464FF0010806E008F10108B8F13F0F0D
:1018400006F1F4067BD03046FFF78CFA0028F3D07F
:1018500000230A2251467E4809F0C2F901217D4841
:1018600008F018FF03980AF0ADF800230246009331
:1018700077480B4609F0FCF90121764808F00AFF89
:101880005946734809F0ECF90121724808F002FF4B
:1018900041466F4809F0E4F901216E4808F0FAFE6C
:1018A00000244FF0020921463046FEF773FE0AF08D
:1018B00089F8CDF8009002460B46654809F0D8F942
:1018C00001340121634808F0E5FE082C4FF00207BF
:1018D000E9D100213046FFF737FA0AF073F8009794
:1018E00002460B465A4809F0C3F90121594808F04D
:1018F000D1FE01213046FFF727FA0AF063F800977E
:1019000002460B46524809F0B3F90121514808F04C
:10191000C1FE39463046FFF717FA0AF053F8009730
:1019200002460B464A4809F0A3F908F10108484865
:1019300009F046F9B8F13F0F06F1F40683D14FF0F4
:1019400001084FF0000906E008F10108B8F13F0F67
:1019500005F1F40579D02846FFF704FA0028F3D002
:1019600000230A2251463C4809F03AF9012139483E
:1019700007F0DEFC03980AF025F8CDF80090024647
:101980000B46354809F074F90121324807F0D0FCC4
:101990005946314809F064F901212E4807F0C8FC86
:1019A00041462D4809F05CF901212A4807F0C0FCA6
:1019B0000024022721462846FEF7ECFD0AF002F833
:1019C000009702460B46244809F052F901340121E0
:1019D000204807F0ADFC0D2C4FF00206EAD10021A3
:1019E0002846FFF7B1F909F0EDFF009602460B46D5
:1019F000194809F03DF90121164807F099FC012129
:101A00002846FFF7A1F909F0DDFF009602460B46D4
:101A1000114809F02DF901210E4807F089FC3146E3
:101A20002846FFF791F909F0CDFF009602460B46D4
:101A3000094809F01DF908F10108074809F0C0F844
:101A4000B8F13F0F05F1F40585D105B0BDE8F08F81
:101A5000D887FF1F0C090100C887FF1F014B1870B2
:101A6000704700BF2087FF1F0278002A00F0908097
:101A700070B5034682B00D46252A2AD158785C1CE1
:101A800008B325282FD0732831D0642824D06928A2
:101A900022D066284FD07A2859D0782835D05828B7
:101AA0002FD062283ED0422838D06C2814D063282A
:101AB00012D0742857D054285FD008F06FFE627897
:101AC000631C002AD8D1344802B0BDE8704009F048
:101AD00077B818781C46F0E72B1D29682E481D465C
:101AE00009F0BEF8EBE7104608F058FEE7E72E686D
:101AF00030460BF005FC01463046043508F0CAFDBF
:101B0000DDE70221254808F0C5FD2E1D2968224881
:101B100000231022354609F063F8D0E7022120485F
:101B200008F0B8FD2E1D29681B4800230222354607
:101B300009F056F8C3E7073525F007050321D5E975
:101B4000002315480091083509F092F8B7E70735EA
:101B500025F007050021D5E900230F48009108353D
:101B600009F086F8ABE7296801290EBF0D480E4839
:101B70000121043508F08EFDA1E72B68012B07BF7A
:101B800004210A480A480521043508F083FD96E738
:101B9000014809F015B800BFD887FF1F700D01007C
:101BA000740D0100780D01007C0D0100800D010015
:101BB000880D01000FB400B583B004A951F8040BDF
:101BC0000191FFF751FF03B05DF804EB04B07047DB
:101BD00070B51B4B1B4C1B6882B00D460193019BDB
:101BE0002360194604460023164617480A2208F0C7
:101BF000F7FF0321154808F04DFD032C07D8DFE857
:101C000004F01A1510020521114808F043FD0221C5
:101C1000104808F03FFD31462846FFF725FF02B087
:101C200070BD07210C4808F035FDF0E704210B4892
:101C300008F030FDEBE70521094808F02BFDE6E749
:101C400010D3FF1F5492FF1FD887FF1F900D010074
:101C5000AC0D0100200F0100A40D01009C0D01003E
:101C6000940D01000FB400B5094B187883B020B172
:101C700003B05DF804EB04B0704705AB1A46049955
:101C80000193FFF7A5FF03B05DF804EB04B07047C4
:101C90002087FF1F0FB4094B00B51B78012B83B0C1
:101CA00004D903B05DF804EB04B0704705AB1A46E5
:101CB000049901930120FFF78BFFF2E72087FF1FB4
:101CC0000FB40B4B00B51B78032B83B004D903B0C2
:101CD0005DF804EB04B0704705AB1A460499019314
:101CE0000320FFF775FF03B05DF804EB04B0704705
:101CF0002087FF1F30B4074D074C084900232B7085
:101D0000236003654365836580F85C300B6030BCFD
:101D1000704700BF6092FF1F5C92FF1F5892FF1F29
:101D20000A4A0B49D06D936D03FB00F34FF47A70B0
:101D300000FB03F0642310B50B600AF099FA054923
:101D4000054C0AF09DFB206010BD00BF4C93FF1FA7
:101D50003487FF1FE4388E3E1893FF1F38B50446C2
:101D600008460D460BF0CCFA2368024629465B680C
:101D7000204698470546204608F022FF284438BDF3
:101D80002DE9F8434748484D484F494CFFF712FFAB
:101D9000484BDFF84CE14849484A49485D60122603
:101DA000484D1E70DF600026474F1C61C3F818E0E5
:101DB000464C59614FF00C0E45495A629862454AAB
:101DC0004548DD621E63454D5F6340F61C460A27A9
:101DD0009C63C3F854E041F20404DFF808E199641D
:101DE000DA64022101221862C3F8C45000204FF0C7
:101DF0007C55DE661F6764264FF496775C67C3F8F0
:101E00001CE03224C3F83CE04FF05A0E597059726E
:101E10001A729A6583F840009F661F665C665D646F
:101E2000DE654FF47A78C3F878E0DFF8BCC0D86795
:101E3000C3F88010C3F88400C3F89C40C3F8AC40DA
:101E4000DFF8A8E0C3F8A80044F62069C3F8B4207E
:101E5000C3F8B810FF2741F28831052483F8C82061
:101E60004FF4FA7083F8C92040F2D662C3F8BC6020
:101E70001D65C3F8A080C3F890C0C3F894E0C3F810
:101E80008C90C3F8B070A3F8C240A3F8CA00C3F89E
:101E90009810A3F8C010A3F88820A3F88A20BDE802
:101EA000F88300BFB40D010020A1070066668640DC
:101EB000000040404C93FF1F33338340CDCCCC3DDA
:101EC00000008242000020C1000020420000A0402B
:101ED0009A9979400AD7233D333373409A99993EB2
:101EE000CDCC4C40CDCC4C3E0000684200C02044DC
:101EF000F0B54FF47A6087B006F03AFF00210F206A
:101F000006F00EFF00210E2006F00AFF002111202E
:101F100006F006FF0021102006F002FF002112202B
:101F200006F0FEFE0021132006F0FAFE01210B2030
:101F300006F0F6FE00210B2006F0DEFE01210C204B
:101F400006F0EEFE00210C2006F0D6FE0121142042
:101F500006F0E6FE0021142006F0CEFE0121152039
:101F600006F0DEFE0021152006F0C6FE0121162037
:101F700006F0D6FE0021162006F0BEFE0121172035
:101F800006F0CEFE0021172006F0B6FE0121052046
:101F900006F0C6FE0021052006F0AEFE0121062057
:101FA00006F0BEFE934C944D0021062006F0A4FEE0
:101FB00001210D2006F0B4FE20880AF055F90146F3
:101FC000162006F017FE20880AF04EF90146172069
:101FD00006F010FE20880AF047F90146052006F0B9
:101FE00009FE20880AF040F900240146062006F088
:101FF00001FE00942346814A8149824805F068FB2E
:102000002B797D497F486FF30003E2B201342B71D5
:1020100005F024FB082CF3D109242B797649794863
:1020200043F00103E2B201342B7105F017FB0D2CD4
:10203000F3D1754D2B681021D3F8840006F01AF8FF
:102040002B681021D3F8840006F0A8F82B68022131
:10205000D3F8840005F064FF2B680221D3F88400D4
:1020600006F0ECF82B680F21D3F8840006F0D4F9C1
:102070000C21664808F00EFB654808F0A1FD2146DA
:10208000644808F007FB624808F09AFD40F283605C
:1020900006F02CFF5E4808F093FD17215E4808F01B
:1020A000F9FA5B4808F08CFD5C4B1B789A0600F14E
:1020B000D9805A4B1B781B0700F1E080574B1B78E7
:1020C0005F0700F1E780554B1B789E0700F1EE801B
:1020D000534B1B781D0600F1F580514B1B785C06B5
:1020E00000F1FC804E4B1B78980600F103814C4BAD
:1020F0001B78590700F10A81494B1B781A0700F138
:102100001181474B1B789B0700F11881404808F06C
:1021100057FD72B6434A4CF220534DF62811202445
:10212000138023461180013BFDD13F4D3F4840497C
:1021300000234FF480562E8003800B8032F80E3C33
:102140009BB243F0D30322F80E3C62B640F241301A
:1021500007F078FA21463748374D08F09BFA2C48AB
:1021600008F02EFD05F1D4062F462C46601B06F024
:10217000DDFA04F8010BB442F8D13B78122B04D0FD
:10218000234808F01DFDFFF7FBFD0420FFF766FC68
:102190002A4B2B4D002201210D201A6006F0ACFDC8
:1021A000B96D2848FFF760F93B6D7A6C97F84010DD
:1021B0002448FFF75BF92448244B02680592059FE9
:1021C000046804941B682249224A049E224C006839
:1021D00003901268276081FB0301DB171F48039CF3
:1021E0002E60A3EB21131E49046013FB02F30B8046
:1021F00007B0F0BD2887FF1F3094FF1F04D3FF1FD7
:1022000020A1070068D1FF1FEC94FF1FD40D01002F
:10221000D887FF1FE40D0100F40D010001F0074015
:1022200000F007400E200540042005400620054030
:1022300016200540F80E01004C93FF1F7492FF1FFB
:102240003894FF1F2495FF1F10D3FF1F6487FF1FC3
:102250001F85EB516087FF1F2095FF1FFC94FF1F18
:102260008092FF1F2121394808F014FA384808F0FD
:10227000A7FC384B1B781B077FF520AF0C21364895
:1022800008F008FA324808F09BFC324B1B785F07D5
:102290007FF519AF0E21314808F0FCF92C4808F001
:1022A0008FFC2C4B1B789E077FF512AF17212C4813
:1022B00008F0F0F9264808F083FC2A4B1B781D062D
:1022C0007FF50BAF0E21284808F0E4F9204808F00C
:1022D00077FC244B1B785C067FF504AF1221234862
:1022E00008F0D8F91A4808F06BFC1E4B1B789806CA
:1022F0007FF5FDAE13211E4808F0CCF9144808F014
:102300005FFC184B1B7859077FF5F6AE1C21194866
:1023100008F0C0F90E4808F053FC124B1B781A075E
:102320007FF5EFAE1921144808F0B4F9084808F019
:1023300047FC0C4B1B789B077FF5E8AE18210F4834
:1023400008F0A8F9024808F03BFCDFE60C0E01009B
:10235000D887FF1F01F00740300E0100400E01003A
:10236000500E010000F00740680E0100780E0100D9
:102370008C0E0100A00E0100C00E0100DC0E010059
:1023800070B5464C464D4748E66800232B70FFF772
:1023900041F8014630460AF05DF908B104232B707C
:1023A0004048FFF711F821690AF054F918B12B7869
:1023B00043F010032B703B48FFF7E0F8A16A0AF0E6
:1023C00067F918B12B7843F040032B700023354890
:1023D0006B70FFF7D5F8E16A314E0AF03BF908B1AE
:1023E0000123737000232F48EB70FFF713F80546A5
:1023F0002C482B4EFEF7E8FF0146284609F082FEE6
:10240000E16B0AF045F908B10123F370264D254828
:1024100000232B70FEF7FEFF616A0646E06809F0B4
:1024200071FE014630460AF033F908B104232B70DF
:102430001C48FEF7C9FF616A0646206909F064FE80
:10244000014630460AF006F918B12B7843F0100324
:102450002B701448FFF792F8A16B0646A06A09F0AA
:1024600051FE014630460AF013F918B12B7843F0BB
:1024700040032B7000230B486B70FFF781F8A16BB2
:102480000546E06A084C09F03FFE014628460AF07E
:10249000E1F808B10123637070BD00BF4C93FF1FCA
:1024A0004893FF1F2495FF1FE094FF1F2DE9F04183
:1024B0007C4C2368012B82B031D0022B00F0A88025
:1024C000032B00F0C8803BBB774B784AD3F8AC10A5
:1024D000D3F8B03012685B1A632B0EDD744803FB2F
:1024E00002F380FB0302DB17C3EB621319440620DF
:1024F00002B0BDE8F04106F07FBA6E4803FB02234C
:1025000080FB0302DB17C3EB22121144062002B04A
:10251000BDE8F04106F070BA02B0BDE8F081664E49
:1025200033680A33B3F57A7F00F3B7801846336017
:1025300009F09EFE614909F0EFFE80465A4DD5F83C
:10254000AC0009F095FE0746D5F8B00009F090FE02
:10255000394609F0D7FD414609F0DEFE584909F039
:102560008FFF394609F0D0FD0AF09CF8014606209D
:1025700006F042FA0221534808F08CF8524808F05D
:102580001FFB0621514808F085F8306809F070FEFD
:102590004A4909F0C1FE09F015FA022702460B4626
:1025A0000097494808F064FB0D21494808F072F88B
:1025B000D5F8AC0009F05CFE8046306809F058FEA2
:1025C0003E4909F0A9FE0646D5F8B00009F050FED4
:1025D000414609F097FD0146304609F09DFE384915
:1025E00009F04EFF414609F08FFD09F0EBF9009725
:1025F0000B460246344808F03BFB3946314808F0A8
:1026000049F8314808F0DCFA2368022B7FF458AF10
:10261000294B254E00221A60D6F8AC0009F028FE9E
:102620000546D6F8B00009F023FE294609F06AFDF8
:10263000002109F071FE224909F022FF294609F024
:1026400063FD0AF02FF80146062006F0D5F923684D
:10265000032B7FF438AF184B134E4FF47A721A6085
:10266000D6F8AC0009F004FE0546D6F8B00009F033
:10267000FFFD294609F046FD114909F04DFE1049BC
:1026800009F0FEFE294609F03FFD0AF00BF801466D
:10269000062006F0B1F9236815E700234FF0000883
:1026A00033604BE7C094FF1F4C93FF1F3487FF1F1D
:1026B0001F85EB51CBF08D287892FF1FCDCCCC3D00
:1026C0000000C842841C0100D887FF1F1C0F0100B6
:1026D000240F010070B5B548B54C08F071FAB34845
:1026E00008F06EFAB14808F06BFA0D21B14807F016
:1026F000D1FFD4F8A830012B00F0B180AE4CAB482C
:10270000217800230A2208F06BFA2378052B0BD8D6
:10271000DFE813F0F100F600FB0000010501060000
:102720000721A64807F0B6FF0221A54807F0B2FF2F
:10273000122006F0E7FA012800F02081112006F0AF
:10274000E1FA012800F024819E4B1B68012B00F068
:10275000288102219A489C4C07F09CFF9B4B934890
:10276000196808F07DFA914808F02AFA042198487F
:1027700007F090FF0B2006F0C5FA002301460A225D
:102780008A4808F02DFA0C2006F0BCFA0023014616
:102790000A22864808F024FA142006F0B3FA00232F
:1027A00001460A22814808F01BFA152006F0AAFA11
:1027B0000A22002301467D4808F012FA06218548C6
:1027C00007F068FF2368DD074FF001014CBF824826
:1027D000824807F05FFF236898074FF001014CBF64
:1027E0007D487E4807F056FF23685A074FF00101E5
:1027F0004CBF7948794807F04DFF23681B074CBF51
:1028000075487648012107F045FF0421744807F018
:1028100041FF112006F076FA002301460A226348A0
:1028200008F0DEF9102006F06DFA002301460A22B6
:102830005E4808F0D5F9122006F064FA002301463C
:102840000A225A4808F0CCF9132006F05BFA00235C
:1028500001460A225548BDE8704008F0C1B9092177
:10286000604807F017FF6048FEF7AEFD216909F0E8
:10287000F1FE002862D15C48FEF7CCFDE16809F06A
:1028800007FF002864D15848FEF7C4FD05465648A6
:10289000FEF79AFD0146284609F034FCE16B09F089
:1028A000F7FE00284FD15048FEF704FEA16A09F058
:1028B000EFFE00283DD14C48FEF7FCFDE16A09F02F
:1028C000C9FE002830D1494B47481B68012B00F056
:1028D000AF80FEF779FD2169354D09F0D9FE00285A
:1028E0003BD10721424807F0D5FE424B2F481968DB
:1028F00008F0B6F918E706213F4807F0CBFE13E7CA
:1029000007213E4807F0C6FE0EE707213C4807F0C6
:10291000C1FE09E708213B4807F0BCFE04E70B2194
:10292000394807F0B7FEFFE60D21384807F0B2FE40
:10293000C9E70C21364807F0ADFEBCE70F2135484A
:1029400007F0A8FE97E71121334807F0A3FEAAE796
:102950000E21324807F09EFE95E72348FEF75AFD08
:10296000E96809F077FE0028BBD0134B1B78052BD4
:102970006ED008212A4807F08DFEB2E70E212948C3
:1029800007F088FE112006F0BDF901287FF4DCAEC7
:102990000A21254807F07EFE0A4B1B68012B7FF4B5
:1029A000D8AE1121214807F075FED2E6D887FF1F67
:1029B0004C93FF1F340F0100DC94FF1F0C1001002B
:1029C000841C0100F494FF1F2094FF1FC494FF1F78
:1029D000441001004C10010054100100701E010051
:1029E00058100100440F01002495FF1F0493FF1F9E
:1029F000D40F0100F894FF1FDC0F0100E40F010069
:102A0000F80F010000100100EC0F0100940F01000D
:102A1000840F0100500F0100700F0100600F0100D2
:102A2000C80F010014100100241001003010010033
:102A3000FEF7CAFC216A09F02BFE002899D0162166
:102A4000064807F027FE0A21054807F023FE48E75D
:102A50000A21034807F01EFE43E700BFA40F010050
:102A6000BC0F01002DE9F04FAB4CD4F88060012E73
:102A70008DB000F07981032E00F0CC80DFF8DC828D
:102A8000A64FA74EE36FA748012B09BF31683168F5
:102A900001F10041316005F03BFD3B68002B40F047
:102AA0009F80A048DFF8B49205F008FD3B68C8F8A5
:102AB00000000546002B44D1D4F88030964A012B03
:102AC00053D09949284609F0E3FDC0B997492846F3
:102AD00009F0C0FD98B9964A964B12680B920B9A72
:102AE0001A60D4F8B40009F0C3FB294609F014FCBD
:102AF0000023C8F8000033600DB0BDE8F08FDFF8A8
:102B000030A28C4FDAF800300A930A983B68DFF85D
:102B10005092C01A09F0A8FB294609F0FDFB86492E
:102B200009F0AEFC844909F0ABFCD9F8001009F0BB
:102B3000EBFADAF800300993099BC9F800003B6012
:102B4000CFE708F03FFF022502460B4600957B4881
:102B500008F08EF804217A4807F09CFDD4F8803004
:102B6000D9F800506C4A012BABD1764B1B68012B76
:102B700000F0DA81022BB4D1D2F88C70384609F01B
:102B800077FB294609F066FD40B9784209F070FBF1
:102B9000294609F07DFD002800F0F981DFF890A1B9
:102BA000644FDAF80030079307983B68DFF8B0917C
:102BB000C01A09F059FB294609F0AEFB5E4909F03D
:102BC0005FFC5D4909F05CFCD9F8001009F09CFA43
:102BD000DAF800300693069BC9F800003B6080E7F6
:102BE000504805F06BFC08F0EDFE022502460B464E
:102BF0000095524808F03CF80321534807F04AFD7D
:102C0000D4F88C104D4808F02BF803214E4807F0FB
:102C100041FD46E74D4D4B4F2B68DFF84081D3F81F
:102C200084000F2101233B6005F0F6FB3B683B4F1E
:102C3000012B3B6800F0BF80002B40F03D812B68EA
:102C4000DFF82091D3F88400436B19698EB2C9F87C
:102C5000006005F063F9B4F88A2040F6E44303FB12
:102C600006F1B1FBF0F0801A00B209F001FB38491F
:102C70002B4E8246D4F8900009F04EFB0146504698
:102C800009F0FEFBD9F800303060632BDFF8D4A0E8
:102C900000F30681002333603B68002B3FF4F2AE63
:102CA00002212C4807F0F6FC2B68D9F80050D3F825
:102CB000840040F6E44303FB05F505F02FF9B5FB6E
:102CC000F0F009F0D1FA0546B4F88A0009F0D0FA1C
:102CD0000146284609F016FA08F074FE022502465D
:102CE0000B460095154807F0C3FF2946194807F021
:102CF000D1FC306808F066FE009502460B460F488E
:102D000007F0B6FF2946144807F0C4FC29461148CD
:102D100007F0C0FCB6E600BF4C93FF1F1895FF1FDD
:102D20002093FF1F2493FF1F0000FA430000FAC303
:102D300010D3FF1F6492FF1F00007A44D887FF1F43
:102D4000A01001005487FF1FFC080100EC94FF1F36
:102D5000ACC52737841C01009C1001000C93FF1F99
:102D60001893FF1F4493FF1FDFF80883D4F88C707B
:102D7000D8F80050384609F07BFA294609F088FC5B
:102D800048B1784209F074FA0146284609F080FCFF
:102D9000002840F00381A54DA54F2A680223D2F8F0
:102DA00084003B600E2105F037FB3B68A14F012BEF
:102DB0003B687FF441AF002B40F0FA802B68DFF8CE
:102DC000B892D3F88400436B19691FFA81FBC9F8E4
:102DD00000B005F0A3F8B4F88830974E40F6E44A06
:102DE0000AFB0BFBBBFBF0F0C01A00B209F040FA83
:102DF00092498346D4F8940009F08EFA0146584669
:102E000009F03EFB2A68D9F800303060D2F884001F
:102E10000AFB03FA05F082F8B4F88830BAFBF0F048
:102E20000FFA80FAC3EB0A03002BB4F8C220B8BF34
:102E30005B429342BCBF002333603B68002B3FF4EE
:102E400021AE02217E4807F025FC2B68D9F80050FE
:102E5000D3F8840040F6E44303FB05F505F05EF883
:102E6000B4F88810B5FBF0F000B2411A754807F0CD
:102E7000F7FE0221724807F00DFC306808F0A2FD51
:102E8000022502460B4600956E4807F0F1FE03212D
:102E90006D4807F0FFFB2946694807F0FBFBF1E5A9
:102EA0002B68D3F8840005F039F8DAF8003064387C
:102EB0009842FFF4EFAEEFE66248DFF8BC91DFF82E
:102EC0006CA107F07DFE0C21604807F0E3FB0C21AC
:102ED0005F4807F0DFFB2A683B68D2F88400426B4A
:102EE00011698EB2C9F80060002B3FF4B2AE05F054
:102EF00015F840F6E44100230A2201FB06F1B1FB7C
:102F0000F0F1504807F06CFE02214D4807F0C2FB7B
:102F1000B4F88A104B4807F0A3FEDAF80030D9F86D
:102F20000060D3F8840094E64A49284609F0B0FBD3
:102F300058B94949284609F08DFB30B9474A484BF2
:102F400012680592059A1A60CBE5DFF810A1444F8C
:102F5000DAF80030049304983B68DFF82091C01A37
:102F600009F082F9294609F0D7F93E4909F088FAB3
:102F70003C4909F085FAD9F8001009F0C5F8DAF8EB
:102F800000300393039BC9F800003B60A9E5334A76
:102F9000334B12680892089A1A60A2E5234D244F19
:102FA00028683E604FF0FF320F2104F031FF3DE60C
:102FB0002448DFF8C4901D4E07F002FED4F880309C
:102FC000012B4FF00B010CBF2748284807F062FB8C
:102FD0000C211F4807F05EFB2A683B68D2F884008A
:102FE000426B11691FFA81FBC9F800B0002B3FF456
:102FF000F0AE04F093FF40F6E44100230A2201FB07
:103000000BF1B1FBF0F10F4807F0EAFD0121184880
:1030100007F040FBB4F888100A4807F021FE336837
:10302000D9F800B0D3F88400D3E600BFEC94FF1FBA
:103030005487FF1F1895FF1F2093FF1FACC527372C
:10304000841C0100D887FF1F881001008C1001002C
:10305000781001000000FA430000FAC310D3FF1FEC
:103060006492FF1F00007A44601001006C100100A0
:10307000300F01000C93FF1F4493FF1F1893FF1F95
:103080002DE9F0478D4D2B6884B043B98C4B1B68FC
:103090000393039A42F210739A4200F2B880894C6B
:1030A000894F8A4EDFF86882D4F88420854B012A44
:1030B00004D0D3F88020002A40F096808448FEF7A0
:1030C00061FA8449D4F86C90256F09F025F909F06C
:1030D0000FFB626FA36FC9EB02025B1B80B29A42C7
:1030E000C9EB0000D4F85C90C6BF03FB00000132BE
:1030F000584390FBF2F02844A56D00FB09F005FB56
:1031000000F000EB8000400009F0B2F8724909F0CD
:10311000B7F98246306005FB09F54FF47A7000FB81
:1031200005F009F0A5F86C49DFF89C91054650467A
:1031300009F0F2F8294609F0A3F9684909F0ECF81A
:1031400009F0B0FA6328386048DD2846624909F082
:1031500097F964233060C9F80030D8F80030002BAC
:1031600039D0D4F88030574D012B43D0032B00F0D9
:103170009780022B00F08F800221594807F08AFACD
:10318000584B186808F01EFC022402460B460094B7
:10319000554807F06DFD2146544807F07BFA21465B
:1031A0004F4807F077FA39684F4807F059FD062174
:1031B0004F4807F06FFA3068474909F0ADF808F05A
:1031C00001FC009402460B46474807F051FD0321DD
:1031D000484807F05FFA04B0BDE8F0870028BCBF9C
:1031E0000023C9F80030B8E7D6F800A0D3F85C9007
:1031F0009D6D90E7404B1B68012B4FF00A010CBFFF
:103200003E483F4807F046FAD5F88030AEE73048F0
:103210002C4CFEF7B7F92F49E76E266F09F07CF8C2
:1032200009F066FA626FA36FD21B9B1B80B29A42B1
:10323000A0EB07003BDD03FB0000531C90FBF3F306
:103240001E44E06DA36D204FDFF8C4803E6000FB9C
:1032500006F003FB00F000EB8000400009F008F8E6
:103260001D491A4E09F00CF9D8F8003030600122DF
:103270002A60002B3FF418AF0221194807F00AFA20
:10328000194807F09DFC59211E4807F003FA16481B
:1032900007F096FC08E707211B4807F0FBF96BE7EE
:1032A00010211A4807F0F6F9D4F8803061E703FBE3
:1032B00000F393FBF2F31E44C3E700BF7C92FF1FB1
:1032C00010D3FF1F4C93FF1F3487FF1F1893FF1F5E
:1032D0002495FF1F00007A44E4388E3E0000C84267
:1032E000841C01000C93FF1FD887FF1F9C10010056
:1032F00038110100401101005487FF1F0411010023
:1033000010110100A8100100301101001C11010072
:103310003C87FF1F30B5112083B005F0F3FC012876
:1033200018D0122005F0EEFC012813D000210B204C
:1033300005F0E2FC00210C2005F0DEFC0021152048
:1033400005F0DAFC2649274B0120002208701A609C
:1033500003B030BD0121152005F0CEFC224A234CDC
:10336000234B1268D4F8981001921B68019A1D4DE6
:103370000B4493424FF00201296005D901210C2032
:1033800005F0BAFC03B030BDD4F8A00008F070FF1F
:10339000184B196809F05EF90028EFD101210B20C4
:1033A00005F0AAFC94F8C83003242C6043B10C4B00
:1033B00002221A7000210C2005F09EFC03B030BDE3
:1033C000122005F09FFC012808BF054B4FF01100AB
:1033D00008BF1C7005F096FC0128EBD1E7E700BFA1
:1033E000DC94FF1F1495FF1F10D3FF1F4C93FF1F8A
:1033F0002095FF1F0C93FF1FF0B5684E684D346891
:103400002B689C4287B039D014F0010155D014F0DC
:10341000020149D014F004013DD0E3070ED52B681A
:10342000DF070BD45F4F3A68002A00F082805E4BC2
:103430001B680193019B93426DD83468A0070DD59A
:103440002B6899070AD4594F3A68002A4CD0564B3A
:103450001B680393039B934238D8346862070DD5E9
:103460002B685B070BD4524F3A68002A7ED04E4B34
:103470001B680593059B934268D834680CB107B06C
:10348000F0BD2146162005F0B7FA2146172005F0B9
:10349000B3FA07B0F0BD052005F0AEFA2B6834682A
:1034A00003F0FB032B60B8E7172005F0A5FA2B68A3
:1034B000346803F0FD032B60ACE7162005F09CFA9E
:1034C0002B68346803F0FE032B60A0E7394B17200C
:1034D000D3F89C1005F090FA2B68346843F002038F
:1034E00000222B603A60B9E7334807F069FB0C21F2
:1034F000324807F0CFF8304807F062FBFF21172071
:1035000005F07AFA284B2E4A19680291029912683E
:103510000A443A609CE7274B1620D3F89C1005F02C
:103520006BFA2B68346843F0010300222B603A6089
:1035300084E7FF21162005F05FFA1B4B204A19682B
:103540000091009912680A443A6071E7194B05200E
:10355000D3F89C1005F050FA2B68346843F004034C
:1035600000222B603A60002C89D18AE7124807F0CC
:1035700027FB0C21134807F08DF80F4807F020FBBC
:10358000FF21052005F038FA074B0D4A1968049110
:10359000049912680A443A606AE700BF1495FF1F55
:1035A0002094FF1FA094FF1F10D3FF1FA494FF1FA0
:1035B000A894FF1F4C93FF1FD887FF1F44110100E1
:1035C0007487FF1F541101002DE9F047534EDFF8B7
:1035D00070813368DFF86C91D3F88400504D0F216F
:1035E00004F01AFF0023012222214E48C8F80030BF
:1035F000C9F8002007F04EF8D8F80030132B20DC73
:1036000040F6E4473368B5F888A0D3F88400436BEC
:103610001C6904F083FCA4B2012107FB04F4B4FB91
:10362000F0F441485444A5F8884007F033F864208A
:1036300005F09EFBD8F800300133132BC8F800309A
:10364000E0DDB5F88830394A3948A2FB03129B1AED
:1036500002EB5303C3F30F131946A5F8883007F0A4
:10366000FFFA1D21334807F015F80221324807F010
:1036700011F82F4807F0A4FA32680023D2F884002A
:10368000C8F800300E2104F0C7FE0223222125488D
:10369000C9F8003006F0FEFFD8F80030132B20DC0C
:1036A00040F6E4473368B5F88A90D3F88400436B5A
:1036B0001C6904F033FCA4B2012107FB04F4B4FB41
:1036C000F0F419484C44A5F88A4006F0E3FF642062
:1036D00005F04EFBD8F800300133132BC8F800304A
:1036E000E0DDB5F88A30114A1148A2FB03129B1A9B
:1036F00002EB5303C3F30F131946A5F88A3007F002
:10370000AFFA1D210D4806F0C5FF02210A4806F058
:10371000C1FF0748BDE8F04707F052BAEC94FF1F1D
:103720004C93FF1F64110100A811010087611886E6
:10373000D887FF1F88110100841C0100AC11010013
:10374000C894FF1F5487FF1FF8B5BD4BBD4CBE4F3B
:103750001B68786D40F2513108222160E271002B24
:1037600000F0698108F084FD396A054608F0D4FD4F
:10377000B64908F0D1FD08F0BBFF80B203126372B6
:10378000B34AB44B12681B68B9692072A372284609
:103790001B121512E3722273657308F0BDFDAB496D
:1037A00008F0BAFD08F0A4FF83B21A12A549AA488E
:1037B000A373E27304F084F9A84BA94A1B6812882A
:1037C000A049A272DDB2257205EB850603EB8305E5
:1037D000760045F3D71540F2553E12121B122673A0
:1037E0006573082600259C48C4F800E0E272637205
:1037F000E671A573E57304F063F940F25633994816
:103800002360E671FDF72AFE974908F085FD08F070
:103810006FFF20729348FDF721FE934908F07CFD6D
:1038200008F066FF914A9049C0F30723106863725D
:1038300008F026FE08F036FF40FA06F203468948F3
:10384000E272A372FDF736FE804908F065FD08F0CC
:1038500029FF20738348FDF72DFE7C4908F05CFDAD
:1038600008F020FF7749A57340F307237A48637374
:10387000E57304F025F9022005F07AFA7C4A7D4BC5
:1038800011785078217291786072D2789878A1720C
:10389000597893F800E0E2726173DA78A07340F22D
:1038A0005A3368496C4884F80CE0E2732360E6718F
:1038B00004F006F9704B63491A78587822726072E6
:1038C0009A78D878A272E0721A79987993F805E01C
:1038D0002273A073DA79604884F80DE040F25E3319
:1038E000E2732360E67104F0EBF8022005F040FA81
:1038F000624B54491A785878227260729A78D87854
:10390000A272E0721A79987993F805E02273A07395
:10391000DA79514884F80DE04FF45C73E273236068
:10392000E67104F0CDF8022005F022FA40F273337C
:103930004C482360E671FDF747FD514908F0ECFC67
:1039400008F0D6FE20724748FDF73EFD4C4908F0CE
:10395000E3FC08F0CDFEC0F3072342486372FDF795
:1039600059FD474908F0D8FC08F0C2FEA0723D4856
:10397000FDF750FD424908F0CFFC08F0B9FEC0F356
:1039800007233848E372FDF7FBFD3E4908F0BCFB16
:1039900008F0AEFE20733348FDF7F2FD394908F018
:1039A000B3FB08F0A5FEC0F307232E486373FDF7B1
:1039B000E5FD344908F0A8FB08F09AFEA0732948F9
:1039C000FDF7DCFD2F4908F09FFB08F091FE1D4933
:1039D000C0F307232048E37304F072F8022005F0D7
:1039E000C7F9B96DFB6D022211FB03F3C3F307277F
:1039F00040F2793110462160E2712372677205F05E
:103A0000B7F940F2723317482360E671FDF728FDDD
:103A100020721448FDF724FD40FA06F3A572637284
:103A2000E57225736573A573E57306490A48BDE819
:103A3000F84004F045B808F01BFC7969054695E6A6
:103A40000493FF1F0495FF1F4C93FF1F00002041AC
:103A5000E894FF1F6C92FF1F68D1FF1F3487FF1F80
:103A60003887FF1F2495FF1F0000C8420C93FF1FDB
:103A70004893FF1FE094FF1F2C87FF1F5887FF1FED
:103A800000007A4433938843F0B5A84CA84D83B026
:103A900006F09AFD23682860042B00F03A83022B7D
:103AA00000F0B780082B47D0072B40F06581332802
:103AB00001F0E38500F3B883312801F0C88532288E
:103AC00043D106F0BDFD002840F3548199489A4E39
:103AD00007F008FA08F0CCFB984908F01DFC6123B8
:103AE0000122F06322602B601846A0F152031F2BC5
:103AF00001F28B85DFE813F0870D890D890D890DA3
:103B0000890D890D890D890D890D890D890D890D05
:103B1000890D890D890DD803CC0E5205EA05BC0428
:103B2000890D890D890D4C04890DCF0E890D890DE4
:103B3000890D890D890D750D322800F0808371285B
:103B400000F07883312800F09083002B08BF7328A1
:103B50000CBF01200020002859D0764807F030F82B
:103B60000421774806F096FD724807F029F81021E5
:103B7000744806F08FFD6F4807F022F81321724851
:103B800006F088FD714B6B48196807F069F86948C1
:103B900007F016F814216E4806F07CFD654807F022
:103BA0000FF81E216B4806F075FD624807F008F813
:103BB0001521694806F06EFD5E4807F001F81E21E8
:103BC000664806F067FD5B4806F0FAFF202164486E
:103BD00006F060FD574806F0F3FF1921614806F032
:103BE00059FD544806F0ECFF12215F4806F052FDE3
:103BF000504806F0E5FF0D215C4806F04BFD4D48AE
:103C000006F0DEFF5A4A002101231160236003B051
:103C1000F0BDA0F13102422A97D801A151F822F05B
:103C2000414C0000594C0000754C00008F4C0000C6
:103C3000B54C0000D34C00004B3B0000ED4C0000A5
:103C40004B3B00004B3B00004B3B00004B3B00005C
:103C50004B3B00004B3B00004B3B00004B3B00004C
:103C60004B3B00004B3B00004B3B00004B3B00003C
:103C70004B3B00004B3B00004B3B00004B3B00002C
:103C80004B3B00004B3B00004B3B00004B3B00001C
:103C90004B3B00004B3B00004B3B00004B3B00000C
:103CA0004B3B00004B3B00004B3B00004B3B0000FC
:103CB0004B3B00004B3B00004B3B00004B3B0000EC
:103CC0004B3B00004B3B00004B3B00004B3B0000DC
:103CD0004B3B00004B3B00004B3B00004B3B0000CC
:103CE0004B3B00004B3B0000174C00004B3B0000DF
:103CF0004B3B00004B3B00004B3B00004B3B0000AC
:103D00004B3B00004B3B00004B3B00004B3B00009B
:103D10004B3B00004B3B00004B3B00004B3B00008B
:103D2000354200004B3B0000234C00001C93FF1F5A
:103D30006892FF1FD887FF1F4C93FF1F6F12833AB3
:103D4000101B0100181B01002C1B01002487FF1F02
:103D5000401B0100581B0100781B0100901B010053
:103D6000B01B0100D41B0100F01B0100041C01006A
:103D70003C87FF1F23682868062B40F08F80A0F146
:103D80003002412A3FF6E1AE01A151F822F000BF16
:103D9000BD4A0000E74A0000874B0000B34B00001B
:103DA000D94B0000FF4B0000534A0000774A000047
:103DB0004B3B0000954A00004B3B00004B3B000092
:103DC0004B3B00004B3B00004B3B00004B3B0000DB
:103DD0004B3B00004B3B00004B3B00004B3B0000CB
:103DE0004B3B00004B3B00004B3B00004B3B0000BB
:103DF0004B3B00004B3B00004B3B00004B3B0000AB
:103E00004B3B00004B3B00004B3B00004B3B00009A
:103E10004B3B00004B3B00004B3B00004B3B00008A
:103E20004B3B00004B3B00004B3B00004B3B00007A
:103E30004B3B00004B3B00004B3B00004B3B00006A
:103E40004B3B00004B3B00004B3B00004B3B00005A
:103E50004B3B00004B3B00004B3B00004B3B00004A
:103E60004B3B00004B3B00004B3B00004B3B00003A
:103E70004B3B00004B3B00004B3B00004B3B00002A
:103E80004B3B00004B3B00004B3B00004B3B00001A
:103E90004B3B00003542000023682868052B40F0AA
:103EA0008D80A0F13102402A3FF64FAE01A151F8BA
:103EB00022F000BFFF4700007349000037490000AF
:103EC00057490000F34800001D4900004B3B00002B
:103ED0004B3B00004B3B00004B3B00004B3B0000CA
:103EE0004B3B00004B3B00004B3B00004B3B0000BA
:103EF0004B3B00004B3B00004B3B00004B3B0000AA
:103F00004B3B00004B3B00004B3B00004B3B000099
:103F10004B3B00004B3B00004B3B00004B3B000089
:103F20004B3B00004B3B00004B3B00004B3B000079
:103F30004B3B00004B3B00004B3B00004B3B000069
:103F40004B3B00004B3B00004B3B00004B3B000059
:103F50004B3B00004B3B00004B3B00004B3B000049
:103F60004B3B00004B3B00004B3B00004B3B000039
:103F70004B3B00004B3B00004B3B00004B3B000029
:103F80004B3B00004B3B00004B3B00004B3B000019
:103F90004B3B00004B3B00004B3B00004B3B000009
:103FA0004B3B00004B3B00004B3B00004B3B0000F9
:103FB0004B3B00009349000023682868032B40F026
:103FC000A480A0F13002422A3FF6BFAD01A151F812
:103FD00022F000BFE1400000355200005D520000B9
:103FE00085520000A75200000D520000C952000087
:103FF000F15200000F530000335300004B3B000010
:104000004B3B00004B3B00004B3B00004B3B000098
:104010004B3B00004B3B00004B3B00004B3B000088
:104020004B3B00004B3B00004B3B00004B3B000078
:104030004B3B00004B3B00004B3B00004B3B000068
:104040004B3B00004B3B00004B3B00004B3B000058
:104050004B3B00004B3B00004B3B00004B3B000048
:104060004B3B00004B3B00004B3B00004B3B000038
:104070004B3B00004B3B00004B3B00004B3B000028
:104080004B3B00004B3B00004B3B00004B3B000018
:104090004B3B00004B3B000097530000874D000056
:1040A0005B530000795300006B54000089540000FA
:1040B0003D4D0000614D00004B3B0000B55300003A
:1040C000D75300004B3B00004B3B00004B3B000034
:1040D0004B3B00004B3B00000154000035540000F6
:1040E00006F0AEFA002841F39982CF48CF4E06F091
:1040F000F9FE0127034601466222CD48B3652760D9
:104100002A60FDF7B1F923682868012B7FF41DAD03
:10411000EBE4A0F13102402A3FF617AD01A151F8BE
:1041200022F000BF134B00002B4B00002F4B000070
:10413000514B0000554B0000714B0000834B0000B9
:10414000134C00002D4A00004B3B00004B3B00008D
:104150004B3B00004B3B00004B3B00004B3B000047
:104160004B3B00004B3B00004B3B00004B3B000037
:104170004B3B00004B3B00004B3B00004B3B000027
:104180004B3B00004B3B00004B3B00004B3B000017
:104190004B3B00004B3B00004B3B00004B3B000007
:1041A0004B3B00004B3B00004B3B00004B3B0000F7
:1041B0004B3B00004B3B00004B3B00004B3B0000E7
:1041C0004B3B00004B3B00004B3B00004B3B0000D7
:1041D0004B3B00004B3B00004B3B00004B3B0000C7
:1041E0004B3B00004B3B00004B3B00004B3B0000B7
:1041F0004B3B00004B3B00004B3B00004B3B0000A7
:104200004B3B00004B3B00004B3B00004B3B000096
:104210004B3B00004B3B00004B3B00004B3B000086
:104220004B3B000035420000342801F0FE8171282C
:104230007FF48BAC002373202360286085E406F0B4
:10424000FFF9002840F3AD837748784E06F04AFE28
:1042500008F00EF8774908F05FF807460246336D1C
:1042600096F840107248776415E006F0E9F90028E6
:1042700040F39B836C486D4E06F034FEC0B286F866
:104280004000022894BF01460021336D726C6848DB
:1042900088BF86F84010FDF7E9F801236920236004
:1042A000286022E406F090F906F0CAF905460028D5
:1042B000F8D15D485D4E06F083FC5B4806F080FC5B
:1042C000594806F07DFC584806F07AFC564806F03E
:1042D00077FC1F21584806F0DDF9534806F070FCC2
:1042E0001C21564806F0D6F9706A554908F014F8B2
:1042F00007F068FB009502460B464B4806F0B8FCF9
:104300000221504806F0C6F9474806F059FC23211F
:104310004D4806F0BFF9F06B494907F0FDFF07F083
:1043200051FB009502460B463F4806F0A1FC0221D6
:10433000444806F0AFF93C4806F042FC19214348D6
:1043400006F0A8F9B06B07F03DFB02250B460246CC
:104350000095354806F08CFC29463D4806F09AF950
:10436000314806F02DFC22213A4806F093F9B6F8C0
:10437000CA102D4806F074FC0321374806F08AF96C
:10438000294806F01DFC0723236040E406F01CF9D1
:1043900006F056F905460028F8D12348234E06F0CA
:1043A0000FFC214806F00CFC1F4806F009FC1E48D3
:1043B00006F006FC1C4806F003FC1521274806F011
:1043C00069F9194806F0FCFB1821254806F062F946
:1043D0002B460A2296F84010134806F001FC1248BA
:1043E00006F0EEFB28211F4806F054F9706C1449C2
:1043F00007F092FF07F0E6FA00950B4602460A48DE
:1044000006F036FC02210F4806F044F9064806F093
:10441000D7FB1321144806F03DF9034806F0D0FB02
:1044200008232360FFF7F3BBD887FF1F4C93FF1FC0
:104430002495FF1F6F12833A1814010038140100ED
:1044400000007A4444120100581401007C14010059
:10445000F413010098140100BC140100D81B0100E2
:10446000FC110100181201004812010006F0ACF81E
:1044700006F0E6F805460028F8D17F487F4E06F0A2
:104480009FFB7D4806F09CFB7B4806F099FB7A4831
:1044900006F096FB784806F093FB1121784806F069
:1044A000F9F8754806F08CFB2821764806F0F2F8FA
:1044B0007069754907F030FF07F084FA00950246ED
:1044C0000B466D4806F0D4FB0221704806F0E2F876
:1044D000694806F075FB16216D4806F0DBF8F069B7
:1044E000694907F019FF07F06DFA00950B4602467F
:1044F000614806F0BDFB0221644806F0CBF85E4837
:1045000006F05EFBD6F8B830002B32DD1D21614885
:1045100006F0C0F8306E07F0ABFE5F4907F0FCFE16
:1045200007F050FA022502460B460095524806F065
:104530009FFB0121594806F0ADF84F4806F040FBBB
:104540001F21574806F0A6F8706E07F091FE5249F9
:1045500007F0E2FE07F036FA009502460B464648A1
:1045600006F086FB01214D4806F094F8424806F01B
:1045700027FB11214B4806F08DF8D6F8B830072BF1
:1045800000F2A687DFE813F0230828081E081408A5
:104590000F080A08A007190806F016F806F050F8E8
:1045A0000028F9D13448354E06F00AFB324806F0AF
:1045B00007FB314806F004FB2F4806F001FB2E48AC
:1045C00006F0FEFA1F21384806F064F82A4806F083
:1045D000F7FA1E21354806F05DF8274806F0F0FA94
:1045E0001A21334806F056F8D6F88030022B01F035
:1045F0002A81032B01F01E81012B01F02D8109215D
:104600002C4806F047F81C4806F0DAFA14212A482C
:104610001A4F06F03FF8F16F174806F021FB1648D5
:1046200006F0CEFA1C21254806F034F8D6F884109E
:10463000114806F015FB104806F0C2FA1C2120486C
:1046400006F028F8D6F8B4100B4806F009FB0A4823
:1046500006F0B6FAD6F8805025F00205012D01F0DB
:1046600065801321174806F015F8034806F0A8FAEC
:1046700002232360FFF7CBBAD887FF1F4C93FF1F9D
:104680007C1B01005C12010000007A44441201000E
:1046900088120100A0120100CDCCCC3DF017010022
:1046A000C0120100E0120100B0160100D016010096
:1046B000F016010068170100741701008C17010043
:1046C000AC1701004812010005F07EFF05F0B8FFAD
:1046D0000028F9D1B74806F073FAB64806F070FA28
:1046E000B44806F06DFAB34806F06AFAB14806F02D
:1046F00067FA1321B04805F0CDFFAE4806F060FA26
:104700000D21AE4805F0C6FFAA4806F059FA0F2160
:10471000AB4805F0BFFFAB4BA648196806F0A0FAFE
:10472000A44806F04DFA1321A74805F0B3FFA74BA4
:10473000A048196806F094FA9E4806F041FA122142
:10474000A34805F0A7FFA34B9A48196806F088FA1A
:10475000984806F035FA11219F4805F09BFF9F4BC2
:104760009448196806F07CFA924806F029FA0E215E
:104770009B4805F08FFF9B4B8E48D3F8A81006F09E
:104780006FFA8C4806F01CFA1921974805F082FF51
:10479000964B8848196806F063FA864806F010FAC6
:1047A0001121934805F076FF924B8248196806F074
:1047B00057FA804806F004FA10218F4805F06AFF86
:1047C0008E4B7C48196806F04BFA7A4806F0F8F9E7
:1047D0001C218B4805F05EFF8A4B7648196806F06D
:1047E0003FFA744806F0ECF91321874805F052FFB0
:1047F000704806F0E5F904232360FFF708BA05F0D6
:104800001FFF00287FF7D8AB6A48764E06F06AFB98
:1048100001226B23C6F8980022602B6001E005F0AE
:10482000D3FE05F00DFF0028F9D162486D4D06F06A
:10483000C7F9604806F0C4F95E4806F0C1F95D4862
:1048400006F0BEF95B4806F0BBF921216F4805F080
:1048500021FF584806F0B4F915216D4805F01AFFFC
:10486000D6F89810534806F0FBF90221694805F084
:1048700011FF504806F0A4F91E21674805F00AFF11
:10488000D6F8A0104B4806F0EBF90321634805F079
:1048900001FF484806F094F91E21614805F0FAFE30
:1048A000D6F89C10434806F0DBF9424806F088F938
:1048B0001D215C4805F0EEFED6F8AC103D4806F030
:1048C000CFF93C4806F07CF91E21574805F0E2FE7E
:1048D000D6F8B010374806F0C3F9364806F070F93C
:1048E000D6F8A830012B00F0C08705232360FFF71E
:1048F0008EB905F0A5FE00287FF75EAB2D48394E36
:1049000006F0F0FA3B4BC6F8B00003221A60FDF740
:10491000CDFD01226B2322602B6082E7314E96F899
:10492000C930B3FA83F35B0901216B2286F8C930E1
:1049300021602A6075E705F083FE00287FF73CAB15
:104940001C48284E06F0CEFA01226B23C6F89C00C4
:1049500022602B6065E705F073FE00287FF72CAB23
:104960001448204E06F0BEFA224BC6F8AC000222D4
:10497000CCE705F065FE00287FF71EAB0D48194E09
:1049800006F0B0FA01226B23C6F8A00022602B606B
:1049900047E7184A00237320136023602860FFF75D
:1049A000D4B823682868FFF77FB80E4E96F8400009
:1049B00067E400BFD887FF1FCC150100E015010098
:1049C000F01501009C94FF1F001601001895FF1FB1
:1049D00014160100D894FF1F281601000095FF1F30
:1049E0003C1601004C93FF1F4C160100C494FF1F9E
:1049F00068160100C094FF1F7C1601000893FF1F7A
:104A0000901601006887FF1F48120100C0140100C2
:104A1000E414010088130100FC1401008810010057
:104A20001C1501003C1501005C15010001232360E9
:104A300005F006FE002800F33386B34B1A68042AFB
:104A4000C4BF02221A6064232B6023686420FFF72E
:104A500029B805F0F5FD00287FF71EAAAB48AC4E3B
:104A600006F040FA65230122C6F8BC0022602B60E4
:104A70001846FFF73AB8A64B93F8C820002A00F072
:104A80001786002283F8C820012365202360286050
:104A9000FFF72BB805F0D4FD00287FF7FDA99B4850
:104AA0009B4E06F01FFA07F0E3FBF76A30633946C6
:104AB00007F0D0FD0028E7D03763E5E705F0C0FD3B
:104AC00000287FF7E9A9914806F00CFA904A00EB1C
:104AD00080004300116E1BB28B42A2F8D030D3DDB0
:104AE000A2F8D010D0E705F0ABFD00287FF7D4A9DD
:104AF0008648874E06F0F6F907F0BAFB854907F0BD
:104B0000BFFC65230122706122602B601846FEF70E
:104B1000ECBF814A1368B3FA83F35B090121642077
:104B2000136021602860FEF7E0BF7C4AF2E77C4A10
:104B30007C4F1368002B0CBF012300234FF00100B2
:104B40001360206040F06086034664222A607DE79F
:104B5000754ADFE76E4ED6F8A830B3FA83F35B09E7
:104B600001226420C6F8A83022602860FEF7BDBF8D
:104B700001236E482360FCF787F96D4A23681060B3
:104B8000E3E76C4AC6E705F05BFD00287FF784A9E0
:104B90005E485F4E06F0A6F907F06AFB5D4907F034
:104BA0006FFC65230122F06122602B601846FEF73E
:104BB0009CBF05F045FD00287FF76EA95348544E71
:104BC00006F090F900EB8000430001226520336677
:104BD00022602860FEF789BF05F032FD00287FF7CC
:104BE0005BA94A484A4E06F07DF900EB800043007D
:104BF00001226520736622602860FEF776BF444A72
:104C0000D2F8B8300133072BC8BF0023C2F8B83040
:104C10003AE7494A7EE7FEF7D7FC23682868FEF7A3
:104C200041BF3B4AD2F880300133032BC8BF002379
:104C3000C2F880300123632023602860FEF755BF4F
:104C4000334EF36FB3FA83F35B0901226320F367FA
:104C500022602860FEF749BF2D4ED6F88430B3FAA3
:104C600083F35B0901226320C6F884302260286048
:104C7000FEF73BBF0123236005F0E2FC0028D9DDED
:104C80002248234E06F02EF9C6F8B400D2E70123DD
:104C9000236005F0D5FC002807DD1C481C4E06F0FB
:104CA00021F907F0E5FAC6F894006320286023682C
:104CB000FEF7FABE0123236005F0C2FC0028F4DDF4
:104CC0001248134E06F00EF907F0D2FAC6F890001B
:104CD000EBE70123236005F0B3FC0028E5DD0B487A
:104CE0000B4E06F0FFF8A6F8C200DEE701232360B2
:104CF00005F0A6FC00289DDD0448054E06F0F2F8FC
:104D0000C6F88C0096E700BF6887FF1FD887FF1F93
:104D10004C93FF1F00007A449C94FF1F1895FF1FBF
:104D2000D894FF1F1C93FF1F0095FF1F2495FF1FA2
:104D3000C494FF1FC094FF1F0893FF1F05F080FC61
:104D400000280DDD1748184E06F0CCF807F090FA51
:104D5000164907F095FB01226223306222602B6026
:104D600005F06EFC00280EDD0E480F4E06F0BAF876
:104D700007F07EFA0D4907F083FB01226223C6F893
:104D8000C40022602B6005F05BFC002840F34684E1
:104D90000448054E06F0A6F801226223F066226060
:104DA0002B6007E0D887FF1F4C93FF1F00007A4459
:104DB00005F00AFC05F044FC05460028F8D1C2487D
:104DC00005F0FEFEC04805F0FBFEBF4805F0F8FE0A
:104DD000BD4805F0F5FEBC4805F0F2FE1521BB48C4
:104DE00005F058FCB84805F0EBFE1421B84805F072
:104DF00051FCB54805F0E4FE1B21B64805F04AFC1D
:104E0000B14805F0DDFE1321B34805F043FCAE4880
:104E100005F0D6FEAC4805F0D3FEAB4805F0D0FE59
:104E20002021AE4805F036FCF068AD4907F074FA71
:104E300006F0C8FD009502460B46A34805F018FF92
:104E40000221A84805F026FC0221A74805F022FC13
:104E50009D4805F0B5FE2121A44805F01BFC3069F2
:104E60009F4907F059FA06F0ADFD009502460B4642
:104E7000954805F0FDFE02219A4805F00BFC022141
:104E8000994805F007FC904805F09AFE1F219848C4
:104E900005F000FCB06A06F095FD022702460B46BD
:104EA0000097894805F0E4FE0121924805F0F2FBE5
:104EB00039468D4805F0EEFB834805F081FE202140
:104EC0008D4805F0E7FBF06A06F07CFD009702468E
:104ED0000B467D4805F0CCFE0121864805F0DAFB43
:104EE0003946814805F0D6FB774805F069FE232155
:104EF000824805F0CFFBB06C794907F00DFA06F057
:104F000061FD009502460B466F4805F0B1FE39463B
:104F1000744805F0BFFB3946734805F0BBFB6A488F
:104F200005F04EFE1F21764805F0B4FBF06C6C498D
:104F300007F0F2F906F046FD009502460B4662487E
:104F400005F096FE3946674805F0A4FB39466648E9
:104F500005F0A0FB5C4805F033FE1921694805F017
:104F600099FBF16D584805F07BFE3946664805F01F
:104F700091FB39465C4805F08DFB534805F020FE57
:104F80001821624805F086FBB06E07F071F96049A0
:104F900007F0C2F906F016FD009702460B464A4894
:104FA00005F066FE01215B4805F074FB39464E486A
:104FB00005F070FB444805F003FE2B21564805F030
:104FC00069FBB069464907F0A7F906F0FBFC0095BC
:104FD00002460B463C4805F04BFE3946414805F079
:104FE00059FB3946404805F055FB374805F0E8FDC8
:104FF0001F214A4805F04EFBB16D334805F030FEE5
:105000003946394805F046FB2F4805F0D9FD2021E7
:10501000434805F03FFB716D2B4805F021FE3946F2
:10502000314805F037FB284805F0CAFD10213D48FE
:1050300005F030FBF16E244805F012FE3946294890
:1050400005F028FB3946284805F024FB1E4805F0EA
:10505000B7FD1321344805F01DFB316F1A4805F0E8
:10506000FFFD0121314805F015FB39461E4805F0CA
:1050700011FB154805F0A4FD10212D4805F00AFB91
:10508000716F114805F0ECFD3946164805F002FB3A
:105090003946154805F0FEFA0B4805F091FD14213C
:1050A000244805F0F7FAB16F074805F0D9FD012152
:1050B0001E4805F0EFFA39460B4805F0EBFA0248B6
:1050C00005F07EFD162137E0D887FF1F5C18010030
:1050D000741801008C18010048120100A818010082
:1050E00000007A4444120100841C0100CC18010025
:1050F000F01801006C0D01001019010034190100B5
:10510000581901007819010094190100981901003B
:10511000CDCCCC3DF0170100B4190100E01901001D
:10512000001A0100241A0100381A01004C1A01006B
:10513000501A0100641A0100B44805F0ABFA306A55
:10514000B34907F0E9F806F03DFC009502460B462E
:10515000B04805F08DFD3946AF4805F09BFA394659
:10516000AE4805F097FAAB4805F02AFD2421AC487B
:1051700005F090FAD6F8C400A54907F0CDF806F07E
:1051800021FC009502460B46A24805F071FD394608
:10519000A14805F07FFA3946A04805F07BFA9D4802
:1051A00005F00EFD2B219F4805F074FA706B06F098
:1051B00009FC009702460B46964805F059FD01216F
:1051C000994805F067FA3946944805F063FA914822
:1051D00005F0F6FC2721954805F05CFAD6F8CC00DE
:1051E0008B4907F099F806F0EDFB00950B46024657
:1051F000884805F03DFD3946874805F04BFA85485B
:1052000005F0DEFC03232360FEF701BD05F018FA6C
:10521000002840F303827F48854E05F063FE07F0C7
:1052200027F87B4907F02CF901226223B064226041
:105230002B60BFE505F004FA002840F3EF817548C4
:105240007B4E05F04FFE07F013F8714907F018F98F
:1052500001226223F06022602B60ABE505F0F0F9DB
:10526000002840F3DB816B48714E05F03BFE06F0F1
:10527000FFFF674907F004F90122622330612260D1
:105280002B6097E505F0DCF9002840F3C781614801
:10529000674E05F027FE06F0EBFF01226223B062A5
:1052A00022602B6086E505F0CBF9002840F3B6813B
:1052B00058485F4E05F016FE06F0DAFF0122622321
:1052C000F06222602B6075E505F0BAF9002840F322
:1052D000A5815048564E05F005FE06F0C9FF4C4921
:1052E00007F0CEF801226223F06422602B6061E5B2
:1052F00005F0A6F9002840F3918146484C4E05F090
:10530000F1FD01226223F06522602B6052E505F079
:1053100097F9002840F382813E48454E05F0E2FDB2
:1053200000EB8000430001216222B36621602A6005
:1053300040E505F085F9002840F3708135483C4E82
:1053400005F0D0FD06F094FF314907F099F80122ED
:105350006223B06122602B602CE505F071F9002812
:1053600040F35C812B48324E05F0BCFD01226223E4
:10537000306722602B601DE505F062F9002840F3DC
:105380004D8124482A4E05F0ADFD0122622370674D
:1053900022602B600EE505F053F9002840F33E81B2
:1053A0001C48234E05F09EFD012262237065226099
:1053B0002B60FFE405F044F9002840F32F811548E5
:1053C0001B4E05F08FFD06F053FF01226223706330
:1053D00022602B60EEE405F033F9002840F31E81D3
:1053E0000C48134E05F07EFD06F042FF084907F019
:1053F00047F801226223C6F8CC0022602B60D9E472
:105400000022732322602B60FEF7A7BB7C1A0100E9
:1054100000007A44D887FF1F44120100841C010059
:10542000941A0100BC1A01006C0D0100E81A010079
:105430004C93FF1FA14BA248A24E002202211A60EA
:1054400005F028F9A04805F0BBFB0B219F4805F0AB
:1054500021F902219A4805F01DF99B4805F0B0FB9F
:105460000122622322602B60A4E405F0E9F8002801
:1054700040F3D4809448934E05F034FD012262231A
:10548000B06722602B6095E4FCF77AFC02218C481F
:105490008C4E05F0FFF88C4805F092FB02218848FD
:1054A00005F0F8F8884805F08BFB0221844805F0E8
:1054B000F1F8854805F084FB1721854805F0EAF8E6
:1054C000814805F07DFBC4E70421824805F0E2F83D
:1054D0007D487C4D05F074FBD6F8B830002B12DD0A
:1054E00018217D4805F0D6F8D5F8BC10764805F0AF
:1054F000B7FB0221794805F0CDF8734805F060FB51
:10550000714805F05DFB1B21754805F0C3F896F85E
:10551000C830012B15BF122114217248724805F0C2
:10552000B9F8694805F04CFB1F21704805F0B2F846
:10553000306B06F047FA022502460B46009562489A
:1055400005F096FB29466A4805F0A4F85E4805F088
:1055500037FB1E21674805F09DF8B6F9D00006F02C
:1055600087FE654906F0D8FE06F02CFA00950B463A
:105570000246554805F07CFB0121604805F08AF899
:10558000514805F01DFB13215D4805F083F84E4896
:1055900005F016FB06232360FEF739BB0B215948A3
:1055A00005F078F894E70D21574805F073F88FE778
:1055B0000D21564805F06EF88AE71021544805F091
:1055C00069F885E70C21534805F064F880E70D2160
:1055D000514805F05FF87BE70C21504805F05AF878
:1055E00076E7D4220021374803F0BAF828684C4AFD
:1055F000A0F1730001210023B0FA80F0400911608E
:105600002360FEF7A8BA04F0C3F92368002B08BF93
:1056100073280CBF01200020FEF79DBA236828687C
:10562000012B7EF492AAFEF760BA05F009F8002873
:105630007EF7A0AB2448234E05F054FC61230122E1
:10564000A6F8CA0022602B601846FEF74EBA04F096
:10565000F7FF00287EF78EAB1B481A4E05F042FC80
:1056600006F006FE2F4906F057FE61230122706204
:1056700022602B601846FEF738BA04F0E1FF0028DC
:105680007EF778AB10480F4E05F02CFC06F0F0FDCD
:1056900061230122B06322602B601846FEF725BA11
:1056A000094805F01FFC204B02461860FFF7C7B9F8
:1056B000012283F8C820FFF7E7B900BF7C92FF1FE3
:1056C000841C01004C93FF1FD887FF1FF0110100BD
:1056D000D8110100501301006C1301008813010060
:1056E0008C130100A8130100BC130100D4130100A6
:1056F000F4130100F8130100CDCCCC3DF0170100EC
:105700004812010044130100341301002413010066
:105710005813010014130100F412010004130100D6
:105720003C87FF1F6F12833A6887FF1F1C215B486D
:1057300004F0B0FFD7F89400594906F0EDFD06F0EB
:1057400041F9009502460B46564805F091FA0521AD
:10575000554804F09FFF534805F032FAD7F88050BF
:10576000012D19D11D21514804F094FFD7F8900064
:105770004B4906F0D1FD06F025F9009502460B468F
:10578000484805F075FA0521474804F083FF45486D
:1057900005F016FAD7F8805025F00205012D7EF4A9
:1057A00060AF1C214248434D04F074FFB6F8C210AC
:1057B0003C4805F055FA03213F4804F06BFF394897
:1057C00005F0FEF9D6F88030012B7EF44AAF1F2198
:1057D0003A4804F05FFFD5F88C0006F049FD3849DF
:1057E00006F09AFD06F0EEF8022502460B460095FB
:1057F0002C4805F03DFA2946324804F04BFF294871
:1058000005F0DEF9FEF72DBF2F4B002631460B20A9
:105810001E6003F071FA31460C2003F06DFA314638
:10582000142003F069FA3146152003F065FA3B684D
:10583000FFF78BB92021254804F02CFF194805F00B
:10584000BFF9FEF7E3BE1721214804F023FF1548F6
:1058500005F0B6F9FEF7DABE1E211E4804F01AFF65
:10586000104805F0ADF9FEF7D1BE20211A4804F02A
:1058700011FF95F8C9302BB918490A48FCF76EFAA0
:10588000FFF733B816490748FCF768FAFFF72DB859
:10589000084EFFF78FBA074EFEF7C3BFCC170100C3
:1058A000CDCCCC3DD887FF1FEC170100F4170100C9
:1058B000141801004C93FF1F341801003818010020
:1058C0006F12833A581801001495FF1F2C1701001E
:1058D000501701000C1701007C150100A0150100F4
:1058E000AC15010038B5174C174A2368101D12F883
:1058F000011F904241EA0323F9D12360134C03F1C5
:1059000000432360124BD3F88030022B11D0114B8F
:105910001B68012B00D038BD0F4805F051F92168F4
:105920000D4805F09DF903210C48BDE8384004F00E
:10593000B1BE20680A4D06F09BFC2860FDF792F886
:10594000E5E700BF2894FF1FB794FF1FE494FF1FF3
:105950004C93FF1F9C94FF1FD887FF1F141C01004E
:105960002093FF1F30B53E4D3E4883B0294601F0DD
:105970009FFF2B6840F2C232934256D0B3F5407F6E
:10598000394C08D2226836493848012A18BF00220B
:10599000FBF7FCFA2B68364A23F060431A44EE2AE0
:1059A00007D822682E493148012A18BF0022FBF788
:1059B00089FA2368012B01D003B030BD2D4B2E484E
:1059C0001B6801930A220023019905F009F92A684E
:1059D000234B002ADB793BDB2849294807F064FC8C
:1059E000274807F08DFC0146254804F053FE2C683B
:1059F0001B4B14F080441CD1DB798BB12B1921494E
:105A00001A7A1F4807F050FC1D4807F079FC014640
:105A10001B4804F03FFE0134EB79E4B2A342EDD819
:105A2000154805F0CDF803B030BDFFF75BFF2B68DC
:105A3000A4E7154D124C0FCD0FC495E8030044F8B0
:105A4000040B204620F81419152104F023FEE7E783
:105A50000E490B4822F0604207F026FCC0E700BF69
:105A6000B094FF1F68D1FF1F9C94FF1F2495FF1F58
:105A7000FFABAAE510D3FF1FD887FF1F401C010012
:105A80008492FF1F6C1C0100541C0100181C0100B3
:105A9000974B1B78052B50D02DE9F04F954C964E27
:105AA000964DA26E236E9648326083B02B60FBF752
:105AB00067FDE16A06F0CEFD10B1B4F9D0302B607D
:105AC0008F48FBF75BFDA16A06F0E2FD10B10023F1
:105AD00033602B608A48FBF79DFCE16806F0D8FD37
