:1000000000800020BD010000F98D0000B18D0000CE
:10001000B18D0000B18D0000B18D0000B18D0000E8
:10002000B18D0000B18D0000B18D0000F98D000090
:10003000F98D0000B18D00000D84000011850000D5
:10004000F98D0000F98D0000F98D0000F98D000098
:10005000F98D0000F98D0000F98D0000F98D000088
:10006000F98D0000F98D0000F98D0000F98D000078
:10007000F98D0000F98D0000F98D0000F98D000068
:10008000F98D0000F98D0000F98D0000F98D000058
:10009000F98D0000F98D0000F98D0000F98D000048
:1000A000F98D0000F98D0000F98D0000F98D000038
:1000B000F98D0000F9790000057A0000097A000046
:1000C000157A0000197A00001D7A0000F98D0000F1
:1000D000F98D0000F98D0000F98D0000F98D000008
:1000E000F98D0000F98D0000F98D0000F98D0000F8
:1000F000F98D000041AF0000F98D0000ED9A00007D
:10010000F98D0000B99C0000F98D0000F98D000008
:10011000F98D0000F98D0000F98D0000F98D0000C7
:10012000F98D0000F98D0000F98D0000F98D0000B7
:10013000F98D0000F98D0000F98D0000F98D0000A7
:10014000F98D0000F98D0000F98D0000F98D000097
:10015000F98D0000F98D0000F98D0000F98D000087
:10016000F98D0000499F0000F98D0000F98D000015
:10017000F98D0000F98D0000F98D0000F98D000067
:10018000F98D0000F98D0000F98D0000F98D000057
:10019000F98D0000F98D0000F98D0000F98D000047
:1001A000F98D0000F98D0000F98D0000F98D000037
:1001B000F98D0000F98D0000F98D0000564B4CF2CE
:1001C000205210B51A804DF628121A8000BF00BFC9
:1001D00008F016FE514B4FF010621A60504A9A60B8
:1001E000504ADA60504A136813F4807304D14F49BF
:1001F0000B604FF4A85313604D4B1A78110703D5C9
:100200001A7842F008021A704A4B4B492A221A7097
:100210004A4A4B4B8B4204D252F8040F43F8040B6A
:10022000F8E7484B484900228B4202D243F8042B9E
:10023000FAE74649464A002352F8230041F82300D2
:1002400001336F2BF8D1434B434A802103F8011B44
:100250009342FBD1414B3D4A1A60414B8A221A70AE
:10026000A3F5805324225A70A0221A709A7992071B
:10027000FCD59A79D406FCD43A4A937903F00C035E
:10028000082B384BF9D103221A7140225A719A79FE
:100290009006FCD5334A9179324B4906FBD5324A58
:1002A000324911600221516020221A709A7902F0BD
:1002B0000C020C2AFAD12E4B2E4A1A602E4B2F4AD2
:1002C0001A6000225A60072243F8042C2C4AC3F813
:1002D0000C2D62B609F074F8144B1B68DA0705D5CB
:1002E000284808F051FE284B284A1A60284B1B78F2
:1002F0005B0609D5244C254B22689A4204D121483B
:1003000008F042FE002323600CF0FCF808F07EFDAC
:1003100008F0ACFCFEE700BF0E2005403080044032
:10032000823F04000100002B10D0034014D0034092
:1003300002D0074000E007403892FF1F3420010040
:100340002087FF1F3892FF1FFCD2FF1F0082FF1F74
:100350000000000000E400E05FE400E008ED00E0E1
:100360000050064000400640448004400000030165
:1003700004800440C010050014E000E0FF76010096
:10038000000020205F13435E1CE00340A5C3945A85
:1003900000F00740FFFFFFFFFFFFFFFFFFFFFFFF32
:1003A000FFFFFFFFFFFFFFFFFFFFFFFFFFFFFFFF5D
:1003B000FFFFFFFFFFFFFFFFFFFFFFFFFFFFFFFF4D
:1003C000FFFFFFFFFFFFFFFFFFFFFFFFFFFFFFFF3D
:1003D000FFFFFFFFFFFFFFFFFFFFFFFFFFFFFFFF2D
:1003E000FFFFFFFFFFFFFFFFFFFFFFFFFFFFFFFF1D
:1003F000FFFFFFFFFFFFFFFFFFFFFFFFFFFFFFFF0D
:10040000FFFFFFFFFFFFFFFFFFFFFFFFDEF9FFFF23
:1004100010B5054C237833B9044B13B10448AFF33E
:1004200000800123237010BD3892FF1F00000000E0
:1004300030200100084B10B51BB108490848AFF344
:1004400000800848036803B910BD074B002BFBD0A0
:10045000BDE81040184700BF000000003C92FF1F9D
:10046000302001003892FF1F00000000F0B400F1BE
:100470002C06174F00243146031F00F15C0243F89D
:10048000044FB34241F8047F4FF0000542F8044F97
:10049000F5D100230F4A104CC0F8905047F230516C
:1004A000C0F89450C0F89850C0F89C50C0F8AC50B8
:1004B000C0F8A440C0F8A020C0F8A82080F8B83048
:1004C00080F8B93080F8D030C0F8E410F0BC704744
:1004D0000000A040000048430000C8C238B50446F0
:1004E000087A0D460BF0A8FD4FF07C510BF0F8FD9B
:1004F00006490BF0EBFC00220023C4F894002A7399
:10050000C4F898306A73C4F89C3038BD00002C429F
:1005100090F8C000704700BF90F8BC00704700BF63
:1005200090F8C400704700BF90F8C800704700BF43
:100530000C2994BF50F82100002070472DE9F041AC
:100540000B4E8046041F00F12C0754F8045F31461F
:1005500028460BF063FF30B1D8F8B01028460BF0F6
:100560007BFF00B12E46BC42EFD13046BDE8F081A2
:10057000000020412DE9F041D0F8B0704FF00008A4
:10058000041F00F12C0654F8045F394628460BF08E
:1005900063FF084948B128460BF040FF414620B1AF
:1005A00028460BF059FF00B1A846B442EBD14046B3
:1005B000BDE8F0810000A0402DE9F047D0F8B07010
:1005C00082464FF00009041F00F12C064FF000088E
:1005D00054F8045F394628460BF03EFF0C4950B1F1
:1005E00028460BF01BFF30B1484629460BF070FC43
:1005F00008F101088146B442EAD1CAF8D4804046E5
:100600000BF01AFD014648460BF01EFEBDE8F087D0
:100610000000A040D0F8D400704700BF38B5D0F833
:100620009840D0F89450214628460BF0F7FE00B9C8
:100630002C46204638BD00BFD0F8CC302DE9F04123
:10064000002B7CD1D0F89860D0F894500446314605
:1006500028460BF03DFCD4F89C70394680460BF0E0
:1006600037FC7F490BF0F0FD4FF07C5104460BF056
:10067000F3FE002861D04FF07C5128460BF0ECFED1
:100680004FF07C51002861D128460BF0C7FE38B1ED
:100690004FF07C5130460BF0DFFE002840F0A88080
:1006A0004FF07C5128460BF0D7FE002861D14FF067
:1006B0007C5128460BF0D0FE002840F0A2804FF07D
:1006C0007C5128460BF0C8FE00286DD14FF07C51BC
:1006D00028460BF0A3FE4FF07C5110B330460BF0D0
:1006E000BBFE38B14FF07C5138460BF097FE002826
:1006F00040F0B1804FF07C5130460BF08FFE002867
:1007000062D04FF07C5138460BF0A6FE002840F036
:10071000A48038464FF07C510BF080FE68B1514CFC
:1007200011E028460BF07AFE0028E3D128464FF06E
:100730007C510BF073FE002846D1BDE8F08100EB40
:100740008300D0F890402046BDE8F08130460BF0A1
:1007500083FE4FF07C5100283ED038460BF07CFEE3
:100760000028F0D14FF07C5128460BF057FE0028AE
:1007700059D14FF07C5130460BF050FE002840D04C
:100780004FF07C5138460BF067FE002841D14FF006
:100790007C5130460BF060FE68B14FF07C5138461A
:1007A0000BF03CFE00284FD14FF07C5130460BF04F
:1007B00035FE00288AD04FF07C5138460BF02EFED3
:1007C000002883D02C46BEE730464FF07C510BF01A
:1007D00025FE0028B1D09CE728460BF01FFE00281C
:1007E000C7D04FF07C5130460BF036FE0028C0D009
:1007F0004FF07C5138460BF02FFE00283FF450AFED
:1008000018E04FF07C5130460BF026FE0028CBD08C
:10081000C3E7394628460BF05BFB4FF07C510BF0E9
:100820005FFC04468FE74FF07C5138460BF014FE16
:1008300000289ED0394630460BF04AFB4FF07C51E1
:100840000BF04EFC04467EE740464FF07C510BF027
:1008500047FC044677E7344675E73C4673E700BF3C
:10086000000040400000A0C270B50446FFF7E4FE5F
:100870004FF07C510BF0F0FD40B3D4F894604FF092
:100880007C5130460BF0E8FDD4F89850F8B9D4F814
:100890009C404FF07C5128460BF0DEFD58B12946B4
:1008A00030460BF0D9FD30B1214628460BF0B6FD9D
:1008B00008B12C4621E04FF07C5120460BF0CCFDD6
:1008C00020B1284621460BF0C7FD80B970BD3046E7
:1008D00029460BF0A3FDD4F89C400028D9D030461F
:1008E00021460BF09BFD0028D3D0344605E030466E
:1008F00021460BF0B1FD0028E8D0204670BD00BFB6
:100900002DE9F04F012985B00646144600F0A2817A
:10091000022900F05A81002962D096F8E0B03046F2
:10092000FFF7A2FFD6F8A01004460BF077FD08B140
:10093000C6F8A040D6F89450D6F8984028462146EC
:100940000BF06CFD002840F01A812946D6F8A4006F
:100950000BF064FD10B12C46C6F8A440A6F1040AC1
:1009600006F15C09D0464F4606F12C0558F8044FB5
:1009700055F8040F21460BF06FFD30B1D6F8B010DA
:1009800020460BF05FFD00B12C6057F8041F204695
:100990000BF062FDAC4920B120460BF05DFD00B1CB
:1009A0003C60A945E2D1BBF1000F00F0F180A74CFB
:1009B000D6F8DC1023680193019AD6F8E430521A75
:1009C0009A4280F0EE8022680292029A0B449B1AAF
:1009D00041F28732934240F2BE8205B0BDE8F08F0B
:1009E00080F8E010937A507A1B0103EB101000F5A9
:1009F0007A700BF021FB96490BF072FB0021074641
:100A00000BF02AFD3568002800F0AE80D6F8B480DF
:100A1000284641460BF05CFA014638460BF0FEFCD6
:100A2000002800F0A180414628460BF04FFA01460D
:100A300038460BF011FD002800F096803760237BCC
:100A4000607B1B1103EB001000F57A700BF0F4FAD9
:100A50007F490BF045FB002107460BF0FDFCB56814
:100A6000A8B1D6F8B480284641460BF031FA0146C9
:100A700038460BF0D3FC50B1414628460BF026FA1D
:100A8000014638460BF0E8FC002840F05D8228461D
:100A900000210BF0B9FC002840F05682012386F8B3
:100AA000E030237BE07A1B0203F47063184400F506
:100AB0007A700BF0C1FA66490BF012FB0021074671
:100AC0000BF0CAFC7568A8B1D6F8B4802846414638
:100AD0000BF0FEF9014638460BF0A0FC50B1414640
:100AE00028460BF0F3F9014638460BF0B5FC002818
:100AF00040F02282284600210BF086FC002840F0BE
:100B00001B82012386F8E030E37BA07B1B0203F409
:100B10007063184400F57A700BF08EFA4C490BF0B4
:100B2000DFFA002105460BF097FCF46898B1D6F87F
:100B3000B470204639460BF0CBF9014628460BF03D
:100B40006DFC40B1394620460BF0C0F901462846FD
:100B50000BF082FC30B9204600210BF055FC002838
:100B600000F0F481F560D8E6284600210BF04CFC3B
:100B700000287FF463AF012386F8E0305FE7D6F802
:100B8000A41020460BF068FC00283FF4E7AEE3E633
:100B90002E4B1B680093009BC6F8DC3005B0BDE807
:100BA000F08F002106F11C024AF8041F52454FF055
:100BB0000003F9D1C6F89030C6F89430C6F89830E2
:100BC000C6F89C3005B0BDE8F08F002380F8E03017
:100BD000937A507A1B0103EB101000F57A700BF03A
:100BE0002BFA1B490BF07CFA002180460BF034FCF9
:100BF000002800F00381237B607B1B1103EB0010B6
:100C000000F57A700BF018FA11490BF069FA356AA1
:100C1000D6F8B4900746494628460BF059F90146E4
:100C200038460BF0FBFB002800F0E98049462846D7
:100C30000BF04CF9014638460BF00EFC002800F092
:100C4000DE80C6F82080E4E00000A04024D0FF1F32
:100C50006F12833A002380F8E030937A507A1B01B8
:100C600003EB101000F57A700BF0E6F962490BF017
:100C700037FA002107460BF0EFFB3569002800F03A
:100C8000B080D6F8B480284641460BF021F90146E1
:100C900038460BF0C3FB002800F0A38041462846ED
:100CA0000BF014F9014638460BF0D6FB002800F093
:100CB00098803761237B607B1B1103EB001000F5EC
:100CC0007A700BF0B9F94C490BF00AFA002107468B
:100CD0000BF0C2FBB569A8B1D6F8B48028464146EE
:100CE0000BF0F6F8014638460BF098FB50B1414640
:100CF00028460BF0EBF8014638460BF0ADFB002818
:100D000040F01C81284600210BF07EFB002840F0BB
:100D10001581012386F8E030237BE07A1B0203F47F
:100D20007063184400F57A700BF086F932490BF0C5
:100D3000D7F9002107460BF08FFB7569A8B1D6F8EB
:100D4000B480284641460BF0C3F8014638460BF004
:100D500065FB50B1414628460BF0B8F801463846CD
:100D60000BF07AFB002840F0E580284600210BF0CC
:100D70004BFB002840F0DE80012386F8E030E37B67
:100D8000A07B1B0203F47063184400F57A700BF02B
:100D900053F919490BF0A4F9002105460BF05CFB4F
:100DA000F46998B1D6F8B470204639460BF090F843
:100DB000014628460BF032FB40B1394620460BF085
:100DC00085F8014628460BF047FB30B92046002144
:100DD0000BF01AFB002800F0B980F56196F8E0B03E
:100DE0009DE5284600210BF00FFB00287FF461AF42
:100DF000012386F8E0305DE76F12833A356A2846B2
:100E000000210BF001FB00287FF41BAF012386F8C3
:100E1000E030237B607B1B1103EB001000F57A7040
:100E20000BF00AF960490BF05BF9002107460BF063
:100E300013FBB56AA0B1D6F8B480284641460BF042
:100E400047F8014638460BF0E9FA48B141462846D2
:100E50000BF03CF8014638460BF0FEFA00286FD143
:100E6000284600210BF0D0FA002869D1012386F82A
:100E7000E030237BE07A1B0203F47063184400F532
:100E80007A700BF0D9F848490BF02AF9002107468F
:100E90000BF0E2FA756AA0B1D6F8B4802846414654
:100EA0000BF016F8014638460BF0B8FA48B1414647
:100EB00028460BF00BF8014638460BF0CDFA002817
:100EC00040D1284600210BF09FFA00283AD1012397
:100ED00086F8E030E37BA07B1B0203F470631844C8
:100EE00000F57A700BF0A8F82F490BF0F9F8002103
:100EF00005460BF0B1FAF46A98B1D6F8B470204602
:100F000039460AF0E5FF014628460BF087FA40B162
:100F1000394620460AF0DAFF014628460BF09CFAD3
:100F200020B9204600210BF06FFA78B196F8E0B0B6
:100F3000F562F4E4776122E77760E5E5B761EBE617
:100F4000B76296E77762C5E7B760AAE54FF0010B95
:100F500086F8E0B0E3E40221144809F08BFE14485F
:100F600007F084FB0621134809F084FE00230A22BF
:100F700096F8D0100E4807F089FB19210E4809F0A9
:100F800079FE23680393D6F8DC20D6F8E430039981
:100F900007481344591A0A22002307F077FB044834
:100FA00007F064FB19E500BF6F12833AF0180100E7
:100FB000D487FF1F98060100A00601002DE9F84321
:100FC0000026D0F8B080C0F890608146041F00F180
:100FD0002C0754F8045F414628460BF03DFA0949B6
:100FE00050B128460BF01AFA30B1304629460AF0C3
:100FF0006FFF0646C9F89000BC42EAD13046BDE812
:10100000F88300BF0000A04002299ABF00EB8100D6
:10101000D0F89400002070473E2998BF80F8D01087
:10102000704700BF90F8B800704700BF90F8B90053
:10103000704700BFC0F8CC10704700BF80F8B810F0
:10104000704700BFC0F8B410704700BF80F8B910F7
:10105000704700BF30B50F4CC0F8B01083B02046C9
:101060000D4607F003FB204607F000FB28460AF078
:101070008DFB022502460B460095204607F050FBEB
:10108000204607F0F3FA204603B0BDE8304007F0F1
:10109000EDBA00BFD487FF1F70B5064600F12804E3
:1010A00000F565552046E834FFF7E0F9AC42F9D188
:1010B00006F58875012428460021FFF7BFFF214669
:1010C00028460134FFF7A8FF3F2C05F1E805F2D1CF
:1010D00043F6481400250548054A064B35550021BE
:1010E00030617161B261F361304670BD00007A44D5
:1010F000000048430000C8C270B500F5887401259F
:1011000000260DE0012620460021FFF79FFF29461B
:1011100020460135FFF780FF3F2D04F1E8040AD097
:101120002046FFF77FFF0028EDD02046FFF77EFF27
:101130000028E7D170BD304670BD00BF43F64C13A8
:101140002DE9F041002200F565578046C2500C376A
:1011500000F5887400F5655602E0E834B4420DD01D
:101160002046FFF75FFF0028F7D020463D68FFF7D5
:1011700051FAE8342844B4423860F1D143F64C13B4
:1011800058F80300BDE8F08138B50C78A4F12103CC
:10119000072B98BF183CA4F14103072B98BF303CA4
:1011A000A4F16203052B154609D8E823483C03FB4C
:1011B00004002830FFF792F9012D0AD038BDE8234A
:1011C00003FB04002830FFF789F9012DF6D1002C2C
:1011D000F4D0064807F04AFA2146044807F096FA88
:1011E0000B210348BDE8384009F044BDD487FF1FF8
:1011F000BC0601000B68A3F5D8732DE9F0417E2BE6
:1012000000F28180DFE813F0B901B501B1017F0080
:10121000AD01A901A5017F00A1019D0199017F00F8
:10122000950191018D017F008901850181017F0078
:101230007D01790175017F0071016D0169017F00F8
:10124000650161015D017F005901550151017F0078
:101250004D01490145017F0041013D0139017F00F8
:10126000350131012D017F002901250121017F0078
:101270001D01190115017F0011010D0109017F00F8
:1012800005010101FD007F00F900F500F1007F007C
:10129000ED00E900E5007F00E100DD00D9007F00FE
:1012A000D500D100CD007F00C900C500C1007F007E
:1012B000BD00B900B5007F00B100AD00A9007F00FE
:1012C000A500A1009D007F008100150211027F0092
:1012D0000D02090205027F000102FD01F9017F00F4
:1012E000F501F101ED017F00E901E501E1017F0078
:1012F000DD01D901D5017F00D101CD01C9017F00F8
:10130000C501C101BD01BDE8F0814FF000081925FC
:10131000012A174604460E4600F08F81E82000FBA4
:101320000544283420460121FFF788FE204601218C
:10133000FFF78CFE324641462046BDE8F041FFF7FC
:10134000DFBA4FF002081825E2E74FF00108182530
:10135000DEE74FF000081825DAE74FF002081725FE
:10136000D6E74FF001081725D2E74FF00008172500
:10137000CEE74FF002081625CAE74FF00108162500
:10138000C6E74FF000081625C2E74FF00208152502
:10139000BEE74FF001081525BAE74FF00008152504
:1013A000B6E74FF002081425B2E74FF00108142504
:1013B000AEE74FF000081425AAE74FF00208132506
:1013C000A6E74FF001081325A2E74FF00008132508
:1013D0009EE74FF0020812259AE74FF00108122508
:1013E00096E74FF00008122592E74FF0020811250A
:1013F0008EE74FF0010811258AE74FF0000811250C
:1014000086E74FF00208102582E74FF0010810250B
:101410007EE74FF0000810257AE74FF002080F250D
:1014200076E74FF001080F2572E74FF000080F250F
:101430006EE74FF002080E256AE74FF001080E250F
:1014400066E74FF000080E2562E74FF002080D2511
:101450005EE74FF001080D255AE74FF000080D2513
:1014600056E74FF002080C2552E74FF001080C2513
:101470004EE74FF000080C254AE74FF002080B2515
:1014800046E74FF001080B2542E74FF000080B2517
:101490003EE74FF002080A253AE74FF001080A2517
:1014A00036E74FF000080A2532E74FF00208092519
:1014B0002EE74FF0010809252AE74FF0000809251B
:1014C00026E74FF00208082522E74FF0010808251B
:1014D0001EE74FF0000808251AE74FF0020807251D
:1014E00016E74FF00108072512E74FF0000807251F
:1014F0000EE74FF0020806250AE74FF0010806251F
:1015000006E74FF00008062502E74FF00208052520
:10151000FEE64FF001080525FAE64FF00008052524
:10152000F6E64FF002080425F2E64FF00108042524
:10153000EEE64FF000080425EAE64FF00208032526
:10154000E6E64FF001080325E2E64FF00008032528
:10155000DEE64FF002084546DAE64FF001080225C4
:10156000D6E64FF000080225D2E64FF0020801252A
:10157000CEE64FF001084546CAE64FF000080125C7
:10158000C6E64FF002082025C2E64FF001082025EC
:10159000BEE64FF000082025BAE64FF002081F25EE
:1015A000B6E64FF001081F25B2E64FF000081F25F0
:1015B000AEE64FF002081E25AAE64FF001081E25F0
:1015C000A6E64FF000081E25A2E64FF002081D25F2
:1015D0009EE64FF001081D259AE64FF000081D25F4
:1015E00096E64FF002081C2592E64FF001081C25F4
:1015F0008EE64FF000081C258AE64FF002081B25F6
:1016000086E64FF001081B2582E64FF000081B25F7
:101610007EE64FF002081A257AE64FF001081A25F7
:1016200076E64FF000081A2572E64FF002081925F9
:101630006EE64FF0010819256AE6094807F016F82A
:101640002946074807F062F83946064809F012FBB8
:101650004146034807F05AF8014807F007F85DE6ED
:10166000D487FF1FC8060100704700BF704700BF46
:101670002DE9F043002383B00646036000F588742B
:10168000012504E001353F2D04F1E80466D0204631
:10169000FFF7C8FC0028F5D04E4800F0EDFC2946C5
:1016A0004D4800F0E9FC2046FFF788FC0AF06EF890
:1016B00002460B46494800F0DFFC2046FEF73EFF9D
:1016C00080462046FEF756FF074640460AF05EF881
:1016D0008046384689460AF059F842464B46CDE9DD
:1016E00000013F4800F0C8FC00212046FFF78CFCB9
:1016F000012180462046FFF787FC074640460AF056
:1017000045F88046384689460AF040F842464B463E
:10171000CDE90001334800F0AFFC2046FFF74EFC56
:10172000014630680AF0D4FB30602046FFF79CF891
:10173000B1690AF073FE002833D12046FEF76EFF30
:10174000F1690AF089FE00289CD02046FEF766FF6A
:1017500001353F2DF06104F1E80498D170680AF07A
:101760006BFC014630680AF06FFD71693060044619
:101770000AF072FE00B17461316920460AF04EFE33
:1017800000B134610B2007F097FD43F64813F35C7A
:1017900060B99BB143F648130122F25403B0BDE88F
:1017A000F0832046FFF760F8B061C6E753B943F60F
:1017B00048130022F25403B0BDE8F0830A4800F059
:1017C00089FCE7E7094800F06FFC43F64813002264
:1017D000F254F0E75C0E0100CC060100080701009E
:1017E0001C07010048070100640701009C07010075
:1017F000104B70B50646836000F5887400F565559A
:1018000002E0E834AC4213D02046FFF70BFC00287E
:10181000F7D02046FEF792FEB1680AF0FFFD0028DF
:10182000EFD02046FEF78AFEE834AC42B060EBD140
:10183000B06870BD0000A040002370B50646C360CC
:1018400000F5887400F5655502E0E834AC4213D029
:101850002046FFF7E7FB0028F7D02046FEF78AFE78
:10186000F1680AF0F9FD0028EFD02046FEF782FE6D
:10187000E834AC42F060EBD1F06870BD00687047AE
:10188000416070472DE9F041884617461E4600F535
:10189000887400F5655502E0E834AC4213D0204668
:1018A000FFF7C0FB0028F7D020464146FFF7C2FBF8
:1018B00020463946FFF7CEFB20463146E834FFF795
:1018C000C1FBAC42EBD1BDE8F08100BF2DE9F8438C
:1018D00043F644130027C7502B4A2C4B426200F5B5
:1018E000655680464FF000090362043600F588749F
:1018F00000F5655502E0E834A54213D02046FFF715
:1019000091FB0028F7D03368013333602046FEF79F
:1019100093FE1F490AF0A0FD88B9E834A54207F1FB
:101920000107EBD143F6441358F80300C01B0AF03B
:1019300083FB014648460AF087FCBDE8F883204651
:10194000FEF77AFE014648460AF0C2FA8146204672
:10195000FEF764FED8F820100AF07EFD70B920462C
:10196000FEF782FFD8F824100AF058FD0028C2D0F4
:101970002046FEF779FFC8F82400BCE72046FEF7B2
:101980004DFEC8F82000EAE700C0794400C079C4E1
:1019900000008CC2006A7047406A7047F8B507467D
:1019A000002600F5887400F5655502E0E834AC4285
:1019B0000FD02046FFF736FB0028F7D02046FEF771
:1019C000FBFD014630460AF083FAE834AC42064695
:1019D000EFD143F64413F8580AF02EFB0146304687
:1019E0000AF032FCF8BD00BF2DE9F04F06468FB07B
:1019F00083488B4600F0E8FA814800F0E5FA804819
:101A000000F0E2FA43F644133046F2580D92FFF725
:101A100095FB73680C930746306809F0B7FE804663
:101A200030468946FFF7BAFF82463046B468F5680B
:101A3000FFF74CFF09F0AAFECDE90A01214628462E
:101A40000AF044FA6F490AF04BFB09F09FFECDE91A
:101A50000801284609F09AFECDE90601204609F062
:101A600095FECDE90401504609F090FE0D9A0C9BBD
:101A7000CDE90201CDE90089114663483A4600F0FC
:101A8000A3FA5F4800F0A0FA06F588764FF0010946
:101A90004FF0000A07E009F10109B9F13F0F06F123
:101AA000E80600F0A5803046FFF7BCFA0028F2D027
:101AB0003046FEF72DFD3046FEF72EFD3046FEF790
:101AC0002FFD3046FEF730FD0821504809F0D2F8CE
:101AD00049464F4806F01AFEB9F1090F40F38B80D2
:101AE00002214C4809F0C6F83046FFF767FA09F0C2
:101AF0004DFE5FFA8BF802460B46CDF80080444855
:101B000006F00EFE0121444809F0B4F855460024C1
:101B100020E00621414809F0ADF829463C4806F08E
:101B2000F5FD02213E4809F0A5F821463046FEF7B2
:101B3000FFFC09F02BFECDF8008002460B4634482E
:101B400006F0EEFD01340121334809F093F80C2C26
:101B500009D03D46092D05F10107DADC01213148A4
:101B600009F088F8D5E72A4806F080FD09212E48BB
:101B700009F080F800213046FFF746FA09F006FE2A
:101B8000022402460B460094214806F0C9FD0A21B2
:101B9000264809F06FF801213046FFF735FA09F0C1
:101BA000F5FD009402460B46194806F0B9FD0A21DE
:101BB0001F4809F05FF821463046FFF725FA09F083
:101BC000E5FD009402460B46114806F0A9FD0121EF
:101BD000184809F04FF809F101090D4806F046FDD3
:101BE000B9F13F0F0AF10C0A06F1E8067FF45BAF8A
:101BF0000FB0BDE8F08F01210A4809F03BF86FE70C
:101C00005C0E010000007A444C0A0100EC0A01005D
:101C1000D487FF1FF0180100F80A0100FC0A010038
:101C2000DC0C0100EC0C0100040B0100100B0100A6
:101C30001C0B0100280B01002DE9F04F85B000F5C9
:101C400088758A4603929B462E464FF0010806E0AF
:101C500008F10108B8F13F0F06F1E8067BD03046E5
:101C6000FFF7E0F90028F3D000230A2251467D480F
:101C700006F00CFD01217C4808F0FCFF039809F0F8
:101C800085FD00230246009376480B4606F048FD8A
:101C90000121754808F0EEFF5946724806F036FDFE
:101CA0000121714808F0E6FF41466E4806F02EFD1E
:101CB00001216D4808F0DEFF00244FF002092146A3
:101CC0003046FEF735FC09F061FDCDF80090024684
:101CD0000B46644806F024FD01340121624808F0F7
:101CE000C9FF082C4FF00207E9D100213046FFF769
:101CF0008BF909F04BFD009702460B46594806F058
:101D00000FFD0121584808F0B5FF01213046FFF7CB
:101D10007BF909F03BFD009702460B46514806F05F
:101D2000FFFC0121504808F0A5FF39463046FFF777
:101D30006BF909F02BFD009702460B46494806F067
:101D4000EFFC08F10108474806F090FCB8F13F0F9E
:101D500006F1E80683D101274FF0000904E00137BE
:101D60003F2F05F1E80579D02846FFF75BF90028F9
:101D7000F5D000230A2251463C4806F087FC012199
:101D8000394807F0AFFD039809F000FDCDF8009049
:101D900002460B46354806F0C3FC0121324807F0E5
:101DA000A1FD5946314806F0B1FC01212E4807F04B
:101DB00099FD39462D4806F0A9FC01212A4807F073
:101DC00091FD00244FF0020821462846FEF7B0FBA3
:101DD00009F0DCFCCDF8008002460B46234806F0F3
:101DE0009FFC01340121204807F07CFD082C4FF0B6
:101DF0000206E9D100212846FFF706F909F0C6FCE2
:101E0000009602460B46194806F08AFC0121164846
:101E100007F068FD01212846FFF7F6F809F0B6FC47
:101E2000009602460B46114806F07AFC01210E4846
:101E300007F058FD31462846FFF7E6F809F0A6FC02
:101E4000009602460B46094806F06AFC013707482F
:101E500006F00CFC3F2F05F1E80585D105B0BDE883
:101E6000F08F00BFD487FF1FC8060100B887FF1F8F
:101E7000014B1870704700BF2087FF1F0278002AAF
:101E800000F0908070B5034682B00D46252A2AD115
:101E900058785C1C08B325282FD0732831D06428CB
:101EA00024D0692822D066284FD07A2859D07828A3
:101EB00035D058282FD062283ED0422838D06C2800
:101EC00014D0632812D0742857D054285FD008F05B
:101ED00055FF6278631C002AD8D1344802B0BDE8AF
:101EE000704006F0C3BB18781C46F0E72B1D29682C
:101EF0002E481D4606F00AFCEBE7104608F03EFFB0
:101F0000E7E72E6830460BF0DBF801463046043533
:101F100008F0B0FEDDE70221254808F0ABFE2E1DDB
:101F20002968224800231022354606F0AFFBD0E78F
:101F30000221204808F09EFE2E1D29681B48002320
:101F40000222354606F0A2FBC3E7073525F0070558
:101F50000321D5E9002315480091083506F0E0FB80
:101F6000B7E7073525F007050021D5E900230F481D
:101F70000091083506F0D4FBABE7296801290EBFB4
:101F80000D480E480121043508F074FEA1E72B68C6
:101F9000012B07BF04210A480A480521043508F02F
:101FA00069FE96E7014806F061BB00BFD487FF1FBA
:101FB0002C0B0100300B0100340B0100380B010029
:101FC0003C0B0100440B01000FB400B583B004A921
:101FD00051F8040B0191FFF751FF03B05DF804EBDA
:101FE00004B0704770B51B4B1B4C1B6882B00D468C
:101FF0000193019B236019460446002316461748A7
:102000000A2206F043FB0321154808F033FE032C97
:1020100007D8DFE804F01A1510020521114808F06E
:1020200029FE0221104808F025FE31462846FFF718
:1020300025FF02B070BD07210C4808F01BFEF0E739
:1020400004210B4808F016FEEBE70521094808F0CB
:1020500011FEE6E724D0FF1F5492FF1FD487FF1F15
:102060004C0B0100680B0100DC0C0100600B01004F
:10207000580B0100500B01000FB400B5094B187844
:1020800083B020B103B05DF804EB04B0704705AB3A
:102090001A4604990193FFF7A5FF03B05DF804EB1E
:1020A00004B070472087FF1F0FB4094B00B51B78A1
:1020B000012B83B004D903B05DF804EB04B0704782
:1020C00005AB1A46049901930120FFF78BFFF2E755
:1020D0002087FF1F0FB40B4B00B51B78032B83B079
:1020E00004D903B05DF804EB04B0704705AB1A46A1
:1020F000049901930320FFF775FF03B05DF804EB2B
:1021000004B070472087FF1F30B4074D074C0849C3
:1021100000232B70236003654365836580F85C3082
:102120000B6030BC704700BF6092FF1F5C92FF1FC6
:102130005892FF1F0A4A0B49D06D936D03FB00F3C1
:102140004FF47A7000FB03F0642310B50B6009F0C4
:1021500073FF0549054C0AF077F8206010BD00BFF9
:102160004493FF1F3487FF1FE4388E3E9492FF1F75
:102170002DE9F0414448454F454C464DDFF8448138
:10218000FFF722FF444B4548DFF83CE14449454A0C
:102190005860122600201E70DF60434E434F1C61C2
:1021A000C3F828E04FF07C544FF00C0E59619A614F
:1021B0003F49404ADD6218633F4D40485E639F637C
:1021C00040F61C460A275C64C3F854E041F204045C
:1021D000DFF8F8E09964DA64022101221D62C3F895
:1021E000C400374DDE66002064261F675C674FF42D
:1021F00096773224C3F81CE0C3F83CE04FF05A0E47
:10220000597059721A729A6583F840009F661F666A
:102210005C665D62DE654FF47A7CC3F878E044F674
:102220002067DFF8ACE0D867C3F88010C3F88400FB
:10223000C3F89C40C3F8AC40C3F8A800C3F8B4206E
:10224000C3F8B810FF2441F28831052083F8C82074
:1022500040F2D662C3F8BC601D65C3F8A0C0C3F8E5
:1022600090E0C3F89480C3F88C70C3F8B040A3F832
:10227000C200C3F89810A3F8C010A3F88820A3F8F0
:102280008A20BDE8F08100BF700B010066668640C1
:1022900000004040000020C14493FF1F20A1070020
:1022A00033338340CDCC4C40000020420000A0409E
:1022B0009A9979400AD7233D333373409A99993ECE
:1022C000CDCCCC3D00C0204400008242CDCC4C3E61
:1022D00000006842F0B54FF47A6087B007F022F84A
:1022E00000210F2006F0F6FF00210E2006F0F2FF7D
:1022F0000021112006F0EEFF0021102006F0EAFF79
:102300000021122006F0E6FF0021132006F0E2FF74
:1023100001210B2006F0DEFF00210B2006F0C6FF96
:1023200001210C2006F0D6FF00210C2006F0BEFF94
:102330000121142006F0CEFF0021142006F0B6FF84
:102340000121152006F0C6FF0021152006F0AEFF82
:102350000121162006F0BEFF0021162006F0A6FF80
:102360000121172006F0B6FF0021172006F09EFF7E
:102370000121052006F0AEFF0021052006F096FFA2
:102380000121062006F0A6FF984C994D0021062059
:1023900006F08CFF01210D2006F09CFF208809F03B
:1023A00047FE0146162006F0FFFE208809F040FE99
:1023B0000146172006F0F8FE208809F039FE014694
:1023C000052006F0F1FE208809F032FE00240146C7
:1023D000062006F0E9FE00942346864A864987488F
:1023E00004F0B2FF2B79824984486FF30003E2B214
:1023F00001342B7104F06EFF082CF3D109242B79E2
:102400007B497E4843F00103E2B201342B7104F0B2
:1024100061FF0D2CF3D17A4D4FF0FF322868102167
:1024200005F05EFB28684FF0FF32102105F030FB0D
:1024300028684FF0FF32022105F03EFB28684FF07C
:10244000FF32022105F042FB00220F21286805F02F
:1024500051FB0C216B4808F00DFC6B4806F006F9A7
:1024600021466A4808F006FC674806F0FFF840F28B
:10247000836007F015F8644806F0F8F817216448FF
:1024800008F0F8FB604806F0F1F8624B1B789A06FA
:1024900000F1E4805F4B1B781B0700F1EB805D4B84
:1024A0001B785F0700F1F2805A4B1B789E0700F102
:1024B000F980594B1B781D0600F10081564B1B78A3
:1024C0005C0600F10781544B1B78980600F10E81E1
:1024D000514B1B78590700F115814F4B1B781A0798
:1024E00000F11C814C4B1B789B0700F1238146486F
:1024F00006F0BCF872B6494A4CF220534DF628114A
:102500002024138023461180013BFDD1444D4548D2
:10251000454900234FF480562E8003800B8032F80B
:102520000E3C9BB243F0D30322F80E3C62B640F25D
:10253000413007F061FB21463C483D4D08F09AFBD5
:10254000314806F093F805F1CC062F462C46601B67
:1025500006F0FAFA04F8010BB442F8D13B78122BDA
:1025600004D0294806F082F8FFF702FE3148324CC9
:10257000FFF77CF80420FFF77BFC304B2D4800224E
:102580001A60FFF771F801210D2006F08FFEB96D7A
:102590002848FFF775F93B6D7A6C97F8401025488D
:1025A000FFF770F9264B27491B68274AD7F8A40084
:1025B000126881FB0351DB17A3EB211313FB02F31A
:1025C0000128238000F0BE80204B214C1A68059220
:1025D000059D1A68049204981B6803931D491E4BBD
:1025E000039A256008601A6007B0F0BD2887FF1FB6
:1025F0002494FF1FFCCFFF1F20A1070060CEFF1F08
:10260000D894FF1F900B0100D487FF1FA00B01007F
:10261000B00B010001F0074000F007400E2005401C
:10262000042005400620054016200540B40C01009A
:102630004493FF1F1095FF1FE494FF1F7492FF1F28
:102640006487FF1F1F85EB516087FF1F24D0FF1F8A
:102650000C95FF1F2C94FF1FE894FF1F21213C487D
:1026600008F008FB3B4806F001F83B4B1B781B07C2
:102670007FF515AF0C21394808F0FCFA354805F014
:10268000F5FF354B1B785F077FF50EAF0E21344801
:1026900008F0F0FA2F4805F0E9FF2F4B1B789E0752
:1026A0007FF507AF17212F4808F0E4FA294805F015
:1026B000DDFF2D4B1B781D067FF500AF0E212B484B
:1026C00008F0D8FA234805F0D1FF274B1B785C06A9
:1026D0007FF5F9AE1221264808F0CCFA1D4805F026
:1026E000C5FF214B1B7898067FF5F2AE13212148D8
:1026F00008F0C0FA174805F0B9FF1B4B1B785907C3
:102700007FF5EBAE1C211C4808F0B4FA114805F027
:10271000ADFF154B1B781A077FF5E4AE192117485A
:1027200008F0A8FA0B4805F0A1FF0F4B1B789B0798
:102730007FF5DDAE1821124808F09CFA054805F037
:1027400095FFD4E64FF4967006F0ECFD3CE700BF31
:10275000C80B0100D487FF1F01F00740EC0B0100FC
:10276000FC0B01000C0C010000F00740240C0100E0
:10277000340C0100480C01005C0C01007C0C0100D1
:10278000980C010070B5464C464D4748E66800235A
:102790002B70FFF751F80146304609F03FFE08B1B3
:1027A00004232B704048FFF723F8216909F036FE17
:1027B00018B12B7843F010032B703B48FFF7EAF871
:1027C000A16A09F049FE18B12B7843F040032B7041
:1027D000002335486B70FFF7DFF8E16A314E09F0EE
:1027E0001DFE08B10123737000232F48EB70FFF723
:1027F00023F805462C482B4EFEF7FAFF01462846E3
:1028000009F064FBE16B09F027FE08B10123F370C6
:10281000264D254800232B70FFF70EF8616A064607
:10282000E06809F053FB0146304609F015FE08B197
:1028300004232B701C48FEF7DBFF616A0646206903
:1028400009F046FB0146304609F0E8FD18B12B7847
:1028500043F010032B701448FFF79CF8A16B064659
:10286000A06A09F033FB0146304609F0F5FD18B1C6
:102870002B7843F040032B7000230B486B70FFF75D
:102880008BF8A16B0546E06A084C09F021FB014674
:10289000284609F0C3FD08B10123637070BD00BF75
:1028A0004493FF1F4093FF1F1095FF1FCC94FF1F01
:1028B0002DE9F0417C4C2368012B82B031D0022BF2
:1028C00000F0A880032B00F0C8803BBB774B784A10
:1028D000D3F8AC10D3F8B03012685B1A632B0EDD5E
:1028E000744803FB02F380FB0302DB17C3EB6213A4
:1028F0001944062002B0BDE8F04106F057BB6E480F
:1029000003FB022380FB0302DB17C3EB22121144FB
:10291000062002B0BDE8F04106F048BB02B0BDE8B9
:10292000F081664E33680A33B3F57A7F00F3B780DF
:102930001846336009F080FB614909F0D1FB8046FD
:102940005A4DD5F8AC0009F077FB0746D5F8B00032
:1029500009F072FB394609F0B9FA414609F0C0FBAB
:10296000584909F071FC394609F0B2FA09F07EFDC8
:102970000146062006F01AFB0221534808F07AF9B6
:10298000524805F073FE0621514808F073F930688B
:1029900009F052FB4A4909F0A3FB08F0F7FE0227B1
:1029A00002460B460097494805F0BAFE0D214948FA
:1029B00008F060F9D5F8AC0009F03EFB80463068BD
:1029C00009F03AFB3E4909F08BFB0646D5F8B0000A
:1029D00009F032FB414609F079FA0146304609F028
:1029E0007FFB384909F030FC414609F071FA08F0E4
:1029F000CDFE00970B460246344805F091FE39465D
:102A0000314808F037F9314805F030FE2368022BD1
:102A10007FF458AF294B254E00221A60D6F8AC003F
:102A200009F00AFB0546D6F8B00009F005FB294677
:102A300009F04CFA002109F053FB224909F004FC8B
:102A4000294609F045FA09F011FD0146062006F075
:102A5000ADFA2368032B7FF438AF184B134E4FF4B5
:102A60007A721A60D6F8AC0009F0E6FA0546D6F894
:102A7000B00009F0E1FA294609F028FA114909F0F5
:102A80002FFB104909F0E0FB294609F021FA09F073
:102A9000EDFC0146062006F089FA236815E70023BD
:102AA0004FF0000833604BE7B094FF1F4493FF1FC3
:102AB0003487FF1F1F85EB51CBF08D287892FF1FC5
:102AC000CDCCCC3D0000C842F0180100D487FF1FD8
:102AD000D80C0100E00C010070B5B548B54C05F00C
:102AE000C5FDB34805F0C2FDB14805F0BFFD0D219D
:102AF000B14808F0BFF8D4F8A830012B11D0AF4C82
:102B0000AB48217800230A2205F0C0FD2378052B6D
:102B100067D8DFE813F006010B01100115011A0157
:102B200001010921A64808F0A5F8A648FEF760FEB5
:102B3000216909F073FC18B10F21A34808F09AF835
:102B4000A048FEF779FEE16809F086FC18B10E2175
:102B50009E4808F08FF89B48FEF76EFE05469948A0
:102B6000FEF746FE0146284609F0B0F9E16B09F090
:102B700073FC18B11121964808F07CF89148FEF7D3
:102B8000A5FEA16A09F068FC18B10C21914808F073
:102B900071F88C48FEF79AFEE16A09F03FFC18B123
:102BA0000D218D4808F066F88C4B86481B68012B78
:102BB00000F0E880FEF71CFE21697E4D09F04CFC18
:102BC00078B18048FEF738FEE96809F027FC40B18B
:102BD0007A4B1B78052B00F0E6800821804808F02E
:102BE00049F802217F4808F045F8122006F064FBFE
:102BF000012800F0AF80112006F05EFB012800F0F4
:102C0000B380794B1B68012B00F0B7800221754817
:102C1000764C08F02FF8764B6548196805F076FD7C
:102C2000634805F023FD0421724808F023F80B20C7
:102C300006F042FB002301460A225D4805F026FD0E
:102C40000C2006F039FB002301460A22584805F003
:102C50001DFD142006F030FB002301460A225448D3
:102C600005F014FD152006F027FB0A22002301467B
:102C70004F4805F00BFD06215F4807F0FBFF236876
:102C8000DD074FF001014CBF5C485D4807F0F2FFE3
:102C9000236898074FF001014CBF5848584807F087
:102CA000E9FF23685A074FF001014CBF53485448CD
:102CB00007F0E0FF23681B074CBF50485048012134
:102CC00007F0D8FF04214F4807F0D4FF112006F089
:102CD000F3FA002301460A22354805F0D7FC1020FC
:102CE00006F0EAFA002301460A22314805F0CEFC3C
:102CF000122006F0E1FA002301460A222C4805F0D2
:102D0000C5FC132006F0D8FA002301460A22284801
:102D1000BDE8704005F0BABC07213B4807F0AAFFA8
:102D20005FE70621394807F0A5FF5AE70721384831
:102D300007F0A0FF55E70721364807F09BFF50E753
:102D40000821354807F096FF4BE70B21334807F081
:102D500091FF46E70E21324807F08CFF112006F064
:102D6000ABFA01287FF44DAF0A212E4807F082FF0D
:102D70001D4B1B68012B7FF449AF11212A4807F036
:102D800079FF43E7FEF734FD216A09F065FB00286F
:102D90003FF423AF1621254807F06CFF0A21244891
:102DA00007F068FF1DE70A21214807F063FF18E7D5
:102DB000D487FF1F4493FF1FF00C0100C894FF1F2E
:102DC000000D01001095FF1F0C0D01001C0D0100EE
:102DD0002C0D0100400D0100500D01008492FF1FD9
:102DE000840D0100F0180100E094FF1F1094FF1FF4
:102DF000B494FF1FF80D0100000E0100080E010041
:102E0000941A01000C0E0100C00D0100900D01008C
:102E1000980D0100AC0D0100B40D0100A00D0100E2
:102E2000C80D0100D80D0100E40D0100600D010086
:102E3000780D01002DE9F04FAF4CD4F88030012B14
:102E40008DB000F08181032BDFF8F08262D0AB4EB1
:102E5000AB4FE36FAB48012B09BF3968396801F10B
:102E60000041396005F038FA3368002B40F02981C1
:102E7000A448DFF8C89205F005FA3368C8F80000E6
:102E80000546002B40F0CC80D4F880309A4A012BC4
:102E900000F0DB809C49284609F0DEFAC0B99B4966
:102EA000284609F0BBFA98B9994A9A4B12680B92D6
:102EB0000B9A1A60D4F8B40009F0BEF8294609F05C
:102EC0000FF90023C8F800003B600DB0BDE8F08F9B
:102ED000DFF83CA28F4EDAF800300A930A98336884
:102EE000DFF85C92C01A09F0A3F8294609F0F8F857
:102EF000894909F0A9F9884909F0A6F9D9F800101B
:102F000008F0E6FFDAF800300993099BC9F80000E1
:102F10003360CFE7814D824E2868012300220F21C4
:102F2000336004F0E7FD3368744E012B336800F022
:102F30003181002B40F0CE8100212868DFF8049217
:102F4000764F04F029FE33681FFA80FBC9F800B001
:102F5000002B40F0A48100212868694FDFF8BCA154
:102F600004F0A0FDB4F88A3040F6E44101FB0BF117
:102F7000B1FBF0F0C01A00B209F05EF8694983466F
:102F8000D4F8900009F0ACF80146584609F05CF915
:102F9000D9F800303860632BDFF8A8B100F37381F3
:102FA00000233B603368002B3FF453AF02215E489F
:102FB00007F060FED9F80020286840F6E4430021BD
:102FC00003FB02F504F06EFDB5FBF0F009F030F8FC
:102FD0000546B4F88A0009F02FF80146284608F0A3
:102FE00075FF08F0D3FB022502460B4600954F48BB
:102FF00005F096FB29464C4807F03CFE386808F07F
:10300000C5FB009502460B46484805F089FB29465A
:10301000474807F02FFE2946434807F02BFE18E7E4
:1030200008F0B4FB022502460B4600953F4805F028
:1030300077FB04213F4807F01DFED4F88030D9F813
:1030400000502D4A012B7FF425AF354B1B68012B17
:1030500000F04C81022B7FF42DAFD2F88C6030460B
:1030600008F0EAFF294609F0D9F940B9704208F0A2
:10307000E3FF294609F0F0F9002800F06A81DFF843
:1030800090A0244EDAF80030079307983368DFF8F1
:10309000B090C01A08F0CCFF294609F021F81E496B
:1030A00009F0D2F81C4909F0CFF8D9F8001008F05F
:1030B0000FFFDAF800300693069BC9F80000336072
:1030C000F8E6104805F0DEF808F060FB022502463D
:1030D0000B460095154805F023FB0321164807F021
:1030E000C9FDD4F88C10114805F010FB03211248DB
:1030F00007F0C0FDBCE600BF4493FF1F0495FF1F0F
:103100008092FF1F1C93FF1F0000FA430000FAC3C8
:1031100024D0FF1F6492FF1F00007A44D894FF1F41
:103120005487FF1FACC52737F0180100D487FF1F55
:10313000500E0100580E0100540E01008C92FF1F2A
:103140009492FF1F3C93FF1FDFF8B882D4F88C6085
:10315000D8F80050304608F06FFF294609F07CF996
:1031600048B1704208F068FF0146284609F074F93A
:1031700000287FF4CFAE914D914E286802230022A3
:103180000E21336004F0B6FC33688E4E012B336899
:103190007FF4CFAE002B40F0FE8000212868DFF8DE
:1031A0006892864F04F0F8FC33681FFA80FBC9F878
:1031B00000B0002B40F0D48000212868824F04F03A
:1031C00071FCB4F8883040F6E44A0AFB0BFBBBFB09
:1031D000F0F0C01A00B208F02FFF7C498346D4F803
:1031E000940008F07DFF0146584609F02DF8D9F803
:1031F00000303860002128680AFB03FA04F052FC12
:10320000B4F88830BAFBF0F00FFA80FAC3EB0A0387
:10321000002BB4F8C220B8BF5B429342BCBF00236E
:103220003B603368002B3FF414AE0221684807F07E
:1032300021FDD9F80020286840F6E443002103FB73
:1032400002F504F02FFCB4F88810B5FBF0F000B2E2
:10325000411A604805F05AFA02215D4807F00AFD5C
:10326000386808F093FA022502460B460095594843
:1032700005F056FA0321584807F0FCFC294654484B
:1032800007F0F8FCE5E5DAF80000002104F00AFC9C
:10329000DBF8003064389842FFF482AE82E6002109
:1032A000386804F0FFFB40F6E44100230A2201FBEA
:1032B0000BF1B1FBF0F1474805F0E8F90221444871
:1032C00007F0D8FCB4F88A10424805F01FFAD9F884
:1032D00000B040E63F4805F0C9F90C213F4807F02F
:1032E000C9FC0C213E4807F0C5FC25E63D492846AF
:1032F00009F0B2F858B93C49284609F08FF830B9BE
:103300003A4A3B4B12680592059A1A60D2E5DFF8FB
:10331000DCA0374EDAF80030049304983368DFF805
:10332000EC90C01A08F084FE294608F0D9FE314915
:1033300008F08AFF2F4908F087FFD9F8001008F03D
:10334000C7FDDAF800300393039BC9F8000033602F
:10335000B0E5264A264B12680892089A1A60A9E539
:103360000021386804F09EFB40F6E44100230A2265
:1033700001FB0BF1B1FBF0F1164805F087F90121D3
:103380001D4807F077FCB4F88810124805F0BEF924
:10339000D9F800B010E70F4805F068F9D4F880308C
:1033A000012B4FF00B010CBF1448154807F062FCCD
:1033B0000C210B4807F05EFCEFE600BFD894FF1F1E
:1033C0005487FF1F0495FF1F8092FF1FACC527374E
:1033D000F0180100D487FF1F3C0E0100400E0100D1
:1033E0002C0E01000000FA430000FAC324D0FF1F96
:1033F0006492FF1F00007A44EC0C0100140E0100DF
:10340000200E01008C92FF1F3C93FF1F9492FF1F20
:103410002DE9F04F914D2B6883B0002B00F0838095
:103420008F4CDFF84482D4F88430DFF87C928D4EE4
:103430008B4F012B00F0B380D6F800A0D7F85CB01A
:10344000BD6D894F05FB0BF54FF47A7000FB05F05D
:1034500008F0F2FD85490546504608F041FE294630
:1034600008F0F2FE824908F03BFE08F0FFFF6328F7
:10347000C8F800004CDD28467C4908F0E5FE6423CE
:103480003B60D9F800303060002B49D0D4F8803050
:10349000734D012B00F0B180032B00F0D780022B7D
:1034A00000F0CF800221734807F0E4FB724B1868EC
:1034B00008F06CF9022402460B4600946F4805F0B0
:1034C0002FF921466E4807F0D5FB2146694807F0E1
:1034D000D1FBD8F80010694805F018F906216948B1
:1034E00007F0C8FB3068614908F0FAFD08F04EF9B2
:1034F000009402460B46614805F012F90321624828
:1035000007F0B8FB5D4803B0BDE8F04F05F0AEB87A
:103510000028BCBF00233B60D9F80030002BB5D198
:1035200003B0BDE8F08F59484D4CFEF737FA5849C3
:10353000E76E266F08F0D4FD08F0BEFF626FA36F40
:10354000D21B9B1B80B29A42A0EB070062DC03FBFC
:1035500000F393FBF2F31E44DFF84C91DFF808818F
:10356000D9F80030C8F80060002B5AD13346E06D1E
:10357000A26D3C4E3A4F00FB03F002FB00F000EB63
:103580008000400008F058FD384908F05DFE012336
:103590002B60D4F884303060012B7FF44DAF3B4872
:1035A000FEF7FCF93A49D7F86CA03D6F08F098FD9A
:1035B00008F082FF7A6FBB6FD4F85CB0CAEB0202EE
:1035C0005B1B80B29A42CAEB0000C6BF03FB00003F
:1035D0000132584390FBF2F02844A56D00FB0BF03C
:1035E00005FB00F000EB8000400008F025FD1F49BE
:1035F00008F02AFE8246306023E7264B1B68012B29
:103600004FF00A010CBF2448244807F033FBD5F8DB
:10361000803041E703FB0000531C90FBF3F00644AD
:103620009AE70221134807F025FBD8F80010134849
:1036300005F06CF802210F4807F01CFBD8F80030A9
:1036400095E70721164807F015FB2BE710211548D1
:1036500007F010FBD4F8803021E700BF7C92FF1FF9
:103660004493FF1F9492FF1F3487FF1FE4388E3E60
:103670000000C842F01801008C92FF1FD487FF1F82
:10368000500E0100940E01009C0E01001095FF1FCA
:1036900000007A445487FF1F600E01006C0E010089
:1036A0008C0E0100780E01003C87FF1F30B5112001
:1036B00083B005F001FE012818D0122005F0FCFDB2
:1036C000012813D000210B2005F0F0FD00210C2073
:1036D00005F0ECFD0021152005F0E8FD2649274BFB
:1036E0000120002208701A6003B030BD01211520AE
:1036F00005F0DCFD224A234C234B1268D4F89810C5
:1037000001921B68019A1D4D0B4493424FF0020138
:10371000296005D901210C2005F0C8FD03B030BD9A
:10372000D4F8A00008F088FC184B196808F076FE61
:103730000028EFD101210B2005F0B8FD94F8C83026
:1037400003242C6043B10C4B02221A7000210C2080
:1037500005F0ACFD03B030BD122005F0ADFD012831
:1037600008BF054B4FF0110008BF1C7005F0A4FD09
:103770000128EBD1E7E700BFC894FF1F0095FF1FAA
:1037800024D0FF1F4493FF1F0C95FF1F8C92FF1F37
:10379000F0B5684E684D34682B689C4287B039D0CC
:1037A00014F0010155D014F0020149D014F00401C5
:1037B0003DD0E3070ED52B68DF070BD45F4F3A6887
:1037C000002A00F082805E4B1B680193019B9342AC
:1037D0006DD83468A0070DD52B6899070AD4594FC6
:1037E0003A68002A4CD0564B1B680393039B9342C4
:1037F00038D8346862070DD52B685B070BD4524F5D
:103800003A68002A7ED04E4B1B680593059B934275
:1038100068D834680CB107B0F0BD2146162005F019
:10382000C5FB2146172005F0C1FB07B0F0BD052000
:1038300005F0BCFB2B68346803F0FB032B60B8E792
:10384000172005F0B3FB2B68346803F0FD032B60F1
:10385000ACE7162005F0AAFB2B68346803F0FE03E2
:103860002B60A0E7394B1720D3F89C1005F09EFB86
:103870002B68346843F0020300222B603A60B9E7FA
:10388000334804F0F3FE0C21324807F0F3F93048D6
:1038900004F0ECFEFF21172005F088FB284B2E4A90
:1038A00019680291029912680A443A609CE7274B12
:1038B0001620D3F89C1005F079FB2B68346843F090
:1038C000010300222B603A6084E7FF21162005F0F7
:1038D0006DFB1B4B204A19680091009912680A443D
:1038E0003A6071E7194B0520D3F89C1005F05EFB98
:1038F0002B68346843F0040300222B603A60002CEC
:1039000089D18AE7124804F0B1FE0C21134807F070
:10391000B1F90F4804F0AAFEFF21052005F046FB8F
:10392000074B0D4A19680491049912680A443A60D9
:103930006AE700BF0095FF1F1094FF1F9494FF1FBC
:1039400024D0FF1F9894FF1F9C94FF1F4493FF1FD8
:10395000D487FF1FA00E01007487FF1FB00E010067
:103960002DE9F047544EDFF87481DFF87491306828
:10397000524D00220F2104F0BDF800230122222124
:103980004F48C8F80030C9F8002007F073F9D8F89C
:103990000030132B22DC40F6E44700213068B5F8F4
:1039A00088A004F0F9F800210446306804F07AF8A1
:1039B000A4B2012107FB04F4B4FBF0F441485444E1
:1039C000A5F8884007F056F9642005F0ABFCD8F85C
:1039D00000300133132BC8F80030DEDDB5F8883035
:1039E000394A3A48A2FB03129B1A02EB5303C3F372
:1039F0000F131946A5F8883004F088FE1D213448BD
:103A000007F038F90221334807F034F92F4804F061
:103A10002DFE00231A460E213068C8F8003004F04D
:103A200069F8022322212648C9F8003007F022F95C
:103A3000D8F80030132B22DC40F6E4470021306830
:103A4000B5F88A9004F0A8F800210446306804F024
:103A500029F8A4B2012107FB04F4B4FBF0F41948DF
:103A60004C44A5F88A4007F005F9642005F05AFC9B
:103A7000D8F800300133132BC8F80030DEDDB5F87C
:103A80008A30114A1148A2FB03129B1A02EB53031E
:103A9000C3F30F131946A5F88A3004F037FE1D2131
:103AA0000D4807F0E7F802210A4807F0E3F8074855
:103AB000BDE8F04704F0DABDD894FF1F4493FF1F20
:103AC000C00E0100040F010087611886D487FF1F14
:103AD000E40E0100F0180100080F0100B894FF1F68
:103AE0005487FF1FA64B2DE9F0411B68A54CA64D3E
:103AF00040F2513108222160E271686D002B40F0E4
:103B0000EE8008F099FA6969064608F0E9FA9F49DB
:103B10009D4F08F0E5FA08F0CFFC80B20312637203
:103B20009B4A9C4B12681B68A969A37215121B1251
:103B3000E372227320726573304608F0D1FA93491C
:103B4000904D08F0CDFA08F0B7FC83B21A1229465E
:103B50009148A373E27303F0EFFD904B904A1B680A
:103B60001288A272DEB206EB8601267203EB830690
:103B7000490046F3D71640F2553E12124FF00008A6
:103B80001B1221736673294608268348C4F800E097
:103B9000E2726372E67184F80E8084F80F8003F09D
:103BA000CBFD40F256337F482360E671FDF766FE99
:103BB0007D4908F095FA08F07FFC20727948FDF7FE
:103BC0005DFE794908F08CFA08F076FC774A764970
:103BD000C0F307236372106808F036FB08F046FC58
:103BE00040FA06F203466F48E272A372FDF76EFEDA
:103BF000664908F075FA08F039FC20736948FDF74A
:103C000065FE624908F06CFA08F030FC294640F382
:103C100007236148637384F80E8084F80F8003F0F3
:103C20008BFD022005F07EFB614A624B10785178D3
:103C3000207290786172D2781978A072987893F88F
:103C400001E0E2722173DA78A07340F25A33294618
:103C5000514884F80DE0E2732360E67103F06CFDD7
:103C6000554B4D481A785978227261729A78D978F2
:103C7000A272E1721A79597993F806E0227361739E
:103C8000DA7984F80EE040F25E332946E27323606D
:103C9000E67103F051FD022005F044FB474B3E481E
:103CA0001A785978227261729A78D978A272E17280
:103CB0001A79597993F806E022736173DA79E6711B
:103CC0004FF45C732946236084F80EE0E27303F03E
:103CD00033FD3B4B1B68012B06D0BDE8F08108F09B
:103CE000ABF9296A064610E72E48FDF781FDF96C0D
:103CF00008F0EEF880462B48FDF79EFD0146404651
:103D000008F08CFB0028E8D040F2C3332548EE7160
:103D10002B60FDF76DFDBE6C314608F07FFBC8B12E
:103D20002849304608F0DCF908F0C6FB80B20312DF
:103D300068722B720023012604250322A672E57205
:103D400022736373A373E3730E491348BDE8F04114
:103D500003F0F2BC1348FDF74BFD1A4908F0C0F917
:103D600008F0AAFBC0F307230E482B72FDF740FDB5
:103D7000144908F0B5F908F09FFB6872DAE700BF54
:103D80008492FF1FF094FF1F4493FF1F0000204107
:103D9000D494FF1F6C92FF1F60CEFF1F3487FF1F5C
:103DA0003887FF1F1095FF1F0000C8428C92FF1F2D
:103DB0004093FF1FCC94FF1F2C87FF1F5887FF1FC6
:103DC000E094FF1F00007A44F0B5AC4CAC4D83B0DA
:103DD00006F0EAFE23682860042B00F0CA82022B5A
:103DE00000F0BE80082B47D0072B40F06F813328AE
:103DF00001F0378400F34883312801F045843228EC
:103E000043D106F00DFF002840F35E819D489E4E91
:103E100004F0C0FD08F010F99C4908F061F9612335
:103E20000122F06322602B601846A0F152031F2B81
:103E300001F20784DFE813F0930B050C050C050C69
:103E4000050C050C050C050C050C050C050C050CEA
:103E5000050C050C050CF803800D71050A06DC0441
:103E6000050C050C050C6C04050C7D0D050C050CF2
:103E7000050C050C050C810B322800F0A18371287C
:103E800000F00883312800F0B783002B08BF7328A7
:103E90000CBF01200020002860D07A4804F0E6FB27
:103EA00004217B4806F0E6FE764804F0DFFB102193
:103EB000784806F0DFFE734804F0D8FB13217648FB
:103EC00006F0D8FE754B6F48196804F01FFC6D486A
:103ED00004F0CCFB1421724806F0CCFE694804F0D3
:103EE000C5FB1E216F4806F0C5FE664804F0BEFB08
:103EF00015216D4806F0BEFE624804F0B7FB1E2196
:103F00006A4806F0B7FE5F4804F0B0FB202168481D
:103F100006F0B0FE5B4804F0A9FB1921654806F0E5
:103F2000A9FE584804F0A2FB1221634806F0A2FE45
:103F3000544804F09BFB0F21604806F09BFE51485B
:103F400004F094FB0D215E4806F094FE4D4804F009
:103F50008DFB5C4A002101231160236003B0F0BD9A
:103F6000A0F13102422A90D801A151F822F000BFFD
:103F7000654E00008D4D0000A94D0000CD4D0000A4
:103F8000F34D0000114E00008B3E00002B4E000050
:103F90008B3E00008B3E00008B3E00008B3E0000FD
:103FA0008B3E00008B3E00008B3E00008B3E0000ED
:103FB0008B3E00008B3E00008B3E00008B3E0000DD
:103FC0008B3E00008B3E00008B3E00008B3E0000CD
:103FD0008B3E00008B3E00008B3E00008B3E0000BD
:103FE0008B3E00008B3E00008B3E00008B3E0000AD
:103FF0008B3E00008B3E00008B3E00008B3E00009D
:104000008B3E00008B3E00008B3E00008B3E00008C
:104010008B3E00008B3E00008B3E00008B3E00007C
:104020008B3E00008B3E00008B3E00008B3E00006C
:104030008B3E00008B3E0000454E00008B3E000092
:104040008B3E00008B3E00008B3E00008B3E00004C
:104050008B3E00008B3E00008B3E00008B3E00003C
:104060008B3E00008B3E00008B3E00008B3E00002C
:10407000954400008B3E0000514E00009892FF1FB7
:104080006892FF1FD487FF1F4493FF1F6F12833A6C
:104090006C17010074170100881701002487FF1FA7
:1040A0009C170100B4170100D4170100EC170100A0
:1040B0000C180100301801004C18010060180100B4
:1040C000701801003C87FF1F23682868062B40F00A
:1040D0008D80A0F13102402A3FF6D7AE01A151F800
:1040E00022F000BFFF4B00002B4C00008F4B000064
:1040F000B54B0000754C0000DB4B0000574C000036
:104100008B3E00008B3E00008B3E00008B3E00008B
:104110008B3E00008B3E00008B3E00008B3E00007B
:104120008B3E00008B3E00008B3E00008B3E00006B
:104130008B3E00008B3E00008B3E00008B3E00005B
:104140008B3E00008B3E00008B3E00008B3E00004B
:104150008B3E00008B3E00008B3E00008B3E00003B
:104160008B3E00008B3E00008B3E00008B3E00002B
:104170008B3E00008B3E00008B3E00008B3E00001B
:104180008B3E00008B3E00008B3E00008B3E00000B
:104190008B3E00008B3E00008B3E00008B3E0000FB
:1041A0008B3E00008B3E00008B3E00008B3E0000EB
:1041B0008B3E00008B3E00008B3E00008B3E0000DB
:1041C0008B3E00008B3E00008B3E00008B3E0000CB
:1041D0008B3E00008B3E00008B3E00008B3E0000BB
:1041E0008B3E00009544000023682868052B15D1FC
:1041F000332801F0A68240F35281352801F09382E2
:10420000C1F27B8271287FF440AEE14A0023732023
:1042100013602360286038E623682868032B40F089
:10422000A480A0F13002422A3FF62FAE01A151F83E
:1042300022F000BF41430000335300005B530000F5
:10424000F352000087540000A9540000D15400002C
:10425000F954000017550000835300008B3E000006
:104260008B3E00008B3E00008B3E00008B3E00002A
:104270008B3E00008B3E00008B3E00008B3E00001A
:104280008B3E00008B3E00008B3E00008B3E00000A
:104290008B3E00008B3E00008B3E00008B3E0000FA
:1042A0008B3E00008B3E00008B3E00008B3E0000EA
:1042B0008B3E00008B3E00008B3E00008B3E0000DA
:1042C0008B3E00008B3E00008B3E00008B3E0000CA
:1042D0008B3E00008B3E00008B3E00008B3E0000BA
:1042E0008B3E00008B3E00008B3E00008B3E0000AA
:1042F0008B3E00008B3E000015530000C74E0000AF
:10430000AB530000C9530000E75300000554000000
:104310007D4E0000A14E00008B3E00008B3E000051
:104320008B3E00008B3E00008B3E00008B3E000069
:104330008B3E00008B3E00005B5400006754000081
:1043400006F06EFC002841F385819248924E04F0FD
:1043500021FB01270346014662229048B36527608E
:104360002A60FDF78DFA23682868012B7FF48DAD54
:104370005BE5A0F13102402A3FF687AD01A151F87B
:1043800022F000BFCB4C0000CF4C0000D34C00000B
:10439000F54C0000F94C0000154D0000894C000060
:1043A000A14C0000A54C00008B3E00008B3E00009D
:1043B0008B3E00008B3E00008B3E00008B3E0000D9
:1043C0008B3E00008B3E00008B3E00008B3E0000C9
:1043D0008B3E00008B3E00008B3E00008B3E0000B9
:1043E0008B3E00008B3E00008B3E00008B3E0000A9
:1043F0008B3E00008B3E00008B3E00008B3E000099
:104400008B3E00008B3E00008B3E00008B3E000088
:104410008B3E00008B3E00008B3E00008B3E000078
:104420008B3E00008B3E00008B3E00008B3E000068
:104430008B3E00008B3E00008B3E00008B3E000058
:104440008B3E00008B3E00008B3E00008B3E000048
:104450008B3E00008B3E00008B3E00008B3E000038
:104460008B3E00008B3E00008B3E00008B3E000028
:104470008B3E00008B3E00008B3E00008B3E000018
:104480008B3E000095440000342801F01381712810
:104490007FF4FBAC0023732023602860F5E431280F
:1044A00001F01A8132287FF4F0AC06F0B9FB002845
:1044B0007FF7B2AE3748384E04F06CFA01226B2316
:1044C000C6F8A00022602B6001E006F06DFB06F04C
:1044D000A7FB0028F9D12F4804F0C8F82D4804F0B4
:1044E000C5F82C4804F0C2F82A4804F0BFF829485F
:1044F00004F0BCF821212A4806F0BCFB254804F052
:10450000B5F81521274806F0B5FBD6F898102148D4
:1045100004F0FCF80221244806F0ACFB1D4804F02E
:10452000A5F81E21214806F0A5FBD6F8A0101948D1
:1045300004F0ECF803211E4806F09CFB154804F03B
:1045400095F81E211B4806F095FBD6F89C101148E3
:1045500004F0DCF80F4804F089F81D21164806F035
:1045600089FBD6F8AC100B4804F0D0F8094804F0E9
:104570007DF81E21114806F07DFBD6F8B0100548E5
:1045800004F0C4F8034804F071F805232360E5E45F
:10459000B094FF1FD487FF1F4493FF1F1095FF1F88
:1045A000C0110100E4110100D0100100FC11010054
:1045B0003C0E01001C1201003C1201005C120100C3
:1045C00006F02EFB002840F3DA827748774E04F09D
:1045D000E1F907F031FD764907F082FD336D96F879
:1045E00040100746024673487764FDF74BF90123F4
:1045F00069202360286018E406F012FB002840F3CD
:10460000C2826948694E04F0C5F9C0B286F840001C
:1046100002288ABF0021014686F84010336D726C73
:104620006448E2E706F0C0FA06F0FAFA0546002808
:10463000F8D15D485D4E04F019F85B4804F016F8B7
:10464000594804F013F8584804F010F8564804F09C
:104650000DF81F21584806F00DFB534804F006F8EA
:104660001C21564806F006FB706A554907F038FDD4
:1046700007F08CF8009502460B464B4804F050F8C2
:104680000221504806F0F6FA474803F0EFFF2321D5
:104690004D4806F0EFFAF06B494907F021FD07F0AD
:1046A00075F8009502460B463F4804F039F80221A0
:1046B000444806F0DFFA3C4803F0D8FF192143488C
:1046C00006F0D8FAB06B07F061F802250B460246F7
:1046D0000095354804F024F829463D4806F0CAFA0A
:1046E000314803F0C3FF19213A4806F0C3FAB6F87F
:1046F000C0102D4804F00AF80321374806F0BAFA32
:10470000294803F0B3FF0723236027E406F04CFA9F
:1047100006F086FA05460028F8D12348234E03F018
:10472000A5FF214803F0A2FF1F4803F09FFF1E488A
:1047300003F09CFF1C4803F099FF1521274806F061
:1047400099FA194803F092FF1821254806F092FAC9
:104750002B460A2296F84010134803F097FF1248A0
:1047600003F084FF28211F4806F084FA706C144976
:1047700007F0B6FC07F00AF800950B4602460A4817
:1047800003F0CEFF02210F4806F074FA064803F04A
:104790006DFF1321144806F06DFA034803F066FF1D
:1047A00008232360FFF7DABBD487FF1F4493FF1F62
:1047B0006F12833A1095FF1F1C1101003C1101007C
:1047C00000007A44A00F01005C110100801101007B
:1047D0009C110100A0110100BC110100341801005E
:1047E000580F0100740F0100A40F010006F0DCF95E
:1047F00006F016FA05460028F8D17F487F4E03F0F0
:1048000035FF7D4803F032FF7B4803F02FFF7A48E5
:1048100003F02CFF784803F029FF1121784806F0B7
:1048200029FA754803F022FF2821764806F022FA7B
:104830007069754907F054FC06F0A8FF0095024620
:104840000B466D4803F06CFF0221704806F012FA27
:10485000694803F00BFF16216D4806F00BFAF0696A
:10486000694907F03DFC06F091FF00950B460246B2
:10487000614803F055FF0221644806F0FBF95E48E9
:1048800003F0F4FED6F8B830002B32DD1D2161486C
:1048900006F0F0F9306E07F0CFFB5F4907F020FC1F
:1048A00006F074FF022502460B460095524803F0BD
:1048B00037FF0121594806F0DDF94F4803F0D6FED5
:1048C0001F21574806F0D6F9706E07F0B5FB524924
:1048D00007F006FC06F05AFF009502460B464648D4
:1048E00003F01EFF01214D4806F0C4F9424803F0D1
:1048F000BDFE11214B4806F0BDF9D6F8B830062BA5
:1049000000F24A86DFE813F0930698068E068906C1
:1049100084067F06440606F047F906F081F9002870
:10492000F9D13548354E03F0A1FE334803F09EFE21
:10493000314803F09BFE304803F098FE2E4803F008
:1049400095FE1F21384806F095F92B4803F08EFE9E
:104950001E21364806F08EF9274803F087FE1A21FB
:10496000334806F087F9D6F88030022B00F0D8875C
:10497000032B00F09187012B00F0858709212D483A
:1049800006F078F91C4803F071FE14212A481B4FE9
:1049900006F070F9F16F184803F0B8FE164803F0FE
:1049A00065FE1C21254806F065F9D6F884101248EA
:1049B00003F0ACFE104803F059FE1C21204806F01D
:1049C00059F9D6F8B4100C4803F0A0FE0A4803F0D9
:1049D0004DFED6F8805025F00205012D00F0CF865F
:1049E0001321184806F046F9034803F03FFE02235E
:1049F0002360FFF7B3BA00BFD487FF1F4493FF1FA4
:104A0000D8170100B80F010000007A44A00F010080
:104A1000E40F0100FC0F0100CDCCCC3DA01401003F
:104A20001C1001003C100100601301008013010004
:104A3000A013010018140100241401003C1401000B
:104A40005C140100A40F010006F0AEF806F0E8F8CF
:104A50000028F9D1B44803F009FEB34803F006FE7C
:104A6000B14803F003FEB04803F000FEAE4803F087
:104A7000FDFD1321AD4806F0FDF8AB4803F0F6FD4F
:104A80000D21AB4806F0F6F8A74803F0EFFD0F2123
:104A9000A84806F0EFF8A84BA348196803F036FEC3
:104AA000A14803F0E3FD1321A44806F0E3F8A44B6A
:104AB0009D48196803F02AFE9B4803F0D7FD122198
:104AC000A04806F0D7F8A04B9748196803F01EFEDF
:104AD000954803F0CBFD11219C4806F0CBF89C4B88
:104AE0009148196803F012FE8F4803F0BFFD0E21B4
:104AF000984806F0BFF8984B8B48D3F8A81003F0FD
:104B000005FE894803F0B2FD1921944806F0B2F879
:104B1000934B8548196803F0F9FD834803F0A6FD1F
:104B20001121904806F0A6F88F4B7F48196803F0D2
:104B3000EDFD7D4803F09AFD10218C4806F09AF8AF
:104B40008B4B7948196803F0E1FD774803F08EFD3F
:104B50001C21884806F08EF8874B7348196803F0CB
:104B6000D5FD714803F082FD1321844806F082F8D8
:104B70006D4803F07BFD04232360FFF7EFB9236842
:104B80002868FFF731B9744E96F8400040E506F00A
:104B900047F800287FF728AB63486F4E03F0FAFE12
:104BA00000EB80004300012265203366226028600C
:104BB000FFF73BB906F034F800287FF715AB5A48E9
:104BC000654E03F0E7FE00EB800043000122652004
:104BD000736622602860FFF728B906F021F80028E4
:104BE0007FF702AB50485C4E03F0D4FE65230122F0
:104BF000C6F8BC0022602B601846FFF716B906F015
:104C00000FF800287FF7F0AA4748534E03F0C2FE82
:104C100007F012FA5A4907F017FB65230122706169
:104C200022602B601846FFF700B905F0F9FF002855
:104C30007FF7DAAA3C48484E03F0ACFE07F0FCF9D7
:104C40004F4907F001FB65230122F06122602B60D0
:104C50001846FFF7EAB8404B93F8C820002A00F046
:104C60008185002283F8C820012365202360286005
:104C7000FFF7DBB8384AD2F8B8300133062BC8BF8B
:104C80000023C2F8B830EFE7374A1368B3FA83F36A
:104C90005B0901216420136021602860FFF7C5B81B
:104CA000334AF2E70123236005F0BAFF002800F33E
:104CB0005E85314B1A68042AC4BF02221A6064233D
:104CC0002B6023686420FFF78DB81B4ADDE71C4A80
:104CD000DBE71D4A2B4F1368002B0CBF0123002379
:104CE0004FF001001360206040F0B7850346642256
:104CF0002A60E7E7164AC8E7174ED6F8A830B3FA95
:104D000083F35B0901226420C6F8A8302260286082
:104D1000FFF78BB801231C482360FCF70FFA104AF9
:104D200023681060E3E700BFD487FF1F7C120100F7
:104D300090120100A01201009094FF1FB012010018
:104D40000495FF1FC4120100C494FF1FD812010074
:104D5000EC94FF1FEC1201004493FF1FFC120100B2
:104D6000B494FF1F18130100B094FF1F2C1301000F
:104D70008892FF1F401301006887FF1FA40F0100E6
:104D800000007A449892FF1F1095FF1F554ED6F8E9
:104D90008430B3FA83F35B0901226320C6F88430C0
:104DA00022602860FFF741B80123236005F038FF37
:104DB000002805DD4C484B4E03F0ECFDC6F8B4006E
:104DC0000123632023602860FFF72FB801232360AD
:104DD00005F026FF002807DD4348424E03F0DAFDC8
:104DE00007F02AF9C6F89400632028602368FEF7CC
:104DF000FBBF0123236005F013FF0028F4DD3A48D0
:104E0000384E03F0C7FD07F017F9C6F89000EBE73E
:104E10000123236005F004FF0028E5DD3248314E10
:104E200003F0B8FDA6F8C200DEE70123236005F019
:104E3000F7FE0028C4DD2C482A4E03F0ABFDC6F86F
:104E40008C00BDE7FEF78CFD23682868FEF7CABF1B
:104E5000244AD2F880300133032BC8BF0023C2F8A4
:104E60008030ADE71F4EF36FB3FA83F35B09012285
:104E70006320F36722602860FEF7D7BF05F0D0FEFD
:104E800000280DDD1848174E03F084FD07F0D4F814
:104E9000164907F0D9F901226223306222602B60A3
:104EA00005F0BEFE00280EDD0F480E4E03F072FD29
:104EB00007F0C2F80D4907F0C7F901226223C6F8CE
:104EC000C40022602B6005F0ABFE002840F3C283D3
:104ED0000548044E03F05EFD01226223F066226065
:104EE0002B6007E04493FF1FD487FF1F00007A4424
:104EF00005F05AFE05F094FE05460028F8D1C24898
:104F000003F0B4FBC04803F0B1FBBF4803F0AEFBB5
:104F1000BD4803F0ABFBBC4803F0A8FB1521BB4820
:104F200005F0A8FEB84803F0A1FB1421B84805F02D
:104F3000A1FEB54803F09AFB1B21B64805F09AFE86
:104F4000B14803F093FB1321B34805F093FEAE483C
:104F500003F08CFBAC4803F089FBAB4803F086FB05
:104F60002021AE4805F086FEF068AD4907F0B8F89C
:104F700006F00CFC009502460B46A34803F0D0FB5C
:104F80000221A84805F076FE0221A74805F072FE2E
:104F90009D4803F06BFB2121A44805F06BFE3069AE
:104FA0009F4907F09DF806F0F1FB009502460B467D
:104FB000954803F0B5FB02219A4805F05BFE0221FB
:104FC000994805F057FE904803F050FB1F21984880
:104FD00005F050FEB06A06F0D9FB022702460B46E8
:104FE0000097894803F09CFB0121924805F042FE9E
:104FF00039468D4805F03EFE834803F037FB2021FB
:105000008D4805F037FEF06A06F0C0FB00970246B7
:105010000B467D4803F084FB0121864805F02AFEFB
:105020003946814805F026FE774803F01FFB23210F
:10503000824805F01FFEB06C794907F051F806F080
:10504000A5FB009502460B466F4803F069FB394605
:10505000744805F00FFE3946734805F00BFE6A48A8
:1050600003F004FB1F21764805F004FEF06C6C4948
:1050700007F036F806F08AFB009502460B466248B8
:1050800003F04EFB3946674805F0F4FD39466648A3
:1050900005F0F0FD5C4803F0E9FA1921694805F0D4
:1050A000E9FDF16D584803F031FB3946664805F0DB
:1050B000E1FD39465C4805F0DDFD534803F0D6FAC2
:1050C0001821624805F0D6FDB06E06F0B5FF6049C4
:1050D00007F006F806F05AFB009702460B464A48CE
:1050E00003F01EFB01215B4805F0C4FD39464E4824
:1050F00005F0C0FD444803F0B9FA2B21564805F0ED
:10510000B9FDB069464906F0EBFF06F03FFB00959C
:1051100002460B463C4803F003FB3946414805F084
:10512000A9FD3946404805F0A5FD374803F09EFA31
:105130001F214A4805F09EFDB16D334803F0E6FAA1
:105140003946394805F096FD2F4803F08FFA2021A3
:10515000434805F08FFD716D2B4803F0D7FA3946AF
:10516000314805F087FD284803F080FA10213D48BA
:1051700005F080FDF16E244803F0C8FA394629484D
:1051800005F078FD3946284805F074FD1E4803F007
:105190006DFA1321344805F06DFD316F1A4803F0A4
:1051A000B5FA0121314805F065FD39461E4805F084
:1051B00061FD154803F05AFA10212D4805F05AFDFB
:1051C000716F114803F0A2FA3946164805F052FDF6
:1051D0003946154805F04EFD0B4803F047FA1421F7
:1051E000244805F047FDB16F074803F08FFA01210D
:1051F0001E4805F03FFD39460B4805F03BFD0248CF
:1052000003F034FA162137E0D487FF1F0C15010094
:10521000241501003C150100A40F010058150100E0
:1052200000007A44A00F0100F01801007C15010075
:10523000A0150100280B0100C0150100E4150100B4
:105240000816010028160100441601004816010046
:10525000CDCCCC3DA01401006416010090160100D5
:10526000B0160100D4160100E8160100FC1601007A
:105270000017010014170100BA4805F0FBFC306A62
:10528000B94906F02DFF06F081FA009502460B465B
:10529000B64803F045FA3946B54805F0EBFC394607
:1052A000B44805F0E7FCB14803F0E0F92421B24826
:1052B00005F0E0FCD6F8C400AB4906F011FF06F09B
:1052C00065FA00950B460246A84803F029FA3946CC
:1052D000A74805F0CFFC3946A64805F0CBFCA3480B
:1052E00003F0C4F9A14803F0C1F903232360FEF7DA
:1052F00035BE05F095FC002840F3AC819B489F4EDD
:1053000003F048FB06F098FE01226223B06222609F
:105310002B60EFE505F084FC002840F39B81934867
:10532000964E03F037FB01226223706522602B60EA
:10533000E0E505F075FC002840F38C818B488F4E2A
:1053400003F028FB06F078FE874906F07DFF012276
:105350006223F06022602B60CCE505F061FC002840
:1053600040F378818148854E03F014FB06F064FE1B
:105370007D4906F069FF01226223306122602B60C3
:10538000B8E505F04DFC002840F3648177487B4E7A
:1053900003F000FB06F050FE734906F055FF0122B2
:1053A0006223B06122602B60A4E505F039FC00287F
:1053B00040F350816D48714E03F0ECFA01226223F4
:1053C000306722602B6095E505F02AFC002840F349
:1053D00041816648694E03F0DDFA0122622370675D
:1053E00022602B6086E505F01BFC002840F332812B
:1053F0005E48624E03F0CEFA01226223B06722605B
:105400002B6077E5FCF7B4FE02215A485B4E05F0AD
:1054100031FC564803F02AF90221564805F02AFCCF
:10542000524803F023F90221524805F023FC4F486B
:1054300003F01CF91721524805F01CFC4B4803F0FF
:1054400015F902214B4805F015FC484803F00EF908
:105450000122622322602B604CE50022732322602C
:105460002B60FEF71ABD474B4248444E00220221F2
:105470001A6005F0FFFB3D4803F0F8F80B214248A5
:1054800005F0F8FBDDE705F0CBFB002840F3E280F8
:1054900036483A4E03F07EFA06F0CEFD0122622332
:1054A000F06222602B6025E505F0BAFB002840F38E
:1054B000D1802E48314E03F06DFA06F0BDFD2A4929
:1054C00006F0C2FE01226223B06422602B6011E567
:1054D00005F0A6FB002840F3BD802448274E03F0CA
:1054E00059FA06F0A9FD204906F0AEFE012262231A
:1054F000F06422602B60FDE405F092FB002840F38D
:10550000A9801A481D4E03F045FA01226223F06576
:1055100022602B60EEE405F083FB002840F39A80C4
:105520001248164E03F036FA00EB800043000121CA
:105530006222B36621602A60DCE4CC2200210F489D
:1055400003F01CFB2868114AA0F17300012100231D
:10555000B0FA80F0400911602360FEF79CBC04F0B3
:10556000F1FC00BF2C17010000007A44D487FF1F14
:10557000A00F0100F0180100441701004493FF1F21
:10558000340F01007C92FF1F4C0F01003C87FF1F6E
:105590000421C64805F06EFBC548C64D03F066F809
:1055A000D6F8B830002B12DD1821C34805F062FB95
:1055B000D5F8BC10BE4803F0A9F80221BF4805F099
:1055C00059FBBB4803F052F8B94803F04FF81B21D0
:1055D000BB4805F04FFB96F8C830012B15BF1221D0
:1055E0001421B848B84805F045FBB14803F03EF82F
:1055F0001321B64805F03EFBAD4803F037F806230B
:105600002360FEF7ABBC0B21B14805F033FBC3E7C9
:105610000D21B04805F02EFBBEE70D21AE4805F088
:1056200029FBB9E70C21AD4805F024FBB4E70D21B7
:10563000AB4805F01FFBAFE70C21AA4805F01AFBA9
:10564000AAE72368002B08BF73280CBF01200020A5
:10565000FEF721BC23682868012B7EF416ACFEF708
:10566000E4BB05F0DDFA00287EF72EAD9048914EA0
:1056700003F090F906F0E0FC61230122B0632260A0
:105680002B601846FEF7D1BB05F0CAFA00287EF75A
:105690001BAD8748874E03F07DF906F0CDFC92499B
:1056A00006F01EFD61230122706222602B60184605
:1056B000FEF7BBBB05F0B4FA00287EF705AD7C48C9
:1056C0007C4E03F067F961230122A6F8C000226036
:1056D0002B601846FEF7A9BB05F0A2FA00287EF75A
:1056E0009BAD7348734E03F055F901226B23C6F846
:1056F000980022602B60FEF7EABE05F091FA0028C0
:105700007EF78AAD6A486B4E03F044F9774BC6F8D2
:10571000AC0002221A60FDF7CBF801226B23226055
:105720002B60FEF7D4BE05F07BFA00287EF774AD3F
:105730005F48604E03F02EF96C4BC6F8B0000322B0
:10574000E8E705F06DFA00287EF766AD5848594E37
:1057500003F020F901226B23C6F89C0022602B6025
:10576000FEF7B5BE012283F8C820FFF77DBA504886
:1057700003F010F95E4B02461860FFF79CBA1C213B
:105780005C4805F077FAD7F894005B4906F0A8FC6E
:1057900005F0FCFF009502460B46454802F0C0FFAD
:1057A0000521564805F066FA414802F05FFFD7F838
:1057B0008050012D19D11D21514805F05BFAD7F811
:1057C00090004D4906F08CFC05F0E0FF0095024684
:1057D0000B46374802F0A4FF0521484805F04AFA75
:1057E000334802F043FFD7F8805025F00205012D21
:1057F0007FF4F6A81C2143482E4D05F03BFAB6F87D
:10580000C2102B4802F082FF03213F4805F032FA14
:10581000274802F02BFFD6F88030012B7FF4E0A858
:105820001F213A4805F026FAD5F88C0006F004FC52
:105830002D4906F055FC05F0A9FF022502460B464E
:1058400000951B4802F06CFF2946314805F012FA1A
:10585000174802F00BFFFFF7C3B82E4B0026314666
:105860000B201E6003F022FD31460C2003F01EFDCC
:105870003146142003F01AFD3146152003F016FDC1
:105880003B68FFF734BA1E21234805F0F3F90848B6
:1058900002F0ECFEFFF779B82021204805F0EAF984
:1058A000034802F0E3FEFFF770B800BFAC10010040
:1058B000D487FF1F4493FF1FB4100100D0100100D4
:1058C000D4100100F010010004110100A40F010028
:1058D000A010010090100100801001007010010064
:1058E00050100100601001006F12833AB094FF1F46
:1058F0006887FF1F7C140100CDCCCC3D9C140100B7
:10590000A4140100C4140100E4140100E81401000F
:10591000081501000095FF1FBC130100DC130100F6
:105920001721074805F0A6F9064802F09FFEFFF789
:105930002CB8054EFEF7CBBD034EFFF7DBBA00BF18
:1059400000140100D487FF1F4493FF1F38B5174C84
:10595000174A2368101D12F8011F904241EA0323E1
:10596000F9D12360134C03F100432360124BD3F8A9
:105970008030022B11D0114B1B68012B00D038BD99
:105980000F4802F073FE21680D4802F0BFFE0321AC
:105990000C48BDE8384005F06DB920680A4D06F0A6
:1059A0004BFB2860FDF746FAE5E700BF1C94FF1F9C
:1059B000A794FF1FD094FF1F4493FF1F9094FF1FD5
:1059C000D487FF1F801801008092FF1F30B53E4D25
:1059D0003E4883B0294601F0A7FD2B6840F2C23251
:1059E000934256D0B3F5407F394C08D222683649ED
:1059F0003848012A18BF0022FBF7FCFB2B68364A07
:105A000023F060431A44EE2A07D822682E49314811
:105A1000012A18BF0022FBF7B7FB2368012B01D036
:105A200003B030BD2D4B2E481B6801930A22002382
:105A3000019902F02BFE2A68234B002ADB793BDB1D
:105A40002849294807F014FB274807F039FB01468D
:105A5000254805F00FF92C681B4B14F080441CD12D
:105A6000DB798BB12B1921491A7A1F4807F000FB0B
:105A70001D4807F025FB01461B4805F0FBF80134E3
:105A8000EB79E4B2A342EDD8154802F0EFFD03B084
:105A900030BDFFF75BFF2B68A4E7154D124C0FCD0F
:105AA0000FC495E8030044F8040B204620F81419AD
:105AB000152105F0DFF8E7E70E490B4822F06042B8
:105AC00007F0D6FAC0E700BFA094FF1F60CEFF1F0B
:105AD0009094FF1F1095FF1FFFABAAE524D0FF1F76
