:1000000000800020BD010000AD9500006595000056
:1000100065950000659500006595000065950000F8
:10002000659500006595000065950000AD950000A0
:10003000AD9500006595000085B4000089B400000E
:10004000AD950000AD950000AD950000AD950000A8
:10005000AD950000AD950000AD950000AD95000098
:10006000AD950000AD950000AD950000AD95000088
:10007000AD950000AD950000AD950000AD95000078
:10008000AD950000AD950000AD950000AD95000068
:10009000D9780000AD950000AD950000AD95000049
:1000A000AD950000AD950000AD950000AD95000048
:1000B000AD9500009D880000A9880000AD88000073
:1000C000B9880000BD880000C1880000AD9500001F
:1000D000AD950000AD950000AD950000AD95000018
:1000E000AD950000AD950000AD950000AD95000008
:1000F000AD950000AD950000AD95000071A4000025
:10010000AD9500006DC10000AD950000AD950000FB
:10011000AD950000AD950000AD950000AD950000D7
:10012000AD950000AD950000AD950000AD950000C7
:10013000AD950000AD950000AD950000AD950000B7
:10014000AD950000AD950000AD950000AD950000A7
:10015000AD950000AD950000AD950000AD95000097
:10016000AD950000B9A70000AD950000AD95000069
:10017000AD950000AD950000AD950000AD95000077
:10018000AD950000AD950000AD950000AD95000067
:10019000AD950000AD950000AD950000AD95000057
:1001A000AD950000AD950000AD950000AD95000047
:1001B000AD950000AD950000AD950000564B4CF29A
:1001C000205210B51A804DF628121A8000BF00BFC9
:1001D00009F0F0F9514B4FF010621A60504A9A60E2
:1001E000504ADA60504A136813F4807304D14F49BF
:1001F0000B604FF4A85313604D4B1A78110703D5C9
:100200001A7842F008021A704A4B4B492A221A7097
:100210004A4A4B4B8B4204D252F8040F43F8040B6A
:10022000F8E7484B484900228B4202D243F8042B9E
:10023000FAE74649464A002352F8230041F82300D2
:1002400001336F2BF8D1434B434A802103F8011B44
:100250009342FBD1414B3D4A1A60414B8A221A70AE
:10026000A3F5805324225A70A0221A709A7992071B
:10027000FCD59A79D406FCD43A4A937903F00C035E
:10028000082B384BF9D103221A7140225A719A79FE
:100290009006FCD5334A9179324B4906FBD5324A58
:1002A000324911600221516020221A709A7902F0BD
:1002B0000C020C2AFAD12E4B2E4A1A602E4B2F4AD2
:1002C0001A6000225A60072243F8042C2C4AC3F813
:1002D0000C2D62B609F0A4FC144B1B68DA0705D597
:1002E000284809F07FFA284B284A1A60284B1B78C7
:1002F0005B0609D5244C254B22689A4204D121483B
:1003000009F070FA0023236009F05AF90DF002FC9D
:100310000BF0CCFBFEE700BF0E2005403080044010
:10032000823F04000100002B10D0034014D0034092
:1003300002D0074000E007403894FF1F78360100E4
:100340002087FF1F3894FF1FBCD8FF1F0082FF1FAC
:100350000000000000E400E05FE400E008ED00E0E1
:100360000050064000400640448004400000030165
:1003700004800440C010050014E000E0FF76010096
:1003800000002020A67AFE621CE00340A5C3945A18
:1003900000F00740FFFFFFFFFFFFFFFFFFFFFFFF32
:1003A000FFFFFFFFFFFFFFFFFFFFFFFFFFFFFFFF5D
:1003B000FFFFFFFFFFFFFFFFFFFFFFFFFFFFFFFF4D
:1003C000FFFFFFFFFFFFFFFFFFFFFFFFFFFFFFFF3D
:1003D000FFFFFFFFFFFFFFFFFFFFFFFFFFFFFFFF2D
:1003E000FFFFFFFFFFFFFFFFFFFFFFFFFFFFFFFF1D
:1003F000FFFFFFFFFFFFFFFFFFFFFFFFFFFFFFFF0D
:10040000FFFFFFFFFFFFFFFFFFFFFFFFDEF9FFFF23
:1004100010B5054C237833B9044B13B10448AFF33E
:1004200000800123237010BD3894FF1F00000000DE
:1004300074360100084B10B51BB108490848AFF3EA
:1004400000800848036803B910BD074B002BFBD0A0
:10045000BDE81040184700BF000000003C94FF1F9B
:10046000743601003894FF1F00000000F0B400F162
:1004700030061A4F00243146031F00F1640243F88E
:10048000044FB34241F8047F4FF0000542F8044F97
:10049000F5D10023124A134EC0F89C5047F2305455
:1004A0000121C0F8A050C0F8A450C0F8A850C0F86E
:1004B000B850C0F8B060C0F8F040C0F8AC20C0F848
:1004C000B420C0F8E43080F8C43080F8C53080F83B
:1004D000DC30C0F8F410F0BC704700BF0000A04052
:1004E000000048430000C8C2012A38B505460C4642
:1004F00014D00223C0F8F4304B7B087B1B01DBB225
:1005000043EA10100CF014FF4FF07C510CF064FF24
:100510002C490CF057FEC5F8A00038BDC0F8F420F7
:10052000CB7BFD2B49D0087ADE2828D9C87A0CF07D
:10053000FFFE4FF07C510CF04FFF23490CF042FEC0
:10054000C5F8A000207BEF282DD80CF0F1FE4FF06D
:100550007C510CF041FF1C490CF034FEC5F8A4009E
:10056000607BEF2825D80CF0E3FE4FF07C510CF0B7
:1005700033FF15490CF026FEC5F8A80038BD0CF075
:10058000D7FE4FF07C510CF027FF0F490CF01AFEFC
:10059000C5F8A000E27AA37A03EB0223C5F8E430A1
:1005A000207BEF28D1D90023C5F8A430607BEF2849
:1005B000D9D90023C5F8A83038BD887AFD28A1D143
:1005C000ABE700BF0000204200002C4290F8CC00B6
:1005D000704700BF90F8C800704700BF90F8D00087
:1005E000704700BF90F8D400704700BF0D2994BF3A
:1005F00050F82100002070472DE9F0410B4E804655
:10060000041F00F1300754F8045F314628460DF00E
:1006100081F830B1D8F8BC1028460DF099F800B137
:100620002E46BC42EFD13046BDE8F08100002041AB
:100630002DE9F041D0F8BC704FF00008041F00F124
:10064000300654F8045F394628460DF081F8084911
:1006500048B128460DF05EF8414620B128460DF01D
:1006600077F800B1A846B442EBD14046BDE8F0812E
:100670000000A0402DE9F047D0F8BC7082464FF052
:100680000009041F00F130064FF0000854F8045F21
:10069000394628460DF05CF80F4950B128460DF058
:1006A00039F830B1484629460CF08EFD08F10108B2
:1006B0008146B442EAD1CAF8E080B8F1000F02D115
:1006C0000020BDE8F08740460CF032FE0146484667
:1006D0000CF036FFBDE8F0870000A040D0F8E00045
:1006E000704700BF38B5D0F8F430012B03D0D0F8F4
:1006F000A040204638BDD0F8D8305BB9D0F8A4402F
:10070000D0F8A050214628460DF004F80028F0D17A
:100710002C46EEE7273350F82340204638BD00BF73
:10072000D0F8F430012B2DE9F04104D0D0F8A040EE
:100730002046BDE8F081D0F8D830002B40F0818011
:10074000D0F8A460D0F8A0500446314628460CF0FA
:100750003BFDD4F8A870394680460CF035FD794948
:100760000CF0EEFE4FF07C5104460CF0F1FF002837
:1007700065D04FF07C5128460CF0EAFF4FF07C51D9
:1007800010B330460CF0E4FF4FF07C5100285ED1EE
:1007900028460CF0BFFF00286CD04FF07C5130464B
:1007A0000CF0D6FF002865D04FF07C5138460CF095
:1007B000CFFFA0B1394630460CF006FD4FF07C511A
:1007C0000CF00AFE0446B3E728460CF0A3FF30B154
:1007D0004FF07C5130460CF0BBFF0028E4D14FF0C5
:1007E0007C5128460CF0B4FF002843D14FF07C51D7
:1007F00028460CF0ADFF002843D14FF07C5128462D
:100800000CF0A6FF002849D14FF07C5128460CF08F
:1008100081FF4FF07C51002850D128460CF07AFF20
:10082000002856D128464FF07C510CF073FF30B1B0
:1008300030464FF07C510CF06DFF002856D1BDE8DA
:10084000F081273350F823402046BDE8F081384638
:100850000CF07EFF00287FF46BAF4FF07C512846F0
:100860000CF058FF30B14FF07C5138460CF070FF5F
:1008700000289FD14FF07C5130460CF04BFF0028F0
:100880003DD14FF07C5130460CF062FF30B14FF05B
:100890007C5138460CF03EFF002848D14FF07C5187
:1008A00030460CF037FF0028AED04FF07C51384670
:1008B0000CF030FF0028A7D02C4639E730460CF06A
:1008C00047FF30B14FF07C5138460CF023FF002831
:1008D00034D14FF07C5130460CF01CFF0028A7D0DB
:1008E0004FF07C5138460CF033FF48BB38464FF090
:1008F0007C510CF00FFF0028A1D0134C18E74FF0EB
:100900007C5138460CF024FF38B94FF07C5130460A
:100910000CF01EFF0028BAD1C7E7394628460CF074
:1009200053FC4FF07C510CF057FD044600E7404665
:100930004FF07C510CF050FD0446F9E63446F7E6E2
:100940003C46F5E6000040400000A0C2D0F8F4208C
:10095000012A70B503D0D0F8A040204670BDD0F871
:10096000D820002A37D10446FFF7DAFE4FF07C5139
:100970000CF0EEFE70B3D4F8A0604FF07C5130461E
:100980000CF0E6FED4F8A45050BBD4F8A8404FF0C9
:100990007C5128460CF0DCFE58B1294630460CF05C
:1009A000D7FE30B1214628460CF0B4FE08B12C46E3
:1009B000D3E74FF07C5120460CF0CAFE50B12846D8
:1009C00021460CF0C5FE28B1304621460CF0C0FE91
:1009D0000028C2D170BD273250F82240204670BD99
:1009E000304629460CF096FED4F8A8400028CED018
:1009F000304621460CF08EFE0028C8D03446ACE7C5
:100A00002DE9F047814684B01546032900F276812E
:100A1000DFE811F0F600B500740004004FF0000AA2
:100A200080F8ECA0937A507A1B0103EB101000F5CC
:100A30007A700CF07DFCBA490CF0CEFCD9F800407D
:100A4000C9F830004846FFF781FFD9F8AC100546D9
:100A50000CF060FE08B1C9F8AC50D9F8F430012BA5
:100A600000F02D81D9F8A050D9F8B01028460CF02C
:100A70006FFE08B1C9F8B05009F13406C84609F153
:100A800068050D2701E058F8044F316820460CF046
:100A900041FE30B1D9F8BC1020460CF04FFE00B139
:100AA0003460296820460CF053FE04369D4920B17D
:100AB00020460CF04DFE00B12C60013F05F104050D
:100AC000E1D1BAF1000F00F0DB80974CD9F8E810C3
:100AD00023680193019AD9F8F030521A9A4280F0B3
:100AE000D88022680292029A0B449B1A41F2873204
:100AF000934240F21B8104B0BDE8F0874FF0000A3A
:100B000080F8ECA0937A507A1B0103EB101000F5EB
:100B10007A700CF00DFC82490CF05EFCC9F82000E4
:100B20002B7B687B1B1103EB001000F57A700CF037
:100B3000FFFB7B490CF050FCC9F828002B7BEA7ABC
:100B40001B0203F47063981800F57A700CF0F0FB48
:100B500073490CF041FCC9F82400EB7BAA7B1B0213
:100B600003F47063981800F57A700CF0E1FB6C499F
:100B70000CF032FCD9F80040C9F82C0062E74FF0C5
:100B8000000A80F8ECA0937A507A1B0103EB101056
:100B900000F57A700CF0CCFB61490CF01DFCC9F833
:100BA00010002B7B687B1B1103EB001000F57A70A3
:100BB0000CF0BEFB5A490CF00FFCC9F818002B7B57
:100BC000EA7A1B0203F47063981800F57A700CF04F
:100BD000AFFB53490CF000FCC9F81400EB7BAA7B77
:100BE0001B0203F47063981800F57A700CF0A0FBF8
:100BF0004B490CF0F1FBD9F80040C9F81C0021E783
:100C00004FF0000A80F8ECA0937A507A1B0103EBB6
:100C1000101000F57A700CF08BFB41490CF0DCFBF6
:100C2000C9F800002B7B0446687B1B1103EB001006
:100C300000F57A700CF07CFB39490CF0CDFBC9F85B
:100C400008002B7BEA7A1B0203F47063981800F506
:100C50007A700CF06DFB32490CF0BEFBC9F8040051
:100C6000EB7BAA7B1B0203F47063981800F57A7083
:100C70000CF05EFB2A490CF0AFFBC9F80C00E1E672
:100C8000294B1B680093009BC9F8E83004B0BDE80D
:100C9000F0870020A9F1040309F11C0143F8040FB7
:100CA00099424FF00002F9D1C9F89C20C9F8A02060
:100CB000C9F8A420C9F8A82004B0BDE8F087D9F885
:100CC000D830FBB9D9F8A050D9F8A46028463146ED
:100CD0002F460CF01FFD00B137463846D9F8B0104A
:100CE0000CF036FD00283FF4C7AE284631460CF024
:100CF00011FD00283FF4BEAE3546BBE690F8ECA0EF
:100D000004689FE603F12705D9F8B01059F82500CB
:100D10000CF01EFD00283FF4AFAE59F82550A9E6AF
:100D20006F12833A0000A04044D6FF1F02211348EF
:100D30000AF082FA12480AF01FFD062111480AF053
:100D40007BFA3B460A2299F8DC100D480AF028FD90
:100D500019210D480AF070FA23680393D9F8E820A6
:100D6000D9F8F030039906481A44511A3B460A2232
:100D70000AF016FD02480AF0FFFCBCE6D82C010080
:100D8000C489FF1FC0190100C81901002DE9F843EB
:100D90000026D0F8BC80C0F89C608146041F00F19A
:100DA000300754F8045F414628460CF0D1FC09494D
:100DB00050B128460CF0AEFC30B1304629460CF05C
:100DC00003FA0646C9F89C00BC42EAD13046BDE8A9
:100DD000F88300BF0000A04002299ABF283150F8D4
:100DE00021000020704700BF3E2998BF80F8DC102A
:100DF000704700BFD0F8F400704700BFD0F8E4009F
:100E0000704700BF90F8C400704700BF90F8C5005D
:100E1000704700BFC0F8D810704700BF80F8C410FA
:100E2000704700BFC0F8C010704700BF80F8C51001
:100E3000704700BF30B50F4CC0F8BC1083B02046DF
:100E40000D460AF099FC20460AF096FC28460BF065
:100E500019FE022502460B46009520460AF0E8FCE2
:100E600020460AF089FC204603B0BDE830400AF075
:100E700083BC00BFC489FF1FF8B500F57455064652
:100E8000343500F12C042046F834FFF7EFFAAC4279
:100E9000F9D106F59275012428460021FFF7BEFF1F
:100EA000214628460134FFF79FFF3F2C05F1F80546
:100EB000F2D143F63C5243F63D5743F63E550023EC
:100EC000B354F3557355054C0549064A3461002067
:100ED0007061B161F2613046F8BD00BF00007A4434
:100EE000000048430000C8C270B500F592740125A7
:100EF00000260DE0012620460021FFF797FF294636
:100F000020460135FFF770FF3F2D04F1F8040ED0A5
:100F10002046FFF777FF0028EDD02046FFF776FF49
:100F200006460028E6D120463146FFF777FF3046D7
:100F300070BD00BF30B50B4C8162054683B02046C2
:100F40000AF01AFCA86A0BF09DFD032502460B4629
:100F5000009520460AF06CFC204603B0BDE8304006
:100F60000AF00ABCC489FF1F2DE9F04F83B0054683
:100F70009E48019143F63E560AF0FEFB9B480AF05C
:100F8000FBFB07219A480AF057F9A95D974800230F
:100F90000A220AF005FC95480AF0EEFBAC5D3C2CF9
:100FA00015D9944F012343F63E520421AB54924885
:100FB0000AF042F943F63D538C48E95C0AF030FCF4
:100FC000BB796FF30003BB7103B0BDE8F08F0A2C4F
:100FD00040F24C810B2C05D0232C03D0631CDBB2D8
:100FE000844FE0E743F63D530022EA54814F05F574
:100FF00092784FF001094046FFF704FF002800F007
:101000008580002634464FF0010BA96AA8680CF0D1
:10101000DBF8214682464046FFF7E8FA0146504693
:101020000CF078FB18B10BFA04F31E43B6B201348E
:101030000C2CEAD126B105F57453012283F83D202A
:10104000019B012B00F0B8806C4C002321463B72C1
:101050007B72BB72FB723B737B73BB73FB730820A9
:1010600046FA03F212F0010203F1010314BF087003
:101070000A70082B01F10101F2D109F1FF3ABAF12E
:101080000B0F09D8DFE80AF06B6865628C898683EC
:10109000928F95065A4B3B60BB795649594843F0AD
:1010A00001034FF0080BBB7187F807B007F096FA01
:1010B000012008F067FD5B46584646FA03F212F03D
:1010C000010203F1010314BF207022700D2B04F103
:1010D0000104F2D1FE233B737B73BB73FB73BAF144
:1010E0000B0F09D8DFE80AF04D504A4744413E2C27
:1010F000292F2606444B3B60BB793E49414843F0CB
:101100000103BB710823FB7107F068FA09F10109BB
:10111000B9F13F0F08F1F8087FF46DAF43F63D5386
:10112000EB5C002B3FF43EAF43F63E53EB5C0133E8
:10113000DBB238E7354B3B60DEE7354B3B60DBE746
:10114000344B3B60D8E7344B3B60D5E7334B3B60D7
:10115000A2E7334B3B609FE7324B3B609CE7324B4F
:101160003B6099E7314B3B60C6E7314B3B60C3E7DF
:10117000304B3B60C0E7304B3B60BDE72F4B3B60E3
:10118000BAE72F4B3B60B7E72E4B3B60B4E72E4BE3
:101190003B6081E72D4B3B607EE72D4B3B607BE75F
:1011A0002C4B3B6078E72C4B3B6075E72B4B3B604F
:1011B00072E72B4B3B606FE70C480AF0DDFA072122
:1011C00028480AF039F8494608480AF029FB032163
:1011D00025480AF031F800231022314603480AF06E
:1011E000DFFA02480AF0C8FA2EE700BFC489FF1FE1
:1011F000E41901005494FF1FF81901005C94FF1FCB
:10120000AF54551A9CD4FF1FB054551AAE54551AFA
:101210001B54551A1954551AAC54551A1054551AD2
:101220000E54551A0C54551A0A54551A1754551A77
:101230001554551A1354551A1154551A0F54551A5A
:101240000B54551A0D54551A1854551A1654551A4C
:101250001454551A1254551AAB54551A1A54551A97
:10126000AD54551AEC190100F4190100012C7FF45A
:10127000B5AE834F834ABB793A604FF0000808222D
:1012800043F0010339468048FA71BB7187F8088042
:1012900087F8098087F80A8087F80B8087F80C8028
:1012A00087F80D8087F80E8087F80F8007F096F991
:1012B000204608F067FC754B73483B60394607F0E1
:1012C0008DF9204608F05EFC714B6F483B60394653
:1012D00007F084F9204608F055FC6E4B6A483B60E5
:1012E000394607F07BF9204608F04CFC6A4B66480B
:1012F0003B60394607F072F9204608F043FC674B23
:1013000061483B60394607F069F9204608F03AFC2D
:10131000634B5D483B60394607F060F9204608F0B2
:1013200031FC604B58483B60394607F057F920467E
:1013300008F028FC5C4B54483B60394607F04EF9F6
:10134000204608F01FFC594B4F483B60394607F0D8
:1013500045F9204608F016FC554B4B483B60394692
:1013600007F03CF9204608F00DFC524B46483B6024
:10137000394607F033F9204608F004FC4E4B3B6039
:101380003946FE2340483B737B73BB73FB7387F87E
:10139000088087F8098087F80A8087F80B8007F0B3
:1013A0001DF9204608F0EEFB444B37483B603946B8
:1013B00007F014F9204608F0E5FB414B32483B604A
:1013C000394607F00BF9204608F0DCFB3D4B2E4870
:1013D0003B60394607F002F9204608F0D3FB3A4B50
:1013E00029483B60394607F0F9F8204608F0CAFB67
:1013F000364B25483B60394607F0F0F8204608F0A8
:10140000C1FB334B20483B60394607F0E7F82046E4
:1014100008F0B8FB2F4B1C483B60394607F0DEF85C
:10142000204608F0AFFB2C4B17483B60394607F0CD
:10143000D5F8204608F0A6FB284B13483B603946F8
:1014400007F0CCF8204608F09DFB254B0E483B608A
:10145000394607F0C3F8204608F094FB214B0A48B0
:101460003B60394607F0BAF8204608F08BFBAB5DCD
:1014700043F63D52013305F80280DBB293E500BF2D
:101480005494FF1F0A54551A9CD4FF1F0C54551A2C
:101490000E54551A1054551A1254551A1454551AFC
:1014A0001654551A1854551A1A54551AAB54551A3D
:1014B000AD54551AAF54551A0B54551A0D54551AAC
:1014C0000F54551A1154551A1354551A1554551AC8
:1014D0001754551A1954551A1B54551AAC54551A09
:1014E000AE54551AB054551AF8B500F57557002387
:1014F00000F574563B60343600F5927402E0F8341F
:10150000B4420DD02046FFF77DFC0028F7D02046DE
:101510003D68FFF7E3F8F8342844B4423860F1D16D
:101520003868F8BD012B2DE9F0411D460E46904666
:101530002DD0022B01D0BDE8F0814B7BDF2BFAD000
:101540000F6807F00F070137C7EB471400EBC40023
:1015500000F12C0420460121FFF760FC2046012108
:10156000FFF764FC2A4631462046FEF7BDFFB8F17E
:10157000010FE0D119480AF0FFF8394617480AF080
:101580004FF90D211648BDE8F04109F055BE0F682E
:1015900007F00F07C7EB471400EBC40000F12C0461
:1015A00019462046FFF73AFC29462046FFF73EFC45
:1015B0002A4631462046FEF797FFB8F1010FBAD10F
:1015C00006480AF0D9F8394604480AF029F90D21ED
:1015D0000448BDE8F04109F02FBE00BFC489FF1FD9
:1015E000101A0100001A010043F63D53C35C8BBB87
:1015F0008B7AFF2B2ED04B7BFF2B2BD0CB7BFF2B63
:1016000028D00B68A3F5D8732DE9F0413E2B22D8E2
:10161000DFE803F0888B8E9194979A9DA0A3A6A9EA
:10162000ACAFB2B5B8BBBEC1C4C7CACDD0D3D6D992
:10163000DCDFE2E52340554F52434621494C582117
:101640005B5E612164676A216D70732176797C210C
:101650007F8285007047BDE8F08100270924012AB8
:1016600090460E46054600F0BD80C4EB441405EBE1
:10167000C40000F12C0420460121FFF7CFFB2046D7
:101680000121FFF7D3FB324639462046BDE8F04141
:10169000FFF7B6B901270924E1E701270A24DEE7AD
:1016A00002270A24DBE700270B24D8E701270B24B5
:1016B000D5E703270924D2E700270A24CFE702272A
:1016C0000924CCE702270B24C9E700270C24C6E72E
:1016D00001270C24C3E702270C24C0E700270D24B0
:1016E000BDE701270D24BAE702270D24B7E700273D
:1016F0000E24B4E701270E24B1E702270E24AEE73B
:1017000000270F24ABE701270F24A8E702270F24A7
:10171000A5E700271024A2E7012710249FE702274E
:1017200010249CE70027012499E701273C4696E70F
:101730000227012493E70327012490E700270224CE
:101740008DE7012702248AE702273C4687E7032723
:10175000022484E70027032481E7012703247EE78E
:10176000022703247BE703273C4678E7002704246D
:1017700075E70127042472E7022704246FE7032793
:1017800004246CE70027052469E70127052466E7A0
:101790000227052463E70327052460E700270624C2
:1017A0005DE7012706245AE70227062457E70327A7
:1017B000062454E70027072451E7012707244EE7B2
:1017C000022707244BE70327072448E700270824BC
:1017D00045E70127082442E7022708243FE70327BB
:1017E00008243CE7094809F0C7FF214607480AF0EA
:1017F00017F84146064809F01FFD394603480AF02C
:101800000FF8024809F0B8FF2FE700BFC489FF1F97
:10181000201A01002DE9F043002383B0064603603F
:1018200000F59274012504E001353F2D04F1F80420
:1018300066D02046FFF7E6FA0028F5D04E4800F0C3
:101840002FFD29464D4800F02BFD2046FFF79EFA5C
:101850000BF018F902460B46494800F021FD2046DE
:10186000FEF7CAFE80462046FEF7E2FE07464046E7
:101870000BF008F98046384689460BF003F94246DA
:101880004B46CDE900013F4800F00AFD002120460B
:10189000FFF7A2FA012180462046FFF79DFA07468E
:1018A00040460BF0EFF88046384689460BF0EAF8E0
:1018B00042464B46CDE90001334800F0F1FC20469A
:1018C000FFF764FA014630680BF07EFC306020467A
:1018D000FFF73CF8B1690BF01DFF002833D120461B
:1018E000FEF700FFF1690BF033FF00289CD0204683
:1018F000FEF7F8FE01353F2DF06104F1F80498D1B0
:1019000070680BF015FD014630680BF019FE716927
:10191000306004460BF01CFF00B174613169204651
:101920000BF0F8FE00B134610B2008F0F5F843F637
:101930003C53F35C60B99BB143F63C530122F25433
:1019400003B0BDE8F0832046FFF700F8B061C6E7BA
:1019500053B943F63C530022F25403B0BDE8F08380
:101960000A4800F0CBFCE7E7094800F0B1FC43F679
:101970003C530022F254F0E780200100241A0100B9
:10198000601A0100741A0100A01A0100BC1A0100BB
:10199000F41A010070B5114B836000F574550646CA
:1019A000343500F5927402E0F834AC4213D020468E
:1019B000FFF728FA0028F7D02046FEF71DFEB16891
:1019C0000BF0A8FE0028EFD02046FEF715FEF834F5
:1019D000AC42B060EBD1B06870BD00BF0000A04069
:1019E00070B5002300F574550646C360343500F524
:1019F000927402E0F834AC4213D02046FFF702FAAA
:101A00000028F7D02046FEF713FEF1680BF0A0FE89
:101A10000028EFD02046FEF70BFEF834AC42F06011
:101A2000EBD1F06870BD00BF0068704743F63853D3
:101A3000C0587047416070472DE9F04100F574557A
:101A4000884617461E46343500F5927402E0F83495
:101A5000AC4213D02046FFF7D5F90028F7D0204636
:101A60004146FFF7D7F920463946FFF7E3F920460C
:101A70003146F834FFF7D6F9AC42EBD1BDE8F0813E
:101A80002DE9F041274A284B426200F5745507467C
:101A90004FF000080362343500F59274002602E02E
:101AA000F834A54210D02046FFF7ACF90028F7D053
:101AB0002046FEF735FE1D490BF04AFE80B9F8348A
:101AC000A54206F10106EED143F63853F858801BC3
:101AD0000BF02EFC014640460BF032FDBDE8F081D4
:101AE0002046FEF71DFE014640460BF06DFB80468A
:101AF0002046FEF7F7FD396A0BF02AFE60B9204652
:101B0000FEF724FF796A0BF005FE0028C8D02046B6
:101B1000FEF71CFF7862C3E72046FEF7E3FD38625C
:101B2000EDE700BF00C0794400C079C400008CC25A
:101B3000006A7047406A70472DE9F04143F6385318
:101B400000F574552E4600228046C25000273435D9
:101B5000383600F5927402E0F834AC421AD02046D0
:101B6000FFF750F90028F7D02046FEF783FD00214B
:101B70000BF0EEFD0028EFD02046FEF77BFD01467E
:101B800038460BF021FB3368F8340133AC4207468A
:101B90003360E4D143F6385358F803000BF0C8FB28
:101BA000014638460BF0CCFCBDE8F0812DE9F04F42
:101BB00006468FB092488B4600F01AFB904800F022
:101BC00017FB8F4800F014FB43F638533046F258A9
:101BD0000D92FFF789FC73680C93074630680AF092
:101BE00051FF804630468946FFF7A6FF82463046C1
:101BF000B468F568FFF744FF0AF044FFCDE90A0135
:101C0000214628460BF0DEFA7E490BF0E5FB0AF090
:101C100039FFCDE9080128460AF034FFCDE9060175
:101C200020460AF02FFFCDE9040150460AF02AFFB2
:101C30000D9A0C9BCDE90201CDE90089114672484D
:101C40003A4600F0D5FA6E4800F0D2FA06F59276E0
:101C50004FF001094FF0000A07E009F10109B9F15D
:101C60003F0F06F1F80600F095803046FFF7CAF8FE
:101C70000028F2D03046FEF7A9FC3046FEF7AAFC59
:101C80003046FEF7ABFC3046FEF7ACFC08215F485F
:101C900009F0D2FA49465E4809F0C2FDB9F1090FD0
:101CA00040F3A88002215B4809F0C6FA3046FFF7EE
:101CB0006DF80AF0E7FE5FFA8BF802460B46CDF8A6
:101CC0000080534809F0B4FD0121534809F0B4FAEB
:101CD0005546002420E00621504809F0ADFA294677
:101CE0004B4809F09DFD02214D4809F0A5FA214617
:101CF0003046FEF77BFC0AF0C5FECDF800800246B8
:101D00000B46434809F094FD01340121424809F093
:101D100093FA0D2C09D03D46092D05F10107DADCB7
:101D20000121404809F088FAD5E7394809F024FD37
:101D30003046FFF75FF80446012C0AF10D0A4FF018
:101D40000901394829D009F077FA00213046FFF718
:101D500043F80AF097FE022402460B4600942C48F2
:101D600009F066FD0E21314809F066FA3046FFF7AA
:101D700045F8002301461022254809F011FD09F11C
:101D80000109234809F0F8FCB9F13F0F06F1F80604
:101D90007FF46BAF0FB0BDE8F08F09F04DFA002172
:101DA0003046FFF719F80AF06DFE022502460B4691
:101DB0000095174809F03CFD0A211D4809F03CFA3E
:101DC00021463046FFF708F80AF05CFE009502460F
:101DD0000B460F4809F02CFD0A21164809F02CFA91
:101DE00029463046FEF7F8FF0AF04CFE0095024601
:101DF0000B46B4E701210B4809F01EFA52E700BF79
:101E00008020010000007A44A41D0100441E01004E
:101E1000C489FF1FD82C0100501E0100541E010070
:101E2000FC1E01000C1F01005C1E0100801E010051
:101E3000681E0100741E01002DE9F04F85B000F509
:101E400092758A4603929B462E464FF0010806E0A3
:101E500008F10108B8F13F0F06F1F8067BD03046D3
:101E6000FEF7D0FF0028F3D000230A22514687480E
:101E700009F096FC0121864809F0DEF903980AF082
:101E800001FE00230246009380480B4609F0D0FC77
:101E900001217F4809F0D0F959467C4809F0C0FC7F
:101EA00001217B4809F0C8F94146784809F0B8FC9F
:101EB0000121774809F0C0F900244FF002092146BA
:101EC0003046FEF793FB0AF0DDFDCDF800900246A8
:101ED0000B466E4809F0ACFC013401216C4809F056
:101EE000ABF9082C4FF00207E9D100213046FEF78C
:101EF00073FF0AF0C7FD009702460B46634809F0DE
:101F000097FC0121624809F097F901213046FEF75C
:101F100063FF0AF0B7FD009702460B465B4809F0E5
:101F200087FC01215A4809F087F939463046FEF707
:101F300053FF0AF0A7FD009702460B46534809F0ED
:101F400077FC08F10108514809F016FCB8F13F0F81
:101F500006F1F80683D14FF001084FF0000906E0C2
:101F600008F10108B8F13F0F05F1F8055DD02846EA
:101F7000FEF748FF0028F3D000230A2251464548C7
:101F800009F00EFC0121424808F01EF903980AF0FE
:101F900079FDCDF8009002460B463E4809F048FC1A
:101FA00001213B4808F010F959463A4809F038FC3D
:101FB0000121374808F008F94146364809F030FC5D
:101FC0000121334808F000F9002402272146284661
:101FD000FEF70CFB0AF056FD009702460B462D4813
:101FE00009F026FC01340121294808F0EDF80D2CF8
:101FF0004FF00206EAD12846FEF7FCFE0446012C0B
:102000004FF00001284613D0FEF7E6FE0AF03AFD35
:1020100008F10108024600960B461E4809F008FC2C
:10202000B8F13F0F05F1F805A1D105B0BDE8F08F7B
:10203000FEF7D2FE0AF026FD009602460B46154832
:1020400009F0F6FB2146124808F0BEF82146284662
:10205000FEF7C2FE0AF016FD009602460B460D483A
:1020600009F0E6FB21460A4808F0AEF8314628465A
:10207000FEF7B2FE0AF006FD009602460B46054842
:1020800009F0D6FB034809F077FB69E7C489FF1F15
:10209000201A01009889FF1F014B1870704700BF7C
:1020A000FC87FF1F0278002A00F0908070B503467D
:1020B00082B00D46252A2AD158785C1C08B3252801
:1020C0002FD0732831D0642824D0692822D06628E4
:1020D0004FD07A2859D0782835D058282FD0622868
:1020E0003ED0422838D06C2814D0632812D07428EF
:1020F00057D054285FD009F023F96278631C002A76
:10210000D8D1344802B0BDE8704009F035BB18782A
:102110001C46F0E72B1D29682E481D4609F080FB60
:10212000EBE7104609F00CF9E7E72E6830460CF0B3
:10213000E7FA01463046043509F07EF8DDE7022172
:10214000254809F079F82E1D29682248002310221D
:10215000354609F025FBD0E70221204809F06CF84C
:102160002E1D29681B4800230222354609F018FB62
:10217000C3E7073525F007050321D5E900231548F6
:102180000091083509F054FBB7E7073525F007053E
:102190000021D5E900230F480091083509F048FBDC
:1021A000ABE7296801290EBF0D480E48012104350F
:1021B00009F042F8A1E72B68012B07BF04210A4868
:1021C0000A480521043509F037F896E7014809F077
:1021D000D3BA00BFC489FF1F901E0100941E0100E6
:1021E000981E01009C1E0100A01E0100A81E0100F7
:1021F0000FB400B583B004A951F8040B0191FFF7A7
:1022000051FF03B05DF804EB04B0704770B51B4B91
:102210001B4C1B6882B00D460193019B236019463D
:1022200004460023164617480A2209F0B9FA03218A
:10223000154809F001F8032C07D8DFE804F01A1557
:1022400010020521114808F0F7FF0221104808F09C
:10225000F3FF31462846FFF725FF02B070BD072186
:102260000C4808F0E9FFF0E704210B4808F0E4FF10
:10227000EBE70521094808F0DFFFE6E744D6FF1F3A
:102280006494FF1FC489FF1FB01E0100CC1E010013
:10229000FC1E0100C41E0100BC1E0100B41E010092
:1022A0000FB400B5094B187883B020B103B05DF8C6
:1022B00004EB04B0704705AB1A4604990193FFF78D
:1022C000A5FF03B05DF804EB04B07047FC87FF1F67
:1022D0000FB4094B00B51B78012B83B004D903B0B0
:1022E0005DF804EB04B0704705AB1A4604990193FE
:1022F0000120FFF78BFFF2E7FC87FF1F0FB40B4BAA
:1023000000B51B78032B83B004D903B05DF804EB50
:1023100004B0704705AB1A46049901930320FFF7F8
:1023200075FF03B05DF804EB04B07047FC87FF1F36
:1023300030B4074D074C084900232B702360036518
:102340004365836580F85C300B6030BC704700BF2C
:102350007094FF1F6C94FF1F6894FF1F70B51320CB
:1023600007F0DAFBA8B1114E114B35881C6807F055
:10237000E7FBADB22C44201A33880E4AC0EB0010A4
:102380008000A0F634009BB2B0FBF3F39BB2138045
:1023900070BD074C07F0D4FB2368044AC01A80B212
:1023A000108007F0CDFB206070BD00BF04D4FF1F7C
:1023B00068D4FF1F7CD4FF1F0A4A0B49D06D936D70
:1023C00003FB00F34FF47A7000FB03F0642310B5B5
:1023D0000B600AF0ADFF0549054C0BF0B1F8206029
:1023E00010BD00BF28D3FF1F0C88FF1FE4388E3EAE
:1023F0005CD4FF1F10B4019C521AA4EB030412D04A
:10240000401A002C04FB00F002EBD27111DB00EB50
:10241000610101FB02F0002891FBF2F10B4414DB97
:10242000184610BC704704EBD47003EB600010BC7E
:102430007047A0EB610000FB02F1002990FBF2F075
:102440001844EEDB013010BC7047581E10BC7047BA
:1024500010B5074C204609F08FF9064B2046196845
:1024600009F0DEF903210448BDE8104008F0E4BE9D
:10247000C489FF1F1895FF1FD41E010038B50446FC
:1024800008460D460CF03CF92368024629465B6875
:10249000204698470546204609F06EF9284438BD85
:1024A0002DE9F8434848494D494F4A4CFFF7A0FEF3
:1024B000494BDFF850E14949494A4A485D601226D4
:1024C000494D1E70DF600026484F1C61C3F818E0BC
:1024D000474C59614FF00C0E46495A629862464A81
:1024E0004648DD621E63464D5F6340F61C460A2780
:1024F0009C63C3F854E041F20404DFF80CE19964F2
:10250000DA64022101221862C3F8C45000204FF09F
:102510007C55DE661F6764264FF496775C67C3F8C8
:102520001CE03224C3F83CE04FF05A0E5970597247
:102530001A729A6583F840009F661F665C665D6448
:10254000DE654FF47A78C3F878E0DFF8C0C0D8676A
:10255000C3F88010C3F8D420C3F88400C3F89C40AB
:10256000C3F8AC40DFF8A8E0C3F8A80044F620693F
:10257000C3F8B420C3F8B810FF2741F2883105240E
:1025800083F8C8204FF4FA7083F8C92040F2D6626D
:10259000C3F8BC601D65C3F8A080C3F890C0C3F841
:1025A00094E0C3F88C90C3F8B070A3F8C240A3F8CD
:1025B000CA00C3F89810A3F8C010A3F88820A3F8A5
:1025C0008A20BDE8F88300BFD81E010020A10700C3
:1025D000666686400000404028D3FF1F33338340A7
:1025E000CDCCCC3D00008242000020C10000204242
:1025F0000000A0409A9979400AD7233D33337340B5
:102600009A99993ECDCC4C40CDCC4C3E00006842CE
:1026100000C0204470B5464C464D4748E66800234C
:102620002B70FFF7DDF9014630460BF073F808B167
:1026300004232B704048FFF7ADF921690BF06AF8CD
:1026400018B12B7843F010032B703B48FFF770FA5A
:10265000A16A0BF07DF818B12B7843F040032B7082
:10266000002335486B70FFF765FAE16A314E0BF0D5
:1026700051F808B10123737000232F48EB70FFF766
:10268000AFF905462C482B4EFFF784F90146284642
:102690000AF098FDE16B0BF05BF808B10123F370D1
:1026A000264D254800232B70FFF79AF9616A0646EC
:1026B000E0680AF087FD014630460BF049F808B1A2
:1026C00004232B701C48FFF765F9616A06462069F0
:1026D0000AF07AFD014630460BF01CF818B12B7851
:1026E00043F010032B701448FFF722FAA16B064643
:1026F000A06A0AF067FD014630460BF029F818B1D0
:102700002B7843F040032B7000230B486B70FFF7CE
:1027100011FAA16B0546E06A084C0AF055FD014626
:1027200028460AF0F7FF08B10123637070BD00BFAF
:1027300028D3FF1F14D3FF1F2895FF1F7C94FF1F72
:102740002DE9F041844C2368012B82B027D0022B65
:1027500000F09E80032B00F0BE80EBB97F4B8048D9
:10276000D3F8AC20D3F8B0100368891A002903FB12
:1027700001F37C49C0F2D180323381FB0301D817C9
:10278000C0EB6111002B1144C0F2DC80062002B0C6
:10279000BDE8F04107F03AB802B0BDE8F081724EF2
:1027A00033680A33B3F57A7F00F3C7801846336085
:1027B0000AF0BEFD6D490AF00FFE8046674DD5F860
:1027C000AC000AF0B5FD0746D5F8B0000AF0B0FD40
:1027D00039460AF0F7FC41460AF0FEFD64490AF06A
:1027E000AFFE39460AF0F0FC0AF0BCFF01460620B5
:1027F00007F00CF802215F4808F01EFD5E4808F063
:10280000BBFF06215D4808F017FD30680AF090FD17
:1028100056490AF0E1FD0AF035F9022702460B4657
:102820000097554809F004F80D21554808F004FDBB
:10283000D5F8AC000AF07CFD804630680AF078FDDF
:102840004A490AF0C9FD0646D5F8B0000AF070FD05
:1028500041460AF0B7FC014630460AF0BDFD444946
:102860000AF06EFE41460AF0AFFC0AF00BF9009741
:102870000B460246404808F0DBFF39463D4808F069
:10288000DBFC3D4808F078FF2368022B7FF462AF41
:10289000354B324E00221A60D6F8AC000AF048FDE3
:1028A0000546D6F8B0000AF043FD29460AF08AFC36
:1028B00000210AF091FD2E490AF042FE29460AF055
:1028C00083FC0AF04FFF0146062006F09FFF2368B5
:1028D000032B7FF442AF244B204E4FF47A721A60E0
:1028E000D6F8AC000AF024FD0546D6F8B0000AF090
:1028F0001FFD29460AF066FC1D490AF06DFD1C49C2
:102900000AF01EFE29460AF05FFC0AF02BFF014682
:10291000062006F07BFF23681FE7323B81FB031094
:10292000D917C1EB6011002B0A4412DB511C0620A1
:1029300002B0BDE8F04106F069BF00234FF0000887
:1029400033603BE70139062002B0BDE8F04106F0F4
:102950005DBF11461AE700BFA894FF1F28D3FF1FD1
:102960000C88FF1F1F85EB5100D4FF1FCDCCCC3D41
:102970000000C842D82C0100C489FF1FF81E0100C6
:10298000001F010070B5B548B54C08F0F5FEB3481E
:1029900008F0F2FEB14808F0EFFE0D21B14808F052
:1029A0004BFCD4F8A830012B00F0B180AE4CAB4802
:1029B000217800230A2208F0F3FE2378052B0BD898
:1029C000DFE813F0F100F600FB000001050106004E
:1029D0000721A64808F030FC0221A54808F02CFC8D
:1029E000122007F099F8012800F02081112007F04B
:1029F00093F8012800F024819E4B1B68012B00F006
:102A0000288102219A489C4C08F016FC9B4B934865
:102A1000196808F005FF914808F0AEFE04219848B7
:102A200008F00AFC0B2007F077F8002301460A2281
:102A30008A4808F0B5FE0C2007F06EF80023014626
:102A40000A22864808F0ACFE142007F065F800233F
:102A500001460A22814808F0A3FE152007F05CF821
:102A60000A22002301467D4808F09AFE0621854887
:102A700008F0E2FB2368DD074FF001014CBF8248FC
:102A8000824808F0D9FB236898074FF001014CBF3A
:102A90007D487E4808F0D0FB23685A074FF00101BB
:102AA0004CBF7948794808F0C7FB23681B074CBF27
:102AB00075487648012108F0BFFB0421744808F0EE
:102AC000BBFB112007F028F8002301460A226348C7
:102AD00008F066FE102007F01FF8002301460A22C6
:102AE0005E4808F05DFE122007F016F8002301464C
:102AF0000A225A4808F054FE132007F00DF800236C
:102B000001460A225548BDE8704008F049BE092137
:102B1000604808F091FB6048FEF73CFF21690AF02D
:102B2000F9FD002862D15C48FEF75AFFE1680AF01F
:102B30000FFE002864D15848FEF752FF054656485C
:102B4000FEF728FF014628460AF03CFBE16B0AF03D
:102B5000FFFD00284FD15048FEF792FFA16A0AF00E
:102B6000F7FD00283DD14C48FEF78AFFE16A0AF0E4
:102B7000D1FD002830D1494B47481B68012B00F09C
:102B8000AF80FEF707FF2169354D0AF0E1FD00280F
:102B90003BD10721424808F04FFB424B2F481968B0
:102BA00008F03EFE18E706213F4808F045FB13E712
:102BB00007213E4808F040FB0EE707213C4808F09B
:102BC0003BFB09E708213B4808F036FB04E70B21F3
:102BD000394808F031FBFFE60D21384808F02CFB9E
:102BE000C9E70C21364808F027FBBCE70F21354820
:102BF00008F022FB97E71121334808F01DFBAAE7F4
:102C00000E21324808F018FB95E72348FEF7E8FE4E
:102C1000E9680AF07FFD0028BBD0134B1B78052B19
:102C20006ED008212A4808F007FBB2E70E21294898
:102C300008F002FB112006F06FFF01287FF4DCAEE4
:102C40000A21254808F0F8FA0A4B1B68012B7FF48B
:102C5000D8AE1121214808F0EFFAD2E6C489FF1F4F
:102C600028D3FF1F101F01001CD3FF1FE81F010006
:102C7000D82C010048D4FF1F80D4FF1F8494FF1F6D
:102C800020200100282001003020010064300100D4
:102C900034200100201F01002895FF1F7494FF1F9E
:102CA000B01F0100B494FF1FB81F0100C01F010036
:102CB000D41F0100DC1F0100C81F0100701F0100AC
:102CC000601F01002C1F01004C1F01003C1F010070
:102CD000A41F0100F01F0100002001000C200100D2
:102CE000FEF758FE216A0AF033FD002899D016211C
:102CF000064808F0A1FA0A21054808F09DFA48E7BD
:102D00000A21034808F098FA43E700BF801F01003A
:102D1000981F01002DE9F04FAB4CD4F88060012ED4
:102D20008DB000F07981032E00F0CC80DFF8DC82DA
:102D3000A64FA74EE36FA748012B09BF3168316842
:102D400001F10041316006F067F93B68002B40F06B
:102D50009F80A048DFF8B49206F034F93B68C8F8C9
:102D600000000546002B44D1D4F88030964A012B50
:102D700053D0994928460AF0EBFCC0B99749284638
:102D80000AF0C8FC98B9964A964B12680B920B9AB7
:102D90001A60D4F8B4000AF0CBFA29460AF01CFBFA
:102DA0000023C8F8000033600DB0BDE8F08FDFF8F5
:102DB00030A28C4FDAF800300A930A983B68DFF8AB
:102DC0005092C01A0AF0B0FA29460AF005FB86496B
:102DD0000AF0B6FB84490AF0B3FBD9F800100AF0F8
:102DE000F3F9DAF800300993099BC9F800003B6059
:102DF000CFE709F047FE022502460B4600957B48C7
:102E000008F016FD04217A4808F016FAD4F880304C
:102E1000D9F800506C4A012BABD1764B1B68012BC3
:102E200000F0DA81022BB4D1D2F88C7038460AF067
:102E30007FFA29460AF06EFC40B978420AF078FA27
:102E400029460AF085FC002800F0F981DFF890A1FE
:102E5000644FDAF80030079307983B68DFF8B091C9
:102E6000C01A0AF061FA29460AF0B6FA5E490AF079
:102E700067FB5D490AF064FBD9F800100AF0A4F979
:102E8000DAF800300693069BC9F800003B6080E743
:102E9000504806F097F809F0F5FD022502460B466A
:102EA0000095524808F0C4FC0321534808F0C4F9C7
:102EB000D4F88C104D4808F0B3FC03214E4808F0BC
:102EC000BBF946E74D4D4B4F2B68DFF84081D3F8F7
:102ED00084000F2101233B6006F02CF83B683B4F38
:102EE000012B3B6800F0BF80002B40F03D812B6838
:102EF000DFF82091D3F88400436B19698EB2C9F8CA
:102F0000006005F099FDB4F88A2040F6E44303FB25
:102F100006F1B1FBF0F0801A00B20AF009FA384964
:102F20002B4E8246D4F890000AF056FA01465046DD
:102F30000AF006FBD9F800303060632BDFF8D4A02C
:102F400000F30681002333603B68002B3FF4F2AEB0
:102F500002212C4808F070F92B68D9F80050D3F8FA
:102F6000840040F6E44303FB05F505F065FDB5FB81
:102F7000F0F00AF0D9F90546B4F88A000AF0D8F959
:102F8000014628460AF01EF909F07CFD022502469A
:102F90000B460095154808F04BFC2946194808F0E7
:102FA0004BF9306809F06EFD009502460B460F485C
:102FB00008F03EFC2946144808F03EF9294611481D
:102FC00008F03AF9B6E600BF28D3FF1FAC94FF1F04
:102FD0006CD4FF1F20D4FF1F0000FA430000FAC387
:102FE00044D6FF1F10D3FF1F00007A44C489FF1F7F
:102FF0007C2001002888FF1FF419010090D4FF1FD6
:10300000ACC52737D82C01007820010018D3FF1F4A
:103010005CD4FF1F98D4FF1FDFF80883D4F88C70AE
:10302000D8F8005038460AF083F929460AF090FB98
:1030300048B178420AF07CF9014628460AF088FB3C
:10304000002840F00381A54DA54F2A680223D2F83D
:1030500084003B600E2105F06DFF3B68A14F012B02
:103060003B687FF441AF002B40F0FA802B68DFF81B
:10307000B892D3F88400436B19691FFA81FBC9F831
:1030800000B005F0D9FCB4F88830974E40F6E44A19
:103090000AFB0BFBBBFBF0F0C01A00B20AF048F9C8
:1030A00092498346D4F894000AF096F901465846AE
:1030B0000AF046FA2A68D9F800303060D2F8840065
:1030C0000AFB03FA05F0B8FCB4F88830BAFBF0F05C
:1030D0000FFA80FAC3EB0A03002BB4F8C220B8BF82
:1030E0005B429342BCBF002333603B68002B3FF43C
:1030F00021AE02217E4808F09FF82B68D9F80050D5
:10310000D3F8840040F6E44303FB05F505F094FC96
:10311000B4F88810B5FBF0F000B2411A754808F019
:103120007FFB0221724808F087F8306809F0AAFC9A
:10313000022502460B4600956E4808F079FB0321F4
:103140006D4808F079F82946694808F075F8F1E506
:103150002B68D3F8840005F06FFCDAF8003064388F
:103160009842FFF4EFAEEFE66248DFF8BC91DFF87B
:103170006CA108F001FB0C21604808F05DF80C21FF
:103180005F4808F059F82A683B68D2F88400426B1F
:1031900011698EB2C9F80060002B3FF4B2AE05F0A1
:1031A0004BFC40F6E44100230A2201FB06F1B1FB8F
:1031B000F0F1504808F0F4FA02214D4808F03CF8CC
:1031C000B4F88A104B4808F02BFBDAF80030D9F835
:1031D0000060D3F8840094E64A4928460AF0B8FA19
:1031E00058B9494928460AF095FA30B9474A484B38
:1031F00012680592059A1A60CBE5DFF810A1444FDA
:10320000DAF80030049304983B68DFF82091C01A84
:103210000AF08AF829460AF0DFF83E490AF090F9E8
:103220003C490AF08DF9D9F8001009F0CDFFDAF821
:1032300000300393039BC9F800003B60A9E5334AC3
:10324000334B12680892089A1A60A2E5234D244F66
:1032500028683E604FF0FF320F2105F067FB3DE626
:103260002448DFF8C4901D4E08F086FAD4F8803068
:10327000012B4FF00B010CBF2748284807F0DCFF5B
:103280000C211F4807F0D8FF2A683B68D2F8840059
:10329000426B11691FFA81FBC9F800B0002B3FF4A3
:1032A000F0AE05F0C9FB40F6E44100230A2201FB21
:1032B0000BF1B1FBF0F10F4808F072FA0121184848
:1032C00007F0BAFFB4F888100A4808F0A9FA336882
:1032D000D9F800B0D3F88400D3E600BF90D4FF1F24
:1032E0002888FF1FAC94FF1F6CD4FF1FACC5273785
:1032F000D82C0100C489FF1F642001006820010050
:10330000542001000000FA430000FAC344D6FF1F16
:1033100010D3FF1F00007A443C2001004820010028
:103320000C1F010018D3FF1F98D4FF1F5CD4FF1F90
:103330002DE9F04F9D4D2B68012B85B000F0FF80EB
:103340009B4C9C4F9C4E9D4D2B683BB99C4B1B68E6
:103350000393039BB3F5FA5F00F2A180DFF8A88224
:10336000D4F88420924B012A04D0D3F88020002A7C
:1033700040F08F809348FEF70DFB9349D4F870A07E
:10338000D4F87490E56E0AF027F80AF011FAA36FEA
:1033900000934A465346294680B2FFF72BF8E56D65
:1033A000D4F858A005FB00F00AFB00F000EB800009
:1033B000400009F0BDFF85490AF0C2F8814630603F
:1033C00005FB0AF54FF47A7000FB05F009F0B0FF39
:1033D0007E49DFF8E0A10546484609F0FDFF294691
:1033E0000AF0AEF87A4909F0F7FF0AF0BBF9632852
:1033F000386048DD284675490AF0A2F86423306039
:10340000CAF80030D8F80030002B39D0D4F880301A
:10341000674D012B4BD0032B00F0C180022B00F035
:10342000B98002216B4807F007FF6B4B186809F061
:1034300029FB022402460B460094684808F0F8F97C
:103440002146674807F0F8FE2146624807F0F4FE7F
:103450003968624808F0E4F90621624807F0ECFE9A
:1034600030685A4909F0B8FF09F00CFB0094024695
:103470000B465A4808F0DCF903215B4807F0DCFEF4
:1034800005B0BDE8F08F0028BCBF0023CAF80030AB
:10349000B8E7D6F80090DD6DD3F858A090E7534B0D
:1034A0001B688BB1DFF8608101232B6058E7504B1C
:1034B0001B68012B4FF00A010CBF4E484E4807F025
:1034C000BBFED5F88030A6E73E48DFF83C81FEF72A
:1034D00061FA3D49D4F870B0D4F874A0D4F86C9077
:1034E00009F07AFF0AF064F9A36F009349465B463E
:1034F000524680B2FEF77EFFE26DA36D386002FB9C
:1035000000F003FB00F000EB8000400009F010FF2A
:103510002E490AF015F8D8F800303060002BC3D0DF
:1035200002212C4807F088FE2C4808F025F9592183
:10353000324807F081FE294808F01EF9B4E7214817
:103540001B4C1C4FFEF726FA1F49E66ED4F870900C
:10355000D4F8748009F040FF0AF02AF9A36F0093B1
:1035600031464B46424680B2FEF744FFE26DA36D02
:10357000386002FB00F003FB00F000EB800040002D
:1035800009F0D6FE11490C4E09F0DAFF0023306035
:103590002B60D8E607211A4807F04EFE41E71021BC
:1035A000184807F049FED4F8803037E750D4FF1FA1
:1035B00028D3FF1F0C88FF1F5CD4FF1F2495FF1F1B
:1035C00044D6FF1F2895FF1F00007A44E4388E3E42
:1035D0000000C842D82C010018D3FF1FC489FF1F68
:1035E00078200100142101001C2101008CD4FF1F50
:1035F0002888FF1FE0200100EC200100842001004A
:103600000C210100F82001000088FF1F30B51120B7
:1036100083B006F081FA012818D0122006F07CFA57
:10362000012813D000210B2006F070FA00210C2095
:1036300006F06CFA0021152006F068FA2649274B9F
:103640000120002208701A6003B030BD012115204E
:1036500006F05CFA224A234C234B1268D4F89810E7
:1036600001921B68019A1D4D0B4493424FF00201D9
:10367000296005D901210C2006F048FA03B030BDBD
:10368000D4F8A00009F054FE184B19680AF042F86B
:103690000028EFD101210B2006F038FA94F8C83049
:1036A00003242C6043B10C4B02221A7000210C2021
:1036B00006F02CFA03B030BD122006F02DFA0128D6
:1036C00008BF054B4FF0110008BF1C7006F024FA2C
:1036D0000128EBD1E7E700BF1CD3FF1F2095FF1F98
:1036E00044D6FF1F28D3FF1F80D2FF1F18D3FF1F10
:1036F000F0B5684E684D34682B689C4287B039D06D
:1037000014F0010155D014F0020149D014F0040165
:103710003DD0E3070ED52B68DF070BD45F4F3A6827
:10372000002A00F082805E4B1B680193019B93424C
:103730006DD83468A0070DD52B6899070AD4594F66
:103740003A68002A4CD0564B1B680393039B934264
:1037500038D8346862070DD52B685B070BD4524FFD
:103760003A68002A7ED04E4B1B680593059B934216
:1037700068D834680CB107B0F0BD2146162006F0B9
:1037800045F82146172006F041F807B0F0BD0520A6
:1037900006F03CF82B68346803F0FB032B60B8E7B5
:1037A000172006F033F82B68346803F0FD032B6014
:1037B000ACE7162006F02AF82B68346803F0FE0305
:1037C0002B60A0E7394B1720D3F89C1006F01EF8A9
:1037D0002B68346843F0020300222B603A60B9E79B
:1037E000334807F0C9FF0C21324807F025FD304867
:1037F00007F0C2FFFF21172006F008F8284B2E4AD9
:1038000019680291029912680A443A609CE7274BB2
:103810001620D3F89C1005F0F9FF2B68346843F0AC
:10382000010300222B603A6084E7FF21162005F097
:10383000EDFF1B4B204A19680091009912680A4459
:103840003A6071E7194B0520D3F89C1005F0DEFFB4
:103850002B68346843F0040300222B603A60002C8C
:1038600089D18AE7124807F087FF0C21134807F037
:10387000E3FC0F4807F080FFFF21052005F0C6FF9D
:10388000074B0D4A19680491049912680A443A607A
:103890006AE700BF2095FF1F80D4FF1F14D4FF1FCD
:1038A00044D6FF1F18D4FF1F08D4FF1F28D3FF1FC3
:1038B000C489FF1F202101001488FF1F302101004F
:1038C0002DE9F047534EDFF870813368DFF86C91D3
:1038D000D3F88400504D0F2105F02CFB002301226A
:1038E00022214E48C8F80030C9F8002007F0A4FC97
:1038F000D8F80030132B20DC40F6E4473368B5F8E5
:1039000088A0D3F88400436B1C6905F095F8A4B235
:10391000012107FB04F4B4FBF0F441485444A5F83A
:10392000884007F089FC642006F02CF9D8F80030B4
:103930000133132BC8F80030E0DDB5F88830394A80
:103940003948A2FB03129B1A02EB5303C3F30F1374
:103950001946A5F8883007F063FF1D21334807F0AA
:103960006BFC0221324807F067FC2F4807F004FF88
:1039700032680023D2F88400C8F800300E2105F028
:10398000D9FA022322212548C9F8003007F054FC57
:10399000D8F80030132B20DC40F6E4473368B5F844
:1039A0008A90D3F88400436B1C6905F045F8A4B2F3
:1039B000012107FB04F4B4FBF0F419484C44A5F8CA
:1039C0008A4007F039FC642006F0DCF8D8F80030B3
:1039D0000133132BC8F80030E0DDB5F88A30114A06
:1039E0001148A2FB03129B1A02EB5303C3F30F13FC
:1039F0001946A5F88A3007F013FF1D210D4807F07E
:103A00001BFC02210A4807F017FC0748BDE8F047F5
:103A100007F0B2BE90D4FF1F28D3FF1F4021010042
:103A20008421010087611886C489FF1F6421010079
:103A3000D82C0100882101008C94FF1F2888FF1FCB
:103A4000F8B5BD4BBD4CBE4F1B68786D40F251318F
:103A500008222160E271002B00F0698109F068FC06
:103A6000396A054609F0B8FCB64909F0B5FC09F019
:103A70009FFE80B203126372B34AB44B12681B6894
:103A8000B9692072A37228461B121512E3722273C1
:103A9000657309F0A1FCAB4909F09EFC09F088FEB2
:103AA00083B21A12A549AA48A373E27304F096FDE3
:103AB000A84BA94A1B681288A049A272DDB22572E0
:103AC00005EB850603EB8305760045F3D71540F239
:103AD000553E12121B1226736573082600259C485A
:103AE000C4F800E0E2726372E671A573E57304F056
:103AF00075FD40F2563399482360E671FDF794FF57
:103B0000974909F069FC09F053FE20729348FDF7CC
:103B10008BFF934909F060FC09F04AFE914A9049F5
:103B2000C0F307231068637209F00AFD09F01AFE5A
:103B300040FA06F203468948E272A372FDF7A0FF3D
:103B4000804909F049FC09F00DFE20738348FDF718
:103B500097FF7C4909F040FC09F004FE7749A57302
:103B600040F307237A486373E57304F037FD0220BE
:103B700006F008F87C4A7D4B1178507821729178D4
:103B80006072D2789878A172597893F800E0E27266
:103B90006173DA78A07340F25A3368496C4884F84C
:103BA0000CE0E2732360E67104F018FD704B63498A
:103BB0001A785878227260729A78D878A272E07275
:103BC0001A79987993F805E02273A073DA7960483E
:103BD00084F80DE040F25E33E2732360E67104F096
:103BE000FDFC022005F0CEFF624B54491A7858784C
:103BF000227260729A78D878A272E0721A799879F3
:103C000093F805E02273A073DA79514884F80DE047
:103C10004FF45C73E2732360E67104F0DFFC022072
:103C200005F0B0FF40F273334C482360E671FDF7B6
:103C3000B1FE514909F0D0FB09F0BAFD20724748A6
:103C4000FDF7A8FE4C4909F0C7FB09F0B1FDC0F330
:103C5000072342486372FDF7C3FE474909F0BCFBE6
:103C600009F0A6FDA0723D48FDF7BAFE424909F0F1
:103C7000B3FB09F09DFDC0F307233848E372FDF75D
:103C800059FF3E4909F0A0FA09F092FD207333482C
:103C9000FDF750FF394909F097FA09F089FDC0F3A3
:103CA00007232E486373FDF743FF344909F08CFA6C
:103CB00009F07EFDA0732948FDF73AFF2F4909F06E
:103CC00083FA09F075FD1D49C0F307232048E3730B
:103CD00004F084FC022005F055FFB96DFB6D022253
:103CE00011FB03F3C3F3072740F27931104621603B
:103CF000E2712372677205F045FF40F27233174894
:103D00002360E671FDF792FE20721448FDF78EFEE7
:103D100040FA06F3A5726372E57225736573A573A5
:103D2000E57306490A48BDE8F84004F057BC09F0BD
:103D3000FFFA7969054695E67494FF1F9094FF1F7A
:103D400028D3FF1F0000204174D4FF1FA494FF1F3D
:103D50009CD4FF1F0C88FF1F1288FF1F2895FF1F90
:103D60000000C84218D3FF1F14D3FF1F7C94FF1F0D
:103D70003888FF1F4088FF1F00007A443393884330
:103D80002DE9F041874C884D82B007F0EFF92368A8
:103D90002860042B00F0F982022B4BD0082B00F096
:103DA0009280072B40F02481332801F0C78500F36F
:103DB0007783312801F0AC85322840F08D8007F000
:103DC00011FA002840F312817848794E07F06AFE14
:103DD00009F0AEFA774909F0FFFA61230122F06396
:103DE00022602B601846A0F152031F2B01F274854C
:103DF000DFE813F05E0D720D720D720D720D720D13
:103E0000720D720D720D720D720D720D720D720DBA
:103E1000720D9603D50E1005AC057A04720D720D65
:103E2000720D0A04720DD80E720D720D720D720DA4
:103E3000720D600DA0F13102422A4DD8DFE812F078
:103E40006F087B08890896083308460853086208FB
:103E50004C004C004C004C004C004C004C004C0002
:103E60004C004C004C004C004C004C004C004C00F2
:103E70004C004C004C004C004C004C004C004C00E2
:103E80004C004C004C004C004C004C004C004C00D2
:103E90004C004C004C004C004C004C004C004C00C2
:103EA0004C004C002D084C004C004C004C004C00C9
:103EB0004C004C004C004C004C004C004C004C00A2
:103EC00036034C00A508322800F0F582712800F076
:103ED000ED82312800F00583002B08BF73280CBF4A
:103EE00001200020002859D0304807F045FC04216B
:103EF000314807F0A1F92D4807F03EFC10212F486A
:103F000007F09AF9294807F037FC13212C4807F0ED
:103F100093F92C4B2548196807F082FC234807F0D9
:103F20002BFC1421284807F087F9204807F024FCCF
:103F30001E21264807F080F91C4807F01DFC1521BA
:103F4000234807F079F9194807F016FC1E2121488B
:103F500007F072F9154807F00FFC20211E4807F002
:103F60006BF9124807F008FC19211C4807F064F9A6
:103F70000E4807F001FC1221194807F05DF90B48C3
:103F800007F0FAFB0D21174807F056F9074807F02C
:103F9000F3FB154A002101231160236002B0BDE844
:103FA000F08100BF94D4FF1F6CD2FF1FC489FF1F94
:103FB00028D3FF1F6F12833A682B0100702B01007A
:103FC000842B01002488FF1F982B0100B02B0100D7
:103FD000D02B0100E82B0100082C01002C2C010043
:103FE000482C01005C2C01000088FF1F2368286812
:103FF000062B40F08F80A0F13002412A3FF66CAFD3
:1040000001A151F822F000BF294D0000554D0000DC
:10401000814D0000AD4D0000D34D0000334C000039
:10402000054D0000C94C0000D93E0000DD4C0000E9
:10403000D93E0000D93E0000D93E0000D93E000024
:10404000D93E0000D93E0000D93E0000D93E000014
:10405000D93E0000D93E0000D93E0000D93E000004
:10406000D93E0000D93E0000D93E0000D93E0000F4
:10407000D93E0000D93E0000D93E0000D93E0000E4
:10408000D93E0000D93E0000D93E0000D93E0000D4
:10409000D93E0000D93E0000D93E0000D93E0000C4
:1040A000D93E0000D93E0000D93E0000D93E0000B4
:1040B000D93E0000D93E0000D93E0000D93E0000A4
:1040C000D93E0000D93E0000D93E0000D93E000094
:1040D000D93E0000D93E0000D93E0000D93E000084
:1040E000D93E0000D93E0000D93E0000D93E000074
:1040F000D93E0000D93E0000D93E0000D93E000064
:10410000D93E0000D93E0000D93E0000AD44000079
:1041100023682868052B40F08D80A0F13102402AE9
:104120003FF6DAAE01A151F822F000BF7F4A00004D
:10413000F34B0000B74B0000D74B0000734B00005F
:104140009D4B0000D93E0000D93E0000D93E000042
:10415000D93E0000D93E0000D93E0000D93E000003
:10416000D93E0000D93E0000D93E0000D93E0000F3
:10417000D93E0000D93E0000D93E0000D93E0000E3
:10418000D93E0000D93E0000D93E0000D93E0000D3
:10419000D93E0000D93E0000D93E0000D93E0000C3
:1041A000D93E0000D93E0000D93E0000D93E0000B3
:1041B000D93E0000D93E0000D93E0000D93E0000A3
:1041C000D93E0000D93E0000D93E0000D93E000093
:1041D000D93E0000D93E0000D93E0000D93E000083
:1041E000D93E0000D93E0000D93E0000D93E000073
:1041F000D93E0000D93E0000D93E0000D93E000063
:10420000D93E0000D93E0000D93E0000D93E000052
:10421000D93E0000D93E0000D93E0000D93E000042
:10422000D93E0000D93E0000D93E0000134C0000EA
:1042300023682868032B40F0A480A0F13002422AB2
:104240003FF64AAE01A151F822F000BF59430000E9
:10425000135500003B5500006355000085550000D4
:10426000A7550000CF550000095600000B5700006D
:104270002F570000D93E0000D93E0000D93E000073
:10428000D93E0000D93E0000D93E0000D93E0000D2
:10429000D93E0000D93E0000D93E0000D93E0000C2
:1042A000D93E0000D93E0000D93E0000D93E0000B2
:1042B000D93E0000D93E0000D93E0000D93E0000A2
:1042C000D93E0000D93E0000D93E0000D93E000092
:1042D000D93E0000D93E0000D93E0000D93E000082
:1042E000D93E0000D93E0000D93E0000D93E000072
:1042F000D93E0000D93E0000D93E0000D93E000062
:10430000D93E0000D93E0000D93E0000D93E000051
:104310005757000023500000275600004556000064
:1043200063560000B5560000D94F0000FD4F000055
:10433000D93E000075570000A9540000D93E000086
:10434000D93E0000D93E0000D93E0000D93E000011
:10435000D3540000DF54000006F044FF002841F36E
:10436000BE82CF48CF4E07F09DFB01270346014692
:104370006222CD48B36527602A60FDF75BFB2368A6
:104380002868012B7FF4A8AD2DE5A0F13102402A69
:104390003FF6A2AD01A151F822F000BF3B4E000054
:1043A000794E00007D4E00003F4E0000434E00005D
:1043B0005F4E0000754E0000114E0000154E0000CB
:1043C000D93E0000D93E0000D93E0000D93E000091
:1043D000D93E0000D93E0000D93E0000D93E000081
:1043E000D93E0000D93E0000D93E0000D93E000071
:1043F000D93E0000D93E0000D93E0000D93E000061
:10440000D93E0000D93E0000D93E0000D93E000050
:10441000D93E0000D93E0000D93E0000D93E000040
:10442000D93E0000D93E0000D93E0000D93E000030
:10443000D93E0000D93E0000D93E0000D93E000020
:10444000D93E0000D93E0000D93E0000D93E000010
:10445000D93E0000D93E0000D93E0000D93E000000
:10446000F94D0000D93E0000D93E0000D93E0000C1
:10447000D93E0000D93E0000D93E0000D93E0000E0
:10448000D93E0000D93E0000D93E0000D93E0000D0
:10449000D93E0000D93E0000D93E0000AD440000E6
:1044A000342801F0238271287FF416AD0023732095
:1044B0002360286010E506F095FE002840F3B183E4
:1044C0007748784E07F0EEFA08F032FF774908F0A7
:1044D00083FF07460246336D96F8401072487764B2
:1044E00015E006F07FFE002840F39F836C486D4E78
:1044F00007F0D8FAC0B286F84000032894BF0146FE
:104500000021336D726C684888BF86F84010FDF753
:1045100093FA012369202360286064E406F026FEF4
:1045200006F060FE05460028F8D15D485D4E07F0B4
:1045300023F95B4807F020F9594807F01DF958485E
:1045400007F01AF9564807F017F91F21584806F0E6
:1045500073FE534807F010F91C21564806F06CFE14
:10456000706A554908F038FF08F08CFA0095024649
:104570000B464B4807F05CF90221504806F05CFE00
:10458000474807F0F9F823214D4806F055FEF06B37
:10459000494908F021FF08F075FA009502460B46DC
:1045A0003F4807F045F90221444806F045FE3C48E3
:1045B00007F0E2F81921434806F03EFEB06B08F020
:1045C00061FA02250B4602460095354807F030F99E
:1045D00029463D4806F030FE314807F0CDF822214B
:1045E0003A4806F029FEB6F8CA102D4807F018F927
:1045F0000321374806F020FE294807F0BDF80723BD
:104600002360CBE406F0B2FD06F0ECFD0546002881
:10461000F8D12348234E07F0AFF8214807F0ACF853
:104620001F4807F0A9F81E4807F0A6F81C4807F035
:10463000A3F81521274806F0FFFD194807F09CF85C
:104640001821254806F0F8FD2B460A2296F840105E
:10465000134807F0A5F8124807F08EF828211F48E4
:1046600006F0EAFD706C144908F0B6FE08F00AFA8C
:1046700000950B4602460A4807F0DAF802210F4877
:1046800006F0DAFD064807F077F81321144806F023
:10469000D3FD034807F070F8082323607EE400BFD1
:1046A000C489FF1F28D3FF1F2895FF1F6F12833A6D
:1046B000F42301001424010000007A4420220100A8
:1046C0003424010058240100D02301007424010087
:1046D00098240100302C0100D8210100F4210100B0
:1046E0002422010006F042FD06F07CFD054600286C
:1046F000F8D18148814E07F03FF87F4807F03CF839
:104700007D4807F039F87C4807F036F87A4807F01A
:1047100033F811217A4806F08FFD774807F02CF81E
:104720002821784806F088FD7069774908F054FE22
:1047300008F0A8F9009502460B466F4807F078F894
:104740000221724806F078FD6B4807F015F8162133
:104750006F4806F071FDF0696B4908F03DFE08F006
:1047600091F900950B460246634807F061F8022173
:10477000664806F061FD604806F0FEFFD6F8B830E6
:10478000002B32DD1D21634806F056FD306E08F027
:10479000CFFD614908F020FE08F074F902250246B9
:1047A0000B460095544807F043F801215B4806F09A
:1047B00043FD514806F0E0FF1F21594806F03CFD3B
:1047C000706E08F0B5FD544908F006FE08F05AF97D
:1047D000009502460B46484807F02AF801214F4849
:1047E00006F02AFD444806F0C7FF11214D4806F0A7
:1047F00023FDD6F8B830072B00F2D187DFE813F09D
:104800004E085308490844083F083A083508CB07C2
:1048100006F0ACFC06F0E6FC0028F9D13648374E2D
:1048200006F0AAFF344806F0A7FF334806F0A4FFBD
:10483000314806F0A1FF304806F09EFF1F213A489C
:1048400006F0FAFC2C4806F097FF1E21374806F0C8
:10485000F3FC294806F090FF1A21354806F0ECFCDD
:10486000D6F88030022B01F04181032B01F0358115
:10487000012B01F0298109212E4806F0DDFC1E489C
:1048800006F07AFF14212C48DFF8708006F0D4FC83
:10489000F16F194806F0C4FF174806F06DFF1C21A0
:1048A000264806F0C9FCD6F88410134806F0B8FF75
:1048B000114806F061FF1C21214806F0BDFCD6F826
:1048C000B4100D4806F0ACFF0B4806F055FFD6F8C3
:1048D000805025F00207012F01F08680022D01F0A3
:1048E00024811321174806F0A7FC034806F044FF73
:1048F00002232360FFF752BBC489FF1F28D3FF1F89
:10490000D42B01003822010000007A44202201004B
:10491000642201007C220100CDCCCC3DCC270100DB
:104920009C220100BC2201008C260100AC26010063
:10493000CC26010044270100502701006827010010
:10494000882701002422010006F010FC06F04AFC32
:104950000028F9D1BE4806F00FFFBD4806F00CFF55
:10496000BB4806F009FFBA4806F006FFB84806F053
:1049700003FF1321B74806F05FFCB54806F0FCFEC4
:104980000D21B54806F058FCB14806F0F5FE0F21A0
:10499000B24806F051FCB24BAD48196806F040FF32
:1049A000AB4806F0E9FE1321AE4806F045FCAE4BDD
:1049B000A748196806F034FFA54806F0DDFE12216D
:1049C000AA4806F039FCAA4BA148196806F028FF4E
:1049D0009F4806F0D1FE1121A64806F02DFCA64BFB
:1049E0009B48196806F01CFF994806F0C5FE0E2189
:1049F000A24806F021FCA24B9548D3F8A81006F077
:104A00000FFF934806F0B8FE19219E4806F014FCEB
:104A10009D4B8F48196806F003FF8D4806F0ACFEE9
:104A200011219A4806F008FC994B8948196806F04C
:104A3000F7FE874806F0A0FE1021964806F0FCFB22
:104A4000954B8348196806F0EBFE814806F094FE0A
:104A50001C21924806F0F0FB914B7D48196806F046
:104A6000DFFE7B4806F088FE13218E4806F0E4FB4B
:104A7000774806F081FE04232360FFF78FBA06F023
:104A8000B1FB00287FF7D4AB71487D4E07F00AF8E0
:104A900001226B23C6F8980022602B6001E006F02B
:104AA00065FB06F09FFB0028F9D16948744D06F0BC
:104AB00063FE674806F060FE654806F05DFE6448E8
:104AC00006F05AFE624806F057FE2121764806F0AD
:104AD000B3FB5F4806F050FE1521744806F0ACFBAE
:104AE000D6F898105A4806F09BFE0221704806F04E
:104AF000A3FB574806F040FE1E216E4806F09CFBC3
:104B0000D6F8A010524806F08BFE03216A4806F042
:104B100093FB4F4806F030FE1E21684806F08CFBE0
:104B2000D6F89C104A4806F07BFE494806F024FE61
:104B30001D21634806F080FBD6F8AC10444806F00F
:104B40006FFE434806F018FE1E215E4806F074FB17
:104B5000D6F8B0103E4806F063FE3D4806F00CFE65
:104B6000D6F8A830012B00F0F58705232360FFF766
:104B700015BA06F037FB00287FF75AAB3448404E91
:104B800006F090FF424BC6F8B00003221A60FDF712
:104B9000D7FD01226B2322602B6082E7384E96F806
:104BA000C930B3FA83F35B0901216B2286F8C9305F
:104BB00021602A6075E706F015FB00287FF738AB07
:104BC00023482F4E06F06EFF01226B23C6F89C008F
:104BD00022602B6065E706F005FB00287FF728AB15
:104BE0001B48274E06F05EFF294BC6F8AC00022298
:104BF000CCE706F0F7FA00287FF71AAB1448204EEE
:104C000006F050FF01226B23C6F8A00022602B6043
:104C100047E71F4A00237320136023602860FFF7D3
:104C20005BB923682868FFF7BCB8154E96F84000BA
:104C300063E4134AD2F8B8300133072BC8BF00230E
:104C4000C2F8B8300123652023602860FFF7CBB895
:104C5000C489FF1FA8250100BC250100CC25010047
:104C600088D4FF1FDC250100AC94FF1FF025010054
:104C700054D4FF1F0426010020D3FF1F1826010073
:104C800028D3FF1F282601008494FF1F442601001B
:104C9000A894FF1F582601007894FF1F6C2601007E
:104CA0002088FF1F242201009C240100C024010051
:104CB00064230100D824010064200100F8240100CD
:104CC0001825010038250100B54B93F8C820002AAB
:104CD00000F04786002283F8C820B3E706F082FA86
:104CE00000287FF715AAAF48AD4E06F0DBFE08F0AE
:104CF0001FFBF76A3063394608F00CFD0028A1D08D
:104D000037639FE706F06EFA00287FF701AAA548EF
:104D1000A34E06F0C7FE65230122C6F8BC00226040
:104D20002B601846FFF75FB806F05CFA00287FF7A3
:104D3000EFA99C4806F0B6FE994A00EB80004300BC
:104D4000116E1BB28B42A2F8D0307FF77BAFA2F876
:104D5000D01077E706F046FA00287FF7D9A99148E6
:104D60008F4E06F09FFE08F0E3FA8F4908F0E8FB4B
:104D700065230122706122602B601846FFF733B86B
:104D800006F030FA00287FF7C3A98648844E06F063
:104D900089FE08F0CDFA844908F0D2FB6523012290
:104DA000F06122602B601846FFF71DB806F01AFA72
:104DB00000287FF7ADA97B48794E06F073FE00EB23
:104DC0008000430001226520336622602860FFF7DF
:104DD0000AB806F007FA00287FF79AA97148704EC2
:104DE00006F060FE00EB8000430001226520736640
:104DF00022602860FEF7F7BF6C4A1368B3FA83F3AA
:104E00005B0901216420136021602860FEF7EBBF7D
:104E1000674AF2E70123236006F0E4F9002800F373
:104E2000A585644B1A68042AC4BF02221A60642351
:104E30002B6023686420FEF7B1BF5F4ADDE75F4A5D
:104E4000DBE7574ED6F8A830B3FA83F35B090122AB
:104E50006420C6F8A83022602860FEF7C4BF012392
:104E600057482360FCF740FB564A236810606422D1
:104E70002A60DFE7544AC0E7544ABEE7544A554F18
:104E80001368002B0CBF012300234FF001001360B7
:104E9000206040F034860346E9E7FEF711FD236801
:104EA0002868FEF77BBF0123236006F09BF90028EA
:104EB00007DD3C483A4E06F0F5FD08F039FAC6F831
:104EC0009000632028602368FEF76BBF01232360F6
:104ED00006F088F90028F4DD3248314E06F0E2FD94
:104EE000A6F8C200EDE72E4AD2F8D4300133042BE5
:104EF000C8BF0123C2F8D430012363202360286097
:104F0000FEF771BF0123236006F06CF90028F3DD82
:104F10002448234E06F0C6FDC6F88C00ECE7204E70
:104F2000F36FB3FA83F35B0901226320F367226016
:104F30002860FEF758BF1A4ED6F88430B3FA83F3D0
:104F40005B0901226320C6F8843022602860FEF7E6
:104F50004ABF0123236006F045F90028CCDD114843
:104F60000F4E06F09FFDC6F8B400C5E7012323608D
:104F700006F038F90028A4DD0A48094E06F092FD33
:104F800008F0D6F9C6F894009BE7054AD2F88030BD
:104F90000133032BC8BF0023C2F88030ACE700BF49
:104FA00028D3FF1FC489FF1F00007A4470D4FF1F5D
:104FB0007894FF1F2088FF1F88D4FF1F20D3FF1F76
:104FC0002895FF1F8494FF1FA894FF1FAC94FF1F18
:104FD00054D4FF1F94D4FF1F06F004F900280DDD00
:104FE0001748184E06F05EFD08F0A2F9164908F0C1
:104FF000A7FA01226223306222602B6006F0F2F8E9
:1050000000280EDD0E480F4E06F04CFD08F090F91A
:105010000D4908F095FA01226223C6F8C400226007
:105020002B6006F0DFF8002840F359840448054E51
:1050300006F038FD01226223F06622602B6007E053
:10504000C489FF1F28D3FF1F00007A4406F08EF8A2
:1050500006F0C8F805460028F8D1C24806F08CFBD7
:10506000C04806F089FBBF4806F086FBBD4806F045
:1050700083FBBC4806F080FB1521BB4806F0DCF83A
:10508000B84806F079FB1421B84806F0D5F8B548C1
:1050900006F072FB1B21B64806F0CEF8B14806F0C8
:1050A0006BFB1321B34806F0C7F8AE4806F064FB6B
:1050B000AC4806F061FBAB4806F05EFB2021AE4831
:1050C00006F0BAF8F068AD4908F086F907F0DAFCA6
:1050D000009502460B46A34806F0AAFB0221A84809
:1050E00006F0AAF80221A74806F0A6F89D4806F0A7
:1050F00043FB2121A44806F09FF830699F4908F03E
:105100006BF907F0BFFC009502460B46954806F088
:105110008FFB02219A4806F08FF80221994806F089
:105120008BF8904806F028FB1F21984806F084F879
:10513000B06A07F0A7FC022702460B460097894891
:1051400006F076FB0121924806F076F839468D4844
:1051500006F072F8834806F00FFB20218D4806F018
:105160006BF8F06A07F08EFC009702460B467D480C
:1051700006F05EFB0121864806F05EF8394681485C
:1051800006F05AF8774806F0F7FA2321824806F02D
:1051900053F8B06C794908F01FF907F073FC0095DB
:1051A00002460B466F4806F043FB3946744806F04A
:1051B00043F83946734806F03FF86A4806F0DCFACF
:1051C0001F21764806F038F8F06C6C4908F004F9B5
:1051D00007F058FC009502460B46624806F028FB93
:1051E0003946674806F028F83946664806F024F83C
:1051F0005C4806F0C1FA1921694806F01DF8F16D06
:10520000584806F00DFB3946664806F015F8394651
:105210005C4806F011F8534806F0AEFA18216248CF
:1052200006F00AF8B06E08F083F8604908F0D4F888
:1052300007F028FC009702460B464A4806F0F8FAA9
:1052400001215B4805F0F8FF39464E4805F0F4FFB0
:10525000444806F091FA2B21564805F0EDFFB0695D
:10526000464908F0B9F807F00DFC009502460B46D8
:105270003C4806F0DDFA3946414805F0DDFF394685
:10528000404805F0D9FF374806F076FA1F214A4812
:1052900005F0D2FFB16D334806F0C2FA39463948FD
:1052A00005F0CAFF2F4806F067FA2021434805F0B1
:1052B000C3FF716D2B4806F0B3FA3946314805F04B
:1052C000BBFF284806F058FA10213D4805F0B4FF0E
:1052D000F16E244806F0A4FA3946294805F0ACFFDF
:1052E0003946284805F0A8FF1E4806F045FA132164
:1052F000344805F0A1FF316F1A4806F091FA0121F8
:10530000314805F099FF39461E4805F095FF1548CC
:1053100006F032FA10212D4805F08EFF716F11480A
:1053200006F07EFA3946164805F086FF39461548DC
:1053300005F082FF0B4806F01FFA1421244805F0FF
:105340007BFFB16F074806F06BFA01211E4805F09C
:1053500073FF39460B4805F06FFF024806F00CFA60
:10536000162137E0C489FF1FB0280100C8280100BA
:10537000E028010024220100FC28010000007A44FA
:1053800020220100D82C010020290100442901001D
:1053900064290100682901008C290100B02901005D
:1053A000D0290100EC290100F0290100CDCCCC3D31
:1053B000CC2701000C2A0100382A0100582A0100DC
:1053C0007C2A0100902A0100A42A0100A82A0100D9
:1053D000BC2A0100AA4805F02FFF306AA94907F04E
:1053E000FBFF07F04FFB009502460B46A64806F070
:1053F0001FFA3946A54805F01FFF3946A44805F0B5
:105400001BFFA14806F0B8F92421A24805F014FFBB
:10541000D6F8C4009B4907F0DFFF07F033FB009587
:1054200002460B46984806F003FA3946974805F0BD
:1054300003FF3946964805F0FFFE934806F09CF9B5
:105440002B21954805F0F8FE706B07F01BFB0097C9
:1054500002460B468C4806F0EBF901218F4805F017
:10546000EBFE39468A4805F0E7FE874806F084F9E6
:1054700027218B4805F0E0FED6F8CC00814907F0E3
:10548000ABFF07F0FFFA00950B4602467E4806F098
:10549000CFF939467D4805F0CFFE7B4806F06CF920
:1054A00003232360FEF77ABD05F09CFE002840F33D
:1054B000168275487B4E06F0F5FA07F039FF714900
:1054C00008F03EF801226223C6F8CC0022602B606F
:1054D000BEE50022732322602B60FEF705BD724BF0
:1054E0006B48704E022101271F6005F0A5FE66483B
:1054F00006F042F90B216D4805F09EFE022164483A
:1055000005F09AFE604806F037F9622327602B60A9
:105510009EE505F067FE002840F3E1815A48614EA0
:1055200006F0C0FA07F004FF564908F009F8012216
:105530006223F06022602B608AE505F053FE0028AC
:1055400040F3CD815048574E06F0ACFA07F0F0FE1C
:105550004C4907F0F5FF01226223306122602B6085
:1055600076E505F03FFE002840F3B98146484D4EF0
:1055700006F098FA07F0DCFE01226223B062226096
:105580002B6065E505F02EFE002840F3A8813E481B
:10559000444E06F087FA07F0CBFE01226223F06248
:1055A00022602B6054E505F01DFE002840F3978132
:1055B00035483C4E06F076FA07F0BAFE314907F05E
:1055C000BFFF01226223B06422602B6040E505F03A
:1055D00009FE002840F383812B48324E06F062FA20
:1055E00007F0A6FE274907F0ABFF0122034601465C
:1055F0002F48F3642260FBF79DFC23686222012B95
:105600002A607EF4CBAC23E505F0ECFD002840F3E6
:1056100066811D48234E06F045FA01226223F0659B
:1056200022602B6014E505F0DDFD002840F3578172
:1056300015481C4E06F036FA0122622330672260BC
:105640002B6005E505F0CEFD002840F348810E48AB
:10565000144E06F027FA01226223706722602B6045
:10566000F6E405F0BFFD002840F3398106480D4EF1
:1056700006F018FA01226223B06722602B60E7E48B
:10568000D42A010000007A44C489FF1F20220100AF
:10569000D82C0100EC2A0100142B01006429010020
:1056A000402B010028D3FF1F50D4FF1FCC21010045
:1056B0002895FF1FFCF7F4FE0221B048B04E05F01C
:1056C000BBFDB04806F058F80221AC4805F0B4FD27
:1056D000AC4806F051F80221A84805F0ADFDA948F4
:1056E00006F04AF81721A84805F0A6FDA54806F0DF
:1056F00043F80221A14805F09FFDA24806F03CF8BE
:105700000122622322602B60A2E405F06BFD0028D9
:1057100040F3E5809B489A4E06F0C4F900EB800008
:10572000430001216222B36621602A6090E405F003
:1057300059FD002840F3D3809248914E06F0B2F90B
:1057400007F0F6FD914907F0FBFE01226223B061EC
:1057500022602B607CE405F045FD002840F3BF800B
:105760008848874E06F09EF9012262237065226008
:105770002B606DE405F036FD002840F3B0808148D1
:105780007F4E06F08FF907F0D3FD0122622370638C
:1057900022602B605CE410217D4805F04DFD7948C6
:1057A000774D05F0E9FFD6F8B830002B12DD18214F
:1057B000784805F041FDD5F8BC10724806F030F885
:1057C0000221754805F038FD6E4805F0D5FF6D489B
:1057D00005F0D2FF1B21714805F02EFD96F8C83068
:1057E000012B15BF122114216D486E4805F024FDD0
:1057F000644805F0C1FF1F216B4805F01DFD306BAB
:1058000007F040F9022502460B4600955D4806F078
:105810000FF82946654805F00FFD5A4805F0ACFF22
:105820001E21634805F008FDB6F9D00007F080FDA1
:10583000604907F0D1FD07F025F900950B460246B7
:10584000504805F0F5FF01215B4805F0F5FC4D4897
:1058500005F092FF1321594805F0EEFC494805F088
:105860008BFF06232360FEF799BB0421544805F003
:10587000E3FC94E70B21534805F0DEFC8FE70D2194
:10588000514805F0D9FC8AE70D21504805F0D4FCB9
:1058900085E70C214E4805F0CFFC80E70D214D48EF
:1058A00005F0CAFC7BE70C214B4805F0C5FC76E708
:1058B00004F080FFD8220021314803F0CFFD286892
:1058C000464AA0F1730001210023B0FA80F040099C
:1058D00011602360FEF706BB2368FEF7FDBA23685C
:1058E0002868012B7EF4F8AAFEF77DBA05F07AFC51
:1058F00000287EF77BAB2348214E06F0D3F86123C6
:105900000122A6F8CA0022602B601846FEF76BBA87
:1059100005F068FC00287EF769AB1A48184E06F0BF
:10592000C1F807F005FD2E4907F056FD612301225D
:10593000706222602B601846FEF755BA05F052FCE3
:1059400000287EF753AB0F480D4E06F0ABF807F07A
:10595000EFFC61230122B06322602B601846FEF742
:1059600042BA012283F8C820FFF76CB9054806F057
:1059700099F81C4B02461860FFF755BAD82C010065
:1059800028D3FF1FC489FF1FB421010000007A44FF
:10599000342301004823010064230100682301002F
:1059A0008423010098230100B0230100D0230100CB
:1059B000D4230100CDCCCC3DCC2701002422010012
:1059C0002C230100202301001023010000230100EB
:1059D000F0220100D0220100E02201000088FF1F18
:1059E0006F12833A2088FF1F1C21704805F024FCA9
:1059F0006F49D8F8940007F0EFFC07F043F80097E0
:105A000002460B466B4805F013FF05216A4805F076
:105A100013FC684805F0B0FED8F88050012D19D16C
:105A20001D21664805F008FC6149D8F8900007F090
:105A3000D3FC07F027F8009502460B465D4805F0B9
:105A4000F7FE05215C4805F0F7FB5A4805F094FE87
:105A5000D8F8805025F00203012B7EF43FAF1C21C3
:105A60005748584F05F0E8FBB6F8C210514805F00A
:105A7000D7FE0321544805F0DFFB4E4805F07CFEBD
:105A8000D6F88050012D7EF429AF1F214F4805F034
:105A9000D3FBD7F88C0007F04BFC4D4907F09CFC7A
:105AA00006F0F0FF022502460B460095414805F03E
:105AB000BFFE2946474805F0BFFB3E4805F05CFEA7
:105AC000D7F88050FEF70ABF1E21434805F0B4FB0B
:105AD000384805F051FEFEF7D5BE20213F4805F0BD
