:1000000000800020BD01000001880000B9870000C9
:10001000B9870000B9870000B9870000B9870000E0
:10002000B9870000B9870000B98700000188000087
:1000300001880000B9870000C9A80000CDA9000010
:10004000018800000188000001880000018800008C
:10005000018800000188000001880000018800007C
:10006000018800000188000001880000018800006C
:10007000018800000188000001880000018800005C
:10008000018800000188000001880000018800004C
:10009000018800000188000001880000018800003C
:1000A000018800000188000001880000018800002C
:1000B00001880000E97C0000F57C0000F97C00006C
:1000C000057D0000097D00000D7D00000188000015
:1000D00001880000018800000188000001880000FC
:1000E00001880000018800000188000001880000EC
:1000F00001880000D5B0000001880000A194000034
:10010000018800006D960000018800000188000051
:1001100001880000018800000188000001880000BB
:1001200001880000018800000188000001880000AB
:10013000018800000188000001880000018800009B
:10014000018800000188000001880000018800008B
:10015000018800000188000001880000018800007B
:1001600001880000FD98000001880000018800005F
:10017000018800000188000001880000018800005B
:10018000018800000188000001880000018800004B
:10019000018800000188000001880000018800003B
:1001A000018800000188000001880000018800002B
:1001B000018800000188000001880000564B4CF2C5
:1001C000205210B51A804DF628121A8000BF00BFC9
:1001D00008F01AFB514B4FF010621A60504A9A60B7
:1001E000504ADA60504A136813F4807304D14F49BF
:1001F0000B604FF4A85313604D4B1A78110703D5C9
:100200001A7842F008021A704A4B4B492A221A7097
:100210004A4A4B4B8B4204D252F8040F43F8040B6A
:10022000F8E7484B484900228B4202D243F8042B9E
:10023000FAE74649464A002352F8230041F82300D2
:1002400001336F2BF8D1434B434A802103F8011B44
:100250009342FBD1414B3D4A1A60414B8A221A70AE
:10026000A3F5805324225A70A0221A709A7992071B
:10027000FCD59A79D406FCD43A4A937903F00C035E
:10028000082B384BF9D103221A7140225A719A79FE
:100290009006FCD5334A9179324B4906FBD5324A58
:1002A000324911600221516020221A709A7902F0BD
:1002B0000C020C2AFAD12E4B2E4A1A602E4B2F4AD2
:1002C0001A6000225A60072243F8042C2C4AC3F813
:1002D0000C2D62B608F04EFD144B1B68DA0705D5ED
:1002E000284808F02BFB284B284A1A60284B1B781B
:1002F0005B0609D5244C254B22689A4204D121483B
:1003000008F01CFB002323600CF0CCF908F082FA03
:100310000AF0A0FDFEE700BF0E200540308004403B
:10032000823F04000100002B10D0034014D0034092
:1003300002D0074000E007403892FF1F8C230100E5
:100340002087FF1F3892FF1F08D6FF1F0082FF1F64
:100350000000000000E400E05FE400E008ED00E0E1
:100360000050064000400640448004400000030165
:1003700004800440C010050014E000E0FF76010096
:1003800000002020C7B51E601CE00340A5C3945A9E
:1003900000F00740FFFFFFFFFFFFFFFFFFFFFFFF32
:1003A000FFFFFFFFFFFFFFFFFFFFFFFFFFFFFFFF5D
:1003B000FFFFFFFFFFFFFFFFFFFFFFFFFFFFFFFF4D
:1003C000FFFFFFFFFFFFFFFFFFFFFFFFFFFFFFFF3D
:1003D000FFFFFFFFFFFFFFFFFFFFFFFFFFFFFFFF2D
:1003E000FFFFFFFFFFFFFFFFFFFFFFFFFFFFFFFF1D
:1003F000FFFFFFFFFFFFFFFFFFFFFFFFFFFFFFFF0D
:10040000FFFFFFFFFFFFFFFFFFFFFFFFDEF9FFFF23
:1004100010B5054C237833B9044B13B10448AFF33E
:1004200000800123237010BD3892FF1F00000000E0
:1004300088230100084B10B51BB108490848AFF3E9
:1004400000800848036803B910BD074B002BFBD0A0
:10045000BDE81040184700BF000000003C92FF1F9D
:10046000882301003892FF1F00000000F0B400F163
:100470003006174F00243146031F00F1640243F891
:10048000044FB34241F8047F4FF0000542F8044F97
:10049000F5D100230F4A104CC0F89C5047F2305160
:1004A000C0F8A050C0F8A450C0F8A850C0F8B85088
:1004B000C0F8B040C0F8AC20C0F8B42080F8C43018
:1004C00080F8C53080F8DC30C0F8F010F0BC704720
:1004D0000000A040000048430000C8C238B5CB7BF4
:1004E000FD2B0C46054632D0087A0BF075FE4FF016
:1004F0007C510BF0C5FE1D490BF0B8FDC5F8A000FE
:10050000207BEF2809D90023C5F8A430607BEF28B1
:1005100011D90023C5F8A83038BD0BF05DFE4FF0AF
:100520007C510BF0ADFE11490BF0A0FDC5F8A40005
:10053000607BEF28EDD80BF04FFE4FF07C510BF0B5
:100540009FFE0A490BF092FDC5F8A80038BD887AD5
:10055000FD28E1D00BF040FE4FF07C510BF090FEF7
:1005600003490BF083FDC5F8A00038BD00002C4204
:100570000000204290F8CC00704700BF90F8C800FF
:10058000704700BF90F8D000704700BF90F8D400CB
:10059000704700BF0D2994BF50F82100002070471C
:1005A0002DE9F0410B4E8046041F00F1300754F84E
:1005B000045F314628460CF001F830B1D8F8BC1081
:1005C00028460CF019F800B12E46BC42EFD1304657
:1005D000BDE8F081000020412DE9F041D0F8BC7069
:1005E0004FF00008041F00F1300654F8045F39464C
:1005F00028460CF001F8084948B128460BF0DEFF08
:10060000414620B128460BF0F7FF00B1A846B4429E
:10061000EBD14046BDE8F0810000A0402DE9F04755
:10062000D0F8BC7082464FF00009041F00F130067C
:100630004FF0000854F8045F394628460BF0DCFF01
:100640000C4950B128460BF0B9FF30B14846294655
:100650000BF00EFD08F101088146B442EAD1CAF858
:10066000E08040460BF0B8FD014648460BF0BCFE6A
:10067000BDE8F0870000A040D0F8E000704700BF60
:1006800038B5D0F8D83053B9D0F8A440D0F8A0503D
:10069000214628460BF092FF30B1204638BD273363
:1006A00050F82340204638BD2C46204638BD00BFB8
:1006B000D0F8D8302DE9F041002B7CD1D0F8A460DF
:1006C000D0F8A0500446314628460BF0D1FCD4F8AF
:1006D000A870394680460BF0CBFC7E490BF084FEB7
:1006E0004FF07C5104460BF087FF002861D04FF09B
:1006F0007C5128460BF080FF4FF07C51002860D1E0
:1007000028460BF05BFF38B14FF07C5130460BF0C0
:1007100073FF002840F0A7804FF07C5128460BF073
:100720006BFF002860D14FF07C5128460BF064FF2E
:10073000002840F0A1804FF07C5128460BF05CFF70
:1007400000286CD14FF07C5128460BF037FF4FF05A
:100750007C5110B330460BF04FFF38B14FF07C5155
:1007600038460BF02BFF002840F0B0804FF07C5152
:1007700030460BF023FF002861D04FF07C51384603
:100780000BF03AFF002840F0A38038464FF07C5130
:100790000BF014FF68B1504C10E028460BF00EFF30
:1007A0000028E3D128464FF07C510BF007FF0028CA
:1007B00045D1BDE8F081273350F823402046BDE8FD
:1007C000F08130460BF018FF4FF07C5100283ED0EE
:1007D00038460BF011FF0028F0D14FF07C5128462D
:1007E0000BF0ECFE002859D14FF07C5130460BF055
:1007F000E5FE002840D04FF07C5138460BF0FCFE5F
:10080000002841D14FF07C5130460BF0F5FE68B125
:100810004FF07C5138460BF0D1FE00284FD14FF0FD
:100820007C5130460BF0CAFE00288BD04FF07C5133
:1008300038460BF0C3FE002884D02C46BEE7304675
:100840004FF07C510BF0BAFE0028B2D09DE728464D
:100850000BF0B4FE0028C7D04FF07C5130460BF0AF
:10086000CBFE0028C0D04FF07C5138460BF0C4FEC0
:1008700000283FF451AF18E04FF07C5130460BF0A8
:10088000BBFE0028CBD0C3E7394628460BF0F0FB6F
:100890004FF07C510BF0F4FC04468FE74FF07C5195
:1008A00038460BF0A9FE00289ED0394630460BF0A2
:1008B000DFFB4FF07C510BF0E3FC04467EE7404643
:1008C0004FF07C510BF0DCFC044677E7344675E7CB
:1008D0003C4673E7000040400000A0C2D0F8D8209A
:1008E00070B5002A34D10446FFF7E2FE4FF07C5188
:1008F0000BF082FE58B3D4F8A0604FF07C51304624
:100900000BF07AFED4F8A45038BBD4F8A8404FF0CE
:100910007C5128460BF070FE48B1294630460BF05A
:100920006BFE20B1214628460BF048FE28BB4FF055
:100930007C5120460BF060FE48B1284621460BF062
:100940005BFE20B1304621460BF056FE18B970BD53
:10095000273250F82240204670BD304629460BF021
:100960002DFED4F8A8400028D1D0304621460BF007
:1009700025FE0028CBD03446EDE72C46EBE700BF40
:100980002DE9F047814684B01546032900F27B81AA
:10099000DFE811F0FF00BE007D0004004FF0000A08
:1009A00080F8ECA0937A507A1B0103EB101000F54D
:1009B0007A700BF011FCB6490BF062FCD9F80040DC
:1009C000C9F830004846FFF789FFD9F8AC10054652
:1009D0000BF0F4FD08B1C9F8AC50D9F8D830002BB1
:1009E00040F02381D9F8A060D9F8A45030462946B8
:1009F0000BF0E4FD002800F00C81D9F8B010284677
:100A00000BF0FAFD002840F00D8109F13406C846CC
:100A100009F168050D2701E058F8044F31682046B8
:100A20000BF0CCFD30B1D9F8BC1020460BF0DAFD4C
:100A300000B13460296820460BF0DEFD043695498C
:100A400020B120460BF0D8FD00B12C60013F05F12C
:100A50000405E1D1BAF1000F00F0F6808E4CD9F810
:100A6000E81023680193019AD9F8F030521A9A429B
:100A700080F0F38022680292029A0B449B1A41F2A2
:100A80008732934240F20A8104B0BDE8F0874FF00C
:100A9000000A80F8ECA0937A507A1B0103EB101047
:100AA00000F57A700BF098FB79490BF0E9FBC9F877
:100AB00020002B7B687B1B1103EB001000F57A7084
:100AC0000BF08AFB72490BF0DBFBC9F828002B7B8B
:100AD000EA7A1B0203F47063981800F57A700BF041
:100AE0007BFB6B490BF0CCFBC9F82400EB7BAA7BAA
:100AF0001B0203F47063981800F57A700BF06CFB1E
:100B000063490BF0BDFBD9F80040C9F82C0059E748
:100B10004FF0000A80F8ECA0937A507A1B0103EBA7
:100B2000101000F57A700BF057FB59490BF0A8FB39
:100B3000C9F810002B7B687B1B1103EB001000F53C
:100B40007A700BF049FB52490BF09AFBC9F8180078
:100B50002B7BEA7A1B0203F47063981800F57A7015
:100B60000BF03AFB4A490BF08BFBC9F81400EB7B06
:100B7000AA7B1B0203F47063981800F57A700BF0DF
:100B80002BFB43490BF07CFBD9F80040C9F81C0053
:100B900018E74FF0000A80F8ECA0937A507A1B0116
:100BA00003EB101000F57A700BF016FB38490BF0D0
:100BB00067FBC9F800002B7B0446687B1B1103EB25
:100BC000001000F57A700BF007FB31490BF058FB71
:100BD000C9F808002B7BEA7A1B0203F470639818AB
:100BE00000F57A700BF0F8FA29490BF049FBC9F8C7
:100BF0000400EB7BAA7B1B0203F47063981800F5DA
:100C00007A700BF0E9FA22490BF03AFBC9F80C00B4
:100C1000D8E63146D9F8B0000BF0D0FC00283FF4FC
:100C2000F4AE3546C9F8B050EFE609EB8303D9F8C6
:100C3000B010D3F89C5028460BF0DEFC00283FF49F
:100C4000E4AEC9F8B050E0E6134B1B680093009B7C
:100C5000C9F8E83004B0BDE8F0870020A9F104032A
:100C600009F11C0143F8040F8B424FF00002F9D147
:100C7000C9F89C20C9F8A020C9F8A420C9F8A82068
:100C800004B0BDE8F08790F8ECA004689AE600BFD5
:100C90006F12833A0000A04010D3FF1F02211348B7
:100CA00009F0ACFC124809F03FFF0621114809F099
:100CB000A5FC3B460A2299F8DC100D4809F044FFD8
:100CC00019210D4809F09AFC23680393D9F8E8200C
:100CD000D9F8F030039906481A44511A3B460A22C3
:100CE00009F032FF024809F01FFFCDE6FC1B0100AE
:100CF000D887FF1F58080100600801002DE9F8435C
:100D00000026D0F8BC80C0F89C608146041F00F12A
:100D1000300754F8045F414628460BF06DFC094942
:100D200050B128460BF04AFC30B1304629460BF052
:100D30009FF90646C9F89C00BC42EAD13046BDE89E
:100D4000F88300BF0000A04002299ABF283150F864
:100D500021000020704700BF3E2998BF80F8DC10BA
:100D6000704700BF90F8C400704700BF90F8C500FE
:100D7000704700BFC0F8D810704700BF80F8C4109B
:100D8000704700BFC0F8C010704700BF80F8C510A2
:100D9000704700BF30B50F4CC0F8BC1083B0204680
:100DA0000D4609F0C1FE204609F0BEFE28460AF0B5
:100DB000BDFD022502460B460095204609F00CFFBA
:100DC000204609F0B1FE204603B0BDE8304009F0EE
:100DD000ABBE00BFD887FF1F70B500F57055064643
:100DE000343500F128042046F434FFF73FFBAC42D1
:100DF000F9D106F58E75012428460021FFF7BEFFC4
:100E0000214628460134FFF7A7FF3F2C05F1F405E2
:100E1000F2D143F63C4400250548064A064B3555B9
:100E2000002130617161B261F361304670BD00BF75
:100E300000007A44000048430000C8C270B500F5C5
:100E40008E74012500260DE0012620460021FFF7C3
:100E50009DFF294620460135FFF77EFF3F2D04F117
:100E6000F4040AD02046FFF77DFF0028EDD020468D
:100E7000FFF77CFF0028E7D170BD304670BD00BF92
:100E8000F8B500F57157002300F570563B60343615
:100E900000F58E7402E0F434B4420DD02046FFF722
:100EA00061FF0028F7D020463D68FFF7E5FBF434EA
:100EB0002844B4423860F1D13868F8BD012A70B5D1
:100EC0000D4606460C7820D0A4F10B03302B07D931
:100ED000F42000FB04602830BDE87040FFF7FEBA44
:100EE00020460BF079F94FF07C510BF0C9F92149FC
:100EF0000BF0BCF80BF08AFBF42404FB00602946DD
:100F00002830BDE87040FFF7E9BA1B4809F00CFE35
:100F10002146194809F058FE0321184809F06EFBD4
:100F2000A4F10B03302B0CD820460BF055F94FF0F1
:100F30007C510BF0A5F90F490BF098F80BF066FB0C
:100F40000446F42000FB046029462830FFF7C6FA67
:100F5000631E0D2B0CD8084809F0E6FD2146064813
:100F600009F032FE0B210648BDE8704009F046BB8F
:100F700070BD00BF00007041D887FF1F7C080100D2
:100F8000800801000B68A3F5D8732DE9F0413E2BD2
:100F900040D8DFE813F0D900D500D100CD00C9005A
:100FA000C500C100BD00B900B500B100AD00A90089
:100FB000A500A1009D009900950091008D00890079
:100FC000850081007D006D0069006500610075008D
:100FD000710079005D0041003901350131012D01B9
:100FE000290125013F0021011D0119013F001501C3
:100FF00011010D013F000901050101013F00FD0044
:10100000F900F5003F00F100ED00E9003F00E500C8
:10101000E100DD00BDE8F0814FF000080925012A5C
:10102000174604460E4600F0F380F42000FB05440A
:10103000283420460121FFF7A1FE20460121FFF7B9
:10104000A5FE324641462046BDE8F041FFF798BC78
:101050004FF003080825E2E74FF003080725DEE715
:101060004FF002080725DAE74FF001080725D6E719
:101070004FF000080725D2E74FF001080825CEE71A
:101080004FF000080825CAE74FF002080825C6E718
:101090004FF003080625C2E74FF002080625BEE719
:1010A0004FF001080625BAE74FF000080625B6E71D
:1010B0004FF003080525B2E74FF002080525AEE71B
:1010C0004FF001080525AAE74FF000080525A6E71F
:1010D0004FF003080425A2E74FF0020804259EE71D
:1010E0004FF0010804259AE74FF00008042596E721
:1010F0004FF00308454692E74FF0020803258EE7BC
:101100004FF0010803258AE74FF00008032586E722
:101110004FF00308022582E74FF0020845467EE7BC
:101120004FF0010802257AE74FF00008022576E724
:101130004FF00308012572E74FF0020801256EE722
:101140004FF0010845466AE74FF00008012566E7C1
:101150004FF00208102562E74FF0010810255EE706
:101160004FF0000810255AE74FF002080F2556E708
:101170004FF001080F2552E74FF000080F254EE70A
:101180004FF002080E254AE74FF001080E2546E70A
:101190004FF000080E2542E74FF002080D253EE70C
:1011A0004FF001080D253AE74FF000080D2536E70E
:1011B0004FF002080C2532E74FF001080C252EE70E
:1011C0004FF000080C252AE74FF002080B2526E710
:1011D0004FF001080B2522E74FF000080B251EE712
:1011E0004FF002080A251AE74FF001080A2516E712
:1011F0004FF000080A2512E74FF0030809250EE713
:101200004FF0020809250AE74FF00108092506E713
:10121000094809F089FC2946074809F0D5FC3946F8
:10122000064809F0EBF94146034809F0CDFC0248B5
:1012300009F07AFCF9E600BFD887FF1F8C0801008F
:101240002DE9F043002383B00646036000F58E7459
:10125000012504E001353F2D04F1F40466D0204659
:10126000FFF780FD0028F5D04E4800F0F7FC294636
:101270004D4800F0F3FC2046FFF740FD0AF056FB16
:1012800002460B46494800F0E9FC2046FFF788F982
:1012900080462046FFF7A0F9074640460AF046FB85
:1012A0008046384689460AF041FB42464B46CDE926
:1012B00000013F4800F0D2FC00212046FFF744FD2A
:1012C000012180462046FFF73FFD074640460AF0D1
:1012D0002DFB8046384689460AF028FB42464B469D
:1012E000CDE90001334800F0B9FC2046FFF706FDC8
:1012F000014630680AF0BCFE30602046FFF7EEFA87
:10130000B1690BF05BF9002833D12046FFF7B8F93B
:10131000F1690BF071F900289CD02046FFF7B0F975
:1013200001353F2DF06104F1F40498D170680AF0A2
:1013300053FF014630680BF057F87169306004467E
:101340000BF05AF900B17461316920460BF036F99F
:1013500000B134610B2007F089FC43F63C43F35C99
:1013600060B99BB143F63C430122F25403B0BDE89F
:10137000F0832046FFF7B2FAB061C6E753B943F6EF
:101380003C430022F25403B0BDE8F0830A4800F069
:1013900093FCE7E7094800F079FC43F63C43002260
:1013A000F254F0E71C10010090080100CC08010085
:1013B000E00801000C090100280901006009010092
:1013C00070B5114B836000F570550646343500F555
:1013D0008E7402E0F434AC4213D02046FFF7C2FC16
:1013E0000028F7D02046FFF7DBF8B1680BF0E6F8ED
:1013F0000028EFD02046FFF7D3F8F434AC42B060B9
:10140000EBD1B06870BD00BF0000A04070B50023F4
:1014100000F570550646C360343500F58E7402E061
:10142000F434AC4213D02046FFF79CFC0028F7D0E0
:101430002046FFF7D1F8F1680BF0DEF80028EFD076
:101440002046FFF7C9F8F434AC42F060EBD1F06805
:1014500070BD00BF0068704743F63843C0587047FE
:10146000416070472DE9F04100F5705588461746F8
:101470001E46343500F58E7402E0F434AC4213D0CD
:101480002046FFF76FFC0028F7D020464146FFF7C3
:1014900071FC20463946FFF77DFC20463146F43486
:1014A000FFF770FCAC42EBD1BDE8F0812DE9F843C9
:1014B00043F6384300F570550027C7502E462A4A98
:1014C0002A4B426280464FF00009036234353836B9
:1014D00000F58E7402E0F434A54213D02046FFF7E5
:1014E00041FC0028F7D03368013333602046FFF712
:1014F000DFF81F490BF080F888B9F434A54207F1F2
:101500000107EBD143F6384358F80300C01B0AF03B
:1015100063FE014648460AF067FFBDE8F8832046AF
:10152000FFF7C6F8014648460AF0A2FD814620466C
:10153000FFF7A6F8D8F820100BF05EF870B9204637
:10154000FFF7CCF9D8F824100BF038F80028C2D0F7
:101550002046FFF7C3F9C8F82400BCE72046FFF790
:101560008FF8C8F82000EAE700C0794400C079C4C9
:1015700000008CC2006A7047406A7047F8B500F5F9
:10158000705507460026343500F58E7402E0F434B9
:10159000AC420FD02046FFF7E5FB0028F7D02046ED
:1015A000FFF73CF8014630460AF062FDF434AC42E5
:1015B0000646EFD143F63843F8580AF00DFE0146CF
:1015C00030460AF011FFF8BD2DE9F04F06468FB006
:1015D00083488B4600F0EAFA814800F0E7FA804839
:1015E00000F0E4FA43F638433046F2580D92FFF724
:1015F00047FC73680C93074630680AF097F98046F9
:1016000030468946FFF7BAFF82463046B468F5682F
:10161000FFF74CFF0AF08AF9CDE90A012146284676
:101620000AF024FD6F490AF02BFE0AF07FF9CDE99C
:10163000080128460AF07AF9CDE9060120460AF0A9
:1016400075F9CDE9040150460AF070F90D9A0C9B2A
:10165000CDE90201CDE90089114663483A4600F020
:10166000A5FA5F4800F0A2FA06F58E764FF0010960
:101670004FF0000A07E009F10109B9F13F0F06F147
:10168000F40600F0A5803046FFF76CFB0028F2D08E
:101690003046FEF76FFF3046FEF770FF3046FEF72C
:1016A00071FF3046FEF772FF0821504808F0A6FF90
:1016B00049464F4809F088FAB9F1090F40F38B8089
:1016C00002214C4808F09AFF3046FFF717FB0AF05A
:1016D0002DF95FFA8BF802460B46CDF8008044489E
:1016E00009F07AFA0121444808F088FF55460024A1
:1016F00020E00621414808F081FF29463C4809F0D6
:1017000063FA02213E4808F079FF21463046FEF791
:1017100041FF0AF00BF9CDF8008002460B46344831
:1017200009F05AFA01340121334808F067FF0D2C03
:1017300009D03D46092D05F10107DADC01213148C8
:1017400008F05CFFD5E72A4809F0EEF909212E4898
:1017500008F054FF00213046FFF7F6FA0AF0E6F8E9
:10176000022402460B460094214809F035FA0A216A
:10177000264808F043FF01213046FFF7E5FA0AF05A
:10178000D5F8009402460B46194809F025FA0A21BB
:101790001F4808F033FF21463046FFF7D5FA0AF01C
:1017A000C5F8009402460B46114809F015FA0121CC
:1017B000184808F023FF09F101090D4809F0B4F9B0
:1017C000B9F13F0F0AF10D0A06F1F4067FF45BAFA1
:1017D0000FB0BDE8F08F01210A4808F00FFF6FE756
:1017E0001C10010000007A44100C0100B00C010034
:1017F000D887FF1FFC1B0100BC0C0100C00C0100BE
:10180000A00E0100B00E0100C80C0100D40C0100B4
:10181000E00C0100EC0C01002DE9F04F85B000F563
:101820008E758A4603929B462E464FF0010806E0CD
:1018300008F10108B8F13F0F06F1F4067BD03046FD
:10184000FFF790FA0028F3D000230A2251467E4881
:1018500009F07AF901217D4808F0D0FE03980AF0DA
:1018600065F800230246009377480B4609F0B4F967
:101870000121764808F0C2FE5946734809F0A4F9E0
:101880000121724808F0BAFE41466F4809F09CF900
:1018900001216E4808F0B2FE00244FF002092146F3
:1018A0003046FEF777FE0AF041F8CDF80090024688
:1018B0000B46654809F090F901340121634808F0AE
:1018C0009DFE082C4FF00207E9D100213046FFF7BA
:1018D0003BFA0AF02BF8009702460B465A4809F0EB
:1018E0007BF90121594808F089FE01213046FFF7B4
:1018F0002BFA0AF01BF8009702460B46524809F0F3
:101900006BF90121514808F079FE39463046FFF75E
:101910001BFA0AF00BF8009702460B464A4809F0FA
:101920005BF908F10108484809F0FEF8B8F13F0FEB
:1019300006F1F40683D14FF001084FF0000906E0EC
:1019400008F10108B8F13F0F05F1F40579D02846F8
:10195000FFF708FA0028F3D000230A2251463C483A
:1019600009F0F2F80121394807F096FC039809F0D4
:10197000DDFFCDF8009002460B46354809F02CF902
:101980000121324807F088FC5946314809F01CF91A
:1019900001212E4807F080FC41462D4809F014F93A
:1019A00001212A4807F078FC002402272146284616
:1019B000FEF7F0FD09F0BAFF009702460B462448F7
:1019C00009F00AF901340121204807F065FC0D2CCB
:1019D0004FF00206EAD100212846FFF7B5F909F0D9
:1019E000A5FF009602460B46194809F0F5F80121BB
:1019F000164807F051FC01212846FFF7A5F909F028
:101A000095FF009602460B46114809F0E5F80121C2
:101A10000E4807F041FC31462846FFF795F909F0DA
:101A200085FF009602460B46094809F0D5F808F1F3
:101A30000108074809F078F8B8F13F0F05F1F405FF
:101A400085D105B0BDE8F08FD887FF1F8C08010055
:101A5000C887FF1F014B1870704700BF2087FF1F0A
:101A60000278002A00F0908070B5034682B00D46DF
:101A7000252A2AD158785C1C08B325282FD0732832
:101A800031D0642824D0692822D066284FD07A2803
:101A900059D0782835D058282FD062283ED04228F7
:101AA00038D06C2814D0632812D0742857D054280A
:101AB0005FD008F027FE6278631C002AD8D1344832
:101AC00002B0BDE8704009F02FB818781C46F0E766
:101AD0002B1D29682E481D4609F076F8EBE71046C5
:101AE00008F010FEE7E72E6830460BF0C9FB014610
:101AF0003046043508F082FDDDE70221254808F074
:101B00007DFD2E1D2968224800231022354609F04C
:101B10001BF8D0E70221204808F070FD2E1D29682F
:101B20001B4800230222354609F00EF8C3E70735AB
:101B300025F007050321D5E9002315480091083554
:101B400009F04AF8B7E7073525F007050021D5E980
:101B500000230F480091083509F03EF8ABE72968EB
:101B600001290EBF0D480E480121043508F046FD3D
:101B7000A1E72B68012B07BF04210A480A48052169
:101B8000043508F03BFD96E7014808F0CDBF00BFE3
:101B9000D887FF1FF00C0100F40C0100F80C0100C5
:101BA000FC0C0100000D0100080D01000FB400B590
:101BB00083B004A951F8040B0191FFF751FF03B062
:101BC0005DF804EB04B0704770B51B4B1B4C1B68F1
:101BD00082B00D460193019B236019460446002301
:101BE000164617480A2208F0AFFF0321154808F0EF
:101BF00005FD032C07D8DFE804F01A1510020521B3
:101C0000114808F0FBFC0221104808F0F7FC3146AF
:101C10002846FFF725FF02B070BD07210C4808F0E9
:101C2000EDFCF0E704210B4808F0E8FCEBE70521A8
:101C3000094808F0E3FCE6E710D3FF1F5492FF1FAA
:101C4000D887FF1F100D01002C0D0100A00E010010
:101C5000240D01001C0D0100140D01000FB400B58E
:101C6000094B187883B020B103B05DF804EB04B0E1
:101C7000704705AB1A4604990193FFF7A5FF03B01F
:101C80005DF804EB04B070472087FF1F0FB4094BC9
:101C900000B51B78012B83B004D903B05DF804EBC9
:101CA00004B0704705AB1A46049901930120FFF771
:101CB0008BFFF2E72087FF1F0FB40B4B00B51B789B
:101CC000032B83B004D903B05DF804EB04B0704774
:101CD00005AB1A46049901930320FFF775FF03B083
:101CE0005DF804EB04B070472087FF1F30B4074D48
:101CF000074C084900232B70236003654365836507
:101D000080F85C300B6030BC704700BF6092FF1FF2
:101D10005C92FF1F5892FF1F0A4A0B49D06D936DCA
:101D200003FB00F34FF47A7000FB03F0642310B55B
:101D30000B600AF051FA0549054C0AF055FB20608A
:101D400010BD00BF4893FF1F3487FF1FE4388E3E4D
:101D50009892FF1F38B5044608460D460BF090FADE
:101D60002368024629465B68204698470546204678
:101D700008F0DAFE284438BD2DE9F8434748484DBD
:101D8000484F494CFFF712FF484BDFF84CE14849F8
:101D9000484A49485D601226484D1E70DF600026A3
:101DA000474F1C61C3F818E0464C59614FF00C0EC8
:101DB00045495A629862454A4548DD621E63454D71
:101DC0005F6340F61C460A279C63C3F854E041F267
:101DD0000404DFF808E19964DA6402210122186240
:101DE000C3F8C45000204FF07C55DE661F676426A0
:101DF0004FF496775C67C3F81CE03224C3F83CE0EC
:101E00004FF05A0E597059721A729A6583F8400051
:101E10009F661F665C665D64DE654FF47A78C3F882
:101E200078E0DFF8BCC0D867C3F88010C3F884003E
:101E3000C3F89C40C3F8AC40DFF8A8E0C3F8A800A2
:101E400044F62069C3F8B420C3F8B810FF2741F264
:101E50008831052483F8C8204FF4FA7083F8C9202C
:101E600040F2D662C3F8BC601D65C3F8A080C3F819
:101E700090C0C3F894E0C3F88C90C3F8B070A3F896
:101E8000C240A3F8CA00C3F89810A3F8C010A3F882
:101E90008820A3F88A20BDE8F88300BF340D010034
:101EA00020A1070066668640000040404893FF1F5F
:101EB00033338340CDCCCC3D00008242000020C1B2
:101EC000000020420000A0409A9979400AD7233DA3
:101ED000333373409A99993ECDCC4C40CDCC4C3E97
:101EE0000000684200C02044F0B54FF47A6087B02B
:101EF00006F0F2FE00210F2006F0C6FE00210E20A3
:101F000006F0C2FE0021112006F0BEFE00211020C6
:101F100006F0BAFE0021122006F0B6FE00211320C2
:101F200006F0B2FE01210B2006F0AEFE00210B20D0
:101F300006F096FE01210C2006F0A6FE00210C20E2
:101F400006F08EFE0121142006F09EFE00211420D2
:101F500006F086FE0121152006F096FE00211520D0
:101F600006F07EFE0121162006F08EFE00211620CE
:101F700006F076FE0121172006F086FE00211720CC
:101F800006F06EFE0121052006F07EFE00210520F0
:101F900006F066FE0121062006F076FE934C944D75
:101FA0000021062006F05CFE01210D2006F06CFEEB
:101FB00020880AF00DF90146162006F0CFFD208892
:101FC0000AF006F90146172006F0C8FD20880AF03D
:101FD000FFF80146052006F0C1FD20880AF0F8F858
:101FE00000240146062006F0B9FD00942346814AEC
:101FF0008149824805F020FB2B797D497F486FF3AA
:102000000003E2B201342B7105F0DCFA082CF3D1A5
:1020100009242B797649794843F00103E2B201346F
:102020002B7105F0CFFA0D2CF3D1754D2B681021D3
:10203000D3F8840005F0D2FF2B681021D3F8840078
:1020400006F060F82B680221D3F8840005F01CFF2D
:102050002B680221D3F8840006F0A4F82B680F2126
:10206000D3F8840006F08CF90C21664808F0C6FA13
:10207000654808F059FD2146644808F0BFFA6248F7
:1020800008F052FD40F2836006F0E4FE5E4808F07E
:102090004BFD17215E4808F0B1FA5B4808F044FD9B
:1020A0005C4B1B789A0600F1D9805A4B1B781B07B2
:1020B00000F1E080574B1B785F0700F1E780554B3C
:1020C0001B789E0700F1EE80534B1B781D0600F134
:1020D000F580514B1B785C0600F1FC804E4B1B7861
:1020E000980600F103814C4B1B78590700F10A81D7
:1020F000494B1B781A0700F11181474B1B789B074E
:1021000000F11881404808F00FFD72B6434A4CF2C6
:1021100020534DF628112024138023461180013BC3
:10212000FDD13F4D3F48404900234FF480562E805B
:1021300003800B8032F80E3C9BB243F0D30322F8AD
:102140000E3C62B640F2413007F030FA2146374883
:10215000374D08F053FA2C4808F0E6FC05F1D40698
:102160002F462C46601B06F095FA04F8010BB4428A
:10217000F8D13B78122B04D0234808F0D5FCFFF7A8
:10218000FBFD0420FFF766FC2A4B2B4D00220121AA
:102190000D201A6006F064FDB96D2848FFF760F95C
:1021A0003B6D7A6C97F840102448FFF75BF92448A0
:1021B000244B02680592059F046804941B68224919
:1021C000224A049E224C006803901268276081FB1B
:1021D0000301DB171F48039C2E60A3EB21131E494C
:1021E000046013FB02F30B8007B0F0BD2887FF1FCC
:1021F0003094FF1F04D3FF1F20A1070068D1FF1FE9
:10220000EC94FF1F540D0100D887FF1F640D0100DF
:10221000740D010001F0074000F007400E2005405A
:10222000042005400620054016200540780E0100D8
:102230004893FF1F7492FF1F3894FF1F2495FF1FC0
:1022400010D3FF1F6487FF1F1F85EB516087FF1F9F
:102250002095FF1FFC94FF1FF894FF1F2121394890
:1022600008F0CCF9384808F05FFC384B1B781B07A6
:102270007FF520AF0C21364808F0C0F9324808F04D
:1022800053FC324B1B785F077FF519AF0E213148A5
:1022900008F0B4F92C4808F047FC2C4B1B789E073B
:1022A0007FF512AF17212C4808F0A8F9264808F04E
:1022B0003BFC2A4B1B781D067FF50BAF0E212848EF
:1022C00008F09CF9204808F02FFC244B1B785C0692
:1022D0007FF504AF1221234808F090F91A4808F05E
:1022E00023FC1E4B1B7898067FF5FDAE13211E487C
:1022F00008F084F9144808F017FC184B1B785907AC
:102300007FF5F6AE1C21194808F078F90E4808F060
:102310000BFC124B1B781A077FF5EFAE19211448FE
:1023200008F06CF9084808F0FFFB0C4B1B789B0782
:102330007FF5E8AE18210F4808F060F9024808F070
:10234000F3FBDFE68C0D0100D887FF1F01F007408B
:10235000B00D0100C00D0100D00D010000F00740DC
:10236000E80D0100F80D01000C0E0100200E010027
:10237000400E01005C0E010070B5464C464D4748CA
:10238000E66800232B70FFF741F8014630460AF05B
:1023900015F908B104232B704048FFF711F82169A3
:1023A0000AF00CF918B12B7843F010032B703B485E
:1023B000FFF7E0F8A16A0AF01FF918B12B7843F093
:1023C00040032B70002335486B70FFF7D5F8E16AA6
:1023D000314E0AF0F3F808B10123737000232F483F
:1023E000EB70FFF713F805462C482B4EFEF7E8FF7D
:1023F0000146284609F03AFEE16B0AF0FDF808B103
:102400000123F370264D254800232B70FEF7FEFFB5
:10241000616A0646E06809F029FE014630460AF086
:10242000EBF808B104232B701C48FEF7C9FF616A62
:102430000646206909F01CFE014630460AF0BEF847
:1024400018B12B7843F010032B701448FFF792F863
:10245000A16B0646A06A09F009FE014630460AF063
:10246000CBF818B12B7843F040032B7000230B48B6
:102470006B70FFF781F8A16B0546E06A084C09F024
:10248000F7FD014628460AF099F808B10123637068
:1024900070BD00BF4893FF1F4493FF1F2495FF1F8B
:1024A000E094FF1F2DE9F0417C4C2368012B82B0A2
:1024B00031D0022B00F0A880032B00F0C8803BBB7A
:1024C000774B784AD3F8AC10D3F8B03012685B1A67
:1024D000632B0EDD744803FB02F380FB0302DB1762
:1024E000C3EB62131944062002B0BDE8F04106F0C8
:1024F00037BA6E4803FB022380FB0302DB17C3EBF2
:1025000022121144062002B0BDE8F04106F028BABC
:1025100002B0BDE8F081664E33680A33B3F57A7FC6
:1025200000F3B7801846336009F056FE614909F0A0
:10253000A7FE80465A4DD5F8AC0009F04DFE07467F
:10254000D5F8B00009F048FE394609F08FFD414644
:1025500009F096FE584909F047FF394609F088FD11
:102560000AF054F80146062006F0FAF90221534811
:1025700008F044F8524808F0D7FA0621514808F00C
:102580003DF8306809F028FE4A4909F079FE09F063
:10259000CDF9022702460B460097494808F01CFB7C
:1025A0000D21494808F02AF8D5F8AC0009F014FECE
:1025B0008046306809F010FE3E4909F061FE06468B
:1025C000D5F8B00009F008FE414609F04FFD01467C
:1025D000304609F055FE384909F006FF414609F03A
:1025E00047FD09F0A3F900970B460246344808F06E
:1025F000F3FA3946314808F001F8314808F094FA06
:102600002368022B7FF458AF294B254E00221A6015
:10261000D6F8AC0009F0E0FD0546D6F8B00009F0A8
:10262000DBFD294609F022FD002109F029FE22499F
:1026300009F0DAFE294609F01BFD09F0E7FF014623
:10264000062006F08DF92368032B7FF438AF184B72
:10265000134E4FF47A721A60D6F8AC0009F0BCFD44
:102660000546D6F8B00009F0B7FD294609F0FEFC92
:10267000114909F005FE104909F0B6FE294609F096
:10268000F7FC09F0C3FF0146062006F069F923684C
:1026900015E700234FF0000833604BE7C094FF1F9D
:1026A0004893FF1F3487FF1F1F85EB51CBF08D2808
:1026B0007892FF1FCDCCCC3D0000C842FC1B01002E
:1026C000D887FF1F9C0E0100A40E010070B5B5480D
:1026D000B54C08F029FAB34808F026FAB14808F0DA
:1026E00023FA0D21B14807F089FFD4F8A830012B57
:1026F00011D0AF4CAB48217800230A2208F024FA0D
:102700002378052B67D8DFE813F006010B011001D1
:1027100015011A0101010921A64807F06FFFA6481B
:10272000FEF74EFE216909F049FF18B10F21A348B9
:1027300007F064FFA048FEF769FEE16809F05CFF5E
:1027400018B10E219E4807F059FF9B48FEF75EFE28
:1027500005469948FEF734FE0146284609F086FCF6
:10276000E16B09F049FF18B11121964807F046FFC7
:102770009148FEF79BFEA16A09F03EFF18B10C21BB
:10278000914807F03BFF8C48FEF790FEE16A09F0A4
:1027900015FF18B10D218D4807F030FF8C4B86488E
:1027A0001B68012B00F0E880FEF70AFE21697E4DD0
:1027B00009F022FF78B18048FEF728FEE96809F0A9
:1027C000FDFE40B17A4B1B78052B00F0E680082116
:1027D000804807F013FF02217F4807F00FFF122007
:1027E00006F044FA012800F0AF80112006F03EFA0E
:1027F000012800F0B380794B1B68012B00F0B780F3
:1028000002217548764C07F0F9FE764B6548196849
:1028100008F0DAF9634808F087F90421724807F0F4
:10282000EDFE0B2006F022FA002301460A225D4845
:1028300008F08AF90C2006F019FA002301460A2252
:10284000584808F081F9142006F010FA00230146D8
:102850000A22544808F078F9152006F007FA0A22EF
:10286000002301464F4808F06FF906215F4807F042
:10287000C5FE2368DD074FF001014CBF5C485D4891
:1028800007F0BCFE236898074FF001014CBF584881
:10289000584807F0B3FE23685A074FF001014CBFB8
:1028A0005348544807F0AAFE23681B074CBF504802
:1028B0005048012107F0A2FE04214F4807F09EFE78
:1028C000112006F0D3F9002301460A22354808F00A
:1028D0003BF9102006F0CAF9002301460A223148CC
:1028E00008F032F9122006F0C1F9002301460A224D
:1028F0002C4808F029F9132006F0B8F90023014606
:102900000A222848BDE8704008F01EB907213B485C
:1029100007F074FE5FE70621394807F06FFE5AE7BB
:102920000721384807F06AFE55E70721364807F0C7
:1029300065FE50E70821354807F060FE4BE70B21A4
:10294000334807F05BFE46E70E21324807F056FE9B
:10295000112006F08BF901287FF44DAF0A212E4893
:1029600007F04CFE1D4B1B68012B7FF449AF112172
:102970002A4807F043FE43E7FEF722FD216A09F0EB
:102980003BFE00283FF423AF1621254807F036FE12
:102990000A21244807F032FE1DE70A21214807F0EA
:1029A0002DFE18E7D887FF1F4893FF1FB40E0100C4
:1029B000DC94FF1FC40E01002495FF1FD00E010000
:1029C000E00E0100F00E0100040F0100140F0100E1
:1029D0008492FF1F480F0100FC1B0100F494FF1FAD
:1029E0001C94FF1FC494FF1FBC0F0100C40F010003
:1029F000CC0F0100E81D0100D00F0100840F010081
:102A0000540F01005C0F0100700F0100780F0100EE
:102A1000640F01008C0F01009C0F0100A80F010042
:102A2000240F01003C0F01002DE9F04FAB4CD4F80E
:102A30008060012E8DB000F07981032E00F0CC80F3
:102A4000DFF8DC82A64FA74EE36FA748012B09BF32
:102A50003168316801F10041316005F00DFD3B68DE
:102A6000002B40F09F80A048DFF8B49205F0DAFC1C
:102A70003B68C8F800000546002B44D1D4F88030EC
:102A8000964A012B53D09949284609F0B5FDC0B9A3
:102A90009749284609F092FD98B9964A964B1268D4
:102AA0000B920B9A1A60D4F8B40009F095FB2946F2
:102AB00009F0E6FB0023C8F8000033600DB0BDE864
:102AC000F08FDFF830A28C4FDAF800300A930A98C2
:102AD0003B68DFF85092C01A09F07AFB294609F0EA
:102AE000CFFB864909F080FC844909F07DFCD9F8C8
:102AF000001009F0BDFADAF800300993099BC9F813
:102B000000003B60CFE708F011FF022502460B46AC
:102B100000957B4808F060F804217A4807F06EFDC4
:102B2000D4F88030D9F800506C4A012BABD1764BE9
:102B30001B68012B00F0DA81022BB4D1D2F88C7023
:102B4000384609F049FB294609F038FD40B978427A
:102B500009F042FB294609F04FFD002800F0F981F9
:102B6000DFF890A1644FDAF80030079307983B68CC
:102B7000DFF8B091C01A09F02BFB294609F080FB61
:102B80005E4909F031FC5D4909F02EFCD9F80010CE
:102B900009F06EFADAF800300693069BC9F80000D7
:102BA0003B6080E7504805F03DFC08F0BFFE022581
:102BB00002460B460095524808F00EF80321534890
:102BC00007F01CFDD4F88C104D4807F0FDFF0321E1
:102BD0004E4807F013FD46E74D4D4B4F2B68DFF88D
:102BE0004081D3F884000F2101233B6005F0C8FB2E
:102BF0003B683B4F012B3B6800F0BF80002B40F04F
:102C00003D812B68DFF82091D3F88400436B19696C
:102C10008EB2C9F8006005F035F9B4F88A2040F6A4
:102C2000E44303FB06F1B1FBF0F0801A00B209F0B7
:102C3000D3FA38492B4E8246D4F8900009F020FB95
:102C40000146504609F0D0FBD9F800303060632BC4
:102C5000DFF8D4A000F30681002333603B68002B2B
:102C60003FF4F2AE02212C4807F0C8FC2B68D9F8DB
:102C70000050D3F8840040F6E44303FB05F505F06B
:102C800001F9B5FBF0F009F0A3FA0546B4F88A00A3
:102C900009F0A2FA0146284609F0E8F908F046FED4
:102CA000022502460B460095154807F095FF294678
:102CB000194807F0A3FC306808F038FE009502467A
:102CC0000B460F4807F088FF2946144807F096FC8A
:102CD0002946114807F092FCB6E600BF4893FF1F53
:102CE0001895FF1F8092FF1F2093FF1F0000FA43DB
:102CF0000000FAC310D3FF1F6492FF1F00007A4444
:102D0000D887FF1F181001005487FF1F7C0801009F
:102D1000EC94FF1FACC52737FC1B01001410010009
:102D20008C92FF1F9892FF1F4093FF1FDFF80883CC
:102D3000D4F88C70D8F80050384609F04DFA29467E
:102D400009F05AFC48B1784209F046FA0146284693
:102D500009F052FC002840F00381A54DA54F2A68D8
:102D60000223D2F884003B600E2105F009FB3B688A
:102D7000A14F012B3B687FF441AF002B40F0FA805C
:102D80002B68DFF8B892D3F88400436B19691FFAF7
:102D900081FBC9F800B005F075F8B4F88830974E9B
:102DA00040F6E44A0AFB0BFBBBFBF0F0C01A00B292
:102DB00009F012FA92498346D4F8940009F060FAB7
:102DC0000146584609F010FB2A68D9F800303060F7
:102DD000D2F884000AFB03FA05F054F8B4F88830FE
:102DE000BAFBF0F00FFA80FAC3EB0A03002BB4F839
:102DF000C220B8BF5B429342BCBF002333603B6834
:102E0000002B3FF421AE02217E4807F0F7FB2B6830
:102E1000D9F80050D3F8840040F6E44303FB05F5ED
:102E200005F030F8B4F88810B5FBF0F000B2411AA4
:102E3000754807F0C9FE0221724807F0DFFB3068D1
:102E400008F074FD022502460B4600956E4807F017
:102E5000C3FE03216D4807F0D1FB2946694807F0FE
:102E6000CDFBF1E52B68D3F8840005F00BF8DAF818
:102E7000003064389842FFF4EFAEEFE66248DFF8C6
:102E8000BC91DFF86CA107F04FFE0C21604807F001
:102E9000B5FB0C215F4807F0B1FB2A683B68D2F80C
:102EA0008400426B11698EB2C9F80060002B3FF4B8
:102EB000B2AE04F0E7FF40F6E44100230A2201FB32
:102EC00006F1B1FBF0F1504807F03EFE02214D48FB
:102ED00007F094FBB4F88A104B4807F075FEDAF857
:102EE0000030D9F80060D3F8840094E64A492846B7
:102EF00009F082FB58B94949284609F05FFB30B90F
:102F0000474A484B12680592059A1A60CBE5DFF8EC
:102F100010A1444FDAF80030049304983B68DFF8BE
:102F20002091C01A09F054F9294609F0A9F93E493F
:102F300009F05AFA3C4909F057FAD9F8001009F09B
:102F400097F8DAF800300393039BC9F800003B6060
:102F5000A9E5334A334B12680892089A1A60A2E531
:102F6000234D244F28683E604FF0FF320F2104F0BC
:102F700003FF3DE62448DFF8C4901D4E07F0D4FD62
:102F8000D4F88030012B4FF00B010CBF27482848A4
:102F900007F034FB0C211F4807F030FB2A683B6820
:102FA000D2F88400426B11691FFA81FBC9F800B0A6
:102FB000002B3FF4F0AE04F065FF40F6E44100233F
:102FC0000A2201FB0BF1B1FBF0F10F4807F0BCFD49
:102FD0000121184807F012FBB4F888100A4807F0DE
:102FE000F3FD3368D9F800B0D3F88400D3E600BF0E
:102FF000EC94FF1F5487FF1F1895FF1F8092FF1F3F
:10300000ACC52737FC1B0100D887FF1F001001004B
:1030100004100100F00F01000000FA430000FAC3A1
:1030200010D3FF1F6492FF1F00007A44D80F0100E5
:10303000E40F0100B00E01008C92FF1F4093FF1FB0
:103040009892FF1F2DE9F0478D4D2B6884B043B94E
:103050008C4B1B680393039A42F210739A4200F25E
:10306000B880894C894F8A4EDFF86882D4F8842072
:10307000854B012A04D0D3F88020002A40F09680A6
:103080008448FEF77BFA8449D4F86C90256F09F0E8
:10309000F7F809F0E1FA626FA36FC9EB02025B1B5C
:1030A00080B29A42C9EB0000D4F85C90C6BF03FB23
:1030B00000000132584390FBF2F02844A56D00FB5C
:1030C00009F005FB00F000EB8000400009F084F8F7
:1030D000724909F089F98246306005FB09F54FF421
:1030E0007A7000FB05F009F077F86C49DFF89C91E5
:1030F0000546504609F0C4F8294609F075F96849B3
:1031000009F0BEF809F082FA6328386048DD2846E5
:10311000624909F069F964233060C9F80030D8F8D1
:103120000030002B39D0D4F88030574D012B43D0DC
:10313000032B00F09780022B00F08F80022159486A
:1031400007F05CFA584B186808F0F0FB02240246BE
:103150000B460094554807F03FFD2146544807F0C0
:103160004DFA21464F4807F049FA39684F4807F0B1
:103170002BFD06214F4807F041FA3068474909F016
:103180007FF808F0D3FB009402460B46474807F04F
:1031900023FD0321484807F031FA04B0BDE8F08769
:1031A0000028BCBF0023C9F80030B8E7D6F800A05B
:1031B000D3F85C909D6D90E7404B1B68012B4FF05E
:1031C0000A010CBF3E483F4807F018FAD5F8803096
:1031D000AEE730482C4CFEF7D1F92F49E76E266F49
:1031E00009F04EF809F038FA626FA36FD21B9B1BEF
:1031F00080B29A42A0EB07003BDD03FB0000531CAA
:1032000090FBF3F31E44E06DA36D204FDFF8C48004
:103210003E6000FB06F003FB00F000EB8000400086
:1032200008F0DAFF1D491A4E09F0DEF8D8F8003030
:10323000306001222A60002B3FF418AF02211948A8
:1032400007F0DCF9194807F06FFC59211E4807F018
:10325000D5F9164807F068FC08E707211B4807F076
:10326000CDF96BE710211A4807F0C8F9D4F880307F
:1032700061E703FB00F393FBF2F31E44C3E700BFD7
:103280007C92FF1F10D3FF1F4893FF1F3487FF1F3F
:103290009892FF1F2495FF1F00007A44E4388E3E69
:1032A0000000C842FC1B01008C92FF1FD887FF1F43
:1032B00014100100B0100100B81001005487FF1F66
:1032C0007C1001008810010020100100A8100100EE
:1032D000941001003C87FF1F30B5112083B005F02A
:1032E000C5FC012818D0122005F0C0FC012813D01D
:1032F00000210B2005F0B4FC00210C2005F0B0FCEF
:103300000021152005F0ACFC2649274B01200022A6
:1033100008701A6003B030BD0121152005F0A0FC33
:10332000224A234C234B1268D4F8981001921B6850
:10333000019A1D4D0B4493424FF00201296005D9BB
:1033400001210C2005F08CFC03B030BDD4F8A000A6
:1033500008F042FF184B196809F030F90028EFD146
:1033600001210B2005F07CFC94F8C83003242C606C
:1033700043B10C4B02221A7000210C2005F070FCA6
:1033800003B030BD122005F071FC012808BF054BC9
:103390004FF0110008BF1C7005F068FC0128EBD14C
:1033A000E7E700BFDC94FF1F1495FF1F10D3FF1F3A
:1033B0004893FF1F2095FF1F8C92FF1FF0B5684EAA
:1033C000684D34682B689C4287B039D014F00101F5
:1033D00055D014F0020149D014F004013DD0E307A8
:1033E0000ED52B68DF070BD45F4F3A68002A00F038
:1033F00082805E4B1B680193019B93426DD83468B9
:10340000A0070DD52B6899070AD4594F3A68002AAE
:103410004CD0564B1B680393039B934238D83468B7
:1034200062070DD52B685B070BD4524F3A68002A10
:103430007ED04E4B1B680593059B934268D8346839
:103440000CB107B0F0BD2146162005F089FA2146DF
:10345000172005F085FA07B0F0BD052005F080FAC9
:103460002B68346803F0FB032B60B8E7172005F0E6
:1034700077FA2B68346803F0FD032B60ACE7162065
:1034800005F06EFA2B68346803F0FE032B60A0E7AA
:10349000394B1720D3F89C1005F062FA2B6834687A
:1034A00043F0020300222B603A60B9E7334807F08B
:1034B0003BFB0C21324807F0A1F8304807F034FB01
:1034C000FF21172005F04CFA284B2E4A196802916B
:1034D000029912680A443A609CE7274B1620D3F8F9
:1034E0009C1005F03DFA2B68346843F0010300227C
:1034F0002B603A6084E7FF21162005F031FA1B4B60
:10350000204A19680091009912680A443A6071E7EC
:10351000194B0520D3F89C1005F022FA2B6834686B
:1035200043F0040300222B603A60002C89D18AE723
:10353000124807F0F9FA0C21134807F05FF80F481A
:1035400007F0F2FAFF21052005F00AFA074B0D4AB1
:1035500019680491049912680A443A606AE700BF46
:103560001495FF1F1C94FF1FA094FF1F10D3FF1F73
:10357000A494FF1FA894FF1F4893FF1FD887FF1F25
:10358000BC1001007487FF1FCC1001002DE9F0472B
:10359000534EDFF870813368DFF86C91D3F8840004
:1035A000504D0F2104F0ECFE0023012222214E4851
:1035B000C8F80030C9F8002007F020F8D8F800302B
:1035C000132B20DC40F6E4473368B5F888A0D3F825
:1035D0008400436B1C6904F055FCA4B2012107FB75
:1035E00004F4B4FBF0F441485444A5F8884007F0D3
:1035F00005F8642005F070FBD8F800300133132B78
:10360000C8F80030E0DDB5F88830394A3948A2FB07
:1036100003129B1A02EB5303C3F30F131946A5F8C9
:10362000883007F0D1FA1D21334806F0E7FF022168
:10363000324806F0E3FF2F4807F076FA326800239D
:10364000D2F88400C8F800300E2104F099FE02235D
:1036500022212548C9F8003006F0D0FFD8F8003004
:10366000132B20DC40F6E4473368B5F88A90D3F892
:103670008400436B1C6904F005FCA4B2012107FB24
:1036800004F4B4FBF0F419484C44A5F88A4006F061
:10369000B5FF642005F020FBD8F800300133132B70
:1036A000C8F80030E0DDB5F88A30114A1148A2FBB5
:1036B00003129B1A02EB5303C3F30F131946A5F829
:1036C0008A3007F081FA1D210D4806F097FF02218C
:1036D0000A4806F093FF0748BDE8F04707F024BA10
:1036E000EC94FF1F4893FF1FDC1001002011010024
:1036F00087611886D887FF1F00110100FC1B01009D
:1037000024110100C894FF1F5487FF1FF8B5BD4B5B
:10371000BD4CBE4F1B68786D40F2513108222160CC
:10372000E271002B00F0698108F056FD396A054608
:1037300008F0A6FDB64908F0A3FD08F08DFF80B2A1
:1037400003126372B34AB44B12681B68B9692072E2
:10375000A37228461B121512E3722273657308F0D8
:103760008FFDAB4908F08CFD08F076FF83B21A128A
:10377000A549AA48A373E27304F056F9A84BA94AD5
:103780001B681288A049A272DDB2257205EB85067E
:1037900003EB8305760045F3D71540F2553E121230
:1037A0001B1226736573082600259C48C4F800E0A8
:1037B000E2726372E671A573E57304F035F940F2C5
:1037C000563399482360E671FDF744FE974908F0A7
:1037D00057FD08F041FF20729348FDF73BFE9349E7
:1037E00008F04EFD08F038FF914A9049C0F30723D6
:1037F0001068637208F0F8FD08F008FF40FA06F25E
:1038000003468948E272A372FDF750FE804908F032
:1038100037FD08F0FBFE20738348FDF747FE7C4927
:1038200008F02EFD08F0F2FE7749A57340F3072358
:103830007A486373E57304F0F7F8022005F04CFA58
:103840007C4A7D4B11785078217291786072D278E1
:103850009878A172597893F800E0E2726173DA788F
:10386000A07340F25A3368496C4884F80CE0E27364
:103870002360E67104F0D8F8704B63491A785878E1
:10388000227260729A78D878A272E0721A79987966
:1038900093F805E02273A073DA79604884F80DE0AC
:1038A00040F25E33E2732360E67104F0BDF802205B
:1038B00005F012FA624B54491A78587822726072F5
:1038C0009A78D878A272E0721A79987993F805E01C
:1038D0002273A073DA79514884F80DE04FF45C73D9
:1038E000E2732360E67104F09FF8022005F0F4F91A
:1038F00040F273334C482360E671FDF761FD514996
:1039000008F0BEFC08F0A8FE20724748FDF758FDFD
:103910004C4908F0B5FC08F09FFEC0F3072342486D
:103920006372FDF773FD474908F0AAFC08F094FEA6
:10393000A0723D48FDF76AFD424908F0A1FC08F07D
:103940008BFEC0F307233848E372FDF715FE3E49AE
:1039500008F08EFB08F080FE20733348FDF70CFE64
:10396000394908F085FB08F077FEC0F307232E489D
:103970006373FDF7FFFD344908F07AFB08F06CFE35
:10398000A0732948FDF7F6FD2F4908F071FB08F0F8
:1039900063FE1D49C0F307232048E37304F044F895
:1039A000022005F099F9B96DFB6D022211FB03F3BA
:1039B000C3F3072740F2793110462160E271237288
:1039C000677205F089F940F2723317482360E67197
:1039D000FDF742FD20721448FDF73EFD40FA06F364
:1039E000A5726372E57225736573A573E573064965
:1039F0000A48BDE8F84004F017B808F0EDFB796913
:103A0000054695E68492FF1F0495FF1F4893FF1F0C
:103A100000002041E894FF1F6C92FF1F68D1FF1F38
:103A20003487FF1F3887FF1F2495FF1F0000C842FF
:103A30008C92FF1F4493FF1FE094FF1F2C87FF1FF2
:103A40005887FF1F00007A4433938843F0B5A84C91
:103A5000A84D83B006F06CFD23682860042B00F0AD
:103A60003A83022B00F0B780082B47D0072B40F099
:103A70006581332801F0E38500F3B883312801F034
:103A8000C885322843D106F08FFD002840F35481C9
:103A900099489A4E07F0DAF908F09EFB984908F029
:103AA000EFFB61230122F06322602B601846A0F136
:103AB00052031F2B01F28B85DFE813F0870D890D70
:103AC000890D890D890D890D890D890D890D890D46
:103AD000890D890D890D890D890DD803CC0E5205EC
:103AE000EA05BC04890D890D890D4C04890DCF0EA2
:103AF000890D890D890D890D890D750D322800F00C
:103B00008083712800F07883312800F09083002BA7
:103B100008BF73280CBF01200020002859D0764828
:103B200007F002F80421774806F068FD724806F0B5
:103B3000FBFF1021744806F061FD6F4806F0F4FFAA
:103B40001321724806F05AFD714B6B48196807F053
:103B50003BF8694806F0E8FF14216E4806F04EFD78
:103B6000654806F0E1FF1E216B4806F047FD6248FC
:103B700006F0DAFF1521694806F040FD5E4806F0C0
:103B8000D3FF1E21664806F039FD5B4806F0CCFFE6
:103B90002021644806F032FD574806F0C5FF192180
:103BA000614806F02BFD544806F0BEFF12215F4825
:103BB00006F024FD504806F0B7FF0D215C4806F0E2
:103BC0001DFD4D4806F0B0FF5A4A00210123116047
:103BD000236003B0F0BDA0F13102422A97D801A1C1
:103BE00051F822F0054C00001D4C0000394C00003B
:103BF000534C0000794C0000974C00000F3B000034
:103C0000B14C00000F3B00000F3B00000F3B0000D9
:103C10000F3B00000F3B00000F3B00000F3B00007C
:103C20000F3B00000F3B00000F3B00000F3B00006C
:103C30000F3B00000F3B00000F3B00000F3B00005C
:103C40000F3B00000F3B00000F3B00000F3B00004C
:103C50000F3B00000F3B00000F3B00000F3B00003C
:103C60000F3B00000F3B00000F3B00000F3B00002C
:103C70000F3B00000F3B00000F3B00000F3B00001C
:103C80000F3B00000F3B00000F3B00000F3B00000C
:103C90000F3B00000F3B00000F3B00000F3B0000FC
:103CA0000F3B00000F3B00000F3B0000DB4B000010
:103CB0000F3B00000F3B00000F3B00000F3B0000DC
:103CC0000F3B00000F3B00000F3B00000F3B0000CC
:103CD0000F3B00000F3B00000F3B00000F3B0000BC
:103CE0000F3B0000F94100000F3B0000E74B0000D4
:103CF0009C92FF1F6892FF1FD887FF1F4893FF1FEA
:103D00006F12833A881A0100901A0100A41A010068
:103D10002487FF1FB81A0100D01A0100F01A010011
:103D2000081B0100281B01004C1B0100681B01003F
:103D30007C1B01003C87FF1F23682868062B40F08E
:103D40008F80A0F13002412A3FF6E1AE01A151F887
:103D500022F000BF814A0000AB4A00004B4B00003C
:103D6000774B00009D4B0000C34B0000174A00003A
:103D70003B4A00000F3B0000594A00000F3B000087
:103D80000F3B00000F3B00000F3B00000F3B00000B
:103D90000F3B00000F3B00000F3B00000F3B0000FB
:103DA0000F3B00000F3B00000F3B00000F3B0000EB
:103DB0000F3B00000F3B00000F3B00000F3B0000DB
:103DC0000F3B00000F3B00000F3B00000F3B0000CB
:103DD0000F3B00000F3B00000F3B00000F3B0000BB
:103DE0000F3B00000F3B00000F3B00000F3B0000AB
:103DF0000F3B00000F3B00000F3B00000F3B00009B
:103E00000F3B00000F3B00000F3B00000F3B00008A
:103E10000F3B00000F3B00000F3B00000F3B00007A
:103E20000F3B00000F3B00000F3B00000F3B00006A
:103E30000F3B00000F3B00000F3B00000F3B00005A
:103E40000F3B00000F3B00000F3B00000F3B00004A
:103E50000F3B00000F3B0000F94100002368286879
:103E6000052B40F08D80A0F13102402A3FF64FAE85
:103E700001A151F822F000BFC347000037490000FC
:103E8000FB4800001B490000B7480000E148000063
:103E90000F3B00000F3B00000F3B00000F3B0000FA
:103EA0000F3B00000F3B00000F3B00000F3B0000EA
:103EB0000F3B00000F3B00000F3B00000F3B0000DA
:103EC0000F3B00000F3B00000F3B00000F3B0000CA
:103ED0000F3B00000F3B00000F3B00000F3B0000BA
:103EE0000F3B00000F3B00000F3B00000F3B0000AA
:103EF0000F3B00000F3B00000F3B00000F3B00009A
:103F00000F3B00000F3B00000F3B00000F3B000089
:103F10000F3B00000F3B00000F3B00000F3B000079
:103F20000F3B00000F3B00000F3B00000F3B000069
:103F30000F3B00000F3B00000F3B00000F3B000059
:103F40000F3B00000F3B00000F3B00000F3B000049
:103F50000F3B00000F3B00000F3B00000F3B000039
:103F60000F3B00000F3B00000F3B00000F3B000029
:103F70000F3B00000F3B00005749000023682868F2
:103F8000032B40F0A480A0F13002422A3FF6BFADDF
:103F900001A151F822F000BFA5400000F951000036
:103FA00021520000495200006B520000D151000024
:103FB0008D520000B5520000D3520000F7520000AD
:103FC0000F3B00000F3B00000F3B00000F3B0000C9
:103FD0000F3B00000F3B00000F3B00000F3B0000B9
:103FE0000F3B00000F3B00000F3B00000F3B0000A9
:103FF0000F3B00000F3B00000F3B00000F3B000099
:104000000F3B00000F3B00000F3B00000F3B000088
:104010000F3B00000F3B00000F3B00000F3B000078
:104020000F3B00000F3B00000F3B00000F3B000068
:104030000F3B00000F3B00000F3B00000F3B000058
:104040000F3B00000F3B00000F3B00000F3B000048
:104050000F3B00000F3B00000F3B00005B530000D4
:104060004B4D00001F5300003D5300002F54000033
:104070004D540000014D0000254D00000F3B000095
:10408000795300009B5300000F3B00000F3B0000E2
:104090000F3B00000F3B00000F3B0000C55300002A
:1040A000F953000006F080FA002841F39982CF48C6
:1040B000CF4E06F0CBFE0127034601466222CD48D3
:1040C000B36527602A60FDF7CBF923682868012BC8
:1040D0007FF41DADEBE4A0F13102402A3FF617ADAD
:1040E00001A151F822F000BFD74A0000EF4A0000BA
:1040F000F34A0000154B0000194B0000354B00003F
:10410000474B0000D74B0000F14900000F3B000077
:104110000F3B00000F3B00000F3B00000F3B000077
:104120000F3B00000F3B00000F3B00000F3B000067
:104130000F3B00000F3B00000F3B00000F3B000057
:104140000F3B00000F3B00000F3B00000F3B000047
:104150000F3B00000F3B00000F3B00000F3B000037
:104160000F3B00000F3B00000F3B00000F3B000027
:104170000F3B00000F3B00000F3B00000F3B000017
:104180000F3B00000F3B00000F3B00000F3B000007
:104190000F3B00000F3B00000F3B00000F3B0000F7
:1041A0000F3B00000F3B00000F3B00000F3B0000E7
:1041B0000F3B00000F3B00000F3B00000F3B0000D7
:1041C0000F3B00000F3B00000F3B00000F3B0000C7
:1041D0000F3B00000F3B00000F3B00000F3B0000B7
:1041E0000F3B00000F3B0000F9410000342801F0B4
:1041F000FE8171287FF48BAC00237320236028603C
:1042000085E406F0D1F9002840F3AD837748784E75
:1042100006F01CFE07F0E0FF774908F031F807468A
:104220000246336D96F840107248776415E006F048
:10423000BBF9002840F39B836C486D4E06F006FEE8
:10424000C0B286F84000022894BF01460021336DB9
:10425000726C684888BF86F84010FDF703F90123A7
:1042600069202360286022E406F062F906F09CF9D8
:1042700005460028F8D15D485D4E06F055FC5B48C8
:1042800006F052FC594806F04FFC584806F04CFC2A
:10429000564806F049FC1F21584806F0AFF953482C
:1042A00006F042FC1C21564806F0A8F9706A5549F0
:1042B00007F0E6FF07F03AFB009502460B464B4835
:1042C00006F08AFC0221504806F098F9474806F0AB
:1042D0002BFC23214D4806F091F9F06B494907F07A
:1042E000CFFF07F023FB009502460B463F4806F040
:1042F00073FC0221444806F081F93C4806F014FCA6
:104300001921434806F07AF9B06B07F00FFB02253C
:104310000B4602460095354806F05EFC29463D48AE
:1043200006F06CF9314806F0FFFB22213A4806F00E
:1043300065F9B6F8CA102D4806F046FC0321374847
:1043400006F05CF9294806F0EFFB0723236040E400
:1043500006F0EEF806F028F905460028F8D12348C3
:10436000234E06F0E1FB214806F0DEFB1F4806F075
:10437000DBFB1E4806F0D8FB1C4806F0D5FB1521D8
:10438000274806F03BF9194806F0CEFB18212548CE
:1043900006F034F92B460A2296F84010134806F02E
:1043A000D3FB124806F0C0FB28211F4806F026F96F
:1043B000706C144907F064FF07F0B8FA00950B46DB
:1043C00002460A4806F008FC02210F4806F016F9DA
:1043D000064806F0A9FB1321144806F00FF903481C
:1043E00006F0A2FB08232360FFF7F3BBD887FF1F6B
:1043F0004893FF1F2495FF1F6F12833A901301000B
:10440000B013010000007A44BC110100D013010078
:10441000F41301006C1301001014010034140100A6
:10442000501B01007411010090110100C011010026
:1044300006F07EF806F0B8F805460028F8D17F4867
:104440007F4E06F071FB7D4806F06EFB7B4806F060
:104450006BFB7A4806F068FB784806F065FB112193
:10446000784806F0CBF8754806F05EFB28217648C0
:1044700006F0C4F87069754907F002FF07F056FAB4
:10448000009502460B466D4806F0A6FB02217048D7
:1044900006F0B4F8694806F047FB16216D4806F0AF
:1044A000ADF8F069694907F0EBFE07F03FFA0095B7
:1044B0000B460246614806F08FFB0221644806F075
:1044C0009DF85E4806F030FBD6F8B830002B32DDA0
:1044D0001D21614806F092F8306E07F07DFE5F49BD
:1044E00007F0CEFE07F022FA022502460B460095A1
:1044F000524806F071FB0121594806F07FF84F48F9
:1045000006F012FB1F21574806F078F8706E07F08E
:1045100063FE524907F0B4FE07F008FA0095024620
:104520000B46464806F058FB01214D4806F066F858
:10453000424806F0F9FA11214B4806F05FF8D6F828
:10454000B830072B00F2A687DFE813F0230828080D
:104550001E0814080F080A08A007190805F0E8FF4C
:1045600006F022F80028F9D13448354E06F0DCFA7E
:10457000324806F0D9FA314806F0D6FA2F4806F04C
:10458000D3FA2E4806F0D0FA1F21384806F036F844
:104590002A4806F0C9FA1E21354806F02FF82748A8
:1045A00006F0C2FA1A21334806F028F8D6F880300F
:1045B000022B01F02A81032B01F01E81012B01F057
:1045C0002D8109212C4806F019F81C4806F0ACFA98
:1045D00014212A481A4F06F011F8F16F174806F017
:1045E000F3FA164806F0A0FA1C21254806F006F852
:1045F000D6F88410114806F0E7FA104806F094FA4D
:104600001C21204805F0FAFFD6F8B4100B4806F03C
:10461000DBFA0A4806F088FAD6F8805025F0020541
:10462000012D01F065801321174805F0E7FF0348CD
:1046300006F07AFA02232360FFF7CBBAD887FF1F70
:104640004893FF1FF41A0100D411010000007A44BE
:10465000BC1101000012010018120100CDCCCC3DAC
:1046600068170100381201005812010028160100D5
:104670004816010068160100E0160100EC16010062
:104680000417010024170100C011010005F050FFBC
:1046900005F08AFF0028F9D1B74806F045FAB64878
:1046A00006F042FAB44806F03FFAB34806F03CFA86
:1046B000B14806F039FA1321B04805F09FFFAE4823
:1046C00006F032FA0D21AE4805F098FFAA4806F030
:1046D0002BFA0F21AB4805F091FFAB4BA6481968A8
:1046E00006F072FAA44806F01FFA1321A74805F055
:1046F00085FFA74BA048196806F066FA9E4806F0A9
:1047000013FA1221A34805F079FFA34B9A481968C0
:1047100006F05AFA984806F007FA11219F4805F06A
:104720006DFF9F4B9448196806F04EFA924806F0C8
:10473000FBF90E219B4805F061FF9B4B8E48D3F897
:10474000A81006F041FA8C4806F0EEF919219748B6
:1047500005F054FF964B8848196806F035FA8648EC
:1047600006F0E2F91121934805F048FF924B824888
:10477000196806F029FA804806F0D6F910218F480A
:1047800005F03CFF8E4B7C48196806F01DFA7A480C
:1047900006F0CAF91C218B4805F030FF8A4B764899
:1047A000196806F011FA744806F0BEF9132187481B
:1047B00005F024FF704806F0B7F904232360FFF7E3
:1047C00008BA05F0F1FE00287FF7D8AB6A48764EAC
:1047D00006F03CFB01226B23C6F8980022602B6098
:1047E00001E005F0A5FE05F0DFFE0028F9D16248E2
:1047F0006D4D06F099F9604806F096F95E4806F0AE
:1048000093F95D4806F090F95B4806F08DF9212197
:104810006F4805F0F3FE584806F086F915216D48FB
:1048200005F0ECFED6F89810534806F0CDF90221B9
:10483000694805F0E3FE504806F076F91E21674806
:1048400005F0DCFED6F8A0104B4806F0BDF90321B8
:10485000634805F0D3FE484806F066F91E2161481A
:1048600005F0CCFED6F89C10434806F0ADF942485E
:1048700006F05AF91D215C4805F0C0FED6F8AC10D0
:104880003D4806F0A1F93C4806F04EF91E21574874
:1048900005F0B4FED6F8B010374806F095F9364862
:1048A00006F042F9D6F8A830012B00F0C0870523A6
:1048B0002360FFF78EB905F077FE00287FF75EAB27
:1048C0002D48394E06F0C2FA3B4BC6F8B000032221
:1048D0001A60FDF7E7FD01226B2322602B6082E75F
:1048E000314E96F8C930B3FA83F35B0901216B228C
:1048F00086F8C93021602A6075E705F055FE00286A
:104900007FF73CAB1C48284E06F0A0FA01226B232F
:10491000C6F89C0022602B6065E705F045FE002884
:104920007FF72CAB1448204E06F090FA224BC6F8C5
:10493000AC000222CCE705F037FE00287FF71EAB63
:104940000D48194E06F082FA01226B23C6F8A0002A
:1049500022602B6047E7184A00237320136023600E
:104960002860FFF7D4B823682868FFF77FB80E4E99
:1049700096F8400067E400BFD887FF1F4415010088
:1049800058150100681501009C94FF1F781501005F
:104990001895FF1F8C150100D894FF1FA01501006A
:1049A0000095FF1FB41501004893FF1FC4150100B7
:1049B000C494FF1FE0150100C094FF1FF41501000F
:1049C0008892FF1F081601006887FF1FC0110100B1
:1049D000381401005C14010000130100741401007C
:1049E0000010010094140100B4140100D41401005B
:1049F0000123236005F0D8FD002800F33386B34B74
:104A00001A68042AC4BF02221A6064232B60236838
:104A10006420FFF729B805F0C7FD00287FF71EAA1C
:104A2000AB48AC4E06F012FA65230122C6F8BC0072
:104A300022602B601846FFF73AB8A64B93F8C820BF
:104A4000002A00F01786002283F8C8200123652081
:104A500023602860FFF72BB805F0A6FD00287FF73C
:104A6000FDA99B489B4E06F0F1F907F0B5FBF76AEC
:104A70003063394607F0A2FD0028E7D03763E5E749
:104A800005F092FD00287FF7E9A9914806F0DEF9CC
:104A9000904A00EB80004300116E1BB28B42A2F8DB
:104AA000D030D3DDA2F8D010D0E705F07DFD00288E
:104AB0007FF7D4A98648874E06F0C8F907F08CFB2B
:104AC000854907F091FC65230122706122602B600B
:104AD0001846FEF7ECBF814A1368B3FA83F35B090B
:104AE00001216420136021602860FEF7E0BF7C4A4A
:104AF000F2E77C4A7C4F1368002B0CBF0123002394
:104B00004FF001001360206040F06086034664228D
:104B10002A607DE7754ADFE76E4ED6F8A830B3FA13
:104B200083F35B0901226420C6F8A8302260286064
:104B3000FEF7BDBF01236E482360FCF7A1F96D4A63
:104B400023681060E3E76C4AC6E705F02DFD0028F6
:104B50007FF784A95E485F4E06F078F907F03CFBCA
:104B60005D4907F041FC65230122F06122602B6062
:104B70001846FEF79CBF05F017FD00287FF76EA9C9
:104B80005348544E06F062F900EB800043000122C6
:104B90006520336622602860FEF789BF05F004FDBA
:104BA00000287FF75BA94A484A4E06F04FF900EB10
:104BB0008000430001226520736622602860FEF7B2
:104BC00076BF444AD2F8B8300133072BC8BF002360
:104BD000C2F8B8303AE7494A7EE7FEF7D7FC2368C7
:104BE0002868FEF741BF3B4AD2F880300133032BDF
:104BF000C8BF0023C2F880300123632023602860EF
:104C0000FEF755BF334EF36FB3FA83F35B0901220E
:104C10006320F36722602860FEF749BF2D4ED6F867
:104C20008430B3FA83F35B0901226320C6F8843031
:104C300022602860FEF73BBF0123236005F0B4FC2F
:104C40000028D9DD2248234E06F000F9C6F8B4004A
:104C5000D2E70123236005F0A7FC002807DD1C48EC
:104C60001C4E06F0F3F807F0B7FAC6F8940063207C
:104C700028602368FEF7FABE0123236005F094FC48
:104C80000028F4DD1248134E06F0E0F807F0A4FA0D
:104C9000C6F89000EBE70123236005F085FC0028AF
:104CA000E5DD0B480B4E06F0D1F8A6F8C200DEE7B2
:104CB0000123236005F078FC00289DDD0448054EA3
:104CC00006F0C4F8C6F88C0096E700BF6887FF1F9F
:104CD000D887FF1F4893FF1F00007A449C94FF1F52
:104CE0001895FF1FD894FF1F9C92FF1F0095FF1F70
:104CF0002495FF1FC494FF1FC094FF1F8892FF1FBD
:104D000005F052FC00280DDD1748184E06F09EF8FD
:104D100007F062FA164907F067FB0122622330624E
:104D200022602B6005F040FC00280EDD0E480F4E7F
:104D300006F08CF807F050FA0D4907F055FB0122F8
:104D40006223C6F8C40022602B6005F02DFC002809
:104D500040F346840448054E06F078F801226223A9
:104D6000F06622602B6007E0D887FF1F4893FF1F83
:104D700000007A4405F0DCFB05F016FC054600282F
:104D8000F8D1C24805F0D0FEC04805F0CDFEBF48BE
:104D900005F0CAFEBD4805F0C7FEBC4805F0C4FEDC
:104DA0001521BB4805F02AFCB84805F0BDFE1421CA
:104DB000B84805F023FCB54805F0B6FE1B21B648FF
:104DC00005F01CFCB14805F0AFFE1321B34805F017
:104DD00015FCAE4805F0A8FEAC4805F0A5FEAB48B2
:104DE00005F0A2FE2021AE4805F008FCF068AD49B0
:104DF00007F046FA06F09AFD009502460B46A348D6
:104E000005F0EAFE0221A84805F0F8FB0221A748B8
:104E100005F0F4FB9D4805F087FE2121A44805F02C
:104E2000EDFB30699F4907F02BFA06F07FFD0095F6
:104E300002460B46954805F0CFFE02219A4805F040
:104E4000DDFB0221994805F0D9FB904805F06CFE86
:104E50001F21984805F0D2FBB06A06F067FD0227D3
:104E600002460B460097894805F0B6FE012192489C
:104E700005F0C4FB39468D4805F0C0FB834805F0BA
:104E800053FE20218D4805F0B9FBF06A06F04EFD77
:104E9000009702460B467D4805F09EFE012186489C
:104EA00005F0ACFB3946814805F0A8FB774805F0D2
:104EB0003BFE2321824805F0A1FBB06C794907F045
:104EC000DFF906F033FD009502460B466F4805F00A
:104ED00083FE3946744805F091FB3946734805F066
:104EE0008DFB6A4805F020FE1F21764805F086FB01
:104EF000F06C6C4907F0C4F906F018FD0095024605
:104F00000B46624805F068FE3946674805F076FBB7
:104F10003946664805F072FB5C4805F005FE19212C
:104F2000694805F06BFBF16D584805F04DFE3946B8
:104F3000664805F063FB39465C4805F05FFB534863
:104F400005F0F2FD1821624805F058FBB06E07F03D
:104F500043F9604907F094F906F0E8FC009702462F
:104F60000B464A4805F038FE01215B4805F046FB38
:104F700039464E4805F042FB444805F0D5FD2B214B
:104F8000564805F03BFBB069464907F079F906F051
:104F9000CDFC009502460B463C4805F01DFE394607
:104FA000414805F02BFB3946404805F027FB3748C0
:104FB00005F0BAFD1F214A4805F020FBB16D3348CA
:104FC00005F002FE3946394805F018FB2F4805F078
:104FD000ABFD2021434805F011FB716D2B4805F016
:104FE000F3FD3946314805F009FB284805F09CFDE2
:104FF00010213D4805F002FBF16E244805F0E4FD68
:105000003946294805F0FAFA3946284805F0F6FAF3
:105010001E4805F089FD1321344805F0EFFA316F81
:105020001A4805F0D1FD0121314805F0E7FA39466B
:105030001E4805F0E3FA154805F076FD10212D48CD
:1050400005F0DCFA716F114805F0BEFD39461648CF
:1050500005F0D4FA3946154805F0D0FA0B4805F0AA
:1050600063FD1421244805F0C9FAB16F074805F023
:10507000ABFD01211E4805F0C1FA39460B4805F089
:10508000BDFA024805F050FD162137E0D887FF1F12
:10509000D4170100EC17010004180100C011010031
:1050A0002018010000007A44BC110100FC1B010023
:1050B0004418010068180100EC0C01008818010078
:1050C000AC180100D0180100F01801000C19010003
:1050D00010190100CDCCCC3D681701002C1901003E
:1050E00058190100781901009C190100B01901003C
:1050F000C4190100C8190100DC190100B44805F009
:105100007DFA306AB34907F0BBF806F00FFC009552
:1051100002460B46B04805F05FFD3946AF4805F042
:105120006DFA3946AE4805F069FAAB4805F0FCFC6B
:105130002421AC4805F062FAD6F8C400A54907F06E
:105140009FF806F0F3FB009502460B46A24805F0D7
:1051500043FD3946A14805F051FA3946A04805F00B
:105160004DFA9D4805F0E0FC2B219F4805F046FADA
:10517000706B06F0DBFB009702460B46964805F085
:105180002BFD0121994805F039FA3946944805F07C
:1051900035FA914805F0C8FC2721954805F02EFA0C
:1051A000D6F8CC008B4907F06BF806F0BFFB0095F2
:1051B0000B460246884805F00FFD3946874805F042
:1051C0001DFA854805F0B0FC03232360FEF701BDFE
:1051D00005F0EAF9002840F303827F48854E05F088
:1051E00035FE06F0F9FF7B4907F0FEF80122622345
:1051F000B06422602B60BFE505F0D6F9002840F3CB
:10520000EF8175487B4E05F021FE06F0E5FF714900
:1052100007F0EAF801226223F06022602B60ABE520
:1052200005F0C2F9002840F3DB816B48714E05F0B0
:105230000DFE06F0D1FF674907F0D6F80122622380
:10524000306122602B6097E505F0AEF9002840F34D
:10525000C7816148674E05F0F9FD06F0BDFF0122E8
:105260006223B06222602B6086E505F09DF900287C
:1052700040F3B68158485F4E05F0E8FD06F0ACFFFC
:1052800001226223F06222602B6075E505F08CF943
:10529000002840F3A5815048564E05F0D7FD06F092
:1052A0009BFF4C4907F0A0F801226223F0642260C2
:1052B0002B6061E505F078F9002840F391814648BC
:1052C0004C4E05F0C3FD01226223F06522602B6085
:1052D00052E505F069F9002840F382813E48454EC9
:1052E00005F0B4FD00EB8000430001216222B366AB
:1052F00021602A6040E505F057F9002840F37081ED
:1053000035483C4E05F0A2FD06F066FF314907F036
:105310006BF801226223B06122602B602CE505F05E
:1053200043F9002840F35C812B48324E05F08EFD96
:1053300001226223306722602B601DE505F034F9FD
:10534000002840F34D8124482A4E05F07FFD0122BC
:105350006223706722602B600EE505F025F90028B6
:1053600040F33E811C48234E05F070FD012262236C
:10537000706522602B60FFE405F016F9002840F309
:105380002F8115481B4E05F061FD06F025FF012217
:105390006223706322602B60EEE405F005F90028BB
:1053A00040F31E810C48134E05F050FD06F014FF2B
:1053B000084907F019F801226223C6F8CC002260E0
:1053C0002B60D9E40022732322602B60FEF7A7BB79
:1053D000F419010000007A44D887FF1FBC110100B6
:1053E000FC1B01000C1A0100341A0100EC0C010036
:1053F000601A01004893FF1FA14BA248A24E002251
:1054000002211A6005F0FAF8A04805F08DFB0B2187
:105410009F4805F0F3F802219A4805F0EFF89B4801
:1054200005F082FB0122622322602B60A4E405F0D8
:10543000BBF8002840F3D4809448934E05F006FD55
:1054400001226223B06722602B6095E4FCF794FC94
:1054500002218C488C4E05F0D1F88C4805F064FB95
:105460000221884805F0CAF8884805F05DFB022152
:10547000844805F0C3F8854805F056FB1721854898
:1054800005F0BCF8814805F04FFBC4E704218248D1
:1054900005F0B4F87D487C4D05F046FBD6F8B830F1
:1054A000002B12DD18217D4805F0A8F8D5F8BC10B6
:1054B000764805F089FB0221794805F09FF873488A
:1054C00005F032FB714805F02FFB1B21754805F0F4
:1054D00095F896F8C830012B15BF12211421724897
:1054E000724805F08BF8694805F01EFB1F217048D3
:1054F00005F084F8306B06F019FA022502460B46D7
:105500000095624805F068FB29466A4805F076F880
:105510005E4805F009FB1E21674805F06FF8B6F9F3
:10552000D00006F059FE654906F0AAFE06F0FEF925
:1055300000950B460246554805F04EFB0121604898
:1055400005F05CF8514805F0EFFA13215D4805F0CD
:1055500055F84E4805F0E8FA06232360FEF739BBFC
:105560000B21594805F04AF894E70D21574805F0FA
:1055700045F88FE70D21564805F040F88AE71021DD
:10558000544805F03BF885E70C21534805F036F800
:1055900080E70D21514805F031F87BE70C21504898
:1055A00005F02CF876E7D4220021374803F08CF878
:1055B00028684C4AA0F1730001210023B0FA80F062
:1055C000400911602360FEF7A8BA04F095F923683A
:1055D000002B08BF73280CBF01200020FEF79DBAE6
:1055E00023682868012B7EF492AAFEF760BA04F0C3
:1055F000DBFF00287EF7A0AB2448234E05F026FCF5
:1056000061230122A6F8CA0022602B601846FEF72B
:105610004EBA04F0C9FF00287EF78EAB1B481A4E25
:1056200005F014FC06F0D8FD2F4906F029FE612391
:105630000122706222602B601846FEF738BA04F02F
:10564000B3FF00287EF778AB10480F4E05F0FEFB45
:1056500006F0C2FD61230122B06322602B60184670
:10566000FEF725BA094805F0F1FB204B0246186009
:10567000FFF7C7B9012283F8C820FFF7E7B900BFD9
:105680007C92FF1FFC1B01004893FF1FD887FF1F60
:105690006811010050110100C8120100E41201005C
:1056A0000013010004130100201301003413010052
:1056B0004C1301006C13010070130100CDCCCC3DE4
:1056C00068170100C0110100BC120100AC120100FA
:1056D0009C120100D01201008C1201006C1201001A
:1056E0007C1201003C87FF1F6F12833A6887FF1FFF
:1056F0001C215B4804F082FFD7F89400594906F05A
:10570000BFFD06F013F9009502460B46564805F01A
:1057100063FA0521554804F071FF534805F004FA77
:10572000D7F88050012D19D11D21514804F066FF92
:10573000D7F890004B4906F0A3FD06F0F7F8009566
:1057400002460B46484805F047FA0521474804F051
:1057500055FF454805F0E8F9D7F8805025F00205D7
:10576000012D7EF460AF1C214248434D04F046FFFA
:10577000B6F8C2103C4805F027FA03213F4804F070
:105780003DFF394805F0D0F9D6F88030012B7EF482
:105790004AAF1F213A4804F031FFD5F88C0006F0DB
:1057A0001BFD384906F06CFD06F0C0F802250246E4
:1057B0000B4600952C4805F00FFA2946324804F0B4
:1057C0001DFF294805F0B0F9FEF72DBF2F4B00262D
:1057D00031460B201E6003F043FA31460C2003F0E3
:1057E0003FFA3146142003F03BFA3146152003F00E
:1057F00037FA3B68FFF78BB92021254804F0FEFEFD
:10580000194805F091F9FEF7E3BE1721214804F08D
:10581000F5FE154805F088F9FEF7DABE1E211E4890
:1058200004F0ECFE104805F07FF9FEF7D1BE202110
:105830001A4804F0E3FE95F8C9302BB918490A4814
:10584000FCF788FAFFF733B816490748FCF782FAE5
:10585000FFF72DB8084EFFF78FBA074EFEF7C3BF0C
:1058600044170100CDCCCC3DD887FF1F6417010041
:105870006C1701008C1701004893FF1FAC17010043
:10588000B01701006F12833AD01701001495FF1F63
:10589000A4160100C816010084160100F4140100CA
:1058A000181501002415010038B5174C174A236854
:1058B000101D12F8011F904241EA0323F9D1236021
:1058C000134C03F100432360124BD3F88030022BBA
:1058D00011D0114B1B68012B00D038BD0F4805F0CB
:1058E00023F921680D4805F06FF903210C48BDE844
:1058F000384004F083BE20680A4D06F06DFC286035
:10590000FDF792F8E5E700BF2894FF1FB794FF1F4B
:10591000E494FF1F4893FF1F9C94FF1FD887FF1F2D
:105920008C1B01008092FF1F30B53E4D3E4883B076
:10593000294601F071FF2B6840F2C232934256D0E3
:10594000B3F5407F394C08D2226836493848012ADD
:1059500018BF0022FBF716FB2B68364A23F0604382
:105960001A44EE2A07D822682E493148012A18BF66
:105970000022FBF7A3FA2368012B01D003B030BD4E
:105980002D4B2E481B6801930A220023019905F034
:10599000DBF82A68234B002ADB793BDB28492948BE
:1059A00007F036FC274807F06BFC0146254804F059
:1059B00025FE2C681B4B14F080441CD1DB798BB185
:1059C0002B1921491A7A1F4807F022FC1D4807F0BD
:1059D00057FC01461B4804F011FE0134EB79E4B298
:1059E000A342EDD8154805F09FF803B030BDFFF78E
:1059F0005BFF2B68A4E7154D124C0FCD0FC495E843
:105A0000030044F8040B204620F81419152104F073
:105A1000F5FDE7E70E490B4822F0604207F0F8FB7E
:105A2000C0E700BFB094FF1F68D1FF1F9C94FF1F09
:105A30002495FF1FFFABAAE510D3FF1FD887FF1FD8
:105A4000B81B0100A092FF1FE41B0100CC1B01004A
:105A5000901B0100974B1B78052B50D02DE9F04F80
:105A6000954C964E964DA26E236E9648326083B04A
:105A70002B60FBF781FDE16A06F0A0FD10B1B4F9DF
:105A8000D0302B608F48FBF775FDA16A06F0B4FD9E
:105A900010B1002333602B608A48FBF7B7FCE16844
:105AA00006F0AAFD08B100232B608648FBF7AEFC88
:105AB000E16806F0A1FD08B100232B6081487E4F0C
:105AC000FBF77EFC216906F079FDF0B1002333601D
:105AD000B4F9D0202B68784FDFF8E4819A426FDB6D
