:1000000000800020BD01000009870000C1860000BB
:10001000C1860000C1860000C1860000C1860000C4
:10002000C1860000C1860000C1860000098700006B
:1000300009870000C1860000D1A70000D5A80000F4
:100040000987000009870000098700000987000070
:100050000987000009870000098700000987000060
:100060000987000009870000098700000987000050
:100070000987000009870000098700000987000040
:100080000987000009870000098700000987000030
:100090000987000009870000098700000987000020
:1000A0000987000009870000098700000987000010
:1000B00009870000F17B0000FD7B0000017C00004F
:1000C0000D7C0000117C0000157C000009870000F9
:1000D00009870000098700000987000009870000E0
:1000E00009870000098700000987000009870000D0
:1000F00009870000DDAF000009870000A993000018
:100100000987000075950000098700000987000035
:10011000098700000987000009870000098700009F
:10012000098700000987000009870000098700008F
:10013000098700000987000009870000098700007F
:10014000098700000987000009870000098700006F
:10015000098700000987000009870000098700005F
:100160000987000005980000098700000987000042
:10017000098700000987000009870000098700003F
:10018000098700000987000009870000098700002F
:10019000098700000987000009870000098700001F
:1001A000098700000987000009870000098700000F
:1001B000098700000987000009870000564B4CF2B0
:1001C000205210B51A804DF628121A8000BF00BFC9
:1001D00008F09EFA514B4FF010621A60504A9A6034
:1001E000504ADA60504A136813F4807304D14F49BF
:1001F0000B604FF4A85313604D4B1A78110703D5C9
:100200001A7842F008021A704A4B4B492A221A7097
:100210004A4A4B4B8B4204D252F8040F43F8040B6A
:10022000F8E7484B484900228B4202D243F8042B9E
:10023000FAE74649464A002352F8230041F82300D2
:1002400001336F2BF8D1434B434A802103F8011B44
:100250009342FBD1414B3D4A1A60414B8A221A70AE
:10026000A3F5805324225A70A0221A709A7992071B
:10027000FCD59A79D406FCD43A4A937903F00C035E
:10028000082B384BF9D103221A7140225A719A79FE
:100290009006FCD5334A9179324B4906FBD5324A58
:1002A000324911600221516020221A709A7902F0BD
:1002B0000C020C2AFAD12E4B2E4A1A602E4B2F4AD2
:1002C0001A6000225A60072243F8042C2C4AC3F813
:1002D0000C2D62B608F0D2FC144B1B68DA0705D56A
:1002E000284808F0AFFA284B284A1A60284B1B7898
:1002F0005B0609D5244C254B22689A4204D121483B
:1003000008F0A0FA002323600CF050F908F006FA78
:100310000AF024FDFEE700BF0E20054030800440B7
:10032000823F04000100002B10D0034014D0034092
:1003300002D0074000E007403892FF1F342201003E
:100340002087FF1F3892FF1F04D6FF1F0082FF1F68
:100350000000000000E400E05FE400E008ED00E0E1
:100360000050064000400640448004400000030165
:1003700004800440C010050014E000E0FF76010096
:1003800000002020D3B11E601CE00340A5C3945A96
:1003900000F00740FFFFFFFFFFFFFFFFFFFFFFFF32
:1003A000FFFFFFFFFFFFFFFFFFFFFFFFFFFFFFFF5D
:1003B000FFFFFFFFFFFFFFFFFFFFFFFFFFFFFFFF4D
:1003C000FFFFFFFFFFFFFFFFFFFFFFFFFFFFFFFF3D
:1003D000FFFFFFFFFFFFFFFFFFFFFFFFFFFFFFFF2D
:1003E000FFFFFFFFFFFFFFFFFFFFFFFFFFFFFFFF1D
:1003F000FFFFFFFFFFFFFFFFFFFFFFFFFFFFFFFF0D
:10040000FFFFFFFFFFFFFFFFFFFFFFFFDEF9FFFF23
:1004100010B5054C237833B9044B13B10448AFF33E
:1004200000800123237010BD3892FF1F00000000E0
:1004300030220100084B10B51BB108490848AFF342
:1004400000800848036803B910BD074B002BFBD0A0
:10045000BDE81040184700BF000000003C92FF1F9D
:10046000302201003892FF1F00000000F0B400F1BC
:100470003006174F00243146031F00F1640243F891
:10048000044FB34241F8047F4FF0000542F8044F97
:10049000F5D100230F4A104CC0F89C5047F2305160
:1004A000C0F8A050C0F8A450C0F8A850C0F8B85088
:1004B000C0F8B040C0F8AC20C0F8B42080F8C43018
:1004C00080F8C53080F8DC30C0F8F010F0BC704720
:1004D0000000A040000048430000C8C238B5CB7BF4
:1004E000FD2B0C46054632D0087A0BF0F9FD4FF093
:1004F0007C510BF049FE1D490BF03CFDC5F8A000F6
:10050000207BEF2809D90023C5F8A430607BEF28B1
:1005100011D90023C5F8A83038BD0BF0E1FD4FF02C
:100520007C510BF031FE11490BF024FDC5F8A400FD
:10053000607BEF28EDD80BF0D3FD4FF07C510BF032
:1005400023FE0A490BF016FDC5F8A80038BD887ACD
:10055000FD28E1D00BF0C4FD4FF07C510BF014FEF0
:1005600003490BF007FDC5F8A00038BD00002C4280
:100570000000204290F8CC00704700BF90F8C800FF
:10058000704700BF90F8D000704700BF90F8D400CB
:10059000704700BF0D2994BF50F82100002070471C
:1005A0002DE9F0410B4E8046041F00F1300754F84E
:1005B000045F314628460BF085FF30B1D8F8BC10F7
:1005C00028460BF09DFF00B12E46BC42EFD13046CD
:1005D000BDE8F081000020412DE9F041D0F8BC7069
:1005E0004FF00008041F00F1300654F8045F39464C
:1005F00028460BF085FF084948B128460BF062FFFA
:10060000414620B128460BF07BFF00B1A846B4421A
:10061000EBD14046BDE8F0810000A0402DE9F04755
:10062000D0F8BC7082464FF00009041F00F130067C
:100630004FF0000854F8045F394628460BF060FF7D
:100640000C4950B128460BF03DFF30B148462946D1
:100650000BF092FC08F101088146B442EAD1CAF8D5
:10066000E08040460BF03CFD014648460BF040FE62
:10067000BDE8F0870000A040D0F8E000704700BF60
:1006800038B5D0F8D83053B9D0F8A440D0F8A0503D
:10069000214628460BF016FF30B1204638BD2733DF
:1006A00050F82340204638BD2C46204638BD00BFB8
:1006B000D0F8D8302DE9F041002B7CD1D0F8A460DF
:1006C000D0F8A0500446314628460BF055FCD4F82B
:1006D000A870394680460BF04FFC7E490BF008FEAF
:1006E0004FF07C5104460BF00BFF002861D04FF017
:1006F0007C5128460BF004FF4FF07C51002860D15C
:1007000028460BF0DFFE38B14FF07C5130460BF03D
:10071000F7FE002840F0A7804FF07C5128460BF0F0
:10072000EFFE002860D14FF07C5128460BF0E8FE28
:10073000002840F0A1804FF07C5128460BF0E0FEED
:1007400000286CD14FF07C5128460BF0BBFE4FF0D7
:100750007C5110B330460BF0D3FE38B14FF07C51D2
:1007600038460BF0AFFE002840F0B0804FF07C51CF
:1007700030460BF0A7FE002861D04FF07C51384680
:100780000BF0BEFE002840F0A38038464FF07C51AD
:100790000BF098FE68B1504C10E028460BF092FE2A
:1007A0000028E3D128464FF07C510BF08BFE002847
:1007B00045D1BDE8F081273350F823402046BDE8FD
:1007C000F08130460BF09CFE4FF07C5100283ED06B
:1007D00038460BF095FE0028F0D14FF07C512846AA
:1007E0000BF070FE002859D14FF07C5130460BF0D1
:1007F00069FE002840D04FF07C5138460BF080FE57
:10080000002841D14FF07C5130460BF079FE68B1A1
:100810004FF07C5138460BF055FE00284FD14FF079
:100820007C5130460BF04EFE00288BD04FF07C51AF
:1008300038460BF047FE002884D02C46BEE73046F1
:100840004FF07C510BF03EFE0028B2D09DE72846C9
:100850000BF038FE0028C7D04FF07C5130460BF02B
:100860004FFE0028C0D04FF07C5138460BF048FEB8
:1008700000283FF451AF18E04FF07C5130460BF0A8
:100880003FFE0028CBD0C3E7394628460BF074FB67
:100890004FF07C510BF078FC04468FE74FF07C5111
:1008A00038460BF02DFE00289ED0394630460BF01E
:1008B00063FB4FF07C510BF067FC04467EE740463B
:1008C0004FF07C510BF060FC044677E7344675E747
:1008D0003C4673E7000040400000A0C2D0F8D8209A
:1008E00070B5002A34D10446FFF7E2FE4FF07C5188
:1008F0000BF006FE58B3D4F8A0604FF07C513046A0
:100900000BF0FEFDD4F8A45038BBD4F8A8404FF04B
:100910007C5128460BF0F4FD48B1294630460BF0D7
:10092000EFFD20B1214628460BF0CCFD28BB4FF04F
:100930007C5120460BF0E4FD48B1284621460BF0DF
:10094000DFFD20B1304621460BF0DAFD18B970BD4D
:10095000273250F82240204670BD304629460BF021
:10096000B1FDD4F8A8400028D1D0304621460BF084
:10097000A9FD0028CBD03446EDE72C46EBE700BFBD
:100980002DE9F047814684B01546032900F27B81AA
:10099000DFE811F0FF00BE007D0004004FF0000A08
:1009A00080F8ECA0937A507A1B0103EB101000F54D
:1009B0007A700BF095FBB6490BF0E6FBD9F80040D6
:1009C000C9F830004846FFF789FFD9F8AC10054652
:1009D0000BF078FD08B1C9F8AC50D9F8D830002B2D
:1009E00040F02381D9F8A060D9F8A45030462946B8
:1009F0000BF068FD002800F00C81D9F8B0102846F3
:100A00000BF07EFD002840F00D8109F13406C84648
:100A100009F168050D2701E058F8044F31682046B8
:100A20000BF050FD30B1D9F8BC1020460BF05EFD44
:100A300000B13460296820460BF062FD0436954908
:100A400020B120460BF05CFD00B12C60013F05F1A8
:100A50000405E1D1BAF1000F00F0F6808E4CD9F810
:100A6000E81023680193019AD9F8F030521A9A429B
:100A700080F0F38022680292029A0B449B1A41F2A2
:100A80008732934240F20A8104B0BDE8F0874FF00C
:100A9000000A80F8ECA0937A507A1B0103EB101047
:100AA00000F57A700BF01CFB79490BF06DFBC9F86F
:100AB00020002B7B687B1B1103EB001000F57A7084
:100AC0000BF00EFB72490BF05FFBC9F828002B7B83
:100AD000EA7A1B0203F47063981800F57A700BF041
:100AE000FFFA6B490BF050FBC9F82400EB7BAA7BA3
:100AF0001B0203F47063981800F57A700BF0F0FA9B
:100B000063490BF041FBD9F80040C9F82C0059E7C4
:100B10004FF0000A80F8ECA0937A507A1B0103EBA7
:100B2000101000F57A700BF0DBFA59490BF02CFB32
:100B3000C9F810002B7B687B1B1103EB001000F53C
:100B40007A700BF0CDFA52490BF01EFBC9F8180071
:100B50002B7BEA7A1B0203F47063981800F57A7015
:100B60000BF0BEFA4A490BF00FFBC9F81400EB7BFF
:100B7000AA7B1B0203F47063981800F57A700BF0DF
:100B8000AFFA43490BF000FBD9F80040C9F81C004C
:100B900018E74FF0000A80F8ECA0937A507A1B0116
:100BA00003EB101000F57A700BF09AFA38490BF04D
:100BB000EBFAC9F800002B7B0446687B1B1103EBA2
:100BC000001000F57A700BF08BFA31490BF0DCFA6B
:100BD000C9F808002B7BEA7A1B0203F470639818AB
:100BE00000F57A700BF07CFA29490BF0CDFAC9F8C0
:100BF0000400EB7BAA7B1B0203F47063981800F5DA
:100C00007A700BF06DFA22490BF0BEFAC9F80C00AD
:100C1000D8E63146D9F8B0000BF054FC00283FF478
:100C2000F4AE3546C9F8B050EFE609EB8303D9F8C6
:100C3000B010D3F89C5028460BF062FC00283FF41B
:100C4000E4AEC9F8B050E0E6134B1B680093009B7C
:100C5000C9F8E83004B0BDE8F0870020A9F104032A
:100C600009F11C0143F8040F8B424FF00002F9D147
:100C7000C9F89C20C9F8A020C9F8A420C9F8A82068
:100C800004B0BDE8F08790F8ECA004689AE600BFD5
:100C90006F12833A0000A0400CD3FF1F02211348BB
:100CA00009F030FC124809F0C3FE0621114809F092
:100CB00029FC3B460A2299F8DC100D4809F0C8FED1
:100CC00019210D4809F01EFC23680393D9F8E82088
:100CD000D9F8F030039906481A44511A3B460A22C3
:100CE00009F0B6FE024809F0A3FECDE6A81A0100FD
:100CF000D887FF1F58070100600701002DE9F8435E
:100D00000026D0F8BC80C0F89C608146041F00F12A
:100D1000300754F8045F414628460BF0F1FB0949BF
:100D200050B128460BF0CEFB30B1304629460BF0CF
:100D300023F90646C9F89C00BC42EAD13046BDE81A
:100D4000F88300BF0000A04002299ABF283150F864
:100D500021000020704700BF3E2998BF80F8DC10BA
:100D6000704700BF90F8C400704700BF90F8C500FE
:100D7000704700BFC0F8D810704700BF80F8C4109B
:100D8000704700BFC0F8C010704700BF80F8C510A2
:100D9000704700BF30B50F4CC0F8BC1083B0204680
:100DA0000D4609F045FE204609F042FE28460AF0AD
:100DB00041FD022502460B460095204609F090FEB3
:100DC000204609F035FE204603B0BDE8304009F06A
:100DD0002FBE00BFD887FF1F70B500F570550646BF
:100DE000343500F128042046F434FFF73FFBAC42D1
:100DF000F9D106F58E75012428460021FFF7BEFFC4
:100E0000214628460134FFF7A7FF3F2C05F1F405E2
:100E1000F2D143F63C4400250548064A064B3555B9
:100E2000002130617161B261F361304670BD00BF75
:100E300000007A44000048430000C8C270B500F5C5
:100E40008E74012500260DE0012620460021FFF7C3
:100E50009DFF294620460135FFF77EFF3F2D04F117
:100E6000F4040AD02046FFF77DFF0028EDD020468D
:100E7000FFF77CFF0028E7D170BD304670BD00BF92
:100E8000F8B500F57157002300F570563B60343615
:100E900000F58E7402E0F434B4420DD02046FFF722
:100EA00061FF0028F7D020463D68FFF7E5FBF434EA
:100EB0002844B4423860F1D13868F8BD012A70B5D1
:100EC0000D4606460C7820D0A4F10B03302B07D931
:100ED000F42000FB04602830BDE87040FFF7FEBA44
:100EE00020460BF0FDF84FF07C510BF04DF92149F5
:100EF0000BF040F80BF00EFBF42404FB00602946D5
:100F00002830BDE87040FFF7E9BA1B4809F090FDB2
:100F10002146194809F0DCFD0321184809F0F2FACE
:100F2000A4F10B03302B0CD820460BF0D9F84FF06E
:100F30007C510BF029F90F490BF01CF80BF0EAFA81
:100F40000446F42000FB046029462830FFF7C6FA67
:100F5000631E0D2B0CD8084809F06AFD214606488F
:100F600009F0B6FD0B210648BDE8704009F0CABA89
:100F700070BD00BF00007041D887FF1F7C070100D3
:100F8000800701000B68A3F5D8732DE9F0413E2BD3
:100F900040D8DFE813F0D900D500D100CD00C9005A
:100FA000C500C100BD00B900B500B100AD00A90089
:100FB000A500A1009D009900950091008D00890079
:100FC000850081007D006D0069006500610075008D
:100FD000710079005D0041003901350131012D01B9
:100FE000290125013F0021011D0119013F001501C3
:100FF00011010D013F000901050101013F00FD0044
:10100000F900F5003F00F100ED00E9003F00E500C8
:10101000E100DD00BDE8F0814FF000080925012A5C
:10102000174604460E4600F0F380F42000FB05440A
:10103000283420460121FFF7A1FE20460121FFF7B9
:10104000A5FE324641462046BDE8F041FFF798BC78
:101050004FF003080825E2E74FF003080725DEE715
:101060004FF002080725DAE74FF001080725D6E719
:101070004FF000080725D2E74FF001080825CEE71A
:101080004FF000080825CAE74FF002080825C6E718
:101090004FF003080625C2E74FF002080625BEE719
:1010A0004FF001080625BAE74FF000080625B6E71D
:1010B0004FF003080525B2E74FF002080525AEE71B
:1010C0004FF001080525AAE74FF000080525A6E71F
:1010D0004FF003080425A2E74FF0020804259EE71D
:1010E0004FF0010804259AE74FF00008042596E721
:1010F0004FF00308454692E74FF0020803258EE7BC
:101100004FF0010803258AE74FF00008032586E722
:101110004FF00308022582E74FF0020845467EE7BC
:101120004FF0010802257AE74FF00008022576E724
:101130004FF00308012572E74FF0020801256EE722
:101140004FF0010845466AE74FF00008012566E7C1
:101150004FF00208102562E74FF0010810255EE706
:101160004FF0000810255AE74FF002080F2556E708
:101170004FF001080F2552E74FF000080F254EE70A
:101180004FF002080E254AE74FF001080E2546E70A
:101190004FF000080E2542E74FF002080D253EE70C
:1011A0004FF001080D253AE74FF000080D2536E70E
:1011B0004FF002080C2532E74FF001080C252EE70E
:1011C0004FF000080C252AE74FF002080B2526E710
:1011D0004FF001080B2522E74FF000080B251EE712
:1011E0004FF002080A251AE74FF001080A2516E712
:1011F0004FF000080A2512E74FF0030809250EE713
:101200004FF0020809250AE74FF00108092506E713
:10121000094809F00DFC2946074809F059FC3946F0
:10122000064809F06FF94146034809F051FC0248AD
:1012300009F0FEFBF9E600BFD887FF1F8C0701000D
:101240002DE9F043002383B00646036000F58E7459
:10125000012504E001353F2D04F1F40466D0204659
:10126000FFF780FD0028F5D04E4800F0F7FC294636
:101270004D4800F0F3FC2046FFF740FD0AF0DAFA93
:1012800002460B46494800F0E9FC2046FFF788F982
:1012900080462046FFF7A0F9074640460AF0CAFA02
:1012A0008046384689460AF0C5FA42464B46CDE9A3
:1012B00000013F4800F0D2FC00212046FFF744FD2A
:1012C000012180462046FFF73FFD074640460AF0D1
:1012D000B1FA8046384689460AF0ACFA42464B4697
:1012E000CDE90001334800F0B9FC2046FFF706FDC8
:1012F000014630680AF040FE30602046FFF7EEFA03
:10130000B1690BF0DFF8002833D12046FFF7B8F9B8
:10131000F1690BF0F5F800289CD02046FFF7B0F9F2
:1013200001353F2DF06104F1F40498D170680AF0A2
:10133000D7FE014630680AF0DBFF71693060044671
:101340000BF0DEF800B17461316920460BF0BAF899
:1013500000B134610B2007F00DFC43F63C43F35C15
:1013600060B99BB143F63C430122F25403B0BDE89F
:10137000F0832046FFF7B2FAB061C6E753B943F6EF
:101380003C430022F25403B0BDE8F0830A4800F069
:1013900093FCE7E7094800F079FC43F63C43002260
:1013A000F254F0E71C0F010090070100CC07010088
:1013B000E00701000C080100280801006008010096
:1013C00070B5114B836000F570550646343500F555
:1013D0008E7402E0F434AC4213D02046FFF7C2FC16
:1013E0000028F7D02046FFF7DBF8B1680BF06AF869
:1013F0000028EFD02046FFF7D3F8F434AC42B060B9
:10140000EBD1B06870BD00BF0000A04070B50023F4
:1014100000F570550646C360343500F58E7402E061
:10142000F434AC4213D02046FFF79CFC0028F7D0E0
:101430002046FFF7D1F8F1680BF062F80028EFD0F2
:101440002046FFF7C9F8F434AC42F060EBD1F06805
:1014500070BD00BF0068704743F63843C0587047FE
:10146000416070472DE9F04100F5705588461746F8
:101470001E46343500F58E7402E0F434AC4213D0CD
:101480002046FFF76FFC0028F7D020464146FFF7C3
:1014900071FC20463946FFF77DFC20463146F43486
:1014A000FFF770FCAC42EBD1BDE8F0812DE9F843C9
:1014B00043F6384300F570550027C7502E462A4A98
:1014C0002A4B426280464FF00009036234353836B9
:1014D00000F58E7402E0F434A54213D02046FFF7E5
:1014E00041FC0028F7D03368013333602046FFF712
:1014F000DFF81F490BF004F888B9F434A54207F16E
:101500000107EBD143F6384358F80300C01B0AF03B
:10151000E7FD014648460AF0EBFEBDE8F8832046A9
:10152000FFF7C6F8014648460AF026FD81462046E8
:10153000FFF7A6F8D8F820100AF0E2FF70B92046AD
:10154000FFF7CCF9D8F824100AF0BCFF0028C2D06D
:101550002046FFF7C3F9C8F82400BCE72046FFF790
:101560008FF8C8F82000EAE700C0794400C079C4C9
:1015700000008CC2006A7047406A7047F8B500F5F9
:10158000705507460026343500F58E7402E0F434B9
:10159000AC420FD02046FFF7E5FB0028F7D02046ED
:1015A000FFF73CF8014630460AF0E6FCF434AC4262
:1015B0000646EFD143F63843F8580AF091FD01464C
:1015C00030460AF095FEF8BD2DE9F04F06468FB083
:1015D00083488B4600F0EAFA814800F0E7FA804839
:1015E00000F0E4FA43F638433046F2580D92FFF724
:1015F00047FC73680C93074630680AF01BF9804675
:1016000030468946FFF7BAFF82463046B468F5682F
:10161000FFF74CFF0AF00EF9CDE90A0121462846F2
:101620000AF0A8FC6F490AF0AFFD0AF003F9CDE912
:10163000080128460AF0FEF8CDE9060120460AF026
:10164000F9F8CDE9040150460AF0F4F80D9A0C9B24
:10165000CDE90201CDE90089114663483A4600F020
:10166000A5FA5F4800F0A2FA06F58E764FF0010960
:101670004FF0000A07E009F10109B9F13F0F06F147
:10168000F40600F0A5803046FFF76CFB0028F2D08E
:101690003046FEF76FFF3046FEF770FF3046FEF72C
:1016A00071FF3046FEF772FF0821504808F02AFF0C
:1016B00049464F4809F00CFAB9F1090F40F38B8005
:1016C00002214C4808F01EFF3046FFF717FB0AF0D6
:1016D000B1F85FFA8BF802460B46CDF8008044481B
:1016E00009F0FEF90121444808F00CFF554600249A
:1016F00020E00621414808F005FF29463C4809F052
:10170000E7F902213E4808F0FDFE21463046FEF78B
:1017100041FF0AF08FF8CDF8008002460B463448AE
:1017200009F0DEF901340121334808F0EBFE0D2CFD
:1017300009D03D46092D05F10107DADC01213148C8
:1017400008F0E0FED5E72A4809F072F909212E4891
:1017500008F0D8FE00213046FFF7F6FA0AF06AF8E2
:10176000022402460B460094214809F0B9F90A21E7
:10177000264808F0C7FE01213046FFF7E5FA0AF0D7
:1017800059F8009402460B46194809F0A9F90A21B4
:101790001F4808F0B7FE21463046FFF7D5FA0AF099
:1017A00049F8009402460B46114809F099F90121C5
:1017B000184808F0A7FE09F101090D4809F038F9A9
:1017C000B9F13F0F0AF10D0A06F1F4067FF45BAFA1
:1017D0000FB0BDE8F08F01210A4808F093FE6FE7D3
:1017E0001C0F010000007A44100B0100B00B010037
:1017F000D887FF1FA81A0100BC0B0100C00B010015
:10180000A00D0100B00D0100C80B0100D40B0100B8
:10181000E00B0100EC0B01002DE9F04F85B000F565
:101820008E758A4603929B462E464FF0010806E0CD
:1018300008F10108B8F13F0F06F1F4067BD03046FD
:10184000FFF790FA0028F3D000230A2251467E4881
:1018500009F0FEF801217D4808F054FE039809F0D4
:10186000E9FF00230246009377480B4609F038F958
:101870000121764808F046FE5946734809F028F9D8
:101880000121724808F03EFE41466F4809F020F9F8
:1018900001216E4808F036FE00244FF0020921466F
:1018A0003046FEF777FE09F0C5FFCDF800900246FE
:1018B0000B46654809F014F901340121634808F02A
:1018C00021FE082C4FF00207E9D100213046FFF736
:1018D0003BFA09F0AFFF009702460B465A4809F061
:1018E000FFF80121594808F00DFE01213046FFF7AD
:1018F0002BFA09F09FFF009702460B46524809F069
:10190000EFF80121514808F0FDFD39463046FFF758
:101910001BFA09F08FFF009702460B464A4809F070
:10192000DFF808F10108484809F082F8B8F13F0FE4
:1019300006F1F40683D14FF001084FF0000906E0EC
:1019400008F10108B8F13F0F05F1F40579D02846F8
:10195000FFF708FA0028F3D000230A2251463C483A
:1019600009F076F80121394807F01AFC039809F0CC
:1019700061FFCDF8009002460B46354809F0B0F8FB
:101980000121324807F00CFC5946314809F0A0F813
:1019900001212E4807F004FC41462D4809F098F833
:1019A00001212A4807F0FCFB002402272146284693
:1019B000FEF7F0FD09F03EFF009702460B46244873
:1019C00009F08EF801340121204807F0E9FB0D2CC5
:1019D0004FF00206EAD100212846FFF7B5F909F0D9
:1019E00029FF009602460B46194809F079F80121B3
:1019F000164807F0D5FB01212846FFF7A5F909F0A5
:101A000019FF009602460B46114809F069F80121BA
:101A10000E4807F0C5FB31462846FFF795F909F057
:101A200009FF009602460B46094809F059F808F1EB
:101A30000108074808F0FCFFB8F13F0F05F1F40575
:101A400085D105B0BDE8F08FD887FF1F8C07010056
:101A5000C887FF1F014B1870704700BF2087FF1F0A
:101A60000278002A00F0908070B5034682B00D46DF
:101A7000252A2AD158785C1C08B325282FD0732832
:101A800031D0642824D0692822D066284FD07A2803
:101A900059D0782835D058282FD062283ED04228F7
:101AA00038D06C2814D0632812D0742857D054280A
:101AB0005FD008F0ABFD6278631C002AD8D13448AF
:101AC00002B0BDE8704008F0B3BF18781C46F0E7DC
:101AD0002B1D29682E481D4608F0FAFFEBE710463B
:101AE00008F094FDE7E72E6830460BF049FB01460D
:101AF0003046043508F006FDDDE70221254808F0F0
:101B000001FD2E1D2968224800231022354608F0C9
:101B10009FFFD0E70221204808F0F4FC2E1D296821
:101B20001B4800230222354608F092FFC3E7073521
:101B300025F007050321D5E9002315480091083554
:101B400008F0CEFFB7E7073525F007050021D5E9F6
:101B500000230F480091083508F0C2FFABE7296861
:101B600001290EBF0D480E480121043508F0CAFCBA
:101B7000A1E72B68012B07BF04210A480A48052169
:101B8000043508F0BFFC96E7014808F051BF00BFDC
:101B9000D887FF1FF00B0100F40B0100F80B0100C8
:101BA000FC0B0100000C0100080C01000FB400B593
:101BB00083B004A951F8040B0191FFF751FF03B062
:101BC0005DF804EB04B0704770B51B4B1B4C1B68F1
:101BD00082B00D460193019B236019460446002301
:101BE000164617480A2208F033FF0321154808F06B
:101BF00089FC032C07D8DFE804F01A151002052130
:101C0000114808F07FFC0221104808F07BFC3146A7
:101C10002846FFF725FF02B070BD07210C4808F0E9
:101C200071FCF0E704210B4808F06CFCEBE70521A0
:101C3000094808F067FCE6E70CD3FF1F5492FF1F2A
:101C4000D887FF1F100C01002C0C0100A00D010013
:101C5000240C01001C0C0100140C01000FB400B591
:101C6000094B187883B020B103B05DF804EB04B0E1
:101C7000704705AB1A4604990193FFF7A5FF03B01F
:101C80005DF804EB04B070472087FF1F0FB4094BC9
:101C900000B51B78012B83B004D903B05DF804EBC9
:101CA00004B0704705AB1A46049901930120FFF771
:101CB0008BFFF2E72087FF1F0FB40B4B00B51B789B
:101CC000032B83B004D903B05DF804EB04B0704774
:101CD00005AB1A46049901930320FFF775FF03B083
:101CE0005DF804EB04B070472087FF1F30B4074D48
:101CF000074C084900232B70236003654365836507
:101D000080F85C300B6030BC704700BF6092FF1FF2
:101D10005C92FF1F5892FF1F0A4A0B49D06D936DCA
:101D200003FB00F34FF47A7000FB03F0642310B55B
:101D30000B600AF0D5F90549054C0AF0D9FA206084
:101D400010BD00BF4893FF1F3487FF1FE4388E3E4D
:101D50009892FF1F38B5044608460D460BF010FA5E
:101D60002368024629465B68204698470546204678
:101D700008F05EFE284438BD2DE9F8434748484D39
:101D8000484F494CFFF712FF484BDFF84CE14849F8
:101D9000484A49485D601226484D1E70DF600026A3
:101DA000474F1C61C3F818E0464C59614FF00C0EC8
:101DB00045495A629862454A4548DD621E63454D71
:101DC0005F6340F61C460A279C63C3F854E041F267
:101DD0000404DFF808E19964DA6402210122186240
:101DE000C3F8C45000204FF07C55DE661F676426A0
:101DF0004FF496775C67C3F81CE03224C3F83CE0EC
:101E00004FF05A0E597059721A729A6583F8400051
:101E10009F661F665C665D64DE654FF47A78C3F882
:101E200078E0DFF8BCC0D867C3F88010C3F884003E
:101E3000C3F89C40C3F8AC40DFF8A8E0C3F8A800A2
:101E400044F62069C3F8B420C3F8B810FF2741F264
:101E50008831052483F8C8204FF4FA7083F8C9202C
:101E600040F2D662C3F8BC601D65C3F8A080C3F819
:101E700090C0C3F894E0C3F88C90C3F8B070A3F896
:101E8000C240A3F8CA00C3F89810A3F8C010A3F882
:101E90008820A3F88A20BDE8F88300BF340C010035
:101EA00020A1070066668640000040404893FF1F5F
:101EB00033338340CDCCCC3D00008242000020C1B2
:101EC000000020420000A0409A9979400AD7233DA3
:101ED000333373409A99993ECDCC4C40CDCC4C3E97
:101EE0000000684200C02044F0B54FF47A6087B02B
:101EF00006F076FE00210F2006F04AFE00210E209B
:101F000006F046FE0021112006F042FE00211020BE
:101F100006F03EFE0021122006F03AFE00211320BA
:101F200006F036FE01210B2006F032FE00210B20C8
:101F300006F01AFE01210C2006F02AFE00210C20DA
:101F400006F012FE0121142006F022FE00211420CA
:101F500006F00AFE0121152006F01AFE00211520C8
:101F600006F002FE0121162006F012FE00211620C6
:101F700006F0FAFD0121172006F00AFE00211720C5
:101F800006F0F2FD0121052006F002FE00210520E9
:101F900006F0EAFD0121062006F0FAFD934C944D6F
:101FA0000021062006F0E0FD01210D2006F0F0FDE5
:101FB00020880AF091F80146162006F053FD20888B
:101FC0000AF08AF80146172006F04CFD20880AF036
:101FD00083F80146052006F045FD20880AF07CF8CC
:101FE00000240146062006F03DFD00942346814A68
:101FF0008149824805F0A4FA2B797D497F486FF327
:102000000003E2B201342B7105F060FA082CF3D121
:1020100009242B797649794843F00103E2B201346F
:102020002B7105F053FA0D2CF3D1754D2B6810214F
:10203000D3F8840005F056FF2B681021D3F88400F4
:1020400005F0E4FF2B680221D3F8840005F0A0FE20
:102050002B680221D3F8840006F028F82B680F21A2
:10206000D3F8840006F010F90C21664808F04AFA0B
:10207000654808F0DDFC2146644808F043FA6248F0
:1020800008F0D6FC40F2836006F068FE5E4808F077
:10209000CFFC17215E4808F035FA5B4808F0C8FC11
:1020A0005C4B1B789A0600F1D9805A4B1B781B07B2
:1020B00000F1E080574B1B785F0700F1E780554B3C
:1020C0001B789E0700F1EE80534B1B781D0600F134
:1020D000F580514B1B785C0600F1FC804E4B1B7861
:1020E000980600F103814C4B1B78590700F10A81D7
:1020F000494B1B781A0700F11181474B1B789B074E
:1021000000F11881404808F093FC72B6434A4CF243
:1021100020534DF628112024138023461180013BC3
:10212000FDD13F4D3F48404900234FF480562E805B
:1021300003800B8032F80E3C9BB243F0D30322F8AD
:102140000E3C62B640F2413007F0B4F92146374800
:10215000374D08F0D7F92C4808F06AFC05F1D00695
:102160002F462C46601B06F019FA04F8010BB44206
:10217000F8D13B78122B04D0234808F059FCFFF724
:10218000FBFD0420FFF766FC2A4B2B4D00220121AA
:102190000D201A6006F0E8FCB96D2848FFF760F9D9
:1021A0003B6D7A6C97F840102448FFF75BF92448A0
:1021B000244B02680592059F046804941B68224919
:1021C000224A049E224C006803901268276081FB1B
:1021D0000301DB171F48039C2E60A3EB21131E494C
:1021E000046013FB02F30B8007B0F0BD2887FF1FCC
:1021F0002C94FF1F00D3FF1F20A1070064D1FF1FF5
:10220000E894FF1F540C0100D887FF1F640C0100E5
:10221000740C010001F0074000F007400E2005405B
:10222000042005400620054016200540780D0100D9
:102230004893FF1F7492FF1F3494FF1F2095FF1FC8
:102240000CD3FF1F6487FF1F1F85EB516087FF1FA3
:102250001C95FF1FF894FF1FF494FF1F212139489C
:1022600008F050F9384808F0E3FB384B1B781B079F
:102270007FF520AF0C21364808F044F9324808F0C9
:10228000D7FB324B1B785F077FF519AF0E21314822
:1022900008F038F92C4808F0CBFB2C4B1B789E0734
:1022A0007FF512AF17212C4808F02CF9264808F0CA
:1022B000BFFB2A4B1B781D067FF50BAF0E2128486C
:1022C00008F020F9204808F0B3FB244B1B785C068B
:1022D0007FF504AF1221234808F014F91A4808F0DA
:1022E000A7FB1E4B1B7898067FF5FDAE13211E48F9
:1022F00008F008F9144808F09BFB184B1B785907A5
:102300007FF5F6AE1C21194808F0FCF80E4808F0DD
:102310008FFB124B1B781A077FF5EFAE192114487B
:1023200008F0F0F8084808F083FB0C4B1B789B077B
:102330007FF5E8AE18210F4808F0E4F8024808F0ED
:1023400077FBDFE68C0C0100D887FF1F01F0074008
:10235000B00C0100C00C0100D00C010000F00740DF
:10236000E80C0100F80C01000C0D0100200D01002B
:10237000400D01005C0D010070B5464C464D4748CC
:10238000E66800232B70FFF741F8014630460AF05B
:1023900099F808B104232B704048FFF711F8216920
:1023A0000AF090F818B12B7843F010032B703B48DB
:1023B000FFF7E0F8A16A0AF0A3F818B12B7843F010
:1023C00040032B70002335486B70FFF7D5F8E16AA6
:1023D000314E0AF077F808B10123737000232F48BB
:1023E000EB70FFF713F805462C482B4EFEF7E8FF7D
:1023F0000146284609F0BEFDE16B0AF081F808B1FC
:102400000123F370264D254800232B70FEF7FEFFB5
:10241000616A0646E06809F0ADFD014630460AF003
:102420006FF808B104232B701C48FEF7C9FF616ADE
:102430000646206909F0A0FD014630460AF042F840
:1024400018B12B7843F010032B701448FFF792F863
:10245000A16B0646A06A09F08DFD014630460AF0E0
:102460004FF818B12B7843F040032B7000230B4832
:102470006B70FFF781F8A16B0546E06A084C09F024
:102480007BFD014628460AF01DF808B10123637060
:1024900070BD00BF4893FF1F4493FF1F2095FF1F8F
:1024A000DC94FF1F2DE9F0417C4C2368012B82B0A6
:1024B00031D0022B00F0A880032B00F0C8803BBB7A
:1024C000774B784AD3F8AC10D3F8B03012685B1A67
:1024D000632B0EDD744803FB02F380FB0302DB1762
:1024E000C3EB62131944062002B0BDE8F04106F0C8
:1024F000BBB96E4803FB022380FB0302DB17C3EB6F
:1025000022121144062002B0BDE8F04106F0ACB939
:1025100002B0BDE8F081664E33680A33B3F57A7FC6
:1025200000F3B7801846336009F0DAFD614909F01D
:102530002BFE80465A4DD5F8AC0009F0D1FD074678
:10254000D5F8B00009F0CCFD394609F013FD41463D
:1025500009F01AFE584909F0CBFE394609F00CFD86
:1025600009F0D8FF0146062006F07EF90221534803
:1025700007F0C8FF524808F05BFA0621514807F0FF
:10258000C1FF306809F0ACFD4A4909F0FDFD09F0D2
:1025900051F9022702460B460097494808F0A0FA75
:1025A0000D21494807F0AEFFD5F8AC0009F098FDC1
:1025B0008046306809F094FD3E4909F0E5FD064685
:1025C000D5F8B00009F08CFD414609F0D3FC014676
:1025D000304609F0D9FD384909F08AFE414609F034
:1025E000CBFC09F027F900970B460246344808F067
:1025F00077FA3946314807F085FF314808F018FA74
:102600002368022B7FF458AF294B254E00221A6015
:10261000D6F8AC0009F064FD0546D6F8B00009F024
:102620005FFD294609F0A6FC002109F0ADFD224915
:1026300009F05EFE294609F09FFC09F06BFF014698
:10264000062006F011F92368032B7FF438AF184BEE
:10265000134E4FF47A721A60D6F8AC0009F040FDC0
:102660000546D6F8B00009F03BFD294609F082FC8A
:10267000114909F089FD104909F03AFE294609F08F
:102680007BFC09F047FF0146062006F0EDF82368C1
:1026900015E700234FF0000833604BE7BC94FF1FA1
:1026A0004893FF1F3487FF1F1F85EB51CBF08D2808
:1026B0007892FF1FCDCCCC3D0000C842A81A010083
:1026C000D887FF1F9C0D0100A40D010070B5B5480F
:1026D000B54C08F0ADF9B34808F0AAF9B14808F0D4
:1026E000A7F90D21B14807F00DFFD4F8A830012B50
:1026F00011D0AF4CAB48217800230A2208F0A8F98A
:102700002378052B67D8DFE813F006010B011001D1
:1027100015011A0101010921A64807F0F3FEA64898
:10272000FEF74EFE216909F0CDFE18B10F21A34836
:1027300007F0E8FEA048FEF769FEE16809F0E0FE58
:1027400018B10E219E4807F0DDFE9B48FEF75EFEA5
:1027500005469948FEF734FE0146284609F00AFC72
:10276000E16B09F0CDFE18B11121964807F0CAFEC1
:102770009148FEF79BFEA16A09F0C2FE18B10C2138
:10278000914807F0BFFE8C48FEF790FEE16A09F021
:1027900099FE18B10D218D4807F0B4FE8C4B864888
:1027A0001B68012B00F0E880FEF70AFE21697E4DD0
:1027B00009F0A6FE78B18048FEF728FEE96809F026
:1027C00081FE40B17A4B1B78052B00F0E680082192
:1027D000804807F097FE02217F4807F093FE122001
:1027E00006F0C8F9012800F0AF80112006F0C2F908
:1027F000012800F0B380794B1B68012B00F0B780F3
:1028000002217548764C07F07DFE764B65481968C5
:1028100008F05EF9634808F00BF90421724807F0EC
:1028200071FE0B2006F0A6F9002301460A225D483E
:1028300008F00EF90C2006F09DF9002301460A224B
:10284000584808F005F9142006F094F900230146D1
:102850000A22544808F0FCF8152006F08BF90A22E9
:10286000002301464F4808F0F3F806215F4807F0BF
:1028700049FE2368DD074FF001014CBF5C485D480D
:1028800007F040FE236898074FF001014CBF5848FD
:10289000584807F037FE23685A074FF001014CBF34
:1028A0005348544807F02EFE23681B074CBF50487E
:1028B0005048012107F026FE04214F4807F022FE70
:1028C000112006F057F9002301460A22354808F086
:1028D000BFF8102006F04EF9002301460A223148C5
:1028E00008F0B6F8122006F045F9002301460A2246
:1028F0002C4808F0ADF8132006F03CF900230146FF
:102900000A222848BDE8704008F0A2B807213B48D9
:1029100007F0F8FD5FE70621394807F0F3FD5AE7B5
:102920000721384807F0EEFD55E70721364807F044
:10293000E9FD50E70821354807F0E4FD4BE70B219E
:10294000334807F0DFFD46E70E21324807F0DAFD95
:10295000112006F00FF901287FF44DAF0A212E480F
:1029600007F0D0FD1D4B1B68012B7FF449AF1121EF
:102970002A4807F0C7FD43E7FEF722FD216A09F068
:10298000BFFD00283FF423AF1621254807F0BAFD0C
:102990000A21244807F0B6FD1DE70A21214807F067
:1029A000B1FD18E7D887FF1F4893FF1FB40D010042
:1029B000D894FF1FC40D01002095FF1FD00D01000A
:1029C000E00D0100F00D0100040E0100140E0100E5
:1029D0008492FF1F480E0100A81A0100F094FF1F07
:1029E0001894FF1FC094FF1FBC0E0100C40E01000D
:1029F000CC0E0100941C0100D00E0100840E0100D9
:102A0000540E01005C0E0100700E0100780E0100F2
:102A1000640E01008C0E01009C0E0100A80E010046
:102A2000240E01003C0E01002DE9F04FAB4CD4F810
:102A30008060012E8DB000F07981032E00F0CC80F3
:102A4000DFF8DC82A64FA74EE36FA748012B09BF32
:102A50003168316801F10041316005F091FC3B685B
:102A6000002B40F09F80A048DFF8B49205F05EFC98
:102A70003B68C8F800000546002B44D1D4F88030EC
:102A8000964A012B53D09949284609F039FDC0B91F
:102A90009749284609F016FD98B9964A964B126850
:102AA0000B920B9A1A60D4F8B40009F019FB29466E
:102AB00009F06AFB0023C8F8000033600DB0BDE8E0
:102AC000F08FDFF830A28C4FDAF800300A930A98C2
:102AD0003B68DFF85092C01A09F0FEFA294609F067
:102AE00053FB864909F004FC844909F001FCD9F83C
:102AF000001009F041FADAF800300993099BC9F88F
:102B000000003B60CFE708F095FE022502460B4629
:102B100000957B4807F0E4FF04217A4807F0F2FCB7
:102B2000D4F88030D9F800506C4A012BABD1764BE9
:102B30001B68012B00F0DA81022BB4D1D2F88C7023
:102B4000384609F0CDFA294609F0BCFC40B9784274
:102B500009F0C6FA294609F0D3FC002800F0F981F3
:102B6000DFF890A1644FDAF80030079307983B68CC
:102B7000DFF8B091C01A09F0AFFA294609F004FB5A
:102B80005E4909F0B5FB5D4909F0B2FBD9F80010C8
:102B900009F0F2F9DAF800300693069BC9F8000054
:102BA0003B6080E7504805F0C1FB08F043FE02257A
:102BB00002460B460095524807F092FF0321534806
:102BC00007F0A0FCD4F88C104D4807F081FF0321DA
:102BD0004E4807F097FC46E74D4D4B4F2B68DFF80A
:102BE0004081D3F884000F2101233B6005F04CFBAA
:102BF0003B683B4F012B3B6800F0BF80002B40F04F
:102C00003D812B68DFF82091D3F88400436B19696C
:102C10008EB2C9F8006005F0B9F8B4F88A2040F621
:102C2000E44303FB06F1B1FBF0F0801A00B209F0B7
:102C300057FA38492B4E8246D4F8900009F0A4FA8E
:102C40000146504609F054FBD9F800303060632B40
:102C5000DFF8D4A000F30681002333603B68002B2B
:102C60003FF4F2AE02212C4807F04CFC2B68D9F857
:102C70000050D3F8840040F6E44303FB05F505F06B
:102C800085F8B5FBF0F009F027FA0546B4F88A009C
:102C900009F026FA0146284609F06CF908F0CAFD49
:102CA000022502460B460095154807F019FF2946F4
:102CB000194807F027FC306808F0BCFD0095024673
:102CC0000B460F4807F00CFF2946144807F01AFC82
:102CD0002946114807F016FCB6E600BF4893FF1FCF
:102CE0001495FF1F8092FF1F2093FF1F0000FA43DF
:102CF0000000FAC30CD3FF1F6492FF1F00007A4448
:102D0000D887FF1F180F01005487FF1F7C070100A1
:102D1000E894FF1FACC52737A81A0100140F010063
:102D20008C92FF1F9892FF1F4093FF1FDFF80883CC
:102D3000D4F88C70D8F80050384609F0D1F92946FB
:102D400009F0DEFB48B1784209F0CAF9014628468D
:102D500009F0D6FB002840F00381A54DA54F2A6855
:102D60000223D2F884003B600E2105F08DFA3B6807
:102D7000A14F012B3B687FF441AF002B40F0FA805C
:102D80002B68DFF8B892D3F88400436B19691FFAF7
:102D900081FBC9F800B004F0F9FFB4F88830974E11
:102DA00040F6E44A0AFB0BFBBBFBF0F0C01A00B292
:102DB00009F096F992498346D4F8940009F0E4F9B1
:102DC0000146584609F094FA2A68D9F80030306074
:102DD000D2F884000AFB03FA04F0D8FFB4F8883074
:102DE000BAFBF0F00FFA80FAC3EB0A03002BB4F839
:102DF000C220B8BF5B429342BCBF002333603B6834
:102E0000002B3FF421AE02217E4807F07BFB2B68AC
:102E1000D9F80050D3F8840040F6E44303FB05F5ED
:102E200004F0B4FFB4F88810B5FBF0F000B2411A1A
:102E3000754807F04DFE0221724807F063FB3068C9
:102E400008F0F8FC022502460B4600956E4807F094
:102E500047FE03216D4807F055FB2946694807F0F6
:102E600051FBF1E52B68D3F8840004F08FFFDAF80A
:102E7000003064389842FFF4EFAEEFE66248DFF8C6
:102E8000BC91DFF86CA107F0D3FD0C21604807F07E
:102E900039FB0C215F4807F035FB2A683B68D2F804
:102EA0008400426B11698EB2C9F80060002B3FF4B8
:102EB000B2AE04F06BFF40F6E44100230A2201FBAE
:102EC00006F1B1FBF0F1504807F0C2FD02214D4878
:102ED00007F018FBB4F88A104B4807F0F9FDDAF850
:102EE0000030D9F80060D3F8840094E64A492846B7
:102EF00009F006FB58B94949284609F0E3FA30B908
:102F0000474A484B12680592059A1A60CBE5DFF8EC
:102F100010A1444FDAF80030049304983B68DFF8BE
:102F20002091C01A09F0D8F8294609F02DF93E4938
:102F300009F0DEF93C4909F0DBF9D9F8001009F095
:102F40001BF8DAF800300393039BC9F800003B60DC
:102F5000A9E5334A334B12680892089A1A60A2E531
:102F6000234D244F28683E604FF0FF320F2104F0BC
:102F700087FE3DE62448DFF8C4901D4E07F058FD5B
:102F8000D4F88030012B4FF00B010CBF27482848A4
:102F900007F0B8FA0C211F4807F0B4FA2A683B681A
:102FA000D2F88400426B11691FFA81FBC9F800B0A6
:102FB000002B3FF4F0AE04F0E9FE40F6E4410023BC
:102FC0000A2201FB0BF1B1FBF0F10F4807F040FDC5
:102FD0000121184807F096FAB4F888100A4807F05B
:102FE00077FD3368D9F800B0D3F88400D3E600BF8A
:102FF000E894FF1F5487FF1F1495FF1F8092FF1F47
:10300000ACC52737A81A0100D887FF1F000F0100A1
:10301000040F0100F00E01000000FA430000FAC3A3
:103020000CD3FF1F6492FF1F00007A44D80E0100EA
:10303000E40E0100B00D01008C92FF1F4093FF1FB2
:103040009892FF1F2DE9F0478D4D2B6884B043B94E
:103050008C4B1B680393039A42F210739A4200F25E
:10306000B880894C894F8A4EDFF86882D4F8842072
:10307000854B012A04D0D3F88020002A40F09680A6
:103080008448FEF77BFA8449D4F86C90256F09F0E8
:103090007BF809F065FA626FA36FC9EB02025B1B54
:1030A00080B29A42C9EB0000D4F85C90C6BF03FB23
:1030B00000000132584390FBF2F02844A56D00FB5C
:1030C00009F005FB00F000EB8000400009F008F873
:1030D000724909F00DF98246306005FB09F54FF49D
:1030E0007A7000FB05F008F0FBFF6C49DFF89C915B
:1030F0000546504609F048F8294609F0F9F86849AC
:1031000009F042F809F006FA6328386048DD2846DD
:10311000624909F0EDF864233060C9F80030D8F84E
:103120000030002B39D0D4F88030574D012B43D0DC
:10313000032B00F09780022B00F08F80022159486A
:1031400007F0E0F9584B186808F074FB02240246B7
:103150000B460094554807F0C3FC2146544807F03D
:10316000D1F921464F4807F0CDF939684F4807F0AB
:10317000AFFC06214F4807F0C5F93068474909F010
:1031800003F808F057FB009402460B46474807F047
:10319000A7FC0321484807F0B5F904B0BDE8F08763
:1031A0000028BCBF0023C9F80030B8E7D6F800A05B
:1031B000D3F85C909D6D90E7404B1B68012B4FF05E
:1031C0000A010CBF3E483F4807F09CF9D5F8803013
:1031D000AEE730482C4CFEF7D1F92F49E76E266F49
:1031E00008F0D2FF09F0BCF9626FA36FD21B9B1BE2
:1031F00080B29A42A0EB07003BDD03FB0000531CAA
:1032000090FBF3F31E44E06DA36D204FDFF8C48004
:103210003E6000FB06F003FB00F000EB8000400086
:1032200008F05EFF1D491A4E09F062F8D8F8003028
:10323000306001222A60002B3FF418AF02211948A8
:1032400007F060F9194807F0F3FB59211E4807F011
:1032500059F9164807F0ECFB08E707211B4807F06F
:1032600051F96BE710211A4807F04CF9D4F8803077
:1032700061E703FB00F393FBF2F31E44C3E700BFD7
:103280007C92FF1F0CD3FF1F4893FF1F3487FF1F43
:103290009892FF1F2095FF1F00007A44E4388E3E6D
:1032A0000000C842A81A01008C92FF1FD887FF1F98
:1032B000140F0100B00F0100B80F01005487FF1F69
:1032C0007C0F0100880F0100200F0100A80F0100F2
:1032D000940F01003C87FF1F30B5112083B005F02B
:1032E00049FC012818D0122005F044FC012813D015
:1032F00000210B2005F038FC00210C2005F034FCE7
:103300000021152005F030FC2649274B0120002222
:1033100008701A6003B030BD0121152005F024FCAF
:10332000224A234C234B1268D4F8981001921B6850
:10333000019A1D4D0B4493424FF00201296005D9BB
:1033400001210C2005F010FC03B030BDD4F8A00022
:1033500008F0C6FE184B196809F0B4F80028EFD140
:1033600001210B2005F000FC94F8C83003242C60E8
:1033700043B10C4B02221A7000210C2005F0F4FB23
:1033800003B030BD122005F0F5FB012808BF054B46
:103390004FF0110008BF1C7005F0ECFB0128EBD1C9
:1033A000E7E700BFD894FF1F1095FF1F0CD3FF1F46
:1033B0004893FF1F1C95FF1F8C92FF1FF0B5684EAE
:1033C000684D34682B689C4287B039D014F00101F5
:1033D00055D014F0020149D014F004013DD0E307A8
:1033E0000ED52B68DF070BD45F4F3A68002A00F038
:1033F00082805E4B1B680193019B93426DD83468B9
:10340000A0070DD52B6899070AD4594F3A68002AAE
:103410004CD0564B1B680393039B934238D83468B7
:1034200062070DD52B685B070BD4524F3A68002A10
:103430007ED04E4B1B680593059B934268D8346839
:103440000CB107B0F0BD2146162005F00DFA21465B
:10345000172005F009FA07B0F0BD052005F004FAC1
:103460002B68346803F0FB032B60B8E7172005F0E6
:10347000FBF92B68346803F0FD032B60ACE71620E2
:1034800005F0F2F92B68346803F0FE032B60A0E727
:10349000394B1720D3F89C1005F0E6F92B683468F7
:1034A00043F0020300222B603A60B9E7334807F08B
:1034B000BFFA0C21324807F025F8304807F0B8FA77
:1034C000FF21172005F0D0F9284B2E4A19680291E8
:1034D000029912680A443A609CE7274B1620D3F8F9
:1034E0009C1005F0C1F92B68346843F001030022F9
:1034F0002B603A6084E7FF21162005F0B5F91B4BDD
:10350000204A19680091009912680A443A6071E7EC
:10351000194B0520D3F89C1005F0A6F92B683468E8
:1035200043F0040300222B603A60002C89D18AE723
:10353000124807F07DFA0C21134806F0E3FF0F480C
:1035400007F076FAFF21052005F08EF9074B0D4AAA
:1035500019680491049912680A443A606AE700BF46
:103560001095FF1F1894FF1F9C94FF1F0CD3FF1F83
:10357000A094FF1FA494FF1F4893FF1FD887FF1F2D
:10358000BC0F01007487FF1FCC0F01002DE9F0472D
:10359000534EDFF870813368DFF86C91D3F8840004
:1035A000504D0F2104F070FE0023012222214E48CD
:1035B000C8F80030C9F8002006F0A4FFD8F80030A1
:1035C000132B20DC40F6E4473368B5F888A0D3F825
:1035D0008400436B1C6904F0D9FBA4B2012107FBF2
:1035E00004F4B4FBF0F441485444A5F8884006F0D4
:1035F00089FF642005F0F4FAD8F800300133132B6A
:10360000C8F80030E0DDB5F88830394A3948A2FB07
:1036100003129B1A02EB5303C3F30F131946A5F8C9
:10362000883007F055FA1D21334806F06BFF022160
:10363000324806F067FF2F4807F0FAF93268002396
:10364000D2F88400C8F800300E2104F01DFE0223D9
:1036500022212548C9F8003006F054FFD8F8003080
:10366000132B20DC40F6E4473368B5F88A90D3F892
:103670008400436B1C6904F089FBA4B2012107FBA1
:1036800004F4B4FBF0F419484C44A5F88A4006F061
:1036900039FF642005F0A4FAD8F800300133132B69
:1036A000C8F80030E0DDB5F88A30114A1148A2FBB5
:1036B00003129B1A02EB5303C3F30F131946A5F829
:1036C0008A3007F005FA1D210D4806F01BFF022184
:1036D0000A4806F017FF0748BDE8F04707F0A8B909
:1036E000E894FF1F4893FF1FDC0F0100201001002A
:1036F00087611886D887FF1F00100100A81A0100F3
:1037000024100100C494FF1F5487FF1FF8B5BD4B60
:10371000BD4CBE4F1B68786D40F2513108222160CC
:10372000E271002B00F0698108F0DAFC396A054685
:1037300008F02AFDB64908F027FD08F011FF80B215
:1037400003126372B34AB44B12681B68B9692072E2
:10375000A37228461B121512E3722273657308F0D8
:1037600013FDAB4908F010FD08F0FAFE83B21A12FF
:10377000A549AA48A373E27304F0DAF8A84BA94A52
:103780001B681288A049A272DDB2257205EB85067E
:1037900003EB8305760045F3D71540F2553E121230
:1037A0001B1226736573082600259C48C4F800E0A8
:1037B000E2726372E671A573E57304F0B9F840F242
:1037C000563399482360E671FDF744FE974908F0A7
:1037D000DBFC08F0C5FE20729348FDF73BFE9349E1
:1037E00008F0D2FC08F0BCFE914A9049C0F30723D0
:1037F0001068637208F07CFD08F08CFE40FA06F257
:1038000003468948E272A372FDF750FE804908F032
:10381000BBFC08F07FFE20738348FDF747FE7C4920
:1038200008F0B2FC08F076FE7749A57340F3072351
:103830007A486373E57304F07BF8022005F0D0F951
:103840007C4A7D4B11785078217291786072D278E1
:103850009878A172597893F800E0E2726173DA788F
:10386000A07340F25A3368496C4884F80CE0E27364
:103870002360E67104F05CF8704B63491A7858785D
:10388000227260729A78D878A272E0721A79987966
:1038900093F805E02273A073DA79604884F80DE0AC
:1038A00040F25E33E2732360E67104F041F80220D7
:1038B00005F096F9624B54491A7858782272607272
:1038C0009A78D878A272E0721A79987993F805E01C
:1038D0002273A073DA79514884F80DE04FF45C73D9
:1038E000E2732360E67104F023F8022005F078F912
:1038F00040F273334C482360E671FDF761FD514996
:1039000008F042FC08F02CFE20724748FDF758FDF5
:103910004C4908F039FC08F023FEC0F30723424865
:103920006372FDF773FD474908F02EFC08F018FE9E
:10393000A0723D48FDF76AFD424908F025FC08F0F9
:103940000FFEC0F307233848E372FDF715FE3E492A
:1039500008F012FB08F004FE20733348FDF70CFE5C
:10396000394908F009FB08F0FBFDC0F307232E4896
:103970006373FDF7FFFD344908F0FEFA08F0F0FD2F
:10398000A0732948FDF7F6FD2F4908F0F5FA08F075
:10399000E7FD1D49C0F307232048E37303F0C8FF88
:1039A000022005F01DF9B96DFB6D022211FB03F336
:1039B000C3F3072740F2793110462160E271237288
:1039C000677205F00DF940F2723317482360E67113
:1039D000FDF742FD20721448FDF73EFD40FA06F364
:1039E000A5726372E57225736573A573E573064965
:1039F0000A48BDE8F84003F09BBF08F071FB796905
:103A0000054695E68492FF1F0095FF1F4893FF1F10
:103A100000002041E494FF1F6C92FF1F64D1FF1F40
:103A20003487FF1F3887FF1F2095FF1F0000C84203
:103A30008C92FF1F4493FF1FDC94FF1F2C87FF1FF6
:103A40005887FF1F00007A4433938843F0B5A84C91
:103A5000A84D83B006F0F0FC23682860042B00F02A
:103A60003883022B00F0B780082B47D0072B40F09B
:103A70006581332801F07F8500F3B683312801F09A
:103A80006485322843D106F013FD002840F35481A9
:103A900099489A4E07F05EF908F022FB984908F021
:103AA00073FB61230122F06322602B601846A0F1B2
:103AB00052031F2B01F22785DFE813F0110D250DAE
:103AC000250D250D250D250D250D250D250D250D66
:103AD000250D250D250D250D250DD6036F0E4F0542
:103AE000E805BA04250D250D250D4A04250D720E95
:103AF000250D250D250D250D250D130D322800F062
:103B00007E83712800F07683312800F08E83002BAD
:103B100008BF73280CBF01200020002859D0764828
:103B200006F086FF0421774806F0ECFC724806F0A8
:103B30007FFF1021744806F0E5FC6F4806F078FF1F
:103B40001321724806F0DEFC714B6B48196806F0D1
:103B5000BFFF694806F06CFF14216E4806F0D2FCE6
:103B6000654806F065FF1E216B4806F0CBFC6248F5
:103B700006F05EFF1521694806F0C4FC5E4806F0B9
:103B800057FF1E21664806F0BDFC5B4806F050FF5B
:103B90002021644806F0B6FC574806F049FF192179
:103BA000614806F0AFFC544806F042FF12215F481E
:103BB00006F0A8FC504806F03BFF0D215C4806F0DB
:103BC000A1FC4D4806F034FF5A4A00210123116040
:103BD000236003B0F0BDA0F13102422A97D801A1C1
:103BE00051F822F0EB4B0000034C00001F4C00008A
:103BF000394C0000574C0000854B00000F3B000083
:103C0000A74B00000F3B00000F3B00000F3B0000E4
:103C10000F3B00000F3B00000F3B00000F3B00007C
:103C20000F3B00000F3B00000F3B00000F3B00006C
:103C30000F3B00000F3B00000F3B00000F3B00005C
:103C40000F3B00000F3B00000F3B00000F3B00004C
:103C50000F3B00000F3B00000F3B00000F3B00003C
:103C60000F3B00000F3B00000F3B00000F3B00002C
:103C70000F3B00000F3B00000F3B00000F3B00001C
:103C80000F3B00000F3B00000F3B00000F3B00000C
:103C90000F3B00000F3B00000F3B00000F3B0000FC
:103CA0000F3B00000F3B00000F3B0000CB4B000020
:103CB0000F3B00000F3B00000F3B00000F3B0000DC
:103CC0000F3B00000F3B00000F3B00000F3B0000CC
:103CD0000F3B00000F3B00000F3B00000F3B0000BC
:103CE0000F3B0000F54100000F3B0000D74B0000E8
:103CF0009C92FF1F6892FF1FD887FF1F4893FF1FEA
:103D00006F12833A341901003C1901005019010067
:103D10002487FF1F641901007C1901009C19010010
:103D2000B4190100D4190100F8190100141A010096
:103D3000281A01003C87FF1F23682868062B40F0E3
:103D40008D80A0F13102402A3FF6E1AE01A151F889
:103D500022F000BF114A00003D4A0000874A0000DF
:103D6000AD4A0000D34A0000ED490000694A000056
:103D70000F3B00000F3B00000F3B00000F3B00001B
:103D80000F3B00000F3B00000F3B00000F3B00000B
:103D90000F3B00000F3B00000F3B00000F3B0000FB
:103DA0000F3B00000F3B00000F3B00000F3B0000EB
:103DB0000F3B00000F3B00000F3B00000F3B0000DB
:103DC0000F3B00000F3B00000F3B00000F3B0000CB
:103DD0000F3B00000F3B00000F3B00000F3B0000BB
:103DE0000F3B00000F3B00000F3B00000F3B0000AB
:103DF0000F3B00000F3B00000F3B00000F3B00009B
:103E00000F3B00000F3B00000F3B00000F3B00008A
:103E10000F3B00000F3B00000F3B00000F3B00007A
:103E20000F3B00000F3B00000F3B00000F3B00006A
:103E30000F3B00000F3B00000F3B00000F3B00005A
:103E40000F3B00000F3B00000F3B00000F3B00004A
:103E50000F3B0000F541000023682868052B40F067
:103E60008D80A0F13102402A3FF651AE01A151F8F8
:103E700022F000BFBF47000033490000F7480000B0
:103E800017490000B3480000DD4800000F3B000068
:103E90000F3B00000F3B00000F3B00000F3B0000FA
:103EA0000F3B00000F3B00000F3B00000F3B0000EA
:103EB0000F3B00000F3B00000F3B00000F3B0000DA
:103EC0000F3B00000F3B00000F3B00000F3B0000CA
:103ED0000F3B00000F3B00000F3B00000F3B0000BA
:103EE0000F3B00000F3B00000F3B00000F3B0000AA
:103EF0000F3B00000F3B00000F3B00000F3B00009A
:103F00000F3B00000F3B00000F3B00000F3B000089
:103F10000F3B00000F3B00000F3B00000F3B000079
:103F20000F3B00000F3B00000F3B00000F3B000069
:103F30000F3B00000F3B00000F3B00000F3B000059
:103F40000F3B00000F3B00000F3B00000F3B000049
:103F50000F3B00000F3B00000F3B00000F3B000039
:103F60000F3B00000F3B00000F3B00000F3B000029
:103F70000F3B00005349000023682868032B40F0E2
:103F8000A480A0F13002422A3FF6C1AD01A151F850
:103F900022F000BFA14000006D51000095510000CB
:103FA000BD510000DF510000015200002952000005
:103FB000515200001F530000435300000F3B00000C
:103FC0000F3B00000F3B00000F3B00000F3B0000C9
:103FD0000F3B00000F3B00000F3B00000F3B0000B9
:103FE0000F3B00000F3B00000F3B00000F3B0000A9
:103FF0000F3B00000F3B00000F3B00000F3B000099
:104000000F3B00000F3B00000F3B00000F3B000088
:104010000F3B00000F3B00000F3B00000F3B000078
:104020000F3B00000F3B00000F3B00000F3B000068
:104030000F3B00000F3B00000F3B00000F3B000058
:104040000F3B00000F3B00000F3B00000F3B000048
:104050000F3B00000F3B00006B530000BF4C000003
:104060006F5200008D520000AB520000C952000098
:10407000754C0000994C00000F3B0000B553000048
:10408000D75300000F3B00000F3B00000F3B000028
:104090000F3B00000F3B0000015400000D540000D6
:1040A00006F006FA002841F33782CF48CF4E06F0DB
:1040B00051FE0127034601466222CD48B3652760C1
:1040C0002A60FDF7CDF923682868012B7FF41FAD26
:1040D000EDE4A0F13102402A3FF619AD01A151F8FB
:1040E00022F000BF0D4B0000814B00005F4B000031
:1040F0007D4B0000254B0000414B0000574B00005A
:104100005B4B0000E74A00000F3B00000F3B000044
:104110000F3B00000F3B00000F3B00000F3B000077
:104120000F3B00000F3B00000F3B00000F3B000067
:104130000F3B00000F3B00000F3B00000F3B000057
:104140000F3B00000F3B00000F3B00000F3B000047
:104150000F3B00000F3B00000F3B00000F3B000037
:104160000F3B00000F3B00000F3B00000F3B000027
:104170000F3B00000F3B00000F3B00000F3B000017
:104180000F3B00000F3B00000F3B00000F3B000007
:104190000F3B00000F3B00000F3B00000F3B0000F7
:1041A0000F3B00000F3B00000F3B00000F3B0000E7
:1041B0000F3B00000F3B00000F3B00000F3B0000D7
:1041C0000F3B00000F3B00000F3B00000F3B0000C7
:1041D0000F3B00000F3B00000F3B00000F3B0000B7
:1041E0000F3B0000F5410000342801F09C8171284C
:1041F0007FF48DAC002373202360286087E406F0F1
:1042000057F9002840F3AD837748784E06F0A2FDB9
:1042100007F066FF774907F0B7FF07460246336DA0
:1042200096F840107248776415E006F041F90028CE
:1042300040F39B836C486D4E06F08CFDC0B286F84F
:104240004000022894BF01460021336D726C68481B
:1042500088BF86F84010FDF705F901236920236027
:10426000286024E406F0E8F806F022F90546002864
:10427000F8D15D485D4E06F0DBFB5B4806F0D8FBED
:10428000594806F0D5FB584806F0D2FB564806F0D0
:10429000CFFB1F21584806F035F9534806F0C8FBFC
:1042A0001C21564806F02EF9706A554907F06CFF3C
:1042B00007F0C0FA009502460B464B4806F010FC8A
:1042C0000221504806F01EF9474806F0B1FB2321B1
:1042D0004D4806F017F9F06B494907F055FF07F014
:1042E000A9FA009502460B463F4806F0F9FB022169
:1042F000444806F007F93C4806F09AFB1921434868
:1043000006F000F9B06B07F095FA02250B4602465D
:104310000095354806F0E4FB29463D4806F0F2F8E2
:10432000314806F085FB22213A4806F0EBF8B6F852
:10433000CA102D4806F0CCFB0321374806F0E2F8FE
:10434000294806F075FB0723236042E406F074F861
:1043500006F0AEF805460028F8D12348234E06F0B3
:1043600067FB214806F064FB1F4806F061FB1E480E
:1043700006F05EFB1C4806F05BFB1521274806F0A3
:10438000C1F8194806F054FB1821254806F0BAF880
:104390002B460A2296F84010134806F059FB1248A3
:1043A00006F046FB28211F4806F0ACF8706C144953
:1043B00007F0EAFE07F03EFA00950B4602460A486F
:1043C00006F08EFB02210F4806F09CF8064806F026
:1043D0002FFB1321144806F095F8034806F028FB3C
:1043E00008232360FFF7F5BBD887FF1F4893FF1F03
:1043F0002095FF1F6F12833A3812010058120100F6
:1044000000007A44BC100100781201009C120100E7
:10441000B8120100BC120100E0120100FC190100F9
:104420007410010090100100C010010006F004F8A3
:1044300006F03EF805460028F8D17F487F4E06F08A
:10444000F7FA7D4806F0F4FA7B4806F0F1FA7A486C
:1044500006F0EEFA784806F0EBFA1121784806F0FB
:1044600051F8754806F0E4FA2821764806F04AF833
:104470007069754907F088FE07F0DCF9009502467F
:104480000B466D4806F02CFB0221704806F03AF806
:10449000694806F0CDFA16216D4806F033F8F06948
:1044A000694907F071FE07F0C5F900950B46024611
:1044B000614806F015FB0221644806F023F85E48C7
:1044C00006F0B6FAD6F8B830002B32DD1D2161486F
:1044D00006F018F8306E07F003FE5F4907F054FE4F
:1044E00007F0A8F9022502460B460095524806F04F
:1044F000F7FA0121594806F005F84F4806F098FAF6
:104500001F21574805F0FEFF706E07F0E9FD524984
:1045100007F03AFE07F08EF9009502460B46464832
:1045200006F0DEFA01214D4805F0ECFF424806F0A6
:104530007FFA11214B4805F0E5FFD6F8B830062B7D
:1045400000F27887DFE813F0C107C607BC07B7079A
:10455000B207AD07720705F06FFF05F0A9FF00284D
:10456000F9D13548354E06F063FA334806F060FA63
:10457000314806F05DFA304806F05AFA2E4806F047
:1045800057FA1F21384805F0BDFF2B4806F050FAB6
:104590001E21364805F0B6FF274806F049FA1A21D1
:1045A000334805F0AFFFD6F88030022B01F0D08001
:1045B000032B01F08480012B01F0D38009212D48C9
:1045C00005F0A0FF1C4806F033FA14212A481B4FBF
:1045D00005F098FFF16F184806F07AFA164806F0D1
:1045E00027FA1C21254805F08DFFD6F884101248C3
:1045F00006F06EFA104806F01BFA1C21204805F060
:1046000081FFD6F8B4100C4806F062FA0A4806F0AA
:104610000FFAD6F8805025F00205012D00F0CB8767
:104620001321184805F06EFF034806F001FA022333
:104630002360FFF7CEBA00BFD887FF1F4893FF1F44
:10464000A0190100D410010000007A44BC10010040
:104650000011010018110100CDCCCC3D1416010051
:104660003811010058110100D4140100F4140100A4
:10467000141501008C15010098150100B0150100FA
:10468000D0150100C010010005F0D6FE05F010FFA6
:104690000028F9D1B74806F0CBF9B64806F0C8F9BA
:1046A000B44806F0C5F9B34806F0C2F9B14806F0BF
:1046B000BFF91321B04805F025FFAE4806F0B8F960
:1046C0000D21AE4805F01EFFAA4806F0B1F90F21F2
:1046D000AB4805F017FFAB4BA648196806F0F8F990
:1046E000A44806F0A5F91321A74805F00BFFA74B36
:1046F000A048196806F0ECF99E4806F099F91221D5
:10470000A34805F0FFFEA34B9A48196806F0E0F9AC
:10471000984806F08DF911219F4805F0F3FE9F4B54
:104720009448196806F0D4F9924806F081F90E21F0
:104730009B4805F0E7FE9B4B8E48D3F8A81006F087
:10474000C7F98C4806F074F91921974805F0DAFE8C
:10475000964B8848196806F0BBF9864806F068F958
:104760001121934805F0CEFE924B8248196806F05D
:10477000AFF9804806F05CF910218F4805F0C2FEC1
:104780008E4B7C48196806F0A3F97A4806F050F978
:104790001C218B4805F0B6FE8A4B7648196806F056
:1047A00097F9744806F044F91321874805F0AAFEEA
:1047B000704806F03DF904232360FFF70ABA05F0BC
:1047C00077FE00287FF7D8AB6A48764E06F0C2FA2B
:1047D00001226B23C6F8980022602B6001E005F0EF
:1047E0002BFE05F065FE0028F9D162486D4D06F0FC
:1047F0001FF9604806F01CF95E4806F019F95D489B
:1048000006F016F95B4806F013F921216F4805F010
:1048100079FE584806F00CF915216D4805F072FE36
:10482000D6F89810534806F053F90221694805F06C
:1048300069FE504806F0FCF81E21674805F062FE4C
:10484000D6F8A0104B4806F043F90321634805F061
:1048500059FE484806F0ECF81E21614805F052FE6A
:10486000D6F89C10434806F033F9424806F0E0F8C9
:104870001D215C4805F046FED6F8AC103D4806F018
:1048800027F93C4806F0D4F81E21574805F03AFEB7
:10489000D6F8B010374806F01BF9364806F0C8F8CD
:1048A000D6F8A830012B00F0658705232360FFF7B9
:1048B00090B905F0FDFD00287FF75EAB2D48394E1D
:1048C00006F048FA3B4BC6F8B00003221A60FDF729
:1048D000E9FD01226B2322602B6082E7314E96F8BE
:1048E000C930B3FA83F35B0901216B2286F8C93022
:1048F00021602A6075E705F0DBFD00287FF73CABFF
:104900001C48284E06F026FA01226B23C6F89C00AC
:1049100022602B6065E705F0CBFD00287FF72CAB0C
:104920001448204E06F016FA224BC6F8AC000222BC
:10493000CCE705F0BDFD00287FF71EAB0D48194EF2
:1049400006F008FA01226B23C6F8A00022602B6053
:1049500047E7184A00237320136023602860FFF79D
:10496000D6B823682868FFF781B80E4E96F8400045
:1049700067E400BFD887FF1FF01301000414010093
:10498000141401009894FF1F241401001495FF1FB4
:1049900038140100D494FF1F4C140100FC94FF1F35
:1049A000601401004893FF1F70140100C094FF1FA2
:1049B0008C140100BC94FF1FA01401008892FF1FFB
:1049C000B41401006887FF1FC0100100E412010049
:1049D00008130100EC11010020130100000F010079
:1049E00040130100601301008013010005F060FD19
:1049F00000287FF731AAB948B94E06F0ABF9652314
:104A00000122C6F8BC0022602B601846FFF74FB8A1
:104A100005F04EFD00287FF71FAAB048B04E06F003
:104A200099F907F05DFBAF4907F062FC65230122AD
:104A3000706122602B601846FFF739B805F038FD29
:104A400000287FF709AAA548A54E06F083F907F0CC
:104A500047FBA44907F04CFC65230122F06122606A
:104A60002B601846FFF723B89D4B93F8C820002A07
:104A700000F09485002283F8C8200123652023607C
:104A80002860FFF714B805F013FD00287FF7E4A9AC
:104A90009248934E06F05EF900EB8000430001223D
:104AA0006520336622602860FFF701B805F000FD3D
:104AB00000287FF7D1A98948894E06F04BF900EB11
:104AC0008000430001226520736622602860FEF7A3
:104AD000EEBF834AD2F8B8300133062BC8BF00239B
:104AE000C2F8B830C9E70123236005F0E1FC0028D3
:104AF00000F359857C4B1A68042AC4BF02221A604D
:104B000064232B6023686420FEF7AEBF774A1368E6
:104B1000B3FA83F35B0901216420136021602860EC
:104B2000FEF7C5BF6E4ED6F8A830B3FA83F35B0923
:104B300001226420C6F8A83022602860FEF7B7BFC3
:104B400001236B482360FCF79BF96A4A23681060D5
:104B500064222A60D7E7684AD9E7684AD7E7684AF3
:104B6000684F1368002B0CBF012300234FF0010096
:104B70001360206040F08D850346E9E7624AC6E78E
:104B8000624AC4E70123236005F092FC002805DD9A
:104B90005248534E06F0DEF8A6F8C20063202860A3
:104BA0002368FEF763BF0123236005F081FC002822
:104BB00005DD4A484A4E06F0CDF8C6F88C000123C0
:104BC000632023602860FEF772BFFEF7DFFC2368D6
:104BD0002868FEF749BF424AD2F880300133032BE0
:104BE000C8BF0023C2F88030E9E73D4EF36FB3FA47
:104BF00083F35B0901226320F36722602860FEF7DC
:104C000056BF374ED6F88430B3FA83F35B090122DE
:104C10006320C6F8843022602860FEF748BF012375
:104C2000236005F045FC0028C9DD2C482C4E06F019
:104C300091F8C6F8B400C2E70123236005F038FC00
:104C40000028ABDD2548264E06F084F807F048FA28
:104C5000C6F89400A2E70123236005F029FC002890
:104C60009CDD1E481E4E06F075F807F039FAC6F8AE
:104C7000900093E705F01CFC00280DDD1748184E46
:104C800006F068F807F02CFA164907F031FB01220C
:104C90006223306222602B6005F00AFC00280EDDE2
:104CA0000E480F4E06F056F807F01AFA0D4907F0B5
:104CB0001FFB01226223C6F8C40022602B6005F0AE
:104CC000F7FB002840F328840448054E06F042F81C
:104CD00001226223F06622602B601BE0D887FF1F51
:104CE0004893FF1F00007A446887FF1F9894FF1FB6
:104CF0002095FF1FC094FF1FBC94FF1F8892FF1FC9
:104D0000D494FF1F9C92FF1FFC94FF1F1495FF1F5C
:104D100005F092FB05F0CCFB05460028F8D1C2480F
:104D200005F086FEC04805F083FEBF4805F080FE12
:104D3000BD4805F07DFEBC4805F07AFE1521BB4854
:104D400005F0E0FBB84805F073FE1421B84805F003
:104D5000D9FBB54805F06CFE1B21B64805F0D2FB27
:104D6000B14805F065FE1321B34805F0CBFBAE4812
:104D700005F05EFEAC4805F05BFEAB4805F058FE62
:104D80002021AE4805F0BEFBF068AD4907F0FCF904
:104D900006F050FD009502460B46A34805F0A0FE24
:104DA0000221A84805F0AEFB0221A74805F0AAFBA6
:104DB0009D4805F03DFE2121A44805F0A3FB306984
:104DC0009F4907F0E1F906F035FD009502460B46D4
:104DD000954805F085FE02219A4805F093FB0221D3
:104DE000994805F08FFB904805F022FE1F21984856
:104DF00005F088FBB06A06F01DFD022702460B464F
:104E00000097894805F06CFE0121924805F07AFB75
:104E100039468D4805F076FB834805F009FE2021D0
:104E20008D4805F06FFBF06A06F004FD009702461E
:104E30000B467D4805F054FE0121864805F062FBD3
:104E40003946814805F05EFB774805F0F1FD2321E6
:104E5000824805F057FBB06C794907F095F906F0E8
:104E6000E9FC009502460B466F4805F039FE3946CD
:104E7000744805F047FB3946734805F043FB6A4820
:104E800005F0D6FD1F21764805F03CFBF06C6C491F
:104E900007F07AF906F0CEFC009502460B46624810
:104EA00005F01EFE3946674805F02CFB394666487A
:104EB00005F028FB5C4805F0BBFD1921694805F0A9
:104EC00021FBF16D584805F003FE3946664805F0B0
:104ED00019FB39465C4805F015FB534805F0A8FD61
:104EE0001821624805F00EFBB06E07F0F9F8604932
:104EF00007F04AF906F09EFC009702460B464A4826
:104F000005F0EEFD01215B4805F0FCFA39464E48FC
:104F100005F0F8FA444805F08BFD2B21564805F0C2
:104F2000F1FAB069464907F02FF906F083FC0095C5
:104F300002460B463C4805F0D3FD3946414805F092
:104F4000E1FA3946404805F0DDFA374805F070FDD2
:104F50001F214A4805F0D6FAB16D334805F0B8FD77
:104F60003946394805F0CEFA2F4805F061FD202179
:104F7000434805F0C7FA716D2B4805F0A9FD394685
:104F8000314805F0BFFA284805F052FD10213D4890
:104F900005F0B8FAF16E244805F09AFD3946294823
:104FA00005F0B0FA3946284805F0ACFA1E4805F07D
:104FB0003FFD1321344805F0A5FA316F1A4805F07A
:104FC00087FD0121314805F09DFA39461E4805F05C
:104FD00099FA154805F02CFD10212D4805F092FA9C
:104FE000716F114805F074FD3946164805F08AFACC
:104FF0003946154805F086FA0B4805F019FD1421CD
:10500000244805F07FFAB16F074805F061FD0121E2
:105010001E4805F077FA39460B4805F073FA024846
:1050200005F006FD162137E0D887FF1F8016010026
:1050300098160100B0160100C0100100CC16010046
:1050400000007A44BC100100A81A0100F01601000B
:1050500014170100EC0B0100341701005817010070
:105060007C1701009C170100B8170100BC17010054
:10507000CDCCCC3D14160100D81701000418010056
:1050800024180100481801005C1801007018010084
:105090007418010088180100BB4805F033FA306A23
:1050A000BA4907F071F806F0C5FB009502460B46B9
:1050B000B74805F015FD3946B64805F023FA3946DC
:1050C000B54805F01FFAB24805F0B2FC2421B348F8
:1050D00005F018FAD6F8C400AC4907F055F806F008
:1050E000A9FB009502460B46A94805F0F9FC394694
:1050F000A84805F007FA3946A74805F003FAA4487E
:1051000005F096FC2B21A64805F0FCF9706B06F023
:1051100091FB009702460B469D4805F0E1FC0121FA
:10512000A04805F0EFF939469B4805F0EBF998489F
:1051300005F07EFC27219C4805F0E4F9D6F8CC0068
:10514000924907F021F806F075FB00950B460246E0
:105150008F4805F0C5FC39468E4805F0D3F98C48D8
:1051600005F066FC03232360FEF733BD05F0A0F9CC
:10517000002840F3D18186488C4E05F0EBFD06F007
:10518000AFFF824907F0B4F801226223F060226089
:105190002B60BFE505F08CF9002840F3BD817C4809
:1051A000824E05F0D7FD06F09BFF784907F0A0F886
:1051B00001226223306122602B60ABE505F078F9B3
:1051C000002840F3A9817248784E05F0C3FD06F02F
:1051D00087FF01226223B06222602B609AE505F00E
:1051E00067F9002840F398816948704E05F0B2FDD8
:1051F00006F076FF01226223F06222602B6089E5CF
:1052000005F056F9002840F387816148674E05F0A4
:10521000A1FD06F065FF5D4907F06AF801226223EF
:10522000B06422602B6075E505F042F9002840F378
:10523000738157485D4E05F08DFD06F051FF5349CF
:1052400007F056F801226223F06422602B6061E5CA
:1052500005F02EF9002840F35F814D48534E05F0CC
:1052600079FD01226223F06522602B6052E505F092
:105270001FF9002840F3508145484C4E05F06AFD67
:1052800001226223306722602B6043E505F010F9AC
:10529000002840F341813E48444E05F05BFD012269
:1052A0006223706722602B6034E505F001F9002865
:1052B00040F3328136483D4E05F04CFD0122622319
:1052C000B06722602B6025E5FCF756FD02213248CD
:1052D000364E05F017F92E4805F0AAFB02212E489C
:1052E00005F010F92A4805F0A3FB02212A4805F031
:1052F00009F9274805F09CFB17212D4805F002F914
:10530000234805F095FB0221234805F0FBF82048CF
:1053100005F08EFB0122622322602B60FAE405F087
:10532000C7F8002840F3F8801948204E05F012FD18
:1053300000EB8000430001216222B36621602A60F5
:10534000E8E405F0B5F8002840F3E6801048174E71
:1053500005F000FD06F0C4FE0C4906F0C9FF01226D
:105360006223B06122602B60D4E405F0A1F800282C
:1053700040F3D28006480D4E05F0ECFC012262237A
:10538000706522602B60C5E4A018010000007A441B
:10539000D887FF1FBC100100A81A0100B81801002F
:1053A000E0180100EC0B01000C1901004893FF1FED
:1053B0005010010005F07CF8002840F3AD80C4488F
:1053C000C44E05F0C7FC06F08BFE01226223706319
:1053D00022602B609EE405F06BF8002840F39C806F
:1053E000BB48BC4E05F0B6FC06F07AFEBA4906F0A2
:1053F0007FFF01226223C6F8CC0022602B6089E483
:105400000022732322602B60FEF789BBB34BB448A4
:10541000B04E002202211A6005F074F8AC4805F085
:1054200007FB0B21AF4805F06DF86CE70421AE488F
:1054300005F068F8A648A74D05F0FAFAD6F8B83096
:10544000002B12DD1821A94805F05CF8D5F8BC1036
:105450009F4805F03DFB0221A54805F053F89C4804
:1054600005F0E6FA9A4805F0E3FA1B21A14805F099
:1054700049F896F8C830012B15BF122114219E4817
:105480009E4805F03FF8924805F0D2FA13219C4857
:1054900005F038F88E4805F0CBFA06232360FEF7B6
:1054A00098BB0B21974805F02DF8C3E70D219648CE
:1054B00005F028F8BEE70D21944805F023F8B9E778
:1054C0000C21934805F01EF8B4E70D21914805F032
:1054D00019F8AFE70C21904805F014F8AAE704F09A
:1054E0008FF9D02200217B4803F072F828688B4A9C
:1054F000A0F1730001210023B0FA80F0400911608F
:105500002360FEF70ABB2368002B08BF73280CBF7B
:1055100001200020FEF701BB23682868012B7EF4E0
:10552000F6AAFEF7C4BA04F0C3FF00287EF704AC65
:105530006748684E05F00EFC61230122A6F8CA00F8
:1055400022602B601846FEF7B2BA04F0B1FF0028C3
:105550007EF7F2AB5E485F4E05F0FCFB06F0C0FD47
:105560006F4906F011FE61230122706222602B60F8
:105570001846FEF79CBA04F09BFF00287EF7DCABD0
:105580005348544E05F0E6FB06F0AAFD61230122C4
:10559000B06322602B601846FEF789BA012283F8B7
:1055A000C820FFF76ABA4A4805F0D4FB5D4B0246B3
:1055B0001860FFF7A1BA1C215B4804F0A3FFD7F8DD
:1055C00094005A4906F0E0FD06F034F900950246D1
:1055D0000B463F4805F084FA0521554804F092FF38
:1055E0003B4805F025FAD7F88050012D19D11D212F
:1055F000504804F087FFD7F890004C4906F0C4FDEE
:1056000006F018F9009502460B46314805F068FA95
:105610000521474804F076FF2D4805F009FAD7F830
:10562000805025F00205012D7EF4FAAF1C2142487E
:10563000284D04F067FFB6F8C210254805F048FA77
:1056400003213E4804F05EFF214805F0F1F9D6F849
:105650008030012B7EF4E4AF1F21394804F052FF63
:10566000D5F88C0006F03CFD2D4906F08DFD06F0C6
:10567000E1F8022502460B460095154805F030FA80
:105680002946304804F03EFF114805F0D1F9FEF7F5
:10569000C7BF2D4B002631460B201E6003F064FA75
:1056A00031460C2003F060FA3146142003F05CFA16
:1056B0003146152003F058FA3B68FFF749BA20211C
:1056C000224804F01FFF024805F0B2F9FEF77DBF43
:1056D000D887FF1F4893FF1F00007A447C92FF1F6A
:1056E000A81A010068100100C8110100D0110100C2
:1056F000EC110100F01101000C1201002012010058
:10570000C0100100BC110100AC1101009C1101008E
:105710008C1101006C1101007C1101003C87FF1FFE
:105720006F12833A6887FF1FF0150100CDCCCC3D86
:105730001016010018160100381601005816010055
:105740005C1601007C1601001095FF1F501501002A
:105750001721154804F0D6FE144805F069F9FEF744
:1057600034BF1E21124804F0CDFE104805F060F948
:10577000FEF72BBF20210F4804F0C4FE95F8C93076
:105780002BB90D490948FCF7E5FAFFF78EB80B492C
:105790000648FCF7DFFAFFF788B8094EFFF7BABAF8
:1057A000074EFFF71EB800BF74150100D887FF1F12
:1057B00030150100A0130100C4130100D013010033
:1057C0004893FF1F38B5174C174A2368101D12F86D
:1057D000011F904241EA0323F9D12360134C03F1E6
:1057E00000432360124BD3F88030022B11D0114BB1
:1057F0001B68012B00D038BD0F4805F019F921684E
:105800000D4805F065F903210C48BDE8384004F067
:1058100079BE20680A4D06F063FC2860FDF704F9A4
:10582000E5E700BF2494FF1FB394FF1FE094FF1F20
:105830004893FF1F9894FF1FD887FF1F381A010055
:105840008092FF1F30B53E4D3E4883B0294601F09F
:1058500067FF2B6840F2C232934256D0B3F5407FC7
:10586000394C08D2226836493848012A18BF00222C
:10587000FBF788FB2B68364A23F060431A44EE2A74
:1058800007D822682E493148012A18BF0022FBF7A9
:1058900015FB2368012B01D003B030BD2D4B2E48E2
:1058A0001B6801930A220023019905F0D1F82A68A8
:1058B000234B002ADB793BDB2849294807F02CFCE5
:1058C000274807F05DFC0146254804F01BFE2C68C4
:1058D0001B4B14F080441CD1DB798BB12B1921496F
:1058E0001A7A1F4807F018FC1D4807F049FC0146CA
:1058F0001B4804F007FE0134EB79E4B2A342EDD873
:10590000154805F095F803B030BDFFF75BFF2B6835
:10591000A4E7154D124C0FCD0FC495E8030044F8D1
:10592000040B204620F81419152104F0EBFDE7E7DD
:105930000E490B4822F0604207F0EEFBC0E700BFC3
:10594000AC94FF1F64D1FF1F9894FF1F2095FF1F89
:10595000FFABAAE50CD3FF1FD887FF1F641A010015
:10596000A092FF1F901A0100781A01003C1A010052
:10597000A24B1B78052B00F0A1802DE9F04FA04C25
:10598000A04EA14DA26E236EA048326083B02B6062
:10599000FBF7F2FDE16A06F095FD08B100232B60EC
:1059A0009A48FBF7E7FDA16A06F0AAFD10B10023B3
:1059B00033602B609548FBF729FDE16806F0A0FDF8
:1059C00008B100232B609148FBF720FDE16806F049
:1059D00097FD08B100232B608C48894FFBF7F0FC42
:1059E000216906F06FFD00286ED0002333602B681C
:1059F000854F002B53DD8548DFF80482FBF7BAFDA5
:105A0000216B06F05FFD002840F0C480804B7F488A
:105A10001B687B4F012B00F0FD80FBF7F7FCE16971
:105A20008046606906F0A6FA0146404606F068FD29
:105A3000002834D0286806F053FB82467348FBF7F1
:105A4000E5FCD7F814808346F969404606F092FADF
:105A50008146786E06F044FB0446386E06F040FB43
:105A6000214606F087FA49460746584606F082FA6C
:105A70000146384606F088FB49460746404606F090
:105A800079FA0146384606F033FC214606F074FAEE
:105A90000146504606F06EFA06F03CFD2860336879
:105AA000584A002BAFBF2B682B6800211160002BD8
:105AB00001DA00232B6003B0BDE8F08F5149524A50
:105AC00000230B60136070475048FBF779FCB969FD
:105AD00006F0F8FC002888D13368DFF82891002B05
