:1000000000800020BD010000D97400009174000040
:1000100091740000917400009174000091740000CC
:10002000917400009174000091740000D974000074
:10003000D9740000917400005D8C0000618D000097
:10004000D9740000D9740000D9740000D97400007C
:10005000D9740000D9740000D9740000D97400006C
:10006000D9740000D9740000D9740000D97400005C
:10007000D9740000D9740000D9740000D97400004C
:10008000D9740000D9740000D9740000D97400003C
:10009000D9740000D9740000D9740000D97400002C
:1000A000D9740000D9740000D9740000D97400001C
:1000B000D9740000AD680000B9680000BD68000098
:1000C000C9680000CD680000D1680000D974000044
:1000D000D9740000D9740000D9740000D9740000EC
:1000E000D9740000D9740000D9740000D9740000DC
:1000F000D974000025930000D9740000117B000022
:10010000D9740000DD7C0000D9740000D9740000AF
:10011000D9740000D9740000D9740000D9740000AB
:10012000D9740000D9740000D9740000D97400009B
:10013000D9740000D9740000D9740000D97400008B
:10014000D9740000D9740000D9740000D97400007B
:10015000D9740000D9740000D9740000D97400006B
:10016000D9740000297F0000D9740000D974000000
:10017000D9740000D9740000D9740000D97400004B
:10018000D9740000D9740000D9740000D97400003B
:10019000D9740000D9740000D9740000D97400002B
:1001A000D9740000D9740000D9740000D97400001B
:1001B000D9740000D9740000D9740000564B4CF279
:1001C000205210B51A804DF628121A8000BF00BFC9
:1001D00007F086F9514B4FF010621A60504A9A604E
:1001E000504ADA60504A136813F4807304D14F49BF
:1001F0000B604FF4A85313604D4B1A78110703D5C9
:100200001A7842F008021A704A4B4B492A221A7097
:100210004A4A4B4B8B4204D252F8040F43F8040B6A
:10022000F8E7484B484900228B4202D243F8042B9E
:10023000FAE74649464A002352F8230041F82300D2
:1002400001336F2BF8D1434B434A802103F8011B44
:100250009342FBD1414B3D4A1A60414B8A221A70AE
:10026000A3F5805324225A70A0221A709A7992071B
:10027000FCD59A79D406FCD43A4A937903F00C035E
:10028000082B384BF9D103221A7140225A719A79FE
:100290009006FCD5334A9179324B4906FBD5324A58
:1002A000324911600221516020221A709A7902F0BD
:1002B0000C020C2AFAD12E4B2E4A1A602E4B2F4AD2
:1002C0001A6000225A60072243F8042C2C4AC3F813
:1002D0000C2D62B607F09CFB144B1B68DA0705D5A2
:1002E000284807F079F9284B284A1A60284B1B78D0
:1002F0005B0609D5244C254B22689A4204D121483B
:1003000007F06AF9002323600AF0F4FA07F0EEF828
:1003100008F0C8FEFEE700BF0E2005403080044014
:10032000823F04000100002B10D0034014D0034092
:1003300002D0074000E007403892FF1F740201001E
:100340002087FF1F3892FF1FE8CEFF1F0082FF1F8C
:100350000000000000E400E05FE400E008ED00E0E1
:100360000050064000400640448004400000030165
:1003700004800440C010050014E000E0FF76010096
:10038000000020208C5D435C1CE00340A5C3945A10
:1003900000F00740FFFFFFFFFFFFFFFFFFFFFFFF32
:1003A000FFFFFFFFFFFFFFFFFFFFFFFFFFFFFFFF5D
:1003B000FFFFFFFFFFFFFFFFFFFFFFFFFFFFFFFF4D
:1003C000FFFFFFFFFFFFFFFFFFFFFFFFFFFFFFFF3D
:1003D000FFFFFFFFFFFFFFFFFFFFFFFFFFFFFFFF2D
:1003E000FFFFFFFFFFFFFFFFFFFFFFFFFFFFFFFF1D
:1003F000FFFFFFFFFFFFFFFFFFFFFFFFFFFFFFFF0D
:10040000FFFFFFFFFFFFFFFFFFFFFFFFDEF9FFFF23
:1004100010B5054C237833B9044B13B10448AFF33E
:1004200000800123237010BD3892FF1F00000000E0
:1004300070020100084B10B51BB108490848AFF322
:1004400000800848036803B910BD074B002BFBD0A0
:10045000BDE81040184700BF000000003C92FF1F9D
:10046000700201003892FF1F00000000F0B400F19C
:100470002C06144F00243146031F00F15C0243F8A0
:10048000044FB34241F8047F4FF0000542F8044F97
:10049000F5D10D4A0D49C0F890500023C0F8945092
:1004A000C0F89850C0F89C50C0F8AC50C0F8A020DC
:1004B000C0F8A820C0F8A41080F8B43080F8CC3080
:1004C000F0BC70470000A040000048430000C8C2D4
:1004D00038B50446087A0D4609F0A6FF4FF07C5166
:1004E00009F0F6FF064909F0E9FE00220023C4F8EE
:1004F00094002A73C4F898306A73C4F89C3038BDED
:1005000000002C4290F8BC00704700BF90F8B80083
:10051000704700BF90F8C000704700BF90F8C4005B
:10052000704700BF0C2994BF50F82100002070478D
:100530002DE9F0410B4E8046041F00F12C0754F8C2
:10054000045F314628460AF061F930B1D8F8B0109E
:1005500028460AF079F900B12E46BC42EFD1304668
:10056000BDE8F081000020412DE9F041D0F8B070E5
:100570004FF00008041F00F12C0654F8045F3946C0
:1005800028460AF061F9084948B128460AF03EF9C0
:10059000414620B128460AF057F900B1A846B442B6
:1005A000EBD14046BDE8F0810000A0402DE9F047C6
:1005B000D0F8B07082464FF00009041F00F12C06FD
:1005C0004FF0000854F8045F394628460AF03CF919
:1005D0000C4950B128460AF019F930B1484629466D
:1005E00009F06EFE08F101088146B442EAD1CAF86A
:1005F000D080404609F018FF014648460AF01CF832
:10060000BDE8F0870000A040D0F8D000704700BFE0
:1006100038B5D0F89840D0F89450214628460AF0D2
:10062000F5F800B92C46204638BD00BFD0F8C830D8
:100630002DE9F041002B7CD1D0F89860D0F894508F
:1006400004463146284609F03BFED4F89C703946F2
:10065000804609F035FE7F4909F0EEFF4FF07C51EE
:1006600004460AF0F1F8002861D04FF07C5128468A
:100670000AF0EAF84FF07C51002861D128460AF0D0
:10068000C5F838B14FF07C5130460AF0DDF800284B
:1006900040F0A8804FF07C5128460AF0D5F8002899
:1006A00061D14FF07C5128460AF0CEF8002840F086
:1006B000A2804FF07C5128460AF0C6F800286DD180
:1006C0004FF07C5128460AF0A1F84FF07C5110B34E
:1006D00030460AF0B9F838B14FF07C5138460AF08C
:1006E00095F8002840F0B1804FF07C5130460AF078
:1006F0008DF8002862D04FF07C5138460AF0A4F8FB
:10070000002840F0A48038464FF07C510AF07EF873
:1007100068B1514C11E028460AF078F80028E3D17E
:1007200028464FF07C510AF071F8002846D1BDE808
:10073000F08100EB8300D0F890402046BDE8F081C6
:1007400030460AF081F84FF07C5100283ED0384600
:100750000AF07AF80028F0D14FF07C5128460AF0D0
:1007600055F8002859D14FF07C5130460AF04EF828
:10077000002840D04FF07C5138460AF065F8002838
:1007800041D14FF07C5130460AF05EF868B14FF02D
:100790007C5138460AF03AF800284FD14FF07C518E
:1007A00030460AF033F800288AD04FF07C513846A2
:1007B0000AF02CF8002883D02C46BEE730464FF0D4
:1007C0007C510AF023F80028B1D09CE728460AF0B3
:1007D0001DF80028C7D04FF07C5130460AF034F89D
:1007E0000028C0D04FF07C5138460AF02DF8002880
:1007F0003FF450AF18E04FF07C5130460AF024F837
:100800000028CBD0C3E73946284609F059FD4FF000
:100810007C5109F05DFE04468FE74FF07C5138466D
:100820000AF012F800289ED03946304609F048FDFB
:100830004FF07C5109F04CFE04467EE740464FF0F5
:100840007C5109F045FE044677E7344675E73C469F
:1008500073E700BF000040400000A0C270B504462E
:10086000FFF7E4FE4FF07C5109F0EEFF40B3D4F8FF
:1008700094604FF07C51304609F0E6FFD4F8985070
:10088000F8B9D4F89C404FF07C51284609F0DCFFC1
:1008900058B12946304609F0D7FF30B121462846E5
:1008A00009F0B4FF08B12C4621E04FF07C512046FE
:1008B00009F0CAFF20B12846214609F0C5FF80B9DA
:1008C00070BD3046294609F0A1FFD4F89C400028AD
:1008D000D9D03046214609F099FF0028D3D03446BC
:1008E00005E03046214609F0AFFF0028E8D0204659
:1008F00070BD00BF01292DE9F8438146154600F07F
:10090000CC80022900F08C80002945D0046848463C
:10091000FFF7A4FFD9F8A010054609F077FF08B14A
:10092000C9F8A050D9F89460D9F8985031462846B3
:1009300009F08AFF00286BD13146D9F8A40009F0EC
:1009400065FF10B13546C9F8A45009F13006C84614
:1009500009F160050C2701E058F8044F3068214682
:1009600009F072FF214628B1D9F8B00009F058FF0C
:1009700000B134602146286809F048FF0436654913
:1009800020B1204609F060FF00B12C60013F05F165
:100990000405E1D1BDE8F883937A507A1B0103EB9B
:1009A000101000F57A7009F03FFD5B4909F090FDE9
:1009B000C9F800002B7B0446687B1B1103EB001079
:1009C00000F57A7009F030FD534909F081FDC9F84E
:1009D00008002B7BE87A1B0203F47063184400F5CF
:1009E0007A7009F021FD4C4909F072FDC9F8040044
:1009F000EB7BA87B1B0203F47063184400F57A704C
:100A000009F012FD444909F063FDC9F80C007EE7C6
:100A1000D9F8A410284609F017FF002895D092E7CE
:100A2000937A507A1B0103EB101000F57A7009F0ED
:100A3000FBFC394909F04CFDC9F820002B7B687B91
:100A40001B1103EB001000F57A7009F0EDFC324940
:100A500009F03EFDC9F828002B7BE87A1B0203F45D
:100A60007063184400F57A7009F0DEFC2A4909F039
:100A70002FFDC9F82400EB7BA87B1B0203F47063F5
:100A8000184400F57A7009F0CFFC234909F020FDE5
:100A9000D9F80040C9F82C0039E7937A507A1B0145
:100AA00003EB101000F57A7009F0BEFC1A4909F04A
:100AB0000FFDC9F810002B7B687B1B1103EB0010A6
:100AC00000F57A7009F0B0FC134909F001FDC9F88E
:100AD00018002B7BE87A1B0203F47063184400F5BE
:100AE0007A7009F0A1FC0C4909F0F2FCC9F8140075
:100AF000EB7BA87B1B0203F47063184400F57A704B
:100B000009F092FC044909F0E3FCD9F80040C9F867
:100B10001C00FCE60000A0406F12833A2DE9F84368
:100B20000026D0F8B080C0F890608146041F00F124
:100B30002C0754F8045F4146284609F085FE094910
:100B400050B1284609F062FE30B13046294609F01E
:100B5000B7FB0646C9F89000BC42EAD13046BDE872
:100B6000F88300BF0000A04002299ABF00EB81007B
:100B7000D0F89400002070473E2998BF80F8CC1030
:100B8000704700BF90F8B400704700BFC0F8C810AD
:100B9000704700BF80F8B410704700BF30B50F4CED
:100BA000C0F8B01083B020460D4608F0E3F82046A8
:100BB00008F0E0F8284608F0E1FF022502460B465F
:100BC0000095204608F030F9204608F0D3F820467A
:100BD00003B0BDE8304008F0CDB800BFD887FF1F94
:100BE00070B500F555550646083500F1200420463D
:100BF000D834FFF73BFCAC42F9D106F1F8050124EB
:100C000028460021FFF7C6FF214628460134FFF79A
:100C1000B3FF3F2C05F1D805F2D143F25054002523
:100C20000548064A064B3555002130617161B261B5
:100C3000F361304670BD00BF00007A4400004843B5
:100C40000000C8C22DE9F04143F2545300F5555657
:100C5000374600228046C2500836143700F1F804A7
:100C600002E0D834B4420DD02046FFF78BFF0028B5
:100C7000F7D020463D68FFF7C7FCD8342844B4427B
:100C80003860F1D143F2545358F80300BDE8F081C5
:100C900038B50C78A4F12103072B98BF183CA4F1B8
:100CA0004103072B98BF303CA4F16203052B154686
:100CB00009D8D823483C03FB04002030FFF708FC88
:100CC000012D0AD038BDD82303FB04002030FFF7E4
:100CD000FFFB012DF6D1002CF4D0064808F04AF8AD
:100CE0002146044808F096F80B210348BDE8384037
:100CF00007F04EBED887FF1F98EA00000B68A3F5E7
:100D0000D8732DE9F0417E2B00F28180DFE813F0EB
:100D1000B501B101AD017F00A901A501A1017F00CD
:100D20009D01990195017F0091018D0189017F004D
:100D3000850181017D017F007901750171017F00CD
:100D40006D01690165017F0061015D0159017F004D
:100D5000550151014D017F004901450141017F00CD
:100D60003D01390135017F0031012D0129017F004D
:100D7000250121011D017F001901150111017F00CD
:100D80000D01090105017F000101FD00F9007F004F
:100D9000F500F100ED007F00E900E500E1007F00D3
:100DA000DD00D900D5007F00D100CD00C9007F0053
:100DB000C500C100BD007F00B900B500B1007F00D3
:100DC000AD00A900A5007F00A1009D0099007F0053
:100DD000810011020D027F000902050201027F005D
:100DE000FD01F901F5017F00F101ED01E9017F004D
:100DF000E501E101DD017F00D901D501D1017F00CD
:100E0000CD01C901C5017F00C101BD01B901BDE826
:100E1000F0814FF000081925012A174604460E46B6
:100E200000F08B81D82000FB0544203420460121AE
:100E3000FFF7B0FE324641462046BDE8F041FFF7DD
:100E400059BD4FF002081825E6E74FF001081825B4
:100E5000E2E74FF000081825DEE74FF002081725FB
:100E6000DAE74FF001081725D6E74FF000081725FD
:100E7000D2E74FF002081625CEE74FF001081625FD
:100E8000CAE74FF000081625C6E74FF002081525FF
:100E9000C2E74FF001081525BEE74FF00008152501
:100EA000BAE74FF002081425B6E74FF00108142501
:100EB000B2E74FF000081425AEE74FF00208132503
:100EC000AAE74FF001081325A6E74FF00008132505
:100ED000A2E74FF0020812259EE74FF00108122505
:100EE0009AE74FF00008122596E74FF00208112507
:100EF00092E74FF0010811258EE74FF00008112509
:100F00008AE74FF00208102586E74FF00108102508
:100F100082E74FF0000810257EE74FF002080F250A
:100F20007AE74FF001080F2576E74FF000080F250C
:100F300072E74FF002080E256EE74FF001080E250C
:100F40006AE74FF000080E2566E74FF002080D250E
:100F500062E74FF001080D255EE74FF000080D2510
:100F60005AE74FF002080C2556E74FF001080C2510
:100F700052E74FF000080C254EE74FF002080B2512
:100F80004AE74FF001080B2546E74FF000080B2514
:100F900042E74FF002080A253EE74FF001080A2514
:100FA0003AE74FF000080A2536E74FF00208092516
:100FB00032E74FF0010809252EE74FF00008092518
:100FC0002AE74FF00208082526E74FF00108082518
:100FD00022E74FF0000808251EE74FF0020807251A
:100FE0001AE74FF00108072516E74FF0000807251C
:100FF00012E74FF0020806250EE74FF0010806251C
:101000000AE74FF00008062506E74FF0020805251D
:1010100002E74FF001080525FEE64FF00008052520
:10102000FAE64FF002080425F6E64FF00108042521
:10103000F2E64FF000080425EEE64FF00208032523
:10104000EAE64FF001080325E6E64FF00008032525
:10105000E2E64FF002084546DEE64FF001080225C1
:10106000DAE64FF000080225D6E64FF00208012527
:10107000D2E64FF001084546CEE64FF000080125C4
:10108000CAE64FF002082025C6E64FF001082025E9
:10109000C2E64FF000082025BEE64FF002081F25EB
:1010A000BAE64FF001081F25B6E64FF000081F25ED
:1010B000B2E64FF002081E25AEE64FF001081E25ED
:1010C000AAE64FF000081E25A6E64FF002081D25EF
:1010D000A2E64FF001081D259EE64FF000081D25F1
:1010E0009AE64FF002081C2596E64FF001081C25F1
:1010F00092E64FF000081C258EE64FF002081B25F3
:101100008AE64FF001081B2586E64FF000081B25F4
:1011100082E64FF002081A257EE64FF001081A25F4
:101120007AE64FF000081A2576E64FF002081925F6
:1011300072E64FF0010819256EE6094807F01AFE1D
:101140002946074807F066FE3946064807F020FCA6
:101150004146034807F05EFE014807F00BFE61E6DA
:10116000D887FF1FA4EA0000704700BF704700BF88
:10117000704700BF2DE9F0430446002383B00646C4
:1011800044F8F83B012504E001353F2D04F1D80473
:1011900066D02046FFF7F6FC0028F5D04E4800F058
:1011A00017FC29464D4800F013FC2046FFF7B6FC1B
:1011B00008F0E4FC02460B46494800F009FC2046D2
:1011C000FFF7B6F980462046FFF7CEF907464046BE
:1011D00008F0D4FC80463846894608F0CFFC4246E9
:1011E0004B46CDE900013F4800F0F2FB00212046CC
:1011F000FFF7BAFC012180462046FFF7B5FC074601
:10120000404608F0BBFC80463846894608F0B6FCEC
:1012100042464B46CDE90001334800F0D9FB204659
:10122000FFF77CFC0146306809F04AF83060204640
:10123000FFF714FBB16909F0E9FA002833D1204621
:10124000FFF7E6F9F16909F0FFFA00289CD0204683
:10125000FFF7DEF901353F2DF06104F1D80498D194
:10126000706809F0E1F80146306809F0E5F9716944
:101270003060044609F0E8FA00B174613169204633
:1012800009F0C4FA00B134610B2006F03DFB43F2D3
:101290005053F35C60B99BB143F250530122F254B6
:1012A00003B0BDE8F0832046FFF7D8FAB061C6E787
:1012B00053B943F250530022F25403B0BDE8F08317
:1012C0000A4800F0B3FBE7E7094800F099FB43F256
:1012D00050530022F254F0E790EC0000A8EA00001E
:1012E000E4EA0000F8EA000024EB000040EB000014
:1012F00078EB000070B5114B836000F5555506463C
:10130000083500F1F80402E0D834AC4213D020468E
:10131000FFF738FC0028F7D02046FFF709F9B1683D
:1013200009F074FA0028EFD02046FFF701F9D8340D
:10133000AC42B060EBD1B06870BD00BF0000A0400F
:1013400070B5002300F555550646C360083500F119
:10135000F80402E0D834AC4213D02046FFF712FC68
:101360000028F7D02046FFF7FFF8F16809F06CFA83
:101370000028EFD02046FFF7F7F8D834AC42F060F1
:10138000EBD1F06870BD00BF0068704741607047E6
:10139000F8B500F555550F461646083500F1F80426
:1013A00002E0D834AC420FD02046FFF7EBFB002818
:1013B000F7D020463946FFF7E9FB20463146D834BE
:1013C000FFF7ECFBAC42EFD1F8BD00BF2DE9F843CD
:1013D00000F5555543F24C532E4600278146C75021
:1013E0004FF0000808350C3600F1F80402E0D8345C
:1013F000AC4213D02046FFF7C5FB0028F7D0336876
:10140000013333602046FFF711F90F4909F01CFA48
:1014100088B9D834AC4207F10107EBD143F24C5301
:1014200059F80300C01B08F0FFFF0146404609F0D1
:1014300003F9BDE8F8832046FFF7F8F80146404677
:1014400008F03EFF8046D2E700008CC2F8B500F5F8
:10145000555507460026083500F1F80402E0D83457
:10146000AC420FD02046FFF78DFB0028F7D0204676
:10147000FFF79CF80146304608F022FFD834AC4212
:101480000646EFD143F24C53F85808F0CDFF014621
:10149000304609F0D1F8F8BD2DE9F04F06468FB07F
:1014A00083488B4600F03CFA814800F039FA8048C6
:1014B00000F036FA43F24C533046F2580D92FFF7E3
:1014C000C1FB73680C930746306808F057FB8046F1
:1014D00030468946FFF7BAFF82463046B468F56861
:1014E000FFF774FF08F04AFBCDE90A0121462846C0
:1014F00008F0E4FE6F4908F0EBFF08F03FFBCDE990
:101500000801284608F03AFBCDE90601204608F01C
:1015100035FBCDE90401504608F030FB0D9A0C9BD9
:10152000CDE90201CDE90089114663483A4600F051
:10153000F7F95F4800F0F4F9F8364FF001094FF081
:10154000000A07E009F10109B9F13F0F06F1D806D9
:1015500000F0A5803046FFF715FB0028F2D030469A
:10156000FEF7D0FF3046FEF7D1FF3046FEF7D2FF40
:101570003046FEF7D3FF0821504807F009FA4946E4
:101580004F4807F047FCB9F1090F40F38B80022167
:101590004C4807F0FDF93046FFF7C0FA08F0EEFAC4
:1015A0005FFA8BF802460B46CDF80080444807F0FE
:1015B0003BFC0121444807F0EBF95546002420E0AC
:1015C0000621424807F0E4F929463D4807F022FC8D
:1015D00002213F4807F0DCF921463046FEF7A2FF22
:1015E00008F0CCFACDF8008002460B46344807F0EC
:1015F0001BFC01340121344807F0CAF90C2C09D036
:101600003D46092D05F10107DADC0121314807F0DB
:10161000BFF9D5E72A4807F0ADFB09212E4807F0AE
:10162000B7F900213046FFF79FFA08F0A7FA022425
:1016300002460B460094224807F0F6FB0A21274891
:1016400007F0A6F901213046FFF78EFA08F096FA66
:10165000009402460B461A4807F0E6FB0A21204890
:1016600007F096F921463046FFF77EFA08F086FA31
:10167000009402460B46124807F0D6FB0121194898
:1016800007F086F909F101090D4807F073FBB9F17C
:101690003F0F0AF10C0A06F1D8067FF45BAF0FB0DA
:1016A000BDE8F08F01210B4807F072F96FE700BF2A
:1016B00090EC000000007A4428EE0000C8EE000024
:1016C000D887FF1F80FC0000D4EE0000D8EE000099
:1016D000B8F00000C8F00000E0EE0000ECEE000002
:1016E000F8EE000004EF00002DE9F04100F1F805EC
:1016F00082B04FF0010806E008F10108B8F13F0F91
:1017000005F1D80559D02846FFF73CFA0028F3D058
:1017100041462B4807F07EFB01212A4807F038F9A3
:101720000024022721462846FEF7FCFE08F026FA90
:10173000009702460B46224807F076FB0134012150
:10174000204807F025F90C2C4FF00206EAD10021C1
:101750002846FFF709FA08F011FA009602460B46F0
:10176000174807F061FB0121164807F011F9012124
:101770002846FFF7F9F908F001FA009602460B46F1
:101780000F4807F051FB01210E4807F001F93146DF
:101790002846FFF7E9F908F0F1F9009602460B46F2
:1017A000074807F041FB08F10108054807F0E2FA95
:1017B000B8F13F0F05F1D805A5D102B0BDE8F08121
:1017C000D887FF1FA4EA0000014B1870704700BFC4
:1017D0002087FF1F0278002A00F0908070B5034632
:1017E00082B00D46252A2AD158785C1C08B32528DA
:1017F0002FD0732831D0642824D0692822D06628BD
:101800004FD07A2859D0782835D058282FD0622840
:101810003ED0422838D06C2814D0632812D07428C7
:1018200057D054285FD007F037F96278631C002A3C
:10183000D8D1344802B0BDE8704007F09BBA1878A0
:101840001C46F0E72B1D29682E481D4607F0E2FADA
:10185000EBE7104607F020F9E7E72E68304609F07D
:101860002FFE01463046043507F092F8DDE70221ED
:10187000254807F08DF82E1D2968224800231022E4
:10188000354607F087FAD0E70221204807F080F8B4
:101890002E1D29681B4800230222354607F07AFADC
:1018A000C3E7073525F007050321D5E900231548CF
:1018B0000091083507F0B8FAB7E7073525F00705B6
:1018C0000021D5E900230F480091083507F0ACFA54
:1018D000ABE7296801290EBF0D480E4801210435E8
:1018E00007F056F8A1E72B68012B07BF04210A482F
:1018F0000A480521043507F04BF896E7014807F040
:1019000039BA00BFD887FF1F08EF00000CEF0000B6
:1019100010EF000014EF000018EF000020EF0000AF
:101920000FB400B583B004A951F8040B0191FFF77F
:1019300051FF03B05DF804EB04B0704770B51B4B6A
:101940001B4C1B6882B00D460193019B2360194616
:1019500004460023164617480A2207F01BFA032103
:10196000154807F015F8032C07D8DFE804F01A151E
:1019700010020521114807F00BF80221104807F06A
:1019800007F831462846FFF725FF02B070BD072152
:101990000C4806F0FDFFF0E704210B4806F0F8FFC5
:1019A000EBE70521094806F0F3FFE6E7F0CBFF1F60
:1019B0005492FF1FD887FF1F28EF000044EF00005C
:1019C000B8F000003CEF000034EF00002CEF000006
:1019D0000FB400B5094B187883B020B103B05DF89F
:1019E00004EB04B0704705AB1A4604990193FFF766
:1019F000A5FF03B05DF804EB04B070472087FF1F1C
:101A00000FB4094B00B51B78012B83B004D903B088
:101A10005DF804EB04B0704705AB1A4604990193D6
:101A20000120FFF78BFFF2E72087FF1F0FB40B4B5E
:101A300000B51B78032B83B004D903B05DF804EB29
:101A400004B0704705AB1A46049901930320FFF7D1
:101A500075FF03B05DF804EB04B070472087FF1FEB
:101A600030B4074D074C084900232B7023600365F1
:101A70004365836580F85C300B6030BC704700BF05
:101A80006092FF1F5C92FF1F5892FF1FF8B530480D
:101A9000304C314F314EFFF743FF314B31485C60E2
:101AA00001251124304A1C700021304C1D72186130
:101AB0002F4D9A614FF07C502E4A9F62DE622E4F6E
:101AC00019630E2640F61C415C639D630A2441F2B3
:101AD000040558645A209A64DF640222274F1E6569
:101AE0009966274EDC66002164241D6758674FF411
:101AF00096753220DF605F61DE61DE635D66DD6505
:101B000018665A705A725A65DA674FF47A77FF2668
:101B100083F8401099679C650525C3F88010C3F8C9
:101B20009400C3F8A40041F28830C3F89C10C3F8B5
:101B3000A010C3F8B020C3F8B440C3F89870C3F83D
:101B4000A860A3F8BA50C3F89000A3F8B800F8BD95
:101B50004CEF000020A1070000008242000020C1DD
:101B60004493FF1F00004040CDCC4C400000204279
:101B70000000A0409A9979400AD7233D333383402F
:101B8000CDCC4C3EF0B54FF47A6085B005F0F2FE56
:101B900000210E2005F0C6FE00210F2005F0C2FE38
:101BA0000021112005F0BEFE0021102005F0BAFE34
:101BB0000021122005F0B6FE0021132005F0B2FE30
:101BC00001210B2005F0AEFE01210C2005F0AAFE3C
:101BD0000121142005F0A6FE0121152005F0A2FE2A
:101BE0000121162005F09EFE0121172005F09AFE26
:101BF0000121052005F096FE984C994D0121062003
:101C000005F090FE01210D2005F08CFE208808F0E3
:101C100007FC0146162005F0EFFD208808F000FCC7
:101C20000146172005F0E8FD208808F0F9FB014681
:101C3000052005F0E1FD208808F0F2FB00240146B4
:101C4000062005F0D9FD00942346864A8649874838
:101C500004F0D4FAE6B232468149844804F07CFAB2
:101C60002B797F4981486FF30003013432462B7191
:101C700004F068FA082CEDD10924E6B2324678491E
:101C80007A4804F069FA2B797549784843F00103E2
:101C9000013432462B7104F055FA0D2CEDD1744D00
:101CA0004FF0FF322868102104F074FE28684FF0CE
:101CB000FF32102104F046FE28684FF0FF32022167
:101CC00004F054FE28684FF0FF32022104F058FE61
:101CD00000220E21286804F067FE0C21654806F0FA
:101CE00057FE654807F046F82146644806F050FE66
:101CF000614807F03FF8604807F03CF8172160485A
:101D000006F046FE5C4807F035F85E4B1B789A06F5
:101D100000F1DA805B4B1B781B0700F1E180594B27
:101D20001B785F0700F1E880564B1B789E0700F197
:101D3000EF80554B1B781D0600F1F680524B1B7847
:101D40005C0600F1FD80504B1B78980600F1048181
:101D50004D4B1B78590700F10B814B4B1B781A0731
:101D600000F11281484B1B789B0700F11981424812
:101D700007F000F872B6454A4CF220534DF6281190
:101D80002024138023461180013BFDD1404D414862
:101D9000414900234FF480562E8003800B8032F897
:101DA0000E3C9BB243F0D30322F80E3C62B640F2E5
:101DB000413005F033FF21463848394D06F0E8FD43
:101DC0002D4806F0D7FF05F1BC062F462C46601BB8
:101DD00005F0CCFA04F8010BB442F8D13B78112B92
:101DE00001D0FFF753FE2F482F4CFFF7C1F9042015
:101DF000FFF7EAFC2D4B2B4800221A60FFF7B6F9DB
:101E000001210D2005F07AFD796D2648FFF7BEFA15
:101E10007A6C97F840102348FFF7BAFA244B25490B
:101E20001B68254AD7F89C00126881FB0351DB1719
:101E3000A3EB211313FB02F30128238000F0B880E9
:101E40001E4B1F491A68039203981B680293029A5B
:101E50001C4B08601A6005B0F0BD00BF2C87FF1F47
:101E60000C94FF1FE4CBFF1F20A1070048CAFF1FEF
:101E7000B494FF1F6CEF0000D887FF1F7CEF0000B9
:101E80008CEF000001F0074000F007400E200540F5
:101E900004200540062005401620054090F0000073
:101EA0004493FF1FEC94FF1FC094FF1F7492FF1F09
:101EB0006C87FF1F1F85EB516087FF1FF0CBFF1F53
:101EC000E894FF1F1494FF1F21213C4806F060FD99
:101ED0003B4806F04FFF3B4B1B781B077FF51FAFBE
:101EE0000C21394806F054FD354806F043FF354BC8
:101EF0001B785F077FF518AF0E21344806F048FDC8
:101F00002F4806F037FF2F4B1B789E077FF511AF48
:101F100017212F4806F03CFD294806F02BFF2D4BDA
:101F20001B781D067FF50AAF0E212B4806F030FD09
:101F3000234806F01FFF274B1B785C067FF503AF95
:101F40001221264806F024FD1D4806F013FF214B00
:101F50001B7898067FF5FCAE1321214806F018FD8A
:101F6000174806F007FF1B4B1B7859077FF5F5AEA6
:101F70001C211C4806F00CFD114806F0FBFE154B19
:101F80001B781A077FF5EEAE1921174806F000FD01
:101F90000B4806F0EFFE0F4B1B789B077FF5E7AE73
:101FA0001821124806F0F4FC054806F0E3FEDEE6D0
:101FB0004FF4967005F0DEFC42E700BFA4EF00008E
:101FC000D887FF1F01F00740C8EF0000D8EF0000DE
:101FD000E8EF000000F0074000F0000010F0000003
:101FE00024F0000038F0000058F0000074F0000009
:101FF00070B5464C464D4748E66800232B70FFF706
:102000009FF90146304608F001FC08B104232B700B
:102010004048FFF76FF9216908F0F8FB18B12B78F9
:1020200043F010032B703B48FFF7D0F9A16A08F08A
:102030000BFC18B12B7843F040032B70002335487C
:102040006B70FFF7C3F9E16A314E08F0DFFB08B1AE
:102050000123737000232F48EB70FFF771F90546D9
:102060002C482B4EFFF746F90146284608F026F982
:10207000E16B08F0E9FB08B10123F370264D254818
:1020800000232B70FFF75CF9616A0646E06808F0F0
:1020900015F90146304608F0D7FB08B104232B7030
:1020A0001C48FFF727F9616A0646206908F008F91D
:1020B0000146304608F0AAFB18B12B7843F0100314
:1020C0002B701448FFF782F9A16B0646A06A08F04E
:1020D000F5F80146304608F0B7FB18B12B7843F00D
:1020E00040032B7000230B486B70FFF76FF9A16B57
:1020F0000546E06A084C08F0E3F80146284608F077
:1021000085FB08B10123637070BD00BF4493FF1FBE
:102110004093FF1FEC94FF1F0494FF1F2DE9F04133
:102120007C4C2368012B82B031D0022B00F0A880B8
:10213000032B00F0C8803BBB774B784AD3F8A41040
:10214000D3F8A83012685B1A632B0EDD744803FBCA
:1021500002F380FB0302DB17C3EB62131944062072
:1021600002B0BDE8F04105F049BA6E4803FB022316
:1021700080FB0302DB17C3EB22121144062002B0DE
:10218000BDE8F04105F03ABA02B0BDE8F081664E14
:1021900033680A33B3F57A7F00F3B78018463360AB
:1021A00008F042F9614908F093F980465A4DD5F894
:1021B000A40008F039F90746D5F8A80008F034F96A
:1021C000394608F07BF8414608F082F9584908F092
:1021D00033FA394608F074F808F040FB014606204F
:1021E00005F00CFA0221534806F0D2FB524806F0E3
:1021F000C1FD0621514806F0CBFB306808F014F908
:102200004A4908F065F907F0B9FC022702460B4677
:102210000097494806F008FE0D21494806F0B8FB32
:10222000D5F8A40008F000F98046306808F0FCF802
:102230003E4908F04DF90646D5F8A80008F0F4F834
:10224000414608F03BF80146304608F041F938496C
:1022500008F0F2F9414608F033F807F08FFC0097D8
:102260000B460246344806F0DFFD3946314806F099
:102270008FFB314806F07EFD2368022B7FF458AFB8
:10228000294B254E00221A60D6F8A40008F0CCF89D
:102290000546D6F8A80008F0C7F8294608F00EF859
:1022A000002108F015F9224908F0C6F9294608F07E
:1022B00007F808F0D3FA0146062005F09FF92368D5
:1022C000032B7FF438AF184B134E4FF47A721A6019
:1022D000D6F8A40008F0A8F80546D6F8A80008F03B
:1022E000A3F8294607F0EAFF114908F0F1F8104970
:1022F00008F0A2F9294607F0E3FF08F0AFFA01461B
:10230000062005F07BF9236815E700234FF000084D
:1023100033604BE79494FF1F4493FF1F3887FF1FE0
:102320001F85EB51CBF08D287892FF1FCDCCCC3D93
:102330000000C84280FC0000D887FF1FB4F00000F6
:10234000BCF0000070B5A248A24C06F013FDA048F6
:1023500006F010FD9E4806F00DFD0D219E4806F08A
:1023600017FBD4F8A030012B11D09C4C9848217851
:1023700000230A2206F00EFD2378052B67D8DFE83C
:1023800013F0E900EE00F300F800FD00E40009217D
:10239000934806F0FDFA9348FEF7ACFF216908F078
:1023A00035FA18B10F21904806F0F2FA8D48FEF781
:1023B000C7FFE16808F048FA18B10E218B4806F013
:1023C000E7FA8848FEF7BCFF05468648FEF792FF0D
:1023D0000146284607F072FFE16B08F035FA18B1A4
:1023E0001121834806F0D4FA7E48FEF7EFFFA16A78
:1023F00008F02AFA18B10C217E4806F0C9FA79488B
:10240000FEF7E4FFE16A08F001FA18B10D217A48FD
:1024100006F0BEFA794B73481B68012B00F0C280AE
:10242000FEF768FF21696B4D08F00EFA78B16D4830
:10243000FEF786FFE96808F0E9F940B1674B1B78C1
:10244000052B00F0C08008216D4806F0A1FA02219A
:102450006C4806F09DFA122005F056FA012800F0AB
:102460009C80112005F050FA012800F09180664B05
:102470001B68012B00F087800221624806F088FA71
:10248000624B5348196806F0C5FC514806F072FCCF
:1024900004215F4806F07CFA0B2005F035FA002392
:1024A00001460A224A4806F075FC0C2005F02CFA79
:1024B000002301460A22464806F06CFC142005F071
:1024C00023FA002301460A22414806F063FC152046
:1024D00005F01AFA002301460A223D4806F05AFC8C
:1024E00006214C4806F054FA4B4B39481968022231
:1024F000002306F04FFC0421484806F049FA112059
:1025000005F002FA002301460A22314806F042FC97
:10251000102005F0F9F9002301460A222C4806F0A4
:1025200039FC122005F0F0F9002301460A22284860
:1025300006F030FC132005F0E7F9002301460A22DB
:102540002348BDE8704006F025BC0721344806F05A
:102550001FFA7CE70621334806F01AFA77E70721CD
:10256000314806F015FA72E70721304806F010FAF4
:102570006DE708212E4806F00BFA68E70B212D487D
:1025800006F006FA63E711212B4806F001FA73E71B
:102590000A212A4806F0FCF969E70E21284806F0CE
:1025A000F7F95EE7FEF7A6FE216A08F04DF900286C
:1025B0003FF449AF1621234806F0EAF90A212248E0
:1025C00006F0E6F943E70A211F4806F0E1F93EE785
:1025D000D887FF1F4493FF1FCCF00000A894FF1F73
:1025E000DCF00000EC94FF1FE8F00000F8F00000C1
:1025F00008F100001CF100002CF100008892FF1F80
:1026000060F1000080FC0000BC94FF1F9894FF1F45
:10261000D4F10000DCF100000094FF1FE4F10000A1
:102620009CF100006CF1000074F1000088F10000E2
:1026300090F100007CF10000C0F10000B4F1000056
:10264000A4F100003CF1000054F100002DE9F04F2E
:10265000934C944FE36F012B8DB000F04981032B15
:1026600050D0914E914DA36F9148012B09BF29681D
:10267000296801F10041296004F06AFD3368002BEC
:1026800040F0CE808A4804F039FDE36F3860012BBA
:10269000064600F0D280874908F0D6F878B9864916
:1026A000304608F0B3F850B9844A854B12680B9253
:1026B0000B9A1A6000232B600DB0BDE8F08FDFF895
:1026C000FC817F4CD8F800300A930A9823687D4F2C
:1026D000C01A07F0A5FE314607F0FAFE7A4907F066
:1026E000ABFF794907F0A8FF396807F0E9FDD8F892
:1026F00000300993099B2360002338602B600DB0E4
:10270000BDE8F08FDFF8C881704DD8F80000664E44
:10271000012300220E212B6004F046F92B68012BC7
:10272000336800F00381002B40F0A6810021D8F827
:102730000000DFF8B891664D04F088F933681FFA9D
:1027400080FBC9F800B0002B40F07B810021D8F855
:102750000000564DDFF878A104F0FEF8B4F886309A
:1027600040F6E44101FB0BF1B1FBF0F0C01A00B2FE
:1027700007F05AFE57498346D4F8880007F0A8FEB0
:102780000146584607F058FFD9F800302860632BFF
:10279000DFF858B100F3498100232B603368002B28
:1027A0003FF461AF02214C4806F0F2F8D9F800205E
:1027B000D8F8000040F6E443002103FB02F804F0DF
:1027C000CBF8B8FBF0F007F02BFE8046B4F886009B
:1027D00007F02AFE0146404607F070FD07F0CEF9EB
:1027E0004FF0020802460B46CDF800803B4806F049
:1027F0001BFB4146384806F0CBF8286807F0BEF9C5
:10280000CDF8008002460B46344806F00DFB4146E9
:10281000334806F0BDF841462F4806F0B9F822E7E4
:10282000234804F06BFC07F0A9F9022602460B4688
:1028300000962A4806F0F8FA24E7244B1B68012B7F
:1028400000F02681022B7FF435AF264907F0FCFF0C
:1028500030B92549304607F0D9FF002800F04781FC
:10286000DFF85880164CD8F8003007930798236893
:10287000144FC01A07F0D4FD314607F029FE124963
:1028800007F0DAFE104907F0D7FE396807F018FDA7
:10289000D8F800300693069B386023600AE700BF33
:1028A0004493FF1F9092FF1FE094FF1F8492FF1F2D
:1028B0001C93FF1F0000FA430000FAC3F0CBFF1F78
:1028C0006492FF1F9492FF1F00007A445887FF1FF5
:1028D000B494FF1F17B7D13880FC0000D887FF1FC2
:1028E00028F2000000C82F4800A08CC63C93FF1FB0
:1028F0003D689849284607F089FF30B12846964937
:1029000007F0A2FF00287FF4FDAEDFF85882934D58
:10291000D8F80000924E022300220F212B6004F011
:1029200043F82B68012B33687FF4FDAE002B40F099
:1029300000810021D8F80000DFF86C92894D04F086
:1029400085F833681FFA80FBC9F800B0002B40F00F
:10295000D5800021D8F80000834D03F0FDFFB4F8C6
:10296000843040F6E44A0AFB0BFBBBFBF0F0C01AD4
:1029700000B207F059FD7D498346D4F88C0007F07A
:10298000A7FD0146584607F057FED9F800302860E9
:102990000021D8F800000AFB03FA03F0DDFFB4F8C9
:1029A0008430BAFBF0F00FFA80FAC3EB0A03002B75
:1029B000B4F8BA20B8BF5B429342BCBF00232B607F
:1029C0003368002B3FF44FAE0221694805F0E0FF69
:1029D000D9F80020D8F8000040F6E443002103FBBA
:1029E00002F803F0B9FFB4F88410B8FBF0F000B2BD
:1029F000411A604806F00EFA02215D4805F0C8FF52
:102A0000286807F0BBF84FF0020802460B46CDF8E5
:102A10000080584806F008FA0321574805F0B8FF2F
:102A20004146534805F0B4FF1DE6DAF800000021E6
:102A300003F092FFDBF8003064389842FFF4ACAE4C
:102A4000ACE60021286803F087FF40F6E44100234C
:102A50000A2201FB0BF1B1FBF0F1464806F09AF9AE
:102A60000221434805F094FFB4F88610414806F06F
:102A7000D1F9D9F800B069E63E4806F07BF90C219F
:102A80003E4805F085FF0C213D4805F081FF4DE6ED
:102A90003C4907F0D9FE58B93B49304607F0B6FE2D
:102AA00030B93A4A3A4B12680592059A1A6001E623
:102AB000DFF8D880364CD8F80030049304982368A7
:102AC000344FC01A07F0ACFC314607F001FD324923
:102AD00007F0B2FD304907F0AFFD396807F0F0FBB1
:102AE000D8F800300393039B38602360E2E5274A5F
:102AF000274B12680892089A1A60DBE500212868C3
:102B000003F02AFF40F6E44100230A2201FB0BF107
:102B1000B1FBF0F1174806F03DF901211F4805F01F
:102B200037FFB4F88410134806F074F9D9F800B0F0
:102B30000FE7104806F01EF9E36F012B4FF00B0171
:102B40000CBF1748174805F023FF0C210C4805F06F
:102B50001FFFEEE600709446007094C65887FF1F72
:102B6000E094FF1FB494FF1F8492FF1F17B7D13862
:102B700080FC0000D887FF1F14F2000018F200004C
:102B800004F200000000FA430000FAC3F0CBFF1F7C
:102B90006492FF1F9492FF1F00007A44C8F0000067
:102BA000ECF10000F8F100003C93FF1F2DE9F04725
:102BB000934C236884B0002B79D0924DDFF84C827F
:102BC000914FD5F880308F4E012B00F08980D7F8D7
:102BD0000090D6F858A0746D8C4E04FB0AF44FF4A4
:102BE0007A7000FB04F007F01FFC89490446484650
:102BF00007F06EFC214607F01FFD864907F068FCD0
:102C000007F02CFE6328C8F800004BDD2046804901
:102C100007F012FD6423386033607F4B1B68002B84
:102C20003DD0EB6F774C012B00F08880032B00F038
:102C3000D680022B00F0D9800221784805F0A8FE4A
:102C4000774B186806F09AFF022402460B46009460
:102C5000744806F0E9F82146734805F099FE2146CC
:102C60006E4805F095FED8F800106E4806F0D2F8D0
:102C700006216E4805F08CFE3868654907F028FC8F
:102C800006F07CFF009402460B46664806F0CCF83E
:102C90000321674805F07CFE624806F06BF804B03B
:102CA000BDE8F0870028BCBF00233360B5E7614E64
:102CB000544D33680293029A42F228339A4249D81B
:102CC00033680393039A42F210739A4249D8D5F8B5
:102CD0008030DFF838814C4F4A4E012B7FF477AFBC
:102CE0005548FEF7B3FB5549D6F86890F46E07F0E7
:102CF000EFFB07F0D9FD326F736FD5F858A0C9EB21
:102D000002021B1B80B29A42C9EB0000C6BF03FB44
:102D100000000132584390FBF2F020446C6D00FB40
:102D20000AF004FB00F000EB8000400007F07CFBA1
:102D3000374907F081FC814638604DE7404B1B68FE
:102D4000012B4FF00A010CBF3E483F4805F020FE22
:102D5000E36F6BE738486A6C95F84010FEF718FB94
:102D6000AEE73548FEF772FB3449AF6EEE6E07F002
:102D7000AFFB07F099FD2A6F6B6FD21B9B1B80B2D4
:102D80009A42A0EB070035DD03FB0000531C90FBCB
:102D9000F3F31E44A86D6B6DDFF870801A4FC8F80E
:102DA000006000FB06F003FB00F000EB8000400039
:102DB00007F03AFB164907F03FFC01233860022177
:102DC0001648236005F0E4FD164805F0D3FF5921AD
:102DD0001E4805F0DDFD134805F0CCFFF1E610219B
:102DE0001B4805F0D5FDEB6F23E70721194805F0D7
:102DF000CFFD21E703FB00F393FBF2F31E44C9E789
:102E00007C92FF1F4493FF1F9492FF1F3887FF1F80
:102E1000E4388E3E0000C8428487FF1F80FC00001B
:102E20009092FF1FD887FF1F28F20000BCF200001D
:102E3000C4F20000F0CBFF1FEC94FF1F00007A44A7
:102E40005887FF1F88F2000094F200002CF2000067
:102E5000A0F20000B4F20000F0B5112083B004F03D
:102E600053FD012813D000210B2004F047FD002161
:102E70000C2004F043FD0021152004F03FFD1D4906
:102E80001D4B0120002208701A6003B0F0BD0146FE
:102E90000446152004F032FD1849194A194B0968F7
:102EA0000191D2F890001B680199134D034402264A
:102EB0008B422E6017D8D2F8980007F0B5FA124B63
:102EC000196807F0A3FC074668B921460B2004F0F7
:102ED00015FD084A032339460C2016702B6004F0B8
:102EE0000DFD03B0F0BD01210C2004F007FD03B07F
:102EF000F0BD00BFA894FF1FDC94FF1FF0CBFF1FA5
:102F00004493FF1FE894FF1F9092FF1FF0B56A4E95
:102F10006A4D34682B689C4287B03AD014F00101A6
:102F20005AD014F002014ED014F0040142D0E3074D
:102F30000ED52B68DF070BD4614F3A68002A00F0EA
:102F40008780604B1B680193019B934272D8346861
:102F5000A0070DD52B6899070AD45B4F3A68002A61
:102F600051D0584B1B680393039B93423DD8346860
:102F700062070ED52B685B070CD4544F3A68002AC1
:102F800000F083804F4B1B680593059B93426CD8E0
:102F900034680CB107B0F0BD2146162004F02EFBBA
:102FA0002146172004F02AFB2146052004F026FBC9
:102FB00007B0F0BD052004F021FB2B68346803F056
:102FC000FB032B60B3E7172004F018FB2B68346871
:102FD00003F0FD032B60A7E7162004F00FFB2B681E
:102FE000346803F0FE032B609BE7394B1720D3F8BE
:102FF000941004F003FB2B68346843F002030022B2
:103000002B603A60B4E7334805F0B4FE0C21324837
:1030100005F0BEFC2F4805F0ADFEFF21172004F09F
:10302000EDFA284B2D4A19680291029912680A4458
:103030003A6097E7264B1620D3F8941004F0DEFA96
:103040002B68346843F0010300222B603A607FE76D
:10305000FF21162004F0D2FA1A4B204A1968009179
:10306000009912680A443A606CE7194B0520D3F8BE
:10307000941004F0C3FA2B68346843F00403002270
:103080002B603A60002C85D186E7124805F072FE6D
:103090000C21134805F07CFC0E4805F06BFEFF2167
:1030A000052004F0ABFA074B0C4A19680491049907
:1030B00012680A443A6066E7DC94FF1F0094FF1F21
:1030C0007C94FF1FF0CBFF1F8094FF1F44CAFF1F9B
:1030D0004493FF1FD887FF1FC8F200008087FF1F9F
:1030E000D8F200002DE9F8434B4DDFF858912868DD
:1030F0004A4E4B4F00220E2103F056FC01232221A1
:103100004848C9F8003005F043FC3368132B1EDC37
:1031100040F6E4480021286803F098FC00210446AA
:10312000286803F019FC3B88A4B2012108FB04F4D1
:10313000B4FBF0F43C481C443C8005F029FC6420BE
:1031400004F018FC33680133132B3360E2DD3B8855
:10315000364A3748A2FB03129B1A02EB5303C3F310
:103160000F1319463B8005F055FE1D213148324FA3
:1031700005F00EFC0221314805F00AFC2C4805F050
:10318000F9FD00231A460F212868336003F00CFC78
:10319000022322212348C9F8003005F0F9FB3368E7
:1031A000132B1EDC40F6E4480021286803F04EFC97
:1031B00000210446286803F0CFFB3B88A4B201211C
:1031C00008FB04F4B4FBF0F417481C443C8005F001
:1031D000DFFB642004F0CEFB33680133132B336034
:1031E000E2DD3B88114A1248A2FB03129B1A02EB54
:1031F0005303C3F30F1319463B8005F00BFE1D214B
:103200000F4805F0C5FB02210C4805F0C1FB08483A
:10321000BDE8F84305F0AEBDB494FF1F9C94FF1FBA
:103220004C87FF1FE8F200002CF30000876118862E
:10323000D887FF1F0CF300005C87FF1F80FC000095
:1032400030F300005887FF1F2DE9F843B74BB84C07
:10325000B84F1B68386D40F2513108222160E2718D
:10326000002B40F0068107F0DFF87969054607F08A
:103270002FF9B149DFF8FC8207F02AF907F014FBB7
:1032800080B203126372AD4AAD4B12681B682072A4
:10329000A37228461B121512E3722273B969657373
:1032A00007F016F9A449A24D07F012F907F0FCFA4D
:1032B000A44B1B7880B2A073052B4FEA2020E0734B
:1032C00000F0DC80002388F80230994D9E482946A2
:1032D00003F08CF99D4B9E4A1B681688A672DAB2E1
:1032E00002EB8201227203EB8302490042F3D71200
:1032F0004FEA262E4FF0000908261B122173627335
:10330000294640F25532904884F80BE022606372FF
:10331000E67184F80E9084F80F9003F067F940F29C
:1033200056338C482360E671FEF72EF88A4907F081
:10333000CFF807F0B9FA20728648FEF725F88649DB
:1033400007F0C6F807F0B0FA844A8349C0F30723B0
:103350006372106807F070F907F080FA40FA06F21D
:1033600003467C48E272A372FEF730F8724907F018
:10337000AFF807F099FA20737648FEF727F86E4900
:1033800007F0A6F807F090FA2946C0F307236E4825
:10339000637384F80E9084F80F9003F027F90220ED
:1033A00004F0E8FA6E4B98F800001A78597893F810
:1033B00002E02273DA78617340F25A33294684F8C6
:1033C0000EE0E27398F801E098F802202360207282
:1033D00098F803305C4884F809E0A272E372E67161
:1033E00003F004F95F4B58481A78597893F802E0D3
:1033F00022726172DA78197993F805C084F80AE0CC
:10340000E27293F806E0DA79217340F25E332946DE
:1034100084F80DC084F80EE0E2732360E67103F0D7
:10342000E5F8022004F0A6FA4F4B47481A7859787D
:1034300093F802E022726172DA78197993F805C084
:1034400084F80AE0E27293F806E0DA7921734FF427
:103450005C7329462360E67184F80DC084F80EE0A1
:10346000E27303F0C3F8414B1B68012B0FD0BDE89A
:10347000F88306F0D9FF396A0546F8E60023F02202
:1034800088F80220AB72EB722B736B731DE7314827
:10349000DFF8A080FDF72EFFF96C06F011FF07465C
:1034A0002C48FDF74DFF0146384607F0AFF90028DC
:1034B000DDD040F2C3332748EE712B60FDF71AFFD1
:1034C000D8F84860314607F0A1F9C8B1284930461C
:1034D00006F0FEFF07F0E8F980B2031228726B7263
:1034E0000023012604250322A672E572227363736A
:1034F000A373E3730E491448BDE8F84303F076B8AC
:103500001448FDF7F7FE1A4906F0E2FF07F0CCF980
:1035100028721048FDF7EEFE154906F0D9FF07F0B6
:10352000C3F9C0F307206872DAE700BF8892FF1F73
:10353000CC94FF1F4493FF1F00002041B094FF1F55
:103540006C92FF1FA894FF1F48CAFF1F3887FF1FF8
:103550003C87FF1FEC94FF1F0000C8429092FF1FA2
:103560000494FF1F3087FF1F6487FF1FBC94FF1F59
:1035700000007A444093FF1FF0B59B4D9B4C83B0F5
:1035800005F0A0F92B682060042B00F0AA82022B22
:103590004BD0082B00F09280072B40F04F8133284E
:1035A00001F0AB8300F3A680312801F0B983322803
:1035B00040F0A98005F0C2F9002840F33D818C4815
:1035C0008C4E05F06BFD06F02FFF8B4906F080FF57
:1035D00061230122F0632A6023601846A0F15203A0
:1035E0001F2B01F26883DFE813F00C0B660B660BF0
:1035F000660B660B660B660B660B660B660B660B43
:10360000660B660B660B660BB6037F0C3D05AB05C0
:103610007704660B660B660B2A04660B820C660B3E
:10362000660B660B660B660BFA0AA0F13102422AA2
:1036300069D8DFE812F0F1063207D706FD06100759
:103640001F0768006800680068006800680068007C
:10365000680068006800680068006800680068002A
:10366000680068006800680068006800680068001A
:10367000680068006800680068006800680068000A
:1036800068006800680068006800680068006800FA
:10369000680068006800680068002C07680068001F
:1036A00068006800680068006800680068006800DA
:1036B00068006800680064006800E906322800F0CD
:1036C0002D8371281BD031281DD105F037F9002832
:1036D00040F346864648474E05F0E0FCC0B286F807
:1036E000400002288ABF0021014686F84010726C13
:1036F000424827E3342801F0EE82712803D10023E9
:1037000073202B602060002B08BF73280CBF0120A2
:10371000002010B966E005F0D5F805F00FF9044671
:103720000028F8D1324805F025FB0421344805F083
:103730002FF92F4805F01EFB1021324805F028F91B
:103740002B4805F017FB13212F4805F021F92F4BCB
:103750002748196805F05EFB254805F00BFB14218E
:103760002B4805F015F9224805F004FB1E212948D5
:1037700005F00EF91E4805F0FDFA1521264805F062
:1037800007F91B4805F0F6FA1E21244805F000F958
:10379000174805F0EFFA2021214805F0F9F8144800
:1037A00005F0E8FA19211F4805F0F2F8104805F075
:1037B000E1FA12211C4805F0EBF80D4805F0DAFAA1
:1037C0000F211A4805F0E4F8094805F0D3FA0D2155
:1037D000174805F0DDF8064805F0CCFA154A012334
:1037E00014602B6003B0F0BD9892FF1F6892FF1F1A
:1037F000D887FF1F4493FF1F6F12833AEC94FF1F7B
:10380000FCFA000004FB000018FB00002487FF1FE7
:103810002CFB000044FB000064FB00007CFB00006C
:103820009CFB0000C0FB0000DCFB0000F0FB000084
:1038300000FC00008487FF1F2B682068062B40F0E7
:103840008D80A0F13102402A3FF65DAF01A151F811
:1038500022F000BF734200009F420000CB420000F4
:10386000F142000017430000354300000737000015
:103870000737000007370000073700000737000050
:103880000737000007370000073700000737000040
:103890000737000007370000073700000737000030
:1038A0000737000007370000073700000737000020
:1038B0000737000007370000073700000737000010
:1038C0000737000007370000073700000737000000
:1038D00007370000073700000737000007370000F0
:1038E00007370000073700000737000007370000E0
:1038F00007370000073700000737000007370000D0
:1039000007370000073700000737000007370000BF
:1039100007370000073700000737000007370000AF
:10392000073700000737000007370000073700009F
:10393000073700000737000007370000073700008F
:10394000073700000737000007370000073700007F
:1039500007370000FF3600002B682068052B15D1C3
:10396000332801F0F38140F34781352801F01582B7
:10397000C1F2FD8171287FF4C6AEDC4A00237320BA
:1039800013602B602060BEE62B682068032B40F09C
:10399000A480A0F13002422A3FF6B5AE01A151F851
:1039A00022F000BFB13A000097490000BF49000073
:1039B000E7490000094A00002B4A0000534A000072
:1039C0007B4A0000994A0000BD4A0000073700000A
:1039D00007370000073700000737000007370000EF
:1039E00007370000073700000737000007370000DF
:1039F00007370000073700000737000007370000CF
:103A000007370000073700000737000007370000BE
:103A100007370000073700000737000007370000AE
:103A2000073700000737000007370000073700009E
:103A3000073700000737000007370000073700008E
:103A4000073700000737000007370000073700007E
:103A5000073700000737000007370000073700006E
:103A60000737000007370000E54A000079450000ED
:103A70003F4B0000034B0000214B00005D4B00005A
:103A800055450000073700000737000007370000E2
:103A9000073700000737000007370000073700002E
:103AA0000737000007370000B34B0000BF4B000092
:103AB00004F044FF002841F307818D488D4E05F046
:103AC000EDFA01270346014662228B4873652F6099
:103AD0002260FDF75BFC2B682068012B7FF413AE9E
:103AE0007CE5A0F13102402A3FF60DAE01A151F86C
:103AF00022F000BF51450000F544000033450000AE
:103B0000F9440000FD440000194500002F45000065
:103B1000B7440000CF44000007370000073700001B
:103B2000073700000737000007370000073700009D
:103B3000073700000737000007370000073700008D
:103B4000073700000737000007370000073700007D
:103B5000073700000737000007370000073700006D
:103B6000073700000737000007370000073700005D
:103B7000073700000737000007370000073700004D
:103B8000073700000737000007370000073700003D
:103B9000073700000737000007370000073700002D
:103BA000073700000737000007370000073700001D
:103BB000073700000737000007370000073700000D
:103BC00007370000073700000737000007370000FD
:103BD00007370000073700000737000007370000ED
:103BE00007370000073700000737000007370000DD
:103BF00007370000FF360000312801F0DC80322852
:103C00007FF481AD04F09AFE00287FF7BDAE3848FE
:103C1000384E05F043FA01226B23C6F898002A605B
:103C2000236001E004F04EFE04F088FE0028F9D184
:103C30002F4805F09FF82E4805F09CF82C4805F019
:103C400099F82B4805F096F8294805F093F82121BA
:103C50002A4804F09DFE264805F08CF815212848D6
:103C600004F096FED6F89010214805F0D3F8022112
:103C7000244804F08DFE1E4805F07CF81E212248E1
:103C800004F086FED6F89810194805F0C3F8032111
:103C90001E4804F07DFE164805F06CF81E211C48F5
:103CA00004F076FED6F89410114805F0B3F81048E9
:103CB00005F060F81D21174804F06AFED6F8A4103C
:103CC0000B4805F0A7F80A4805F054F81E211248E1
:103CD00004F05EFED6F8A810054805F09BF80448ED
:103CE00005F048F805232B607CE500BF9494FF1F86
:103CF000D887FF1F4493FF1FEC94FF1F9CF5000023
:103D0000C0F50000F4F40000D8F5000014F2000043
:103D1000F8F5000018F6000038F6000004F00EFE7A
:103D2000002840F31983B548B54E05F0B7F906F001
:103D30007BFBB44906F0CCFB96F8401003460246E4
:103D4000B1487364FDF724FB012369202B602060D8
:103D500044E404F0B7FD04F0F1FD04460028F8D176
:103D6000A648A74E05F006F8A44805F003F8A348B6
:103D700005F000F8A14804F0FDFFA04804F0FAFFA8
:103D80001F21A24804F004FE9C4804F0F3FF1C210C
:103D90009F4804F0FDFD706A9E4906F099FB05F00E
:103DA000EDFE009402460B46944805F03DF80221D2
:103DB000994804F0EDFD914804F0DCFF2321974879
:103DC00004F0E6FDF06B934906F082FB05F0D6FEA9
:103DD000009402460B46894805F026F802218E48D9
:103DE00004F0D6FD854804F0C5FF19218C4804F085
:103DF000CFFDB06B05F0C2FE02240B4602460094D4
:103E00007E4805F011F82146864804F0C1FD7B4844
:103E100004F0B0FF1921844804F0BAFDB6F8B810D8
:103E2000764804F0F7FF0321804804F0B1FD7348A1
:103E300004F0A0FF07232B60D4E404F043FD04F05A
:103E40007DFD04460028F8D16C486D4E04F092FFC9
:103E50006A4804F08FFF694804F08CFF674804F05B
:103E600089FF664804F086FF1521714804F090FD33
:103E7000624804F07FFF18216E4804F089FD234654
:103E80000A2296F840105D4804F084FF5B4804F075
:103E900071FF2821684804F07BFD706C5D4906F0D5
:103EA00017FB05F06BFE00940B460246534804F0E6
:103EB000BBFF0221584804F06BFD504804F05AFF44
:103EC00013215E4804F064FD4C4804F053FF0823BE
:103ED0002B6087E404F0F6FC04F030FD0446002873
:103EE000F8D14648464E04F045FF444804F042FFEE
:103EF000424804F03FFF414804F03CFF3F4804F0D3
:103F000039FF11214E4804F043FD3C4804F032FFD4
:103F100028214C4804F03CFD70693E4906F0D8FA6F
:103F200005F02CFE009402460B46344804F07CFF5A
:103F30000221394804F02CFD304804F01BFF162103
:103F4000414804F025FDF069324906F0C1FA05F058
:103F500015FE00940B460246284804F065FF022136
:103F60002D4804F015FD254804F004FFD6F8B030C4
:103F7000002B32DD1D21354804F00AFDF06D06F0FE
:103F800053FA334906F0A4FA05F0F8FD022402467C
:103F90000B460094194804F047FF01212D4804F016
:103FA000F7FC164804F0E6FE1F212B4804F0F0FC55
:103FB000306E06F039FA264906F08AFA05F0DEFD81
:103FC000009402460B460D4804F02EFF01212148C3
:103FD00004F0DEFC094804F0CDFE11211F4804F076
:103FE000D7FCD6F8B030052B00F22686DFE813F0B8
:103FF00059065E0654064F064A062006D887FF1F5C
:104000004493FF1F6F12833AEC94FF1FF8F40000F3
:1040100018F5000000007A44C8F3000038F50000ED
:104020005CF5000078F500007CF5000098F50000D4
:10403000C4FB000080F300009CF30000CCF3000000
:1040400068FB0000E0F300000CF4000024F4000022
:10405000CDCCCC3D7CF8000044F4000064F40000BA
:1040600004F030FC04F06AFC0028F9D1BF48C04ECF
:1040700004F080FEBD4804F07DFEBC4804F07AFEEA
:10408000BA4804F077FEB94804F074FE1F21B9481D
:1040900004F07EFCB54804F06DFE1E21B64804F025
:1040A00077FCB24804F066FE1A21B44804F070FCB4
:1040B000F36F022B00F0E786032B00F0DB86012B69
:1040C00000F0EA860921AE4804F062FCA74804F03B
:1040D00051FE1421AB48A64F04F05AFCB16FA3481F
:1040E00004F098FEA14804F045FE1C21A64804F007
:1040F0004FFCD6F880109D4804F08CFE9B4804F0DD
:1041000039FE1C21A14804F043FCD6F8AC109748B6
:1041100004F080FE954804F02DFEF46F24F00204B4
:10412000012C00F061861321994804F031FC8F487E
:1041300004F020FE02232B60FFF754BB04F0C2FB07
:1041400004F0FCFB0028F9D1884804F013FE8748EE
:1041500004F010FE854804F00DFE844804F00AFEC9
:10416000824804F007FE13218A4804F011FC7F48BE
:1041700004F000FE0D21884804F00AFC7B4804F09E
:10418000F9FD0F21854804F003FC854B7748196839
:1041900004F040FE754804F0EDFD1321814804F061
:1041A000F7FB814B7148196804F034FE6F4804F046
:1041B000E1FD12217D4804F0EBFB7D4B6B48196853
:1041C00004F028FE694804F0D5FD1121794804F077
:1041D000DFFB794B6548196804F01CFE634804F066
:1041E000C9FD0E21754804F0D3FB614B5F48D3F83D
:1041F000A01004F00FFE5D4804F0BCFD19217048CA
:1042000004F0C6FB6F4B5948196804F003FE574889
:1042100004F0B0FD11216C4804F0BAFB6B4B53481D
:10422000196804F0F7FD514804F0A4FD1021684816
:1042300004F0AEFB674B4D48196804F0EBFD4B48AA
:1042400004F098FD1C21644804F0A2FB634B47482E
:10425000196804F0DFFD454804F08CFD13214C483B
:1042600004F096FB414804F085FD04232B60FFF722
:10427000B9BA04F063FB00287FF76EAB3B483C4EB5
:1042800004F00CFF06F0D0F8554906F0D5F9652387
:10429000012270612A6023601846FFF79FB904F07D
:1042A0004DFB00287FF758AB3048314E04F0F6FE46
:1042B00006F0BAF84A4906F0BFF965230122F06119
:1042C0002A6023601846FFF789B904F037FB0028FD
:1042D0007FF742AB2548264E04F0E0FE00EB80005D
:1042E000430001226520F3652A602060FFF776B95C
:1042F00004F024FB00287FF72FAB1C481C4E04F071
:10430000CDFE00EB800043000122652033662A6069
:104310002060FFF763B9164AD2F8B0300133052B9D
:10432000C8BF0023C2F8B030652001232B60206095
:10433000FFF754B904F002FB00287FF70DAB0B48E0
:104340000B4E04F0ABFE65230122C6F8B4002A60D0
:1043500023601846FFF742B92B682068FFF71CB9A5
:10436000034E96F84000FFF7BCB900BFD887FF1F87
:104370004493FF1F3CF700005CF700007CF700004F
:10438000F4F7000000F8000018F8000038F800000A
:10439000CCF3000058F600006CF600007CF600003C
:1043A0007894FF1F8CF60000E094FF1FA0F6000039
:1043B000C494FF1FB4F60000C894FF1FC8F60000A5
:1043C000D8F600009894FF1FF4F600009494FF1FA5
:1043D00008F700008C92FF1F1CF700007487FF1F76
:1043E00000007A4401232B6004F0A8FA002805DDC0
:1043F00069486A4E04F052FEC6F8AC0001236320FF
:104400002B602060FFF7EAB8644AD36F0133032BB7
:10441000C8BF0023D367F1E7604EB36FB3FA83F3ED
:104420005B0901226320B3672A602060FFF7D6B8DA
:1044300001232B6004F082FA002807DD5648574E0E
:1044400004F02CFE05F0F0FFC6F88C00632020601D
:104450002B68FFF7A1B801232B6004F06FFA002846
:10446000F4DD4D484D4E04F019FE05F0DDFFC6F8B1
:104470008800EBE701232B6004F060FA0028E5DDFB
:104480004548464E04F00AFEA6F8BA00DEE7FEF7FD
:1044900029FE2B682068FFF77CB8404ED6F88030A4
:1044A000B3FA83F35B0901226320C6F880302A60E7
:1044B0002060FFF793B83A4A1368B3FA83F35B09B5
:1044C00001216420136029602060FFF787B8012371
:1044D0002B6004F033FA002800F37E84314B1A6815
:1044E000042AC4BF02221A60642323602B6864205C
:1044F000FFF74FB82C4ADFE72C4ADDE7274ED6F806
:10450000A030B3FA83F35B0901226420C6F8A0301F
:104510002A602060FFF762B8012325482B60FCF772
:1045200091FB244A2B68106064222260DFE7224A54
:10453000C2E7224A224F1368002B0CBF012300233D
:104540004FF001001360286040F07E840346EBE7E3
:104550001C4AB1E704F0F2F900280DDD0E480F4EB9
:1045600004F09CFD05F060FF174906F065F8012294
:10457000622330622A60236004F0E0F9002840F3EF
:10458000A3830548054E04F089FD01226223B0662D
:104590002A6023601CE000BFD887FF1F4493FF1FE1
:1045A0008C92FF1F7487FF1FE094FF1FC894FF1FAA
:1045B000EC94FF1F9894FF1F9494FF1FC494FF1F57
:1045C0009892FF1F7894FF1F00007A4404F07AF954
:1045D00004F0B4F904460028F8D1C24804F0CAFB3C
:1045E000C04804F0C7FBBF4804F0C4FBBD4804F05A
:1045F000C1FBBC4804F0BEFB1521BB4804F0C8F960
:10460000B84804F0B7FB1421B84804F0C1F9B54824
:1046100004F0B0FB1B21B64804F0BAF9B14804F02D
:10462000A9FB1321B34804F0B3F9AE4804F0A2FB90
:10463000AC4804F09FFBAB4804F09CFB2021AE4843
:1046400004F0A6F9F068AD4905F042FF05F096FACE
:10465000009402460B46A34804F0E6FB0221A8485A
:1046600004F096F90221A74804F092F99D4804F05D
:1046700081FB2121A44804F08BF930699F4905F0A2
:1046800027FF05F07BFA009402460B46954804F09C
:10469000CBFB02219A4804F07BF90221994804F0EF
:1046A00077F9904804F066FB1F21984804F070F9F0
:1046B000B06A05F063FA022702460B460097894864
:1046C00004F0B2FB0121924804F062F939468D48AA
:1046D00004F05EF9834804F04DFB20218D4804F07E
:1046E00057F9F06A05F04AFA009702460B467D48F2
:1046F00004F09AFB0121864804F04AF939468148C2
:1047000004F046F9774804F035FB2321824804F091
:104710003FF9B06C794905F0DBFE05F02FFA009403
:1047200002460B466F4804F07FFB3946744804F09C
:104730002FF93946734804F02BF96A4804F01AFB44
:104740001F21764804F024F9F06C6C4905F0C0FE96
:1047500005F014FA009402460B46624804F064FB2C
:104760003946674804F014F93946664804F010F9F0
:104770005C4804F0FFFA1921694804F009F9B16DA9
:10478000584804F047FB3946664804F001F93946B9
:104790005C4804F0FDF8534804F0ECFA1821624834
:1047A00004F0F6F8706E05F03FFE604905F090FEEB
:1047B00005F0E4F9009702460B464A4804F034FB42
:1047C00001215B4804F0E4F839464E4804F0E0F873
:1047D000444804F0CFFA2B21564804F0D9F8B069C8
:1047E000464905F075FE05F0C9F9009402460B46EE
:1047F0003C4804F019FB3946414804F0C9F83946F1
:10480000404804F0C5F8374804F0B4FA1F214A487C
:1048100004F0BEF8716D334804F0FCFA39463948AB
:1048200004F0B6F82F4804F0A5FA2021434804F01C
:10483000AFF8316D2B4804F0EDFA3946314804F0F9
:10484000A7F8284804F096FA10213D4804F0A0F893
:10485000B16E244804F0DEFA3946294804F098F88D
:104860003946284804F094F81E4804F083FA1321CE
:10487000344804F08DF8F16E1A4804F0CBFA0121A7
:10488000314804F085F839461E4804F081F815488F
:1048900004F070FA10212D4804F07AF8316F1148B5
:1048A00004F0B8FA3946164804F072F8394615484B
:1048B00004F06EF80B4804F05DFA1421244804F06B
:1048C00067F8716F074804F0A5FA01211E4804F04B
:1048D0005FF839460B4804F05BF8024804F04AFAE6
:1048E000162137E0D887FF1FC4F80000DCF800006D
:1048F000F4F80000CCF3000010F9000000007A4446
:10490000C8F3000080FC000034F9000058F90000F2
:1049100004EF000078F900009CF90000C0F90000E5
:10492000E0F90000FCF9000000FA0000CDCCCC3D1D
:104930007CF800001CFA000048FA000068FA000049
:104940008CFA0000A0FA0000B4FA0000B8FA0000E7
:10495000CCFA0000AC4804F01BF8306AAB4905F013
:10496000B7FD05F00BF900940B460246A84804F089
:104970005BFA3946A74804F00BF83946A64804F01C
:1049800007F8A34804F0F6F9A14804F0F3F903236B
:104990002B60FEF727BF03F0D1FF002840F394817E
:1049A0009B489E4E04F07AFB05F03EFD974905F0CA
:1049B00043FE01226223F0602A60236008E603F0D0
:1049C000BDFF002840F380819148944E04F066FBBF
:1049D00005F02AFD8D4905F02FFE0122622330618A
:1049E0002A602360F4E503F0A9FF002840F36C81FE
:1049F00087488A4E04F052FB05F016FD012262231F
:104A0000B0622A602360E3E503F098FF002840F3DA
:104A10005B817F48814E04F041FB05F005FD0122DA
:104A20006223F0622A602360D2E503F087FF00284A
:104A300040F34A817648794E04F030FB05F0F4FCEF
:104A4000724905F0F9FD01226223B0642A602360F7
:104A5000BEE503F073FF002840F336816C486F4ECB
:104A600004F01CFB05F0E0FC684905F0E5FD0122BF
:104A70006223F0642A602360AAE503F05FFF002848
:104A800040F322816248654E04F008FB0122622354
:104A9000B0652A6023609BE503F050FF002840F3D7
:104AA00013815B485D4E04F0F9FA00EB800043008F
:104AB0000121622273662960226089E503F03EFFCE
:104AC000002840F301815248544E04F0E7FA05F003
:104AD000ABFC4E4905F0B0FD01226223B0612A60B3
:104AE000236075E503F02AFF002840F3ED80484875
:104AF0004A4E04F0D3FA0122622330652A60236013
:104B000066E503F01BFF002840F3DE804048434E7B
:104B100004F0C4FA0122622330672A60236057E55B
:104B200003F00CFF002840F3CF8039483B4E04F0DF
:104B3000B5FA0122622370672A60236048E503F01A
:104B4000FDFE002840F3C0803148344E04F0A6FA40
:104B500001226223F0662A60236039E5FCF796FFA4
:104B600002212D482D4E03F013FF294804F002F9CD
:104B70000221294803F00CFF254804F0FBF802212C
:104B8000254803F005FF224804F0F4F817212448D3
:104B900003F0FEFE1E4804F0EDF802211E4803F06B
:104BA000F7FE1B4804F0E6F8012262232A60236026
:104BB0000EE5002273232A602360FEF7AEBD194B79
:104BC0001548164E002202211A6003F0E1FE10483B
:104BD00004F0D0F80B21144803F0DAFEDDE7BC2224
:104BE00000210E4802F0DCFB2068104AA0F173009F
:104BF00001210023B0FA80F0400911602B60FEF71C
:104C000088BD03F08FF900BFE4FA000000007A4489
:104C1000D887FF1FC8F3000080FC00004493FF1FEB
:104C20005CF300007C92FF1F74F300008487FF1F79
:104C30000F21B04803F0ACFEAF48B04C04F09AF836
:104C4000D6F8B030002B0FDD1821AD4803F0A0FEE0
:104C5000D4F8B410A84804F0DDF80221A94803F004
:104C600097FEA54804F086F8A34804F083F81321C2
:104C7000A54803F08DFEA04804F07CF806232B60C5
:104C8000FEF7B0BD0D21A14803F082FED4E70D214F
:104C90009F4803F07DFECFE70C219E4803F078FE8D
:104CA000CAE70D219C4803F073FEC5E70C219B4821
:104CB00003F06EFEC0E72B68002B08BF73280CBF03
:104CC00001200020FEF725BD2B682068012B7EF413
:104CD0001AADFEF783BC03F031FE00287EF7ACADC1
:104CE0008548864E04F0DAF961230122A6F8B8005F
:104CF0002A6023601846FEF771BC03F01FFE0028EF
:104D00007EF79AAD7C487D4E04F0C8F905F08CFB27
:104D100061230122B0632A6023601846FEF75EBC5F
:104D200003F00CFE00287EF787AD7348734E04F045
:104D3000B5F905F079FB7A4905F0CAFB6123012238
:104D400070622A6023601846FEF748BC03F0F6FD47
:104D500000287EF719AE6848684E04F09FF90122DA
:104D60006B23C6F894002A602360FEF75DBF03F052
:104D7000E5FD00287EF708AE5F48604E04F08EF92E
:104D8000684BC6F8A40002221A60FDF7C7F9012299
:104D90006B232A602360FEF747BF03F0CFFD002896
:104DA0007EF7F2AD5448554E04F078F95D4BC6F8E5
:104DB000A8000322E8E703F0C1FD00287EF7E4AD78
:104DC0004D484E4E04F06AF901226B23C6F890005C
:104DD0002A602360FEF728BF474804F05FF9524B72
:104DE00002461860FFF77CBB1C21504803F0D0FD41
:104DF000D7F88C004E4905F06BFB04F0BFFE009421
:104E000002460B463C4804F00FF80521494803F0E0
:104E1000BFFD394803F0AEFFFC6F012C45D0032CD9
:104E20007FF481A91C21444803F0B2FDB6F8BA1002
:104E3000314803F0EFFF0321404803F0A9FD2E485D
:104E400003F098FFFFF76FB93D4B002631460B206A
:104E50001E6002F053FD31460C2002F04FFD31463A
:104E6000142002F04BFD3146152002F047FD3B684F
:104E7000FFF75ABB2021334803F08AFD1E4803F098
:104E800079FFFFF726B917212F4803F081FD1A4853
:104E900003F070FFFFF71DB91E212C4803F078FDC9
:104EA000154803F067FFFFF714B91D21284803F0E8
:104EB0006FFDD7F888001E4905F00AFB04F05EFE7E
:104EC00000940B4602460C4803F0AEFF052119483A
:104ED00003F05EFD084803F04DFFFB6F23F0020373
:104EE000012B9FD0FFF71FB9044EFFF771BB034E94
:104EF000FEF79ABEC8F40000D887FF1F4493FF1F37
:104F0000D8F40000F4F40000CCF30000B8F4000082
:104F1000A8F4000098F4000078F4000088F4000081
:104F20006F12833A9494FF1F7487FF1F58F8000094
:104F3000CDCCCC3D78F80000A0F80000C0F800000F
:104F4000DC94FF1FB8F70000DCF7000098F70000C2
:104F500080F8000038B5164C164A2368101D12F868
:104F6000011F904241EA0323F9D12360124C03F15F
:104F700000432360114BDB6F022B11D0104B1B68D9
:104F8000012B00D038BD0F4803F0F4FE21680D4816
:104F900003F040FF03210C48BDE8384003F0F8BCA3
:104FA00020680A4D05F040FA2860FDF74FFBE5E761
:104FB0000894FF1F8B94FF1FAC94FF1F4493FF1FA7
:104FC0007894FF1FD887FF1F10FC00008492FF1FFA
:104FD00030B53D4D3D4883B0294601F0FFF92B68BF
:104FE0003C2B56D0B3F5407F394C08D22268364965
:104FF0003848012A18BF0022FBF780FE2B68364A8A
:1050000023F060431A44EE2A07D822682E4931481B
:10501000012A18BF0022FBF73BFE2368012B01D0B9
:1050200003B030BD2D4B2E481B6801930A2200238C
:10503000019903F0AFFE2A68234B002ADB793BDBA2
:105040002849294806F00CFA274806F039FA0146A3
:10505000254803F09DFC2C681B4B14F080441CD1A8
:10506000DB798BB12B1921491A7A1F4806F0F8F920
:105070001D4806F025FA01461B4803F089FC01345F
:10508000EB79E4B2A342EDD8154803F073FE03B008
:1050900030BDFFF75FFF2B68A4E7154D124C0FCD15
:1050A0000FC495E8030044F8040B204620F81419B7
:1050B000152103F06DFCE7E70E490B4822F0604232
:1050C00006F0CEF9C0E700BF8494FF1F48CAFF1F57
:1050D0007894FF1FEC94FF1FFFABAAE5F0CBFF1FF6
:1050E000D887FF1F3CFC00009C92FF1F68FC00005B
:1050F00050FC000014FC00002DE9F84F7E4B7F4C63
:105100001B78052B08D07E48FCF760F9E16A05F0B2
:105110007DFB002800F081807A4E7B4D00233360B8
:105120002B607A4B76481B68744F012B33D0FCF709
:1051300007F9E1698046606905F0C0F8014640461C
:1051400005F082FB00283AD16D48FCF7F9F8E168D8
:1051500005F07AFB08B100232B606948674FFCF724
:10516000C9F8216905F052FB48B1002333602B6870
:10517000654A002BBCBF00231360BDE8F88F604870
:10518000FCF7B8F8B96905F041FB0028EDD13368A8
:10519000002BEADBEBE7FCF7D3F8E1698046206AF5
:1051A00005F08CF80146404605F04EFB0028CBD0B8
:1051B0005348FCF7C5F8D7F82090834605E05048DF
:1051C000FCF7BEF8D7F814908346F969484605F015
:1051D00075F88246F86D05F027F98046386E05F0BF
:1051E00023F9414605F06AF851460746584605F04E
:1051F00065F80146384605F06BF9514607464846C2
:1052000005F05CF80146384605F016FA414605F00F
:1052100057F805F023FB286096E73948FCF7D6F8E5
:10522000216B05F0F3FA20B3364E636E34483360D9
:10523000FCF7CCF88146E06DE76A334D05F0F4F8F1
:1052400039468046484605F039F80146404605F0A3
:105250003FF939468046206B05F030F8014640465C
:1052600005F0EAF9002105F02BF805F0F7FA2860BF
:1052700057E72348FCF7AAF8616B05F0C7FA30B18D
:10528000204E214D626EE36D32602B6049E71C4871
:10529000FCF79CF8A16A05F0B9FA00283FF43CAF8E
:1052A0001748184E184DFCF791F88146606ED4F8F7
:1052B000348005F0B9F841460746484604F0FEFF41
:1052C00039468146002004F0F9FF0146484605F0C2
:1052D000FFF841468146A06A04F0F0FF01464846C7
:1052E00005F0AAF9394604F0EBFF05F0B7FAE36DD3
:1052F00030602B6015E700BFA894FF1F4493FF1F89
:10530000EC94FF1FB094FF1F6C92FF1F8892FF1F49
:1053100008B5274803F02EFD0721264803F038FB87
:10532000112002F0F1FA0621F8B1234803F030FB16
:10533000122002F0E9FA062100B3204803F028FB0E
:10534000122002F0E1FA062108B31D4803F020FB09
:10535000132002F0D9FA062110BB1A4803F018FBFB
:105360001348BDE8084003F005BD174803F010FBE3
:10537000122002F0C9FA06210028DED1134803F0FA
:1053800007FB122002F0C0FA06210028DDD11048E8
:1053900003F0FEFA132002F0B7FA06210028DCD051
:1053A0000C4803F0F5FA0248BDE8084003F0E2BCFF
:1053B000D887FF1F74FC00007CFC00008CFC000000
:1053C0009CFC0000B4FC000084FC000094FC000085
:1053D000A4FC0000ACFC000010B5254C2368042B95
:1053E00027DC01210B2002F089FA01210C2002F0B8
:1053F00085FA0121142002F081FA0121152002F022
:105400007DFAFF21162002F0F9F8FF21172002F0A3
:10541000F5F8FF21052002F0F1F8FF21062002F047
:10542000EDF8236801330A2B2360C4BF00232360F7
:1054300010BD00210B2002F061FA00210C2002F0C7
:105440005DFA0021142002F059FA0021152002F023
:1054500055FA0021162002F0D1F80021172002F0A1
:10546000CDF80021052002F0C9F80021D6E700BFE1
:10547000E494FF1F2DE9F041184CDFF86880184FC5
:10548000D8F8003023600025214608263846E6710A
:1054900025726572A572E57225736573A573E57350
:1054A00001F0A4F8012002F065FAD8F8003023607A
:1054B0004FF0450E3846282201273023E671214659
:1054C000E57225736573A57384F808E06772A272AC
:1054D000E373BDE8F04101F089B800BFCC94FF1F31
:1054E00048CAFF1F5087FF1F2DE9F0418D4DD5F8A9
:1054F000B030042B3ED0032B6ED0012B00F09880EF
:10550000022B01D0BDE8F081874C8848237240F21D
:105510000E32012321462260E37101F067F8844BCB
:105520001B685B00FF2BC8BFFF23042140224FF400
:1055300041702060E17122726372286D04F074FF83
:10554000696904F0C5FF7B49054605F07DF900282F
:1055500000F0DE802946284604F0B2FE05F0A4F9EA
:1055600080B20312E072A3726F497048BDE8F04147
:1055700001F03CB86C4C704AA379226043F00103FF
:105580000822E271A371286D04F04EFF696904F0EE
:105590009FFF6A4904F09CFF05F086F9644B684A56
:1055A0001B68126893FBF2F380B200261A120712EE
:1055B000607221465D48E372A27227722673667399
:1055C000A673E67301F012F8A279D5F8B03066F34D
:1055D0000002032BA27190D1534C286DA3720122BB
:1055E000E823072140F2FF26227263722660E171F0
:1055F00004F01AFF696904F06BFF504904F068FF7A
:1056000005F052F94A4B4E4A1B68126893FBF2F3BD
:1056100082B21E121712214644486373E272277346
:10562000A67300F0E3FFD5F8B030012B7FF468AF2C
:10563000444B3D4C1B682360072280231020E271FD
:10564000237202F061F9002869D13F4B1B68DFF833
:10565000E0803B4F286D344E03EB83035B001A124E
:10566000A3726272D8F800303A6893FBF2F31A1210
:105670006273A37304F0D8FE696904F029FF334B09
:10568000196804F01BFE2D4904F022FF05F00CF907
:1056900080B20312314620732448E37200F0A6FF63
:1056A000022002F067F92A4B1B682360072280233F
:1056B0001020E271237202F027F970BB224B1B68A5
:1056C000286D03EB83035B001A127272B37204F04D
:1056D000ABFE696904F0FCFE1E4B196804F0EEFD98
:1056E000164904F0F5FE05F0DFF882B216123868AC
:1056F000D8F80030227393FBF0F30B490B48A373E7
:105700001A12E672627300F071FFD5F8B030F7E656
:1057100001229023A272E37226E70F4BCFE70E4BD4
:1057200094E700BF4493FF1FCC94FF1F48CAFF1F9C
:105730006C92FF1F00004843F4E50618000020416A
:105740005487FF1F7887FF1F4087FF1F2887FF1F91
:105750007C87FF1F7087FF1F4487FF1F2DE9F04FD5
:105760008FB001E0FFF734FCA34800F001FE0028F1
:10577000F8D103F0E3F8002801DDFDF7FDFE9F4CB2
:10578000D4F89C30002B40F097809D4E3368012B5D
:1057900013D0FDF7BBFBD4F8A050012D00F05081D1
:1057A000984F3B78052B00F29D80DFE813F0C9008D
:1057B000A5000401DD001D018800934D2B68934A6C
:1057C0000793079B1168904F5B1AB3F5FA7F1FD8B8
:1057D0002B680C930C9B8E4A2B680B930B9B1068C9
:1057E000D4F8B410884D854C1B1A8B420DD92B6808
:1057F0000D93D4F8A0300D991160012B00F09D811C
:10580000804B1B78032B00F098810FB0BDE8F08F20
:105810003B680893089B7F481360FBF7ABFCD4F808
:10582000A030DFF8D8817B48012B00F0A781FBF77F
:1058300061FDD8F8101004F0E9FF002800F06A813B
:105840002B68754A0993099B12689A4202D96D4BDD
:1058500005221A70714B1B68002B40F08781704B3A
:105860001B68002B40F07E816E4B1B68002B40F0C4
:1058700076813368002B00F06F81FFF7ADFD6A4E33
:10588000FDF794F9FFF738FCFDF7DEFCFFF7F2FDBA
:1058900033686048002B40F05581FBF7D3F9306046
:1058A000FCF7A6FB72B6614B4AF202614BF28042F2
:1058B00019801A8062B68BE702F000FA65E75C4B4C
:1058C000002212201A6002F01FF8012808BF0323EB
:1058D000504808BF3B70FBF7B5F9534B1B68984223
:1058E00000F04C82484DE36F23F00203012B7FF45C
:1058F00065AFFCF7ABFE61E74D4B46483F4D0022DC
:105900001A60FBF71DFDA16C04F09EFF002840F01B
:105910005681484B00221A60122001F0F5FF012841
:1059200000F01A82112001F0EFFF0128364DDAD184
:105930002A68414B0692069A1A6004233B70D2E70C
:105940003B4B314D4FF0000841461420C3F8008016
:1059500001F0D4FF41460B2001F0D0FF374A01236C
:10596000C2F800803B70BEE7314B002201211420B9
:105970001A6001F0C3FF2748FBF7E2FCA16C04F0BA
:1059800063FF002840F014812A4B18602148FBF780
:10599000D7FC616904F058FF002840F0858112208F
:1059A00001F0B2FF00289DD10146142001F0A6FFAE
:1059B00001233B7096E71E4B4FF001081120C3F8FE
:1059C000008001F0A1FF054600288BD1014615207B
:1059D00001F094FF29460B2001F090FF174B87F848
:1059E00000801D60084D7EE7114B074D00221A60B4
:1059F000FDF732FA77E700BF48CAFF1F4493FF1F45
:105A0000C494FF1FA894FF1FF0CBFF1F7092FF1FCD
:105A10008092FF1FEC94FF1FA494FF1F8487FF1F39
:105A20008C92FF1FC894FF1F9894FF1F0C20054005
:105A3000B894FF1FBC94FF1FE894FF1FDC94FF1F66
:105A4000B94FBA4A3B68DFF80C8343F004030021E6
:105A500011203B60117001F057FFD8F8003000288A
:105A600000F0A0800BB9C8F80050B148B14DFBF769
:105A700067FCA16C04F0E8FE002840F00081AE4B0A
:105A800000221A60D8F80080A948B8F1010F00F090
:105A9000E280FBF755FCE168DFF8988204F0D4FE61
:105AA000002800F00881A54D0021142001F026FFF8
:105AB0002A683B680292A249A24A0298086003F051
:105AC000FD0301213B6011609948DFF86882FBF714
:105AD00011FC216904F09AFE002800F09E8000214C
