:1000000000800020BD01000029840000E183000081
:10001000E1830000E1830000E1830000E183000050
:10002000E1830000E1830000E183000029840000F7
:1000300029840000E1830000F1A40000F5A5000080
:1000400029840000298400002984000029840000FC
:1000500029840000298400002984000029840000EC
:1000600029840000298400002984000029840000DC
:1000700029840000298400002984000029840000CC
:1000800029840000298400002984000029840000BC
:1000900029840000298400002984000029840000AC
:1000A000298400002984000029840000298400009C
:1000B00029840000117900001D79000021790000D9
:1000C0002D79000031790000357900002984000085
:1000D000298400002984000029840000298400006C
:1000E000298400002984000029840000298400005C
:1000F00029840000FDAC000029840000C9900000A4
:1001000029840000959200002984000029840000C1
:10011000298400002984000029840000298400002B
:10012000298400002984000029840000298400001B
:10013000298400002984000029840000298400000B
:1001400029840000298400002984000029840000FB
:1001500029840000298400002984000029840000EB
:1001600029840000259500002984000029840000CE
:1001700029840000298400002984000029840000CB
:1001800029840000298400002984000029840000BB
:1001900029840000298400002984000029840000AB
:1001A000298400002984000029840000298400009B
:1001B000298400002984000029840000564B4CF259
:1001C000205210B51A804DF628121A8000BF00BFC9
:1001D00008F02EF9514B4FF010621A60504A9A60A5
:1001E000504ADA60504A136813F4807304D14F49BF
:1001F0000B604FF4A85313604D4B1A78110703D5C9
:100200001A7842F008021A704A4B4B492A221A7097
:100210004A4A4B4B8B4204D252F8040F43F8040B6A
:10022000F8E7484B484900228B4202D243F8042B9E
:10023000FAE74649464A002352F8230041F82300D2
:1002400001336F2BF8D1434B434A802103F8011B44
:100250009342FBD1414B3D4A1A60414B8A221A70AE
:10026000A3F5805324225A70A0221A709A7992071B
:10027000FCD59A79D406FCD43A4A937903F00C035E
:10028000082B384BF9D103221A7140225A719A79FE
:100290009006FCD5334A9179324B4906FBD5324A58
:1002A000324911600221516020221A709A7902F0BD
:1002B0000C020C2AFAD12E4B2E4A1A602E4B2F4AD2
:1002C0001A6000225A60072243F8042C2C4AC3F813
:1002D0000C2D62B608F062FB144B1B68DA0705D5DB
:1002E000284808F03FF9284B284A1A60284B1B7809
:1002F0005B0609D5244C254B22689A4204D121483B
:1003000008F030F9002323600BF0E0FF08F096F8C6
:100310000AF0B4FBFEE700BF0E2005403080044029
:10032000823F04000100002B10D0034014D0034092
:1003300002D0074000E007403892FF1F741F010001
:100340002087FF1F3892FF1F10D3FF1F0082FF1F5F
:100350000000000000E400E05FE400E008ED00E0E1
:100360000050064000400640448004400000030165
:1003700004800440C010050014E000E0FF76010096
:10038000000020204E323C5F1CE00340A5C3945A7D
:1003900000F00740FFFFFFFFFFFFFFFFFFFFFFFF32
:1003A000FFFFFFFFFFFFFFFFFFFFFFFFFFFFFFFF5D
:1003B000FFFFFFFFFFFFFFFFFFFFFFFFFFFFFFFF4D
:1003C000FFFFFFFFFFFFFFFFFFFFFFFFFFFFFFFF3D
:1003D000FFFFFFFFFFFFFFFFFFFFFFFFFFFFFFFF2D
:1003E000FFFFFFFFFFFFFFFFFFFFFFFFFFFFFFFF1D
:1003F000FFFFFFFFFFFFFFFFFFFFFFFFFFFFFFFF0D
:10040000FFFFFFFFFFFFFFFFFFFFFFFFDEF9FFFF23
:1004100010B5054C237833B9044B13B10448AFF33E
:1004200000800123237010BD3892FF1F00000000E0
:10043000701F0100084B10B51BB108490848AFF305
:1004400000800848036803B910BD074B002BFBD0A0
:10045000BDE81040184700BF000000003C92FF1F9D
:10046000701F01003892FF1F00000000F0B400F17F
:100470002C06174F00243146031F00F15C0243F89D
:10048000044FB34241F8047F4FF0000542F8044F97
:10049000F5D100230F4A104CC0F8905047F230516C
:1004A000C0F89450C0F89850C0F89C50C0F8AC50B8
:1004B000C0F8A440C0F8A020C0F8A82080F8B83048
:1004C00080F8B93080F8D030C0F8E410F0BC704744
:1004D0000000A040000048430000C8C238B50446F0
:1004E000087A0D460BF08CFC4FF07C510BF0DCFCD5
:1004F00006490BF0CFFB00220023C4F894002A73B6
:10050000C4F898306A73C4F89C3038BD00002C429F
:1005100090F8C000704700BF90F8BC00704700BF63
:1005200090F8C400704700BF90F8C800704700BF43
:100530000C2994BF50F82100002070472DE9F041AC
:100540000B4E8046041F00F12C0754F8045F31461F
:1005500028460BF047FE30B1D8F8B01028460BF013
:100560005FFE00B12E46BC42EFD13046BDE8F081BF
:10057000000020412DE9F041D0F8B0704FF00008A4
:10058000041F00F12C0654F8045F394628460BF08E
:1005900047FE084948B128460BF024FE414620B1E9
:1005A00028460BF03DFE00B1A846B442EBD14046D0
:1005B000BDE8F0810000A0402DE9F047D0F8B07010
:1005C00082464FF00009041F00F12C064FF000088E
:1005D00054F8045F394628460BF022FE0C4950B10E
:1005E00028460BF0FFFD30B1484629460BF054FB7E
:1005F00008F101088146B442EAD1CAF8D4804046E5
:100600000BF0FEFB014648460BF002FDBDE8F0870B
:100610000000A040D0F8D400704700BF38B5D0F833
:10062000CC3053B9D0F89840D0F8945021462846A1
:100630000BF0D8FD38B1204638BD00EB8300D0F870
:100640009040204638BD2C46204638BDD0F8CC30EE
:100650002DE9F041002B7CD1D0F89860D0F894506F
:100660000446314628460BF017FBD4F89C703946F7
:1006700080460BF011FB7F490BF0CAFC4FF07C5118
:1006800004460BF0CDFD002861D04FF07C51284688
:100690000BF0C6FD4FF07C51002861D128460BF0CD
:1006A000A1FD38B14FF07C5130460BF0B9FD002868
:1006B00040F0A8804FF07C5128460BF0B1FD002897
:1006C00061D14FF07C5128460BF0AAFD002840F084
:1006D000A2804FF07C5128460BF0A2FD00286DD17E
:1006E0004FF07C5128460BF07DFD4FF07C5110B34C
:1006F00030460BF095FD38B14FF07C5138460BF089
:1007000071FD002840F0B1804FF07C5130460BF075
:1007100069FD002862D04FF07C5138460BF080FD17
:10072000002840F0A48038464FF07C510BF05AFD71
:1007300068B1514C11E028460BF054FD0028E3D17C
:1007400028464FF07C510BF04DFD002846D1BDE806
:10075000F08100EB8300D0F890402046BDE8F081A6
:1007600030460BF05DFD4FF07C5100283ED03846FE
:100770000BF056FD0028F0D14FF07C5128460BF0CD
:1007800031FD002859D14FF07C5130460BF02AFD45
:10079000002840D04FF07C5138460BF041FD002836
:1007A00041D14FF07C5130460BF03AFD68B14FF02B
:1007B0007C5138460BF016FD00284FD14FF07C518C
:1007C00030460BF00FFD00288AD04FF07C513846A0
:1007D0000BF008FD002883D02C46BEE730464FF0D2
:1007E0007C510BF0FFFC0028B1D09CE728460BF0B1
:1007F000F9FC0028C7D04FF07C5130460BF010FDBB
:100800000028C0D04FF07C5138460BF009FD00287D
:100810003FF450AF18E04FF07C5130460BF000FD34
:100820000028CBD0C3E7394628460BF035FA4FF005
:100830007C510BF039FB04468FE74FF07C51384672
:100840000BF0EEFC00289ED0394630460BF024FA1F
:100850004FF07C510BF028FB04467EE740464FF0FA
:100860007C510BF021FB044677E7344675E73C46A4
:1008700073E700BF000040400000A0C2D0F8CC20C9
:1008800070B5002A34D10446FFF7E0FE4FF07C51EA
:100890000BF0C6FC58B3D4F894604FF07C5130464E
:1008A0000BF0BEFCD4F8985040BBD4F89C404FF0FD
:1008B0007C5128460BF0B4FC48B1294630460BF079
:1008C000AFFC20B1214628460BF08CFC30BB4FF02A
:1008D0007C5120460BF0A4FC48B1284621460BF081
:1008E0009FFC20B1304621460BF09AFC20B970BD28
:1008F00000EB8203D3F89040204670BD3046294675
:100900000BF070FCD4F89C400028D0D03046214633
:100910000BF068FC0028CAD03446EDE72C46EBE724
:100920002DE9F047012984B08046154600F0268164
:1009300002290E4600F0E180002965D090F8E0A081
:1009400004684046FFF79AFFD8F8A01005460BF060
:1009500049FC08B1C8F8A050D8F8CC30002B40F0C2
:100960009E80D8F89460D8F89850304629460BF00D
:1009700039FC002800F087802946D8F8A4000BF045
:1009800031FC002840F0888008F13006C14608F1AB
:1009900060050C2701E059F8044F316820460BF040
:1009A00021FC30B1D8F8B01020460BF02FFC00B17C
:1009B0003460296820460BF033FC0436A44920B18A
:1009C00020460BF02DFC00B12C60013F05F1040521
:1009D000E1D1BAF1000F71D09E4CD8F8DC10236839
:1009E0000193019AD8F8E430521A9A426FD22268E1
:1009F0000292029A0B449B1A41F28732934240F2D0
:100A0000FE8004B0BDE8F08788F8E010937A507A51
:100A10001B0103EB101000F57A700BF0F1F98E4911
:100A20000BF042FAC8F800002B7B0446687B1B11D0
:100A300003EB001000F57A700BF0E2F986490BF039
:100A400033FAC8F808002B7BE87A1B0203F47063C2
:100A5000184400F57A700BF0D3F97F490BF024FAB3
:100A6000C8F80400EB7BA87B1B0203F470631844F6
:100A700000F57A700BF0C4F977490BF015FAB2461D
:100A8000C8F80C005DE73146D8F8A4000BF0AAFBCB
:100A900000283FF479AF3546C8F8A45074E708EB56
:100AA0008303D8F8A410D3F8905028460BF0B8FB75
:100AB00000283FF469AFC8F8A45065E7654B1B6890
:100AC0000093009BC8F8DC3004B0BDE8F08700203C
:100AD000A8F1040308F11C0143F8040F8B424FF006
:100AE0000002F9D1C8F89020C8F89420C8F89820DE
:100AF000C8F89C2004B0BDE8F087002680F8E060CC
:100B0000937A507A1B0103EB101000F57A700BF00A
:100B100077F951490BF0C8F9C8F820002B7B687BA6
:100B20001B1103EB001000F57A700BF069F94A49CC
:100B30000BF0BAF9C8F828002B7BE87A1B0203F403
:100B40007063184400F57A700BF05AF942490BF0C3
:100B5000ABF9C8F82400EB7BA87B1B0203F470639D
:100B6000184400F57A700BF04BF93B490BF09CF9F7
:100B7000B246D8F80040C8F82C00E2E6002680F81B
:100B8000E060937A507A1B0103EB101000F57A7045
:100B90000BF036F930490BF087F9C8F810002B7BC1
:100BA000687B1B1103EB001000F57A700BF028F93D
:100BB00029490BF079F9C8F818002B7BE87A1B0259
:100BC00003F47063184400F57A700BF019F92249A8
:100BD0000BF06AF9C8F81400EB7BA87B1B0203F446
:100BE0007063184400F57A700BF00AF91A490BF09B
:100BF0005BF9B246C8F81C00D8F80040A1E6022113
:100C0000164809F00FFB164809F0A2FD0621154809
:100C100009F008FB3B460A2298F8D010104809F06A
:100C2000A7FD1921104809F0FDFA23680393D8F8AD
:100C3000DC20D8F8E430039909481A44511A3B469D
:100C40000A2209F095FD064809F082FDD9E600BFA9
:100C50000000A04018D0FF1F6F12833AE817010070
:100C6000D887FF1F98040100A00401002DE9F84374
:100C70000026D0F8B080C0F890608146041F00F1D3
:100C80002C0754F8045F414628460BF0C9FA09497D
:100C900050B128460BF0A6FA30B1304629460AF08A
:100CA000FBFF0646C9F89000BC42EAD13046BDE8D9
:100CB000F88300BF0000A04002299ABF00EB81002A
:100CC000D0F89400002070473E2998BF80F8D010DB
:100CD000704700BF90F8B800704700BF90F8B900A7
:100CE000704700BFC0F8CC10704700BF80F8B81044
:100CF000704700BFC0F8B410704700BF80F8B9104B
:100D0000704700BF30B50F4CC0F8B01083B020461C
:100D10000D4609F01DFD204609F01AFD28460AF08F
:100D200019FC022502460B460095204609F068FD95
:100D3000204609F00DFD204603B0BDE8304009F023
:100D400007BD00BFD887FF1F70B5064600F1280415
:100D500000F565552046E834FFF788FBAC42F9D131
:100D600006F58875012428460021FFF7BFFF2146BC
:100D700028460134FFF7A8FF3F2C05F1E805F2D122
:100D800043F6481400250548054A064B3555002111
:100D900030617161B261F361304670BD00007A4428
:100DA000000048430000C8C270B500F588740125F2
:100DB00000260DE0012620460021FFF79FFF29466F
:100DC00020460135FFF780FF3F2D04F1E8040AD0EB
:100DD0002046FFF77FFF0028EDD02046FFF77EFF7B
:100DE0000028E7D170BD304670BD00BF43F64C13FC
:100DF0002DE9F041002200F565578046C2500C37BE
:100E000000F5887400F5655602E0E834B4420DD070
:100E10002046FFF75FFF0028F7D020463D68FFF728
:100E2000F9FBE8342844B4423860F1D143F64C135E
:100E300058F80300BDE8F08138B50C78A4F121031F
:100E4000072B98BF183CA4F14103072B98BF303CF7
:100E5000A4F16203052B154609D8E823483C03FB9F
:100E600004002830FFF73AFB012D0AD038BDE823F3
:100E700003FB04002830FFF731FB012DF6D1002CD5
:100E8000F4D0064809F064FC2146044809F0B0FC9F
:100E90000B210348BDE8384009F0C4B9D887FF1FCB
:100EA000BC0401000B68A3F5D8732DE9F0411E2B9B
:100EB00011D8DFE803F0128581107D797510716D0E
:100EC000691065615D10595551104D494510413DFE
:100ED000391035312D00BDE8F0814FF000080125B3
:100EE000012A174604460E466ED0E82000FB054452
:100EF000283420460121FFF7F9FE20460121FFF7A3
:100F0000FDFE324641462046BDE8F041FFF708BDF0
:100F10004FF002080825E3E74FF001080825DFE756
:100F20004FF000080825DBE74FF002080725D7E758
:100F30004FF001080725D3E74FF000080725CFE75A
:100F40004FF002080625CBE74FF001080625C7E75A
:100F50004FF000080625C3E74FF002080525BFE75C
:100F60004FF001080525BBE74FF000080525B7E75E
:100F70004FF002080425B3E74FF001080425AFE75E
:100F80004FF000080425ABE74FF002080325A7E760
:100F90004FF001080325A3E74FF0000803259FE762
:100FA0004FF0020845469BE74FF00108022597E7FE
:100FB0004FF00008022593E74FF0020801258FE764
:100FC0004FF0010845468BE7094809F0C1FB294667
:100FD000074809F00DFC3946064809F023F9414657
:100FE000034809F005FC024809F0B2FB7DE700BFA9
:100FF000D887FF1FC8040100704700BF704700BFBB
:101000002DE9F043002383B00646036000F58874A1
:10101000012504E001353F2D04F1E80466D02046A7
:10102000FFF758FE0028F5D04E4800F0EDFC2946A9
:101030004D4800F0E9FC2046FFF718FE0AF08AFA56
:1010400002460B46494800F0DFFC2046FFF776FADF
:1010500080462046FFF78EFA074640460AF07AFAA5
:101060008046384689460AF075FA42464B46CDE935
:1010700000013F4800F0C8FC00212046FFF71CFE9D
:10108000012180462046FFF717FE074640460AF03A
:1010900061FA8046384689460AF05CFA42464B4679
:1010A000CDE90001334800F0AFFC2046FFF7DEFD3C
:1010B000014630680AF0F0FD30602046FFF7DEFBA5
:1010C000B1690BF08FF8002833D12046FFF7A6FA5C
:1010D000F1690BF0A5F800289CD02046FFF79EFA96
:1010E00001353F2DF06104F1E80498D170680AF0F1
:1010F00087FE014630680AF08BFF71693060044654
:101100000BF08EF800B17461316920460BF06AF87B
:1011100000B134610B2007F0BDFB43F64813F35CCC
:1011200060B99BB143F648130122F25403B0BDE805
:10113000F0832046FFF7A2FBB061C6E753B943F640
:1011400048130022F25403B0BDE8F0830A4800F0CF
:1011500089FCE7E7094800F06FFC43F648130022DA
:10116000F254F0E75C0C0100CC040100080501001A
:101170001C05010048050100640501009C050100F3
:10118000104B70B50646836000F5887400F5655510
:1011900002E0E834AC4213D02046FFF79BFD002864
:1011A000F7D02046FFF7CAF9B1680BF01BF800280A
:1011B000EFD02046FFF7C2F9E834AC42B060EBD183
:1011C000B06870BD0000A040002370B50646C36043
:1011D00000F5887400F5655502E0E834AC4213D0A0
:1011E0002046FFF777FD0028F7D02046FFF7C2F929
:1011F000F1680BF015F80028EFD02046FFF7BAF998
:10120000E834AC42F060EBD1F06870BD0068704724
:10121000416070472DE9F041884617461E4600F5AB
:10122000887400F5655502E0E834AC4213D02046DE
:10123000FFF750FD0028F7D020464146FFF752FD4A
:1012400020463946FFF75EFD20463146E834FFF779
:1012500051FDAC42EBD1BDE8F08100BF2DE9F84370
:1012600043F644130027C7502B4A2C4B426200F52B
:10127000655680464FF000090362043600F5887415
:1012800000F5655502E0E834A54213D02046FFF78B
:1012900021FD0028F7D03368013333602046FFF783
:1012A000D5F91F490AF0BCFF88B9E834A54207F117
:1012B0000107EBD143F6441358F80300C01B0AF0B2
:1012C0009FFD014648460AF0A3FEBDE8F88320468C
:1012D000FFF7BCF9014648460AF0DEFC814620468D
:1012E000FFF79CF9D8F820100AF09AFF70B9204651
:1012F000FFF7C4FAD8F824100AF074FF0028C2D00F
:101300002046FFF7BBFAC8F82400BCE72046FFF7E9
:1013100085F9C8F82000EAE700C0794400C079C424
:1013200000008CC2006A7047406A7047F8B50746F3
:10133000002600F5887400F5655502E0E834AC42FB
:101340000FD02046FFF7C6FC0028F7D02046FFF755
:1013500033F9014630460AF09FFCE834AC420646B9
:10136000EFD143F64413F8580AF04AFD01463046DF
:101370000AF04EFEF8BD00BF2DE9F04F06468FB0D3
:1013800083488B4600F0E8FA814800F0E5FA80488F
:1013900000F0E2FA43F644133046F2580D92FFF79C
:1013A00025FD73680C93074630680AF0D3F8804631
:1013B00030468946FFF7BAFF82463046B468F56882
:1013C000FFF74CFF0AF0C6F8CDE90A01214628468E
:1013D0000AF060FC6F490AF067FD0AF0BBF8CDE93E
:1013E000080128460AF0B6F8CDE9060120460AF0C1
:1013F000B1F8CDE9040150460AF0ACF80D9A0C9B07
:10140000CDE90201CDE90089114663483A4600F072
:10141000A3FA5F4800F0A0FA06F588764FF00109BC
:101420004FF0000A07E009F10109B9F13F0F06F199
:10143000E80600F0A5803046FFF74CFC0028F2D00B
:101440003046FFF765F83046FFF766F83046FFF79D
:1014500067F83046FFF768F80821504808F0E2FEC8
:1014600049464F4809F0C4F9B9F1090F40F38B80A0
:1014700002214C4808F0D6FE3046FFF7F7FB0AF091
:1014800069F85FFA8BF802460B46CDF800804448B5
:1014900009F0B6F90121444808F0C4FE554600247D
:1014A00020E00621414808F0BDFE29463C4809F0ED
:1014B0009FF902213E4808F0B5FE21463046FFF76D
:1014C00037F80AF047F8CDF8008002460B4634485A
:1014D00009F096F901340121334808F0A3FE0C2CE1
:1014E00009D03D46092D05F10107DADC012131481B
:1014F00008F098FED5E72A4809F02AF909212E4874
:1015000008F090FE00213046FFF7D6FB0AF022F8E3
:10151000022402460B460094214809F071F90A2181
:10152000264808F07FFE01213046FFF7C5FB0AF090
:1015300011F8009402460B46194809F061F90A2196
:101540001F4808F06FFE21463046FFF7B5FB0AF052
:1015500001F8009402460B46114809F051F90121A7
:10156000184808F05FFE09F101090D4809F0F0F88C
:10157000B9F13F0F0AF10C0A06F1E8067FF45BAF00
:101580000FB0BDE8F08F01210A4808F04BFE6FE76D
:101590005C0C010000007A444C080100EC080100DA
:1015A000D887FF1FE8170100F8080100FC080100B8
:1015B000DC0A0100EC0A0100040901001009010025
:1015C0001C090100280901002DE9F04F85B000F544
:1015D00088758A4603929B462E464FF0010806E026
:1015E00008F10108B8F13F0F06F1E8067BD030465C
:1015F000FFF770FB0028F3D000230A2251467D48F4
:1016000009F0B6F801217C4808F00CFE039809F0B7
:10161000A1FF00230246009376480B4609F0F0F83C
:101620000121754808F0FEFD5946724809F0E0F8BE
:101630000121714808F0F6FD41466E4809F0D8F8DE
:1016400001216D4808F0EEFD00244FF0020921460B
:101650003046FEF76DFF09F07DFFCDF800900246A1
:101660000B46644809F0CCF801340121624808F0C7
:10167000D9FD082C4FF00207E9D100213046FFF7D1
:101680001BFB09F067FF009702460B46594809F01B
:10169000B7F80121584808F0C5FD01213046FFF791
:1016A0000BFB09F057FF009702460B46514809F023
:1016B000A7F80121504808F0B5FD39463046FFF73C
:1016C000FBFA09F047FF009702460B46494809F02C
:1016D00097F808F10108474809F03AF8B8F13F0FC8
:1016E00006F1E80683D101274FF0000904E0013735
:1016F0003F2F05F1E80579D02846FFF7EBFA0028DF
:10170000F5D000230A2251463C4809F031F8012166
:10171000394807F0D5FB039809F01CFFCDF800907D
:1017200002460B46354809F06BF80121324807F0B4
:10173000C7FB5946314809F05BF801212E4807F0F4
:10174000BFFB39462D4809F053F801212A4807F01C
:10175000B7FB00244FF0020821462846FEF7E8FEBA
:1017600009F0F8FECDF8008002460B46234809F048
:1017700047F801340121204807F0A2FB082C4FF064
:101780000206E9D100212846FFF796FA09F0E2FEA9
:10179000009602460B46194809F032F80121164816
:1017A00007F08EFB01212846FFF786FA09F0D2FEEA
:1017B000009602460B46114809F022F801210E4816
:1017C00007F07EFB31462846FFF776FA09F0C2FEA5
:1017D000009602460B46094809F012F801370748FF
:1017E00008F0B6FF3F2F05F1E80585D105B0BDE84B
:1017F000F08F00BFD887FF1FC8040100C887FF1FF4
:10180000014B1870704700BF2087FF1F0278002A25
:1018100000F0908070B5034682B00D46252A2AD18B
:1018200058785C1C08B325282FD0732831D0642841
:1018300024D0692822D066284FD07A2859D0782819
:1018400035D058282FD062283ED0422838D06C2876
:1018500014D0632812D0742857D054285FD008F0D1
:1018600065FD6278631C002AD8D1344802B0BDE817
:10187000704008F06DBF18781C46F0E72B1D2968F2
:101880002E481D4608F0B4FFEBE7104608F04EFD69
:10189000E7E72E6830460BF013FB0146304604356F
:1018A00008F0C0FCDDE70221254808F0BBFC2E1D36
:1018B0002968224800231022354608F059FFD0E756
:1018C0000221204808F0AEFC2E1D29681B48002389
:1018D0000222354608F04CFFC3E7073525F007051F
:1018E0000321D5E9002315480091083508F088FF49
:1018F000B7E7073525F007050021D5E900230F4894
:101900000091083508F07CFFABE7296801290EBF7C
:101910000D480E480121043508F084FCA1E72B682E
:10192000012B07BF04210A480A480521043508F0A5
:1019300079FC96E7014808F00BBF00BFD887FF1F6E
:101940002C090100300901003409010038090100A7
:101950003C090100440901000FB400B583B004A99B
:1019600051F8040B0191FFF751FF03B05DF804EB50
:1019700004B0704770B51B4B1B4C1B6882B00D4602
:101980000193019B2360194604460023164617481D
:101990000A2208F0EDFE0321154808F043FC032C51
:1019A00007D8DFE804F01A1510020521114808F0E5
:1019B00039FC0221104808F035FC31462846FFF773
:1019C00025FF02B070BD07210C4808F02BFCF0E7A2
:1019D00004210B4808F026FCEBE70521094808F034
:1019E00021FCE6E718D0FF1F5492FF1FD887FF1F86
:1019F0004C09010068090100DC0A010060090100CE
:101A000058090100500901000FB400B5094B1878BE
:101A100083B020B103B05DF804EB04B0704705ABB0
:101A20001A4604990193FFF7A5FF03B05DF804EB94
:101A300004B070472087FF1F0FB4094B00B51B7817
:101A4000012B83B004D903B05DF804EB04B07047F8
:101A500005AB1A46049901930120FFF78BFFF2E7CB
:101A60002087FF1F0FB40B4B00B51B78032B83B0EF
:101A700004D903B05DF804EB04B0704705AB1A4617
:101A8000049901930320FFF775FF03B05DF804EBA1
:101A900004B070472087FF1F30B4074D074C08493A
:101AA00000232B70236003654365836580F85C30F9
:101AB0000B6030BC704700BF6092FF1F5C92FF1F3D
:101AC0005892FF1F0A4A0B49D06D936D03FB00F338
:101AD0004FF47A7000FB03F0642310B50B600AF03A
:101AE0008FF90549054C0AF093FA206010BD00BF3C
:101AF0004893FF1F3487FF1FE4388E3E9892FF1FE4
:101B000038B5044608460D460BF0DAF9236802465C
:101B100029465B68204698470546204608F018FE8F
:101B2000284438BD2DE9F8434748484D484F494CB3
:101B3000FFF712FF484BDFF84CE14849484A494853
:101B40005D601226484D1E70DF600026474F1C6105
:101B5000C3F818E0464C59614FF00C0E45495A62E3
:101B60009862454A4548DD621E63454D5F6340F615
:101B70001C460A279C63C3F854E041F20404DFF8D2
:101B800008E19964DA64022101221862C3F8C450A2
:101B900000204FF07C55DE661F6764264FF4967771
:101BA0005C67C3F81CE03224C3F83CE04FF05A0EE7
:101BB000597059721A729A6583F840009F661F66C1
:101BC0005C665D64DE654FF47A78C3F878E0DFF830
:101BD000BCC0D867C3F88010C3F88400C3F89C4029
:101BE000C3F8AC40DFF8A8E0C3F8A80044F62069C9
:101BF000C3F8B420C3F8B810FF2741F28831052498
:101C000083F8C8204FF4FA7083F8C92040F2D662F6
:101C1000C3F8BC601D65C3F8A080C3F890C0C3F8CA
:101C200094E0C3F88C90C3F8B070A3F8C240A3F856
:101C3000CA00C3F89810A3F8C010A3F88820A3F82E
:101C40008A20BDE8F88300BF7009010020A10700C9
:101C500066668640000040404893FF1F3333834050
:101C6000CDCCCC3D00008242000020C100002042CB
:101C70000000A0409A9979400AD7233D333373403E
:101C80009A99993ECDCC4C40CDCC4C3E0000684258
:101C900000C02044F0B54FF47A6087B006F030FE03
:101CA00000210F2006F004FE00210E2006F000FEA9
:101CB0000021112006F0FCFD0021102006F0F8FDA7
:101CC0000021122006F0F4FD0021132006F0F0FDA3
:101CD00001210B2006F0ECFD00210B2006F0D4FDC5
:101CE00001210C2006F0E4FD00210C2006F0CCFDC3
:101CF0000121142006F0DCFD0021142006F0C4FDB3
:101D00000121152006F0D4FD0021152006F0BCFDB0
:101D10000121162006F0CCFD0021162006F0B4FDAE
:101D20000121172006F0C4FD0021172006F0ACFDAC
:101D30000121052006F0BCFD0021052006F0A4FDD0
:101D40000121062006F0B4FD994C9A4D0021062091
:101D500006F09AFD01210D2006F0AAFD20880AF068
:101D60004BF80146162006F00DFD20880AF044F8D5
:101D70000146172006F006FD20880AF03DF80146CE
:101D8000052006F0FFFC20880AF036F80024014602
:101D9000062006F0F7FC00942346874A87498848C6
:101DA00005F05EFA2B79834985486FF30003E2B2B0
:101DB00001342B7105F01AFA082CF3D109242B7980
:101DC0007C497F4843F00103E2B201342B7105F0F6
:101DD0000DFA0D2CF3D17B4D2B681021D3F8840024
:101DE00005F010FF2B681021D3F8840005F09EFF4A
:101DF0002B680221D3F8840005F05AFE2B680221DB
:101E0000D3F8840005F0E2FF2B680F21D3F884009B
:101E100006F0CAF80C216C4808F004FA6B4808F088
:101E200097FC21466A4808F0FDF9684808F090FCE4
:101E300040F2836006F022FE644808F089FC172116
:101E4000644808F0EFF9614808F082FC624B1B78A7
:101E50009A0600F1E580604B1B781B0700F1EC80CF
:101E60005D4B1B785F0700F1F3805B4B1B789E078F
:101E700000F1FA80594B1B781D0600F10181574B88
:101E80001B785C0600F10881544B1B78980600F122
:101E90000F81524B1B78590700F116814F4B1B786D
:101EA0001A0700F11D814D4B1B789B0700F124811F
:101EB000464808F04DFC72B6494A4CF220534DF6A4
:101EC00028112024138023461180013BFDD1454D6C
:101ED0004548464900234FF480562E8003800B80EE
:101EE00032F80E3C9BB243F0D30322F80E3C62B6AC
:101EF00040F2413007F06EF921463D483D4D08F073
:101F000091F9324808F024FC05F1D0062F462C4602
:101F1000601B06F0D3F904F8010BB442F8D13B780A
:101F2000122B04D0294808F013FCFFF7FBFD3248C0
:101F3000324CFFF763F80420FFF762FC304B2E4869
:101F400000221A60FFF758F801210D2006F09CFCD2
:101F5000B96D2948FFF75CF93B6D7A6C97F8401032
:101F60002548FFF757F9274B27491B68274AD7F819
:101F7000A400126881FB0351DB17A3EB211313FBB1
:101F800002F30128238000F0BF80214B214C1A6806
:101F90000592059D1A68049204981B6803931E49D4
:101FA0001E4B039A256008601A6007B0F0BD00BFA1
:101FB0002887FF1F2C94FF1F0CD0FF1F20A10700B4
:101FC00070CEFF1FE894FF1F90090100D887FF1F04
:101FD000A0090100B009010001F0074000F007402E
:101FE0000E2005400420054006200540162005402F
:101FF000B40A01004893FF1F2095FF1FF494FF1FB0
:102000007492FF1F6487FF1F1F85EB516087FF1FBE
:1020100018D0FF1F1C95FF1F3494FF1FF894FF1F5B
:1020200021213C4808F0FEF83B4808F091FB3B4B6F
:102030001B781B077FF514AF0C21394808F0F2F824
:10204000354808F085FB354B1B785F077FF50DAFF2
:102050000E21344808F0E6F82F4808F079FB2F4BA2
:102060001B789E077FF506AF17212F4808F0DAF896
:10207000294808F06DFB2D4B1B781D067FF5FFAE40
:102080000E212B4808F0CEF8234808F061FB274BBF
:102090001B785C067FF5F8AE1221264808F0C2F8DE
:1020A0001D4808F055FB214B1B7898067FF5F1AED3
:1020B0001321214808F0B6F8174808F049FB1B4BDC
:1020C0001B7859077FF5EAAE1C211C4808F0AAF8D6
:1020D000114808F03DFB154B1B781A077FF5E3AE5E
:1020E0001921174808F09EF80B4808F031FB0F4BF8
:1020F0001B789B077FF5DCAE1821124808F092F898
:10210000054808F025FBD3E64FF4967006F0F8FB7F
:102110003BE700BFC8090100D887FF1F01F0074057
:10212000EC090100FC0901000C0A010000F0074065
:10213000240A0100340A0100480A01005C0A010077
:102140007C0A0100980A010070B5464C464D47488C
:10215000E66800232B70FFF737F8014630460AF097
:1021600041F808B104232B704048FFF709F82169B2
:102170000AF038F818B12B7843F010032B703B4865
:10218000FFF7D0F8A16A0AF04BF818B12B7843F0AA
:1021900040032B70002335486B70FFF7C5F8E16AE8
:1021A000314E0AF01FF808B10123737000232F4845
:1021B000EB70FFF709F805462C482B4EFEF7E0FFC1
:1021C0000146284609F066FDE16B0AF029F808B1DE
:1021D0000123F370264D254800232B70FEF7F4FFF2
:1021E000616A0646E06809F055FD014630460AF08E
:1021F00017F808B104232B701C48FEF7C1FF616A71
:102200000646206909F048FD0146304609F0EAFF1C
:1022100018B12B7843F010032B701448FFF782F8A5
:10222000A16B0646A06A09F035FD0146304609F06B
:10223000F7FF18B12B7843F040032B7000230B48B5
:102240006B70FFF771F8A16B0546E06A084C09F066
:1022500023FD0146284609F0C5FF08B1012363703C
:1022600070BD00BF4893FF1F4493FF1F2095FF1FC1
:10227000DC94FF1F2DE9F0417C4C2368012B82B0D8
:1022800031D0022B00F0A880032B00F0C8803BBBAC
:10229000774B784AD3F8AC10D3F8B03012685B1A99
:1022A000632B0EDD744803FB02F380FB0302DB1794
:1022B000C3EB62131944062002B0BDE8F04106F0FA
:1022C00063B96E4803FB022380FB0302DB17C3EBF9
:1022D00022121144062002B0BDE8F04106F054B9C4
:1022E00002B0BDE8F081664E33680A33B3F57A7FF9
:1022F00000F3B7801846336009F082FD614909F0A8
:10230000D3FD80465A4DD5F8AC0009F079FD07465B
:10231000D5F8B00009F074FD394609F0BBFC414620
:1023200009F0C2FD584909F073FE394609F0B4FCC2
:1023300009F080FF0146062006F026F902215348E5
:1023400007F070FF524808F003FA0621514807F0E1
:1023500069FF306809F054FD4A4909F0A5FD09F00C
:10236000F9F8022702460B460097494808F048FA58
:102370000D21494807F056FFD5F8AC0009F040FDA3
:102380008046306809F03CFD3E4909F08DFD064667
:10239000D5F8B00009F034FD414609F07BFC014658
:1023A000304609F081FD384909F032FE414609F016
:1023B00073FC09F0CFF800970B460246344808F04A
:1023C0001FFA3946314807F02DFF314808F0C0F9AF
:1023D0002368022B7FF458AF294B254E00221A6048
:1023E000D6F8AC0009F00CFD0546D6F8B00009F0AF
:1023F00007FD294609F04EFC002109F055FD224950
:1024000009F006FE294609F047FC09F013FF0146D2
:10241000062006F0B9F82368032B7FF438AF184B79
:10242000134E4FF47A721A60D6F8AC0009F0E8FC4B
:102430000546D6F8B00009F0E3FC294609F02AFC6D
:10244000114909F031FD104909F0E2FD294609F072
:1024500023FC09F0EFFE0146062006F095F82368FC
:1024600015E700234FF0000833604BE7BC94FF1FD3
:102470004893FF1F3487FF1F1F85EB51CBF08D283A
:102480007892FF1FCDCCCC3D0000C842E817010078
:10249000D887FF1FD80A0100E00A010070B5B548CF
:1024A000B54C08F055F9B34808F052F9B14808F0B6
:1024B0004FF90D21B14807F0B5FED4F8A830012B33
:1024C00011D0AF4CAB48217800230A2208F050F914
:1024D0002378052B67D8DFE813F006010B01100104
:1024E00015011A0101010921A64807F09BFEA64823
:1024F000FEF746FE216909F075FE18B10F21A348C9
:1025000007F090FEA048FEF75FFEE16809F088FE44
:1025100018B10E219E4807F085FE9B48FEF754FE39
:1025200005469948FEF72CFE0146284609F0B2FB05
:10253000E16B09F075FE18B11121964807F072FEA3
:102540009148FEF78BFEA16A09F06AFE18B10C21D2
:10255000914807F067FE8C48FEF780FEE16A09F0BB
:1025600041FE18B10D218D4807F05CFE8C4B86486A
:102570001B68012B00F0E880FEF702FE21697E4D0A
:1025800009F04EFE78B18048FEF71EFEE96809F0BA
:1025900029FE40B17A4B1B78052B00F0E68008211C
:1025A000804807F03FFE02217F4807F03BFE1220E3
:1025B00006F070F9012800F0AF80112006F06AF9EA
:1025C000012800F0B380794B1B68012B00F0B78025
:1025D00002217548764C07F025FE764B6548196850
:1025E00008F006F9634808F0B3F80421724807F0D0
:1025F00019FE0B2006F04EF9002301460A225D4821
:1026000008F0B6F80C2006F045F9002301460A222E
:10261000584808F0ADF8142006F03CF900230146B4
:102620000A22544808F0A4F8152006F033F90A22CB
:10263000002301464F4808F09BF806215F4807F049
:10264000F1FD2368DD074FF001014CBF5C485D4898
:1026500007F0E8FD236898074FF001014CBF584888
:10266000584807F0DFFD23685A074FF001014CBFBF
:102670005348544807F0D6FD23681B074CBF504809
:102680005048012107F0CEFD04214F4807F0CAFD54
:10269000112006F0FFF8002301460A22354808F011
:1026A00067F8102006F0F6F8002301460A223148A8
:1026B00008F05EF8122006F0EDF8002301460A2229
:1026C0002C4808F055F8132006F0E4F800230146E2
:1026D0000A222848BDE8704008F04AB807213B4864
:1026E00007F0A0FD5FE70621394807F09BFD5AE798
:1026F0000721384807F096FD55E70721364807F0CF
:1027000091FD50E70821354807F08CFD4BE70B2180
:10271000334807F087FD46E70E21324807F082FD77
:10272000112006F0B7F801287FF44DAF0A212E489A
:1027300007F078FD1D4B1B68012B7FF449AF112179
:102740002A4807F06FFD43E7FEF71AFD216A09F0FA
:1027500067FD00283FF423AF1621254807F062FDEE
:102760000A21244807F05EFD1DE70A21214807F0F1
:1027700059FD18E7D887FF1F4893FF1FF00A010093
:10278000D894FF1F000B01002095FF1F0C0B0100C8
:102790001C0B01002C0B0100400B0100500B010031
:1027A0008492FF1F840B0100E8170100F094FF1FC3
:1027B0001894FF1FC094FF1FF80B0100000C0100CC
:1027C000080C0100D41901000C0C0100C00B010021
:1027D000900B0100980B0100AC0B0100B40B010041
:1027E000A00B0100C80B0100D80B0100E40B010095
:1027F000600B0100780B01002DE9F04FAB4CD4F8D1
:102800008060012E8DB000F07981032E00F0CC8025
:10281000DFF8DC82A64FA74EE36FA748012B09BF64
:102820003168316801F10041316005F039FC3B68E5
:10283000002B40F09F80A048DFF8B49205F006FC22
:102840003B68C8F800000546002B44D1D4F880301E
:10285000964A012B53D09949284609F0E1FCC0B9AA
:102860009749284609F0BEFC98B9964A964B1268DB
:102870000B920B9A1A60D4F8B40009F0C1FA2946F9
:1028800009F012FB0023C8F8000033600DB0BDE86A
:10289000F08FDFF830A28C4FDAF800300A930A98F4
:1028A0003B68DFF85092C01A09F0A6FA294609F0F1
:1028B000FBFA864909F0ACFB844909F0A9FBD9F879
:1028C000001009F0E9F9DAF800300993099BC9F81A
:1028D00000003B60CFE708F03DFE022502460B46B4
:1028E00000957B4807F08CFF04217A4807F09AFC9A
:1028F000D4F88030D9F800506C4A012BABD1764B1C
:102900001B68012B00F0DA81022BB4D1D2F88C7055
:10291000384609F075FA294609F064FC40B9784256
:1029200009F06EFA294609F07BFC002800F0F981D5
:10293000DFF890A1644FDAF80030079307983B68FE
:10294000DFF8B091C01A09F057FA294609F0ACFA3D
:102950005E4909F05DFB5D4909F05AFBD9F80010AA
:1029600009F09AF9DAF800300693069BC9F80000DE
:102970003B6080E7504805F069FB08F0EBFD02255D
:1029800002460B460095524807F03AFF0321534890
:1029900007F048FCD4F88C104D4807F029FF0321BC
:1029A0004E4807F03FFC46E74D4D4B4F2B68DFF894
:1029B0004081D3F884000F2101233B6005F0F4FA35
:1029C0003B683B4F012B3B6800F0BF80002B40F081
:1029D0003D812B68DFF82091D3F88400436B19699F
:1029E0008EB2C9F8006005F061F8B4F88A2040F6AC
:1029F000E44303FB06F1B1FBF0F0801A00B209F0EA
:102A0000FFF938492B4E8246D4F8900009F04CFA71
:102A10000146504609F0FCFAD9F800303060632BCB
:102A2000DFF8D4A000F30681002333603B68002B5D
:102A30003FF4F2AE02212C4807F0F4FB2B68D9F8E2
:102A40000050D3F8840040F6E44303FB05F505F09D
:102A50002DF8B5FBF0F009F0CFF90546B4F88A007F
:102A600009F0CEF90146284609F014F908F072FD84
:102A7000022502460B460095154807F0C1FE29467F
:102A8000194807F0CFFB306808F064FD0095024656
:102A90000B460F4807F0B4FE2946144807F0C2FB66
:102AA0002946114807F0BEFBB6E600BF4893FF1F5A
:102AB0001495FF1F8092FF1F2093FF1F0000FA4311
:102AC0000000FAC318D0FF1F6492FF1F00007A4471
:102AD000D887FF1F580C01005487FF1F540C0100BA
:102AE000E894FF1FACC52737E8170100500C010020
:102AF0008C92FF1F9892FF1F4093FF1FDFF80883FF
:102B0000D4F88C70D8F80050384609F079F9294685
:102B100009F086FB48B1784209F072F9014628466F
:102B200009F07EFB002840F00381A54DA54F2A68DF
:102B30000223D2F884003B600E2105F035FA3B6891
:102B4000A14F012B3B687FF441AF002B40F0FA808E
:102B50002B68DFF8B892D3F88400436B19691FFA29
:102B600081FBC9F800B004F0A1FFB4F88830974E9B
:102B700040F6E44A0AFB0BFBBBFBF0F0C01A00B2C4
:102B800009F03EF992498346D4F8940009F08CF993
:102B90000146584609F03CFA2A68D9F800303060FE
:102BA000D2F884000AFB03FA04F080FFB4F88830FE
:102BB000BAFBF0F00FFA80FAC3EB0A03002BB4F86B
:102BC000C220B8BF5B429342BCBF002333603B6866
:102BD000002B3FF421AE02217E4807F023FB2B6837
:102BE000D9F80050D3F8840040F6E44303FB05F520
:102BF00004F05CFFB4F88810B5FBF0F000B2411AA5
:102C0000754807F0F5FD0221724807F00BFB3068AC
:102C100008F0A0FC022502460B4600956E4807F01E
:102C2000EFFD03216D4807F0FDFA2946694807F0DA
:102C3000F9FAF1E52B68D3F8840004F037FFDAF8ED
:102C4000003064389842FFF4EFAEEFE66248DFF8F8
:102C5000BC91DFF86CA107F07BFD0C21604807F008
:102C6000E1FA0C215F4807F0DDFA2A683B68D2F8E8
:102C70008400426B11698EB2C9F80060002B3FF4EA
:102C8000B2AE04F013FF40F6E44100230A2201FB38
:102C900006F1B1FBF0F1504807F06AFD02214D4802
:102CA00007F0C0FAB4F88A104B4807F0A1FDDAF833
:102CB0000030D9F80060D3F8840094E64A492846E9
:102CC00009F0AEFA58B94949284609F08BFA30B9EB
:102CD000474A484B12680592059A1A60CBE5DFF81F
:102CE00010A1444FDAF80030049304983B68DFF8F1
:102CF0002091C01A09F080F8294609F0D5F83E491C
:102D000009F086F93C4909F083F9D9F8001008F078
:102D1000C3FFDAF800300393039BC9F800003B605F
:102D2000A9E5334A334B12680892089A1A60A2E563
:102D3000234D244F28683E604FF0FF320F2104F0EE
:102D40002FFE3DE62448DFF8C4901D4E07F000FD3D
:102D5000D4F88030012B4FF00B010CBF27482848D6
:102D600007F060FA0C211F4807F05CFA2A683B68FC
:102D7000D2F88400426B11691FFA81FBC9F800B0D8
:102D8000002B3FF4F0AE04F091FE40F6E441002346
:102D90000A2201FB0BF1B1FBF0F10F4807F0E8FC50
:102DA0000121184807F03EFAB4F888100A4807F0E5
:102DB0001FFD3368D9F800B0D3F88400D3E600BF14
:102DC000E894FF1F5487FF1F1495FF1F8092FF1F79
:102DD000ACC52737E8170100D887FF1F3C0C01005E
:102DE000400C01002C0C01000000FA430000FAC363
:102DF00018D0FF1F6492FF1F00007A44140C0100DA
:102E0000200C0100EC0A01008C92FF1F4093FF1F71
:102E10009892FF1F2DE9F0478D4D2B6884B043B980
:102E20008C4B1B680393039A42F210739A4200F290
:102E3000B880894C894F8A4EDFF86882D4F88420A4
:102E4000854B012A04D0D3F88020002A40F09680D8
:102E50008448FEF76BFA8449D4F86C90256F09F02A
:102E600023F809F00DFA626FA36FC9EB02025B1B36
:102E700080B29A42C9EB0000D4F85C90C6BF03FB55
:102E800000000132584390FBF2F02844A56D00FB8E
:102E900009F005FB00F000EB8000400008F0B0FFF7
:102EA000724909F0B5F88246306005FB09F54FF428
:102EB0007A7000FB05F008F0A3FF6C49DFF89C91E5
:102EC0000546504608F0F0FF294609F0A1F8684988
:102ED00008F0EAFF09F0AEF96328386048DD2846BB
:102EE000624909F095F864233060C9F80030D8F8D9
:102EF0000030002B39D0D4F88030574D012B43D00F
:102F0000032B00F09780022B00F08F80022159489C
:102F100007F088F9584B186808F01CFB0224024699
:102F20000B460094554807F06BFC2146544807F0C7
:102F300079F921464F4807F075F939684F4807F08D
:102F400057FC06214F4807F06DF93068474908F0F3
:102F5000ABFF08F0FFFA009402460B46474807F023
:102F60004FFC0321484807F05DF904B0BDE8F08745
:102F70000028BCBF0023C9F80030B8E7D6F800A08D
:102F8000D3F85C909D6D90E7404B1B68012B4FF090
:102F90000A010CBF3E483F4807F044F9D5F880309D
:102FA000AEE730482C4CFEF7C1F92F49E76E266F8B
:102FB00008F07AFF09F064F9626FA36FD21B9B1BC4
:102FC00080B29A42A0EB07003BDD03FB0000531CDC
:102FD00090FBF3F31E44E06DA36D204FDFF8C48037
:102FE0003E6000FB06F003FB00F000EB80004000B9
:102FF00008F006FF1D491A4E09F00AF8D8F800300B
:10300000306001222A60002B3FF418AF02211948DA
:1030100007F008F9194807F09BFB59211E4807F0F3
:1030200001F9164807F094FB08E707211B4807F051
:10303000F9F86BE710211A4807F0F4F8D4F880305B
:1030400061E703FB00F393FBF2F31E44C3E700BF09
:103050007C92FF1F18D0FF1F4893FF1F3487FF1F6C
:103060009892FF1F2095FF1F00007A44E4388E3E9F
:103070000000C842E81701008C92FF1FD887FF1F8D
:10308000500C0100F00C0100F80C01005487FF1FE8
:10309000BC0C0100C80C0100600C0100E80C010030
:1030A000D40C01003C87FF1F30B5112083B005F020
:1030B000F1FB012818D0122005F0ECFB012813D0F9
:1030C00000210B2005F0E0FB00210C2005F0DCFBCB
:1030D0000021152005F0D8FB2649274B01200022AE
:1030E00008701A6003B030BD0121152005F0CCFB3B
:1030F000224A234C234B1268D4F8981001921B6883
:10310000019A1D4D0B4493424FF00201296005D9ED
:1031100001210C2005F0B8FB03B030BDD4F8A000AD
:1031200008F06EFE184B196809F05CF80028EFD122
:1031300001210B2005F0A8FB94F8C83003242C6073
:1031400043B10C4B02221A7000210C2005F09CFBAD
:1031500003B030BD122005F09DFB012808BF054BD0
:103160004FF0110008BF1C7005F094FB0128EBD153
:10317000E7E700BFD894FF1F1095FF1F18D0FF1F6F
:103180004893FF1F1C95FF1F8C92FF1FF0B5684EE0
:10319000684D34682B689C4287B039D014F0010127
:1031A00055D014F0020149D014F004013DD0E307DA
:1031B0000ED52B68DF070BD45F4F3A68002A00F06A
:1031C00082805E4B1B680193019B93426DD83468EB
:1031D000A0070DD52B6899070AD4594F3A68002AE1
:1031E0004CD0564B1B680393039B934238D83468EA
:1031F00062070DD52B685B070BD4524F3A68002A43
:103200007ED04E4B1B680593059B934268D834686B
:103210000CB107B0F0BD2146162005F0B5F92146E6
:10322000172005F0B1F907B0F0BD052005F0ACF9A5
:103230002B68346803F0FB032B60B8E7172005F018
:10324000A3F92B68346803F0FD032B60ACE716206C
:1032500005F09AF92B68346803F0FE032B60A0E7B1
:10326000394B1720D3F89C1005F08EF92B68346881
:1032700043F0020300222B603A60B9E7334807F0BD
:1032800067FA0C21324806F0CDFF304807F060FAAB
:10329000FF21172005F078F9284B2E4A1968029172
:1032A000029912680A443A609CE7274B1620D3F82B
:1032B0009C1005F069F92B68346843F00103002283
:1032C0002B603A6084E7FF21162005F05DF91B4B67
:1032D000204A19680091009912680A443A6071E71F
:1032E000194B0520D3F89C1005F04EF92B68346873
:1032F00043F0040300222B603A60002C89D18AE756
:10330000124807F025FA0C21134806F08BFF0F48EE
:1033100007F01EFAFF21052005F036F9074B0D4A8C
:1033200019680491049912680A443A606AE700BF78
:103330001095FF1F1894FF1F9C94FF1F18D0FF1FAC
:10334000A094FF1FA494FF1F4893FF1FD887FF1F5F
:10335000FC0C01007487FF1F0C0D01002DE9F047E4
:10336000534EDFF870813368DFF86C91D3F8840036
:10337000504D0F2104F018FE0023012222214E4857
:10338000C8F80030C9F8002006F04CFFD8F800302B
:10339000132B20DC40F6E4473368B5F888A0D3F857
:1033A0008400436B1C6904F081FBA4B2012107FB7C
:1033B00004F4B4FBF0F441485444A5F8884006F006
:1033C00031FF642005F09CFAD8F800300133132B4C
:1033D000C8F80030E0DDB5F88830394A3948A2FB3A
:1033E00003129B1A02EB5303C3F30F131946A5F8FC
:1033F000883007F0FDF91D21334806F013FF022144
:10340000324806F00FFF2F4807F0A2F93268002378
:10341000D2F88400C8F800300E2104F0C5FD022364
:1034200022212548C9F8003006F0FCFED8F800300B
:10343000132B20DC40F6E4473368B5F88A90D3F8C4
:103440008400436B1C6904F031FBA4B2012107FB2B
:1034500004F4B4FBF0F419484C44A5F88A4006F093
:10346000E1FE642005F04CFAD8F800300133132B4C
:10347000C8F80030E0DDB5F88A30114A1148A2FBE7
:1034800003129B1A02EB5303C3F30F131946A5F85B
:103490008A3007F0ADF91D210D4806F0C3FE022168
:1034A0000A4806F0BFFE0748BDE8F04707F050B9EC
:1034B000E894FF1F4893FF1F1C0D0100600D0100E1
:1034C00087611886D887FF1F400D0100E8170100AB
:1034D000640D0100C494FF1F5487FF1FA64B2DE904
:1034E000F0411B68A54CA64D40F2513108222160E5
:1034F000E271686D002B40F0EE8008F081FC696994
:10350000064608F0D1FC9F499D4F08F0CDFC08F01D
:10351000B7FE80B2031263729B4A9C4B12681B6811
:10352000A969A37215121B12E372227320726573CC
:10353000304608F0B9FC9349904D08F0B5FC08F00E
:103540009FFE83B21A1229469148A373E27304F0D6
:103550007FF8904B904A1B681288A272DEB206EB8D
:103560008601267203EB8306490046F3D71640F224
:10357000553E12124FF000081B1221736673294644
:1035800008268348C4F800E0E2726372E67184F8AA
:103590000E8084F80F8004F05BF840F256337F48C9
:1035A0002360E671FDF732FE7D4908F07DFC08F0EE
:1035B00067FE20727948FDF729FE794908F074FC0E
:1035C00008F05EFE774A7649C0F3072363721068FD
:1035D00008F01EFD08F02EFE40FA06F203466F4882
:1035E000E272A372FDF73AFE664908F05DFC08F04E
:1035F00021FE20736948FDF731FE624908F054FC52
:1036000008F018FE294640F307236148637384F8E5
:103610000E8084F80F8004F01BF8022005F070F98A
:10362000614A624B10785178207290786172D2783A
:103630001978A072987893F801E0E2722173DA7831
:10364000A07340F25A332946514884F80DE0E273E2
:103650002360E67103F0FCFF554B4D481A7859780A
:10366000227261729A78D978A272E1721A795979C4
:1036700093F806E022736173DA7984F80EE040F281
:103680005E332946E2732360E67103F0E1FF022016
:1036900005F036F9474B3E481A7859782272617224
:1036A0009A78D978A272E1721A79597993F806E07A
:1036B00022736173DA79E6714FF45C7329462360F3
:1036C00084F80EE0E27303F0C3FF3B4B1B68012B51
:1036D00006D0BDE8F08108F093FB296A064610E7A2
:1036E0002E48FDF74DFDF96C08F0D6FA80462B48C0
:1036F000FDF76AFD0146404608F074FD0028E8D059
:1037000040F2C3332548EE712B60FDF739FDBE6CE6
:10371000314608F067FDC8B12849304608F0C4FBBF
:1037200008F0AEFD80B2031268722B7200230126EE
:1037300004250322A672E57222736373A373E373F5
:103740000E491348BDE8F04103F082BF1348FDF76E
:1037500017FD1A4908F0A8FB08F092FDC0F30723F3
:103760000E482B72FDF70CFD144908F09DFB08F084
:1037700087FD6872DAE700BF8492FF1F0095FF1F84
:103780004893FF1F00002041E494FF1F6C92FF1F2D
:1037900070CEFF1F3487FF1F3887FF1F2095FF1F44
:1037A0000000C8428C92FF1F4493FF1FDC94FF1F50
:1037B0002C87FF1F5887FF1FF094FF1F00007A44DB
:1037C000F0B5A84CA84D83B006F0C6FC236828606D
:1037D000042B00F03883022B00F0B780082B47D071
:1037E000072B40F06581332801F0598500F3B6833B
:1037F000312801F03E85322843D106F0E9FC00284B
:1038000040F3548199489A4E07F034F908F0F8FAD9
:10381000984908F049FB61230122F06322602B6084
:103820001846A0F152031F2B01F20185DFE813F0C7
:10383000EB0CFF0CFF0CFF0CFF0CFF0CFF0CFF0C44
:10384000FF0CFF0CFF0CFF0CFF0CFF0CFF0CD60352
:10385000090E4F05E805BA04FF0CFF0CFF0C4A04E3
:10386000FF0C540EFF0CFF0CFF0CFF0CFF0CED0CBB
:10387000322800F07E83712800F07683312800F032
:103880008E83002B08BF73280CBF01200020002866
:1038900059D0764806F05CFF0421774806F0C2FC58
:1038A000724806F055FF1021744806F0BBFC6F48C3
:1038B00006F04EFF1321724806F0B4FC714B6B48C2
:1038C000196806F095FF694806F042FF14216E481A
:1038D00006F0A8FC654806F03BFF1E216B4806F089
:1038E000A1FC624806F034FF1521694806F09AFCF5
:1038F0005E4806F02DFF1E21664806F093FC5B48EB
:1039000006F026FF2021644806F08CFC574806F09C
:103910001FFF1921614806F085FC544806F018FF86
:1039200012215F4806F07EFC504806F011FF0D2181
:103930005C4806F077FC4D4806F00AFF5A4A002121
:1039400001231160236003B0F0BDA0F13102422ACF
:1039500097D801A151F822F05F4900007749000093
:1039600093490000AD490000CB490000F948000030
:10397000833800001B4900008338000083380000B2
:10398000833800008338000083380000833800004B
:10399000833800008338000083380000833800003B
:1039A000833800008338000083380000833800002B
:1039B000833800008338000083380000833800001B
:1039C000833800008338000083380000833800000B
:1039D00083380000833800008338000083380000FB
:1039E00083380000833800008338000083380000EB
:1039F00083380000833800008338000083380000DB
:103A000083380000833800008338000083380000CA
:103A100083380000833800008338000083380000BA
:103A20003F490000833800008338000083380000DD
:103A3000833800008338000083380000833800009A
:103A4000833800008338000083380000833800008A
:103A50008338000083380000693F0000833800008D
:103A60004B4900009C92FF1F6892FF1FD887FF1FE1
:103A70004893FF1F6F12833A741601007C160100F1
:103A8000901601002487FF1FA4160100BC16010038
:103A9000DC160100F41601001417010038170100AC
:103AA00054170100681701003C87FF1F236828682E
:103AB000062B40F08D80A0F13102402A3FF6E1AEA6
:103AC00001A151F822F000BF85470000B147000076
:103AD000FB47000021480000474800006147000004
:103AE000DD47000083380000833800008338000081
:103AF00083380000833800008338000083380000DA
:103B000083380000833800008338000083380000C9
:103B100083380000833800008338000083380000B9
:103B200083380000833800008338000083380000A9
:103B30008338000083380000833800008338000099
:103B40008338000083380000833800008338000089
:103B50008338000083380000833800008338000079
:103B60008338000083380000833800008338000069
:103B70008338000083380000833800008338000059
:103B80008338000083380000833800008338000049
:103B90008338000083380000833800008338000039
:103BA0008338000083380000833800008338000029
:103BB0008338000083380000833800008338000019
:103BC0008338000083380000693F000023682868BC
:103BD000052B40F08D80A0F13102402A3FF651AE16
:103BE00001A151F822F000BF33450000A7460000B4
:103BF0006B4600008B46000027460000514600003F
:103C000083380000833800008338000083380000C8
:103C100083380000833800008338000083380000B8
:103C200083380000833800008338000083380000A8
:103C30008338000083380000833800008338000098
:103C40008338000083380000833800008338000088
:103C50008338000083380000833800008338000078
:103C60008338000083380000833800008338000068
:103C70008338000083380000833800008338000058
:103C80008338000083380000833800008338000048
:103C90008338000083380000833800008338000038
:103CA0008338000083380000833800008338000028
:103CB0008338000083380000833800008338000018
:103CC0008338000083380000833800008338000008
:103CD00083380000833800008338000083380000F8
:103CE0008338000083380000C74600002368286836
:103CF000032B40F0A480A0F13002422A3FF6C1AD70
:103D000001A151F822F000BF153E0000E14E000075
:103D1000094F0000314F0000534F0000754F000065
:103D20009D4F0000C54F000093500000B7500000A9
:103D30008338000083380000833800008338000097
:103D40008338000083380000833800008338000087
:103D50008338000083380000833800008338000077
:103D60008338000083380000833800008338000067
:103D70008338000083380000833800008338000057
:103D80008338000083380000833800008338000047
:103D90008338000083380000833800008338000037
:103DA0008338000083380000833800008338000027
:103DB0008338000083380000833800008338000017
:103DC000833800008338000083380000DF50000093
:103DD000334A0000E34F0000015000001F50000074
:103DE0003D500000E94900000D4A00008338000002
:103DF00083380000833800008338000083380000D7
:103E00008338000083380000833800002951000007
:103E10003551000006F0DCF9002841F31182CF484B
:103E2000CF4E06F027FE0127034601466222CD4809
:103E3000B36527602A60FDF7EBF923682868012B3A
:103E40007FF41FADEDE4A0F13102402A3FF619AD39
:103E500001A151F822F000BF81480000F5480000A0
:103E6000D3480000F148000099480000B548000020
:103E7000CB480000CF4800005B48000083380000BA
:103E80008338000083380000833800008338000046
:103E90008338000083380000833800008338000036
:103EA0008338000083380000833800008338000026
:103EB0008338000083380000833800008338000016
:103EC0008338000083380000833800008338000006
:103ED00083380000833800008338000083380000F6
:103EE00083380000833800008338000083380000E6
:103EF00083380000833800008338000083380000D6
:103F000083380000833800008338000083380000C5
:103F100083380000833800008338000083380000B5
:103F200083380000833800008338000083380000A5
:103F30008338000083380000833800008338000095
:103F40008338000083380000833800008338000085
:103F50008338000083380000693F0000342801F0F6
:103F6000768171287FF48DAC002373202360286054
:103F700087E406F02DF9002840F3AD837748784EAA
:103F800006F078FD07F03CFF774907F08DFF074604
:103F90000246336D96F840107248776415E006F0DB
:103FA00017F9002840F39B836C486D4E06F062FDC4
:103FB000C0B286F84000022894BF01460021336D4C
:103FC000726C684888BF86F84010FDF723F901231A
:103FD00069202360286024E406F0BEF806F0F8F8B3
:103FE00005460028F8D15D485D4E06F0B1FB5B4800
:103FF00006F0AEFB594806F0ABFB584806F0A8FBAC
:10400000564806F0A5FB1F21584806F00BF9534807
:1040100006F09EFB1C21564806F004F9706A5549CB
:1040200007F042FF07F096FA009502460B464B4810
:1040300006F0E6FB0221504806F0F4F8474806F087
:1040400087FB23214D4806F0EDF8F06B494907F056
:104050002BFF07F07FFA009502460B463F4806F01B
:10406000CFFB0221444806F0DDF83C4806F070FB27
:104070001921434806F0D6F8B06B07F06BFA022519
:104080000B4602460095354806F0BAFB29463D48E6
:1040900006F0C8F8314806F05BFB22213A4806F0EA
:1040A000C1F8B6F8CA102D4806F0A2FB0321374824
:1040B00006F0B8F8294806F04BFB0723236042E4DA
:1040C00006F04AF806F084F805460028F8D123489F
:1040D000234E06F03DFB214806F03AFB1F4806F050
:1040E00037FB1E4806F034FB1C4806F031FB152157
:1040F000274806F097F8194806F02AFB18212548AA
:1041000006F090F82B460A2296F84010134806F065
:104110002FFB124806F01CFB28211F4806F082F8EE
:10412000706C144907F0C0FE07F014FA00950B46B6
:1041300002460A4806F064FB02210F4806F072F8B6
:10414000064806F005FB1321144806F06BF80348F7
:1041500006F0FEFA08232360FFF7F5BBD887FF1FA0
:104160004893FF1F2095FF1F6F12833A780F0100BD
:10417000980F010000007A44FC0D0100B80F010007
:10418000DC0F0100F80F0100FC0F010020100100FE
:104190003C170100B40D0100D00D0100000E01001C
:1041A00005F0DAFF06F014F805460028F8D17F483C
:1041B0007F4E06F0CDFA7D4806F0CAFA7B4806F03D
:1041C000C7FA7A4806F0C4FA784806F0C1FA112115
:1041D000784806F027F8754806F0BAFA282176489C
:1041E00006F020F87069754907F05EFE07F0B2F935
:1041F000009502460B466D4806F002FB022170480E
:1042000006F010F8694806F0A3FA16216D4806F08A
:1042100009F8F069694907F047FE07F09BF9009536
:104220000B460246614806F0EBFA0221644805F0AD
:10423000F9FF5E4806F08CFAD6F8B830002B32DD74
:104240001D21614805F0EEFF306E07F0D9FD5F4992
:1042500007F02AFE07F07EF9022502460B4600957C
:10426000524806F0CDFA0121594805F0DBFF4F48CE
:1042700006F06EFA1F21574805F0D4FF706E07F064
:10428000BFFD524907F010FE07F064F900950246A1
:104290000B46464806F0B4FA01214D4805F0C2FF2E
:1042A000424806F055FA11214B4805F0BBFFD6F8FD
:1042B000B830062B00F25287DFE813F09B07A00707
:1042C000960791078C0787074C0705F045FF05F017
:1042D0007FFF0028F9D13548354E06F039FA3348CA
:1042E00006F036FA314806F033FA304806F030FA74
:1042F0002E4806F02DFA1F21384805F093FF2B4871
:1043000006F026FA1E21364805F08CFF274806F0F5
:104310001FFA1A21334805F085FFD6F88030022BAA
:1043200001F06A80032B01F05E80012B01F06D80AB
:1043300009212D4805F076FF1C4806F009FA1421E2
:104340002A481B4F05F06EFFF16F184806F050FA2F
:10435000164806F0FDF91C21254805F063FFD6F844
:104360008410124806F044FA104806F0F1F91C21B6
:10437000204805F057FFD6F8B4100C4806F038FA7C
:104380000A4806F0E5F9D6F8805025F00205012D1F
:1043900000F0A5871321184805F044FF034806F0F4
:1043A000D7F902232360FFF7CEBA00BFD887FF1FDB
:1043B0004893FF1FE0160100140E010000007A442C
:1043C000FC0D0100400E0100580E0100CDCCCC3D8B
:1043D00054130100780E0100980E01001412010020
:1043E0003412010054120100CC120100D812010055
:1043F000F012010010130100000E010005F0ACFEE8
:1044000005F0E6FE0028F9D1B74806F0A1F9B64854
:1044100006F09EF9B44806F09BF9B34806F098F907
:10442000B14806F095F91321B04805F0FBFEAE48FF
:1044300006F08EF90D21AE4805F0F4FEAA4806F00C
:1044400087F90F21AB4805F0EDFEAB4BA648196884
:1044500006F0CEF9A44806F07BF91321A74805F031
:10446000E1FEA74BA048196806F0C2F99E4806F085
:104470006FF91221A34805F0D5FEA34B9A4819689D
:1044800006F0B6F9984806F063F911219F4805F047
:10449000C9FE9F4B9448196806F0AAF9924806F0A5
:1044A00057F90E219B4805F0BDFE9B4B8E48D3F873
:1044B000A81006F09DF98C4806F04AF91921974892
:1044C00005F0B0FE964B8848196806F091F98648C9
:1044D00006F03EF91121934805F0A4FE924B824864
:1044E000196806F085F9804806F032F910218F48E6
:1044F00005F098FE8E4B7C48196806F079F97A48E9
:1045000006F026F91C218B4805F08CFE8A4B764874
:10451000196806F06DF9744806F01AF913218748F6
:1045200005F080FE704806F013F904232360FFF7BE
:104530000ABA05F04DFE00287FF7D8AB6A48764EE0
:1045400006F098FA01226B23C6F8980022602B60CF
:1045500001E005F001FE05F03BFE0028F9D16248BC
:104560006D4D06F0F5F8604806F0F2F85E4806F08A
:10457000EFF85D4806F0ECF85B4806F0E9F8212119
:104580006F4805F04FFE584806F0E2F815216D48D7
:1045900005F048FED6F89810534806F029F9022194
:1045A000694805F03FFE504806F0D2F81E216748E2
:1045B00005F038FED6F8A0104B4806F019F9032193
:1045C000634805F02FFE484806F0C2F81E216148F6
:1045D00005F028FED6F89C10434806F009F9424839
:1045E00006F0B6F81D215C4805F01CFED6F8AC10AC
:1045F0003D4806F0FDF83C4806F0AAF81E21574851
:1046000005F010FED6F8B010374806F0F1F836483D
:1046100006F09EF8D6F8A830012B00F0FF8605239F
:104620002360FFF790B905F0D3FD00287FF75EAB5C
:104630002D48394E06F01EFA3B4BC6F8B000032257
:104640001A60FDF717FE01226B2322602B6082E7C0
:10465000314E96F8C930B3FA83F35B0901216B221E
:1046600086F8C93021602A6075E705F0B1FD0028A1
:104670007FF73CAB1C48284E06F0FCF901226B2367
:10468000C6F89C0022602B6065E705F0A1FD0028BC
:104690007FF72CAB1448204E06F0ECF9224BC6F8FD
:1046A000AC000222CCE705F093FD00287FF71EAB9B
:1046B0000D48194E06F0DEF901226B23C6F8A00062
:1046C00022602B6047E7184A0023732013602360A1
:1046D0002860FFF7D6B823682868FFF781B80E4E28
:1046E00096F8400067E400BFD887FF1F3011010033
:1046F00044110100541101009894FF1F641101003E
:104700001495FF1F78110100D494FF1F8C11010034
:10471000FC94FF1FA01101004893FF1FB01101007E
:10472000C094FF1FCC110100BC94FF1FE0110100D9
:104730008892FF1FF41101006887FF1F000E01001F
:1047400024100100481001002C0F0100601001002E
:104750003C0C010080100100A0100100C0100100FD
:1047600005F036FD00287FF731AAB948B94E06F0AA
:1047700081F965230122C6F8BC0022602B6018462F
:10478000FFF74FB805F024FD00287FF71FAAB048B7
:10479000B04E06F06FF907F033FBAF4907F038FC75
:1047A00065230122706122602B601846FFF739B83B
:1047B00005F00EFD00287FF709AAA548A54E06F0D2
:1047C00059F907F01DFBA44907F022FC65230122DB
:1047D000F06122602B601846FFF723B89D4B93F8D9
:1047E000C820002A00F06E85002283F8C82001232B
:1047F000652023602860FFF714B805F0E9FC002865
:104800007FF7E4A99248934E06F034F900EB80005C
:10481000430001226520336622602860FFF701B85B
:1048200005F0D6FC00287FF7D1A98948894E06F00B
:1048300021F900EB800043000122652073662260AD
:104840002860FEF7EEBF834AD2F8B8300133062B5A
:10485000C8BF0023C2F8B830C9E70123236005F0C0
:10486000B7FC002800F333857C4B1A68042AC4BFC8
:1048700002221A6064232B6023686420FEF7AEBF17
:10488000774A1368B3FA83F35B090121642013604C
:1048900021602860FEF7C5BF6E4ED6F8A830B3FA87
:1048A00083F35B0901226420C6F8A83022602860E7
:1048B000FEF7B7BF01236B482360FCF797FA6A4AFB
:1048C0002368106064222A60D7E7684AD9E7684AFB
:1048D000D7E7684A684F1368002B0CBF01230023F9
:1048E0004FF001001360206040F067850346E9E760
:1048F000624AC6E7624AC4E70123236005F068FC08
:10490000002805DD5248534E06F0B4F8A6F8C20060
:10491000632028602368FEF763BF0123236005F04E
:1049200057FC002805DD4A484A4E06F0A3F8C6F8B1
:104930008C000123632023602860FEF772BFFEF71E
:104940000DFD23682868FEF749BF424AD2F880303F
:104950000133032BC8BF0023C2F88030E9E73D4E86
:10496000F36FB3FA83F35B0901226320F3672260DC
:104970002860FEF756BF374ED6F88430B3FA83F37B
:104980005B0901226320C6F8843022602860FEF7AC
:1049900048BF0123236005F01BFC0028C9DD2C481B
:1049A0002C4E06F067F8C6F8B400C2E70123236076
:1049B00005F00EFC0028ABDD2548264E06F05AF81F
:1049C00007F01EFAC6F89400A2E70123236005F061
:1049D000FFFB00289CDD1E481E4E06F04BF807F03A
:1049E0000FFAC6F8900093E705F0F2FB00280DDD02
:1049F0001748184E06F03EF807F002FA164907F07D
:104A000007FB01226223306222602B6005F0E0FB8D
:104A100000280EDD0E480F4E06F02CF807F0F0F9D6
:104A20000D4907F0F5FA01226223C6F8C40022609E
:104A30002B6005F0CDFB002840F302840448054EAE
:104A400006F018F801226223F06622602B601BE05A
:104A5000D887FF1F4893FF1F00007A446887FF1F15
:104A60009894FF1F2095FF1FC094FF1FBC94FF1F49
:104A70008892FF1FD494FF1F9C92FF1FFC94FF1F7E
:104A80001495FF1F05F068FB05F0A2FB0546002802
:104A9000F8D1C24805F05CFEC04805F059FEBF4899
:104AA00005F056FEBD4805F053FEBC4805F050FE2B
:104AB0001521BB4805F0B6FBB84805F049FE1421A6
:104AC000B84805F0AFFBB54805F042FE1B21B648DB
:104AD00005F0A8FBB14805F03BFE1321B34805F0F3
:104AE000A1FBAE4805F034FEAC4805F031FEAB4802
:104AF00005F02EFE2021AE4805F094FBF068AD498C
:104B000007F0D2F906F026FD009502460B46A348B1
:104B100005F076FE0221A84805F084FB0221A74893
:104B200005F080FB9D4805F013FE2121A44805F007
:104B300079FB30699F4907F0B7F906F00BFD009546
:104B400002460B46954805F05BFE02219A4805F0A7
:104B500069FB0221994805F065FB904805F0F8FDD6
:104B60001F21984805F05EFBB06A06F0F3FC0227AF
:104B700002460B460097894805F042FE0121924803
:104B800005F050FB39468D4805F04CFB834805F095
:104B9000DFFD20218D4805F045FBF06A06F0DAFCC8
:104BA000009702460B467D4805F02AFE0121864803
:104BB00005F038FB3946814805F034FB774805F0AD
:104BC000C7FD2321824805F02DFBB06C794907F021
:104BD0006BF906F0BFFC009502460B466F4805F0E6
:104BE0000FFE3946744805F01DFB3946734805F041
:104BF00019FB6A4805F0ACFD1F21764805F012FB51
:104C0000F06C6C4907F050F906F0A4FC00950246E0
:104C10000B46624805F0F4FD3946674805F002FB93
:104C20003946664805F0FEFA5C4805F091FD192109
:104C3000694805F0F7FAF16D584805F0D9FD394695
:104C4000664805F0EFFA39465C4805F0EBFA534840
:104C500005F07EFD1821624805F0E4FAB06E07F019
:104C6000CFF8604907F020F906F074FC009702467F
:104C70000B464A4805F0C4FD01215B4805F0D2FA15
:104C800039464E4805F0CEFA444805F061FD2B2127
:104C9000564805F0C7FAB069464907F005F906F02D
:104CA00059FC009502460B463C4805F0A9FD3946E3
:104CB000414805F0B7FA3946404805F0B3FA37489D
:104CC00005F046FD1F214A4805F0ACFAB16D3348A6
:104CD00005F08EFD3946394805F0A4FA2F4805F055
:104CE00037FD2021434805F09DFA716D2B4805F0F2
:104CF0007FFD3946314805F095FA284805F028FD32
:104D000010213D4805F08EFAF16E244805F070FD43
:104D10003946294805F086FA3946284805F082FACE
:104D20001E4805F015FD1321344805F07BFA316F5C
:104D30001A4805F05DFD0121314805F073FA394646
:104D40001E4805F06FFA154805F002FD10212D48A8
:104D500005F068FA716F114805F04AFD39461648AA
:104D600005F060FA3946154805F05CFA0B4805F085
:104D7000EFFC1421244805F055FAB16F074805F0FF
:104D800037FD01211E4805F04DFA39460B4805F064
:104D900049FA024805F0DCFC162137E0D887FF1FEE
:104DA000C0130100D8130100F0130100000E010030
:104DB0000C14010000007A44FC0D0100E81701000A
:104DC000301401005414010028090100741401007A
:104DD00098140100BC140100DC140100F814010057
:104DE000FC140100CDCCCC3D54130100181501007A
:104DF0004415010064150100881501009C1501008F
:104E0000B0150100B4150100C8150100BB4805F03C
:104E100009FA306ABA4907F047F806F09BFB00959B
:104E200002460B46B74805F0EBFC3946B64805F09C
:104E3000F9F93946B54805F0F5F9B24805F088FCAE
:104E40002421B34805F0EEF9D6F8C400AC4907F0C8
:104E50002BF806F07FFB009502460B46A94805F0AB
:104E6000CFFC3946A84805F0DDF93946A74805F0DA
:104E7000D9F9A44805F06CFC2B21A64805F0D2F91D
:104E8000706B06F067FB009702460B469D4805F0E5
:104E9000B7FC0121A04805F0C5F939469B4805F04B
:104EA000C1F9984805F054FC27219C4805F0BAF94F
:104EB000D6F8CC00924906F0F7FF06F04BFB0095C0
:104EC0000B4602468F4805F09BFC39468E4805F09C
:104ED000A9F98C4805F03CFC03232360FEF733BDA1
:104EE00005F076F9002840F3AB8186488C4E05F03A
:104EF000C1FD06F085FF824907F08AF8012262238E
:104F0000F06022602B60BFE505F062F9002840F3F5
:104F100097817C48824E05F0ADFD06F071FF78491F
:104F200007F076F801226223306122602B60ABE546
:104F300005F04EF9002840F383817248784E05F061
:104F400099FD06F05DFF01226223B06222602B60B2
:104F50009AE505F03DF9002840F372816948704EEA
:104F600005F088FD06F04CFF01226223F06222600A
:104F70002B6089E505F02CF9002840F36181614838
:104F8000674E05F077FD06F03BFF5D4907F040F8FE
:104F900001226223B06422602B6075E505F018F9E8
:104FA000002840F34D8157485D4E05F063FD06F043
:104FB00027FF534907F02CF801226223F064226096
:104FC0002B6061E505F004F9002840F339814D4874
:104FD000534E05F04FFD01226223F06522602B60E5
:104FE00052E505F0F5F8002840F32A8145484C4E7B
:104FF00005F040FD01226223306722602B6043E50B
:1050000005F0E6F8002840F31B813E48444E05F0C9
:1050100031FD01226223706722602B6034E505F0C8
:10502000D7F8002840F30C8136483D4E05F022FDAC
:1050300001226223B06722602B6025E5FCF772FD38
:1050400002213248364E05F0EDF82E4805F080FB7F
:1050500002212E4805F0E6F82A4805F079FB0221E6
:105060002A4805F0DFF8274805F072FB17212D4884
:1050700005F0D8F8234805F06BFB0221234805F022
:10508000D1F8204805F064FB0122622322602B60E6
:10509000FAE405F09DF8002840F3D2801948204E2C
:1050A00005F0E8FC00EB8000430001216222B366BA
:1050B00021602A60E8E405F08BF8002840F3C08006
:1050C0001048174E05F0D6FC06F09AFE0C4906F083
:1050D0009FFF01226223B06122602B60D4E405F0BF
:1050E00077F8002840F3AC8006480D4E05F0C2FC6E
:1050F00001226223706522602B60C5E4E015010087
:1051000000007A44D887FF1FFC0D0100E81701005A
:10511000F815010020160100280901004C160100B5
:105120004893FF1F900D01000022732322602B6023
:10513000FEF7AFBBC44BC548C54E002202211A6022
:1051400005F070F8C34805F003FB0B21C24805F0D9
:1051500069F892E70421C14805F064F8BD48BC4DE8
:1051600005F0F6FAD6F8B830002B12DD1821BC484D
:1051700005F058F8D5F8BC10B64805F039FB022107
:10518000B84805F04FF8B34805F0E2FAB14805F029
:10519000DFFA1B21B44805F045F896F8C830012B1A
:1051A00015BF12211421B148B14805F03BF8A948B8
:1051B00005F0CEFA1321AF4805F034F8A54805F004
:1051C000C7FA06232360FEF7BEBB0B21AA4805F0F1
:1051D00029F8C3E70D21A94805F024F8BEE70D2101
:1051E000A74805F01FF8B9E70C21A64805F01AF802
:1051F000B4E70D21A44805F015F8AFE70C21A3484A
:1052000005F010F8AAE704F08BF9D02200219048AD
:1052100003F06EF828689E4AA0F173000121002374
:10522000B0FA80F0400911602360FEF730BB2368BC
:10523000002B08BF73280CBF01200020FEF727BBFE
:1052400023682868012B7EF41CABFEF7EABA04F051
:10525000BFFF00287EF72AAC7E487D4E05F00AFC91
:1052600061230122A6F8CA0022602B601846FEF7CF
:10527000D8BA04F0ADFF00287EF718AC7548744E1C
:1052800005F0F8FB06F0BCFD824906F00DFE612337
:105290000122706222602B601846FEF7C2BA04F049
:1052A00097FF00287EF702AC6A48694E05F0E2FBE2
:1052B00006F0A6FD61230122B06322602B60184630
:1052C000FEF7AFBA012283F8C820FFF790BA614811
:1052D00005F0D0FB704B02461860FFF7C7BA1C21DF
:1052E0006E4804F09FFFD7F894006D4906F0DCFD8E
:1052F00006F030F9009502460B46564805F080FA54
:105300000521684804F08EFF524805F021FAD7F8CD
:105310008050012D19D11D21634804F083FFD7F877
:1053200090005F4906F0C0FD06F014F900950246B2
:105330000B46484805F064FA05215A4804F072FF0C
:10534000444805F005FAD7F8805025F00205012DF4
:105350007FF420A81C2155483D4D04F063FFB6F8AA
:10536000C2103C4805F044FA0321514804F05AFFAA
:10537000384805F0EDF9D6F88030012B7FF40AA803
:105380001F214C4804F04EFFD5F88C0006F038FD84
:10539000404906F089FD06F0DDF8022502460B467D
:1053A00000952C4805F02CFA2946434804F03AFFB2
:1053B000284805F0CDF9FEF7EDBF404B00263146F9
:1053C0000B201E6003F060FA31460C2003F05CFAFB
:1053D0003146142003F058FA3146152003F054FAF0
:1053E0003B68FFF76FBA2021354804F01BFF1948CE
:1053F00005F0AEF9FEF7A3BF1721324804F012FF03
:10540000144805F0A5F9FEF79ABF1E212E4804F0B6
:1054100009FF104805F09CF9FEF791BF20212B48A9
:1054200004F000FF95F8C9302BB929490948FCF769
:1054300067FBFFF7F4B827490648FCF761FBFFF765
:10544000EEB8034EFFF720BB7C92FF1FE817010068
:105450004893FF1FD887FF1FA80D0100080F010008
:10546000100F01002C0F0100300F01004C0F010044
:10547000600F0100000E0100FC0E0100EC0E0100A7
:10548000DC0E0100CC0E0100AC0E0100BC0E0100D0
:105490003C87FF1F6F12833A6887FF1F301301009C
:1054A000CDCCCC3D501301005813010078130100FE
:1054B000981301009C130100BC1301001095FF1FFD
:1054C00090120100B412010070120100E0100100FE
:1054D0000411010010110100014EFFF73CB800BF9C
:1054E0004893FF1F38B5174C174A2368101D12F850
:1054F000011F904241EA0323F9D12360134C03F1C9
:1055000000432360124BD3F88030022B11D0114B93
:105510001B68012B00D038BD0F4805F019F9216830
:105520000D4805F065F903210C48BDE8384004F04A
:1055300079BE20680A4D06F063FC2860FDF75CF92F
:10554000E5E700BF2494FF1FB394FF1FE094FF1F03
:105550004893FF1F9894FF1FD887FF1F78170100FB
:105560008092FF1F30B53E4D3E4883B0294601F082
:1055700067FF2B6840F2C232934256D0B3F5407FAA
:10558000394C08D2226836493848012A18BF00220F
:10559000FBF788FC2B68364A23F060431A44EE2A56
:1055A00007D822682E493148012A18BF0022FBF78C
:1055B00043FC2368012B01D003B030BD2D4B2E4896
:1055C0001B6801930A220023019905F0D1F82A688B
:1055D000234B002ADB793BDB2849294807F02CFCC8
:1055E000274807F06DFC0146254804F01BFE2C6897
:1055F0001B4B14F080441CD1DB798BB12B19214952
:105600001A7A1F4807F018FC1D4807F059FC01469C
:105610001B4804F007FE0134EB79E4B2A342EDD855
:10562000154805F095F803B030BDFFF75BFF2B6818
:10563000A4E7154D124C0FCD0FC495E8030044F8B4
:10564000040B204620F81419152104F0EBFDE7E7C0
:105650000E490B4822F0604207F0EEFBC0E700BFA6
:10566000AC94FF1F70CEFF1F9894FF1F2095FF1F63
:10567000FFABAAE518D0FF1FD887FF1FA4170100B2
:10568000A092FF1FD0170100B81701007C1701007E
:10569000A24B1B78052B00F0A1802DE9F04FA04C08
:1056A000A04EA14DA26E236EA048326083B02B6045
:1056B000FBF73AFEE16A06F095FD08B100232B6086
:1056C0009A48FBF72FFEA16A06F0AAFD10B100234D
:1056D00033602B609548FBF777FDE16806F0A0FD8D
:1056E00008B100232B609148FBF76EFDE16806F0DE
:1056F00097FD08B100232B608C48894FFBF740FDD4
:10570000216906F06FFD00286ED0002333602B68FE
:10571000854F002B53DD8548DFF80482FBF702FE3E
:10572000216B06F05FFD002840F0C480804B7F486D
:105730001B687B4F012B00F0FD80FBF745FDE16905
:105740008046606906F0A6FA0146404606F068FD0C
:10575000002834D0286806F053FB82467348FBF7D4
:1057600033FDD7F814808346F969404606F092FA73
:105770008146786E06F044FB0446386E06F040FB26
:10578000214606F087FA49460746584606F082FA4F
:105790000146384606F088FB49460746404606F073
:1057A00079FA0146384606F033FC214606F074FAD1
:1057B0000146504606F06EFA06F03CFD286033685C
:1057C000584A002BAFBF2B682B6800211160002BBB
:1057D00001DA00232B6003B0BDE8F08F5149524A33
:1057E00000230B60136070475048FBF7C9FCB96990
:1057F00006F0F8FC002888D13368DFF82891002BE8
:1058000085DD4A48FBF790FD796B06F009FD00281D
:1058100040F0B3804548424FFBF7B2FC216906F0E7
:10582000FFFC002800F09F804048DFF8F480FBF781
:10583000A7FCD4F8C4100746A06906F02DFA01466B
:10584000384606F0CFFC00283FF461AF306806F020
:10585000D7FA82463548FBF793FC8346D8F86000B8
:10586000D8F8187006F0CCFA39468146584606F04A
:1058700011FA49468346002006F00CFA01465846C4
:1058800006F012FBD8F8C4108346384606F004FA36
:10589000394606F0FFF90146584606F0B9FB49467D
:1058A00006F0FAF90146504606F0F4F906F0C2FC9B
:1058B00030602CE7386806F0A3FA83461B48FBF7F4
:1058C00031FD0190D8F86000D8F82CA006F098FAC5
:1058D000019B81465146184606F0DCF94946019085
:1058E000002006F0D7F9019B0146184606F0DCFAC5
:1058F00051460190D8F8300006F0CCF9019B0146E2
:10590000184606F085FB494606F0C6F9014658469A
:1059100006F0C0F906F08EFC386007E7D894FF1F48
:105920004893FF1FE494FF1F6C92FF1F2095FF1FF9
:105930008492FF1FFBF748FCE1698046206A06F06D
:10594000A9F90146404606F06BFC00283FF437AF4A
:10595000286806F055FA82461E48FBF735FCD7F852
:105960002080834600E71B48FBF70AFCB96906F074
:1059700057FC00287FF458AFC9E6D9F8000006F0BC
:105980003FFA82461348FBF7CFFC0190B86ED7F878
:10599000348006F035FA019B83464146184606F0EE
:1059A00079F90146584606F07FFA41468346B86ABF
:1059B00006F070F90146584606F02AFB002106F071
:1059C0006BF90146504606F065F906F033FCC9F85C
:1059D00000001FE72095FF1F08B5274804F0B8FE18
:1059E0000721264804F01EFC112002F053FF062177
:1059F000F8B1234804F016FC122002F04BFF0621F8
:105A000000B3204804F00EFC122002F043FF0621F0
:105A100008B31D4804F006FC132002F03BFF0621EA
:105A200010BB1A4804F0FEFB1348BDE8084004F020
:105A30008FBE174804F0F6FB122002F02BFF062160
:105A40000028DED1134804F0EDFB122002F022FF03
:105A500006210028DDD1104804F0E4FB132002F0F9
:105A600019FF06210028DCD00C4804F0DBFB0248BB
:105A7000BDE8084004F06CBED887FF1FDC170100AA
:105A8000E4170100F4170100041801001C180100BC
:105A9000EC170100FC1701000C180100141801009C
:105AA00010B5254C2368042B27DC01210B2002F0C4
:105AB000EBFE01210C2002F0E7FE0121142002F090
:105AC000E3FE0121152002F0DFFEFF21162002F087
:105AD0005BFDFF21172002F057FDFF21052002F09A
