:1000000000800020BD010000FD750000B5750000F6
:10001000B5750000B5750000B5750000B575000038
:10002000B5750000B5750000B5750000FD750000E0
:10003000FD750000B5750000818D0000858E000003
:10004000FD750000FD750000FD750000FD750000E8
:10005000FD750000FD750000FD750000FD750000D8
:10006000FD750000FD750000FD750000FD750000C8
:10007000FD750000FD750000FD750000FD750000B8
:10008000FD750000FD750000FD750000FD750000A8
:10009000FD750000FD750000FD750000FD75000098
:1000A000FD750000FD750000FD750000FD75000088
:1000B000FD750000D1690000DD690000E169000004
:1000C000ED690000F1690000F5690000FD750000B0
:1000D000FD750000FD750000FD750000FD75000058
:1000E000FD750000FD750000FD750000FD75000048
:1000F000FD75000045940000FD750000357C000092
:10010000FD750000017E0000FD750000FD7500001A
:10011000FD750000FD750000FD750000FD75000017
:10012000FD750000FD750000FD750000FD75000007
:10013000FD750000FD750000FD750000FD750000F7
:10014000FD750000FD750000FD750000FD750000E7
:10015000FD750000FD750000FD750000FD750000D7
:10016000FD7500004D800000FD750000FD7500006C
:10017000FD750000FD750000FD750000FD750000B7
:10018000FD750000FD750000FD750000FD750000A7
:10019000FD750000FD750000FD750000FD75000097
:1001A000FD750000FD750000FD750000FD75000087
:1001B000FD750000FD750000FD750000564B4CF20A
:1001C000205210B51A804DF628121A8000BF00BFC9
:1001D00007F018FA514B4FF010621A60504A9A60BB
:1001E000504ADA60504A136813F4807304D14F49BF
:1001F0000B604FF4A85313604D4B1A78110703D5C9
:100200001A7842F008021A704A4B4B492A221A7097
:100210004A4A4B4B8B4204D252F8040F43F8040B6A
:10022000F8E7484B484900228B4202D243F8042B9E
:10023000FAE74649464A002352F8230041F82300D2
:1002400001336F2BF8D1434B434A802103F8011B44
:100250009342FBD1414B3D4A1A60414B8A221A70AE
:10026000A3F5805324225A70A0221A709A7992071B
:10027000FCD59A79D406FCD43A4A937903F00C035E
:10028000082B384BF9D103221A7140225A719A79FE
:100290009006FCD5334A9179324B4906FBD5324A58
:1002A000324911600221516020221A709A7902F0BD
:1002B0000C020C2AFAD12E4B2E4A1A602E4B2F4AD2
:1002C0001A6000225A60072243F8042C2C4AC3F813
:1002D0000C2D62B607F02EFC144B1B68DA0705D50F
:1002E000284807F00BFA284B284A1A60284B1B783D
:1002F0005B0609D5244C254B22689A4204D121483B
:1003000007F0FCF9002323600AF084FB07F080F972
:1003100008F058FFFEE700BF0E2005403080044083
:10032000823F04000100002B10D0034014D0034092
:1003300002D0074000E007402892FF1FDC030100C5
:100340002087FF1F2892FF1FE4CEFF1F0082FF1FA0
:100350000000000000E400E05FE400E008ED00E0E1
:100360000050064000400640448004400000030165
:1003700004800440C010050014E000E0FF76010096
:100380000000202003724F5C1CE00340A5C3945A78
:1003900000F00740FFFFFFFFFFFFFFFFFFFFFFFF32
:1003A000FFFFFFFFFFFFFFFFFFFFFFFFFFFFFFFF5D
:1003B000FFFFFFFFFFFFFFFFFFFFFFFFFFFFFFFF4D
:1003C000FFFFFFFFFFFFFFFFFFFFFFFFFFFFFFFF3D
:1003D000FFFFFFFFFFFFFFFFFFFFFFFFFFFFFFFF2D
:1003E000FFFFFFFFFFFFFFFFFFFFFFFFFFFFFFFF1D
:1003F000FFFFFFFFFFFFFFFFFFFFFFFFFFFFFFFF0D
:10040000FFFFFFFFFFFFFFFFFFFFFFFFDEF9FFFF23
:1004100010B5054C237833B9044B13B10448AFF33E
:1004200000800123237010BD2892FF1F00000000F0
:10043000D8030100084B10B51BB108490848AFF3B9
:1004400000800848036803B910BD074B002BFBD0A0
:10045000BDE81040184700BF000000002C92FF1FAD
:10046000D80301002892FF1F00000000F0B400F143
:100470002C06144F00243146031F00F15C0243F8A0
:10048000044FB34241F8047F4FF0000542F8044F97
:10049000F5D10D4A0D49C0F890500023C0F8945092
:1004A000C0F89850C0F89C50C0F8AC50C0F8A020DC
:1004B000C0F8A820C0F8A41080F8B43080F8CC3080
:1004C000F0BC70470000A040000048430000C8C2D4
:1004D00038B50446087A0D460AF036F84FF07C51DC
:1004E0000AF086F8064909F079FF00220023C4F8D3
:1004F00094002A73C4F898306A73C4F89C3038BDED
:1005000000002C4290F8BC00704700BF90F8B80083
:10051000704700BF90F8C000704700BF90F8C4005B
:10052000704700BF0C2994BF50F82100002070478D
:100530002DE9F0410B4E8046041F00F12C0754F8C2
:10054000045F314628460AF0F1F930B1D8F8B0100E
:1005500028460AF009FA00B12E46BC42EFD13046D7
:10056000BDE8F081000020412DE9F041D0F8B070E5
:100570004FF00008041F00F12C0654F8045F3946C0
:1005800028460AF0F1F9084948B128460AF0CEF9A0
:10059000414620B128460AF0E7F900B1A846B44226
:1005A000EBD14046BDE8F0810000A0402DE9F047C6
:1005B000D0F8B07082464FF00009041F00F12C06FD
:1005C0004FF0000854F8045F394628460AF0CCF989
:1005D0000C4950B128460AF0A9F930B148462946DD
:1005E00009F0FEFE08F101088146B442EAD1CAF8DA
:1005F000D080404609F0A8FF014648460AF0ACF812
:10060000BDE8F0870000A040D0F8D000704700BFE0
:1006100038B5D0F89840D0F89450214628460AF0D2
:1006200085F900B92C46204638BD00BFD0F8C83047
:100630002DE9F041002B7CD1D0F89860D0F894508F
:1006400004463146284609F0CBFED4F89C70394662
:10065000804609F0C5FE7F490AF07EF84FF07C51D4
:1006600004460AF081F9002861D04FF07C512846F9
:100670000AF07AF94FF07C51002861D128460AF03F
:1006800055F938B14FF07C5130460AF06DF9002829
:1006900040F0A8804FF07C5128460AF065F9002808
:1006A00061D14FF07C5128460AF05EF9002840F0F5
:1006B000A2804FF07C5128460AF056F900286DD1EF
:1006C0004FF07C5128460AF031F94FF07C5110B3BD
:1006D00030460AF049F938B14FF07C5138460AF0FB
:1006E00025F9002840F0B1804FF07C5130460AF0E7
:1006F0001DF9002862D04FF07C5138460AF034F9D9
:10070000002840F0A48038464FF07C510AF00EF9E2
:1007100068B1514C11E028460AF008F90028E3D1ED
:1007200028464FF07C510AF001F9002846D1BDE877
:10073000F08100EB8300D0F890402046BDE8F081C6
:1007400030460AF011F94FF07C5100283ED038466F
:100750000AF00AF90028F0D14FF07C5128460AF03F
:10076000E5F8002859D14FF07C5130460AF0DEF808
:10077000002840D04FF07C5138460AF0F5F80028A8
:1007800041D14FF07C5130460AF0EEF868B14FF09D
:100790007C5138460AF0CAF800284FD14FF07C51FE
:1007A00030460AF0C3F800288AD04FF07C51384612
:1007B0000AF0BCF8002883D02C46BEE730464FF044
:1007C0007C510AF0B3F80028B1D09CE728460AF023
:1007D000ADF80028C7D04FF07C5130460AF0C4F87D
:1007E0000028C0D04FF07C5138460AF0BDF80028F0
:1007F0003FF450AF18E04FF07C5130460AF0B4F8A7
:100800000028CBD0C3E73946284609F0E9FD4FF070
:100810007C5109F0EDFE04468FE74FF07C513846DD
:100820000AF0A2F800289ED03946304609F0D8FDDB
:100830004FF07C5109F0DCFE04467EE740464FF065
:100840007C5109F0D5FE044677E7344675E73C460F
:1008500073E700BF000040400000A0C270B504462E
:10086000FFF7E4FE4FF07C510AF07EF840B3D4F875
:1008700094604FF07C5130460AF076F8D4F89850E6
:10088000F8B9D4F89C404FF07C5128460AF06CF837
:1008900058B1294630460AF067F830B1214628465B
:1008A0000AF044F808B12C4621E04FF07C51204674
:1008B0000AF05AF820B1284621460AF055F880B9C6
:1008C00070BD304629460AF031F8D4F89C40002823
:1008D000D9D0304621460AF029F80028D3D0344632
:1008E00005E0304621460AF03FF80028E8D02046CF
:1008F00070BD00BF01292DE9F8438146154600F07F
:10090000CC80022900F08C80002945D0046848463C
:10091000FFF7A4FFD9F8A01005460AF007F808B1C0
:10092000C9F8A050D9F89460D9F8985031462846B3
:100930000AF01AF800286BD13146D9F8A40009F062
:10094000F5FF10B13546C9F8A45009F13006C84684
:1009500009F160050C2701E058F8044F3068214682
:100960000AF002F8214628B1D9F8B00009F0E8FFF2
:1009700000B134602146286809F0D8FF0436654983
:1009800020B1204609F0F0FF00B12C60013F05F1D5
:100990000405E1D1BDE8F883937A507A1B0103EB9B
:1009A000101000F57A7009F0CFFD5B4909F020FEC8
:1009B000C9F800002B7B0446687B1B1103EB001079
:1009C00000F57A7009F0C0FD534909F011FEC9F82D
:1009D00008002B7BE87A1B0203F47063184400F5CF
:1009E0007A7009F0B1FD4C4909F002FEC9F8040023
:1009F000EB7BA87B1B0203F47063184400F57A704C
:100A000009F0A2FD444909F0F3FDC9F80C007EE7A6
:100A1000D9F8A410284609F0A7FF002895D092E73E
:100A2000937A507A1B0103EB101000F57A7009F0ED
:100A30008BFD394909F0DCFDC9F820002B7B687B70
:100A40001B1103EB001000F57A7009F07DFD3249AF
:100A500009F0CEFDC9F828002B7BE87A1B0203F4CD
:100A60007063184400F57A7009F06EFD2A4909F0A8
:100A7000BFFDC9F82400EB7BA87B1B0203F4706365
:100A8000184400F57A7009F05FFD234909F0B0FDC4
:100A9000D9F80040C9F82C0039E7937A507A1B0145
:100AA00003EB101000F57A7009F04EFD1A4909F0B9
:100AB0009FFDC9F810002B7B687B1B1103EB001016
:100AC00000F57A7009F040FD134909F091FDC9F86D
:100AD00018002B7BE87A1B0203F47063184400F5BE
:100AE0007A7009F031FD0C4909F082FDC9F8140053
:100AF000EB7BA87B1B0203F47063184400F57A704B
:100B000009F022FD044909F073FDD9F80040C9F845
:100B10001C00FCE60000A0406F12833A2DE9F84368
:100B20000026D0F8B080C0F890608146041F00F124
:100B30002C0754F8045F4146284609F015FF09497F
:100B400050B1284609F0F2FE30B13046294609F08E
:100B500047FC0646C9F89000BC42EAD13046BDE8E1
:100B6000F88300BF0000A04002299ABF00EB81007B
:100B7000D0F89400002070473E2998BF80F8CC1030
:100B8000704700BF90F8B400704700BFC0F8C810AD
:100B9000704700BF80F8B410704700BF30B50F4CED
:100BA000C0F8B01083B020460D4608F075F9204615
:100BB00008F072F9284609F071F8022502460B4642
:100BC0000095204608F0C0F9204608F065F9204657
:100BD00003B0BDE8304008F05FB900BFC887FF1F11
:100BE00070B500F555550646083500F1200420463D
:100BF000D834FFF73BFCAC42F9D106F1F8050124EB
:100C000028460021FFF7C6FF214628460134FFF79A
:100C1000B3FF3F2C05F1D805F2D143F25054002523
:100C20000548064A064B3555002130617161B261B5
:100C3000F361304670BD00BF00007A4400004843B5
:100C40000000C8C22DE9F04143F2545300F5555657
:100C5000374600228046C2500836143700F1F804A7
:100C600002E0D834B4420DD02046FFF78BFF0028B5
:100C7000F7D020463D68FFF7C7FCD8342844B4427B
:100C80003860F1D143F2545358F80300BDE8F081C5
:100C900038B50C78A4F12103072B98BF183CA4F1B8
:100CA0004103072B98BF303CA4F16203052B154686
:100CB00009D8D823483C03FB04002030FFF708FC88
:100CC000012D0AD038BDD82303FB04002030FFF7E4
:100CD000FFFB012DF6D1002CF4D0064808F0DCF81B
:100CE0002146044808F028F90B210348BDE83840A4
:100CF00007F0E0BEC887FF1FD8EB00000B68A3F524
:100D0000D8732DE9F0417E2B00F28180DFE813F0EB
:100D1000B501B101AD017F00A901A501A1017F00CD
:100D20009D01990195017F0091018D0189017F004D
:100D3000850181017D017F007901750171017F00CD
:100D40006D01690165017F0061015D0159017F004D
:100D5000550151014D017F004901450141017F00CD
:100D60003D01390135017F0031012D0129017F004D
:100D7000250121011D017F001901150111017F00CD
:100D80000D01090105017F000101FD00F9007F004F
:100D9000F500F100ED007F00E900E500E1007F00D3
:100DA000DD00D900D5007F00D100CD00C9007F0053
:100DB000C500C100BD007F00B900B500B1007F00D3
:100DC000AD00A900A5007F00A1009D0099007F0053
:100DD000810011020D027F000902050201027F005D
:100DE000FD01F901F5017F00F101ED01E9017F004D
:100DF000E501E101DD017F00D901D501D1017F00CD
:100E0000CD01C901C5017F00C101BD01B901BDE826
:100E1000F0814FF000081925012A174604460E46B6
:100E200000F08B81D82000FB0544203420460121AE
:100E3000FFF7B0FE324641462046BDE8F041FFF7DD
:100E400059BD4FF002081825E6E74FF001081825B4
:100E5000E2E74FF000081825DEE74FF002081725FB
:100E6000DAE74FF001081725D6E74FF000081725FD
:100E7000D2E74FF002081625CEE74FF001081625FD
:100E8000CAE74FF000081625C6E74FF002081525FF
:100E9000C2E74FF001081525BEE74FF00008152501
:100EA000BAE74FF002081425B6E74FF00108142501
:100EB000B2E74FF000081425AEE74FF00208132503
:100EC000AAE74FF001081325A6E74FF00008132505
:100ED000A2E74FF0020812259EE74FF00108122505
:100EE0009AE74FF00008122596E74FF00208112507
:100EF00092E74FF0010811258EE74FF00008112509
:100F00008AE74FF00208102586E74FF00108102508
:100F100082E74FF0000810257EE74FF002080F250A
:100F20007AE74FF001080F2576E74FF000080F250C
:100F300072E74FF002080E256EE74FF001080E250C
:100F40006AE74FF000080E2566E74FF002080D250E
:100F500062E74FF001080D255EE74FF000080D2510
:100F60005AE74FF002080C2556E74FF001080C2510
:100F700052E74FF000080C254EE74FF002080B2512
:100F80004AE74FF001080B2546E74FF000080B2514
:100F900042E74FF002080A253EE74FF001080A2514
:100FA0003AE74FF000080A2536E74FF00208092516
:100FB00032E74FF0010809252EE74FF00008092518
:100FC0002AE74FF00208082526E74FF00108082518
:100FD00022E74FF0000808251EE74FF0020807251A
:100FE0001AE74FF00108072516E74FF0000807251C
:100FF00012E74FF0020806250EE74FF0010806251C
:101000000AE74FF00008062506E74FF0020805251D
:1010100002E74FF001080525FEE64FF00008052520
:10102000FAE64FF002080425F6E64FF00108042521
:10103000F2E64FF000080425EEE64FF00208032523
:10104000EAE64FF001080325E6E64FF00008032525
:10105000E2E64FF002084546DEE64FF001080225C1
:10106000DAE64FF000080225D6E64FF00208012527
:10107000D2E64FF001084546CEE64FF000080125C4
:10108000CAE64FF002082025C6E64FF001082025E9
:10109000C2E64FF000082025BEE64FF002081F25EB
:1010A000BAE64FF001081F25B6E64FF000081F25ED
:1010B000B2E64FF002081E25AEE64FF001081E25ED
:1010C000AAE64FF000081E25A6E64FF002081D25EF
:1010D000A2E64FF001081D259EE64FF000081D25F1
:1010E0009AE64FF002081C2596E64FF001081C25F1
:1010F00092E64FF000081C258EE64FF002081B25F3
:101100008AE64FF001081B2586E64FF000081B25F4
:1011100082E64FF002081A257EE64FF001081A25F4
:101120007AE64FF000081A2576E64FF002081925F6
:1011300072E64FF0010819256EE6094807F0ACFE8B
:101140002946074807F0F8FE3946064807F0B2FC82
:101150004146034807F0F0FE014807F09DFE61E6B6
:10116000C887FF1FE4EB0000704700BF704700BF57
:10117000704700BF2DE9F0430446002383B00646C4
:1011800044F8F83B012504E001353F2D04F1D80473
:1011900066D02046FFF7F6FC0028F5D04E4800F058
:1011A00017FC29464D4800F013FC2046FFF7B6FC1B
:1011B00008F074FD02460B46494800F009FC204641
:1011C000FFF7B6F980462046FFF7CEF907464046BE
:1011D00008F064FD80463846894608F05FFD4246C7
:1011E0004B46CDE900013F4800F0F2FB00212046CC
:1011F000FFF7BAFC012180462046FFF7B5FC074601
:10120000404608F04BFD80463846894608F046FDCA
:1012100042464B46CDE90001334800F0D9FB204659
:10122000FFF77CFC0146306809F0DAF830602046B0
:10123000FFF714FBB16909F079FB002833D1204690
:10124000FFF7E6F9F16909F08FFB00289CD02046F2
:10125000FFF7DEF901353F2DF06104F1D80498D194
:10126000706809F071F90146306809F075FA716922
:101270003060044609F078FB00B1746131692046A2
:1012800009F054FB00B134610B2006F0CFFB43F2B0
:101290005053F35C60B99BB143F250530122F254B6
:1012A00003B0BDE8F0832046FFF7D8FAB061C6E787
:1012B00053B943F250530022F25403B0BDE8F08317
:1012C0000A4800F0B3FBE7E7094800F099FB43F256
:1012D00050530022F254F0E7D0ED0000E8EB00009C
:1012E00024EC000038EC000064EC000080EC00000E
:1012F000B8EC000070B5114B836000F555550646FB
:10130000083500F1F80402E0D834AC4213D020468E
:10131000FFF738FC0028F7D02046FFF709F9B1683D
:1013200009F004FB0028EFD02046FFF701F9D8347C
:10133000AC42B060EBD1B06870BD00BF0000A0400F
:1013400070B5002300F555550646C360083500F119
:10135000F80402E0D834AC4213D02046FFF712FC68
:101360000028F7D02046FFF7FFF8F16809F0FCFAF3
:101370000028EFD02046FFF7F7F8D834AC42F060F1
:10138000EBD1F06870BD00BF0068704741607047E6
:10139000F8B500F555550F461646083500F1F80426
:1013A00002E0D834AC420FD02046FFF7EBFB002818
:1013B000F7D020463946FFF7E9FB20463146D834BE
:1013C000FFF7ECFBAC42EFD1F8BD00BF2DE9F843CD
:1013D00000F5555543F24C532E4600278146C75021
:1013E0004FF0000808350C3600F1F80402E0D8345C
:1013F000AC4213D02046FFF7C5FB0028F7D0336876
:10140000013333602046FFF711F90F4909F0ACFAB8
:1014100088B9D834AC4207F10107EBD143F24C5301
:1014200059F80300C01B09F08FF80146404609F047
:1014300093F9BDE8F8832046FFF7F8F801464046E7
:1014400008F0CEFF8046D2E700008CC2F8B500F568
:10145000555507460026083500F1F80402E0D83457
:10146000AC420FD02046FFF78DFB0028F7D0204676
:10147000FFF79CF80146304608F0B2FFD834AC4282
:101480000646EFD143F24C53F85809F05DF8014697
:10149000304609F061F9F8BD2DE9F04F06468FB0EE
:1014A00083488B4600F03CFA814800F039FA8048C6
:1014B00000F036FA43F24C533046F2580D92FFF7E3
:1014C000C1FB73680C930746306808F0E7FB804661
:1014D00030468946FFF7BAFF82463046B468F56861
:1014E000FFF774FF08F0DAFBCDE90A012146284630
:1014F00008F074FF6F4909F07BF808F0CFFBCDE9E5
:101500000801284608F0CAFBCDE90601204608F08C
:10151000C5FBCDE90401504608F0C0FB0D9A0C9BB9
:10152000CDE90201CDE90089114663483A4600F051
:10153000F7F95F4800F0F4F9F8364FF001094FF081
:10154000000A07E009F10109B9F13F0F06F1D806D9
:1015500000F0A5803046FFF715FB0028F2D030469A
:10156000FEF7D0FF3046FEF7D1FF3046FEF7D2FF40
:101570003046FEF7D3FF0821504807F09BFA494652
:101580004F4807F0D9FCB9F1090F40F38B800221D5
:101590004C4807F08FFA3046FFF7C0FA08F07EFBA0
:1015A0005FFA8BF802460B46CDF80080444807F0FE
:1015B000CBFC0121444807F07DFA5546002420E089
:1015C0000621424807F076FA29463D4807F0B4FC68
:1015D00002213F4807F06EFA21463046FEF7A2FF8F
:1015E00008F05CFBCDF8008002460B46344807F05B
:1015F000ABFC01340121344807F05CFA0C2C09D013
:101600003D46092D05F10107DADC0121314807F0DB
:1016100051FAD5E72A4807F03FFC09212E4807F088
:1016200049FA00213046FFF79FFA08F037FB022401
:1016300002460B460094224807F086FC0A21274800
:1016400007F038FA01213046FFF78EFA08F026FB42
:10165000009402460B461A4807F076FC0A212048FF
:1016600007F028FA21463046FFF77EFA08F016FB0D
:10167000009402460B46124807F066FC0121194807
:1016800007F018FA09F101090D4807F005FCB9F156
:101690003F0F0AF10C0A06F1D8067FF45BAF0FB0DA
:1016A000BDE8F08F01210B4807F004FA6FE700BF97
:1016B000D0ED000000007A4468EF000008F0000060
:1016C000C887FF1FE8FD000014F0000018F00000BC
:1016D000F8F1000008F2000020F000002CF00000FB
:1016E00038F0000044F000002DE9F04100F1F80569
:1016F00082B04FF0010806E008F10108B8F13F0F91
:1017000005F1D80559D02846FFF73CFA0028F3D058
:1017100041462B4807F010FC01212A4807F0CAF97E
:101720000024022721462846FEF7FCFE08F0B6FA00
:10173000009702460B46224807F006FC01340121BF
:10174000204807F0B7F90C2C4FF00206EAD100212F
:101750002846FFF709FA08F0A1FA009602460B4660
:10176000174807F0F1FB0121164807F0A3F9012102
:101770002846FFF7F9F908F091FA009602460B4661
:101780000F4807F0E1FB01210E4807F093F93146BD
:101790002846FFF7E9F908F081FA009602460B4661
:1017A000074807F0D1FB08F10108054807F074FB72
:1017B000B8F13F0F05F1D805A5D102B0BDE8F08121
:1017C000C887FF1FE4EB0000014B1870704700BF93
:1017D0002087FF1F0278002A00F0908070B5034632
:1017E00082B00D46252A2AD158785C1C08B32528DA
:1017F0002FD0732831D0642824D0692822D06628BD
:101800004FD07A2859D0782835D058282FD0622840
:101810003ED0422838D06C2814D0632812D07428C7
:1018200057D054285FD007F0C9F96278631C002AAA
:10183000D8D1344802B0BDE8704007F02DBB18780D
:101840001C46F0E72B1D29682E481D4607F074FB47
:10185000EBE7104607F0B2F9E7E72E68304609F0EB
:10186000CFFE01463046043507F024F9DDE70221BA
:10187000254807F01FF92E1D296822480023102251
:10188000354607F019FBD0E70221204807F012F98E
:101890002E1D29681B4800230222354607F00CFB49
:1018A000C3E7073525F007050321D5E900231548CF
:1018B0000091083507F048FBB7E7073525F0070525
:1018C0000021D5E900230F480091083507F03CFBC3
:1018D000ABE7296801290EBF0D480E4801210435E8
:1018E00007F0E8F8A1E72B68012B07BF04210A489D
:1018F0000A480521043507F0DDF896E7014807F0AE
:10190000CBBA00BFC887FF1F48F000004CF00000B2
:1019100050F0000054F0000058F0000060F00000AB
:101920000FB400B583B004A951F8040B0191FFF77F
:1019300051FF03B05DF804EB04B0704770B51B4B6A
:101940001B4C1B6882B00D460193019B2360194616
:1019500004460023164617480A2207F0ADFA032171
:10196000154807F0A7F8032C07D8DFE804F01A158C
:1019700010020521114807F09DF80221104807F0D8
:1019800099F831462846FFF725FF02B070BD0721C0
:101990000C4807F08FF8F0E704210B4807F08AF8AD
:1019A000EBE70521094807F085F8E6E7ECCBFF1FD8
:1019B0004492FF1FC887FF1F68F0000084F00000FA
:1019C000F8F100007CF0000074F000006CF0000002
:1019D0000FB400B5094B187883B020B103B05DF89F
:1019E00004EB04B0704705AB1A4604990193FFF766
:1019F000A5FF03B05DF804EB04B070472087FF1F1C
:101A00000FB4094B00B51B78012B83B004D903B088
:101A10005DF804EB04B0704705AB1A4604990193D6
:101A20000120FFF78BFFF2E72087FF1F0FB40B4B5E
:101A300000B51B78032B83B004D903B05DF804EB29
:101A400004B0704705AB1A46049901930320FFF7D1
:101A500075FF03B05DF804EB04B070472087FF1FEB
:101A600030B4074D074C084900232B7023600365F1
:101A70004365836580F85C300B6030BC704700BF05
:101A80005092FF1F4C92FF1F4892FF1FF8B5394834
:101A9000394F3A4D3A4E3B4CFFF742FF3A4B3B4AE7
:101AA0003B483C495A60D8603B4A1F6100203B4F8D
:101AB00059615D623A499E614FF07C55394E9C6296
:101AC000394CDA6218630C2238485F639963384FE7
:101AD0005D6440F61C410A259E64DC6441F2040604
:101AE0005A241A65186202220120C3F8BC70996654
:101AF000304FDD66002164251E675C674FF49676E3
:101B000032245A705A7218725865DF61DF6383F8A5
:101B100040105E66DE651C664FF47A7E9D65264F3A
:101B20009967264EDA67C3F88010C3F89440C3F86B
:101B3000A440C3F8A010FF2441F28831C3F8AC00E0
:101B4000C3F8B020052040F2D662C3F8B450C3F801
:101B500098E0C3F88870C3F88C60C3F8A840A3F875
:101B6000BA00C3F89010A3F8B810A3F88420A3F823
:101B70008620F8BD8CF0000000004040CDCCCC3D6C
:101B8000CDCC4C40000082423893FF1F20A10700BB
:101B90006666864033338340000020C10000204247
:101BA0000000A0409A9979400AD7233D333373400F
:101BB0009A99993ECDCC4C3E0000684200C020442A
:101BC000F0B54FF47A6085B005F066FF00210F2074
:101BD00005F03AFF00210E2005F036FF002111200C
:101BE00005F032FF0021102005F02EFF0021122009
:101BF00005F02AFF0021132005F026FF01210B200C
:101C000005F022FF01210C2005F01EFF0121142008
:101C100005F01AFF0121152005F016FF01211620FD
:101C200005F012FF0121172005F00EFF012105200C
:101C300005F00AFF984C994D0121062005F004FF9C
:101C400001210D2005F000FF208808F079FC0146F5
:101C5000162005F063FE208808F072FC014617206C
:101C600005F05CFE208808F06BFC0146052005F0BD
:101C700055FE208808F064FC00240146062005F08B
:101C80004DFE00942346864A8649874804F048FB67
:101C9000E6B232468149844804F0F0FA2B797F4954
:101CA00081486FF30003013432462B7104F0DCFAF3
:101CB000082CEDD10924E6B2324678497A4804F07E
:101CC000DDFA2B797549784843F001030134324637
:101CD0002B7104F0C9FA0D2CEDD1744D4FF0FF3289
:101CE0002868102104F0E8FE28684FF0FF32102128
:101CF00004F0BAFE28684FF0FF32022104F0C8FE5B
:101D000028684FF0FF32022104F0CCFE00220F21A0
:101D1000286804F0DBFE0C21654806F0CBFE654820
:101D200007F0BAF82146644806F0C4FE614807F09F
:101D3000B3F8604807F0B0F81721604806F0BAFE23
:101D40005C4807F0A9F85E4B1B789A0600F1DA8030
:101D50005B4B1B781B0700F1E180594B1B785F0739
:101D600000F1E880564B1B789E0700F1EF80554B41
:101D70001B781D0600F1F680524B1B785C0600F1C3
:101D8000FD80504B1B78980600F104814D4B1B7869
:101D9000590700F10B814B4B1B781A0700F1128198
:101DA000484B1B789B0700F11981424807F074F8F3
:101DB00072B6454A4CF220534DF628112024138068
:101DC00023461180013BFDD1404D4148414900234C
:101DD0004FF480562E8003800B8032F80E3C9BB26D
:101DE00043F0D30322F80E3C62B640F2413005F0D6
:101DF000A7FF21463848394D06F05CFE2D4807F014
:101E00004BF805F1C0062F462C46601B05F040FB41
:101E100004F8010BB442F8D13B78112B01D0FFF745
:101E200035FE2F482F4CFFF7A3F90420FFF7CCFC19
:101E30002D4B2B4800221A60FFF798F901210D2045
:101E400005F0EEFD796D2648FFF7A0FA7A6C97F859
:101E500040102348FFF79CFA244B25491B68254A6C
:101E6000D7F89C00126881FB0351DB17A3EB211309
:101E700013FB02F30128238000F0B8801E4B1F499A
:101E80001A68039203981B680293029A1C4B08601D
:101E90001A6005B0F0BD00BF2887FF1F0894FF1F20
:101EA000E0CBFF1F20A1070044CAFF1FB494FF1F0F
:101EB000ACF00000C887FF1FBCF00000CCF00000B1
:101EC00001F0074000F007400E20054004200540C7
:101ED0000620054016200540D0F100003893FF1F72
:101EE000EC94FF1FC094FF1F6492FF1F6487FF1FC5
:101EF0001F85EB516087FF1FECCBFF1FE894FF1F8E
:101F00001094FF1F21213C4806F0D4FD3B4806F009
:101F1000C3FF3B4B1B781B077FF51FAF0C213948D4
:101F200006F0C8FD354806F0B7FF354B1B785F0754
:101F30007FF518AF0E21344806F0BCFD2F4806F09F
:101F4000ABFF2F4B1B789E077FF511AF17212F4852
:101F500006F0B0FD294806F09FFF2D4B1B781D06AB
:101F60007FF50AAF0E212B4806F0A4FD234806F0AA
:101F700093FF274B1B785C067FF503AF12212648A1
:101F800006F098FD1D4806F087FF214B1B78980648
:101F90007FF5FCAE1321214806F08CFD174806F0B2
:101FA0007BFF1B4B1B7859077FF5F5AE1C211C48A6
:101FB00006F080FD114806F06FFF154B1B781A07DD
:101FC0007FF5EEAE1921174806F074FD0B4806F0B8
:101FD00063FF0F4B1B789B077FF5E7AE1821124874
:101FE00006F068FD054806F057FFDEE64FF49670F0
:101FF00005F052FD42E700BFE4F00000C887FF1F74
:1020000001F0074008F1000018F1000028F100007D
:1020100000F0074040F1000050F1000064F10000C2
:1020200078F1000098F10000B4F1000070B5464C62
:10203000464D4748E66800232B70FFF781F90146BB
:10204000304608F073FC08B104232B704048FFF7BA
:1020500051F9216908F06AFC18B12B7843F010039C
:102060002B703B48FFF7B2F9A16A08F07DFC18B16C
:102070002B7843F040032B70002335486B70FFF73B
:10208000A5F9E16A314E08F051FC08B101237370E3
:1020900000232F48EB70FFF753F905462C482B4ED1
:1020A000FFF728F90146284608F098F9E16B08F097
:1020B0005BFC08B10123F370264D254800232B70EB
:1020C000FFF73EF9616A0646E06808F087F90146C5
:1020D000304608F049FC08B104232B701C48FFF778
:1020E00009F9616A0646206908F07AF90146304626
:1020F00008F01CFC18B12B7843F010032B70144827
:10210000FFF764F9A16B0646A06A08F067F901467B
:10211000304608F029FC18B12B7843F040032B70AF
:1021200000230B486B70FFF751F9A16B0546E06A7D
:10213000084C08F055F90146284608F0F7FB08B1AD
:102140000123637070BD00BF3893FF1F3493FF1FDE
:10215000EC94FF1FA894FF1F2DE9F0417C4C2368ED
:10216000012B82B031D0022B00F0A880032B00F0AD
:10217000C8803BBB774B784AD3F8A410D3F8A8307B
:1021800012685B1A632B0EDD744803FB02F380FBBD
:102190000302DB17C3EB62131944062002B0BDE84B
:1021A000F04105F0BDBA6E4803FB022380FB030239
:1021B000DB17C3EB22121144062002B0BDE8F04148
:1021C00005F0AEBA02B0BDE8F081664E33680A335E
:1021D000B3F57A7F00F3B7801846336008F0B4F99E
:1021E000614908F005FA80465A4DD5F8A40008F078
:1021F000ABF90746D5F8A80008F0A6F9394608F06B
:10220000EDF8414608F0F4F9584908F0A5FA3946C6
:1022100008F0E6F808F0B2FB0146062005F080FA67
:102220000221534806F046FC524806F035FE0621CE
:10223000514806F03FFC306808F086F94A4908F03A
:10224000D7F907F02BFD022702460B4600974948B5
:1022500006F07AFE0D21494806F02CFCD5F8A400C2
:1022600008F072F98046306808F06EF93E4908F0CF
:10227000BFF90646D5F8A80008F066F9414608F00F
:10228000ADF80146304608F0B3F9384908F064FA71
:10229000414608F0A5F807F001FD00970B460246FD
:1022A000344806F051FE3946314806F003FC314807
:1022B00006F0F2FD2368022B7FF458AF294B254E20
:1022C00000221A60D6F8A40008F03EF90546D6F8B8
:1022D000A80008F039F9294608F080F8002108F034
:1022E00087F9224908F038FA294608F079F808F009
:1022F00045FB0146062005F013FA2368032B7FF403
:1023000038AF184B134E4FF47A721A60D6F8A40007
:1023100008F01AF90546D6F8A80008F015F929467C
:1023200008F05CF8114908F063F9104908F014FA54
:10233000294608F055F808F021FB0146062005F073
:10234000EFF9236815E700234FF0000833604BE7EF
:102350009494FF1F3893FF1F3487FF1F1F85EB5195
:10236000CBF08D286892FF1FCDCCCC3D0000C84239
:10237000E8FD0000C887FF1FF4F10000FCF1000039
:1023800070B5A248A24C06F087FDA04806F084FD77
:102390009E4806F081FD0D219E4806F08BFBD4F887
:1023A000A030012B11D09C4C9848217800230A22A0
:1023B00006F082FD2378052B67D8DFE813F0E900EB
:1023C000EE00F300F800FD00E4000921934806F058
:1023D00071FB9348FEF78EFF216908F0A7FA18B148
:1023E0000F21904806F066FB8D48FEF7A9FFE168D3
:1023F00008F0BAFA18B10E218B4806F05BFB88484A
:10240000FEF79EFF05468648FEF774FF0146284604
:1024100007F0E4FFE16B08F0A7FA18B11121834837
:1024200006F048FB7E48FEF7D1FFA16A08F09CFA4F
:1024300018B10C217E4806F03DFB7948FEF7C6FF37
:10244000E16A08F073FA18B10D217A4806F032FB00
:10245000794B73481B68012B00F0C280FEF74AFFDE
:1024600021696B4D08F080FA78B16D48FEF768FF7E
:10247000E96808F05BFA40B1674B1B78052B00F068
:10248000C08008216D4806F015FB02216C4806F05B
:1024900011FB122005F0CAFA012800F09C801120DF
:1024A00005F0C4FA012800F09180664B1B68012BEF
:1024B00000F087800221624806F0FCFA624B534824
:1024C000196806F039FD514806F0E6FC04215F4822
:1024D00006F0F0FA0B2005F0A9FA002301460A22C3
:1024E0004A4806F0E9FC0C2005F0A0FA002301465A
:1024F0000A22464806F0E0FC142005F097FA002373
:1025000001460A22414806F0D7FC152005F08EFA54
:10251000002301460A223D4806F0CEFC06214C4825
:1025200006F0C8FA4B4B394819680222002306F01E
:10253000C3FC0421484806F0BDFA112005F076FAE4
:10254000002301460A22314806F0B6FC102005F0AF
:102550006DFA002301460A222C4806F0ADFC122039
:1025600005F064FA002301460A22284806F0A4FC7C
:10257000132005F05BFA002301460A222348BDE838
:10258000704006F099BC0721344806F093FA7CE7C6
:102590000621334806F08EFA77E70721314806F026
:1025A00089FA72E70721304806F084FA6DE70821BE
:1025B0002E4806F07FFA68E70B212D4806F07AFADC
:1025C00063E711212B4806F075FA73E70A212A48C0
:1025D00006F070FA69E70E21284806F06BFA5EE70C
:1025E000FEF788FE216A08F0BFF900283FF449AFE2
:1025F0001621234806F05EFA0A21224806F05AFA0C
:1026000043E70A211F4806F055FA3EE7C887FF1F37
:102610003893FF1F0CF20000A494FF1F1CF200006F
:10262000EC94FF1F28F2000038F2000048F200008E
:102630005CF200006CF200007492FF1FA0F2000038
:10264000E8FD0000BC94FF1F9894FF1F14F30000E6
:102650001CF30000F893FF1F24F30000DCF20000DD
:10266000ACF20000B4F20000C8F20000D0F20000AA
:10267000BCF2000000F30000F4F20000E4F20000FD
:102680007CF2000094F200002DE9F04F934C944F3F
:10269000E36F012B8DB000F04981032B50D0914E98
:1026A000914DA36F9148012B09BF2968296801F159
:1026B0000041296004F0DEFD3368002B40F0CE803D
:1026C0008A4804F0ADFDE36F3860012B064600F048
:1026D000D280874908F048F978B98649304608F031
:1026E00025F950B9844A854B12680B920B9A1A60EF
:1026F00000232B600DB0BDE8F08FDFF8FC817F4C2C
:10270000D8F800300A930A9823687D4FC01A07F062
:1027100017FF314607F06CFF7A4908F01DF8794938
:1027200008F01AF8396807F05BFED8F80030099312
:10273000099B2360002338602B600DB0BDE8F08F4B
:10274000DFF8C881704DD8F80000664E01230022E2
:102750000F212B6004F0BAF92B68012B336800F0CD
:102760000381002B40F0A6810021D8F80000DFF89B
:10277000B891664D04F0FCF933681FFA80FBC9F884
:1027800000B0002B40F07B810021D8F80000564DAE
:10279000DFF878A104F072F9B4F8863040F6E4412D
:1027A00001FB0BF1B1FBF0F0C01A00B207F0CCFE58
:1027B00057498346D4F8880007F01AFF0146584667
:1027C00007F0CAFFD9F800302860632BDFF858B152
:1027D00000F3498100232B603368002B3FF461AF85
:1027E00002214C4806F066F9D9F80020D8F800001C
:1027F00040F6E443002103FB02F804F03FF9B8FB84
:10280000F0F007F09DFE8046B4F8860007F09CFECD
:102810000146404607F0E2FD07F040FA4FF002089B
:1028200002460B46CDF800803B4806F08DFB414642
:10283000384806F03FF9286807F030FACDF80080F4
:1028400002460B46344806F07FFB4146334806F00B
:1028500031F941462F4806F02DF922E7234804F0CC
:10286000DFFC07F01BFA022602460B4600962A48B8
:1028700006F06AFB24E7244B1B68012B00F026813D
:10288000022B7FF435AF264908F06EF830B92549A0
:10289000304608F04BF8002800F04781DFF85880F8
:1028A000164CD8F80030079307982368144FC01AC5
:1028B00007F046FE314607F09BFE124907F04CFF39
:1028C000104907F049FF396807F08AFDD8F8003051
:1028D0000693069B386023600AE700BF3893FF1F0A
:1028E0008092FF1FE094FF1F7092FF1F1093FF1F45
:1028F0000000FA430000FAC3ECCBFF1F5492FF1F05
:102900008892FF1F00007A445487FF1FB494FF1F72
:1029100017B7D138E8FD0000C887FF1F68F3000033
:1029200000C82F4800A08CC63093FF1F3D6898490F
:10293000284607F0FBFF30B12846964908F014F806
:1029400000287FF4FDAEDFF85882934DD8F80000E0
:10295000924E022300220E212B6004F0B7F82B6860
:10296000012B33687FF4FDAE002B40F00081002185
:10297000D8F80000DFF86C92894D04F0F9F833685C
:102980001FFA80FBC9F800B0002B40F0D580002171
:10299000D8F80000834D04F071F8B4F8843040F6A4
:1029A000E44A0AFB0BFBBBFBF0F0C01A00B207F0D5
:1029B000CBFD7D498346D4F88C0007F019FE014613
:1029C000584607F0C9FED9F8003028600021D8F831
:1029D00000000AFB03FA04F051F8B4F88430BAFBA3
:1029E000F0F00FFA80FAC3EB0A03002BB4F8BA2018
:1029F000B8BF5B429342BCBF00232B603368002BFF
:102A00003FF44FAE0221694806F054F8D9F800208F
:102A1000D8F8000040F6E443002103FB02F804F07C
:102A20002DF8B4F88410B8FBF0F000B2411A6048F9
:102A300006F082FA02215D4806F03CF8286807F0AB
:102A40002DF94FF0020802460B46CDF80080584899
:102A500006F07AFA0321574806F02CF8414653480D
:102A600006F028F81DE6DAF80000002104F006F868
:102A7000DBF8003064389842FFF4ACAEACE60021DD
:102A8000286803F0FBFF40F6E44100230A2201FB23
:102A90000BF1B1FBF0F1464806F00EFA0221434873
:102AA00006F008F8B4F88610414806F045FAD9F85F
:102AB00000B069E63E4806F0EFF90C213E4805F00B
:102AC000F9FF0C213D4805F0F5FF4DE63C4907F0C4
:102AD0004BFF58B93B49304607F028FF30B93A4A16
:102AE0003A4B12680592059A1A6001E6DFF8D88021
:102AF000364CD8F80030049304982368344FC01A39
:102B000007F01EFD314607F073FD324907F024FE41
:102B1000304907F021FE396807F062FCD8F8003030
:102B20000393039B38602360E2E5274A274B126832
:102B30000892089A1A60DBE50021286803F09EFFDE
:102B400040F6E44100230A2201FB0BF1B1FBF0F156
:102B5000174806F0B1F901211F4805F0ABFFB4F8A2
:102B60008410134806F0E8F9D9F800B00FE71048D0
:102B700006F092F9E36F012B4FF00B010CBF1748E1
:102B8000174805F097FF0C210C4805F093FFEEE67F
:102B900000709446007094C65487FF1FE094FF1F96
:102BA000B494FF1F7092FF1F17B7D138E8FD0000E3
:102BB000C887FF1F54F3000058F3000044F30000DF
:102BC0000000FA430000FAC3ECCBFF1F5492FF1F32
:102BD0008892FF1F00007A4408F200002CF30000E6
:102BE00038F300003093FF1F2DE9F047934C236822
:102BF00084B0002B79D0924DDFF84C82914FD5F8FC
:102C000080308F4E012B00F08980D7F80090D6F8E5
:102C100058A0746D8C4E04FB0AF44FF47A7000FBDC
:102C200004F007F091FC89490446484607F0E0FCAF
:102C3000214607F091FD864907F0DAFC07F09EFE79
:102C40006328C8F800004BDD2046804907F084FD6A
:102C50006423386033607F4B1B68002B3DD0EB6FE3
:102C6000774C012B00F08880032B00F0D680022BDC
:102C700000F0D9800221784805F01CFF774B1868D6
:102C800007F00CF8022402460B460094744806F044
:102C90005BF92146734805F00DFF21466E4805F0AB
:102CA00009FFD8F800106E4806F046F906216E4874
:102CB00005F000FF3868654907F09AFC06F0EEFF62
:102CC000009402460B46664806F03EF90321674829
:102CD00005F0F0FE624806F0DFF804B0BDE8F087CA
:102CE0000028BCBF00233360B5E7614E544D336804
:102CF0000293029A42F228339A4249D833680393E6
:102D0000039A42F210739A4249D8D5F88030DFF81E
:102D100038814C4F4A4E012B7FF477AF5548FEF770
:102D200095FB5549D6F86890F46E07F061FC07F002
:102D30004BFE326F736FD5F858A0C9EB02021B1B14
:102D400080B29A42C9EB0000C6BF03FB000001320B
:102D5000584390FBF2F020446C6D00FB0AF004FB3A
:102D600000F000EB8000400007F0EEFB374907F071
:102D7000F3FC814638604DE7404B1B68012B4FF058
:102D80000A010CBF3E483F4805F094FEE36F6BE735
:102D900038486A6C95F84010FEF7FAFAAEE7354805
:102DA000FEF754FB3449AF6EEE6E07F021FC07F0DE
:102DB0000BFE2A6F6B6FD21B9B1B80B29A42A0EB5B
:102DC000070035DD03FB0000531C90FBF3F31E44AA
:102DD000A86D6B6DDFF870801A4FC8F8006000FBBB
:102DE00006F003FB00F000EB8000400007F0ACFBB6
:102DF000164907F0B1FC0123386002211648236010
:102E000005F058FE164806F047F859211E4805F00F
:102E100051FE134806F040F8F1E610211B4805F07A
:102E200049FEEB6F23E70721194805F043FE21E730
:102E300003FB00F393FBF2F31E44C9E76C92FF1F00
:102E40003893FF1F8892FF1F3487FF1FE4388E3EA0
:102E50000000C8423C87FF1FE8FD00008092FF1F72
:102E6000C887FF1F68F30000FCF3000004F40000B3
:102E7000ECCBFF1FEC94FF1F00007A445487FF1F28
:102E8000C8F30000D4F300006CF30000E0F300008E
:102E9000F4F30000F0B5112083B004F0C7FD012861
:102EA00013D000210B2004F0BBFD00210C2004F006
:102EB000B7FD0021152004F0B3FD1D491D4B012075
:102EC000002208701A6003B0F0BD014604461520C8
:102ED00004F0A6FD1849194A194B09680191D2F866
:102EE00090001B680199134D034402268B422E600B
:102EF00017D8D2F8980007F027FB124B196807F093
:102F000015FD074668B921460B2004F089FD084AE3
:102F1000032339460C2016702B6004F081FD03B0AA
:102F2000F0BD01210C2004F07BFD03B0F0BD00BF1B
:102F3000A494FF1FDC94FF1FECCBFF1F3893FF1FEF
:102F4000E894FF1F8092FF1FF0B56A4E6A4D346807
:102F50002B689C4287B03AD014F001015AD014F08B
:102F600002014ED014F0040142D0E3070ED52B68C5
:102F7000DF070BD4614F3A68002A00F08780604B6E
:102F80001B680193019B934272D83468A0070DD54A
:102F90002B6899070AD45B4F3A68002A51D0584BE6
:102FA0001B680393039B93423DD8346862070ED598
:102FB0002B685B070CD4544F3A68002A00F08380DA
:102FC0004F4B1B680593059B93426CD834680CB13A
:102FD00007B0F0BD2146162004F0A2FB21461720C1
:102FE00004F09EFB2146052004F09AFB07B0F0BDDB
:102FF000052004F095FB2B68346803F0FB032B607D
:10300000B3E7172004F08CFB2B68346803F0FD0352
:103010002B60A7E7162004F083FB2B68346803F0CD
:10302000FE032B609BE7394B1720D3F8941004F074
:1030300077FB2B68346843F0020300222B603A6070
:10304000B4E7334805F028FF0C21324805F032FD83
:103050002F4805F021FFFF21172004F061FB284BCA
:103060002D4A19680291029912680A443A6097E75A
:10307000264B1620D3F8941004F052FB2B683468CA
:1030800043F0010300222B603A607FE7FF21162006
:1030900004F046FB1A4B204A196800910099126807
:1030A0000A443A606CE7194B0520D3F8941004F0F9
:1030B00037FB2B68346843F0040300222B603A602E
:1030C000002C85D186E7124805F0E6FE0C21134856
:1030D00005F0F0FC0E4805F0DFFEFF21052004F0AE
:1030E0001FFB074B0C4A19680491049912680A44A3
:1030F0003A6066E7DC94FF1FF893FF1F7894FF1F88
:10310000ECCBFF1F7C94FF1F8094FF1F3893FF1FA1
:10311000C887FF1F08F400007487FF1F18F4000021
:103120002DE9F047544EDFF87481DFF87491306870
:10313000524D00220F2103F0C9FC0023012222215D
:103140004F48C8F80030C9F8002005F0B3FCD8F8A3
:103150000030132B22DC40F6E44700213068B5F83C
:1031600084A003F005FD00210446306803F086FCCE
:10317000A4B2012107FB04F4B4FBF0F44148544429
:10318000A5F8844005F096FC642004F085FCD8F88E
:1031900000300133132BC8F80030DEDDB5F8843081
:1031A000394A3A48A2FB03129B1A02EB5303C3F3BA
:1031B0000F131946A5F8843005F0BEFE1D213448D2
:1031C00005F078FC0221334805F074FC2F4805F027
:1031D00063FE00231A460E213068C8F8003003F061
:1031E00075FC022322212648C9F8003005F062FC54
:1031F000D8F80030132B22DC40F6E4470021306879
:10320000B5F8869003F0B4FC00210446306803F062
:1032100035FCA4B2012107FB04F4B4FBF0F4194817
:103220004C44A5F8864005F045FC642004F034FCCD
:10323000D8F800300133132BC8F80030DEDDB5F8C4
:103240008630114A1148A2FB03129B1A02EB53036A
:10325000C3F30F131946A5F8863005F06DFE1D2146
:103260000D4805F027FC02210A4805F023FC074819
:10327000BDE8F04705F010BEB494FF1F3893FF1F60
:1032800028F400006CF4000087611886C887FF1FCF
:103290004CF40000E8FD000070F400009C94FF1F57
:1032A0005487FF1F2DE9F843B74BB84CB84F1B6844
:1032B000386D40F2513108222160E271002B40F05C
:1032C000068107F041F97969054607F091F9B1499E
:1032D000DFF8FC8207F08CF907F076FB80B203126E
:1032E0006372AD4AAD4B12681B682072A372284608
:1032F0001B121512E3722273B969657307F078F92E
:10330000A449A24D07F074F907F05EFBA44B1B78AB
:1033100080B2A073052B4FEA2020E07300F0DC8020
:10332000002388F80230994D9E48294603F0F0F9B1
:103330009D4B9E4A1B681688A672DAB202EB820188
:10334000227203EB8302490042F3D7124FEA262E82
:103350004FF0000908261B1221736273294640F2C0
:103360005532904884F80BE022606372E67184F86D
:103370000E9084F80F9003F0CBF940F256338C484E
:103380002360E671FEF700F88A4907F031F907F08B
:103390001BFB20728648FDF7F7FF864907F028F9E6
:1033A00007F012FB844A8349C0F307236372106855
:1033B00007F0D2F907F0E2FA40FA06F203467C4839
:1033C000E272A372FEF702F8724907F011F907F0F2
:1033D000FBFA20737648FDF7F9FF6E4907F008F90C
:1033E00007F0F2FA2946C0F307236E48637384F8A6
:1033F0000E9084F80F9003F08BF9022004F04CFB40
:103400006E4B98F800001A78597893F802E022730E
:10341000DA78617340F25A33294684F80EE0E27399
:1034200098F801E098F802202360207298F80330A1
:103430005C4884F809E0A272E372E67103F068F96F
:103440005F4B58481A78597893F802E022726172FB
:10345000DA78197993F805C084F80AE0E27293F8F3
:1034600006E0DA79217340F25E33294684F80DC014
:1034700084F80EE0E2732360E67103F049F902205C
:1034800004F00AFB4F4B47481A78597893F802E04A
:1034900022726172DA78197993F805C084F80AE02B
:1034A000E27293F806E0DA7921734FF45C732946EF
:1034B0002360E67184F80DC084F80EE0E27303F037
:1034C00027F9414B1B68012B0FD0BDE8F88307F0AB
:1034D0003BF8396A0546F8E60023F02288F8022016
:1034E000AB72EB722B736B731DE73148DFF8A08072
:1034F000FDF700FFF96C06F073FF07462C48FDF757
:103500001FFF0146384607F011FA0028DDD040F2CF
:10351000C3332748EE712B60FDF7ECFED8F8486006
:10352000314607F003FAC8B12849304607F060F881
:1035300007F04AFA80B2031228726B720023012648
:1035400004250322A672E57222736373A373E373E7
:103550000E491448BDE8F84303F0DAB81448FDF703
:10356000C9FE1A4907F044F807F02EFA28721048ED
:10357000FDF7C0FE154907F03BF807F025FAC0F348
:1035800007206872DAE700BF7492FF1FCC94FF1F18
:103590003893FF1F00002041B094FF1F5C92FF1F73
:1035A000A494FF1F44CAFF1F3487FF1F3887FF1FE3
:1035B000EC94FF1F0000C8428092FF1FA894FF1FD9
:1035C0002C87FF1F5887FF1FBC94FF1F00007A4401
:1035D0003493FF1FF0B59C4C9C4D83B005F004FA6A
:1035E00023682860042B00F0AC82022B4BD0082B00
:1035F00000F09280072B40F05181332801F0C58301
:1036000000F3AD80312801F0D383322840F0B08040
:1036100005F026FA002840F33F818D488D4E05F0D5
:10362000CDFD06F091FF8C4906F0E2FF61230122F7
:10363000F06322602B601846A0F152031F2B01F2A9
:103640009483DFE813F0360B920B920B920B920BE4
:10365000920B920B920B920B920B920B920B920B82
:10366000920B920BB203AB0C3905A7057304920BB6
:10367000920B920B2604920BAE0C920B920B920BB8
:10368000920B920B240BA0F13102422A70D8DFE892
:1036900012F022072E07E606F306060715076F004D
:1036A0006F006F006F006F006F006F006F006F00A2
:1036B0006F006F006F006F006F006F006F006F0092
:1036C0006F006F006F006F006F006F006F006F0082
:1036D0006F006F006F006F006F006F006F006F0072
:1036E0006F006F006F006F006F006F006F006F0062
:1036F0006F006F006F00D3066F006F006F006F00E8
:103700006F006F006F006F006F006F006F006F0041
:103710006F006B006F00D906322800F02F837128EC
:1037200022D0312824D105F09BF9002840F34286AD
:103730004748484E05F042FDC0B286F840000228D6
:1037400094BF01460021726C444888BF86F840103F
:10375000FDF71EFE01236920236028606CE73428F2
:1037600001F03C83712803D100237320236028607B
:10377000002B08BF73280CBF01200020002860D058
:10378000334805F089FB0421354805F093F93048AA
:1037900005F082FB1021334805F08CF92C4805F028
:1037A0007BFB1321304805F085F9304B2848196818
:1037B00005F0C2FB264805F06FFB14212C4805F0EC
:1037C00079F9234805F068FB1E212A4805F072F9B3
:1037D0001F4805F061FB1521274805F06BF91C48CF
:1037E00005F05AFB1E21254805F064F9184805F03C
:1037F00053FB2021224805F05DF9154805F04CFBEC
:103800001921204805F056F9114805F045FB122111
:103810001D4805F04FF90E4805F03EFB0F211B48EF
:1038200005F048F90A4805F037FB0D21184805F066
:1038300041F9074805F030FB164A002101231160C9
:10384000236003B0F0BD00BF8C92FF1F7C92FF1F6E
:10385000C887FF1F3893FF1F6F12833AEC94FF1F36
:1038600064FC00006CFC000080FC00002487FF1F4B
:1038700094FC0000ACFC0000CCFC0000E4FC000068
:1038800004FD000028FD000044FD000058FD00007C
:1038900068FD00003C87FF1F23682868062B40F066
:1038A0008D80A0F13102402A3FF662AF01A151F8AC
:1038B00022F000BFEB42000017430000434300002A
:1038C000694300008F430000C742000071370000C9
:1038D0007137000071370000713700007137000048
:1038E0007137000071370000713700007137000038
:1038F0007137000071370000713700007137000028
:103900007137000071370000713700007137000017
:103910007137000071370000713700007137000007
:1039200071370000713700007137000071370000F7
:1039300071370000713700007137000071370000E7
:1039400071370000713700007137000071370000D7
:1039500071370000713700007137000071370000C7
:1039600071370000713700007137000071370000B7
:1039700071370000713700007137000071370000A7
:103980007137000071370000713700007137000097
:103990007137000071370000713700007137000087
:1039A0007137000071370000713700007137000077
:1039B000713700006937000023682868052B15D18E
:1039C000332801F0528240F34781352801F03F82CD
:1039D000C1F2168271287FF4CBAEDC4A002373203B
:1039E000136023602860C3E623682868032B40F037
:1039F000A480A0F13002422A3FF6BAAE01A151F8EC
:103A000022F000BF113B00003F4C0000674C00005B
:103A1000234B0000454B0000674B00008F4B00001C
:103A2000B74B0000D54B0000F94B00007137000088
:103A300071370000713700007137000071370000E6
:103A400071370000713700007137000071370000D6
:103A500071370000713700007137000071370000C6
:103A600071370000713700007137000071370000B6
:103A700071370000713700007137000071370000A6
:103A80007137000071370000713700007137000096
:103A90007137000071370000713700007137000086
:103AA0007137000071370000713700007137000076
:103AB0007137000071370000713700007137000066
:103AC0007137000071370000214C0000F345000001
:103AD000474A0000714A00008F4A0000E34A000094
:103AE000A9450000CD450000713700007137000086
:103AF0007137000071370000713700007137000026
:103B00007137000071370000654A0000AD4A0000BF
:103B100004F0A6FF002841F331818D488D4E05F059
:103B20004DFB01270346014662228B4873652760DF
:103B30002A60FDF72BFC23682868012B7FF418AE60
:103B40007AE5A0F13102402A3FF612AE01A151F808
:103B500022F000BF0B450000234500002745000070
:103B60004D4500008D4500005145000063450000B3
:103B7000674500006B450000713700007137000099
:103B80007137000071370000713700007137000095
:103B90007137000071370000713700007137000085
:103BA0007137000071370000713700007137000075
:103BB0007137000071370000713700007137000065
:103BC0007137000071370000713700007137000055
:103BD0007137000071370000713700007137000045
:103BE0007137000071370000713700007137000035
:103BF0007137000071370000713700007137000025
:103C00007137000071370000713700007137000014
:103C10007137000071370000713700007137000004
:103C200071370000713700007137000071370000F4
:103C300071370000713700007137000071370000E4
:103C400071370000713700007137000071370000D4
:103C50007137000069370000312801F0E780322811
:103C60007FF486AD04F0FCFE00287FF7BDAE384837
:103C7000384E05F0A3FA01226B23C6F898002260A3
:103C80002B6001E004F0B0FE04F0EAFE0028F9D158
:103C90002F4805F001F92E4805F0FEF82C4805F0F4
:103CA000FBF82B4805F0F8F8294805F0F5F8212134
:103CB0002A4804F0FFFE264805F0EEF815212848B2
:103CC00004F0F8FED6F89010214805F035F90221ED
:103CD000244804F0EFFE1E4805F0DEF81E212248BD
:103CE00004F0E8FED6F89810194805F025F90321EC
:103CF0001E4804F0DFFE164805F0CEF81E211C48D1
:103D000004F0D8FED6F89410114805F015F91048C3
:103D100005F0C2F81D21174804F0CCFED6F8A41017
:103D20000B4805F009F90A4805F0B6F81E211248BB
:103D300004F0C0FED6F8A810054805F0FDF80448C8
:103D400005F0AAF8052323607BE500BF9494FF1FCC
:103D5000C887FF1F3893FF1FEC94FF1FDCF600009D
:103D600000F7000034F6000018F7000054F30000DC
:103D700038F7000058F7000078F7000004F070FEF4
:103D8000002840F31383B248B24E05F017FA06F04C
:103D9000DBFBB14906F02CFC0346024696F84010C6
:103DA000AE487364D4E404F01FFE04F059FE0546E7
:103DB0000028F8D1A648A74E05F06EF8A44805F0F3
:103DC0006BF8A34805F068F8A14805F065F8A0482D
:103DD00005F062F81F21A24804F06CFE9C4805F033
:103DE0005BF81C219F4804F065FE706A9E4906F04E
:103DF000FFFB05F053FF009502460B46944805F083
:103E0000A3F80221994804F055FE914805F044F8C2
:103E10002321974804F04EFEF06B934906F0E8FB2F
:103E200005F03CFF009502460B46894805F08CF8EA
:103E300002218E4804F03EFE854805F02DF8192138
:103E40008C4804F037FEB06B05F028FF02250B46C6
:103E5000024600957E4805F077F82946864804F02A
:103E600029FE7B4805F018F81921844804F022FE49
:103E7000B6F8B810764805F05FF80321804804F0E2
:103E800019FE734805F008F807232360D9E404F00D
:103E9000ABFD04F0E5FD05460028F8D16C486D4EF9
:103EA00004F0FAFF6A4804F0F7FF694804F0F4FFF1
:103EB000674804F0F1FF664804F0EEFF15217148F1
:103EC00004F0F8FD624804F0E7FF18216E4804F0A2
:103ED000F1FD2B460A2296F840105D4804F0ECFFF5
:103EE0005B4804F0D9FF2821684804F0E3FD706CBA
:103EF0005D4906F07DFB05F0D1FE00950B460246BC
:103F0000534805F021F80221584804F0D3FD5048E9
:103F100004F0C2FF13215E4804F0CCFD4C4804F0CD
:103F2000BBFF082323608CE404F05EFD04F098FDE1
:103F300005460028F8D14648464E04F0ADFF4448F7
:103F400004F0AAFF424804F0A7FF414804F0A4FF90
:103F50003F4804F0A1FF11214E4804F0ABFD3C485E
:103F600004F09AFF28214C4804F0A4FD70693E49F2
:103F700006F03EFB05F092FE009502460B463448E3
:103F800004F0E2FF0221394804F094FD304804F0C7
:103F900083FF1621414804F08DFDF069324906F097
:103FA00027FB05F07BFE00950B460246284804F0EF
:103FB000CBFF02212D4804F07DFD254804F06CFF65
:103FC000D6F8B030002B32DD1D21354804F072FDEB
:103FD000F06D06F0B9FA334906F00AFB05F05EFE13
:103FE000022502460B460095194804F0ADFF012159
:103FF0002D4804F05FFD164804F04EFF1F212B48AA
:1040000004F058FD306E06F09FFA264906F0F0FAEB
:1040100005F044FE009502460B460D4804F094FF5F
:104020000121214804F046FD094804F035FF112123
:104030001F4804F03FFDD6F8B030052B00F256863D
:10404000DFE813F07F067A0650068E06890684069E
:10405000C887FF1F3893FF1F6F12833AEC94FF1F2E
:1040600038F6000058F6000000007A4408F5000019
:1040700078F600009CF60000B8F60000BCF60000E0
:10408000D8F600002CFD0000C0F40000DCF40000B5
:104090000CF50000D0FC000020F500004CF50000FD
:1040A00064F50000CDCCCC3DBCF9000084F50000E7
:1040B000A4F5000004F098FC04F0D2FC0028F9D12B
:1040C000BF48C04E04F0E8FEBD4804F0E5FEBC4821
:1040D00004F0E2FEBA4804F0DFFEB94804F0DCFE6A
:1040E0001F21B94804F0E6FCB54804F0D5FE1E21B6
:1040F000B64804F0DFFCB24804F0CEFE1A21B44802
:1041000004F0D8FCF36F022B00F01787032B00F0AC
:104110000B87012B00F01A870921AE4804F0CAFC76
:10412000A74804F0B9FE1421AB48A64F04F0C2FC26
:10413000B16FA34804F000FFA14804F0ADFE1C21BC
:10414000A64804F0B7FCD6F880109D4804F0F4FEB1
:104150009B4804F0A1FE1C21A14804F0ABFCD6F85A
:10416000AC10974804F0E8FE954804F095FEF56F12
:1041700025F00205012D00F091861321994804F0E5
:1041800099FC8F4804F088FE02232360FFF759BB97
:1041900004F02AFC04F064FC0028F9D1884804F0FB
:1041A0007BFE874804F078FE854804F075FE84485D
:1041B00004F072FE824804F06FFE13218A4804F076
:1041C00079FC7F4804F068FE0D21884804F072FCF9
:1041D0007B4804F061FE0F21854804F06BFC854BA1
:1041E0007748196804F0A8FE754804F055FE1321BD
:1041F000814804F05FFC814B7148196804F09CFE13
:104200006F4804F049FE12217D4804F053FC7D4BB9
:104210006B48196804F090FE694804F03DFE1121D6
:10422000794804F047FC794B6548196804F084FE2E
:10423000634804F031FE0E21754804F03BFC614BED
:104240005F48D3F8A01004F077FE5D4804F024FE28
:104250001921704804F02EFC6F4B5948196804F07E
:104260006BFE574804F018FE11216C4804F022FC44
:104270006B4B5348196804F05FFE514804F00CFE84
:104280001021684804F016FC674B4D48196804F08B
:1042900053FE4B4804F000FE1C21644804F00AFC65
:1042A000634B4748196804F047FE454804F0F4FDA5
:1042B00013214C4804F0FEFB414804F0EDFD0423BB
:1042C0002360FFF7BEBA04F0CBFB00287FF774AB86
:1042D0003B483C4E04F072FF65230122C6F8B4004F
:1042E00022602B601846FFF7A7B904F0B9FB00283D
:1042F0007FF762AB3248334E04F060FF06F024F9DA
:104300004C4906F029FA65230122706122602B6076
:104310001846FFF791B904F0A3FB00287FF74CABD8
:104320002748284E04F04AFF06F00EF9414906F0EE
:1043300013FA65230122F06122602B601846FFF713
:104340007BB904F08DFB00287FF736AB1C481D4E6F
:1043500004F034FF00EB8000430001226520F36588
:1043600022602860FFF768B904F07AFB00287FF725
:1043700023AB1348134E04F021FF00EB80004300F1
:1043800001226520336622602860FFF755B90D4A87
:10439000D2F8B0300133052BC8BF0023C2F8B030CB
:1043A0006520012323602860FFF746B92368286849
:1043B000FFF720B9034E96F84000FFF7C0B900BFE1
:1043C000C887FF1F3893FF1F7CF800009CF800008F
:1043D000BCF8000034F9000040F9000058F9000072
:1043E00078F900000CF5000098F70000ACF7000029
:1043F000BCF700007494FF1FCCF70000E094FF1F8F
:10440000E0F70000C494FF1FF4F70000C894FF1FFA
:1044100008F8000018F800009894FF1F34F8000016
:104420009494FF1F48F800007892FF1F5CF800008A
:104430006887FF1F00007A44FEF772FE2368286831
:10444000FFF7D5B8724AD36F0133032BC8BF0023DF
:10445000D3670123632023602860FFF7EDB80123B1
:10446000236004F0FDFA0028F3DD6A48684E04F08A
:10447000A5FEC6F8AC00ECE70123236004F0F0FAD7
:10448000002807DD6348624E04F098FE06F05CF8F1
:10449000C6F88C00632028602368FFF7ABB80123BF
:1044A000236004F0DDFA0028F4DD5A48584E04F089
:1044B00085FE06F049F8C6F88800EBE70123236083
:1044C00004F0CEFA0028E5DD5248514E04F076FEA5
:1044D000A6F8BA00DEE74E4EB36FB3FA83F35B097A
:1044E00001226320B36722602860FFF7A5B8484E19
:1044F000D6F88030B3FA83F35B0901226320C6F853
:10450000803022602860FFF797B8434A1368B3FAF7
:1045100083F35B0901216420136021602860FFF7A9
:104520008BB83E4AF2E73E4A3E4F1368002B0CBF61
:10453000012300234FF001001360206040F0DE846F
:10454000034664222A606420FFF751B8364ADDE74B
:10455000012336482360FCF775FB354A2368106059
:10456000EFE7344AD2E7344AD0E70123236004F06E
:1045700077FA002800F38A84304B1A68042AC4BFF3
:1045800002221A6064232B602368DCE7204ED6F8F1
:10459000A030B3FA83F35B0901226420C6F8A0308F
:1045A00022602860FFF748B804F05AFA00280DDDB1
:1045B0001848174E04F002FE05F0C6FF204906F029
:1045C000CBF801226223306222602B6004F048FAAB
:1045D00000280EDD0F480E4E04F0F0FD05F0B4FF8C
:1045E000174906F0B9F801226223C6F8BC00226020
:1045F0002B6004F035FA002840F3C0830548044ED0
:1046000004F0DCFD01226223B06622602B601BE017
:104610003893FF1FC887FF1F7494FF1FE094FF1F8C
:10462000C494FF1F8C92FF1FC894FF1FEC94FF1FC0
:104630009894FF1F9494FF1F7892FF1F6887FF1FB5
:1046400000007A4404F0D0F904F00AFA0546002884
:10465000F8D1C24804F020FCC04804F01DFCBF485B
:1046600004F01AFCBD4804F017FCBC4804F014FC2C
:104670001521BB4804F01EFAB84804F00DFC1421C3
:10468000B84804F017FAB54804F006FC1B21B648F8
:1046900004F010FAB14804F0FFFB1321B34804F012
:1046A00009FAAE4804F0F8FBAC4804F0F5FBAB485F
:1046B00004F0F2FB2021AE4804F0FCF9F068AD49AB
:1046C00005F096FF05F0EAFA009502460B46A3486E
:1046D00004F03AFC0221A84804F0ECF90221A748B2
:1046E00004F0E8F99D4804F0D7FB2121A44804F028
:1046F000E1F930699F4905F07BFF05F0CFFA00959D
:1047000002460B46954804F01FFC02219A4804F02B
:10471000D1F90221994804F0CDF9904804F0BCFB8E
:104720001F21984804F0C6F9B06A05F0B7FA0227CD
:1047300002460B460097894804F006FC0121924886
:1047400004F0B8F939468D4804F0B4F9834804F010
:10475000A3FB20218D4804F0ADF9F06A05F09EFA24
:10476000009702460B467D4804F0EEFB0121864887
:1047700004F0A0F93946814804F09CF9774804F028
:104780008BFB2321824804F095F9B06C794905F040
:104790002FFF05F083FA009502460B466F4804F0A0
:1047A000D3FB3946744804F085F93946734804F060
:1047B00081F96A4804F070FB1F21764804F07AF909
:1047C000F06C6C4905F014FF05F068FA009502469C
:1047D0000B46624804F0B8FB3946674804F06AF9B2
:1047E0003946664804F066F95C4804F055FB192127
:1047F000694804F05FF9B16D584804F09DFB3946F3
:10480000664804F057F939465C4804F053F95348B8
:1048100004F042FB1821624804F04CF9706E05F078
:1048200093FE604905F0E4FE05F038FA0097024671
:104830000B464A4804F088FB01215B4804F03AF932
:1048400039464E4804F036F9444804F025FB2B2144
:10485000564804F02FF9B069464905F0C9FE05F045
:104860001DFA009502460B463C4804F06DFB3946A4
:10487000414804F01FF93946404804F01BF9374815
:1048800004F00AFB1F214A4804F014F9716D334803
:1048900004F052FB3946394804F00CF92F4804F073
:1048A000FBFA2021434804F005F9316D2B4804F050
:1048B00043FB3946314804F0FDF8284804F0ECFA8F
:1048C00010213D4804F0F6F8B16E244804F034FBA2
:1048D0003946294804F0EEF83946284804F0EAF849
:1048E0001E4804F0D9FA1321344804F0E3F8F16EBD
:1048F0001A4804F021FB0121314804F0DBF8394665
:104900001E4804F0D7F8154804F0C6FA10212D48C7
:1049100004F0D0F8316F114804F00EFB3946164808
:1049200004F0C8F83946154804F0C4F80B4804F000
:10493000B3FA1421244804F0BDF8716F074804F05D
:10494000FBFA01211E4804F0B5F839460B4804F083
:10495000B1F8024804F0A0FA162137E0C887FF1F1B
:1049600004FA00001CFA000034FA00000CF5000004
:1049700050FA000000007A4408F50000E8FD00004D
:1049800074FA000098FA000044F00000B8FA000041
:10499000DCFA000000FB000020FB00003CFB0000F4
:1049A00040FB0000CDCCCC3DBCF900005CFB00001E
:1049B00088FB0000A8FB0000CCFB0000E0FB00002F
:1049C000F4FB0000F8FB00000CFC0000BA4804F007
:1049D00071F8306AB94905F00BFE05F05FF90095F2
:1049E00002460B46B64804F0AFFA3946B54804F023
:1049F00061F83946B44804F05DF8B14804F04CFA67
:104A00002421B24804F056F8D6F8BC00AB4905F0B2
:104A1000EFFD05F043F900950B460246A84804F067
:104A200093FA3946A74804F045F83946A64804F0F9
:104A300041F8A34804F030FAA14804F02DFA03230A
:104A40002360FEF7FEBE04F00BF8002840F39681C9
:104A50009B489F4E04F0B2FB01226223F066226065
:104A60002B60F1E50022732322602B60FEF788BEE5
:104A700003F0F6FF002840F381819148944E04F042
:104A80009DFB01226223306722602B60DCE503F08E
:104A9000E7FF002840F3728189488D4E04F08EFBB9
:104AA00001226223706722602B60CDE5894B864826
:104AB000874E002202211A6003F0FCFF804804F0B8
:104AC000EBF90B21844803F0F5FF02217E4803F047
:104AD000F1FF7B4804F0E0F90122622322602B60A1
:104AE000B2E5FCF7D3FF02217748794E03F0E2FFED
:104AF000734804F0D1F90221734803F0DBFF7048DA
:104B000004F0CAF90221704803F0D4FF6C4804F0A5
:104B1000C3F91721714803F0CDFF694804F0BCF9CF
:104B2000D3E703F09DFF002840F328816448684ED6
:104B300004F044FB05F008FD01226223B06222600C
:104B40002B6081E503F08CFF002840F317815C485F
:104B50005F4E04F033FB05F0F7FC01226223F062A4
:104B600022602B6070E503F07BFF002840F3068194
:104B70005348574E04F022FB05F0E6FC4F4905F080
:104B8000EBFD01226223B06422602B605CE503F040
:104B900067FF002840F3F28049484D4E04F00EFBB9
:104BA00005F0D2FC454905F0D7FD01226223F064EF
:104BB00022602B6048E503F053FF002840F3DE80BD
:104BC0003F48434E04F0FAFA01226223B0652260A6
:104BD0002B6039E503F044FF002840F3CF803848CC
:104BE0003B4E04F0EBFA00EB80004300012162220F
:104BF000736621602A6027E503F032FF002840F346
:104C0000BD802F48324E04F0D9FA05F09DFC2B49A7
:104C100005F0A2FD01226223B06122602B6013E542
:104C200003F01EFF002840F3A9802548284E04F019
:104C3000C5FA01226223306522602B6004E503F08F
:104C40000FFF002840F39A801D48214E04F0B6FA69
:104C500005F07AFC194905F07FFD01226223F0601E
:104C600022602B60F0E403F0FBFE002840F3868016
:104C70001348174E04F0A2FA05F066FC0F4905F040
:104C80006BFD01226223306122602B60DCE4C022D4
:104C900000210F4802F016FC2868114AA0F17300A9
:104CA00001210023B0FA80F0400911602360FEF773
:104CB00065BD03F0C9F900BF24FC000000007A4480
:104CC000C887FF1F08F50000E8FD00003CFC00005D
:104CD0003893FF1F6C92FF1FB4F400009CF4000097
:104CE0003C87FF1F0C21B04803F0E4FEAF48B04DF5
:104CF00004F0D2F8D6F8B030002B0FDD1821AD4803
:104D000003F0D8FED5F8B410A84804F015F9022134
:104D1000A94803F0CFFEA54804F0BEF8A34804F06C
:104D2000BBF81321A54803F0C5FEA04804F0B4F871
:104D300006232360FEF785BD0C21A14803F0BAFECF
:104D4000D4E70D219F4803F0B5FECFE70F219E4821
:104D500003F0B0FECAE70D219C4803F0ABFEC5E7A7
:104D60000D219B4803F0A6FEC0E72368002B08BF77
:104D700073280CBF01200020FEF700BD23682868BF
:104D8000012B7EF4F5ACFEF757BC03F069FE00285A
:104D90007EF782AD8548864E04F010FA05F0D4FB0C
:104DA00061230122B06322602B601846FEF744BCE9
:104DB00003F056FE00287EF76FAD7C487C4E04F071
:104DC000FDF905F0C1FB834905F012FC61230122C6
:104DD000706222602B601846FEF72EBC03F040FE86
:104DE00000287EF759AD7148714E04F0E7F9612350
:104DF0000122A6F8B80022602B601846FEF71CBC02
:104E000003F02EFE00287EF7EFAD6848684E04F0F0
:104E1000D5F9714BC6F8A40002221A60FDF79CF97F
:104E200001226B2322602B60FEF72EBF03F018FED9
:104E300000287EF7D9AD5D485D4E04F0BFF9012230
:104E40006B23C6F8900022602B60FEF71DBF03F0B5
:104E500007FE00287EF7C8AD5448554E04F0AEF961
:104E60005D4BC6F8A8000322D7E703F0F9FD002840
:104E70007EF7BAAD4D484E4E04F0A0F901226B23E7
:104E8000C6F8940022602B60FEF7FEBE474804F08F
:104E900095F9524B02461860FFF770BB1C21504831
:104EA00003F008FED7F88C004E4905F0A1FB04F092
:104EB000F5FE009502460B463C4804F045F80521F6
:104EC000494803F0F7FD394803F0E6FFFD6F012D77
:104ED00045D0032D7FF451A91C21444803F0EAFD7D
:104EE000B6F8BA10314804F027F80321404803F01F
:104EF000E1FD2E4803F0D0FFFFF73FB93D4B002600
:104F000031460B201E6002F08BFD31460C2002F072
:104F100087FD3146142002F083FD3146152002F052
:104F20007FFD3B68FFF70DBB2021334803F0C2FD36
:104F30001E4803F0B1FFFFF7F6B817212F4803F022
:104F4000B9FD1A4803F0A8FFFFF7EDB81E212C4861
:104F500003F0B0FD154803F09FFFFFF7E4B81D21F3
:104F6000284803F0A7FDD7F888001E4905F040FB4C
:104F700004F094FE00950B4602460C4803F0E4FF53
:104F80000521194803F096FD084803F085FFFB6FE3
:104F900023F00203012B9FD0FFF7EFB8044EFFF779
:104FA00053BB034EFEF770BED8F50000C887FF1F45
:104FB0003893FF1F18F6000034F600000CF50000CF
:104FC000C8F50000B8F5000008F60000F8F500008C
:104FD000E8F500006F12833A9494FF1F6887FF1F63
:104FE00098F90000CDCCCC3DB8F90000E0F9000004
:104FF00000FA0000DC94FF1FF8F800001CF9000024
:10500000D8F80000C0F9000038B5164C164A2368DD
:10501000101D12F8011F904241EA0323F9D12360C9
:10502000124C03F100432360114BDB6F022B11D0B4
:10503000104B1B68012B00D038BD0F4803F02CFF2C
:1050400021680D4803F078FF03210C48BDE8384083
:1050500003F030BD20680A4D05F076FA2860FDF7B0
:1050600013FBE5E70094FF1F8B94FF1FAC94FF1F19
:105070003893FF1F7494FF1FC887FF1F78FD00003F
:105080007092FF1F30B53D4D3D4883B0294601F079
:1050900037FA2B683C2B56D0B3F5407F394C08D2F9
:1050A000226836493848012A18BF0022FBF726FE3D
:1050B0002B68364A23F060431A44EE2A07D8226848
:1050C0002E493148012A18BF0022FBF7E1FD236871
:1050D000012B01D003B030BD2D4B2E481B6801932E
:1050E0000A220023019903F0E7FE2A68234B002AD5
:1050F000DB793BDB2849294806F042FA274806F0CD
:105100007FFA0146254803F0D5FC2C681B4B14F0B0
:1051100080441CD1DB798BB12B1921491A7A1F48A5
:1051200006F02EFA1D4806F06BFA01461B4803F004
:10513000C1FC0134EB79E4B2A342EDD8154803F089
:10514000ABFE03B030BDFFF75FFF2B68A4E7154D42
:10515000124C0FCD0FC495E8030044F8040B204611
:1051600020F81419152103F0A5FCE7E70E490B48B8
:1051700022F0604206F004FAC0E700BF8494FF1FEB
:1051800044CAFF1F7494FF1FEC94FF1FFFABAAE5F6
:10519000ECCBFF1FC887FF1FA4FD00009092FF1FEC
:1051A000D0FD0000B8FD00007CFD00002DE9F84FA7
:1051B0009A4B9B4C1B78052B08D09A48FCF706F9B4
:1051C000E16A05F0B3FB002800F09380964E974DFE
:1051D000002333602B60964B92481B68904F012B45
:1051E00045D0FCF7ADF8E1698046606905F0F6F856
:1051F0000146404605F0B8FB00284CD18948FCF731
:105200009FF8E16805F0B0FB08B100232B608548EA
:10521000834FFCF76FF8216905F088FB58B1002334
:1052200033602B68814A002B01DBBDE8F88F002337
:105230001360BDE8F88F7B48FCF75CF8B96905F0AE
:1052400075FB0028EBD17748FCF754F8D7F8BC1071
:105250000446B86905F0C4F80146204605F084FB11
:10526000002873D0786E30600028D8DBD9E7FCF7CF
:1052700067F8E1698046206A05F0B0F801464046CB
:1052800005F072FB0028B9D06648FCF759F8D7F84A
:105290002090834605E06348FCF752F8D7F8149055
:1052A0008346F969484605F099F88246F86D05F09D
:1052B0004BF98046386E05F047F9414605F08EF807
:1052C00051460746584605F089F80146384605F02C
:1052D0008FF951460746484605F080F801463846A2
:1052E00005F03AFA414605F07BF805F047FB2860E7
:1052F00084E74C48FCF76AF8216B05F017FB00289F
:1053000049D0494E636E47483360FCF75FF88146E9
:10531000E06DE76A454D05F017F939468046484685
:1053200005F05CF80146404605F062F939468046D2
:10533000206B05F053F80146404605F00DFA0021B8
:1053400005F04EF805F01AFB286044E73548FBF7F6
:10535000D1FF8146F86DBC6905F0F6F8214680461C
:10536000484605F03BF80146404605F041F9D7F8BC
:10537000BC108046204605F033F8214605F02EF893
:105380000146404605F0E8F9002105F029F805F04E
:10539000F5FA306068E72348FCF718F8616B05F010
:1053A000C5FA30B1204E214D626EE36D32602B6044
:1053B00011E71C48FCF70AF8A16A05F0B7FA0028C3
:1053C0003FF404AF1748184E184DFBF7FFFF814616
:1053D000606ED4F8348005F0B7F841460746484679
:1053E00004F0FCFF39468146002004F0F7FF014637
:1053F000484605F0FDF841468146A06A04F0EEFFFC
:105400000146484605F0A8F9394604F0E9FF05F0E1
:10541000B5FAE36D30602B60DDE600BFA494FF1F9A
:105420003893FF1FEC94FF1FB094FF1F5C92FF1F87
:105430007492FF1F08B5274803F02EFD0721264868
:1054400003F038FB112002F0F1FA0621F8B12348ED
:1054500003F030FB122002F0E9FA062100B32048E5
:1054600003F028FB122002F0E1FA062108B31D48E0
:1054700003F020FB132002F0D9FA062110BB1A48D2
:1054800003F018FB1348BDE8084003F005BD1748BA
:1054900003F010FB122002F0C9FA06210028DED129
:1054A000134803F007FB122002F0C0FA062100287F
:1054B000DDD1104803F0FEFA132002F0B7FA0621FE
:1054C0000028DCD00C4803F0F5FA0248BDE808409B
:1054D00003F0E2BCC887FF1FDCFD0000E4FD000014
:1054E000F4FD000004FE00001CFE0000ECFD0000C6
:1054F000FCFD00000CFE000014FE000010B5254C61
:105500002368042B27DC01210B2002F089FA0121FA
:105510000C2002F085FA0121142002F081FA012109
:10552000152002F07DFAFF21162002F0F9F8FF2184
:10553000172002F0F5F8FF21052002F0F1F8FF2115
:10554000062002F0EDF8236801330A2B2360C4BF64
:105550000023236010BD00210B2002F061FA00211E
:105560000C2002F05DFA0021142002F059FA00210B
:10557000152002F055FA0021162002F0D1F8002182
:10558000172002F0CDF80021052002F0C9F8002113
:10559000D6E700BFE494FF1F2DE9F041184CDFF877
:1055A0006880184FD8F8003023600025214608266F
:1055B0003846E67125726572A572E57225736573CA
:1055C000A573E57301F0A4F8012002F065FAD8F89C
:1055D000003023604FF0450E384628220127302343
:1055E000E6712146E57225736573A57384F808E0BA
:1055F0006772A272E373BDE8F04101F089B800BFA1
:10560000CC94FF1F44CAFF1F4C87FF1F2DE9F041B8
:105610008D4DD5F8B030042B3ED0032B6ED0012B2E
:1056200000F09880022B01D0BDE8F081874C8848BB
:10563000237240F20E32012321462260E37101F011
:1056400067F8844B1B685B00FF2BC8BFFF23042156
:1056500040224FF441702060E17122726372286D24
:1056600004F072FF696904F0C3FF7B49054605F049
:105670007BF9002800F0DE802946284604F0B0FEC1
:1056800005F0A2F980B20312E072A3726F4970486C
:10569000BDE8F04101F03CB86C4C704AA37922603F
:1056A00043F001030822E271A371286D04F04CFF5E
:1056B000696904F09DFF6A4904F09AFF05F084F9D6
:1056C000644B684A1B68126893FBF2F380B20026B1
:1056D0001A120712607221465D48E372A2722772A5
:1056E00026736673A673E67301F012F8A279D5F8F3
:1056F000B03066F30002032BA27190D1534C286D99
:10570000A3720122E823072140F2FF26227263726E
:105710002660E17104F018FF696904F069FF5049DF
:1057200004F066FF05F050F94A4B4E4A1B681268B8
:1057300093FBF2F382B21E121712214644486373A0
:10574000E2722773A67300F0E3FFD5F8B030012BA7
:105750007FF468AF444B3D4C1B68236007228023D5
:105760001020E271237202F061F9002869D13F4BE9
:105770001B68DFF8E0803B4F286D344E03EB83035A
:105780005B001A12A3726272D8F800303A6893FB79
:10579000F2F31A126273A37304F0D6FE696904F07F
:1057A00027FF334B196804F019FE2D4904F020FF40
:1057B00005F00AF980B20312314620732448E372DF
:1057C00000F0A6FF022002F067F92A4B1B68236055
:1057D000072280231020E271237202F027F970BBA8
:1057E000224B1B68286D03EB83035B001A12727255
:1057F000B37204F0A9FE696904F0FAFE1E4B196841
:1058000004F0ECFD164904F0F3FE05F0DDF882B279
:1058100016123868D8F80030227393FBF0F30B4966
:105820000B48A3731A12E672627300F071FFD5F889
:10583000B030F7E601229023A272E37226E70F4B05
:10584000CFE70E4B94E700BF3893FF1FCC94FF1FA8
:1058500044CAFF1F5C92FF1F00004843F4E506188E
:10586000000020415087FF1F6C87FF1F4087FF1FEC
:105870000494FF1F7087FF1FFC93FF1F4487FF1FC7
:105880002DE9F04F8FB001E0FFF7FCFBA34800F0DB
:1058900001FE0028F8D103F0E3F8002801DDFDF750
:1058A00099FE9F4CD4F89C30002B40F097809D4E81
:1058B0003368012B13D0FDF747FBD4F8A050012D1E
:1058C00000F05081984F3B78052B00F29D80DFE877
:1058D00013F0C900A5000401DD001D018800934DEF
:1058E0002B68934A0793079B1168904F5B1AB3F597
:1058F000FA7F1FD82B680C930C9B8E4A2B680B9356
:105900000B9B1068D4F8B410884D854C1B1A8B4241
:105910000DD92B680D93D4F8A0300D991160012B8F
:1059200000F09D81804B1B78032B00F098810FB015
:10593000BDE8F08F3B680893089B7F481360FBF736
:1059400019FCD4F8A030DFF8D8817B48012B00F097
:10595000A781FBF7CFFCD8F8101004F0E7FF002870
:1059600000F06A812B68754A0993099B12689A4274
:1059700002D96D4B05221A70714B1B68002B40F049
:105980008781704B1B68002B40F07E816E4B1B683B
:10599000002B40F076813368002B00F06F81FFF719
:1059A000ADFD6A4EFDF720F9FFF700FCFDF77AFC2C
:1059B000FFF7F2FD33686048002B40F05581FBF79C
:1059C00041F93060FCF732FB72B6614B4AF202617A
:1059D0004BF2804219801A8062B68BE702F000FA1F
:1059E00065E75C4B002212201A6002F01FF80128C4
:1059F00008BF0323504808BF3B70FBF723F9534B04
:105A00001B68984200F04C82484DE36F23F002037C
:105A1000012B7FF465AFFCF737FE61E74D4B46483D
:105A20003F4D00221A60FBF78BFCA16C04F09CFF39
:105A3000002840F05681484B00221A60122001F0E5
:105A4000F5FF012800F01A82112001F0EFFF012874
:105A5000364DDAD12A68414B0692069A1A60042321
:105A60003B70D2E73B4B314D4FF0000841461420CC
:105A7000C3F8008001F0D4FF41460B2001F0D0FFB5
:105A8000374A0123C2F800803B70BEE7314B002249
:105A9000012114201A6001F0C3FF2748FBF750FCD6
:105AA000A16C04F061FF002840F014812A4B1860BB
:105AB0002148FBF745FC616904F056FF002840F0DF
:105AC0008581122001F0B2FF00289DD101461420EB
:105AD00001F0A6FF01233B7096E71E4B4FF0010833
