:1000000000800020BD010000BD8600007586000054
:1000100075860000758600007586000075860000F4
:10002000758600007586000075860000BD8600009C
:10003000BD8600007586000085A7000089A8000025
:10004000BD860000BD860000BD860000BD860000A4
:10005000BD860000BD860000BD860000BD86000094
:10006000BD860000BD860000BD860000BD86000084
:10007000BD860000BD860000BD860000BD86000074
:10008000BD860000BD860000BD860000BD86000064
:10009000BD860000BD860000BD860000BD86000054
:1000A000BD860000BD860000BD860000BD86000044
:1000B000BD860000A57B0000B17B0000B57B000081
:1000C000C17B0000C57B0000C97B0000BD8600002D
:1000D000BD860000BD860000BD860000BD86000014
:1000E000BD860000BD860000BD860000BD86000004
:1000F000BD86000095AF0000BD8600005D93000046
:10010000BD86000029950000BD860000BD86000068
:10011000BD860000BD860000BD860000BD860000D3
:10012000BD860000BD860000BD860000BD860000C3
:10013000BD860000BD860000BD860000BD860000B3
:10014000BD860000BD860000BD860000BD860000A3
:10015000BD860000BD860000BD860000BD86000093
:10016000BD860000B9970000BD860000BD86000076
:10017000BD860000BD860000BD860000BD86000073
:10018000BD860000BD860000BD860000BD86000063
:10019000BD860000BD860000BD860000BD86000053
:1001A000BD860000BD860000BD860000BD86000043
:1001B000BD860000BD860000BD860000564B4CF297
:1001C000205210B51A804DF628121A8000BF00BFC9
:1001D00008F078FA514B4FF010621A60504A9A605A
:1001E000504ADA60504A136813F4807304D14F49BF
:1001F0000B604FF4A85313604D4B1A78110703D5C9
:100200001A7842F008021A704A4B4B492A221A7097
:100210004A4A4B4B8B4204D252F8040F43F8040B6A
:10022000F8E7484B484900228B4202D243F8042B9E
:10023000FAE74649464A002352F8230041F82300D2
:1002400001336F2BF8D1434B434A802103F8011B44
:100250009342FBD1414B3D4A1A60414B8A221A70AE
:10026000A3F5805324225A70A0221A709A7992071B
:10027000FCD59A79D406FCD43A4A937903F00C035E
:10028000082B384BF9D103221A7140225A719A79FE
:100290009006FCD5334A9179324B4906FBD5324A58
:1002A000324911600221516020221A709A7902F0BD
:1002B0000C020C2AFAD12E4B2E4A1A602E4B2F4AD2
:1002C0001A6000225A60072243F8042C2C4AC3F813
:1002D0000C2D62B608F0ACFC144B1B68DA0705D590
:1002E000284808F089FA284B284A1A60284B1B78BE
:1002F0005B0609D5244C254B22689A4204D121483B
:1003000008F07AFA002323600CF02CF908F0E0F9E9
:100310000AF000FDFEE700BF0E20054030800440DB
:10032000823F04000100002B10D0034014D0034092
:1003300002D0074000E007403892FF1FF42101007F
:100340002087FF1F3892FF1F04D6FF1F0082FF1F68
:100350000000000000E400E05FE400E008ED00E0E1
:100360000050064000400640448004400000030165
:1003700004800440C010050014E000E0FF76010096
:1003800000002020E2AD1E601CE00340A5C3945A8B
:1003900000F00740FFFFFFFFFFFFFFFFFFFFFFFF32
:1003A000FFFFFFFFFFFFFFFFFFFFFFFFFFFFFFFF5D
:1003B000FFFFFFFFFFFFFFFFFFFFFFFFFFFFFFFF4D
:1003C000FFFFFFFFFFFFFFFFFFFFFFFFFFFFFFFF3D
:1003D000FFFFFFFFFFFFFFFFFFFFFFFFFFFFFFFF2D
:1003E000FFFFFFFFFFFFFFFFFFFFFFFFFFFFFFFF1D
:1003F000FFFFFFFFFFFFFFFFFFFFFFFFFFFFFFFF0D
:10040000FFFFFFFFFFFFFFFFFFFFFFFFDEF9FFFF23
:1004100010B5054C237833B9044B13B10448AFF33E
:1004200000800123237010BD3892FF1F00000000E0
:10043000F0210100084B10B51BB108490848AFF383
:1004400000800848036803B910BD074B002BFBD0A0
:10045000BDE81040184700BF000000003C92FF1F9D
:10046000F02101003892FF1F00000000F0B400F1FD
:100470003006174F00243146031F00F1640243F891
:10048000044FB34241F8047F4FF0000542F8044F97
:10049000F5D100230F4A104CC0F89C5047F2305160
:1004A000C0F8A050C0F8A450C0F8A850C0F8B85088
:1004B000C0F8B040C0F8AC20C0F8B42080F8C43018
:1004C00080F8C53080F8DC30C0F8F010F0BC704720
:1004D0000000A040000048430000C8C238B5CB7BF4
:1004E000FD2B0C46054632D0087A0BF0D5FD4FF0B7
:1004F0007C510BF025FE1D490BF018FDC5F8A0003E
:10050000207BEF2809D90023C5F8A430607BEF28B1
:1005100011D90023C5F8A83038BD0BF0BDFD4FF050
:100520007C510BF00DFE11490BF000FDC5F8A40045
:10053000607BEF28EDD80BF0AFFD4FF07C510BF056
:10054000FFFD0A490BF0F2FCC5F8A80038BD887A17
:10055000FD28E1D00BF0A0FD4FF07C510BF0F0FD39
:1005600003490BF0E3FCC5F8A00038BD00002C42A5
:100570000000204290F8CC00704700BF90F8C800FF
:10058000704700BF90F8D000704700BF90F8D400CB
:10059000704700BF0D2994BF50F82100002070471C
:1005A0002DE9F0410B4E8046041F00F1300754F84E
:1005B000045F314628460BF061FF30B1D8F8BC101B
:1005C00028460BF079FF00B12E46BC42EFD13046F1
:1005D000BDE8F081000020412DE9F041D0F8BC7069
:1005E0004FF00008041F00F1300654F8045F39464C
:1005F00028460BF061FF084948B128460BF03EFF42
:10060000414620B128460BF057FF00B1A846B4423E
:10061000EBD14046BDE8F0810000A0402DE9F04755
:10062000D0F8BC7082464FF00009041F00F130067C
:100630004FF0000854F8045F394628460BF03CFFA1
:100640000C4950B128460BF019FF30B148462946F5
:100650000BF06EFC08F101088146B442EAD1CAF8F9
:10066000E08040460BF018FD014648460BF01CFEAA
:10067000BDE8F0870000A040D0F8E000704700BF60
:1006800038B5D0F8D83053B9D0F8A440D0F8A0503D
:10069000214628460BF0F2FE30B1204638BD273304
:1006A00050F82340204638BD2C46204638BD00BFB8
:1006B000D0F8D8302DE9F041002B7CD1D0F8A460DF
:1006C000D0F8A0500446314628460BF031FCD4F84F
:1006D000A870394680460BF02BFC7E490BF0E4FDF8
:1006E0004FF07C5104460BF0E7FE002861D04FF03C
:1006F0007C5128460BF0E0FE4FF07C51002860D181
:1007000028460BF0BBFE38B14FF07C5130460BF061
:10071000D3FE002840F0A7804FF07C5128460BF014
:10072000CBFE002860D14FF07C5128460BF0C4FE70
:10073000002840F0A1804FF07C5128460BF0BCFE11
:1007400000286CD14FF07C5128460BF097FE4FF0FB
:100750007C5110B330460BF0AFFE38B14FF07C51F6
:1007600038460BF08BFE002840F0B0804FF07C51F3
:1007700030460BF083FE002861D04FF07C513846A4
:100780000BF09AFE002840F0A38038464FF07C51D1
:100790000BF074FE68B1504C10E028460BF06EFE72
:1007A0000028E3D128464FF07C510BF067FE00286B
:1007B00045D1BDE8F081273350F823402046BDE8FD
:1007C000F08130460BF078FE4FF07C5100283ED08F
:1007D00038460BF071FE0028F0D14FF07C512846CE
:1007E0000BF04CFE002859D14FF07C5130460BF0F5
:1007F00045FE002840D04FF07C5138460BF05CFE9F
:10080000002841D14FF07C5130460BF055FE68B1C5
:100810004FF07C5138460BF031FE00284FD14FF09D
:100820007C5130460BF02AFE00288BD04FF07C51D3
:1008300038460BF023FE002884D02C46BEE7304615
:100840004FF07C510BF01AFE0028B2D09DE72846ED
:100850000BF014FE0028C7D04FF07C5130460BF04F
:100860002BFE0028C0D04FF07C5138460BF024FE00
:1008700000283FF451AF18E04FF07C5130460BF0A8
:100880001BFE0028CBD0C3E7394628460BF050FBAF
:100890004FF07C510BF054FC04468FE74FF07C5135
:1008A00038460BF009FE00289ED0394630460BF042
:1008B0003FFB4FF07C510BF043FC04467EE7404683
:1008C0004FF07C510BF03CFC044677E7344675E76B
:1008D0003C4673E7000040400000A0C2D0F8D8209A
:1008E00070B5002A34D10446FFF7E2FE4FF07C5188
:1008F0000BF0E2FD58B3D4F8A0604FF07C513046C5
:100900000BF0DAFDD4F8A45038BBD4F8A8404FF06F
:100910007C5128460BF0D0FD48B1294630460BF0FB
:10092000CBFD20B1214628460BF0A8FD28BB4FF097
:100930007C5120460BF0C0FD48B1284621460BF003
:10094000BBFD20B1304621460BF0B6FD18B970BD95
:10095000273250F82240204670BD304629460BF021
:100960008DFDD4F8A8400028D1D0304621460BF0A8
:1009700085FD0028CBD03446EDE72C46EBE700BFE1
:100980002DE9F047814684B01546032900F27B81AA
:10099000DFE811F0FF00BE007D0004004FF0000A08
:1009A00080F8ECA0937A507A1B0103EB101000F54D
:1009B0007A700BF071FBB6490BF0C2FBD9F800401E
:1009C000C9F830004846FFF789FFD9F8AC10054652
:1009D0000BF054FD08B1C9F8AC50D9F8D830002B51
:1009E00040F02381D9F8A060D9F8A45030462946B8
:1009F0000BF044FD002800F00C81D9F8B010284617
:100A00000BF05AFD002840F00D8109F13406C8466C
:100A100009F168050D2701E058F8044F31682046B8
:100A20000BF02CFD30B1D9F8BC1020460BF03AFD8C
:100A300000B13460296820460BF03EFD043695492C
:100A400020B120460BF038FD00B12C60013F05F1CC
:100A50000405E1D1BAF1000F00F0F6808E4CD9F810
:100A6000E81023680193019AD9F8F030521A9A429B
:100A700080F0F38022680292029A0B449B1A41F2A2
:100A80008732934240F20A8104B0BDE8F0874FF00C
:100A9000000A80F8ECA0937A507A1B0103EB101047
:100AA00000F57A700BF0F8FA79490BF049FBC9F8B8
:100AB00020002B7B687B1B1103EB001000F57A7084
:100AC0000BF0EAFA72490BF03BFBC9F828002B7BCC
:100AD000EA7A1B0203F47063981800F57A700BF041
:100AE000DBFA6B490BF02CFBC9F82400EB7BAA7BEB
:100AF0001B0203F47063981800F57A700BF0CCFABF
:100B000063490BF01DFBD9F80040C9F82C0059E7E8
:100B10004FF0000A80F8ECA0937A507A1B0103EBA7
:100B2000101000F57A700BF0B7FA59490BF008FB7A
:100B3000C9F810002B7B687B1B1103EB001000F53C
:100B40007A700BF0A9FA52490BF0FAFAC9F81800BA
:100B50002B7BEA7A1B0203F47063981800F57A7015
:100B60000BF09AFA4A490BF0EBFAC9F81400EB7B48
:100B7000AA7B1B0203F47063981800F57A700BF0DF
:100B80008BFA43490BF0DCFAD9F80040C9F81C0095
:100B900018E74FF0000A80F8ECA0937A507A1B0116
:100BA00003EB101000F57A700BF076FA38490BF071
:100BB000C7FAC9F800002B7B0446687B1B1103EBC6
:100BC000001000F57A700BF067FA31490BF0B8FAB3
:100BD000C9F808002B7BEA7A1B0203F470639818AB
:100BE00000F57A700BF058FA29490BF0A9FAC9F808
:100BF0000400EB7BAA7B1B0203F47063981800F5DA
:100C00007A700BF049FA22490BF09AFAC9F80C00F5
:100C1000D8E63146D9F8B0000BF030FC00283FF49C
:100C2000F4AE3546C9F8B050EFE609EB8303D9F8C6
:100C3000B010D3F89C5028460BF03EFC00283FF43F
:100C4000E4AEC9F8B050E0E6134B1B680093009B7C
:100C5000C9F8E83004B0BDE8F0870020A9F104032A
:100C600009F11C0143F8040F8B424FF00002F9D147
:100C7000C9F89C20C9F8A020C9F8A420C9F8A82068
:100C800004B0BDE8F08790F8ECA004689AE600BFD5
:100C90006F12833A0000A0400CD3FF1F02211348BB
:100CA00009F00AFC124809F09DFE0621114809F0DE
:100CB00003FC3B460A2299F8DC100D4809F0A2FE1D
:100CC00019210D4809F0F8FB23680393D9F8E820AF
:100CD000D9F8F030039906481A44511A3B460A22C3
:100CE00009F090FE024809F07DFECDE6681A010089
:100CF000D887FF1F18070100200701002DE9F843DE
:100D00000026D0F8BC80C0F89C608146041F00F12A
:100D1000300754F8045F414628460BF0CDFB0949E3
:100D200050B128460BF0AAFB30B1304629460BF0F3
:100D3000FFF80646C9F89C00BC42EAD13046BDE83F
:100D4000F88300BF0000A04002299ABF283150F864
:100D500021000020704700BF3E2998BF80F8DC10BA
:100D6000704700BF90F8C400704700BF90F8C500FE
:100D7000704700BFC0F8D810704700BF80F8C4109B
:100D8000704700BFC0F8C010704700BF80F8C510A2
:100D9000704700BF30B50F4CC0F8BC1083B0204680
:100DA0000D4609F01FFE204609F01CFE28460AF0F9
:100DB0001DFD022502460B460095204609F06CFEFB
:100DC000204609F00FFE204603B0BDE8304009F090
:100DD00009BE00BFD887FF1F70B500F570550646E5
:100DE000343500F128042046F434FFF73FFBAC42D1
:100DF000F9D106F58E75012428460021FFF7BEFFC4
:100E0000214628460134FFF7A7FF3F2C05F1F405E2
:100E1000F2D143F63C4400250548064A064B3555B9
:100E2000002130617161B261F361304670BD00BF75
:100E300000007A44000048430000C8C270B500F5C5
:100E40008E74012500260DE0012620460021FFF7C3
:100E50009DFF294620460135FFF77EFF3F2D04F117
:100E6000F4040AD02046FFF77DFF0028EDD020468D
:100E7000FFF77CFF0028E7D170BD304670BD00BF92
:100E8000F8B500F57157002300F570563B60343615
:100E900000F58E7402E0F434B4420DD02046FFF722
:100EA00061FF0028F7D020463D68FFF7E5FBF434EA
:100EB0002844B4423860F1D13868F8BD012A70B5D1
:100EC0000D4606460C7820D0A4F10B03302B07D931
:100ED000F42000FB04602830BDE87040FFF7FEBA44
:100EE00020460BF0D9F84FF07C510BF029F921493D
:100EF0000BF01CF80BF0EAFAF42404FB006029461E
:100F00002830BDE87040FFF7E9BA1B4809F06AFDD8
:100F10002146194809F0B6FD0321184809F0CCFA1A
:100F2000A4F10B03302B0CD820460BF0B5F84FF092
:100F30007C510BF005F90F490AF0F8FF0BF0C6FAE7
:100F40000446F42000FB046029462830FFF7C6FA67
:100F5000631E0D2B0CD8084809F044FD21460648B5
:100F600009F090FD0B210648BDE8704009F0A4BAD5
:100F700070BD00BF00007041D887FF1F3C07010013
:100F8000400701000B68A3F5D8732DE9F0413E2B13
:100F900040D8DFE813F0D900D500D100CD00C9005A
:100FA000C500C100BD00B900B500B100AD00A90089
:100FB000A500A1009D009900950091008D00890079
:100FC000850081007D006D0069006500610075008D
:100FD000710079005D0041003901350131012D01B9
:100FE000290125013F0021011D0119013F001501C3
:100FF00011010D013F000901050101013F00FD0044
:10100000F900F5003F00F100ED00E9003F00E500C8
:10101000E100DD00BDE8F0814FF000080925012A5C
:10102000174604460E4600F0F380F42000FB05440A
:10103000283420460121FFF7A1FE20460121FFF7B9
:10104000A5FE324641462046BDE8F041FFF798BC78
:101050004FF003080825E2E74FF003080725DEE715
:101060004FF002080725DAE74FF001080725D6E719
:101070004FF000080725D2E74FF001080825CEE71A
:101080004FF000080825CAE74FF002080825C6E718
:101090004FF003080625C2E74FF002080625BEE719
:1010A0004FF001080625BAE74FF000080625B6E71D
:1010B0004FF003080525B2E74FF002080525AEE71B
:1010C0004FF001080525AAE74FF000080525A6E71F
:1010D0004FF003080425A2E74FF0020804259EE71D
:1010E0004FF0010804259AE74FF00008042596E721
:1010F0004FF00308454692E74FF0020803258EE7BC
:101100004FF0010803258AE74FF00008032586E722
:101110004FF00308022582E74FF0020845467EE7BC
:101120004FF0010802257AE74FF00008022576E724
:101130004FF00308012572E74FF0020801256EE722
:101140004FF0010845466AE74FF00008012566E7C1
:101150004FF00208102562E74FF0010810255EE706
:101160004FF0000810255AE74FF002080F2556E708
:101170004FF001080F2552E74FF000080F254EE70A
:101180004FF002080E254AE74FF001080E2546E70A
:101190004FF000080E2542E74FF002080D253EE70C
:1011A0004FF001080D253AE74FF000080D2536E70E
:1011B0004FF002080C2532E74FF001080C252EE70E
:1011C0004FF000080C252AE74FF002080B2526E710
:1011D0004FF001080B2522E74FF000080B251EE712
:1011E0004FF002080A251AE74FF001080A2516E712
:1011F0004FF000080A2512E74FF0030809250EE713
:101200004FF0020809250AE74FF00108092506E713
:10121000094809F0E7FB2946074809F033FC39463D
:10122000064809F049F94146034809F02BFC0248F9
:1012300009F0D8FBF9E600BFD887FF1F4C07010073
:101240002DE9F043002383B00646036000F58E7459
:10125000012504E001353F2D04F1F40466D0204659
:10126000FFF780FD0028F5D04E4800F0F3FC29463A
:101270004D4800F0EFFC2046FFF740FD0AF0B6FABB
:1012800002460B46494800F0E5FC2046FFF788F986
:1012900080462046FFF7A0F9074640460AF0A6FA26
:1012A0008046384689460AF0A1FA42464B46CDE9C7
:1012B00000013F4800F0CEFC00212046FFF744FD2E
:1012C000012180462046FFF73FFD074640460AF0D1
:1012D0008DFA8046384689460AF088FA42464B46DF
:1012E000CDE90001334800F0B5FC2046FFF706FDCC
:1012F000014630680AF01CFE30602046FFF7EEFA27
:10130000B1690BF0BBF8002833D12046FFF7B8F9DC
:10131000F1690BF0D1F800289CD02046FFF7B0F916
:1013200001353F2DF06104F1F40498D170680AF0A2
:10133000B3FE014630680AF0B7FF716930600446B9
:101340000BF0BAF800B17461316920460BF096F8E1
:1013500000B134610B2007F0E7FB43F63C43F35C3C
:1013600060B99BB143F63C430122F25403B0BDE89F
:10137000F0832046FFF7B2FAB061C6E753B943F6EF
:101380003C430022F25403B0BDE8F0830A4800F069
:101390008FFCE7E7094800F075FC43F63C43002268
:1013A000F254F0E7DC0E0100500701008C07010049
:1013B000A0070100CC070100E80701002008010098
:1013C00070B5114B836000F570550646343500F555
:1013D0008E7402E0F434AC4213D02046FFF7C2FC16
:1013E0000028F7D02046FFF7DBF8B1680BF046F88D
:1013F0000028EFD02046FFF7D3F8F434AC42B060B9
:10140000EBD1B06870BD00BF0000A04070B50023F4
:1014100000F570550646C360343500F58E7402E061
:10142000F434AC4213D02046FFF79CFC0028F7D0E0
:101430002046FFF7D1F8F1680BF03EF80028EFD016
:101440002046FFF7C9F8F434AC42F060EBD1F06805
:1014500070BD00BF00687047416070472DE9F041E2
:1014600000F57055884617461E46343500F58E74D3
:1014700002E0F434AC4213D02046FFF773FC00289E
:10148000F7D020464146FFF775FC20463946FFF766
:1014900081FC20463146F434FFF774FCAC42EBD1BA
:1014A000BDE8F0812DE9F84343F6384300F5705567
:1014B0000027C7502E462A4A2A4B426280464FF0E8
:1014C000000903623435383600F58E7402E0F434D6
:1014D000A54213D02046FFF745FC0028F7D033681B
:1014E000013333602046FFF7E3F81F490AF0E4FFB9
:1014F00088B9F434A54207F10107EBD143F638432C
:1015000058F80300C01B0AF0C7FD014648460AF020
:10151000CBFEBDE8F8832046FFF7CAF801464846EF
:101520000AF006FD81462046FFF7AAF8D8F82010F9
:101530000AF0C2FF70B92046FFF7D0F9D8F824109E
:101540000AF09CFF0028C2D02046FFF7C7F9C8F870
:101550002400BCE72046FFF793F8C8F82000EAE72C
:1015600000C0794400C079C400008CC2006A704792
:10157000406A7047F8B500F57055074600263435C7
:1015800000F58E7402E0F434AC420FD02046FFF731
:10159000E9FB0028F7D02046FFF740F80146304627
:1015A0000AF0C6FCF434AC420646EFD143F63843A9
:1015B000F8580AF071FD014630460AF075FEF8BD94
:1015C0002DE9F04F06468FB083488B4600F0EAFACB
:1015D000814800F0E7FA804800F0E4FA43F6384327
:1015E0003046F2580D92FFF74BFC73680C93074698
:1015F00030680AF0FBF8804630468946FFF7BAFFAC
:1016000082463046B468F568FFF74CFF0AF0EEF802
:10161000CDE90A01214628460AF088FC6F490AF004
:101620008FFD0AF0E3F8CDE9080128460AF0DEF85C
:10163000CDE9060120460AF0D9F8CDE9040150466B
:101640000AF0D4F80D9A0C9BCDE90201CDE900898E
:10165000114663483A4600F0A5FA5F4800F0A2FA46
:1016600006F58E764FF001094FF0000A07E009F108
:101670000109B9F13F0F06F1F40600F0A5803046EC
:10168000FFF770FB0028F2D03046FEF773FF3046BC
:10169000FEF774FF3046FEF775FF3046FEF776FF23
:1016A0000821504808F008FF49464F4809F0EAF978
:1016B000B9F1090F40F38B8002214C4808F0FCFE81
:1016C0003046FFF71BFB0AF091F85FFA8BF80246F1
:1016D0000B46CDF80080444809F0DEF9012144486A
:1016E00008F0EAFE5546002420E00621414808F0B3
:1016F000E3FE29463C4809F0C5F902213E4808F0BE
:10170000DBFE21463046FEF745FF0AF06FF8CDF8C4
:10171000008002460B46344809F0BEF9013401212D
:10172000334808F0C9FE0D2C09D03D46092D05F1BE
:101730000107DADC0121314808F0BEFED5E72A486E
:1017400009F050F909212E4808F0B6FE0021304674
:10175000FFF7FAFA0AF04AF8022402460B46009410
:10176000214809F099F90A21264808F0A5FE01212F
:101770003046FFF7E9FA0AF039F8009402460B46C2
:10178000194809F089F90A211F4808F095FE2146F9
:101790003046FFF7D9FA0AF029F8009402460B46C2
:1017A000114809F079F90121184808F085FE09F17E
:1017B00001090D4809F016F9B9F13F0F0AF10D0AB8
:1017C00006F1F4067FF45BAF0FB0BDE8F08F0121A6
:1017D0000A4808F071FE6FE7DC0E010000007A4451
:1017E000D00A0100700B0100D887FF1F681A0100A2
:1017F0007C0B0100800B0100600D0100700D0100E9
:10180000880B0100940B0100A00B0100AC0B010040
:101810002DE9F04F85B000F58E758A4603929B4600
:101820002E464FF0010806E008F10108B8F13F0F1D
:1018300006F1F4067BD03046FFF794FA0028F3D087
:1018400000230A2251467E4809F0DCF801217D4838
:1018500008F032FE039809F0C9FF00230246009306
:1018600077480B4609F018F90121764808F024FE64
:101870005946734809F006F90121724808F01CFE28
:1018800041466F4809F0FEF801216E4808F014FE49
:1018900000244FF0020921463046FEF77BFE09F096
:1018A000A5FFCDF8009002460B46654809F0F4F814
:1018B00001340121634808F0FFFD082C4FF00207B6
:1018C000E9D100213046FFF73FFA09F08FFF00977A
:1018D00002460B465A4809F0DFF80121594808F042
:1018E000EBFD01213046FFF72FFA09F07FFF00974B
:1018F00002460B46524809F0CFF80121514808F042
:10190000DBFD39463046FFF71FFA09F06FFF0097FD
:1019100002460B464A4809F0BFF808F1010848485A
:1019200009F060F8B8F13F0F06F1F40683D14FF0EB
:1019300001084FF0000906E008F10108B8F13F0F77
:1019400005F1F40579D02846FFF70CFA0028F3D00A
:1019500000230A2251463C4809F054F80121394835
:1019600007F0F8FB039809F041FFCDF8009002461C
:101970000B46354809F090F80121324807F0EAFBA0
:101980005946314809F07EF801212E4807F0E2FB64
:1019900041462D4809F076F801212A4807F0DAFB84
:1019A0000024022721462846FEF7F4FD09F01EFF19
:1019B000009702460B46244809F06EF801340121D5
:1019C000204807F0C7FB0D2C4FF00206EAD100219A
:1019D0002846FFF7B9F909F009FF009602460B46C1
:1019E000194809F059F80121164807F0B3FB012105
:1019F0002846FFF7A9F909F0F9FE009602460B46C2
:101A0000114809F049F801210E4807F0A3FB3146BF
:101A10002846FFF799F909F0E9FE009602460B46C1
:101A2000094809F039F808F10108074808F0DAFF19
:101A3000B8F13F0F05F1F40585D105B0BDE8F08F91
:101A4000D887FF1F4C070100C887FF1F014B187084
:101A5000704700BF2087FF1F0278002A00F09080A7
:101A600070B5034682B00D46252A2AD158785C1CF1
:101A700008B325282FD0732831D0642824D06928B2
:101A800022D066284FD07A2859D0782835D05828C7
:101A90002FD062283ED0422838D06C2814D063283A
:101AA00012D0742857D054285FD008F089FD62788E
:101AB000631C002AD8D1344802B0BDE8704008F059
:101AC00091BF18781C46F0E72B1D29682E481D464B
:101AD00008F0D8FFEBE7104608F072FDE7E72E6844
:101AE00030460BF02DFB01463046043508F0E4FC8F
:101AF000DDE70221254808F0DFFC2E1D2968224879
:101B000000231022354608F07DFFD0E7022120484F
:101B100008F0D2FC2E1D29681B48002302223546FE
:101B200008F070FFC3E7073525F007050321D5E965
:101B3000002315480091083508F0AEFFB7E70735D8
:101B400025F007050021D5E900230F48009108354D
:101B500008F0A2FFABE7296801290EBF0D480E4827
:101B60000121043508F0A8FCA1E72B68012B07BF71
:101B700004210A480A480521043508F09DFC96E72F
:101B8000014808F02FBF00BFD887FF1FB00B01002E
:101B9000B40B0100B80B0100BC0B0100C00B01002D
:101BA000C80B01000FB400B583B004A951F8040BB1
:101BB0000191FFF751FF03B05DF804EB04B07047EB
:101BC00070B51B4B1B4C1B6882B00D460193019BEB
:101BD0002360194604460023164617480A2208F0D7
:101BE00011FF0321154808F067FC032C07D8DFE834
:101BF00004F01A1510020521114808F05DFC0221BD
:101C0000104808F059FC31462846FFF725FF02B07E
:101C100070BD07210C4808F04FFCF0E704210B4889
:101C200008F04AFCEBE70521094808F045FCE6E727
:101C30000CD3FF1F5492FF1FD887FF1FD00B01004A
:101C4000EC0B0100600D0100E40B0100DC0B010056
:101C5000D40B01000FB400B5094B187883B020B144
:101C600003B05DF804EB04B0704705AB1A46049965
:101C70000193FFF7A5FF03B05DF804EB04B07047D4
:101C80002087FF1F0FB4094B00B51B78012B83B0D1
:101C900004D903B05DF804EB04B0704705AB1A46F5
:101CA000049901930120FFF78BFFF2E72087FF1FC4
:101CB0000FB40B4B00B51B78032B83B004D903B0D2
:101CC0005DF804EB04B0704705AB1A460499019324
:101CD0000320FFF775FF03B05DF804EB04B0704715
:101CE0002087FF1F30B4074D074C084900232B7095
:101CF000236003654365836580F85C300B6030BC0E
:101D0000704700BF6092FF1F5C92FF1F5892FF1F39
:101D10000A4A0B49D06D936D03FB00F34FF47A70C0
:101D200000FB03F0642310B50B600AF0B5F9054918
:101D3000054C0AF0B9FA206010BD00BF4893FF1FA0
:101D40003487FF1FE4388E3E9892FF1F38B5044653
:101D500008460D460BF0F4F92368024629465B68F5
:101D6000204698470546204608F03CFE284438BDEA
:101D70002DE9F8434748484D484F494CFFF712FFBB
:101D8000484BDFF84CE14849484A49485D60122613
:101D9000484D1E70DF600026474F1C61C3F818E0F5
:101DA000464C59614FF00C0E45495A629862454ABB
:101DB0004548DD621E63454D5F6340F61C460A27B9
:101DC0009C63C3F854E041F20404DFF808E199642D
:101DD000DA64022101221862C3F8C45000204FF0D7
:101DE0007C55DE661F6764264FF496775C67C3F800
:101DF0001CE03224C3F83CE04FF05A0E597059727F
:101E00001A729A6583F840009F661F665C665D647F
:101E1000DE654FF47A78C3F878E0DFF8BCC0D867A5
:101E2000C3F88010C3F88400C3F89C40C3F8AC40EA
:101E3000DFF8A8E0C3F8A80044F62069C3F8B4208E
:101E4000C3F8B810FF2741F28831052483F8C82071
:101E50004FF4FA7083F8C92040F2D662C3F8BC6030
:101E60001D65C3F8A080C3F890C0C3F894E0C3F820
:101E70008C90C3F8B070A3F8C240A3F8CA00C3F8AE
:101E80009810A3F8C010A3F88820A3F88A20BDE812
:101E9000F88300BFF40B010020A1070066668640AE
:101EA000000040404893FF1F33338340CDCCCC3DEE
:101EB00000008242000020C1000020420000A0403B
:101EC0009A9979400AD7233D333373409A99993EC2
:101ED000CDCC4C40CDCC4C3E0000684200C02044EC
:101EE000F0B54FF47A6087B006F054FE00210F2061
:101EF00006F028FE00210E2006F024FE002111200D
:101F000006F020FE0021102006F01CFE0021122009
:101F100006F018FE0021132006F014FE01210B200C
:101F200006F010FE00210B2006F0F8FD01210C2028
:101F300006F008FE00210C2006F0F0FD012114201F
:101F400006F000FE0021142006F0E8FD0121152016
:101F500006F0F8FD0021152006F0E0FD0121162015
:101F600006F0F0FD0021162006F0D8FD0121172013
:101F700006F0E8FD0021172006F0D0FD0121052024
:101F800006F0E0FD0021052006F0C8FD0121062035
:101F900006F0D8FD964C974D0021062006F0BEFDB8
:101FA00001210D2006F0CEFD20880AF071F80146CF
:101FB000162006F031FD20880AF06AF80146172045
:101FC00006F02AFD20880AF063F80146052006F095
:101FD00023FD20880AF05CF800240146062006F064
:101FE0001BFD00942346844A8449854805F082FA03
:101FF0002B79804982486FF30003E2B201342B71E0
:1020000005F03EFA082CF3D109242B7979497C4854
:1020100043F00103E2B201342B7105F031FA0D2CCB
:10202000F3D1784D2B681021D3F8840005F034FFEC
:102030002B681021D3F8840005F0C2FF2B68022121
:10204000D3F8840005F07EFE2B680221D3F88400CB
:1020500006F006F82B680F21D3F8840006F0EEF89E
:102060000C21694808F028FA684808F0BBFC2146B2
:10207000674808F021FA654808F0B4FC40F2836034
:1020800006F046FE614808F0ADFC1721614808F0F3
:1020900013FA5E4808F0A6FC5F4B1B789A0600F125
:1020A000DF805D4B1B781B0700F1E6805A4B1B78E5
:1020B0005F0700F1ED80584B1B789E0700F1F4801C
:1020C000564B1B781D0600F1FB80544B1B785C06B9
:1020D00000F10281514B1B78980600F109814F4BAA
:1020E0001B78590700F110814C4B1B781A0700F13F
:1020F00017814A4B1B789B0700F11E81434808F06B
:1021000071FC72B6464A4CF220534DF62811202439
:10211000138023461180013BFDD1424D4248434983
:1021200000234FF480562E8003800B8032F80E3C43
:102130009BB243F0D30322F80E3C62B640F241302A
:1021400007F092F921463A483A4D08F0B5F92F4880
:1021500008F048FC05F1D0062F462C46601B06F01F
:10216000F7F904F8010BB442F8D13B78122B04D0F4
:10217000264808F037FCFFF7FBFD0420FFF766FC5C
:102180002D4B2E4C002201210D201A6006F0C6FCBA
:10219000B96D2B48FFF760F93B6D7A6C97F84010EA
:1021A0002748FFF75BF9274B27491B68274AD7F8D1
:1021B000A400126881FB0351DB17A3EB211313FB6F
:1021C00002F30128238000F0BF80214B214C1A68C4
:1021D0000592059D1A68049204981B6803931E4992
:1021E0001E4B039A256008601A6007B0F0BD00BF5F
:1021F0002887FF1F2C94FF1F00D3FF1F20A107007B
:1022000064D1FF1FE894FF1F140C0100D887FF1F43
:10221000240C0100340C010001F0074000F00740DD
:102220000E200540042005400620054016200540EC
:10223000380D01004893FF1F7492FF1FF494FF1F95
:102240002095FF1F6487FF1F1F85EB516087FF1FCD
:102250000CD3FF1F1C95FF1F3494FF1FF894FF1F22
:1022600021213C4808F028F93B4808F0BBFB3B4BD8
:102270001B781B077FF51AAF0C21394808F01CF9B1
:10228000354808F0AFFB354B1B785F077FF513AF80
:102290000E21344808F010F92F4808F0A3FB2F4B0B
:1022A0001B789E077FF50CAF17212F4808F004F923
:1022B000294808F097FB2D4B1B781D067FF505AFCD
:1022C0000E212B4808F0F8F8234808F08BFB274B29
:1022D0001B785C067FF5FEAE1221264808F0ECF86C
:1022E0001D4808F07FFB214B1B7898067FF5F7AE61
:1022F0001321214808F0E0F8174808F073FB1B4B46
:102300001B7859077FF5F0AE1C211C4808F0D4F863
:10231000114808F067FB154B1B781A077FF5E9AEEB
:102320001921174808F0C8F80B4808F05BFB0F4B61
:102330001B789B077FF5E2AE1821124808F0BCF825
:10234000054808F04FFBD9E64FF4967006F022FCE2
:102350003BE700BF4C0C0100D887FF1F01F007408E
:10236000700C0100800C0100900C010000F007408F
:10237000A80C0100B80C0100CC0C0100E00C01001D
:10238000000D01001C0D010070B5464C464D47483C
:10239000E66800232B70FFF739F8014630460AF053
:1023A0006DF808B104232B704048FFF709F8216944
:1023B0000AF064F818B12B7843F010032B703B48F7
:1023C000FFF7D4F8A16A0AF077F818B12B7843F038
:1023D00040032B70002335486B70FFF7C9F8E16AA2
:1023E000314E0AF04BF808B10123737000232F48D7
:1023F000EB70FFF70BF805462C482B4EFEF7E0FF7D
:102400000146284609F092FDE16B0AF055F808B143
:102410000123F370264D254800232B70FEF7F6FFAD
:10242000616A0646E06809F081FD014630460AF01F
:1024300043F808B104232B701C48FEF7C1FF616A02
:102440000646206909F074FD014630460AF016F888
:1024500018B12B7843F010032B701448FFF786F85F
:10246000A16B0646A06A09F061FD014630460AF0FC
:1024700023F818B12B7843F040032B7000230B484E
:102480006B70FFF775F8A16B0546E06A084C09F020
:102490004FFD0146284609F0F1FF08B101236370A2
:1024A00070BD00BF4893FF1F4493FF1F2095FF1F7F
:1024B000DC94FF1F2DE9F0417C4C2368012B82B096
:1024C00031D0022B00F0A880032B00F0C8803BBB6A
:1024D000774B784AD3F8AC10D3F8B03012685B1A57
:1024E000632B0EDD744803FB02F380FB0302DB1752
:1024F000C3EB62131944062002B0BDE8F04106F0B8
:102500008DB96E4803FB022380FB0302DB17C3EB8C
:1025100022121144062002B0BDE8F04106F07EB957
:1025200002B0BDE8F081664E33680A33B3F57A7FB6
:1025300000F3B7801846336009F0AEFD614909F039
:10254000FFFD80465A4DD5F8AC0009F0A5FD0746C1
:10255000D5F8B00009F0A0FD394609F0E7FC414686
:1025600009F0EEFD584909F09FFE394609F0E0FCFC
:1025700009F0ACFF0146062006F050F9022153484D
:1025800007F09AFF524808F02DFA0621514807F04B
:1025900093FF306809F080FD4A4909F0D1FD09F048
:1025A00025F9022702460B460097494808F074FABD
:1025B0000D21494807F080FFD5F8AC0009F06CFD0B
:1025C0008046306809F068FD3E4909F0B9FD0646CD
:1025D000D5F8B00009F060FD414609F0A7FC0146BE
:1025E000304609F0ADFD384909F05EFE414609F07C
:1025F0009FFC09F0FBF800970B460246344808F0B0
:102600004BFA3946314807F057FF314808F0EAF9EC
:102610002368022B7FF458AF294B254E00221A6005
:10262000D6F8AC0009F038FD0546D6F8B00009F040
:1026300033FD294609F07AFC002109F081FD224989
:1026400009F032FE294609F073FC09F03FFF01460C
:10265000062006F0E3F82368032B7FF438AF184B0D
:10266000134E4FF47A721A60D6F8AC0009F014FDDC
:102670000546D6F8B00009F00FFD294609F056FCD2
:10268000114909F05DFD104909F00EFE294609F0D7
:102690004FFC09F01BFF0146062006F0BFF8236837
:1026A00015E700234FF0000833604BE7BC94FF1F91
:1026B0004893FF1F3487FF1F1F85EB51CBF08D28F8
:1026C0007892FF1FCDCCCC3D0000C842681A0100B3
:1026D000D887FF1F5C0D0100640D010070B5B5487F
:1026E000B54C08F07FF9B34808F07CF9B14808F020
:1026F00079F90D21B14807F0DFFED4F8A830012B9D
:1027000011D0AF4CAB48217800230A2208F07AF9A7
:102710002378052B67D8DFE813F006010B011001C1
:1027200015011A0101010921A64807F0C5FEA648B6
:10273000FEF746FE216909F0A1FE18B10F21A3485A
:1027400007F0BAFEA048FEF761FEE16809F0B4FEAA
:1027500018B10E219E4807F0AFFE9B48FEF756FECB
:1027600005469948FEF72CFE0146284609F0DEFB97
:10277000E16B09F0A1FE18B11121964807F09CFE0B
:102780009148FEF78FFEA16A09F096FE18B10C2160
:10279000914807F091FE8C48FEF784FEE16A09F04B
:1027A0006DFE18B10D218D4807F086FE8C4B8648D2
:1027B0001B68012B00F0E880FEF702FE21697E4DC8
:1027C00009F07AFE78B18048FEF720FEE96809F04A
:1027D00055FE40B17A4B1B78052B00F0E6800821AE
:1027E000804807F069FE02217F4807F065FE12204D
:1027F00006F09AF9012800F0AF80112006F094F954
:10280000012800F0B380794B1B68012B00F0B780E2
:1028100002217548764C07F04FFE764B65481968E3
:1028200008F030F9634808F0DDF80421724807F039
:1028300043FE0B2006F078F9002301460A225D488A
:1028400008F0E0F80C2006F06FF9002301460A2298
:10285000584808F0D7F8142006F066F9002301461E
:102860000A22544808F0CEF8152006F05DF90A2235
:10287000002301464F4808F0C5F806215F4807F0DD
:102880001BFE2368DD074FF001014CBF5C485D482B
:1028900007F012FE236898074FF001014CBF58481B
:1028A000584807F009FE23685A074FF001014CBF52
:1028B0005348544807F000FE23681B074CBF50489C
:1028C0005048012107F0F8FD04214F4807F0F4FDBE
:1028D000112006F029F9002301460A22354808F0A4
:1028E00091F8102006F020F9002301460A22314811
:1028F00008F088F8122006F017F9002301460A2292
:102900002C4808F07FF8132006F00EF9002301464A
:102910000A222848BDE8704008F074B807213B48F7
:1029200007F0CAFD5FE70621394807F0C5FD5AE701
:102930000721384807F0C0FD55E70721364807F062
:10294000BBFD50E70821354807F0B6FD4BE70B21EA
:10295000334807F0B1FD46E70E21324807F0ACFDE1
:10296000112006F0E1F801287FF44DAF0A212E482E
:1029700007F0A2FD1D4B1B68012B7FF449AF11210D
:102980002A4807F099FD43E7FEF71AFD216A09F08E
:1029900093FD00283FF423AF1621254807F08CFD56
:1029A0000A21244807F088FD1DE70A21214807F085
:1029B00083FD18E7D887FF1F4893FF1F740D0100A0
:1029C000D894FF1F840D01002095FF1F900D01007A
:1029D000A00D0100B00D0100C40D0100D40D0100D7
:1029E0008492FF1F080E0100681A0100F094FF1F77
:1029F0001894FF1FC094FF1F7C0E0100840E01007D
:102A00008C0E0100541C0100900E0100440E0100C8
:102A1000140E01001C0E0100300E0100380E0100E2
:102A2000240E01004C0E01005C0E0100680E010036
:102A3000E40D0100FC0D01002DE9F04FAB4CD4F882
:102A40008060012E8DB000F07981032E00F0CC80E3
:102A5000DFF8DC82A64FA74EE36FA748012B09BF22
:102A60003168316801F10041316005F063FC3B6879
:102A7000002B40F09F80A048DFF8B49205F030FCB6
:102A80003B68C8F800000546002B44D1D4F88030DC
:102A9000964A012B53D09949284609F00DFDC0B93B
:102AA0009749284609F0EAFC98B9964A964B12686D
:102AB0000B920B9A1A60D4F8B40009F0EDFA29468B
:102AC00009F03EFB0023C8F8000033600DB0BDE8FC
:102AD000F08FDFF830A28C4FDAF800300A930A98B2
:102AE0003B68DFF85092C01A09F0D2FA294609F083
:102AF00027FB864909F0D8FB844909F0D5FBD9F8B2
:102B0000001009F015FADAF800300993099BC9F8AA
:102B100000003B60CFE708F069FE022502460B4645
:102B200000957B4807F0B8FF04217A4807F0C4FC01
:102B3000D4F88030D9F800506C4A012BABD1764BD9
:102B40001B68012B00F0DA81022BB4D1D2F88C7013
:102B5000384609F0A1FA294609F090FC40B97842BC
:102B600009F09AFA294609F0A7FC002800F0F9813B
:102B7000DFF890A1644FDAF80030079307983B68BC
:102B8000DFF8B091C01A09F083FA294609F0D8FAA3
:102B90005E4909F089FB5D4909F086FBD9F8001010
:102BA00009F0C6F9DAF800300693069BC9F8000070
:102BB0003B6080E7504805F093FB08F017FE0225C4
:102BC00002460B460095524807F066FF0321534822
:102BD00007F072FCD4F88C104D4807F053FF032126
:102BE0004E4807F069FC46E74D4D4B4F2B68DFF828
:102BF0004081D3F884000F2101233B6005F01EFBC8
:102C00003B683B4F012B3B6800F0BF80002B40F03E
:102C10003D812B68DFF82091D3F88400436B19695C
:102C20008EB2C9F8006005F08BF8B4F88A2040F63F
:102C3000E44303FB06F1B1FBF0F0801A00B209F0A7
:102C40002BFA38492B4E8246D4F8900009F078FAD6
:102C50000146504609F028FBD9F800303060632B5C
:102C6000DFF8D4A000F30681002333603B68002B1B
:102C70003FF4F2AE02212C4807F01EFC2B68D9F875
:102C80000050D3F8840040F6E44303FB05F505F05B
:102C900057F8B5FBF0F009F0FBF90546B4F88A00E7
:102CA00009F0FAF90146284609F040F908F09EFDBE
:102CB000022502460B460095154807F0EDFE294611
:102CC000194807F0F9FB306808F090FD00950246BE
:102CD0000B460F4807F0E0FE2946144807F0ECFBCE
:102CE0002946114807F0E8FBB6E600BF4893FF1FEE
:102CF0001495FF1F8092FF1F2093FF1F0000FA43CF
:102D00000000FAC30CD3FF1F6492FF1F00007A4437
:102D1000D887FF1FD80E01005487FF1F3C07010012
:102D2000E894FF1FACC52737681A0100D40E0100D4
:102D30008C92FF1F9892FF1F4093FF1FDFF80883BC
:102D4000D4F88C70D8F80050384609F0A5F9294617
:102D500009F0B2FB48B1784209F09EF901462846D5
:102D600009F0AAFB002840F00381A54DA54F2A6871
:102D70000223D2F884003B600E2105F05FFA3B6825
:102D8000A14F012B3B687FF441AF002B40F0FA804C
:102D90002B68DFF8B892D3F88400436B19691FFAE7
:102DA00081FBC9F800B004F0CBFFB4F88830974E2F
:102DB00040F6E44A0AFB0BFBBBFBF0F0C01A00B282
:102DC00009F06AF992498346D4F8940009F0B8F9F9
:102DD0000146584609F068FA2A68D9F80030306090
:102DE000D2F884000AFB03FA04F0AAFFB4F8883092
:102DF000BAFBF0F00FFA80FAC3EB0A03002BB4F829
:102E0000C220B8BF5B429342BCBF002333603B6823
:102E1000002B3FF421AE02217E4807F04DFB2B68CA
:102E2000D9F80050D3F8840040F6E44303FB05F5DD
:102E300004F086FFB4F88810B5FBF0F000B2411A38
:102E4000754807F01FFE0221724807F035FB306815
:102E500008F0CCFC022502460B4600956E4807F0B0
:102E60001BFE03216D4807F027FB2946694807F040
:102E700023FBF1E52B68D3F8840004F061FFDAF856
:102E8000003064389842FFF4EFAEEFE66248DFF8B6
:102E9000BC91DFF86CA107F0A5FD0C21604807F09C
:102EA0000BFB0C215F4807F007FB2A683B68D2F850
:102EB0008400426B11698EB2C9F80060002B3FF4A8
:102EC000B2AE04F03DFF40F6E44100230A2201FBCC
:102ED00006F1B1FBF0F1504807F094FD02214D4896
:102EE00007F0EAFAB4F88A104B4807F0CBFDDAF89D
:102EF0000030D9F80060D3F8840094E64A492846A7
:102F000009F0DAFA58B94949284609F0B7FA30B950
:102F1000474A484B12680592059A1A60CBE5DFF8DC
:102F200010A1444FDAF80030049304983B68DFF8AE
:102F30002091C01A09F0ACF8294609F001F93E4980
:102F400009F0B2F93C4909F0AFF9D9F8001008F0DE
:102F5000EFFFDAF800300393039BC9F800003B60F1
:102F6000A9E5334A334B12680892089A1A60A2E521
:102F7000234D244F28683E604FF0FF320F2104F0AC
:102F800059FE3DE62448DFF8C4901D4E07F02AFDA7
:102F9000D4F88030012B4FF00B010CBF2748284894
:102FA00007F08AFA0C211F4807F086FA2A683B6866
:102FB000D2F88400426B11691FFA81FBC9F800B096
:102FC000002B3FF4F0AE04F0BBFE40F6E4410023DA
:102FD0000A2201FB0BF1B1FBF0F10F4807F012FDE3
:102FE0000121184807F068FAB4F888100A4807F079
:102FF00049FD3368D9F800B0D3F88400D3E600BFA8
:10300000E894FF1F5487FF1F1495FF1F8092FF1F36
:10301000ACC52737681A0100D887FF1FC00E010012
:10302000C40E0100B00E01000000FA430000FAC314
:103030000CD3FF1F6492FF1F00007A44980E01001A
:10304000A40E0100700D01008C92FF1F4093FF1F22
:103050009892FF1F2DE9F0478D4D2B6884B043B93E
:103060008C4B1B680393039A42F210739A4200F24E
:10307000B880894C894F8A4EDFF86882D4F8842062
:10308000854B012A04D0D3F88020002A40F0968096
:103090008448FEF76FFA8449D4F86C90256F09F0E4
:1030A0004FF809F039FA626FA36FC9EB02025B1B9C
:1030B00080B29A42C9EB0000D4F85C90C6BF03FB13
:1030C00000000132584390FBF2F02844A56D00FB4C
:1030D00009F005FB00F000EB8000400008F0DCFF89
:1030E000724909F0E1F88246306005FB09F54FF4BA
:1030F0007A7000FB05F008F0CFFF6C49DFF89C9177
:103100000546504609F01CF8294609F0CDF86849F3
:1031100009F016F809F0DAF96328386048DD284626
:10312000624909F0C1F864233060C9F80030D8F86A
:103130000030002B39D0D4F88030574D012B43D0CC
:10314000032B00F09780022B00F08F80022159485A
:1031500007F0B2F9584B186808F048FB0224024601
:103160000B460094554807F097FC2146544807F059
:10317000A3F921464F4807F09FF939684F4807F0F7
:1031800081FC06214F4807F097F93068474908F05D
:10319000D7FF08F02BFB009402460B46474807F088
:1031A0007BFC0321484807F087F904B0BDE8F087AD
:1031B0000028BCBF0023C9F80030B8E7D6F800A04B
:1031C000D3F85C909D6D90E7404B1B68012B4FF04E
:1031D0000A010CBF3E483F4807F06EF9D5F8803031
:1031E000AEE730482C4CFEF7C5F92F49E76E266F45
:1031F00008F0A6FF09F090F9626FA36FD21B9B1B2A
:1032000080B29A42A0EB07003BDD03FB0000531C99
:1032100090FBF3F31E44E06DA36D204FDFF8C480F4
:103220003E6000FB06F003FB00F000EB8000400076
:1032300008F032FF1D491A4E09F036F8D8F8003070
:10324000306001222A60002B3FF418AF0221194898
:1032500007F032F9194807F0C5FB59211E4807F05D
:103260002BF9164807F0BEFB08E707211B4807F0BB
:1032700023F96BE710211A4807F01EF9D4F88030C3
:1032800061E703FB00F393FBF2F31E44C3E700BFC7
:103290007C92FF1F0CD3FF1F4893FF1F3487FF1F33
:1032A0009892FF1F2095FF1F00007A44E4388E3E5D
:1032B0000000C842681A01008C92FF1FD887FF1FC8
:1032C000D40E0100700F0100780F01005487FF1F1A
:1032D0003C0F0100480F0100E00E0100680F0100E3
:1032E000540F01003C87FF1F30B5112083B005F05B
:1032F0001BFC012818D0122005F016FC012813D061
:1033000000210B2005F00AFC00210C2005F006FC32
:103310000021152005F002FC2649274B0120002240
:1033200008701A6003B030BD0121152005F0F6FBCE
:10333000224A234C234B1268D4F8981001921B6840
:10334000019A1D4D0B4493424FF00201296005D9AB
:1033500001210C2005F0E2FB03B030BDD4F8A00041
:1033600008F09AFE184B196809F088F80028EFD188
:1033700001210B2005F0D2FB94F8C83003242C6007
:1033800043B10C4B02221A7000210C2005F0C6FB41
:1033900003B030BD122005F0C7FB012808BF054B64
:1033A0004FF0110008BF1C7005F0BEFB0128EBD1E7
:1033B000E7E700BFD894FF1F1095FF1F0CD3FF1F36
:1033C0004893FF1F1C95FF1F8C92FF1FF0B5684E9E
:1033D000684D34682B689C4287B039D014F00101E5
:1033E00055D014F0020149D014F004013DD0E30798
:1033F0000ED52B68DF070BD45F4F3A68002A00F028
:1034000082805E4B1B680193019B93426DD83468A8
:10341000A0070DD52B6899070AD4594F3A68002A9E
:103420004CD0564B1B680393039B934238D83468A7
:1034300062070DD52B685B070BD4524F3A68002A00
:103440007ED04E4B1B680593059B934268D8346829
:103450000CB107B0F0BD2146162005F0DFF921467A
:10346000172005F0DBF907B0F0BD052005F0D6F90F
:103470002B68346803F0FB032B60B8E7172005F0D6
:10348000CDF92B68346803F0FD032B60ACE7162000
:1034900005F0C4F92B68346803F0FE032B60A0E745
:1034A000394B1720D3F89C1005F0B8F92B68346815
:1034B00043F0020300222B603A60B9E7334807F07B
:1034C00091FA0C21324806F0F7FF304807F08AFAEB
:1034D000FF21172005F0A2F9284B2E4A1968029106
:1034E000029912680A443A609CE7274B1620D3F8E9
:1034F0009C1005F093F92B68346843F00103002217
:103500002B603A6084E7FF21162005F087F91B4BFA
:10351000204A19680091009912680A443A6071E7DC
:10352000194B0520D3F89C1005F078F92B68346806
:1035300043F0040300222B603A60002C89D18AE713
:10354000124807F04FFA0C21134806F0B5FF0F4858
:1035500007F048FAFF21052005F060F9074B0D4AF6
:1035600019680491049912680A443A606AE700BF36
:103570001095FF1F1894FF1F9C94FF1F0CD3FF1F73
:10358000A094FF1FA494FF1F4893FF1FD887FF1F1D
:103590007C0F01007487FF1F8C0F01002DE9F0479D
:1035A000534EDFF870813368DFF86C91D3F88400F4
:1035B000504D0F2104F042FE0023012222214E48EB
:1035C000C8F80030C9F8002006F076FFD8F80030BF
:1035D000132B20DC40F6E4473368B5F888A0D3F815
:1035E0008400436B1C6904F0ABFBA4B2012107FB10
:1035F00004F4B4FBF0F441485444A5F8884006F0C4
:103600005BFF642005F0C6FAD8F800300133132BB5
:10361000C8F80030E0DDB5F88830394A3948A2FBF7
:1036200003129B1A02EB5303C3F30F131946A5F8B9
:10363000883007F027FA1D21334806F03DFF0221AC
:10364000324806F039FF2F4807F0CCF932680023E2
:10365000D2F88400C8F800300E2104F0EFFD0223F8
:1036600022212548C9F8003006F026FFD8F800309E
:10367000132B20DC40F6E4473368B5F88A90D3F882
:103680008400436B1C6904F05BFBA4B2012107FBBF
:1036900004F4B4FBF0F419484C44A5F88A4006F051
:1036A0000BFF642005F076FAD8F800300133132BB5
:1036B000C8F80030E0DDB5F88A30114A1148A2FBA5
:1036C00003129B1A02EB5303C3F30F131946A5F819
:1036D0008A3007F0D7F91D210D4806F0EDFE0221D2
:1036E0000A4806F0E9FE0748BDE8F04707F07AB956
:1036F000E894FF1F4893FF1F9C0F0100E00F01009B
:1037000087611886D887FF1FC00F0100681A010063
:10371000E40F0100C494FF1F5487FF1FA64B2DE93F
:10372000F0411B68A54CA64D40F2513108222160A2
:10373000E271686D002B40F0EE8008F0ADFC696925
:10374000064608F0FDFC9F499D4F08F0F9FC08F083
:10375000E3FE80B2031263729B4A9C4B12681B68A3
:10376000A969A37215121B12E3722273207265738A
:10377000304608F0E5FC9349904D08F0E1FC08F074
:10378000CBFE83B21A1229469148A373E27304F068
:10379000A9F8904B904A1B681288A272DEB206EB21
:1037A0008601267203EB8306490046F3D71640F2E2
:1037B000553E12124FF000081B1221736673294602
:1037C00008268348C4F800E0E2726372E67184F868
:1037D0000E8084F80F8004F085F840F256337F485D
:1037E0002360E671FDF736FE7D4908F0A9FC08F07C
:1037F00093FE20727948FDF72DFE794908F0A0FC70
:1038000008F08AFE774A7649C0F30723637210688E
:1038100008F04AFD08F05AFE40FA06F203466F48E7
:10382000E272A372FDF73EFE664908F089FC08F0DB
:103830004DFE20736948FDF735FE624908F080FCB3
:1038400008F044FE294640F307236148637384F877
:103850000E8084F80F8004F045F8022005F09AF9F4
:10386000614A624B10785178207290786172D278F8
:103870001978A072987893F801E0E2722173DA78EF
:10388000A07340F25A332946514884F80DE0E273A0
:103890002360E67104F026F8554B4D481A785978A4
:1038A000227261729A78D978A272E1721A79597982
:1038B00093F806E022736173DA7984F80EE040F23F
:1038C0005E332946E2732360E67104F00BF80220B0
:1038D00005F060F9474B3E481A78597822726172B8
:1038E0009A78D978A272E1721A79597993F806E038
:1038F00022736173DA79E6714FF45C7329462360B1
:1039000084F80EE0E27303F0EDFF3B4B1B68012BE4
:1039100006D0BDE8F08108F0BFFB296A064610E733
:103920002E48FDF74DFDF96C08F002FB80462B4850
:10393000FDF76CFD0146404608F0A0FD0028E8D0E8
:1039400040F2C3332548EE712B60FDF739FDBE6CA4
:10395000314608F093FDC8B12849304608F0F0FB25
:1039600008F0DAFD80B2031268722B720023012680
:1039700004250322A672E57222736373A373E373B3
:103980000E491348BDE8F04103F0ACBF1348FDF702
:1039900017FD1A4908F0D4FB08F0BEFDC0F3072359
:1039A0000E482B72FDF70CFD144908F0C9FB08F016
:1039B000B3FD6872DAE700BF8492FF1F0095FF1F16
:1039C0004893FF1F00002041E494FF1F6C92FF1FEB
:1039D00064D1FF1F3487FF1F3887FF1F2095FF1F0B
:1039E0000000C8428C92FF1F4493FF1FDC94FF1F0E
:1039F0002C87FF1F5887FF1FF094FF1F00007A4499
:103A0000F0B5A84CA84D83B006F0F0FC2368286000
:103A1000042B00F03883022B00F0B780082B47D02E
:103A2000072B40F06581332801F07F8500F3B683D2
:103A3000312801F06485322843D106F013FD0028B7
:103A400040F3548199489A4E07F060F908F024FB3E
:103A5000984908F075FB61230122F06322602B6016
:103A60001846A0F152031F2B01F22785DFE813F05F
:103A7000110D250D250D250D250D250D250D250DCA
:103A8000250D250D250D250D250D250D250DD603FF
:103A90006F0E4F05E805BA04250D250D250D4A04C6
:103AA000250D720E250D250D250D250D250D130D4A
:103AB000322800F07E83712800F07683312800F0F0
:103AC0008E83002B08BF73280CBF01200020002824
:103AD00059D0764806F086FF0421774806F0ECFCC2
:103AE000724806F07FFF1021744806F0E5FC6F482D
:103AF00006F078FF1321724806F0DEFC714B6B482C
:103B0000196806F0BFFF694806F06CFF14216E4883
:103B100006F0D2FC654806F065FF1E216B4806F0F2
:103B2000CBFC624806F05EFF1521694806F0C4FC34
:103B30005E4806F057FF1E21664806F0BDFC5B4854
:103B400006F050FF2021644806F0B6FC574806F006
:103B500049FF1921614806F0AFFC544806F042FFC6
:103B600012215F4806F0A8FC504806F03BFF0D21EB
:103B70005C4806F0A1FC4D4806F034FF5A4A00218B
:103B800001231160236003B0F0BDA0F13102422A8D
:103B900097D801A151F822F09F4B0000B74B0000CD
:103BA000D34B0000ED4B00000B4C0000394B0000E4
:103BB000C33A00005B4B0000C33A0000C33A000068
:103BC000C33A0000C33A0000C33A0000C33A000001
:103BD000C33A0000C33A0000C33A0000C33A0000F1
:103BE000C33A0000C33A0000C33A0000C33A0000E1
:103BF000C33A0000C33A0000C33A0000C33A0000D1
:103C0000C33A0000C33A0000C33A0000C33A0000C0
:103C1000C33A0000C33A0000C33A0000C33A0000B0
:103C2000C33A0000C33A0000C33A0000C33A0000A0
:103C3000C33A0000C33A0000C33A0000C33A000090
:103C4000C33A0000C33A0000C33A0000C33A000080
:103C5000C33A0000C33A0000C33A0000C33A000070
:103C60007F4B0000C33A0000C33A0000C33A000093
:103C7000C33A0000C33A0000C33A0000C33A000050
:103C8000C33A0000C33A0000C33A0000C33A000040
:103C9000C33A0000C33A0000A9410000C33A000043
:103CA0008B4B00009C92FF1F6892FF1FD887FF1F5D
:103CB0004893FF1F6F12833AF4180100FC180100AB
:103CC000101901002487FF1F241901003C1901006D
:103CD0005C1901007419010094190100B819010060
:103CE000D4190100E81901003C87FF1F23682868E8
:103CF000062B40F08D80A0F13102402A3FF6E1AE64
:103D000001A151F822F000BFC5490000F1490000AF
:103D10003B4A0000614A0000874A0000A1490000B8
:103D20001D4A0000C33A0000C33A0000C33A000035
:103D3000C33A0000C33A0000C33A0000C33A00008F
:103D4000C33A0000C33A0000C33A0000C33A00007F
:103D5000C33A0000C33A0000C33A0000C33A00006F
:103D6000C33A0000C33A0000C33A0000C33A00005F
:103D7000C33A0000C33A0000C33A0000C33A00004F
:103D8000C33A0000C33A0000C33A0000C33A00003F
:103D9000C33A0000C33A0000C33A0000C33A00002F
:103DA000C33A0000C33A0000C33A0000C33A00001F
:103DB000C33A0000C33A0000C33A0000C33A00000F
:103DC000C33A0000C33A0000C33A0000C33A0000FF
:103DD000C33A0000C33A0000C33A0000C33A0000EF
:103DE000C33A0000C33A0000C33A0000C33A0000DF
:103DF000C33A0000C33A0000C33A0000C33A0000CF
:103E0000C33A0000C33A0000A941000023682868B3
:103E1000052B40F08D80A0F13102402A3FF651AED3
:103E200001A151F822F000BF73470000E7480000ED
:103E3000AB480000CB4800006748000091480000F4
:103E4000C33A0000C33A0000C33A0000C33A00007E
:103E5000C33A0000C33A0000C33A0000C33A00006E
:103E6000C33A0000C33A0000C33A0000C33A00005E
:103E7000C33A0000C33A0000C33A0000C33A00004E
:103E8000C33A0000C33A0000C33A0000C33A00003E
:103E9000C33A0000C33A0000C33A0000C33A00002E
:103EA000C33A0000C33A0000C33A0000C33A00001E
:103EB000C33A0000C33A0000C33A0000C33A00000E
:103EC000C33A0000C33A0000C33A0000C33A0000FE
:103ED000C33A0000C33A0000C33A0000C33A0000EE
:103EE000C33A0000C33A0000C33A0000C33A0000DE
:103EF000C33A0000C33A0000C33A0000C33A0000CE
:103F0000C33A0000C33A0000C33A0000C33A0000BD
:103F1000C33A0000C33A0000C33A0000C33A0000AD
:103F2000C33A0000C33A000007490000236828682C
:103F3000032B40F0A480A0F13002422A3FF6C1AD2D
:103F400001A151F822F000BF5540000021510000AE
:103F5000495100007151000093510000B55100001B
:103F6000DD51000005520000D3520000F75200005E
:103F7000C33A0000C33A0000C33A0000C33A00004D
:103F8000C33A0000C33A0000C33A0000C33A00003D
:103F9000C33A0000C33A0000C33A0000C33A00002D
:103FA000C33A0000C33A0000C33A0000C33A00001D
:103FB000C33A0000C33A0000C33A0000C33A00000D
:103FC000C33A0000C33A0000C33A0000C33A0000FD
:103FD000C33A0000C33A0000C33A0000C33A0000ED
:103FE000C33A0000C33A0000C33A0000C33A0000DD
:103FF000C33A0000C33A0000C33A0000C33A0000CD
:10400000C33A0000C33A0000C33A00001F53000047
:10401000734C000023520000415200005F52000028
:104020007D520000294C00004D4C0000C33A0000B6
:10403000695300008B530000C33A0000C33A0000EC
:10404000C33A0000C33A0000C33A0000B553000071
:10405000C153000006F006FA002841F33782CF482A
:10406000CF4E06F053FE0127034601466222CD489B
:10407000B36527602A60FDF7EFF923682868012BF4
:104080007FF41FADEDE4A0F13102402A3FF619ADF7
:1040900001A151F822F000BFC14A0000354B0000D9
:1040A000134B0000314B0000D94A0000F54A0000D4
:1040B0000B4B00000F4B00009B4A0000C33A00006E
:1040C000C33A0000C33A0000C33A0000C33A0000FC
:1040D000C33A0000C33A0000C33A0000C33A0000EC
:1040E000C33A0000C33A0000C33A0000C33A0000DC
:1040F000C33A0000C33A0000C33A0000C33A0000CC
:10410000C33A0000C33A0000C33A0000C33A0000BB
:10411000C33A0000C33A0000C33A0000C33A0000AB
:10412000C33A0000C33A0000C33A0000C33A00009B
:10413000C33A0000C33A0000C33A0000C33A00008B
:10414000C33A0000C33A0000C33A0000C33A00007B
:10415000C33A0000C33A0000C33A0000C33A00006B
:10416000C33A0000C33A0000C33A0000C33A00005B
:10417000C33A0000C33A0000C33A0000C33A00004B
:10418000C33A0000C33A0000C33A0000C33A00003B
:10419000C33A0000C33A0000A9410000342801F0EE
:1041A0009C8171287FF48DAC0023732023602860EC
:1041B00087E406F057F9002840F3AD837748784E3E
:1041C00006F0A4FD07F068FF774907F0B9FF07463E
:1041D0000246336D96F840107248776415E006F099
:1041E00041F9002840F39B836C486D4E06F08EFD2C
:1041F000C0B286F84000022894BF01460021336D0A
:10420000726C684888BF86F84010FDF727F90123D3
:1042100069202360286024E406F0E8F806F022F91B
:1042200005460028F8D15D485D4E06F0DBFB5B4893
:1042300006F0D8FB594806F0D5FB584806F0D2FBEB
:10424000564806F0CFFB1F21584806F035F9534871
:1042500006F0C8FB1C21564806F02EF9706A554935
:1042600007F06EFF07F0C2FA009502460B464B4876
:1042700006F012FC0221504806F01EF9474806F0ED
:10428000B1FB23214D4806F017F9F06B494907F0BF
:1042900057FF07F0ABFA009502460B463F4806F081
:1042A000FBFB0221444806F007F93C4806F09AFB64
:1042B0001921434806F000F9B06B07F097FA022580
:1042C0000B4602460095354806F0E6FB29463D4878
:1042D00006F0F2F8314806F085FB22213A4806F054
:1042E000EBF8B6F8CA102D4806F0CCFB032137488E
:1042F00006F0E2F8294806F075FB0723236042E444
:1043000006F074F806F0AEF805460028F8D1234808
:10431000234E06F067FB214806F064FB1F4806F0B9
:1043200061FB1E4806F05EFB1C4806F05BFB152196
:10433000274806F0C1F8194806F054FB1821254813
:1043400006F0BAF82B460A2296F84010134806F0F9
:1043500059FB124806F046FB28211F4806F0ACF82E
:10436000706C144907F0ECFE07F040FA00950B461C
:1043700002460A4806F090FB02210F4806F09CF81E
:10438000064806F02FFB1321144806F095F8034861
:1043900006F028FB08232360FFF7F5BBD887FF1F33
:1043A0004893FF1F2095FF1F6F12833AF8110100F9
:1043B0001812010000007A447C100100381201003C
:1043C0005C120100781201007C120100A0120100B1
:1043D000BC190100341001005010010080100100D0
:1043E00006F004F806F03EF805460028F8D17F48AC
:1043F0007F4E06F0F7FA7D4806F0F4FA7B4806F0A7
:10440000F1FA7A4806F0EEFA784806F0EBFA112154
:10441000784806F051F8754806F0E4FA2821764805
:1044200006F04AF87069754907F08AFE07F0DEF970
:10443000009502460B466D4806F02EFB022170489F
:1044400006F03AF8694806F0CDFA16216D4806F0F4
:1044500033F8F069694907F073FE07F0C7F9009572
:104460000B460246614806F017FB0221644806F03D
:1044700023F85E4806F0B6FAD6F8B830002B32DDE5
:104480001D21614806F018F8306E07F005FE5F49FF
:1044900007F056FE07F0AAF9022502460B460095E2
:1044A000524806F0F9FA0121594806F005F84F483C
:1044B00006F098FA1F21574805F0FEFF706E07F0CE
:1044C000EBFD524907F03CFE07F090F900950246DB
:1044D0000B46464806F0E0FA01214D4805F0ECFF96
:1044E000424806F07FFA11214B4805F0E5FFD6F867
:1044F000B830062B00F27887DFE813F0C107C60753
:10450000BC07B707B207AD07720705F06FFF05F0EC
:10451000A9FF0028F9D13548354E06F063FA334833
:1045200006F060FA314806F05DFA304806F05AFAB3
:104530002E4806F057FA1F21384805F0BDFF2B48DA
:1045400006F050FA1E21364805F0B6FF274806F05F
:1045500049FA1A21334805F0AFFFD6F88030022B14
:1045600001F0D080032B01F08480012B01F0D38077
:1045700009212D4805F0A0FF1C4806F033FA14214C
:104580002A481B4F05F098FFF16F184806F07AFA99
:10459000164806F027FA1C21254805F08DFFD6F8AD
:1045A0008410124806F06EFA104806F01BFA1C211F
:1045B000204805F081FFD6F8B4100C4806F062FAE6
:1045C0000A4806F00FFAD6F8805025F00205012DB2
:1045D00000F0CB871321184805F06EFF034806F062
:1045E00001FA02232360FFF7CEBA00BFD887FF1F6E
:1045F0004893FF1F601901009410010000007A44E5
:104600007C100100C0100100D8100100CDCCCC3DC1
:10461000D4150100F81001001811010094140100D4
:10462000B4140100D41401004C1501005815010008
:1046300070150100901501008010010005F0D6FEF4
:1046400005F010FF0028F9D1B74806F0CBF9B648BD
:1046500006F0C8F9B44806F0C5F9B34806F0C2F947
:10466000B14806F0BFF91321B04805F025FFAE4868
:1046700006F0B8F90D21AE4805F01EFFAA4806F075
:10468000B1F90F21AB4805F017FFAB4BA6481968ED
:1046900006F0F8F9A44806F0A5F91321A74805F09B
:1046A0000BFFA74BA048196806F0ECF99E4806F0EE
:1046B00099F91221A34805F0FFFEA34B9A48196807
:1046C00006F0E0F9984806F08DF911219F4805F0B1
:1046D000F3FE9F4B9448196806F0D4F9924806F00F
:1046E00081F90E219B4805F0E7FE9B4B8E48D3F8DD
:1046F000A81006F0C7F98C4806F074F919219748FC
:1047000005F0DAFE964B8848196806F0BBF9864832
:1047100006F068F91121934805F0CEFE924B8248CD
:10472000196806F0AFF9804806F05CF910218F484F
:1047300005F0C2FE8E4B7C48196806F0A3F97A4852
:1047400006F050F91C218B4805F0B6FE8A4B7648DE
:10475000196806F097F9744806F044F91321874860
:1047600005F0AAFE704806F03DF904232360FFF728
:104770000ABA05F077FE00287FF7D8AB6A48764E74
:1047800006F0C4FA01226B23C6F8980022602B6061
:1047900001E005F02BFE05F065FE0028F9D1624826
:1047A0006D4D06F01FF9604806F01CF95E4806F0F2
:1047B00019F95D4806F016F95B4806F013F9212156
:1047C0006F4805F079FE584806F00CF915216D4840
:1047D00005F072FED6F89810534806F053F90221FE
:1047E000694805F069FE504806F0FCF81E2167484C
:1047F00005F062FED6F8A0104B4806F043F90321FD
:10480000634805F059FE484806F0ECF81E2161485F
:1048100005F052FED6F89C10434806F033F94248A2
:1048200006F0E0F81D215C4805F046FED6F8AC1015
:104830003D4806F027F93C4806F0D4F81E215748B9
:1048400005F03AFED6F8B010374806F01BF93648A6
:1048500006F0C8F8D6F8A830012B00F065870523CC
:104860002360FFF790B905F0FDFD00287FF75EABF0
:104870002D48394E06F04AFA3B4BC6F8B0000322E9
:104880001A60FDF717FE01226B2322602B6082E77E
:10489000314E96F8C930B3FA83F35B0901216B22DC
:1048A00086F8C93021602A6075E705F0DBFD002835
:1048B0007FF73CAB1C48284E06F028FA01226B23F8
:1048C000C6F89C0022602B6065E705F0CBFD002850
:1048D0007FF72CAB1448204E06F018FA224BC6F88E
:1048E000AC000222CCE705F0BDFD00287FF71EAB2F
:1048F0000D48194E06F00AFA01226B23C6F8A000F3
:1049000022602B6047E7184A00237320136023605E
:104910002860FFF7D6B823682868FFF781B80E4EE5
:1049200096F8400067E400BFD887FF1FB01301006E
:10493000C4130100D41301009894FF1FE413010075
:104940001495FF1FF8130100D494FF1F0C140100ED
:10495000FC94FF1F201401004893FF1F3014010036
:10496000C094FF1F4C140100BC94FF1F6014010091
:104970008892FF1F741401006887FF1F80100100D8
:10498000A4120100C8120100AC110100E0120100E4
:10499000C00E0100001301002013010040130100AC
:1049A00005F060FD00287FF731AAB948B94E06F03E
:1049B000ADF965230122C6F8BC0022602B601846C1
:1049C000FFF74FB805F04EFD00287FF71FAAB0484B
:1049D000B04E06F09BF907F05FFBAF4907F064FCAF
:1049E00065230122706122602B601846FFF739B8F9
:1049F00005F038FD00287FF709AAA548A54E06F066
:104A000085F907F049FBA44907F04EFC6523012214
:104A1000F06122602B601846FFF723B89D4B93F896
:104A2000C820002A00F09485002283F8C8200123C2
:104A3000652023602860FFF714B805F013FD0028F7
:104A40007FF7E4A99248934E06F060F900EB8000EE
:104A5000430001226520336622602860FFF701B819
:104A600005F000FD00287FF7D1A98948894E06F09E
:104A70004DF900EB8000430001226520736622603F
:104A80002860FEF7EEBF834AD2F8B8300133062B18
:104A9000C8BF0023C2F8B830C9E70123236005F07E
:104AA000E1FC002800F359857C4B1A68042AC4BF36
:104AB00002221A6064232B6023686420FEF7AEBFD5
:104AC000774A1368B3FA83F35B090121642013600A
:104AD00021602860FEF7C5BF6E4ED6F8A830B3FA45
:104AE00083F35B0901226420C6F8A83022602860A5
:104AF000FEF7B7BF01236B482360FCF7C1F96A4A90
:104B00002368106064222A60D7E7684AD9E7684AB8
:104B1000D7E7684A684F1368002B0CBF01230023B6
:104B20004FF001001360206040F08D850346E9E7F7
:104B3000624AC6E7624AC4E70123236005F092FC9B
:104B4000002805DD5248534E06F0E0F8A6F8C200F2
:104B5000632028602368FEF763BF0123236005F00C
:104B600081FC002805DD4A484A4E06F0CFF8C6F819
:104B70008C000123632023602860FEF772BFFEF7DC
:104B80000DFD23682868FEF749BF424AD2F88030FD
:104B90000133032BC8BF0023C2F88030E9E73D4E44
:104BA000F36FB3FA83F35B0901226320F36722609A
:104BB0002860FEF756BF374ED6F88430B3FA83F339
:104BC0005B0901226320C6F8843022602860FEF76A
:104BD00048BF0123236005F045FC0028C9DD2C48AF
:104BE0002C4E06F093F8C6F8B400C2E70123236008
:104BF00005F038FC0028ABDD2548264E06F086F887
:104C000007F04AFAC6F89400A2E70123236005F0F2
:104C100029FC00289CDD1E481E4E06F077F807F0A0
:104C20003BFAC6F8900093E705F01CFC00280DDD68
:104C30001748184E06F06AF807F02EFA164907F0E2
:104C400033FB01226223306222602B6005F00AFCF4
:104C500000280EDD0E480F4E06F058F807F01CFA3B
:104C60000D4907F021FB01226223C6F8C40022602F
:104C70002B6005F0F7FB002840F328840448054E1C
:104C800006F044F801226223F06622602B601BE0EC
:104C9000D887FF1F4893FF1F00007A446887FF1FD3
:104CA0009894FF1F2095FF1FC094FF1FBC94FF1F07
:104CB0008892FF1FD494FF1F9C92FF1FFC94FF1F3C
:104CC0001495FF1F05F092FB05F0CCFB054600286C
:104CD000F8D1C24805F086FEC04805F083FEBF4803
:104CE00005F080FEBD4805F07DFEBC4805F07AFE6B
:104CF0001521BB4805F0E0FBB84805F073FE142110
:104D0000B84805F0D9FBB54805F06CFE1B21B64844
:104D100005F0D2FBB14805F065FE1321B34805F05C
:104D2000CBFBAE4805F05EFEAC4805F05BFEAB4841
:104D300005F058FE2021AE4805F0BEFBF068AD49F5
:104D400007F0FEF906F052FD009502460B46A34817
:104D500005F0A2FE0221A84805F0AEFB0221A748FB
:104D600005F0AAFB9D4805F03DFE2121A44805F071
:104D7000A3FB30699F4907F0E3F906F037FD009582
:104D800002460B46954805F087FE02219A4805F039
:104D900093FB0221994805F08FFB904805F022FE15
:104DA0001F21984805F088FBB06A06F01FFD022716
:104DB00002460B460097894805F06EFE0121924895
:104DC00005F07AFB39468D4805F076FB834805F0FF
:104DD00009FE20218D4805F06FFBF06A06F006FD04
:104DE000009702460B467D4805F056FE0121864895
:104DF00005F062FB3946814805F05EFB774805F017
:104E0000F1FD2321824805F057FBB06C794907F08A
:104E100097F906F0EBFC009502460B466F4805F04B
:104E20003BFE3946744805F047FB3946734805F0A8
:104E300043FB6A4805F0D6FD1F21764805F03CFB90
:104E4000F06C6C4907F07CF906F0D0FC0095024646
:104E50000B46624805F020FE3946674805F02CFBFA
:104E60003946664805F028FB5C4805F0BBFD192172
:104E7000694805F021FBF16D584805F003FE3946FD
:104E8000664805F019FB39465C4805F015FB5348A8
:104E900005F0A8FD1821624805F00EFBB06E07F082
:104EA000FBF8604907F04CF906F0A0FC00970246B9
:104EB0000B464A4805F0F0FD01215B4805F0FCFA7D
:104EC00039464E4805F0F8FA444805F08BFD2B2191
:104ED000564805F0F1FAB069464907F031F906F095
:104EE00085FC009502460B463C4805F0D5FD394649
:104EF000414805F0E1FA3946404805F0DDFA374807
:104F000005F070FD1F214A4805F0D6FAB16D33480F
:104F100005F0B8FD3946394805F0CEFA2F4805F0BE
:104F200061FD2021434805F0C7FA716D2B4805F05B
:104F3000A9FD3946314805F0BFFA284805F052FD71
:104F400010213D4805F0B8FAF16E244805F09AFDAD
:104F50003946294805F0B0FA3946284805F0ACFA38
:104F60001E4805F03FFD1321344805F0A5FA316FC6
:104F70001A4805F087FD0121314805F09DFA3946B0
:104F80001E4805F099FA154805F02CFD10212D4812
:104F900005F092FA716F114805F074FD3946164814
:104FA00005F08AFA3946154805F086FA0B4805F0EF
:104FB00019FD1421244805F07FFAB16F074805F068
:104FC00061FD01211E4805F077FA39460B4805F0CE
:104FD00073FA024805F006FD162137E0D887FF1F57
:104FE00040160100581601007016010080100100E3
:104FF0008C16010000007A447C100100681A010040
:10500000B0160100D4160100AC0B0100F41601002B
:10501000181701003C1701005C1701007817010008
:105020007C170100CDCCCC3DD415010098170100B0
:10503000C4170100E4170100081801001C18010042
:10504000301801003418010048180100BB4805F071
:1050500033FA306ABA4907F073F806F0C7FB0095D7
:1050600002460B46B74805F017FD3946B64805F02D
:1050700023FA3946B54805F01FFAB24805F0B2FCEC
:105080002421B34805F018FAD6F8C400AC4907F05B
:1050900057F806F0ABFB009502460B46A94805F011
:1050A000FBFC3946A84805F007FA3946A74805F041
:1050B00003FAA44805F096FC2B21A64805F0FCF95C
:1050C000706B06F093FB009702460B469D4805F077
:1050D000E3FC0121A04805F0EFF939469B4805F0B3
:1050E000EBF9984805F07EFC27219C4805F0E4F98F
:1050F000D6F8CC00924907F023F806F077FB00952C
:105100000B4602468F4805F0C7FC39468E4805F02D
:10511000D3F98C4805F066FC03232360FEF733BD0A
:1051200005F0A0F9002840F3D18186488C4E05F0A7
:10513000EDFD06F0B1FF824907F0B6F801226223C7
:10514000F06022602B60BFE505F08CF9002840F389
:10515000BD817C48824E05F0D9FD06F09DFF78495F
:1051600007F0A2F801226223306122602B60ABE5D8
:1051700005F078F9002840F3A9817248784E05F0CF
:10518000C5FD06F089FF01226223B06222602B6018
:105190009AE505F067F9002840F398816948704E58
:1051A00005F0B4FD06F078FF01226223F062226070
:1051B0002B6089E505F056F9002840F387816148A6
:1051C000674E05F0A3FD06F067FF5D4907F06CF838
:1051D00001226223B06422602B6075E505F042F97C
:1051E000002840F3738157485D4E05F08FFD06F0AF
:1051F00053FF534907F058F801226223F0642260FC
:105200002B6061E505F02EF9002840F35F814D48E1
:10521000534E05F07BFD01226223F06522602B6076
:1052200052E505F01FF9002840F3508145484C4EE7
:1052300005F06CFD01226223306722602B6043E59C
:1052400005F010F9002840F341813E48444E05F036
:105250005DFD01226223706722602B6034E505F05A
:1052600001F9002840F3328136483D4E05F04EFDED
:1052700001226223B06722602B6025E5FCF778FDF0
:1052800002213248364E05F017F92E4805F0AAFBE8
:1052900002212E4805F010F92A4805F0A3FB02214F
:1052A0002A4805F009F9274805F09CFB17212D48ED
:1052B00005F002F9234805F095FB0221234805F08B
:1052C000FBF8204805F08EFB0122622322602B6050
:1052D000FAE405F0C7F8002840F3F8801948204E9A
:1052E00005F014FD00EB8000430001216222B3664B
:1052F00021602A60E8E405F0B5F8002840F3E68074
:105300001048174E05F002FD06F0C6FE0C4906F0E7
:10531000CBFF01226223B06122602B60D4E405F050
:10532000A1F8002840F3D28006480D4E05F0EEFCAF
:1053300001226223706522602B60C5E460180100C1
:1053400000007A44D887FF1F7C100100681A010012
:1053500078180100A0180100AC0B0100CC18010066
:105360004893FF1F1010010005F07CF8002840F35F
:10537000AD80C448C44E05F0C9FC06F08DFE012284
:105380006223706322602B609EE405F06BF80028B6
:1053900040F39C80BB48BC4E05F0B8FC06F07CFE98
:1053A000BA4906F081FF01226223C6F8CC002260D0
:1053B0002B6089E40022732322602B60FEF789BBF7
:1053C000B34BB448B04E002202211A6005F074F8C5
:1053D000AC4805F007FB0B21AF4805F06DF86CE712
:1053E0000421AE4805F068F8A648A74D05F0FAFA82
:1053F000D6F8B830002B12DD1821A94805F05CF86A
:10540000D5F8BC109F4805F03DFB0221A54805F0EA
:1054100053F89C4805F0E6FA9A4805F0E3FA1B2198
:10542000A14805F049F896F8C830012B15BF1221A4
:1054300014219E489E4805F03FF8924805F0D2FAA4
:1054400013219C4805F038F88E4805F0CBFA062366
:105450002360FEF798BB0B21974805F02DF8C3E7B2
:105460000D21964805F028F8BEE70D21944805F077
:1054700023F8B9E70C21934805F01EF8B4E70D2195
:10548000914805F019F8AFE70C21904805F014F8A1
:10549000AAE704F08FF9D02200217B4803F072F8CC
:1054A00028688B4AA0F1730001210023B0FA80F034
:1054B000400911602360FEF70ABB2368002B08BF78
:1054C00073280CBF01200020FEF701BB2368286869
:1054D000012B7EF4F6AAFEF7C4BA04F0C3FF00283D
:1054E0007EF704AC6748684E05F010FC612301228A
:1054F000A6F8CA0022602B601846FEF7B2BA04F084
:10550000B1FF00287EF7F2AB5E485F4E05F0FEFB70
:1055100006F0C2FD6F4906F013FE6123012270629E
:1055200022602B601846FEF79CBA04F09BFF00280F
:105530007EF7DCAB5348544E05F0E8FB06F0ACFDBB
:1055400061230122B06322602B601846FEF789BAFE
:10555000012283F8C820FFF76ABA4A4805F0D6FB53
:105560005D4B02461860FFF7A1BA1C215B4804F0AE
:10557000A3FFD7F894005A4906F0E2FD06F036F989
:10558000009502460B463F4805F086FA052155482E
:1055900004F092FF3B4805F025FAD7F88050012D22
:1055A00019D11D21504804F087FFD7F890004C49CD
:1055B00006F0C6FD06F01AF9009502460B46314882
:1055C00005F06AFA0521474804F076FF2D4805F0FA
:1055D00009FAD7F8805025F00205012D7EF4FAAFC4
:1055E0001C214248284D04F067FFB6F8C210254838
:1055F00005F048FA03213E4804F05EFF214805F01B
:10560000F1F9D6F88030012B7EF4E4AF1F21394840
:1056100004F052FFD5F88C0006F03EFD2D4906F04F
:105620008FFD06F0E3F8022502460B46009515486B
:1056300005F032FA2946304804F03EFF114805F0E3
:10564000D1F9FEF7C7BF2D4B002631460B201E6057
:1056500003F064FA31460C2003F060FA314614205E
:1056600003F05CFA3146152003F058FA3B68FFF767
:1056700049BA2021224804F01FFF024805F0B2F980
:10568000FEF77DBFD887FF1F4893FF1F00007A44B5
:105690007C92FF1F681A0100281001008811010088
:1056A00090110100AC110100B0110100CC110100FA
:1056B000E0110100801001007C1101006C1101005B
:1056C0005C1101004C1101002C1101003C11010082
:1056D0003C87FF1F6F12833A6887FF1FB0150100D8
:1056E000CDCCCC3DD0150100D8150100F815010036
:1056F000181601001C1601003C1601001095FF1F32
:10570000101501001721154804F0D6FE144805F0C5
:1057100069F9FEF734BF1E21124804F0CDFE10488F
:1057200005F060F9FEF72BBF20210F4804F0C4FEFE
:1057300095F8C9302BB90D490948FCF707FBFFF76D
:105740008EB80B490648FCF701FBFFF788B8094EF5
:10575000FFF7BABA074EFFF71EB800BF34150100B5
:10576000D887FF1FF01401006013010084130100AB
:10577000901301004893FF1F38B5174C174A236850
:10578000101D12F8011F904241EA0323F9D1236052
:10579000134C03F100432360124BD3F88030022BEB
:1057A00011D0114B1B68012B00D038BD0F4805F0FC
:1057B00019F921680D4805F065F903210C48BDE889
:1057C000384004F079BE20680A4D06F065FC286078
:1057D000FDF732F9E5E700BF2494FF1FB394FF1FE4
:1057E000E094FF1F4893FF1F9894FF1FD887FF1F67
:1057F000F81901008092FF1F30B53E4D3E4883B03E
:10580000294601F067FF2B6840F2C232934256D01E
:10581000B3F5407F394C08D2226836493848012A0E
:1058200018BF0022FBF7AEFB2B68364A23F060431B
:105830001A44EE2A07D822682E493148012A18BF97
:105840000022FBF73BFB2368012B01D003B030BDE6
:105850002D4B2E481B6801930A220023019905F065
:10586000D1F82A68234B002ADB793BDB28492948F9
:1058700007F02EFC274807F063FC0146254804F09A
:105880001BFE2C681B4B14F080441CD1DB798BB1C0
:105890002B1921491A7A1F4807F01AFC1D4807F0F6
:1058A0004FFC01461B4804F007FE0134EB79E4B2DB
:1058B000A342EDD8154805F095F803B030BDFFF7C9
:1058C0005BFF2B68A4E7154D124C0FCD0FC495E874
:1058D000030044F8040B204620F81419152104F0A5
:1058E000EBFDE7E70E490B4822F0604207F0F0FBC2
:1058F000C0E700BFAC94FF1F64D1FF1F9894FF1F47
:105900002095FF1FFFABAAE50CD3FF1FD887FF1F11
:10591000241A0100A092FF1F501A0100381A01003A
:10592000FC190100A24B1B78052B00F0A1802DE98A
:10593000F04FA04CA04EA14DA26E236EA048326045
:1059400083B02B60FBF714FEE16A06F097FD08B107
:1059500000232B609A48FBF709FEA16A06F0ACFD14
:1059600010B1002333602B609548FBF74FFDE168D1
:1059700006F0A2FD08B100232B609148FBF746FD1D
:10598000E16806F099FD08B100232B608C48894F2F
:10599000FBF716FD216906F071FD00286ED000238B
:1059A00033602B68854F002B53DD8548DFF8048278
:1059B000FBF7DCFD216B06F061FD002840F0C480A0
:1059C000804B7F481B687B4F012B00F0FD80FBF76D
:1059D0001DFDE1698046606906F0A8FA014640466F
:1059E00006F06AFD002834D0286806F055FB824690
:1059F0007348FBF70BFDD7F814808346F9694046DE
:105A000006F094FA8146786E06F046FB0446386E3E
:105A100006F042FB214606F089FA494607465846F9
:105A200006F084FA0146384606F08AFB49460746E6
:105A3000404606F07BFA0146384606F035FC214622
:105A400006F076FA0146504606F070FA06F03EFD82
:105A500028603368584A002BAFBF2B682B680021A1
:105A60001160002B01DA00232B6003B0BDE8F08F3A
:105A70005149524A00230B60136070475048FBF7AE
:105A80009FFCB96906F0FAFC002888D13368DFF87A
:105A90002891002B85DD4A48FBF76AFD796B06F0FB
:105AA0000BFD002840F0B3804548424FFBF788FCCF
:105AB000216906F001FD002800F09F804048DFF8D2
:105AC000F480FBF77DFCD4F8C4100746A06906F00B
:105AD0002FFA0146384606F0D1FC00283FF461AFAA
