:1000000000800020BD0100005D95000015950000F6
:100010001595000015950000159500001595000038
:100020001595000015950000159500005D950000E0
:100030005D9500001595000035B4000039B400004E
:100040005D9500005D9500005D9500005D950000E8
:100050005D9500005D9500005D9500005D950000D8
:100060005D9500005D9500005D9500005D950000C8
:100070005D9500005D9500005D9500005D950000B8
:100080005D9500005D9500005D9500005D950000A8
:10009000897800005D9500005D9500005D95000089
:1000A0005D9500005D9500005D9500005D95000088
:1000B0005D9500004D880000598800005D880000B3
:1000C000698800006D880000718800005D9500005F
:1000D0005D9500005D9500005D9500005D95000058
:1000E0005D9500005D9500005D9500005D95000048
:1000F0005D9500005D9500005D95000021A4000065
:100100005D9500001DC100005D9500005D9500003B
:100110005D9500005D9500005D9500005D95000017
:100120005D9500005D9500005D9500005D95000007
:100130005D9500005D9500005D9500005D950000F7
:100140005D9500005D9500005D9500005D950000E7
:100150005D9500005D9500005D9500005D950000D7
:100160005D95000069A700005D9500005D950000A9
:100170005D9500005D9500005D9500005D950000B7
:100180005D9500005D9500005D9500005D950000A7
:100190005D9500005D9500005D9500005D95000097
:1001A0005D9500005D9500005D9500005D95000087
:1001B0005D9500005D9500005D950000564B4CF28A
:1001C000205210B51A804DF628121A8000BF00BFC9
:1001D00009F0C8F9514B4FF010621A60504A9A600A
:1001E000504ADA60504A136813F4807304D14F49BF
:1001F0000B604FF4A85313604D4B1A78110703D5C9
:100200001A7842F008021A704A4B4B492A221A7097
:100210004A4A4B4B8B4204D252F8040F43F8040B6A
:10022000F8E7484B484900228B4202D243F8042B9E
:10023000FAE74649464A002352F8230041F82300D2
:1002400001336F2BF8D1434B434A802103F8011B44
:100250009342FBD1414B3D4A1A60414B8A221A70AE
:10026000A3F5805324225A70A0221A709A7992071B
:10027000FCD59A79D406FCD43A4A937903F00C035E
:10028000082B384BF9D103221A7140225A719A79FE
:100290009006FCD5334A9179324B4906FBD5324A58
:1002A000324911600221516020221A709A7902F0BD
:1002B0000C020C2AFAD12E4B2E4A1A602E4B2F4AD2
:1002C0001A6000225A60072243F8042C2C4AC3F813
:1002D0000C2D62B609F07CFC144B1B68DA0705D5BF
:1002E000284809F057FA284B284A1A60284B1B78EF
:1002F0005B0609D5244C254B22689A4204D121483B
:1003000009F048FA0023236009F032F90DF0DAFB16
:100310000BF0A4FBFEE700BF0E2005403080044038
:10032000823F04000100002B10D0034014D0034092
:1003300002D0074000E007403894FF1FF835010065
:100340002087FF1F3894FF1FC4D8FF1F0082FF1FA4
:100350000000000000E400E05FE400E008ED00E0E1
:100360000050064000400640448004400000030165
:1003700004800440C010050014E000E0FF76010096
:10038000000020203746D4621CE00340A5C3945AE5
:1003900000F00740FFFFFFFFFFFFFFFFFFFFFFFF32
:1003A000FFFFFFFFFFFFFFFFFFFFFFFFFFFFFFFF5D
:1003B000FFFFFFFFFFFFFFFFFFFFFFFFFFFFFFFF4D
:1003C000FFFFFFFFFFFFFFFFFFFFFFFFFFFFFFFF3D
:1003D000FFFFFFFFFFFFFFFFFFFFFFFFFFFFFFFF2D
:1003E000FFFFFFFFFFFFFFFFFFFFFFFFFFFFFFFF1D
:1003F000FFFFFFFFFFFFFFFFFFFFFFFFFFFFFFFF0D
:10040000FFFFFFFFFFFFFFFFFFFFFFFFDEF9FFFF23
:1004100010B5054C237833B9044B13B10448AFF33E
:1004200000800123237010BD3894FF1F00000000DE
:10043000F4350100084B10B51BB108490848AFF36B
:1004400000800848036803B910BD074B002BFBD0A0
:10045000BDE81040184700BF000000003C94FF1F9B
:10046000F43501003894FF1F00000000F0B400F1E3
:1004700030061A4F00243146031F00F1640243F88E
:10048000044FB34241F8047F4FF0000542F8044F97
:10049000F5D10023124A134EC0F89C5047F2305455
:1004A0000121C0F8A050C0F8A450C0F8A850C0F86E
:1004B000B850C0F8B060C0F8F040C0F8AC20C0F848
:1004C000B420C0F8E43080F8C43080F8C53080F83B
:1004D000DC30C0F8F410F0BC704700BF0000A04052
:1004E000000048430000C8C2012A38B505460C4642
:1004F00014D00223C0F8F4304B7B087B1B01DBB225
:1005000043EA10100CF0ECFE4FF07C510CF03CFF75
:100510002C490CF02FFEC5F8A00038BDC0F8F4201F
:10052000CB7BFD2B49D0087ADE2828D9C87A0CF07D
:10053000D7FE4FF07C510CF027FF23490CF01AFE38
:10054000C5F8A000207BEF282DD80CF0C9FE4FF095
:100550007C510CF019FF1C490CF00CFEC5F8A400EE
:10056000607BEF2825D80CF0BBFE4FF07C510CF0DF
:100570000BFF15490CF0FEFDC5F8A80038BD0CF0C6
:10058000AFFE4FF07C510CF0FFFE0F490CF0F2FD76
:10059000C5F8A000E27AA37A03EB0223C5F8E430A1
:1005A000207BEF28D1D90023C5F8A430607BEF2849
:1005B000D9D90023C5F8A83038BD887AFD28A1D143
:1005C000ABE700BF0000204200002C4290F8CC00B6
:1005D000704700BF90F8C800704700BF90F8D00087
:1005E000704700BF90F8D400704700BF0D2994BF3A
:1005F00050F82100002070472DE9F0410B4E804655
:10060000041F00F1300754F8045F314628460DF00E
:1006100059F830B1D8F8BC1028460DF071F800B187
:100620002E46BC42EFD13046BDE8F08100002041AB
:100630002DE9F041D0F8BC704FF00008041F00F124
:10064000300654F8045F394628460DF059F8084939
:1006500048B128460DF036F8414620B128460DF045
:100660004FF800B1A846B442EBD14046BDE8F08156
:100670000000A0402DE9F047D0F8BC7082464FF052
:100680000009041F00F130064FF0000854F8045F21
:10069000394628460DF034F80F4950B128460DF080
:1006A00011F830B1484629460CF066FD08F1010802
:1006B0008146B442EAD1CAF8E080B8F1000F02D115
:1006C0000020BDE8F08740460CF00AFE014648468F
:1006D0000CF00EFFBDE8F0870000A040D0F8E0006D
:1006E000704700BF38B5D0F8F430012B03D0D0F8F4
:1006F000A040204638BDD0F8D8305BB9D0F8A4402F
:10070000D0F8A050214628460CF0DCFF0028F0D19C
:100710002C46EEE7273350F82340204638BD00BF73
:10072000D0F8F430012B2DE9F04104D0D0F8A040EE
:100730002046BDE8F081D0F8D830002B40F0818011
:10074000D0F8A460D0F8A0500446314628460CF0FA
:1007500013FDD4F8A870394680460CF00DFD794998
:100760000CF0C6FE4FF07C5104460CF0C9FF002887
:1007700065D04FF07C5128460CF0C2FF4FF07C5101
:1007800010B330460CF0BCFF4FF07C5100285ED116
:1007900028460CF097FF00286CD04FF07C51304673
:1007A0000CF0AEFF002865D04FF07C5138460CF0BD
:1007B000A7FFA0B1394630460CF0DEFC4FF07C516B
:1007C0000CF0E2FD0446B3E728460CF07BFF30B1A5
:1007D0004FF07C5130460CF093FF0028E4D14FF0ED
:1007E0007C5128460CF08CFF002843D14FF07C51FF
:1007F00028460CF085FF002843D14FF07C51284655
:100800000CF07EFF002849D14FF07C5128460CF0B7
:1008100059FF4FF07C51002850D128460CF052FF70
:10082000002856D128464FF07C510CF04BFF30B1D8
:1008300030464FF07C510CF045FF002856D1BDE802
:10084000F081273350F823402046BDE8F081384638
:100850000CF056FF00287FF46BAF4FF07C51284618
:100860000CF030FF30B14FF07C5138460CF048FFAF
:1008700000289FD14FF07C5130460CF023FF002818
:100880003DD14FF07C5130460CF03AFF30B14FF083
:100890007C5138460CF016FF002848D14FF07C51AF
:1008A00030460CF00FFF0028AED04FF07C51384698
:1008B0000CF008FF0028A7D02C4639E730460CF092
:1008C0001FFF30B14FF07C5138460CF0FBFE002882
:1008D00034D14FF07C5130460CF0F4FE0028A7D004
:1008E0004FF07C5138460CF00BFF48BB38464FF0B8
:1008F0007C510CF0E7FE0028A1D0134C18E74FF014
:100900007C5138460CF0FCFE38B94FF07C51304633
:100910000CF0F6FE0028BAD1C7E7394628460CF09D
:100920002BFC4FF07C510CF02FFD044600E74046B5
:100930004FF07C510CF028FD0446F9E63446F7E60A
:100940003C46F5E6000040400000A0C2D0F8F4208C
:10095000012A70B503D0D0F8A040204670BDD0F871
:10096000D820002A37D10446FFF7DAFE4FF07C5139
:100970000CF0C6FE70B3D4F8A0604FF07C51304646
:100980000CF0BEFED4F8A45050BBD4F8A8404FF0F1
:100990007C5128460CF0B4FE58B1294630460CF084
:1009A000AFFE30B1214628460CF08CFE08B12C4633
:1009B000D3E74FF07C5120460CF0A2FE50B1284600
:1009C00021460CF09DFE28B1304621460CF098FEE1
:1009D0000028C2D170BD273250F82240204670BD99
:1009E000304629460CF06EFED4F8A8400028CED040
:1009F000304621460CF066FE0028C8D03446ACE7ED
:100A00002DE9F047814684B01546032900F276812E
:100A1000DFE811F0F600B500740004004FF0000AA2
:100A200080F8ECA0937A507A1B0103EB101000F5CC
:100A30007A700CF055FCBA490CF0A6FCD9F80040CD
:100A4000C9F830004846FFF781FFD9F8AC100546D9
:100A50000CF038FE08B1C9F8AC50D9F8F430012BCD
:100A600000F02D81D9F8A050D9F8B01028460CF02C
:100A700047FE08B1C9F8B05009F13406C84609F17B
:100A800068050D2701E058F8044F316820460CF046
:100A900019FE30B1D9F8BC1020460CF027FE00B189
:100AA0003460296820460CF02BFE04369D4920B1A5
:100AB00020460CF025FE00B12C60013F05F1040535
:100AC000E1D1BAF1000F00F0DB80974CD9F8E810C3
:100AD00023680193019AD9F8F030521A9A4280F0B3
:100AE000D88022680292029A0B449B1A41F2873204
:100AF000934240F21B8104B0BDE8F0874FF0000A3A
:100B000080F8ECA0937A507A1B0103EB101000F5EB
:100B10007A700CF0E5FB82490CF036FCC9F8200035
:100B20002B7B687B1B1103EB001000F57A700CF037
:100B3000D7FB7B490CF028FCC9F828002B7BEA7A0C
:100B40001B0203F47063981800F57A700CF0C8FB70
:100B500073490CF019FCC9F82400EB7BAA7B1B023B
:100B600003F47063981800F57A700CF0B9FB6C49C7
:100B70000CF00AFCD9F80040C9F82C0062E74FF0ED
:100B8000000A80F8ECA0937A507A1B0103EB101056
:100B900000F57A700CF0A4FB61490CF0F5FBC9F884
:100BA00010002B7B687B1B1103EB001000F57A70A3
:100BB0000CF096FB5A490CF0E7FBC9F818002B7BA8
:100BC000EA7A1B0203F47063981800F57A700CF04F
:100BD00087FB53490CF0D8FBC9F81400EB7BAA7BC8
:100BE0001B0203F47063981800F57A700CF078FB20
:100BF0004B490CF0C9FBD9F80040C9F81C0021E7AB
:100C00004FF0000A80F8ECA0937A507A1B0103EBB6
:100C1000101000F57A700CF063FB41490CF0B4FB46
:100C2000C9F800002B7B0446687B1B1103EB001006
:100C300000F57A700CF054FB39490CF0A5FBC9F8AB
:100C400008002B7BEA7A1B0203F47063981800F506
:100C50007A700CF045FB32490CF096FBC9F80400A1
:100C6000EB7BAA7B1B0203F47063981800F57A7083
:100C70000CF036FB2A490CF087FBC9F80C00E1E6C2
:100C8000294B1B680093009BC9F8E83004B0BDE80D
:100C9000F0870020A9F1040309F11C0143F8040FB7
:100CA00099424FF00002F9D1C9F89C20C9F8A02060
:100CB000C9F8A420C9F8A82004B0BDE8F087D9F885
:100CC000D830FBB9D9F8A050D9F8A46028463146ED
:100CD0002F460CF0F7FC00B137463846D9F8B01073
:100CE0000CF00EFD00283FF4C7AE284631460CF04C
:100CF000E9FC00283FF4BEAE3546BBE690F8ECA018
:100D000004689FE603F12705D9F8B01059F82500CB
:100D10000CF0F6FC00283FF4AFAE59F82550A9E6D8
:100D20006F12833A0000A0404CD6FF1F02211348E7
:100D30000AF05AFA12480AF0F7FC062111480AF0A4
:100D400053FA3B460A2299F8DC100D480AF000FDE0
:100D500019210D480AF048FA23680393D9F8E820CE
:100D6000D9F8F030039906481A44511A3B460A2232
:100D70000AF0EEFC02480AF0D7FCBCE6582C010051
:100D8000C489FF1F40190100481901002DE9F843EB
:100D90000026D0F8BC80C0F89C608146041F00F19A
:100DA000300754F8045F414628460CF0A9FC094975
:100DB00050B128460CF086FC30B1304629460CF084
:100DC000DBF90646C9F89C00BC42EAD13046BDE8D2
:100DD000F88300BF0000A04002299ABF283150F8D4
:100DE00021000020704700BF3E2998BF80F8DC102A
:100DF000704700BFD0F8F400704700BFD0F8E4009F
:100E0000704700BF90F8C400704700BF90F8C5005D
:100E1000704700BFC0F8D810704700BF80F8C410FA
:100E2000704700BFC0F8C010704700BF80F8C51001
:100E3000704700BF30B50F4CC0F8BC1083B02046DF
:100E40000D460AF071FC20460AF06EFC28460BF0B5
:100E5000F1FD022502460B46009520460AF0C0FC33
:100E600020460AF061FC204603B0BDE830400AF09D
:100E70005BBC00BFC489FF1FF8B500F5745506467A
:100E8000343500F12C042046F834FFF7EFFAAC4279
:100E9000F9D106F59275012428460021FFF7BEFF1F
:100EA000214628460134FFF79FFF3F2C05F1F80546
:100EB000F2D143F63C5243F63D5743F63E550023EC
:100EC000B354F3557355054C0549064A3461002067
:100ED0007061B161F2613046F8BD00BF00007A4434
:100EE000000048430000C8C270B500F592740125A7
:100EF00000260DE0012620460021FFF797FF294636
:100F000020460135FFF770FF3F2D04F1F8040ED0A5
:100F10002046FFF777FF0028EDD02046FFF776FF49
:100F200006460028E6D120463146FFF777FF3046D7
:100F300070BD00BF30B50B4C8162054683B02046C2
:100F40000AF0F2FBA86A0BF075FD032502460B467A
:100F5000009520460AF044FC204603B0BDE830402E
:100F60000AF0E2BBC489FF1F2DE9F04F43F63D5361
:100F700083B00026C65405469448019143F63E547A
:100F80000AF0D2FB91480AF0CFFB072190480AF003
:100F90002BF93346295D8D480A220AF0D9FB8B488C
:100FA0000AF0C2FB2B5D312B00F20281DFF82C82AC
:100FB00005F592774FF001093846FFF723FF002827
:100FC00000F08180002634464FF0010BA96AA86822
:100FD0000CF0D2F8214682463846FFF707FB01465F
:100FE00050460CF06FFB18B10BFA04F31E43B6B277
:100FF00001340C2CEAD126B105F57453012283F893
:101000003D20019B012B00F0BA80724C002221464A
:10101000082046FA02F313F0010302F1010214BFA3
:1010200008700B70082A01F10101F2D109F1FF3AB1
:10103000BAF1070F08D8DFE80AF0928E8A869A96EE
:101040009E04654BC8F8003098F806306349644840
:1010500043F001034FF0080B88F8063088F807B01A
:1010600007F094FA5B46584646FA03F212F0010282
:1010700003F1010314BF207022700D2B04F1010451
:10108000F2D1FE2388F80C3088F80D3088F80E3045
:1010900088F80F30BAF1070F08D8DFE80AF04C5093
:1010A00048403C4438044F4BC8F8003098F80630AC
:1010B0004A494B4843F0010388F80630082388F872
:1010C000073007F063FA09F10109B9F13F0F07F1A1
:1010D000F8077FF471AF43F63D53EB5C002B6FD103
:1010E00043F63E530022EA5404213F480AF07CF8BC
:1010F00043F63D533548E95C0AF06AFB98F8063040
:101100006FF3000388F8063003B0BDE8F08F374B6B
:10111000C8F80030CAE7364BC8F80030C6E7354B90
:10112000C8F80030C2E7344BC8F80030BEE7334B94
:10113000C8F80030BAE7324BC8F80030B6E7314B98
:10114000C8F80030B2E7304BC8F800307CE72F4BCE
:10115000C8F8003078E72E4BC8F8003074E72D4B04
:10116000C8F8003070E72C4BC8F800306CE72B4B08
:10117000C8F8003068E72A4BC8F8003064E7134825
:101180000AF0D2FA072127480AF02EF849460F48FC
:101190000AF01EFB032124480AF026F8002310223F
:1011A00031460A480AF0D4FA08480AF0BDFA2CE79A
:1011B0000133DBB23C2B2B55DFF8208090D893E72E
:1011C00043F63E52AB5C0133AB548DE7C489FF1F3D
:1011D000641901005C94FF1F1854551A5494FF1FA2
:1011E000A4D4FF1F1954551A781901001754551A21
:1011F0001354551A1154551A1554551A0F54551A9B
:101200000B54551A0D54551A1054551A0E54551A9C
:101210000C54551A0A54551A1454551A1254551A86
:101220001654551A6C19010074190100F8B500F52F
:101230007557002300F574563B60343600F5927400
:1012400002E0F834B4420DD02046FFF7DBFD002861
:10125000F7D020463D68FFF741FAF8342844B442FD
:101260003860F1D13868F8BD012B2DE9F0411D46F9
:101270000E4690462DD0022B01D0BDE8F0814B7B6D
:10128000DF2BFAD00F6807F00F070137C7EB4714C1
:1012900000EBC40000F12C0420460121FFF7BEFD45
:1012A00020460121FFF7C2FD2A4631462046FFF7BE
:1012B0001BF9B8F1010FE0D119480AF035FA3946A7
:1012C00017480AF085FA0D211648BDE8F04109F0EB
:1012D0008BBF0F6807F00F07C7EB471400EBC40084
:1012E00000F12C0419462046FFF798FD29462046B8
:1012F000FFF79CFD2A4631462046FFF7F5F8B8F186
:10130000010FBAD106480AF00FFA394604480AF02C
:101310005FFA0D210448BDE8F04109F065BF00BF48
:10132000C489FF1F901901008019010043F63D5345
:10133000C35C8BBB8B7AFF2B2ED04B7BFF2B2BD030
:10134000CB7BFF2B28D00B68A3F5D8732DE9F04198
:101350003E2B22D8DFE803F0888B8E9194979A9DDC
:10136000A0A3A6A9ACAFB2B5B8BBBEC1C4C7CACD15
:10137000D0D3D6D9DCDFE2E52340554F5243462196
:10138000494C58215B5E612164676A216D7073214D
:1013900076797C217F8285007047BDE8F081002747
:1013A0000924012A90460E46054600F0BD80C4EB94
:1013B000441405EBC40000F12C0420460121FFF782
:1013C0002DFD20460121FFF731FD324639462046EA
:1013D000BDE8F041FFF714BB01270924E1E701272D
:1013E0000A24DEE702270A24DBE700270B24D8E7DC
:1013F00001270B24D5E703270924D2E700270A2475
:10140000CFE702270924CCE702270B24C9E70027EE
:101410000C24C6E701270C24C3E702270C24C0E7ED
:1014200000270D24BDE701270D24BAE702270D246C
:10143000B7E700270E24B4E701270E24B1E70227FF
:101440000E24AEE700270F24ABE701270F24A8E7FF
:1014500002270F24A5E700271024A2E70127102464
:101460009FE7022710249CE70027012499E7012722
:101470003C4696E70227012493E70327012490E7DF
:10148000002702248DE7012702248AE702273C4631
:1014900087E70327022484E70027032481E7012745
:1014A00003247EE7022703247BE703273C4678E7F3
:1014B0000027042475E70127042472E70227042487
:1014C0006FE7032704246CE70027052469E7012759
:1014D000052466E70227052463E70327052460E760
:1014E000002706245DE7012706245AE70227062481
:1014F00057E70327062454E70027072451E701276D
:1015000007244EE7022707244BE70327072448E771
:101510000027082445E70127082442E7022708247A
:101520003FE7032708243CE709480AF0FDF8214675
:1015300007480AF04DF94146064809F055FE39467C
:1015400003480AF045F902480AF0EEF82FE700BF19
:10155000C489FF1FA01901002DE9F043002383B0C7
:101560000646036000F59274012504E001353F2D25
:1015700004F1F80466D02046FFF744FC0028F5D0BB
:101580004E4800F02FFD29464D4800F02BFD204627
:10159000FFF7FCFB0BF04EFA02460B46494800F001
:1015A00021FD2046FFF728F880462046FFF740F847
:1015B000074640460BF03EFA8046384689460BF017
:1015C00039FA42464B46CDE900013F4800F00AFD9A
:1015D00000212046FFF700FC012180462046FFF74E
:1015E000FBFB074640460BF025FA80463846894605
:1015F0000BF020FA42464B46CDE90001334800F09B
:10160000F1FC2046FFF7C2FB014630680BF0B4FD49
:1016100030602046FFF79AF9B1690CF053F80028C2
:1016200033D12046FFF75EF8F1690CF069F8002825
:101630009CD02046FFF756F801353F2DF06104F1AC
:10164000F80498D170680BF04BFE014630680BF03F
:101650004FFF7169306004460CF052F800B17461BC
:10166000316920460CF02EF800B134610B2008F0EF
:101670002BFA43F63C53F35C60B99BB143F63C5301
:101680000122F25403B0BDE8F0832046FFF75EF973
:10169000B061C6E753B943F63C530022F25403B09D
:1016A000BDE8F0830A4800F0CBFCE7E7094800F00A
:1016B000B1FC43F63C530022F254F0E70020010055
:1016C000A4190100E0190100F4190100201A010019
:1016D0003C1A0100741A010070B5114B836000F5CB
:1016E00074550646343500F5927402E0F834AC4285
:1016F00013D02046FFF786FB0028F7D02046FEF7E0
:101700007BFFB1680BF0DEFF0028EFD02046FEF72C
:1017100073FFF834AC42B060EBD1B06870BD00BF6D
:101720000000A04070B5002300F574550646C36064
:10173000343500F5927402E0F834AC4213D0204600
:10174000FFF760FB0028F7D02046FEF771FFF16835
:101750000BF0D6FF0028EFD02046FEF769FFF834E3
:10176000AC42F060EBD1F06870BD00BF006870471C
:1017700043F63853C0587047416070472DE9F04137
:1017800000F57455884617461E46343500F59274A8
:1017900002E0F834AC4213D02046FFF733FB0028B8
:1017A000F7D020464146FFF735FB20463946FFF784
:1017B00041FB20463146F834FFF734FBAC42EBD115
:1017C000BDE8F0812DE9F041274A284B426200F53F
:1017D000745507464FF000080362343500F59274E3
:1017E000002602E0F834A54210D02046FFF70AFB9D
:1017F0000028F7D02046FEF793FF1D490BF080FF2D
:1018000080B9F834A54206F10106EED143F638530B
:10181000F858801B0BF064FD014640460BF068FE53
:10182000BDE8F0812046FEF77BFF014640460BF005
:10183000A3FC80462046FEF755FF396A0BF060FF97
:1018400060B92046FFF782F8796A0BF03BFF002869
:10185000C8D02046FFF77AF87862C3E72046FEF743
:1018600041FF3862EDE700BF00C0794400C079C491
:1018700000008CC2006A7047406A70472DE9F04151
:1018800043F6385300F574552E4600228046C25068
:1018900000273435383600F5927402E0F834AC4253
:1018A0001AD02046FFF7AEFA0028F7D02046FEF700
:1018B000E1FE00210BF024FF0028EFD02046FEF7C8
:1018C000D9FE014638460BF057FC3368F834013333
:1018D000AC4207463360E4D143F6385358F803006E
:1018E0000BF0FEFC014638460BF002FEBDE8F0812D
:1018F0002DE9F04F06468FB092488B4600F01AFB58
:10190000904800F017FB8F4800F014FB43F6385363
:101910003046F2580D92FFF789FC73680C93074626
:1019200030680BF087F8804630468946FFF7A6FFFF
:1019300082463046B468F568FFF744FF0BF07AF84A
:10194000CDE90A01214628460BF014FC7E490BF034
:101950001BFD0BF06FF8CDE9080128460BF06AF883
:10196000CDE9060120460BF065F8CDE904015046AB
:101970000BF060F80D9A0C9BCDE90201CDE90089CE
:10198000114672483A4600F0D5FA6E4800F0D2FA95
:1019900006F592764FF001094FF0000A07E009F1D1
:1019A0000109B9F13F0F06F1F80600F095803046C5
:1019B000FFF728FA0028F2D03046FEF707FE30463F
:1019C000FEF708FE3046FEF709FE3046FEF70AFE37
:1019D00008215F4809F008FC49465E4809F0F8FE16
:1019E000B9F1090F40F3A88002215B4809F0FCFB24
:1019F0003046FFF7CBF90BF01DF85FFA8BF8024683
:101A00000B46CDF80080534809F0EAFE0121534807
:101A100009F0EAFB5546002420E00621504809F071
:101A2000E3FB29464B4809F0D3FE02214D4809F05B
:101A3000DBFB21463046FEF7D9FD0AF0FBFFCDF86F
:101A4000008002460B46434809F0CAFE01340121DA
:101A5000424809F0C9FB0D2C09D03D46092D05F17E
:101A60000107DADC0121404809F0BEFBD5E739481F
:101A700009F05AFE3046FFF7BDF90446012C0AF181
:101A80000D0A4FF00901394829D009F0ADFB0021BA
:101A90003046FFF7A1F90AF0CDFF022402460B46BB
:101AA00000942C4809F09CFE0E21314809F09CFB63
:101AB0003046FFF7A3F9002301461022254809F01C
:101AC00047FE09F10109234809F02EFEB9F13F0F45
:101AD00006F1F8067FF46BAF0FB0BDE8F08F09F0A8
:101AE00083FB00213046FFF777F90AF0A3FF0225B8
:101AF00002460B460095174809F072FE0A211D4860
:101B000009F072FB21463046FFF766F90AF092FFB2
:101B1000009502460B460F4809F062FE0A2116485E
:101B200009F062FB29463046FFF756F90AF082FFBA
:101B3000009502460B46B4E701210B4809F054FB1F
:101B400052E700BF0020010000007A44241D01007C
:101B5000C41D0100C489FF1F582C0100D01D0100C5
:101B6000D41D01007C1E01008C1E0100DC1D010043
:101B7000001E0100E81D0100F41D01002DE9F04FD9
:101B800085B000F592758A4603929B462E464FF02B
:101B9000010806E008F10108B8F13F0F06F1F80668
:101BA0007BD03046FFF72EF90028F3D000230A221D
:101BB0005146874809F0CCFD0121864809F014FB05
:101BC00003980AF037FF00230246009380480B4633
:101BD00009F006FE01217F4809F006FB59467C48C2
:101BE00009F0F6FD01217B4809F0FEFA41467848EC
:101BF00009F0EEFD0121774809F0F6FA00244FF0D4
:101C0000020921463046FEF7F1FC0AF013FFCDF839
:101C1000009002460B466E4809F0E2FD01340121B6
:101C20006C4809F0E1FA082C4FF00207E9D10021D5
:101C30003046FFF7D1F80AF0FDFE009702460B464A
:101C4000634809F0CDFD0121624809F0CDFA012178
:101C50003046FFF7C1F80AF0EDFE009702460B464A
:101C60005B4809F0BDFD01215A4809F0BDFA39462B
:101C70003046FFF7B1F80AF0DDFE009702460B464A
:101C8000534809F0ADFD08F10108514809F04CFD39
:101C9000B8F13F0F06F1F80683D14FF001084FF07D
:101CA000000906E008F10108B8F13F0F05F1F80559
:101CB0005DD02846FFF7A6F80028F3D000230A22BB
:101CC0005146454809F044FD0121424808F054FAC4
:101CD00003980AF0AFFECDF8009002460B463E484E
:101CE00009F07EFD01213B4808F046FA59463A4882
:101CF00009F06EFD0121374808F03EFA41463648AA
:101D000009F066FD0121334808F036FA0024022765
:101D100021462846FEF76AFC0AF08CFE0097024630
:101D20000B462D4809F05CFD01340121294808F0DB
:101D300023FA0D2C4FF00206EAD12846FFF75AF895
:101D40000446012C4FF00001284613D0FFF744F859
:101D50000AF070FE08F10108024600960B461E4884
:101D600009F03EFDB8F13F0F05F1F805A1D105B02E
:101D7000BDE8F08FFFF730F80AF05CFE00960246EF
:101D80000B46154809F02CFD2146124808F0F4F9DD
:101D900021462846FFF720F80AF04CFE009602463E
:101DA0000B460D4809F01CFD21460A4808F0E4F9ED
:101DB00031462846FFF710F80AF03CFE009602462E
:101DC0000B46054809F00CFD034809F0ADFC69E736
:101DD000C489FF1FA01901009889FF1F014B1870CB
:101DE000704700BFFC87FF1F0278002A00F0908038
:101DF00070B5034682B00D46252A2AD158785C1C5E
:101E000008B325282FD0732831D0642824D069281E
:101E100022D066284FD07A2859D0782835D0582833
:101E20002FD062283ED0422838D06C2814D06328A6
:101E300012D0742857D054285FD009F059FA62782C
:101E4000631C002AD8D1344802B0BDE8704009F0C4
:101E50006BBC18781C46F0E72B1D29682E481D46E0
:101E600009F0B6FCEBE7104609F042FAE7E72E6806
:101E700030460CF005FC01463046043509F0B4F953
:101E8000DDE70221254809F0AFF92E1D2968224817
:101E900000231022354609F05BFCD0E702212048E0
:101EA00009F0A2F92E1D29681B480023022235469D
:101EB00009F04EFCC3E7073525F007050321D5E9F6
:101EC000002315480091083509F08AFCB7E707356B
:101ED00025F007050021D5E900230F4800910835BA
:101EE00009F07EFCABE7296801290EBF0D480E48BA
:101EF0000121043509F078F9A1E72B68012B07BF10
:101F000004210A480A480521043509F06DF996E7CD
:101F1000014809F009BC00BFC489FF1F101E010061
:101F2000141E0100181E01001C1E0100201E0100CD
:101F3000281E01000FB400B583B004A951F8040BAA
:101F40000191FFF751FF03B05DF804EB04B0704757
:101F500070B51B4B1B4C1B6882B00D460193019B57
:101F60002360194604460023164617480A2209F042
:101F7000EFFB0321154809F037F9032C07D8DFE8F8
:101F800004F01A1510020521114809F02DF902215B
:101F9000104809F029F931462846FFF725FF02B01D
:101FA00070BD07210C4809F01FF9F0E704210B4828
:101FB00009F01AF9EBE70521094809F015F9E6E7F8
:101FC0004CD6FF1F6494FF1FC489FF1F301E010001
:101FD0004C1E01007C1E0100441E01003C1E01003D
:101FE000341E01000FB400B5094B187883B020B13E
:101FF00003B05DF804EB04B0704705AB1A460499D2
:102000000193FFF7A5FF03B05DF804EB04B0704740
:10201000FC87FF1F0FB4094B00B51B78012B83B061
:1020200004D903B05DF804EB04B0704705AB1A4661
:10203000049901930120FFF78BFFF2E7FC87FF1F54
:102040000FB40B4B00B51B78032B83B004D903B03E
:102050005DF804EB04B0704705AB1A460499019390
:102060000320FFF775FF03B05DF804EB04B0704781
:10207000FC87FF1F30B4074D074C084900232B7025
:10208000236003654365836580F85C300B6030BC7A
:10209000704700BF7094FF1F6C94FF1F6894FF1F70
:1020A00070B5132007F010FDA8B1114E114B358803
:1020B0001C6807F01DFDADB22C44201A33880E4A6F
:1020C000C0EB00108000A0F634009BB2B0FBF3F32D
:1020D0009BB2138070BD074C07F00AFD2368044AC9
:1020E000C01A80B2108007F003FD206070BD00BFF1
:1020F0000CD4FF1F70D4FF1F84D4FF1F0A4A0B4962
:10210000D06D936D03FB00F34FF47A7000FB03F086
:10211000642310B50B600BF0E3F80549054C0BF098
:10212000E7F9206010BD00BF30D3FF1F0C88FF1FF0
:10213000E4388E3E64D4FF1F10B4019C521AA4EB05
:10214000030412D0401A002C04FB00F002EBD27101
:1021500011DB00EB610101FB02F0002891FBF2F1C1
:102160000B4414DB184610BC704704EBD47003EB2F
:10217000600010BC7047A0EB610000FB02F1002979
:1021800090FBF2F01844EEDB013010BC7047581E93
:1021900010BC704710B5074C204609F0C5FA064B35
:1021A0002046196809F014FB03210448BDE81040DB
:1021B00009F01AB8C489FF1F1C95FF1F541E0100A7
:1021C00038B5044608460D460CF05AFA2368024614
:1021D00029465B68204698470546204609F0A4FA40
:1021E000284438BD2DE9F8434848494D494F4A4CE9
:1021F000FFF7A0FE494BDFF850E14949494A4A48F8
:102200005D601226494D1E70DF600026484F1C613C
:10221000C3F818E0474C59614FF00C0E46495A621A
:102220009862464A4648DD621E63464D5F6340F64B
:102230001C460A279C63C3F854E041F20404DFF80B
:102240000CE19964DA64022101221862C3F8C450D7
:1022500000204FF07C55DE661F6764264FF49677AA
:102260005C67C3F81CE03224C3F83CE04FF05A0E20
:10227000597059721A729A6583F840009F661F66FA
:102280005C665D64DE654FF47A78C3F878E0DFF869
:10229000C0C0D867C3F88010C3F8D420C3F8840046
:1022A000C3F89C40C3F8AC40DFF8A8E0C3F8A8002E
:1022B00044F62069C3F8B420C3F8B810FF2741F2F0
:1022C0008831052483F8C8204FF4FA7083F8C920B8
:1022D00040F2D662C3F8BC601D65C3F8A080C3F8A5
:1022E00090C0C3F894E0C3F88C90C3F8B070A3F822
:1022F000C240A3F8CA00C3F89810A3F8C010A3F80E
:102300008820A3F88A20BDE8F88300BF581E01008A
:1023100020A10700666686400000404030D3FF1FC2
:1023200033338340CDCCCC3D00008242000020C13D
:10233000000020420000A0409A9979400AD7233D2E
:10234000333373409A99993ECDCC4C40CDCC4C3E22
:102350000000684200C0204470B5464C464D4748D6
:10236000E66800232B70FFF7DDF9014630460BF0DD
:10237000A9F908B104232B704048FFF7ADF9216992
:102380000BF0A0F918B12B7843F010032B703B48E9
:10239000FFF770FAA16A0BF0B3F918B12B7843F08C
:1023A00040032B70002335486B70FFF765FAE16A34
:1023B000314E0BF087F908B10123737000232F48C9
:1023C000EB70FFF7AFF905462C482B4EFFF784F969
:1023D000014628460AF0CEFEE16B0BF091F908B1F8
:1023E0000123F370264D254800232B70FFF79AF93F
:1023F000616A0646E0680AF0BDFE014630460BF011
:102400007FF908B104232B701C48FFF765F9616A56
:10241000064620690AF0B0FE014630460BF052F93C
:1024200018B12B7843F010032B701448FFF722FAF1
:10243000A16B0646A06A0AF09DFE014630460BF0ED
:102440005FF918B12B7843F040032B7000230B4841
:102450006B70FFF711FAA16B0546E06A084C0AF0B1
:102460008BFE014628460BF02DF908B1012363705D
:1024700070BD00BF30D3FF1F1CD3FF1F2C95FF1F63
:102480008094FF1F2DE9F041844C2368012B82B01A
:1024900027D0022B00F09E80032B00F0BE80EBB90A
:1024A0007F4B8048D3F8AC20D3F8B0100368891A6A
:1024B000002903FB01F37C49C0F2D180323381FB58
:1024C0000301D817C0EB6111002B1144C0F2DC806E
:1024D000062002B0BDE8F04107F070B902B0BDE8D7
:1024E000F081724E33680A33B3F57A7F00F3C78008
:1024F000184633600AF0F4FE6D490AF045FF804645
:10250000674DD5F8AC000AF0EBFE0746D5F8B000F1
:102510000AF0E6FE39460AF02DFE41460AF034FF85
:1025200064490AF0E5FF39460AF026FE0BF0F2F89E
:102530000146062007F042F902215F4808F054FEE8
:102540005E4809F0F1F806215D4808F04DFE30685C
:102550000AF0C6FE56490AF017FF0AF06BFA022786
:1025600002460B460097554809F03AF90D215548A7
:1025700008F03AFED5F8AC000AF0B2FE80463068AA
:102580000AF0AEFE4A490AF0FFFE0646D5F8B00052
:102590000AF0A6FE41460AF0EDFD014630460AF07B
:1025A000F3FE44490AF0A4FF41460AF0E5FD0AF0B3
:1025B00041FA00970B460246404809F011F93946A6
:1025C0003D4808F011FE3D4809F0AEF82368022BA3
:1025D0007FF462AF354B324E00221A60D6F8AC0061
:1025E0000AF07EFE0546D6F8B0000AF079FE2946CC
:1025F0000AF0C0FD00210AF0C7FE2E490AF078FF5C
:1026000029460AF0B9FD0BF085F80146062007F0CF
:10261000D5F82368032B7FF442AF244B204E4FF4B0
:102620007A721A60D6F8AC000AF05AFE0546D6F85F
:10263000B0000AF055FE29460AF09CFD1D490AF03B
:10264000A3FE1C490AF054FF29460AF095FD0BF041
:1026500061F80146062007F0B1F823681FE7323B16
:1026600081FB0310D917C1EB6011002B0A4412DB68
:10267000511C062002B0BDE8F04107F09FB80023CE
:102680004FF0000833603BE70139062002B0BDE897
:10269000F04107F093B811461AE700BFAC94FF1F52
:1026A00030D3FF1F0C88FF1F1F85EB5108D4FF1F7D
:1026B000CDCCCC3D0000C842582C0100C489FF1F7E
:1026C000781E0100801E010070B5B548B54C09F0B8
:1026D0002BF8B34809F028F8B14809F025F80D2186
:1026E000B14808F081FDD4F8A830012B00F0B1808A
:1026F000AE4CAB48217800230A2209F029F8237850
:10270000052B0BD8DFE813F0F100F600FB00000109
:10271000050106000721A64808F066FD0221A5482C
:1027200008F062FD122007F0CFF9012800F02081A7
:10273000112007F0C9F9012800F024819E4B1B6885
:10274000012B00F0288102219A489C4C08F04CFD96
:102750009B4B9348196809F03BF8914808F0E4FF57
:102760000421984808F040FD0B2007F0ADF9002344
:1027700001460A228A4808F0EBFF0C2007F0A4F972
:10278000002301460A22864808F0E2FF142007F0E1
:102790009BF9002301460A22814808F0D9FF152041
:1027A00007F092F90A22002301467D4808F0D0FF85
:1027B0000621854808F018FD2368DD074FF0010168
:1027C0004CBF8248824808F00FFD236898074FF0FD
:1027D00001014CBF7D487E4808F006FD23685A077A
:1027E0004FF001014CBF7948794808F0FDFC23689F
:1027F0001B074CBF75487648012108F0F5FC042101
:10280000744808F0F1FC112007F05EF9002301463E
:102810000A22634808F09CFF102007F055F90023B6
:1028200001460A225E4808F093FF122007F04CF997
:10283000002301460A225A4808F08AFF132007F0B5
:1028400043F9002301460A225548BDE8704008F0CC
:102850007FBF0921604808F0C7FC6048FEF73CFFD5
:1028600021690AF02FFF002862D15C48FEF75AFF69
:10287000E1680AF045FF002864D15848FEF752FF8E
:1028800005465648FEF728FF014628460AF072FC26
:10289000E16B0AF035FF00284FD15048FEF792FF58
:1028A000A16A0AF02DFF00283DD14C48FEF78AFFAF
:1028B000E16A0AF007FF002830D1494B47481B68FE
:1028C000012B00F0AF80FEF707FF2169354D0AF0BC
:1028D00017FF00283BD10721424808F085FC424BF6
:1028E0002F48196808F074FF18E706213F4808F0E0
:1028F0007BFC13E707213E4808F076FC0EE7072132
:102900003C4808F071FC09E708213B4808F06CFCE2
:1029100004E70B21394808F067FCFFE60D21384831
:1029200008F062FCC9E70C21364808F05DFCBCE702
:102930000F21354808F058FC97E71121334808F07B
:1029400053FCAAE70E21324808F04EFC95E72348D5
:10295000FEF7E8FEE9680AF0B5FE0028BBD0134B8D
:102960001B78052B6ED008212A4808F03DFCB2E701
:102970000E21294808F038FC112007F0A5F801289D
:102980007FF4DCAE0A21254808F02EFC0A4B1B68B8
:10299000012B7FF4D8AE1121214808F025FCD2E6A6
:1029A000C489FF1F30D3FF1F901E010024D3FF1FD7
:1029B000681F0100582C010050D4FF1F88D4FF1F4E
:1029C0008894FF1FA01F0100A81F0100B01F010075
:1029D000E42F0100B41F0100A01E01002C95FF1F71
:1029E0007894FF1F301F0100B894FF1F381F0100AB
:1029F000401F0100541F01005C1F0100481F01001F
:102A0000F01E0100E01E0100AC1E0100CC1E010002
:102A1000BC1E0100241F0100701F0100801F010067
:102A20008C1F0100FEF758FE216A0AF069FE00289B
:102A300099D01621064808F0D7FB0A21054808F06E
:102A4000D3FB48E70A21034808F0CEFB43E700BF69
:102A5000001F0100181F01002DE9F04FAB4CD4F806
:102A60008060012E8DB000F07981032E00F0CC80C3
:102A7000DFF8DC82A64FA74EE36FA748012B09BF02
:102A80003168316801F10041316006F09DFA3B6820
:102A9000002B40F09F80A048DFF8B49206F06AFA5D
:102AA0003B68C8F800000546002B44D1D4F88030BC
:102AB000964A012B53D0994928460AF021FEC0B905
:102AC000974928460AF0FEFD98B9964A964B126837
:102AD0000B920B9A1A60D4F8B4000AF001FC294654
:102AE0000AF052FC0023C8F8000033600DB0BDE8C6
:102AF000F08FDFF830A28C4FDAF800300A930A9892
:102B00003B68DFF85092C01A0AF0E6FB29460AF04B
:102B10003BFC86490AF0ECFC84490AF0E9FCD9F850
:102B200000100AF029FBDAF800300993099BC9F874
:102B300000003B60CFE709F07DFF022502460B460F
:102B400000957B4808F04CFE04217A4808F04CFBC5
:102B5000D4F88030D9F800506C4A012BABD1764BB9
:102B60001B68012B00F0DA81022BB4D1D2F88C70F3
:102B700038460AF0B5FB29460AF0A4FD40B9784270
:102B80000AF0AEFB29460AF0BBFD002800F0F981EF
:102B9000DFF890A1644FDAF80030079307983B689C
:102BA000DFF8B091C01A0AF097FB29460AF0ECFB57
:102BB0005E490AF09DFC5D490AF09AFCD9F80010C4
:102BC0000AF0DAFADAF800300693069BC9F800003A
:102BD0003B6080E7504806F0CDF909F02BFF022555
:102BE00002460B460095524808F0FAFD032153486F
:102BF00008F0FAFAD4F88C104D4808F0E9FD0321EA
:102C00004E4808F0F1FA46E74D4D4B4F2B68DFF880
:102C10004081D3F884000F2101233B6006F062F964
:102C20003B683B4F012B3B6800F0BF80002B40F01E
:102C30003D812B68DFF82091D3F88400436B19693C
:102C40008EB2C9F8006005F0CFFEB4F88A2040F6D5
:102C5000E44303FB06F1B1FBF0F0801A00B20AF086
:102C60003FFB38492B4E8246D4F890000AF08CFB8B
:102C7000014650460AF03CFCD9F800303060632B26
:102C8000DFF8D4A000F30681002333603B68002BFB
:102C90003FF4F2AE02212C4808F0A6FA2B68D9F8CE
:102CA0000050D3F8840040F6E44303FB05F505F03B
:102CB0009BFEB5FBF0F00AF00FFB0546B4F88A0066
:102CC0000AF00EFB014628460AF054FA09F0B2FE5B
:102CD000022502460B460095154808F081FD29465D
:102CE000194808F081FA306809F0A4FE0095024600
:102CF0000B460F4808F074FD2946144808F074FA92
:102D00002946114808F070FAB6E600BF30D3FF1F1D
:102D1000B094FF1F74D4FF1F28D4FF1F0000FA4394
:102D20000000FAC34CD6FF1F18D3FF1F00007A44DF
:102D3000C489FF1FFC1F01002888FF1F74190100B0
:102D400098D4FF1FACC52737582C0100F81F01008D
:102D500020D3FF1F64D4FF1FA0D4FF1FDFF8088318
:102D6000D4F88C70D8F8005038460AF0B9FA2946E1
:102D70000AF0C6FC48B178420AF0B2FA0146284689
:102D80000AF0BEFC002840F00381A54DA54F2A683B
:102D90000223D2F884003B600E2106F0A3F83B68C2
:102DA000A14F012B3B687FF441AF002B40F0FA802C
:102DB0002B68DFF8B892D3F88400436B19691FFAC7
:102DC00081FBC9F800B005F00FFEB4F88830974ECB
:102DD00040F6E44A0AFB0BFBBBFBF0F0C01A00B262
:102DE0000AF07EFA92498346D4F894000AF0CCFAAD
:102DF000014658460AF07CFB2A68D9F8003030605A
:102E0000D2F884000AFB03FA05F0EEFDB4F888302E
:102E1000BAFBF0F00FFA80FAC3EB0A03002BB4F808
:102E2000C220B8BF5B429342BCBF002333603B6803
:102E3000002B3FF421AE02217E4808F0D5F92B6823
:102E4000D9F80050D3F8840040F6E44303FB05F5BD
:102E500005F0CAFDB4F88810B5FBF0F000B2411AD5
:102E6000754808F0B5FC0221724808F0BDF93068D9
:102E700009F0E0FD022502460B4600956E4808F079
:102E8000AFFC03216D4808F0AFF92946694808F006
:102E9000ABF9F1E52B68D3F8840005F0A5FDDAF86D
:102EA000003064389842FFF4EFAEEFE66248DFF896
:102EB000BC91DFF86CA108F037FC0C21604808F0E9
:102EC00093F90C215F4808F08FF92A683B68D2F823
:102ED0008400426B11698EB2C9F80060002B3FF488
:102EE000B2AE05F081FD40F6E44100230A2201FB69
:102EF00006F1B1FBF0F1504808F02AFC02214D48E0
:102F000008F072F9B4F88A104B4808F061FCDAF85E
:102F10000030D9F80060D3F8840094E64A49284686
:102F20000AF0EEFB58B9494928460AF0CBFB30B904
:102F3000474A484B12680592059A1A60CBE5DFF8BC
:102F400010A1444FDAF80030049304983B68DFF88E
:102F50002091C01A0AF0C0F929460AF015FA3E4934
:102F60000AF0C6FA3C490AF0C3FAD9F800100AF090
:102F700003F9DAF800300393039BC9F800003B60C3
:102F8000A9E5334A334B12680892089A1A60A2E501
:102F9000234D244F28683E604FF0FF320F2105F08B
:102FA0009DFC3DE62448DFF8C4901D4E08F0BCFBB4
:102FB000D4F88030012B4FF00B010CBF2748284874
:102FC00008F012F90C211F4808F00EF92A683B6836
:102FD000D2F88400426B11691FFA81FBC9F800B076
:102FE000002B3FF4F0AE05F0FFFC40F6E441002377
:102FF0000A2201FB0BF1B1FBF0F10F4808F0A8FB2E
:103000000121184808F0F0F8B4F888100A4808F0D0
:10301000DFFB3368D9F800B0D3F88400D3E600BFF3
:1030200098D4FF1F2888FF1FB094FF1F74D4FF1F80
:10303000ACC52737582C0100C489FF1FE41F0100CD
:10304000E81F0100D41F01000000FA430000FAC38A
:103050004CD6FF1F18D3FF1F00007A44BC1F01008D
:10306000C81F01008C1E010020D3FF1FA0D4FF1F2A
:1030700064D4FF1F2DE9F04F9D4D2B68012B85B0C7
:1030800000F0FF809B4C9C4F9C4E9D4D2B683BB9A4
:103090009C4B1B680393039BB3F5FA5F00F2A1807E
:1030A000DFF8A882D4F88420924B012A04D0D3F808
:1030B0008020002A40F08F809348FEF70DFB934953
:1030C000D4F870A0D4F87490E56E0AF05DF90AF0B7
:1030D00047FBA36F00934A465346294680B2FFF749
:1030E0002BF8E56DD4F858A005FB00F00AFB00F0C2
:1030F00000EB800040000AF0F3F885490AF0F8F987
:103100008146306005FB0AF54FF47A7000FB05F04C
:103110000AF0E6F87E49DFF8E0A1054648460AF0E5
:1031200033F929460AF0E4F97A490AF02DF90AF050
:10313000F1FA6328386048DD284675490AF0D8F965
:1031400064233060CAF80030D8F80030002B39D042
:10315000D4F88030674D012B4BD0032B00F0C18099
:10316000022B00F0B98002216B4808F03DF86B4B50
:10317000186809F05FFC022402460B460094684878
:1031800008F02EFB2146674808F02EF821466248D9
:1031900008F02AF83968624808F01AFB06216248EC
:1031A00008F022F830685A490AF0EEF809F042FCBB
:1031B000009402460B465A4808F012FB03215B4874
:1031C00008F012F805B0BDE8F08F0028BCBF00235E
:1031D000CAF80030B8E7D6F80090DD6DD3F858A0F3
:1031E00090E7534B1B688BB1DFF8608101232B60A4
:1031F00058E7504B1B68012B4FF00A010CBF4E489B
:103200004E4807F0F1FFD5F88030A6E73E48DFF8DA
:103210003C81FEF761FA3D49D4F870B0D4F874A04F
:10322000D4F86C900AF0B0F80AF09AFAA36F009301
:1032300049465B46524680B2FEF77EFFE26DA36DC3
:10324000386002FB00F003FB00F000EB8000400060
:103250000AF046F82E490AF04BF9D8F800303060F1
:10326000002BC3D002212C4807F0BEFF2C4808F0E9
:103270005BFA5921324807F0B7FF294808F054FAA1
:10328000B4E721481B4C1C4FFEF726FA1F49E66E97
:10329000D4F87090D4F874800AF076F80AF060FAE6
:1032A000A36F009331464B46424680B2FEF744FF7F
:1032B000E26DA36D386002FB00F003FB00F000EB51
:1032C000800040000AF00CF811490C4E0AF010F989
:1032D000002330602B60D8E607211A4807F084FFEE
:1032E00041E71021184807F07FFFD4F8803037E716
:1032F00058D4FF1F30D3FF1F0C88FF1F64D4FF1F5B
:103300002895FF1F4CD6FF1F2C95FF1F00007A4405
:10331000E4388E3E0000C842582C010020D3FF1F25
:10332000C489FF1FF81F0100942001009C200100A8
:1033300094D4FF1F2888FF1F602001006C2001002B
:10334000042001008C200100782001000088FF1F6C
:1033500030B5112083B006F0B7FB012818D0122039
:1033600006F0B2FB012813D000210B2006F0A6FBCB
:1033700000210C2006F0A2FB0021152006F09EFB88
:103380002649274B0120002208701A6003B030BD87
:103390000121152006F092FB224A234C234B126890
:1033A000D4F8981001921B68019A1D4D0B4493426A
:1033B0004FF00201296005D901210C2006F07EFBA7
:1033C00003B030BDD4F8A00009F08AFF184B19688B
:1033D0000AF078F90028EFD101210B2006F06EFBEE
:1033E00094F8C83003242C6043B10C4B02221A70AD
:1033F00000210C2006F062FB03B030BD122006F065
:1034000063FB012808BF054B4FF0110008BF1C707B
:1034100006F05AFB0128EBD1E7E700BF24D3FF1FDA
:103420002495FF1F4CD6FF1F30D3FF1F84D2FF1FF0
:1034300020D3FF1FF0B5684E684D34682B689C425E
:1034400087B039D014F0010155D014F0020149D0F1
:1034500014F004013DD0E3070ED52B68DF070BD431
:103460005F4F3A68002A00F082805E4B1B68019330
:10347000019B93426DD83468A0070DD52B6899073E
:103480000AD4594F3A68002A4CD0564B1B68039314
:10349000039B934238D8346862070DD52B685B07CD
:1034A0000BD4524F3A68002A7ED04E4B1B680593CE
:1034B000059B934268D834680CB107B0F0BD214633
:1034C000162006F07BF92146172006F077F907B0A1
:1034D000F0BD052006F072F92B68346803F0FB0399
:1034E0002B60B8E7172006F069F92B68346803F001
:1034F000FD032B60ACE7162006F060F92B683468FA
:1035000003F0FE032B60A0E7394B1720D3F89C1083
:1035100006F054F92B68346843F0020300222B6054
:103520003A60B9E7334808F0FFF80C21324807F059
:103530005BFE304808F0F8F8FF21172006F03EF94E
:10354000284B2E4A19680291029912680A443A607F
:103550009CE7274B1620D3F89C1006F02FF92B6818
:10356000346843F0010300222B603A6084E7FF21B6
:10357000162006F023F91B4B204A19680091009988
:1035800012680A443A6071E7194B0520D3F89C1081
:1035900006F014F92B68346843F0040300222B6012
:1035A0003A60002C89D18AE7124808F0BDF80C2156
:1035B000134807F019FE0F4808F0B6F8FF21052060
:1035C00006F0FCF8074B0D4A19680491049912683B
:1035D0000A443A606AE700BF2495FF1F88D4FF1FA2
:1035E0001CD4FF1F4CD6FF1F20D4FF1F10D4FF1F79
:1035F00030D3FF1FC489FF1FA02001001488FF1FC4
:10360000B02001002DE9F047534EDFF87081336898
:10361000DFF86C91D3F88400504D0F2105F062FC67
:103620000023012222214E48C8F80030C9F80020AA
:1036300007F0DAFDD8F80030132B20DC40F6E44721
:103640003368B5F888A0D3F88400436B1C6905F093
:10365000CBF9A4B2012107FB04F4B4FBF0F4414818
:103660005444A5F8884007F0BFFD642006F062FAD4
:10367000D8F800300133132BC8F80030E0DDB5F87E
:103680008830394A3948A2FB03129B1A02EB5303D4
:10369000C3F30F131946A5F8883008F099F81D21D7
:1036A000334807F0A1FD0221324807F09DFD2F4865
:1036B00008F03AF832680023D2F88400C8F80030E5
:1036C0000E2105F00FFC022322212548C9F8003005
:1036D00007F08AFDD8F80030132B20DC40F6E447D1
:1036E0003368B5F88A90D3F88400436B1C6905F001
:1036F0007BF9A4B2012107FB04F4B4FBF0F41948F0
:103700004C44A5F88A4007F06FFD642006F012FAD9
:10371000D8F800300133132BC8F80030E0DDB5F8DD
:103720008A30114A1148A2FB03129B1A02EB530381
:10373000C3F30F131946A5F88A3008F049F81D2184
:103740000D4807F051FD02210A4807F04DFD0748DA
:10375000BDE8F04707F0E8BF98D4FF1F30D3FF1F44
:10376000C02001000421010087611886C489FF1F61
:10377000E4200100582C0100082101009094FF1F53
:103780002888FF1FF8B5BD4BBD4CBE4F1B68786D38
:1037900040F2513108222160E271002B00F0698172
:1037A00009F09EFD396A054609F0EEFDB64909F0BB
:1037B000EBFD09F0D5FF80B203126372B34AB44B3C
:1037C00012681B68B9692072A37228461B12151271
:1037D000E3722273657309F0D7FDAB4909F0D4FD9C
:1037E00009F0BEFF83B21A12A549AA48A373E27377
:1037F00004F0CCFEA84BA94A1B681288A049A2720B
:10380000DDB2257205EB850603EB8305760045F3F3
:10381000D71540F2553E12121B1226736573082607
:1038200000259C48C4F800E0E2726372E671A5735B
:10383000E57304F0ABFE40F2563399482360E6711D
:10384000FDF794FF974909F09FFD09F089FF207269
:103850009348FDF78BFF934909F096FD09F080FF2F
:10386000914A9049C0F307231068637209F040FE43
:1038700009F050FF40FA06F203468948E272A3724B
:10388000FDF7A0FF804909F07FFD09F043FF207399
:103890008348FDF797FF7C4909F076FD09F03AFF70
:1038A0007749A57340F307237A486373E57304F0FF
:1038B0006DFE022006F03EF97C4A7D4B117850786F
:1038C000217291786072D2789878A172597893F8C1
:1038D00000E0E2726173DA78A07340F25A3368490B
:1038E0006C4884F80CE0E2732360E67104F04EFE4D
:1038F000704B63491A785878227260729A78D87837
:10390000A272E0721A79987993F805E02273A07395
:10391000DA79604884F80DE040F25E33E2732360A8
:10392000E67104F033FE022006F004F9624B5449BC
:103930001A785878227260729A78D878A272E072F7
:103940001A79987993F805E02273A073DA795148CF
:1039500084F80DE04FF45C73E2732360E67104F0C9
:1039600015FE022006F0E6F840F273334C4823605F
:10397000E671FDF7B1FE514909F006FD09F0F0FED0
:1039800020724748FDF7A8FE4C4909F0FDFC09F0FC
:10399000E7FEC0F3072342486372FDF7C3FE4749C1
:1039A00009F0F2FC09F0DCFEA0723D48FDF7BAFE1A
:1039B000424909F0E9FC09F0D3FEC0F30723384877
:1039C000E372FDF759FF3E4909F0D6FB09F0C8FE46
:1039D00020733348FDF750FF394909F0CDFB09F05A
:1039E000BFFEC0F307232E486373FDF743FF34493E
:1039F00009F0C2FB09F0B4FEA0732948FDF73AFFB5
:103A00002F4909F0B9FB09F0ABFE1D49C0F30723AC
:103A10002048E37304F0BAFD022006F08BF8B96D7C
:103A2000FB6D022211FB03F3C3F3072740F2793148
:103A300010462160E2712372677206F07BF840F253
:103A4000723317482360E671FDF792FE2072144826
:103A5000FDF78EFE40FA06F3A5726372E5722573D8
:103A60006573A573E57306490A48BDE8F84004F09C
:103A70008DBD09F035FC7969054695E67894FF1F00
:103A80009494FF1F30D3FF1F000020417CD4FF1F00
:103A9000A894FF1FA4D4FF1F0C88FF1F1288FF1FCC
:103AA0002C95FF1F0000C84220D3FF1F1CD3FF1F0F
:103AB0008094FF1F3888FF1F4088FF1F00007A4452
:103AC000339388432DE9F041874C884D82B007F04D
:103AD00025FB23682860042B00F0F982022B4BD0D1
:103AE000082B00F09280072B40F02481332801F04E
:103AF000C78500F37783312801F0AC85322840F088
:103B00008D8007F047FB002840F312817848794EFA
:103B100007F0A0FF09F0E4FB774909F035FC6123C9
:103B20000122F06322602B601846A0F152031F2B84
:103B300001F27485DFE813F05E0D720D720D720DE7
:103B4000720D720D720D720D720D720D720D720D7D
:103B5000720D720D720D9603D50E1005AC057A0428
:103B6000720D720D720D0A04720DD80E720D720D67
:103B7000720D720D720D600DA0F13102422A4DD806
:103B8000DFE812F06F087B088908960833084608BA
:103B9000530862084C004C004C004C004C004C0098
:103BA0004C004C004C004C004C004C004C004C00B5
:103BB0004C004C004C004C004C004C004C004C00A5
:103BC0004C004C004C004C004C004C004C004C0095
:103BD0004C004C004C004C004C004C004C004C0085
:103BE0004C004C004C004C002D084C004C004C008C
:103BF0004C004C004C004C004C004C004C004C0065
:103C00004C004C0036034C00A508322800F0F58229
:103C1000712800F0ED82312800F00583002B08BFE9
:103C200073280CBF01200020002859D0304807F02D
:103C30007BFD0421314807F0D7FA2D4807F074FDC9
:103C400010212F4807F0D0FA294807F06DFD132105
:103C50002C4807F0C9FA2C4B2548196807F0B8FD25
:103C6000234807F061FD1421284807F0BDFA2048D9
:103C700007F05AFD1E21264807F0B6FA1C4807F047
:103C800053FD1521234807F0AFFA194807F04CFD02
:103C90001E21214807F0A8FA154807F045FD20210C
:103CA0001E4807F0A1FA124807F03EFD19211C48F2
:103CB00007F09AFA0E4807F037FD1221194807F06D
:103CC00093FA0B4807F030FD0D21174807F08CFAE6
:103CD000074807F029FD154A0021012311602360E0
:103CE00002B0BDE8F08100BF9CD4FF1F70D2FF1F5F
:103CF000C489FF1F30D3FF1F6F12833AE82A0100E7
:103D0000F02A0100042B01002488FF1F182B01005A
:103D1000302B0100502B0100682B0100882B010083
:103D2000AC2B0100C82B0100DC2B01000088FF1F19
:103D300023682868062B40F08F80A0F13002412ACA
:103D40003FF66CAF01A151F822F000BF6D4A0000B0
:103D5000994A0000C54A0000F14A0000174B0000D4
:103D600077490000494A00000D4A00001D3C000050
:103D7000214A00001D3C00001D3C00001D3C0000CD
:103D80001D3C00001D3C00001D3C00001D3C0000CF
:103D90001D3C00001D3C00001D3C00001D3C0000BF
:103DA0001D3C00001D3C00001D3C00001D3C0000AF
:103DB0001D3C00001D3C00001D3C00001D3C00009F
:103DC0001D3C00001D3C00001D3C00001D3C00008F
:103DD0001D3C00001D3C00001D3C00001D3C00007F
:103DE0001D3C00001D3C00001D3C00001D3C00006F
:103DF0001D3C00001D3C00001D3C00001D3C00005F
:103E00001D3C00001D3C00001D3C00001D3C00004E
:103E10001D3C00001D3C00001D3C00001D3C00003E
:103E20001D3C00001D3C00001D3C00001D3C00002E
:103E30001D3C00001D3C00001D3C00001D3C00001E
:103E40001D3C00001D3C00001D3C00001D3C00000E
:103E5000F141000023682868052B40F08D80A0F117
:103E60003102402A3FF6DAAE01A151F822F000BF3C
:103E7000C347000037490000FB4800001B49000011
:103E8000B7480000E14800001D3C00001D3C000058
:103E90001D3C00001D3C00001D3C00001D3C0000BE
:103EA0001D3C00001D3C00001D3C00001D3C0000AE
:103EB0001D3C00001D3C00001D3C00001D3C00009E
:103EC0001D3C00001D3C00001D3C00001D3C00008E
:103ED0001D3C00001D3C00001D3C00001D3C00007E
:103EE0001D3C00001D3C00001D3C00001D3C00006E
:103EF0001D3C00001D3C00001D3C00001D3C00005E
:103F00001D3C00001D3C00001D3C00001D3C00004D
:103F10001D3C00001D3C00001D3C00001D3C00003D
:103F20001D3C00001D3C00001D3C00001D3C00002D
:103F30001D3C00001D3C00001D3C00001D3C00001D
:103F40001D3C00001D3C00001D3C00001D3C00000D
:103F50001D3C00001D3C00001D3C00001D3C0000FD
:103F60001D3C00001D3C00001D3C00001D3C0000ED
:103F70005749000023682868032B40F0A480A0F173
:103F80003002422A3FF64AAE01A151F822F000BFAA
:103F90009D400000575200007F520000A7520000D1
:103FA000C9520000EB520000135300004D530000B3
:103FB0004F540000735400001D3C00001D3C0000E5
:103FC0001D3C00001D3C00001D3C00001D3C00008D
:103FD0001D3C00001D3C00001D3C00001D3C00007D
:103FE0001D3C00001D3C00001D3C00001D3C00006D
:103FF0001D3C00001D3C00001D3C00001D3C00005D
:104000001D3C00001D3C00001D3C00001D3C00004C
:104010001D3C00001D3C00001D3C00001D3C00003C
:104020001D3C00001D3C00001D3C00001D3C00002C
:104030001D3C00001D3C00001D3C00001D3C00001C
:104040001D3C00001D3C00001D3C00001D3C00000C
:104050001D3C00009B540000674D00006B530000A6
:1040600089530000A7530000F95300001D4D0000C4
:10407000414D00001D3C0000B9540000ED5100000E
:104080001D3C00001D3C00001D3C00001D3C0000CC
:104090001D3C0000175200002352000007F07AF880
:1040A000002841F3BE82CF48CF4E07F0D3FC012752
:1040B000034601466222CD48B36527602A60FDF7BA
:1040C0005BFB23682868012B7FF4A8AD2DE5A0F1E8
:1040D0003102402A3FF6A2AD01A151F822F000BF03
:1040E0007F4B0000BD4B0000C14B0000834B000024
:1040F000874B0000A34B0000B94B0000554B00005C
:10410000594B00001D3C00001D3C00001D3C000000
:104110001D3C00001D3C00001D3C00001D3C00003B
:104120001D3C00001D3C00001D3C00001D3C00002B
:104130001D3C00001D3C00001D3C00001D3C00001B
:104140001D3C00001D3C00001D3C00001D3C00000B
:104150001D3C00001D3C00001D3C00001D3C0000FB
:104160001D3C00001D3C00001D3C00001D3C0000EB
:104170001D3C00001D3C00001D3C00001D3C0000DB
:104180001D3C00001D3C00001D3C00001D3C0000CB
:104190001D3C00001D3C00001D3C00001D3C0000BB
:1041A0001D3C00003D4B00001D3C00001D3C00007C
:1041B0001D3C00001D3C00001D3C00001D3C00009B
:1041C0001D3C00001D3C00001D3C00001D3C00008B
:1041D0001D3C00001D3C00001D3C00001D3C00007B
:1041E000F1410000342801F0238271287FF416ADDC
:1041F000002373202360286010E506F0CBFF002821
:1042000040F3B1837748784E07F024FC09F068F852
:10421000774909F0B9F807460246336D96F8401021
:104220007248776415E006F0B5FF002840F39F83DD
:104230006C486D4E07F00EFCC0B286F840000328B3
:1042400094BF01460021336D726C684888BF86F8C0
:104250004010FDF793FA012369202360286064E48D
:1042600006F05CFF06F096FF05460028F8D15D4891
:104270005D4E07F059FA5B4807F056FA594807F0C7
:1042800053FA584807F050FA564807F04DFA1F21E4
:10429000584806F0A9FF534807F046FA1C21564833
:1042A00006F0A2FF706A554909F06EF808F0C2FBEB
:1042B000009502460B464B4807F092FA02215048FF
:1042C00006F092FF474807F02FFA23214D4806F0E9
:1042D0008BFFF06B494909F057F808F0ABFB0095EC
:1042E00002460B463F4807F07BFA0221444806F09D
:1042F0007BFF3C4807F018FA1921434806F074FF89
:10430000B06B08F097FB02250B4602460095354836
:1043100007F066FA29463D4806F066FF314807F087
:1043200003FA22213A4806F05FFFB6F8CA102D487A
:1043300007F04EFA0321374806F056FF294807F0E8
:10434000F3F907232360CBE406F0E8FE06F022FF32
:1043500005460028F8D12348234E07F0E5F9214807
:1043600007F0E2F91F4807F0DFF91E4807F0DCF913
:104370001C4807F0D9F91521274806F035FF1948E0
:1043800007F0D2F91821254806F02EFF2B460A2205
:1043900096F84010134807F0DBF9124807F0C4F90B
:1043A00028211F4806F020FF706C144908F0ECFF2C
:1043B00008F040FB00950B4602460A4807F010FA49
:1043C00002210F4806F010FF064807F0ADF913214F
:1043D000144806F009FF034807F0A6F908232360F4
:1043E0007EE400BFC489FF1F30D3FF1F2C95FF1F41
:1043F0006F12833A742301009423010000007A4471
:10440000A0210100B4230100D823010050230100A2
:10441000F423010018240100B02B010058210100F1
:1044200074210100A421010006F078FE06F0B2FE1E
:1044300005460028F8D18148814E07F075F97F487C
:1044400007F072F97D4807F06FF97C4807F06CF9C6
:104450007A4807F069F911217A4806F0C5FE7748D5
:1044600007F062F92821784806F0BEFE70697749A6
:1044700008F08AFF08F0DEFA009502460B466F4806
:1044800007F0AEF90221724806F0AEFE6B4807F065
:104490004BF916216F4806F0A7FEF0696B4908F04A
:1044A00073FF08F0C7FA00950B460246634807F011
:1044B00097F90221664806F097FE604807F034F944
:1044C000D6F8B830002B32DD1D21634806F08CFE93
:1044D000306E08F005FF614908F056FF08F0AAFAAF
:1044E000022502460B460095544807F079F9012150
:1044F0005B4806F079FE514807F016F91F2159482C
:1045000006F072FE706E08F0EBFE544908F03CFFB6
:1045100008F090FA009502460B46484807F060F90B
:1045200001214F4806F060FE444807F0FDF81121D4
:104530004D4806F059FED6F8B830072B00F2D18767
:10454000DFE813F04E085308490844083F083A08CA
:104550003508CB0706F0E2FD06F01CFE0028F9D175
:104560003648374E07F0E0F8344807F0DDF83348B6
:1045700007F0DAF8314807F0D7F8304807F0D4F8F8
:104580001F213A4806F030FE2C4807F0CDF81E21D6
:10459000374806F029FE294807F0C6F81A213548A1
:1045A00006F022FED6F88030022B01F04181032B69
:1045B00001F03581012B01F0298109212E4806F0F7
:1045C00013FE1E4807F0B0F814212C48DFF8708065
:1045D00006F00AFEF16F194807F0FAF8174807F0DD
:1045E000A3F81C21264806F0FFFDD6F884101348D6
:1045F00007F0EEF8114807F097F81C21214806F063
:10460000F3FDD6F8B4100D4807F0E2F80B4807F0B8
:104610008BF8D6F8805025F00207012F01F0868034
:10462000022D01F024811321174806F0DDFD034817
:1046300007F07AF802232360FFF752BBC489FF1FFB
:1046400030D3FF1F542B0100B821010000007A4431
:10465000A0210100E4210100FC210100CDCCCC3DD2
:104660004C2701001C2201003C2201000C26010005
:104670002C2601004C260100C4260100D026010092
:10468000E826010008270100A421010006F046FDEC
:1046900006F080FD0028F9D1BE4807F045F8BD4876
:1046A00007F042F8BB4807F03FF8BA4807F03CF87B
:1046B000B84807F039F81321B74806F095FDB5481A
:1046C00007F032F80D21B54806F08EFDB14807F02D
:1046D0002BF80F21B24806F087FDB24BAD481968A0
:1046E00007F076F8AB4807F01FF81321AE4806F044
:1046F0007BFDAE4BA748196807F06AF8A54807F09C
:1047000013F81221AA4806F06FFDAA4BA1481968B8
:1047100007F05EF89F4807F007F81121A64806F059
:1047200063FDA64B9B48196807F052F8994806F0BC
:10473000FBFF0E21A24806F057FDA24B9548D3F887
:10474000A81007F045F8934806F0EEFF19219E489F
:1047500006F04AFD9D4B8F48196807F039F88D48DF
:1047600006F0E2FF11219A4806F03EFD994B894878
:10477000196807F02DF8874806F0D6FF10219648F3
:1047800006F032FD954B8348196807F021F88148FF
:1047900006F0CAFF1C21924806F026FD914B7D4889
:1047A000196807F015F87B4806F0BEFF13218E4804
:1047B00006F01AFD774806F0B7FF04232360FFF7E1
:1047C0008FBA06F0E7FC00287FF7D4AB71487D4E26
:1047D00007F040F901226B23C6F8980022602B6095
:1047E00001E006F09BFC06F0D5FC0028F9D16948F1
:1047F000744D06F099FF674806F096FF654806F08D
:1048000093FF644806F090FF624806F08DFF212177
:10481000764806F0E9FC5F4806F086FF15217448EB
:1048200006F0E2FCD6F898105A4806F0D1FF0221B3
:10483000704806F0D9FC574806F076FF1E216E48F6
:1048400006F0D2FCD6F8A010524806F0C1FF0321B2
:104850006A4806F0C9FC4F4806F066FF1E2168480A
:1048600006F0C2FCD6F89C104A4806F0B1FF494851
:1048700006F05AFF1D21634806F0B6FCD6F8AC10CE
:10488000444806F0A5FF434806F04EFF1E215E484F
:1048900006F0AAFCD6F8B0103E4806F099FF3D4855
:1048A00006F042FFD6F8A830012B00F0F58705236B
:1048B0002360FFF715BA06F06DFC00287FF75AABAE
:1048C0003448404E07F0C6F8424BC6F8B000032209
:1048D0001A60FDF7D7FD01226B2322602B6082E76F
:1048E000384E96F8C930B3FA83F35B0901216B2285
:1048F00086F8C93021602A6075E706F04BFC002875
:104900007FF738AB23482F4E07F0A4F801226B2322
:10491000C6F89C0022602B6065E706F03BFC00288F
:104920007FF728AB1B48274E07F094F8294BC6F8B1
:10493000AC000222CCE706F02DFC00287FF71AAB72
:104940001448204E07F086F801226B23C6F8A00019
:1049500022602B6047E71F4A002373201360236007
:104960002860FFF75BB923682868FFF7BCB8154ECD
:1049700096F8400063E4134AD2F8B8300133072BAD
:10498000C8BF0023C2F8B830012365202360286027
:10499000FFF7CBB8C489FF1F282501003C25010083
:1049A0004C25010090D4FF1F5C250100B094FF1F2F
:1049B000702501005CD4FF1F8425010028D3FF1F50
:1049C0009825010030D3FF1FA82501008894FF1F00
:1049D000C4250100AC94FF1FD82501007C94FF1F63
:1049E000EC2501002088FF1FA42101001C240100E8
:1049F00040240100E422010058240100E41F0100CA
:104A00007824010098240100B8240100B54B93F8E4
:104A1000C820002A00F04786002283F8C820B3E7A8
:104A200006F0B8FB00287FF715AAAF48AD4E07F097
:104A300011F808F055FCF76A3063394608F042FE79
:104A40000028A1D037639FE706F0A4FB00287FF77A
:104A500001AAA548A34E06F0FDFF65230122C6F872
:104A6000BC0022602B601846FFF75FB806F092FB8F
:104A700000287FF7EFA99C4806F0ECFF994A00EB6D
:104A800080004300116E1BB28B42A2F8D0307FF73A
:104A90007BAFA2F8D01077E706F07CFB00287FF709
:104AA000D9A991488F4E06F0D5FF08F019FC8F491F
:104AB00008F01EFD65230122706122602B601846FC
:104AC000FFF733B806F066FB00287FF7C3A98648D6
:104AD000844E06F0BFFF08F003FC844908F008FD8F
:104AE00065230122F06122602B601846FFF71DB894
:104AF00006F050FB00287FF7ADA97B48794E06F001
:104B0000A9FF00EB8000430001226520336622608C
:104B10002860FFF70AB806F03DFB00287FF79AA946
:104B20007148704E06F096FF00EB800043000122B2
:104B30006520736622602860FEF7F7BF6C4A136831
:104B4000B3FA83F35B0901216420136021602860BC
:104B5000FEF7EBBF674AF2E70123236006F01AFB7A
:104B6000002800F3A585644B1A68042AC4BF0222FA
:104B70001A6064232B6023686420FEF7B1BF5F4A8C
:104B8000DDE75F4ADBE7574ED6F8A830B3FA83F388
:104B90005B0901226420C6F8A83022602860FEF775
:104BA000C4BF012357482360FCF740FB564A2368E3
:104BB000106064222A60DFE7544AC0E7544ABEE727
:104BC000544A554F1368002B0CBF012300234FF0AC
:104BD00001001360206040F034860346E9E7FEF7E9
:104BE00011FD23682868FEF77BBF0123236006F0D0
:104BF000D1FA002807DD3C483A4E06F02BFF08F0BA
:104C00006FFBC6F89000632028602368FEF76BBF37
:104C10000123236006F0BEFA0028F4DD3248314E4D
:104C200006F018FFA6F8C200EDE72E4AD2F8D430FD
:104C30000133042BC8BF0123C2F8D4300123632001
:104C400023602860FEF771BF0123236006F0A2FAFB
:104C50000028F3DD2448234E06F0FCFEC6F88C0045
:104C6000ECE7204EF36FB3FA83F35B090122632074
:104C7000F36722602860FEF758BF1A4ED6F88430DA
:104C8000B3FA83F35B0901226320C6F88430226003
:104C90002860FEF74ABF0123236006F07BFA002854
:104CA000CCDD11480F4E06F0D5FEC6F8B400C5E7BE
:104CB0000123236006F06EFA0028A4DD0A48094E9D
:104CC00006F0C8FE08F00CFBC6F894009BE7054A06
:104CD000D2F880300133032BC8BF0023C2F88030E4
:104CE000ACE700BF30D3FF1FC489FF1F00007A4428
:104CF00078D4FF1F7C94FF1F2088FF1F90D4FF1FD4
:104D000028D3FF1F2C95FF1F8894FF1FAC94FF1F13
:104D1000B094FF1F5CD4FF1F9CD4FF1F06F03AFA2B
:104D200000280DDD1748184E06F094FE08F0D8FA5A
:104D3000164908F0DDFB01226223306222602B60FD
:104D400006F028FA00280EDD0E480F4E06F082FE0F
:104D500008F0C6FA0D4908F0CBFB01226223C6F821
:104D6000C40022602B6006F015FA002840F3598435
:104D70000448054E06F06EFE01226223F0662260B2
:104D80002B6007E0C489FF1F30D3FF1F00007A4467
:104D900006F0C4F906F0FEF905460028F8D1C2482D
:104DA00006F0C2FCC04806F0BFFCBF4806F0BCFCE1
:104DB000BD4806F0B9FCBC4806F0B6FC1521BB485E
:104DC00006F012FAB84806F0AFFC1421B84806F015
:104DD0000BFAB54806F0A8FC1B21B64806F004FA09
:104DE000B14806F0A1FC1321B34806F0FDF9AE4826
:104DF00006F09AFCAC4806F097FCAB4806F094FC31
:104E00002021AE4806F0F0F9F068AD4908F0BCFA90
:104E100007F010FE009502460B46A34806F0E0FCA2
:104E20000221A84806F0E0F90221A74806F0DCF9C3
:104E30009D4806F079FC2121A44806F0D5F9306997
:104E40009F4908F0A1FA07F0F5FD009502460B46D0
:104E5000954806F0C5FC02219A4806F0C5F90221E2
:104E6000994806F0C1F9904806F05EFC1F21984869
:104E700006F0BAF9B06A07F0DDFD022702460B46DC
:104E80000097894806F0ACFC0121924806F0ACF985
:104E900039468D4806F0A8F9834806F045FC2021E4
:104EA0008D4806F0A1F9F06A07F0C4FD00970246AC
:104EB0000B467D4806F094FC0121864806F094F9E3
:104EC0003946814806F090F9774806F02DFC2321F9
:104ED000824806F089F9B06C794908F055FA07F074
:104EE000A9FD009502460B466F4806F079FC39464D
:104EF000744806F079F93946734806F075F96A483E
:104F000006F012FC1F21764806F06EF9F06C6C4931
:104F100008F03AFA07F08EFD009502460B4662480B
:104F200006F05EFC3946674806F05EF93946664889
:104F300006F05AF95C4806F0F7FB1921694806F0BB
:104F400053F9F16D584806F043FC3946664806F0BF
:104F50004BF939465C4806F047F9534806F0E4FB44
:104F60001821624806F040F9B06E08F0B9F96049BE
:104F700008F00AFA07F05EFD009702460B464A4821
:104F800006F02EFC01215B4806F02EF939464E480A
:104F900006F02AF9444806F0C7FB2B21564806F0D4
:104FA00023F9B069464908F0EFF907F043FD009591
:104FB00002460B463C4806F013FC3946414806F0D1
:104FC00013F93946404806F00FF9374806F0ACFBB4
:104FD0001F214A4806F008F9B16D334806F0F8FB86
:104FE0003946394806F000F92F4806F09DFB20218C
:104FF000434806F0F9F8716D2B4806F0E9FB394695
:10500000314806F0F1F8284806F08EFB10213D48A3
:1050100006F0EAF8F16E244806F0DAFB3946294832
:1050200006F0E2F83946284806F0DEF81E4806F099
:105030007BFB1321344806F0D7F8316F1A4806F08D
:10504000C7FB0121314806F0CFF839461E4806F06B
:10505000CBF8154806F068FB10212D4806F0C4F87F
:10506000716F114806F0B4FB3946164806F0BCF8DB
:105070003946154806F0B8F80B4806F055FB1421E0
:10508000244806F0B1F8B16F074806F0A1FB0121F2
:105090001E4806F0A9F839460B4806F0A5F8024864
:1050A00006F042FB162137E0C489FF1F30280100BB
:1050B0004828010060280100A42101007C2801008B
:1050C00000007A44A0210100582C0100A028010012
:1050D000C4280100E4280100E82801000C2901008F
:1050E00030290100502901006C29010070290100BC
:1050F000CDCCCC3D4C2701008C290100B829010002
:10510000D8290100FC290100102A0100242A0100ED
:10511000282A01003C2A0100AA4806F065F8306AF6
:10512000A94908F031F907F085FC009502460B46C5
:10513000A64806F055FB3946A54806F055F839460D
:10514000A44806F051F8A14806F0EEFA2421A2483E
:1051500006F04AF8D6F8C4009B4908F015F907F0A4
:1051600069FC009502460B46984806F039FB394623
:10517000974806F039F83946964806F035F89348CE
:1051800006F0D2FA2B21954806F02EF8706B07F046
:1051900051FC009702460B468C4806F021FB01218A
:1051A0008F4806F021F839468A4806F01DF88748EE
:1051B00006F0BAFA27218B4806F016F8D6F8CC008C
:1051C000814908F0E1F807F035FC00950B460246EE
:1051D0007E4806F005FB39467D4806F005F87B4819
:1051E00006F0A2FA03232360FEF77ABD05F0D2FF92
:1051F000002840F3168275487B4E06F02BFC08F021
:105200006FF8714908F074F901226223C6F8CC00E6
:1052100022602B60BEE50022732322602B60FEF724
:1052200005BD724B6B48704E022101271F6005F0CF
:10523000DBFF664806F078FA0B216D4805F0D4FFD5
:105240000221644805F0D0FF604806F06DFA622341
:1052500027602B609EE505F09DFF002840F3E1816B
:105260005A48614E06F0F6FB08F03AF8564908F045
:105270003FF901226223F06022602B608AE505F08D
:1052800089FF002840F3CD815048574E06F0E2FBDD
:1052900008F026F84C4908F02BF90122622330610E
:1052A00022602B6076E505F075FF002840F3B98198
:1052B00046484D4E06F0CEFB08F012F8012262235C
:1052C000B06222602B6065E505F064FF002840F3C2
:1052D000A8813E48444E06F0BDFB08F001F80122CB
:1052E0006223F06222602B6054E505F053FF002832
:1052F00040F3978135483C4E06F0ACFB07F0F0FFD9
:10530000314908F0F5F801226223B06422602B6075
:1053100040E505F03FFF002840F383812B48324EE3
:1053200006F098FB07F0DCFF274908F0E1F80122BE
:10533000034601462F48F3642260FBF7FBFD236818
:105340006222012B2A607EF4CBAC23E505F022FF1C
:10535000002840F366811D48234E06F07BFB0122A6
:105360006223F06522602B6014E505F013FF00282E
:1053700040F3578115481C4E06F06CFB0122622356
:10538000306722602B6005E505F004FF002840F33C
:1053900048810E48144E06F05DFB012262237067BF
:1053A00022602B60F6E405F0F5FE002840F3398119
:1053B00006480D4E06F04EFB01226223B0672260C4
:1053C0002B60E7E4542A010000007A44C489FF1FDF
:1053D000A0210100582C01006C2A0100942A010030
:1053E000E4280100C02A010030D3FF1F58D4FF1F5A
:1053F0004C2101002C95FF1FFCF7F4FE0221B04860
:10540000B04E05F0F1FEB04806F08EF90221AC482E
:1054100005F0EAFEAC4806F087F90221A84805F03D
:10542000E3FEA94806F080F91721A84805F0DCFE44
:10543000A54806F079F90221A14805F0D5FEA24859
:1054400006F072F90122622322602B60A2E405F0CB
:10545000A1FE002840F3E5809B489A4E06F0FAFA38
:1054600000EB8000430001216222B36621602A60C4
:1054700090E405F08FFE002840F3D3809248914ECF
:1054800006F0E8FA07F02CFF914908F031F8012204
:105490006223B06122602B607CE405F07BFE002873
:1054A00040F3BF808848874E06F0D4FA0122622379
:1054B000706522602B606DE405F06CFE002840F3FF
:1054C000B08081487F4E06F0C5FA07F009FF01223F
:1054D0006223706322602B605CE410217D4805F03C
:1054E00083FE7948774D06F01FF9D6F8B830002BC7
:1054F00012DD1821784805F077FED5F8BC10724807
:1055000006F066F90221754805F06EFE6E4806F059
:105510000BF96D4806F008F91B21714805F064FE8F
:1055200096F8C830012B15BF122114216D486E4822
:1055300005F05AFE644806F0F7F81F216B4805F0A5
:1055400053FE306B07F076FA022502460B460095B3
:105550005D4806F045F92946654805F045FE5A487C
:1055600006F0E2F81E21634805F03EFEB6F9D000D1
:1055700007F0B6FE604907F007FF07F05BFA0095F9
:105580000B460246504806F02BF901215B4805F016
:105590002BFE4D4806F0C8F81321594805F024FEAB
:1055A000494806F0C1F806232360FEF799BB0421A1
:1055B000544805F019FE94E70B21534805F014FEFA
:1055C0008FE70D21514805F00FFE8AE70D21504865
:1055D00005F00AFE85E70C214E4805F005FE80E740
:1055E0000D214D4805F000FE7BE70C214B4805F0EE
:1055F000FBFD76E705F0B6F8D8220021314803F02C
:1056000005FF2868464AA0F1730001210023B0FA83
:1056100080F0400911602360FEF706BB2368FEF7A7
:10562000FDBA23682868012B7EF4F8AAFEF77DBA3C
:1056300005F0B0FD00287EF77BAB2348214E06F035
:1056400009FA61230122A6F8CA0022602B601846DD
:10565000FEF76BBA05F09EFD00287EF769AB1A488D
:10566000184E06F0F7F907F03BFE2E4907F08CFEC6
:1056700061230122706222602B601846FEF755BA42
:1056800005F088FD00287EF753AB0F480D4E06F05D
:10569000E1F907F025FE61230122B06322602B604F
:1056A0001846FEF742BA012283F8C820FFF76CB90A
:1056B000054806F0CFF91C4B02461860FFF755BAB3
:1056C000582C010030D3FF1FC489FF1F3421010073
:1056D00000007A44B4220100C8220100E422010043
:1056E000E8220100042301001823010030230100F7
:1056F0005023010054230100CDCCCC3D4C270100A8
:10570000A4210100AC220100A0220100902201008E
:10571000802201007022010050220100602201005D
:105720000088FF1F6F12833A2088FF1F1C217048DA
:1057300005F05AFD6F49D8F8940007F025FE07F0F0
:1057400079F9009702460B466B4806F049F80521A7
:105750006A4805F049FD684805F0E6FFD8F8805032
:10576000012D19D11D21664805F03EFD6149D8F88B
:10577000900007F009FE07F05DF9009502460B4620
:105780005D4806F02DF805215C4805F02DFD5A48CE
:1057900005F0CAFFD8F8805025F00203012B7EF4F3
:1057A0003FAF1C215748584F05F01EFDB6F8C210F8
:1057B000514806F00DF80321544805F015FD4E48F8
:1057C00005F0B2FFD6F88050012D7EF429AF1F21DD
:1057D0004F4805F009FDD7F88C0007F081FD4D49D1
:1057E00007F0D2FD07F026F9022502460B46009588
:1057F000414805F0F5FF2946474805F0F5FC3E48CD
:1058000005F092FFD7F88050FEF70ABF1E214348EB
:1058100005F0EAFC384805F087FFFEF7D5BE2021E9
:105820003F4805F0E1FC344805F07EFFFEF7CCBEB2
:1058300017213C4805F0D8FC2F4805F075FFFEF70E
:10584000C3BE394B002631460B201E6004F036F9EA
:1058500031460C2004F032F93146142004F02EF9C0
:105860003146152004F02AF93B68FFF7A2B9172149
:105870002E4805F0B9FCD6F8D430012B25D0022BE8
:105880001DD0032B27D0042B7EF4CDAE28491A4817
:10589000FCF796FCFEF7C7BE2021264805F0A4FCC5
:1058A00095F8C9302BB924491348FCF789FCFEF759
:1058B000FEBF22491048FCF783FCFEF7F8BF2049E1
:1058C0000D48FCF77DFCFEF7AEBE1E490A48FCF70A
:1058D00077FCFEF7A8BE1C490748FCF771FCFEF7F1
:1058E000A2BE094EFFF756BA074EFEF77CBF00BFB7
:1058F00028270100CDCCCC3DC489FF1F48270100DB
:10590000502701007027010030D3FF1F90270100AE
:10591000942701006F12833AB42701006826010022
:1059200088260100AC2601002495FF1FB82701003E
:1059300014280100D8240100FC24010008250100DE
:10594000E8270100D02701000028010010B5124C03
:10595000124A2368101D12F8011F904241EA0323E6
:10596000F9D10F4A236003F1004313600D4BD3F8C4
:105970008030022B08D00C4B1B68012B00D010BDCF
:10598000BDE81040FCF706BC1068084C07F0A8FC06
:105990002060FDF761F8EEE780D4FF1F7BD2FF1F88
:1059A0001C95FF1F30D3FF1F90D4FF1F74D4FF1F1F
:1059B00070B51E4A1E4C507A937A2168D27A1D4ED9
:1059C0001D4D43EA002342EA0323012933602B6083
:1059D00019D01846194BD3F88030A0F50000022BDF
:1059E00028601BD02368012B00D070BD144805F03F
:1059F0009BFE2968124805F0EBFE03211148BDE823
:105A0000704005F0F1BB0E4805F08EFE0023102219
:105A100029680B4805F09CFE2868DBE707F060FC6E
:105A2000094B1860FDF718F8DCE700BF74D2FF1FC0
:105A300090D4FF1F80D4FF1F1C95FF1F30D3FF1F82
:105A4000C489FF1F541E010074D4FF1F08B5134BF7
:105A5000187BDB7AFF2813D040B243EA0020104BBA
:105A6000104AD3F8803000EB800000EB800080000B
:105A7000022B10600BD00C4B1B68012B03D008BD10
:105A8000FF2BE9D1FBE7BDE80840FCF783BB07F03B
:105A900027FC064B1860FCF7DFFFECE774D2FF1F12
:105AA00030D3FF1F1C95FF1F90D4FF1F74D4FF1F1E
:105AB000F0B5844D844C854883B0294602F064FCDF
:105AC000D4F88030022B33D02B68814CB3F5407F63
:105AD00008D222687B497F48012A18BF0022FBF7C1
