:1000000000800020BD0100007979000031790000F6
:100010003179000031790000317900003179000038
:1000200031790000317900003179000079790000E0
:10003000797900003179000061970000659800002F
:1000400079790000797900007979000079790000E8
:1000500079790000797900007979000079790000D8
:1000600079790000797900007979000079790000C8
:1000700079790000797900007979000079790000B8
:1000800079790000797900007979000079790000A8
:100090007979000079790000797900007979000098
:1000A0007979000079790000797900007979000088
:1000B000797900004D6D0000596D00005D6D000004
:1000C000696D00006D6D0000716D000079790000B0
:1000D0007979000079790000797900007979000058
:1000E0007979000079790000797900007979000048
:1000F000797900006D9F0000797900001586000075
:1001000079790000E18700007979000079790000B1
:100110007979000079790000797900007979000017
:100120007979000079790000797900007979000007
:1001300079790000797900007979000079790000F7
:1001400079790000797900007979000079790000E7
:1001500079790000797900007979000079790000D7
:10016000797900002D8A0000797900007979000002
:1001700079790000797900007979000079790000B7
:1001800079790000797900007979000079790000A7
:100190007979000079790000797900007979000097
:1001A0007979000079790000797900007979000087
:1001B000797900007979000079790000564B4CF28A
:1001C000205210B51A804DF628121A8000BF00BFC9
:1001D00007F0D6FB514B4FF010621A60504A9A60FC
:1001E000504ADA60504A136813F4807304D14F49BF
:1001F0000B604FF4A85313604D4B1A78110703D5C9
:100200001A7842F008021A704A4B4B492A221A7097
:100210004A4A4B4B8B4204D252F8040F43F8040B6A
:10022000F8E7484B484900228B4202D243F8042B9E
:10023000FAE74649464A002352F8230041F82300D2
:1002400001336F2BF8D1434B434A802103F8011B44
:100250009342FBD1414B3D4A1A60414B8A221A70AE
:10026000A3F5805324225A70A0221A709A7992071B
:10027000FCD59A79D406FCD43A4A937903F00C035E
:10028000082B384BF9D103221A7140225A719A79FE
:100290009006FCD5334A9179324B4906FBD5324A58
:1002A000324911600221516020221A709A7902F0BD
:1002B0000C020C2AFAD12E4B2E4A1A602E4B2F4AD2
:1002C0001A6000225A60072243F8042C2C4AC3F813
:1002D0000C2D62B607F00AFE144B1B68DA0705D531
:1002E000284807F0E7FB284B284A1A60284B1B7860
:1002F0005B0609D5244C254B22689A4204D121483B
:1003000007F0D8FB002323600BF018F907F03EFB41
:1003100009F0ECFCFEE700BF0E20054030800440F1
:10032000823F04000100002B10D0034014D0034092
:1003300002D0074000E007403892FF1F1410010070
:100340002087FF1F3892FF1F00CFFF1F0082FF1F73
:100350000000000000E400E05FE400E008ED00E0E1
:100360000050064000400640448004400000030165
:1003700004800440C010050014E000E0FF76010096
:1003800000002020140D675C1CE00340A5C3945AB4
:1003900000F00740FFFFFFFFFFFFFFFFFFFFFFFF32
:1003A000FFFFFFFFFFFFFFFFFFFFFFFFFFFFFFFF5D
:1003B000FFFFFFFFFFFFFFFFFFFFFFFFFFFFFFFF4D
:1003C000FFFFFFFFFFFFFFFFFFFFFFFFFFFFFFFF3D
:1003D000FFFFFFFFFFFFFFFFFFFFFFFFFFFFFFFF2D
:1003E000FFFFFFFFFFFFFFFFFFFFFFFFFFFFFFFF1D
:1003F000FFFFFFFFFFFFFFFFFFFFFFFFFFFFFFFF0D
:10040000FFFFFFFFFFFFFFFFFFFFFFFFDEF9FFFF23
:1004100010B5054C237833B9044B13B10448AFF33E
:1004200000800123237010BD3892FF1F00000000E0
:1004300010100100084B10B51BB108490848AFF374
:1004400000800848036803B910BD074B002BFBD0A0
:10045000BDE81040184700BF000000003C92FF1F9D
:10046000101001003892FF1F00000000F0B400F1EE
:100470002C06144F00243146031F00F15C0243F8A0
:10048000044FB34241F8047F4FF0000542F8044F97
:10049000F5D10D4A0D49C0F890500023C0F8945092
:1004A000C0F89850C0F89C50C0F8AC50C0F8A020DC
:1004B000C0F8A820C0F8A41080F8B43080F8CC3080
:1004C000F0BC70470000A040000048430000C8C2D4
:1004D00038B50446087A0D460AF0CAFD4FF07C5143
:1004E0000AF01AFE06490AF00DFD00220023C4F8A6
:1004F00094002A73C4F898306A73C4F89C3038BDED
:1005000000002C4290F8BC00704700BF90F8B80083
:10051000704700BF90F8C000704700BF90F8C4005B
:10052000704700BF0C2994BF50F82100002070478D
:100530002DE9F0410B4E8046041F00F12C0754F8C2
:10054000045F314628460AF085FF30B1D8F8B01074
:1005500028460AF09DFF00B12E46BC42EFD130463E
:10056000BDE8F081000020412DE9F041D0F8B070E5
:100570004FF00008041F00F12C0654F8045F3946C0
:1005800028460AF085FF084948B128460AF062FF6C
:10059000414620B128460AF07BFF00B1A846B4428C
:1005A000EBD14046BDE8F0810000A0402DE9F047C6
:1005B000D0F8B07082464FF00009041F00F12C06FD
:1005C0004FF0000854F8045F394628460AF060FFEF
:1005D0000C4950B128460AF03DFF30B14846294643
:1005E0000AF092FC08F101088146B442EAD1CAF847
:1005F000D08040460AF03CFD014648460AF040FEE5
:10060000BDE8F0870000A040D0F8D000704700BFE0
:1006100038B5D0F89840D0F89450214628460AF0D2
:1006200019FF00B92C46204638BD00BFD0F8C830AD
:100630002DE9F041002B7CD1D0F89860D0F894508F
:100640000446314628460AF05FFCD4F89C703946CF
:1006500080460AF059FC7F490AF012FE4FF07C51A7
:1006600004460AF015FF002861D04FF07C5128465F
:100670000AF00EFF4FF07C51002861D128460AF0A5
:10068000E9FE38B14FF07C5130460AF001FF0028F6
:1006900040F0A8804FF07C5128460AF0F9FE00286F
:1006A00061D14FF07C5128460AF0F2FE002840F05C
:1006B000A2804FF07C5128460AF0EAFE00286DD156
:1006C0004FF07C5128460AF0C5FE4FF07C5110B324
:1006D00030460AF0DDFE38B14FF07C5138460AF062
:1006E000B9FE002840F0B1804FF07C5130460AF04E
:1006F000B1FE002862D04FF07C5138460AF0C8FEA7
:10070000002840F0A48038464FF07C510AF0A2FE49
:1007100068B1514C11E028460AF09CFE0028E3D154
:1007200028464FF07C510AF095FE002846D1BDE8DE
:10073000F08100EB8300D0F890402046BDE8F081C6
:1007400030460AF0A5FE4FF07C5100283ED03846D6
:100750000AF09EFE0028F0D14FF07C5128460AF0A6
:1007600079FE002859D14FF07C5130460AF072FED4
:10077000002840D04FF07C5138460AF089FE00280E
:1007800041D14FF07C5130460AF082FE68B14FF003
:100790007C5138460AF05EFE00284FD14FF07C5164
:1007A00030460AF057FE00288AD04FF07C51384678
:1007B0000AF050FE002883D02C46BEE730464FF0AA
:1007C0007C510AF047FE0028B1D09CE728460AF089
:1007D00041FE0028C7D04FF07C5130460AF058FE49
:1007E0000028C0D04FF07C5138460AF051FE002856
:1007F0003FF450AF18E04FF07C5130460AF048FE0D
:100800000028CBD0C3E7394628460AF07DFB4FF0DD
:100810007C510AF081FC04468FE74FF07C5138464A
:100820000AF036FE00289ED0394630460AF06CFBAE
:100830004FF07C510AF070FC04467EE740464FF0D2
:100840007C510AF069FC044677E7344675E73C467C
:1008500073E700BF000040400000A0C270B504462E
:10086000FFF7E4FE4FF07C510AF012FE40B3D4F8DB
:1008700094604FF07C5130460AF00AFED4F898504C
:10088000F8B9D4F89C404FF07C5128460AF000FE9D
:1008900058B1294630460AF0FBFD30B121462846C2
:1008A0000AF0D8FD08B12C4621E04FF07C512046DB
:1008B0000AF0EEFD20B1284621460AF0E9FD80B994
:1008C00070BD304629460AF0C5FDD4F89C4000288A
:1008D000D9D0304621460AF0BDFD0028D3D0344699
:1008E00005E0304621460AF0D3FD0028E8D0204636
:1008F00070BD00BF01292DE9F8438146154600F07F
:10090000CC80022900F08C80002945D0046848463C
:10091000FFF7A4FFD9F8A01005460AF09BFD08B127
:10092000C9F8A050D9F89460D9F8985031462846B3
:100930000AF0AEFD00286BD13146D9F8A4000AF0C8
:1009400089FD10B13546C9F8A45009F13006C846F2
:1009500009F160050C2701E058F8044F3068214682
:100960000AF096FD214628B1D9F8B0000AF07CFDC6
:1009700000B13460214628680AF06CFD04366549F0
:1009800020B120460AF084FD00B12C60013F05F142
:100990000405E1D1BDE8F883937A507A1B0103EB9B
:1009A000101000F57A700AF063FB5B490AF0B4FBA3
:1009B000C9F800002B7B0446687B1B1103EB001079
:1009C00000F57A700AF054FB53490AF0A5FBC9F808
:1009D00008002B7BE87A1B0203F47063184400F5CF
:1009E0007A700AF045FB4C490AF096FBC9F80400FE
:1009F000EB7BA87B1B0203F47063184400F57A704C
:100A00000AF036FB44490AF087FBC9F80C007EE780
:100A1000D9F8A41028460AF03BFD002895D092E7AB
:100A2000937A507A1B0103EB101000F57A700AF0EC
:100A30001FFB39490AF070FBC9F820002B7B687B4B
:100A40001B1103EB001000F57A700AF011FB32491C
:100A50000AF062FBC9F828002B7BE87A1B0203F43A
:100A60007063184400F57A700AF002FB2A490AF014
:100A700053FBC9F82400EB7BA87B1B0203F47063D3
:100A8000184400F57A700AF0F3FA23490AF044FB9F
:100A9000D9F80040C9F82C0039E7937A507A1B0145
:100AA00003EB101000F57A700AF0E2FA1A490AF026
:100AB00033FBC9F810002B7B687B1B1103EB001084
:100AC00000F57A700AF0D4FA13490AF025FBC9F848
:100AD00018002B7BE87A1B0203F47063184400F5BE
:100AE0007A700AF0C5FA0C490AF016FBC9F814002E
:100AF000EB7BA87B1B0203F47063184400F57A704B
:100B00000AF0B6FA04490AF007FBD9F80040C9F820
:100B10001C00FCE60000A0406F12833A2DE9F84368
:100B20000026D0F8B080C0F890608146041F00F124
:100B30002C0754F8045F414628460AF0A9FC0949ED
:100B400050B128460AF086FC30B1304629460AF0FA
:100B5000DBF90646C9F89000BC42EAD13046BDE850
:100B6000F88300BF0000A04002299ABF00EB81007B
:100B7000D0F89400002070473E2998BF80F8CC1030
:100B8000704700BF90F8B400704700BFC0F8C810AD
:100B9000704700BF80F8B410704700BF30B50F4CED
:100BA000C0F8B01083B020460D4608F009FF20467B
:100BB00008F006FF284609F005FE022502460B460E
:100BC0000095204608F054FF204608F0F9FE204624
:100BD00003B0BDE8304008F0F3BE00BFD887FF1F68
:100BE00070B500F555550646103500F1280420462D
:100BF000D834FFF73BFCAC42F9D106F580750124EF
:100C000028460021FFF7C6FF214628460134FFF79A
:100C1000B3FF3F2C05F1D805F2D143F2585400251B
:100C20000548064A064B3555002130617161B261B5
:100C3000F361304670BD00BF00007A4400004843B5
:100C40000000C8C22DE9F04143F25C5300F555564F
:100C5000374600228046C25010361C3700F580749B
:100C600002E0D834B4420DD02046FFF78BFF0028B5
:100C7000F7D020463D68FFF7C7FCD8342844B4427B
:100C80003860F1D143F25C5358F80300BDE8F081BD
:100C900038B50C78A4F12103072B98BF183CA4F1B8
:100CA0004103072B98BF303CA4F16203052B154686
:100CB00009D8D823483C03FB04002830FFF708FC80
:100CC000012D0AD038BDD82303FB04002830FFF7DC
:100CD000FFFB012DF6D1002CF4D0064808F070FE81
:100CE0002146044808F0BCFE0B210348BDE838400B
:100CF00008F0D0BBD887FF1FD8F600000B68A3F51B
:100D0000D8732DE9F0417E2B00F28180DFE813F0EB
:100D1000B501B101AD017F00A901A501A1017F00CD
:100D20009D01990195017F0091018D0189017F004D
:100D3000850181017D017F007901750171017F00CD
:100D40006D01690165017F0061015D0159017F004D
:100D5000550151014D017F004901450141017F00CD
:100D60003D01390135017F0031012D0129017F004D
:100D7000250121011D017F001901150111017F00CD
:100D80000D01090105017F000101FD00F9007F004F
:100D9000F500F100ED007F00E900E500E1007F00D3
:100DA000DD00D900D5007F00D100CD00C9007F0053
:100DB000C500C100BD007F00B900B500B1007F00D3
:100DC000AD00A900A5007F00A1009D0099007F0053
:100DD000810011020D027F000902050201027F005D
:100DE000FD01F901F5017F00F101ED01E9017F004D
:100DF000E501E101DD017F00D901D501D1017F00CD
:100E0000CD01C901C5017F00C101BD01B901BDE826
:100E1000F0814FF000081925012A174604460E46B6
:100E200000F08B81D82000FB0544283420460121A6
:100E3000FFF7B0FE324641462046BDE8F041FFF7DD
:100E400059BD4FF002081825E6E74FF001081825B4
:100E5000E2E74FF000081825DEE74FF002081725FB
:100E6000DAE74FF001081725D6E74FF000081725FD
:100E7000D2E74FF002081625CEE74FF001081625FD
:100E8000CAE74FF000081625C6E74FF002081525FF
:100E9000C2E74FF001081525BEE74FF00008152501
:100EA000BAE74FF002081425B6E74FF00108142501
:100EB000B2E74FF000081425AEE74FF00208132503
:100EC000AAE74FF001081325A6E74FF00008132505
:100ED000A2E74FF0020812259EE74FF00108122505
:100EE0009AE74FF00008122596E74FF00208112507
:100EF00092E74FF0010811258EE74FF00008112509
:100F00008AE74FF00208102586E74FF00108102508
:100F100082E74FF0000810257EE74FF002080F250A
:100F20007AE74FF001080F2576E74FF000080F250C
:100F300072E74FF002080E256EE74FF001080E250C
:100F40006AE74FF000080E2566E74FF002080D250E
:100F500062E74FF001080D255EE74FF000080D2510
:100F60005AE74FF002080C2556E74FF001080C2510
:100F700052E74FF000080C254EE74FF002080B2512
:100F80004AE74FF001080B2546E74FF000080B2514
:100F900042E74FF002080A253EE74FF001080A2514
:100FA0003AE74FF000080A2536E74FF00208092516
:100FB00032E74FF0010809252EE74FF00008092518
:100FC0002AE74FF00208082526E74FF00108082518
:100FD00022E74FF0000808251EE74FF0020807251A
:100FE0001AE74FF00108072516E74FF0000807251C
:100FF00012E74FF0020806250EE74FF0010806251C
:101000000AE74FF00008062506E74FF0020805251D
:1010100002E74FF001080525FEE64FF00008052520
:10102000FAE64FF002080425F6E64FF00108042521
:10103000F2E64FF000080425EEE64FF00208032523
:10104000EAE64FF001080325E6E64FF00008032525
:10105000E2E64FF002084546DEE64FF001080225C1
:10106000DAE64FF000080225D6E64FF00208012527
:10107000D2E64FF001084546CEE64FF000080125C4
:10108000CAE64FF002082025C6E64FF001082025E9
:10109000C2E64FF000082025BEE64FF002081F25EB
:1010A000BAE64FF001081F25B6E64FF000081F25ED
:1010B000B2E64FF002081E25AEE64FF001081E25ED
:1010C000AAE64FF000081E25A6E64FF002081D25EF
:1010D000A2E64FF001081D259EE64FF000081D25F1
:1010E0009AE64FF002081C2596E64FF001081C25F1
:1010F00092E64FF000081C258EE64FF002081B25F3
:101100008AE64FF001081B2586E64FF000081B25F4
:1011100082E64FF002081A257EE64FF001081A25F4
:101120007AE64FF000081A2576E64FF002081925F6
:1011300072E64FF0010819256EE6094808F040FCF8
:101140002946074808F08CFC3946064808F0A2F901
:101150004146034808F084FC014808F031FC61E690
:10116000D887FF1FE4F60000704700BF704700BF3C
:101170002DE9F043002383B00646036000F5807438
:10118000012504E001353F2D04F1D80466D0204646
:10119000FFF7F8FC0028F5D04E4800F037FC294650
:1011A0004D4800F033FC2046FFF7B8FC09F00AFB7D
:1011B00002460B46494800F029FC2046FFF7B8F9E3
:1011C00080462046FFF7D0F90746404609F0FAFA74
:1011D00080463846894609F0F5FA42464B46CDE945
:1011E00000013F4800F012FC00212046FFF7BCFC44
:1011F000012180462046FFF7B7FC0746404609F02C
:10120000E1FA80463846894609F0DCFA42464B4608
:10121000CDE90001334800F0F9FB2046FFF77EFCE2
:101220000146306809F070FE30602046FFF716FB7B
:10123000B1690AF00FF9002833D12046FFF7E8F929
:10124000F1690AF025F900289CD02046FFF7E0F963
:1012500001353F2DF06104F1D80498D1706809F090
:1012600007FF014630680AF00BF8716930600446E8
:101270000AF00EF900B17461316920460AF0EAF80B
:1012800000B134610B2006F0ADFD43F25853F35C1E
:1012900060B99BB143F258530122F25403B0BDE848
:1012A000F0832046FFF7DAFAB061C6E753B943F29C
:1012B00058530022F25403B0BDE8F0830A4800F00E
:1012C000D3FBE7E7094800F0B9FB43F2585300228B
:1012D000F254F0E7D0F80000E8F6000024F7000030
:1012E00038F7000064F7000080F70000B8F700004E
:1012F00070B5114B836000F555550646103500F565
:10130000807402E0D834AC4213D02046FFF73AFC98
:101310000028F7D02046FFF70BF9B1680AF09AF8D9
:101320000028EFD02046FFF703F9D834AC42B06074
:10133000EBD1B06870BD00BF0000A04070B50023C5
:1013400000F555550646C360103500F5807402E07F
:10135000D834AC4213D02046FFF714FC0028F7D055
:101360002046FFF701F9F1680AF092F80028EFD063
:101370002046FFF7F9F8D834AC42F060EBD1F068C2
:1013800070BD00BF0068704741607047F8B500F558
:1013900055550F461646103500F5807402E0D834D6
:1013A000AC420FD02046FFF7EDFB0028F7D02046D7
:1013B0003946FFF7EBFB20463146D834FFF7EEFB0A
:1013C000AC42EFD1F8BD00BF2DE9F84300F555550B
:1013D00043F254532E4600278046C7504FF0000971
:1013E0001035143600F5807402E0D834A54213D0CD
:1013F0002046FFF7C7FB0028F7D03368013333607E
:101400002046FFF713F91D490AF042F888B9D8348D
:10141000A54207F10107EBD143F2545358F80300FA
:10142000C01B09F025FE0146484609F029FFBDE82A
:10143000F8832046FFF7FAF80146484609F064FDB4
:1014400081462046FFF7F2F8D8F820100AF020F87D
:1014500070B92046FFF7EAF8D8F8241009F0FAFF2F
:101460000028C2D02046FFF7E1F8C8F82400BCE706
:101470002046FFF7DBF8C8F82000EAE700008CC23E
:10148000006A7047406A7047F8B500F55555074641
:101490000026103500F5807402E0D834AC420FD03D
:1014A0002046FFF76FFB0028F7D02046FFF77EF8B5
:1014B0000146304609F028FDD834AC420646EFD14B
:1014C00043F25453F85809F0D3FD0146304609F071
:1014D000D7FEF8BD2DE9F04F06468FB083488B4606
:1014E00000F03CFA814800F039FA804800F036FA02
:1014F00043F254533046F2580D92FFF7A3FB736842
:101500000C930746306809F05DF9804630468946FD
:10151000FFF7BAFF82463046B468F568FFF754FF1C
:1015200009F050F9CDE90A012146284609F0EAFC04
:101530006F4909F0F1FD09F045F9CDE908012846A8
:1015400009F040F9CDE90601204609F03BF9CDE963
:101550000401504609F036F90D9A0C9BCDE90201C1
:10156000CDE90089114663483A4600F0F7F95F4833
:1015700000F0F4F906F580764FF001094FF0000A0B
:1015800007E009F10109B9F13F0F06F1D80600F0B3
:10159000A5803046FFF7F6FA0028F2D03046FEF775
:1015A000B1FF3046FEF7B2FF3046FEF7B3FF3046DC
:1015B000FEF7B4FF0821504807F06CFF49464F483A
:1015C00008F04EFAB9F1090F40F38B8002214C4824
:1015D00007F060FF3046FFF7A1FA09F0F3F85FFA71
:1015E0008BF802460B46CDF80080444808F040FADC
:1015F0000121444807F04EFF5546002420E0062113
:10160000414807F047FF29463C4808F029FA0221E3
:101610003E4807F03FFF21463046FEF783FF09F0C2
:10162000D1F8CDF8008002460B46344808F020FA85
:1016300001340121334807F02DFF0C2C09D03D4621
:10164000092D05F10107DADC0121314807F022FFFD
:10165000D5E72A4808F0B4F909212E4807F01AFF07
:1016600000213046FFF780FA09F0ACF80224024668
:101670000B460094214808F0FBF90A21264807F0A0
:1016800009FF01213046FFF76FFA09F09BF800943B
:1016900002460B46194808F0EBF90A211F4807F0EB
:1016A000F9FE21463046FFF75FFA09F08BF8009407
:1016B00002460B46114808F0DBF90121184807F0F3
:1016C000E9FE09F101090D4808F07AF9B9F13F0F77
:1016D0000AF10C0A06F1D8067FF45BAF0FB0BDE843
:1016E000F08F01210A4807F0D5FE6FE7D0F800001F
:1016F00000007A4468FA000008FB0000D887FF1F4A
:101700002C09010014FB000018FB0000F8FC00008D
:1017100008FD000020FB00002CFB000038FB00004F
:1017200044FB00002DE9F04100F5807582B04FF0D8
:10173000010806E008F10108B8F13F0F05F1D805EE
:1017400059D02846FFF71EFA0028F3D041462B480F
:1017500008F086F901212A4807F09CFE00240227A0
:1017600021462846FEF7DEFE09F02CF800970246D7
:101770000B46224808F07CF901340121204807F08B
:1017800089FE0C2C4FF00206EAD100212846FFF713
:10179000EBF909F017F8009602460B46174808F0D7
:1017A00067F90121164807F075FE01212846FFF769
:1017B000DBF909F007F8009602460B460F4808F0DF
:1017C00057F901210E4807F065FE31462846FFF71C
:1017D000CBF908F0F7FF009602460B46074808F0E1
:1017E00047F908F10108054808F0EAF8B8F13F0F99
:1017F00005F1D805A5D102B0BDE8F081D887FF1F5B
:10180000E4F60000014B1870704700BF2087FF1FEF
:101810000278002A00F0908070B5034682B00D4631
:10182000252A2AD158785C1C08B325282FD0732884
:1018300031D0642824D0692822D066284FD07A2855
:1018400059D0782835D058282FD062283ED0422849
:1018500038D06C2814D0632812D0742857D054285C
:101860005FD007F09BFE6278631C002AD8D1344811
:1018700002B0BDE8704008F0A3B818781C46F0E745
:101880002B1D29682E481D4608F0EAF8EBE71046A4
:1018900007F084FEE7E72E6830460AF031FC014687
:1018A0003046043507F0F6FDDDE70221254807F054
:1018B000F1FD2E1D2968224800231022354608F02C
:1018C0008FF8D0E70221204807F0E4FD2E1D29689B
:1018D0001B4800230222354608F082F8C3E707358B
:1018E00025F007050321D5E90023154800910835A7
:1018F00008F0BEF8B7E7073525F007050021D5E960
:1019000000230F480091083508F0B2F8ABE72968CA
:1019100001290EBF0D480E480121043507F0BAFD1C
:10192000A1E72B68012B07BF04210A480A480521BB
:10193000043507F0AFFD96E7014808F041B800BF55
:10194000D887FF1F48FB00004CFB000050FB000045
:1019500054FB000058FB000060FB00000FB400B512
:1019600083B004A951F8040B0191FFF751FF03B0B4
:101970005DF804EB04B0704770B51B4B1B4C1B6843
:1019800082B00D460193019B236019460446002353
:10199000164617480A2208F023F80321154807F0D5
:1019A00079FD032C07D8DFE804F01A151002052191
:1019B000114807F06FFD0221104807F06BFD31461A
:1019C0002846FFF725FF02B070BD07210C4807F03D
:1019D00061FDF0E704210B4807F05CFDEBE7052112
:1019E000094807F057FDE6E708CCFF1F5492FF1F98
:1019F000D887FF1F68FB000084FB0000F8FC000094
:101A00007CFB000074FB00006CFB00000FB400B511
:101A1000094B187883B020B103B05DF804EB04B033
:101A2000704705AB1A4604990193FFF7A5FF03B071
:101A30005DF804EB04B070472087FF1F0FB4094B1B
:101A400000B51B78012B83B004D903B05DF804EB1B
:101A500004B0704705AB1A46049901930120FFF7C3
:101A60008BFFF2E72087FF1F0FB40B4B00B51B78ED
:101A7000032B83B004D903B05DF804EB04B07047C6
:101A800005AB1A46049901930320FFF775FF03B0D5
:101A90005DF804EB04B070472087FF1F30B4074D9A
:101AA000074C084900232B70236003654365836559
:101AB00080F85C300B6030BC704700BF6092FF1F45
:101AC0005C92FF1F5892FF1FF8B53A483A4F3B4DC2
:101AD0003B4E3C4CFFF742FF3B4B3C493C4A3D48A8
:101AE0005960DA603C491F6100223C4F58615D62D9
:101AF0003B489E614FF07C553A4E9C623A4CD9620D
:101B00001A630C21394A5F639863394F5D6440F66C
:101B10001C400A259E64DC6441F204065A241965BF
:101B20001A6202210122C3F8BC709866314FDD664B
:101B3000002064251E675C674FF496763224597046
:101B400059721A725A65DF61DF6383F840005E667E
:101B5000DE651C664FF47A7E9D65274F9867274E99
:101B6000D967C3F88000C3F89440C3F8A440C3F811
:101B7000A000FF24C3F8AC20C3F8B010052041F248
:101B8000883183F8C02040F2D662C3F8B450C3F85D
:101B900098E0C3F88870C3F88C60C3F8A840A3F835
:101BA000BA00C3F89010A3F8B810A3F88420A3F8E3
:101BB0008620F8BD8CFB000000004040CDCCCC3D21
:101BC000CDCC4C40000082424893FF1F20A107006B
:101BD0006666864033338340000020C10000204207
:101BE0000000A0409A9979400AD7233D33337340CF
:101BF0009A99993ECDCC4C3E0000684200C02044EA
:101C0000F0B54FF47A6085B006F022F900210F207C
:101C100006F0F6F800210E2006F0F2F8002111205F
:101C200006F0EEF80021102006F0EAF8002112205C
:101C300006F0E6F80021132006F0E2F801210B205F
:101C400006F0DEF801210C2006F0DAF8012114205C
:101C500006F0D6F80121152006F0D2F80121162051
:101C600006F0CEF80121172006F0CAF80121052060
:101C700006F0C6F8984C994D0121062006F0C0F8F0
:101C800001210D2006F0BCF8208809F0EDF901468D
:101C9000162006F01FF8208809F0E6F90146172003
:101CA00006F018F8208809F0DFF90146052006F053
:101CB00011F8208809F0D8F900240146062006F022
:101CC00009F800942346864A8649874804F0E6FCD2
:101CD000E6B232468149844804F08EFC2B797F4974
:101CE00081486FF30003013432462B7104F07AFC13
:101CF000082CEDD10924E6B2324678497A4804F03E
:101D00007BFC2B797549784843F001030134324656
:101D10002B7104F067FC0D2CEDD1744D4FF0FF32A8
:101D20002868102105F086F828684FF0FF3210214E
:101D300005F058F828684FF0FF32022105F066F8E8
:101D400028684FF0FF32022105F06AF800220F21C7
:101D5000286805F079F80C21654807F09BFB654879
:101D600007F02EFE2146644807F094FB614807F017
:101D700027FE604807F024FE1721604807F08AFB21
:101D80005C4807F01DFE5E4B1B789A0600F1DA8076
:101D90005B4B1B781B0700F1E180594B1B785F07F9
:101DA00000F1E880564B1B789E0700F1EF80554B01
:101DB0001B781D0600F1F680524B1B785C0600F183
:101DC000FD80504B1B78980600F104814D4B1B7829
:101DD000590700F10B814B4B1B781A0700F1128158
:101DE000484B1B789B0700F11981424807F0E8FD3A
:101DF00072B6454A4CF220534DF628112024138028
:101E000023461180013BFDD1404D4148414900230B
:101E10004FF480562E8003800B8032F80E3C9BB22C
:101E200043F0D30322F80E3C62B640F2413006F094
:101E300077FC21463848394D07F02CFB2D4807F038
:101E4000BFFD05F1C4062F462C46601B05F0DEFCE5
:101E500004F8010BB442F8D13B78112B01D0FFF705
:101E600033FE2F482F4CFFF781F90420FFF7CAFCFF
:101E70002D4B2B4800221A60FFF776F901210D2027
:101E800005F0AAFF796D2648FFF77EFA7A6C97F87D
:101E900040102348FFF77AFA244B25491B68254A4E
:101EA000D7F89C00126881FB0351DB17A3EB2113C9
:101EB00013FB02F30128238000F0B8801E4B1F495A
:101EC0001A68039203981B680293029A1C4B0860DD
:101ED0001A6005B0F0BD00BF2887FF1F1C94FF1FCC
:101EE000FCCBFF1F20A1070060CAFF1FC894FF1F83
:101EF000ACFB0000D887FF1FBCFB0000CCFB000040
:101F000001F0074000F007400E2005400420054086
:101F10000620054016200540D0FC00004893FF1F16
:101F20000095FF1FD494FF1F7492FF1F6487FF1F4B
:101F30001F85EB516087FF1F08CCFF1FFC94FF1F1C
:101F40002494FF1F21213C4807F0A4FA3B4807F0E6
:101F500037FD3B4B1B781B077FF51FAF0C21394822
:101F600007F098FA354807F02BFD354B1B785F07D3
:101F70007FF518AF0E21344807F08CFA2F4807F090
:101F80001FFD2F4B1B789E077FF511AF17212F48A0
:101F900007F080FA294807F013FD2D4B1B781D062A
:101FA0007FF50AAF0E212B4807F074FA234807F09B
:101FB00007FD274B1B785C067FF503AF12212648EF
:101FC00007F068FA1D4807F0FBFC214B1B789806C8
:101FD0007FF5FCAE1321214807F05CFA174807F0A3
:101FE000EFFC1B4B1B7859077FF5F5AE1C211C48F5
:101FF00007F050FA114807F0E3FC154B1B781A075D
:102000007FF5EEAE1921174807F044FA0B4807F0A8
:10201000D7FC0F4B1B789B077FF5E7AE18211248C2
:1020200007F038FA054807F0CBFCDEE64FF496706F
:1020300005F00EFF42E700BFE4FB0000D887FF1F5A
:1020400001F0074008FC000018FC000028FC00001C
:1020500000F0074040FC000050FC000064FC000061
:1020600078FC000098FC0000B4FC000070B5464C01
:10207000464D4748E66800232B70FFF75FF901469D
:10208000304609F0E7F908B104232B704048FFF708
:102090002FF9216909F0DEF918B12B7843F010030C
:1020A0002B703B48FFF790F9A16A09F0F1F918B1DC
:1020B0002B7843F040032B70002335486B70FFF7FB
:1020C00083F9E16A314E09F0C5F908B10123737053
:1020D00000232F48EB70FFF731F905462C482B4EB3
:1020E000FFF706F90146284608F00CFFE16B09F0FE
:1020F000CFF908B10123F370264D254800232B703A
:10210000FFF71CF9616A0646E06808F0FBFE01462D
:10211000304609F0BDF908B104232B701C48FFF7C5
:10212000E7F8616A0646206908F0EEFE014630468F
:1021300009F090F918B12B7843F010032B70144874
:10214000FFF742F9A16B0646A06A08F0DBFE0146E4
:10215000304609F09DF918B12B7843F040032B70FD
:1021600000230B486B70FFF72FF9A16B0546E06A5F
:10217000084C08F0C9FE0146284609F06BF908B181
:102180000123637070BD00BF4893FF1F4493FF1F7E
:102190000095FF1FBC94FF1F2DE9F0417C4C236884
:1021A000012B82B031D0022B00F0A880032B00F06D
:1021B000C8803BBB774B784AD3F8A410D3F8A8303B
:1021C00012685B1A632B0EDD744803FB02F380FB7D
:1021D0000302DB17C3EB62131944062002B0BDE80B
:1021E000F04105F079BC6E4803FB022380FB03023B
:1021F000DB17C3EB22121144062002B0BDE8F04108
:1022000005F06ABC02B0BDE8F081664E33680A335F
:10221000B3F57A7F00F3B7801846336008F028FFE3
:10222000614908F079FF80465A4DD5F8A40008F0BE
:102230001FFF0746D5F8A80008F01AFF394608F036
:1022400061FE414608F068FF584909F019F839461F
:1022500008F05AFE09F026F90146062005F03CFC7C
:102260000221534807F016F9524807F0A9FB06214E
:10227000514807F00FF9306808F0FAFE4A4908F0B3
:102280004BFF08F09FFA022702460B460097494889
:1022900007F0EEFB0D21494807F0FCF8D5F8A40043
:1022A00008F0E6FE8046306808F0E2FE3E4908F09D
:1022B00033FF0646D5F8A80008F0DAFE414608F0DC
:1022C00021FE0146304608F027FF384908F0D8FFC4
:1022D000414608F019FE08F075FA00970B460246D1
:1022E000344807F0C5FB3946314807F0D3F8314888
:1022F00007F066FB2368022B7FF458AF294B254E6D
:1023000000221A60D6F8A40008F0B2FE0546D6F8FE
:10231000A80008F0ADFE294608F0F4FD002108F001
:10232000FBFE224908F0ACFF294608F0EDFD09F05C
:10233000B9F80146062005F0CFFB2368032B7FF494
:1023400038AF184B134E4FF47A721A60D6F8A400C7
:1023500008F08EFE0546D6F8A80008F089FE29464A
:1023600008F0D0FD114908F0D7FE104908F088FFA9
:10237000294608F0C9FD09F095F80146062005F048
:10238000ABFB236815E700234FF0000833604BE7F1
:10239000A894FF1F4893FF1F3487FF1F1F85EB5131
:1023A000CBF08D287892FF1FCDCCCC3D0000C842E9
:1023B0002C090100D887FF1FF4FC0000FCFC000082
:1023C00070B5A248A24C07F0FBFAA04807F0F8FA53
:1023D0009E4807F0F5FA0D219E4807F05BF8D4F807
:1023E000A030012B11D09C4C9848217800230A2260
:1023F00007F0F6FA2378052B67D8DFE813F0E90039
:10240000EE00F300F800FD00E4000921934807F016
:1024100041F89348FEF76CFF216909F01BF818B1E9
:102420000F21904807F036F88D48FEF787FFE168E6
:1024300009F02EF818B10E218B4807F02BF88848C8
:10244000FEF77CFF05468648FEF752FF0146284608
:1024500008F058FDE16B09F01BF818B11121834811
:1024600007F018F87E48FEF7AFFFA16A09F010F8F0
:1024700018B10C217E4807F00DF87948FEF7A4FF4B
:10248000E16A08F0E7FF18B10D217A4807F002F879
:10249000794B73481B68012B00F0C280FEF728FFC0
:1024A00021696B4D08F0F4FF78B16D48FEF746FFE7
:1024B000E96808F0CFFF40B1674B1B78052B00F0AF
:1024C000C08008216D4806F0E5FF02216C4806F047
:1024D000E1FF122005F086FC012800F09C8011200D
:1024E00005F080FC012800F09180664B1B68012BF1
:1024F00000F087800221624806F0CCFF624B53480F
:10250000196807F0ADFA514807F05AFA04215F48FC
:1025100006F0C0FF0B2005F065FC002301460A22EF
:102520004A4807F05DFA0C2005F05CFC00230146E8
:102530000A22464807F054FA142005F053FC002301
:1025400001460A22414807F04BFA152005F04AFCE3
:10255000002301460A223D4807F042FA06214C4872
:1025600006F098FF4B4B394819680222002307F008
:1025700037FA0421484806F08DFF112005F032FC9F
:10258000002301460A22314807F02AFA102005F0FC
:1025900029FC002301460A222C4807F021FA1220C8
:1025A00005F020FC002301460A22284807F018FA0B
:1025B000132005F017FC002301460A222348BDE83A
:1025C000704007F00DBA0721344806F063FF7CE73E
:1025D0000621334806F05EFF77E70721314806F011
:1025E00059FF72E70721304806F054FF6DE70821D4
:1025F0002E4806F04FFF68E70B212D4806F04AFFF2
:1026000063E711212B4806F045FF73E70A212A48AA
:1026100006F040FF69E70E21284806F03BFF5EE721
:10262000FEF766FE216A08F033FF00283FF449AF49
:102630001621234806F02EFF0A21224806F02AFF21
:1026400043E70A211F4806F025FF3EE7D887FF1F12
:102650004893FF1F0CFD0000B894FF1F1CFD0000F5
:102660000095FF1F28FD000038FD000048FD000018
:102670005CFD00006CFD00008492FF1FA0FD0000C7
:102680002C090100D094FF1FAC94FF1F14FE000022
:102690001CFE00000C94FF1F24FE0000DCFD000067
:1026A000ACFD0000B4FD0000C8FD0000D0FD00003E
:1026B000BCFD000000FE0000F4FD0000E4FD000091
:1026C0007CFD000094FD00002DE9F04F934C944FE9
:1026D000E36F012B8DB000F04981032B50D0914E58
:1026E000914DA36F9148012B09BF2968296801F119
:1026F0000041296004F07CFF3368002B40F0CE805D
:102700008A4804F04BFFE36F3860012B064600F067
:10271000D280874908F0BCFE78B98649304608F077
:1027200099FE50B9844A854B12680B920B9A1A6035
:1027300000232B600DB0BDE8F08FDFF8FC817F4CEB
:10274000D8F800300A930A9823687D4FC01A08F021
:102750008BFC314608F0E0FC7A4908F091FD79499C
:1027600008F08EFD396808F0CFFBD8F800300993E7
:10277000099B2360002338602B600DB0BDE8F08F0B
:10278000DFF8C881704DD8F80000664E01230022A2
:102790000F212B6004F058FB2B68012B336800F0ED
:1027A0000381002B40F0A6810021D8F80000DFF85B
:1027B000B891664D04F09AFB33681FFA80FBC9F8A4
:1027C00000B0002B40F07B810021D8F80000564D6E
:1027D000DFF878A104F010FBB4F8863040F6E4414D
:1027E00001FB0BF1B1FBF0F0C01A00B208F040FCA5
:1027F00057498346D4F8880008F08EFC01465846B5
:1028000008F03EFDD9F800302860632BDFF858B19E
:1028100000F3498100232B603368002B3FF461AF44
:1028200002214C4806F036FED9F80020D8F8000006
:1028300040F6E443002103FB02F804F0DDFAB8FBA4
:10284000F0F008F011FC8046B4F8860008F010FCA7
:102850000146404608F056FB07F0B4FF4FF002086F
:1028600002460B46CDF800803B4807F001F941468F
:10287000384806F00FFE286807F0A4FFCDF8008066
:1028800002460B46344807F0F3F84146334806F059
:1028900001FE41462F4806F0FDFD22E7234804F0E3
:1028A0007DFE07F08FFF022602460B4600962A485F
:1028B00007F0DEF824E7244B1B68012B00F026818B
:1028C000022B7FF435AF264908F0E2FD30B92549E7
:1028D000304608F0BFFD002800F04781DFF858803F
:1028E000164CD8F80030079307982368144FC01A85
:1028F00008F0BAFB314608F00FFC124908F0C0FCA2
:10290000104908F0BDFC396808F0FEFAD8F800302C
:102910000693069B386023600AE700BF4893FF1FB9
:102920009092FF1FF494FF1F8092FF1F2093FF1FC0
:102930000000FA430000FAC308CCFF1F6492FF1F97
:102940009892FF1F00007A445487FF1FC894FF1F0E
:1029500017B7D1382C090100D887FF1F68FE000087
:1029600000C82F4800A08CC64093FF1F3D689849BF
:10297000284608F06FFD30B12846964908F088FDDA
:1029800000287FF4FDAEDFF85882934DD8F80000A0
:10299000924E022300220E212B6004F055FA2B6880
:1029A000012B33687FF4FDAE002B40F00081002145
:1029B000D8F80000DFF86C92894D04F097FA33687C
:1029C0001FFA80FBC9F800B0002B40F0D580002131
:1029D000D8F80000834D04F00FFAB4F8843040F6C4
:1029E000E44A0AFB0BFBBBFBF0F0C01A00B208F094
:1029F0003FFB7D498346D4F88C0008F08DFB0146EF
:102A0000584608F03DFCD9F8003028600021D8F87D
:102A100000000AFB03FA04F0EFF9B4F88430BAFBC3
:102A2000F0F00FFA80FAC3EB0A03002BB4F8BA20D7
:102A3000B8BF5B429342BCBF00232B603368002BBE
:102A40003FF44FAE0221694806F024FDD9F800207A
:102A5000D8F8000040F6E443002103FB02F804F03C
:102A6000CBF9B4F88410B8FBF0F000B2411A60481A
:102A700006F0F6FF02215D4806F00CFD286807F01D
:102A8000A1FE4FF0020802460B46CDF800805848E0
:102A900006F0EEFF0321574806F0FCFC4146534880
:102AA00006F0F8FC1DE6DAF80000002104F0A4F9B5
:102AB000DBF8003064389842FFF4ACAEACE600219D
:102AC000286804F099F940F6E44100230A2201FB4A
:102AD0000BF1B1FBF0F1464806F082FF02214348BA
:102AE00006F0D8FCB4F88610414806F0B9FFD9F8D2
:102AF00000B069E63E4806F063FF0C213E4806F050
:102B0000C9FC0C213D4806F0C5FC4DE63C4908F0E7
:102B1000BFFC58B93B49304608F09CFC30B93A4AF2
:102B20003A4B12680592059A1A6001E6DFF8D880E0
:102B3000364CD8F80030049304982368344FC01AF8
:102B400008F092FA314608F0E7FA324908F098FBAB
:102B5000304908F095FB396808F0D6F9D8F800300C
:102B60000393039B38602360E2E5274A274B1268F2
:102B70000892089A1A60DBE50021286804F03CF905
:102B800040F6E44100230A2201FB0BF1B1FBF0F116
:102B9000174806F025FF01211F4806F07BFCB4F81A
:102BA0008410134806F05CFFD9F800B00FE7104816
:102BB00006F006FFE36F012B4FF00B010CBF174827
:102BC000174806F067FC0C210C4806F063FCEEE6A3
:102BD00000709446007094C65487FF1FF494FF1F42
:102BE000C894FF1F8092FF1F17B7D1382C0901002E
:102BF000D887FF1F54FE000058FE000044FE00006E
:102C00000000FA430000FAC308CCFF1F6492FF1FC4
:102C10009892FF1F00007A4408FD00002CFE00007F
:102C200038FE00004093FF1F2DE9F047934C2368C6
:102C300084B0002B79D0924DDFF84C82914FD5F8BB
:102C400080308F4E012B00F08980D7F80090D6F8A5
:102C500058A0746D8C4E04FB0AF44FF47A7000FB9C
:102C600004F008F005FA89490446484608F054FA89
:102C7000214608F005FB864908F04EFA08F012FCE0
:102C80006328C8F800004BDD2046804908F0F8FAB8
:102C90006423386033607F4B1B68002B3DD0EB6FA3
:102CA000774C012B00F08880032B00F0D680022B9C
:102CB00000F0D9800221784806F0ECFB774B1868C9
:102CC00007F080FD022402460B460094744806F08B
:102CD000CFFE2146734806F0DDFB21466E4806F024
:102CE000D9FBD8F800106E4806F0BAFE06216E48EF
:102CF00006F0D0FB3868654908F00EFA07F062FD6F
:102D0000009402460B46664806F0B2FE032167486F
:102D100006F0C0FB624806F053FE04B0BDE8F08741
:102D20000028BCBF00233360B5E7614E544D3368C3
:102D30000293029A42F228339A4249D833680393A5
:102D4000039A42F210739A4249D8D5F88030DFF8DE
:102D500038814C4F4A4E012B7FF477AF5548FEF730
:102D600093FB5549D6F86890F46E08F0D5F908F051
:102D7000BFFB326F736FD5F858A0C9EB02021B1B63
:102D800080B29A42C9EB0000C6BF03FB00000132CB
:102D9000584390FBF2F020446C6D00FB0AF004FBFA
:102DA00000F000EB8000400008F062F9374908F0BD
:102DB00067FA814638604DE7404B1B68012B4FF0A6
:102DC0000A010CBF3E483F4806F064FBE36F6BE727
:102DD00038486A6C95F84010FEF7D8FAAEE73548E7
:102DE000FEF752FB3449AF6EEE6E08F095F908F02D
:102DF0007FFB2A6F6B6FD21B9B1B80B29A42A0EBAA
:102E0000070035DD03FB0000531C90FBF3F31E4469
:102E1000A86D6B6DDFF870801A4FC8F8006000FB7A
:102E200006F003FB00F000EB8000400008F020F902
:102E3000164908F025FA012338600221164823605C
:102E400006F028FB164806F0BBFD59211E4806F087
:102E500021FB134806F0B4FDF1E610211B4806F0F3
:102E600019FBEB6F23E70721194806F013FB21E755
:102E700003FB00F393FBF2F31E44C9E77C92FF1FB0
:102E80004893FF1F9892FF1F3487FF1FE4388E3E40
:102E90000000C8423C87FF1F2C0901009092FF1FD1
:102EA000D887FF1F68FE0000FCFE000004FF000042
:102EB00008CCFF1F0095FF1F00007A445487FF1FB6
:102EC000C8FE0000D4FE00006CFE0000E0FE000022
:102ED000F4FE0000F0B5112083B004F083FF012858
:102EE00013D000210B2004F077FF00210C2004F008
:102EF00073FF0021152004F06FFF1D491D4B0120B9
:102F0000002208701A6003B0F0BD01460446152087
:102F100004F062FF1849194A194B09680191D2F867
:102F200090001B680199134D034402268B422E60CA
:102F300017D8D2F8980008F09BF8124B196808F0DF
:102F400089FA074668B921460B2004F045FF084A74
:102F5000032339460C2016702B6004F03DFF03B0AC
:102F6000F0BD01210C2004F037FF03B0F0BD00BF1D
:102F7000B894FF1FF094FF1F08CCFF1F4893FF1F5A
:102F8000FC94FF1F9092FF1FF0B5684E684D3468A7
:102F90002B689C4287B039D014F0010155D014F051
:102FA000020149D014F004013DD0E3070ED52B688F
:102FB000DF070BD45F4F3A68002A00F082805E4B37
:102FC0001B680193019B93426DD83468A0070DD50F
:102FD0002B6899070AD4594F3A68002A4CD0564BAF
:102FE0001B680393039B934238D8346862070DD55E
:102FF0002B685B070BD4524F3A68002A7ED04E4BA9
:103000001B680593059B934268D834680CB107B0E0
:10301000F0BD2146162004F05FFD2146172004F084
:103020005BFD07B0F0BD052004F056FD2B68346849
:1030300003F0FB032B60B8E7172004F04DFD2B686D
:10304000346803F0FD032B60ACE7162004F044FD68
:103050002B68346803F0FE032B60A0E7394B172080
:10306000D3F8941004F038FD2B68346843F0020361
:1030700000222B603A60B9E7334806F0A1FC0C212E
:10308000324806F007FA304806F09AFCFF21172074
:1030900004F022FD284B2E4A196802910299126809
:1030A0000A443A609CE7274B1620D3F8941004F0AA
:1030B00013FD2B68346843F0010300222B603A6053
:1030C00084E7FF21162004F007FD1B4B204A1968F6
:1030D0000091009912680A443A6071E7194B052083
:1030E000D3F8941004F0F8FC2B68346843F0040320
:1030F00000222B603A60002C89D18AE7124806F042
:103100005FFC0C21134806F0C5F90F4806F058FC87
:10311000FF21052004F0E0FC074B0D4A19680491DB
:10312000049912680A443A606AE700BFF094FF1FEE
:103130000C94FF1F8C94FF1F08CCFF1F9094FF1F5F
:103140009494FF1F4893FF1FD887FF1F08FF0000BC
:103150007487FF1F18FF00002DE9F047544EDFF879
:103160007481DFF874913068524D00220F2103F012
:103170006BFE0023012222214F48C8F80030C9F815
:10318000002006F087F9D8F80030132B22DC40F637
:10319000E44700213068B5F884A003F0A7FE0021C1
:1031A0000446306803F028FEA4B2012107FB04F4B2
:1031B000B4FBF0F441485444A5F8844006F06AF9A1
:1031C000642004F045FED8F800300133132BC8F812
:1031D0000030DEDDB5F88430394A3A48A2FB0312EC
:1031E0009B1A02EB5303C3F30F131946A5F884305F
:1031F00006F036FC1D21344806F04CF90221334814
:1032000006F048F92F4806F0DBFB00231A460E2192
:103210003068C8F8003003F017FE02232221264848
:10322000C9F8003006F036F9D8F80030132B22DC4C
:1032300040F6E44700213068B5F8869003F056FE6A
:1032400000210446306803F0D7FDA4B2012107FB3A
:1032500004F4B4FBF0F419484C44A5F8864006F099
:1032600019F9642004F0F4FDD8F800300133132B71
:10327000C8F80030DEDDB5F88630114A1148A2FBEF
:1032800003129B1A02EB5303C3F30F131946A5F85D
:10329000863006F0E5FB1D210D4806F0FBF8022103
:1032A0000A4806F0F7F80748BDE8F04706F088BB83
:1032B000C894FF1F4893FF1F28FF00006CFF000009
:1032C00087611886D887FF1F4CFF00002C0901007A
:1032D00070FF0000B094FF1F5487FF1F2DE9F843D3
:1032E000B74BB84CB84F1B68386D40F251310822CB
:1032F0002160E271002B40F0068107F0B9FE796988
:10330000054607F009FFB149DFF8FC8207F004FF2A
:1033100008F0EEF880B203126372AD4AAD4B12684A
:103320001B682072A37228461B121512E3722273C7
:10333000B969657307F0F0FEA449A24D07F0ECFEF1
:1033400008F0D6F8A44B1B7880B2A073052B4FEA87
:103350002020E07300F0DC80002388F80230994DD3
:103360009E48294603F092FB9D4B9E4A1B68168897
:10337000A672DAB202EB8201227203EB83024900E9
:1033800042F3D7124FEA262E4FF0000908261B12EF
:1033900021736273294640F25532904884F80BE05D
:1033A00022606372E67184F80E9084F80F9003F047
:1033B0006DFB40F256338C482360E671FDF7E2FF67
:1033C0008A4907F0A9FE08F093F820728648FDF7B5
:1033D000D9FF864907F0A0FE08F08AF8844A83499D
:1033E000C0F307236372106807F04AFF08F05AF829
:1033F00040FA06F203467C48E272A372FDF7E4FF4E
:10340000724907F089FE08F073F820737648FDF7DB
:10341000DBFF6E4907F080FE08F06AF82946C0F32A
:1034200007236E48637384F80E9084F80F9003F0BE
:103430002DFB022004F00CFD6E4B98F800001A786A
:10344000597893F802E02273DA78617340F25A33C4
:10345000294684F80EE0E27398F801E098F802201B
:103460002360207298F803305C4884F809E0A27267
:10347000E372E67103F00AFB5F4B58481A785978FB
:1034800093F802E022726172DA78197993F805C034
:1034900084F80AE0E27293F806E0DA79217340F2E8
:1034A0005E33294684F80DC084F80EE0E273236091
:1034B000E67103F0EBFA022004F0CAFC4F4B4748D8
:1034C0001A78597893F802E022726172DA781979E1
:1034D00093F805C084F80AE0E27293F806E0DA791E
:1034E00021734FF45C7329462360E67184F80DC0A4
:1034F00084F80EE0E27303F0C9FA414B1B68012B1C
:103500000FD0BDE8F88307F0B3FD396A0546F8E649
:103510000023F02288F80220AB72EB722B736B73DE
:103520001DE73148DFF8A080FDF7E2FEF96C07F0F7
:10353000EBFC07462C48FDF701FF0146384607F033
:1035400089FF0028DDD040F2C3332748EE712B609D
:10355000FDF7CEFED8F84860314607F07BFFC8B1D2
:103560002849304607F0D8FD07F0C2FF80B20312A9
:1035700028726B720023012604250322A672E572CD
:1035800022736373A373E3730E491448BDE8F843D1
:1035900003F07CBA1448FDF7ABFE1A4907F0BCFDF6
:1035A00007F0A6FF28721048FDF7A2FE154907F0A4
:1035B000B3FD07F09DFFC0F307206872DAE700BF94
:1035C0008492FF1FE094FF1F4893FF1F00002041DB
:1035D000C494FF1F6C92FF1FB894FF1F60CAFF1FA7
:1035E0003487FF1F3887FF1F0095FF1F0000C84268
:1035F0009092FF1FBC94FF1F2C87FF1F5887FF1F4F
:10360000D094FF1F00007A444493FF1FF0B59C4CF8
:103610009C4D83B005F0D8FE23682860042B00F091
:10362000AC82022B4BD0082B00F09280072B40F08D
:103630005181332801F0D68300F3AD80312801F0A9
:10364000E483322840F0B08005F0FAFE002840F311
:103650003F818D488D4E06F045FB07F009FD8C49F2
:1036600007F05AFD61230122F06322602B601846A7
:10367000A0F152031F2B01F2A583DFE813F0360BF4
:10368000A30BA30BA30BA30BA30BA30BA30BA30BCA
:10369000A30BA30BA30BA30BA30BA30BB203BC0C99
:1036A0003905A7057304A30BA30BA30B2604A30BD7
:1036B000BF0CA30BA30BA30BA30BA30B240BA0F119
:1036C0003102422A70D8DFE812F022072E07E60600
:1036D000F306060715076F006F006F006F006F009D
:1036E0006F006F006F006F006F006F006F006F0062
:1036F0006F006F006F006F006F006F006F006F0052
:103700006F006F006F006F006F006F006F006F0041
:103710006F006F006F006F006F006F006F006F0031
:103720006F006F006F006F006F006F006F00D306B7
:103730006F006F006F006F006F006F006F006F0011
:103740006F006F006F006F006F006B006F00D90695
:10375000322800F02F83712822D0312824D105F09F
:103760006FFE002840F342864748484E06F0BAFAFA
:10377000C0B286F84000022894BF01460021726C56
:10378000444888BF86F84010FDF700FE01236920F9
:10379000236028606CE7342801F04D83712803D141
:1037A0000023732023602860002B08BF73280CBF00
:1037B00001200020002860D0334806F001F90421E0
:1037C000354805F067FE304806F0FAF81021334816
:1037D00005F060FE2C4806F0F3F81321304805F0A0
:1037E00059FE304B2848196806F03AF9264806F089
:1037F000E7F814212C4805F04DFE234806F0E0F8C8
:103800001E212A4805F046FE1F4806F0D9F815216A
:10381000274805F03FFE1C4806F0D2F81E21254837
:1038200005F038FE184806F0CBF82021224805F0B4
:1038300031FE154806F0C4F81921204805F02AFE8B
:10384000114806F0BDF812211D4805F023FE0E4870
:1038500006F0B6F80F211B4805F01CFE0A4806F0DA
:10386000AFF80D21184805F015FE074806F0A8F836
:10387000164A002101231160236003B0F0BD00BF90
:103880009C92FF1F8C92FF1FD887FF1F4893FF1F3A
:103890006F12833A0095FF1FA8070100B0070100CF
:1038A000C40701002487FF1FD8070100F0070100AB
:1038B0001008010028080100480801006C080100F8
:1038C000880801009C080100AC0801003C87FF1F2C
:1038D00023682868062B40F08D80A0F13102402A31
:1038E0003FF662AF01A151F822F000BF2343000070
:1038F0004F4300007B430000A1430000C74300008A
:10390000FF420000A9370000A9370000A9370000D6
:10391000A9370000A9370000A9370000A937000027
:10392000A9370000A9370000A9370000A937000017
:10393000A9370000A9370000A9370000A937000007
:10394000A9370000A9370000A9370000A9370000F7
:10395000A9370000A9370000A9370000A9370000E7
:10396000A9370000A9370000A9370000A9370000D7
:10397000A9370000A9370000A9370000A9370000C7
:10398000A9370000A9370000A9370000A9370000B7
:10399000A9370000A9370000A9370000A9370000A7
:1039A000A9370000A9370000A9370000A937000097
:1039B000A9370000A9370000A9370000A937000087
:1039C000A9370000A9370000A9370000A937000077
:1039D000A9370000A9370000A9370000A937000067
:1039E000A9370000A9370000A9370000A13700005F
:1039F00023682868052B15D1332801F0638240F332
:103A00004781352801F05082C1F2278271287FF466
:103A1000CBAEDC4A00237320136023602860C3E62A
:103A200023682868032B40F0A480A0F13002422ACA
:103A30003FF6BAAE01A151F822F000BF493B0000A9
:103A4000774C00009F4C00005B4B00007D4B00005A
:103A50009F4B0000C74B0000EF4B00000D4C0000D7
:103A6000314C0000A9370000A9370000A937000039
:103A7000A9370000A9370000A9370000A9370000C6
:103A8000A9370000A9370000A9370000A9370000B6
:103A9000A9370000A9370000A9370000A9370000A6
:103AA000A9370000A9370000A9370000A937000096
:103AB000A9370000A9370000A9370000A937000086
:103AC000A9370000A9370000A9370000A937000076
:103AD000A9370000A9370000A9370000A937000066
:103AE000A9370000A9370000A9370000A937000056
:103AF000A9370000A9370000A9370000A937000046
:103B0000594C00002B4600007F4A0000A94A0000E3
:103B1000C74A00001B4B0000E145000005460000BD
:103B2000A9370000A9370000A9370000A937000015
:103B3000A9370000A9370000A9370000A937000005
:103B40009D4A0000E54A000005F07AFC002841F398
:103B500042818D488D4E06F0C5F801270346014687
:103B600062228B48736527602A60FDF70DFC23688D
:103B70002868012B7FF418AE7AE5A0F13102402AC3
:103B80003FF612AE01A151F822F000BF43450000FC
:103B90005B4500005F45000085450000C54500000D
:103BA000894500009B4500009F450000A34500009B
:103BB000A9370000A9370000A9370000A937000085
:103BC000A9370000A9370000A9370000A937000075
:103BD000A9370000A9370000A9370000A937000065
:103BE000A9370000A9370000A9370000A937000055
:103BF000A9370000A9370000A9370000A937000045
:103C0000A9370000A9370000A9370000A937000034
:103C1000A9370000A9370000A9370000A937000024
:103C2000A9370000A9370000A9370000A937000014
:103C3000A9370000A9370000A9370000A937000004
:103C4000A9370000A9370000A9370000A9370000F4
:103C5000A9370000A9370000A9370000A9370000E4
:103C6000A9370000A9370000A9370000A9370000D4
:103C7000A9370000A9370000A9370000A9370000C4
:103C8000A9370000A9370000A9370000A1370000BC
:103C9000312801F0F88032287FF486AD05F0D0FBA2
:103CA00000287FF7BDAE3848384E06F01BF80122D9
:103CB0006B23C6F8980022602B6001E005F084FBBE
:103CC00005F0BEFB0028F9D12F4805F079FE2E48FB
:103CD00005F076FE2C4805F073FE2B4805F070FECB
:103CE000294805F06DFE21212A4805F0D3FB26481E
:103CF00005F066FE1521284805F0CCFBD6F890109B
:103D0000214805F0ADFE0221244805F0C3FB1E4802
:103D100005F056FE1E21224805F0BCFBD6F898108F
:103D2000194805F09DFE03211E4805F0B3FB164817
:103D300005F046FE1E211C4805F0ACFBD6F8941099
:103D4000114805F08DFE104805F03AFE1D21174878
:103D500005F0A0FBD6F8A4100B4805F081FE0A4838
:103D600005F02EFE1E21124805F094FBD6F8A8108F
:103D7000054805F075FE044805F022FE0523236082
:103D80007BE500BFA894FF1FD887FF1F4893FF1F44
:103D90000095FF1F200201004402010030010100D4
:103DA0005C02010054FE00007C0201009C02010044
:103DB000BC02010005F044FB002840F31383B24825
:103DC000B24E05F08FFF07F053F9B14907F0A4F99F
:103DD0000346024696F84010AE487364D4E405F0FA
:103DE000F3FA05F02DFB05460028F8D1A648A74EAA
:103DF00005F0E6FDA44805F0E3FDA34805F0E0FD6D
:103E0000A14805F0DDFDA04805F0DAFD1F21A2481C
:103E100005F040FB9C4805F0D3FD1C219F4805F0B0
:103E200039FB706A9E4907F077F906F0CBFC0095E4
:103E300002460B46944805F01BFE0221994805F006
:103E400029FB914805F0BCFD2321974805F022FB92
:103E5000F06B934907F060F906F0B4FC0095024658
:103E60000B46894805F004FE02218E4805F012FB3E
:103E7000854805F0A5FD19218C4805F00BFBB06BBA
:103E800006F0A0FC02250B46024600957E4805F090
:103E9000EFFD2946864805F0FDFA7B4805F090FDC8
:103EA0001921844805F0F6FAB6F8B810764805F0FE
:103EB000D7FD0321804805F0EDFA734805F080FD39
:103EC00007232360D9E405F07FFA05F0B9FA054627
:103ED0000028F8D16C486D4E05F072FD6A4805F077
:103EE0006FFD694805F06CFD674805F069FD66489F
:103EF00005F066FD1521714805F0CCFA624805F021
:103F00005FFD18216E4805F0C5FA2B460A2296F887
:103F100040105D4805F064FD5B4805F051FD282127
:103F2000684805F0B7FA706C5D4907F0F5F806F0DF
:103F300049FC00950B460246534805F099FD0221C5
:103F4000584805F0A7FA504805F03AFD13215E489D
:103F500005F0A0FA4C4805F033FD082323608CE4FB
:103F600005F032FA05F06CFA05460028F8D146480B
:103F7000464E05F025FD444805F022FD424805F077
:103F80001FFD414805F01CFD3F4805F019FD1121BA
:103F90004E4805F07FFA3C4805F012FD28214C48B8
:103FA00005F078FA70693E4907F0B6F806F00AFCA9
:103FB000009502460B46344805F05AFD0221394867
:103FC00005F068FA304805F0FBFC1621414805F081
:103FD00061FAF069324907F09FF806F0F3FB0095AB
:103FE0000B460246284805F043FD02212D4805F006
:103FF00051FA254805F0E4FCD6F8B030002B32DD4C
:104000001D21354805F046FAF06D07F031F83349C7
:1040100007F082F806F0D6FB022502460B46009513
:10402000194805F025FD01212D4805F033FA164801
:1040300005F0C6FC1F212B4805F02CFA306E07F066
:1040400017F8264907F068F806F0BCFB0095024611
:104050000B460D4805F00CFD0121214805F01AFA28
:10406000094805F0ADFC11211F4805F013FAD6F8F8
:10407000B030052B00F25686DFE813F090068B0671
:1040800050069F069A069506D887FF1F4893FF1F84
:104090006F12833A0095FF1F7C0101009C01010013
:1040A00000007A4408000100BC010100E0010100A9
:1040B000FC010100000201001C0201007008010067
:1040C000C0FF0000DCFF00000C000100140801002C
:1040D000200001004C00010064000100CDCCCC3D6B
:1040E0000005010084000100A400010005F06CF946
:1040F00005F0A6F90028F9D1BF48C04E05F060FCD4
:10410000BD4805F05DFCBC4805F05AFCBA4805F016
:1041100057FCB94805F054FC1F21B94805F0BAF91D
:10412000B54805F04DFC1E21B64805F0B3F9B2487C
:1041300005F046FC1A21B44805F0ACF9F36F022BE8
:1041400000F02887032B00F01C87012B00F02B8741
:104150000921AE4805F09EF9A74805F031FC14216D
:10416000AB48A64F05F096F9B16FA34805F078FC6F
:10417000A14805F025FC1C21A64805F08BF9D6F8CE
:1041800080109D4805F06CFC9B4805F019FC1C2133
:10419000A14805F07FF9D6F8AC10974805F060FC0F
:1041A000954805F00DFCF56F25F00205012D00F096
:1041B000A2861321994805F06DF98F4805F000FC9F
:1041C00002232360FFF759BB05F0FEF805F038F92C
:1041D0000028F9D1884805F0F3FB874805F0F0FB8B
:1041E000854805F0EDFB844805F0EAFB824805F0C0
:1041F000E7FB13218A4805F04DF97F4805F0E0FB05
:104200000D21884805F046F97B4805F0D9FB0F21C0
:10421000854805F03FF9854B7748196805F020FC83
:10422000754805F0CDFB1321814805F033F9814B2A
:104230007148196805F014FC6F4805F0C1FB1221A4
:104240007D4805F027F97D4B6B48196805F008FC9F
:10425000694805F0B5FB1121794805F01BF9794B48
:104260006548196805F0FCFB634805F0A9FB0E21C1
:10427000754805F00FF9614B5F48D3F8A01005F0C1
:10428000EFFB5D4805F09CFB1921704805F002F931
:104290006F4B5948196805F0E3FB574805F090FB50
:1042A00011216C4805F0F6F86B4B5348196805F07E
:1042B000D7FB514805F084FB1021684805F0EAF867
:1042C000674B4D48196805F0CBFB4B4805F078FB70
:1042D0001C21644805F0DEF8634B4748196805F077
:1042E000BFFB454805F06CFB13214C4805F0D2F8A4
:1042F000414805F065FB04232360FFF7BEBA05F0D3
:104300009FF800287FF774AB3B483C4E05F0EAFC71
:1043100065230122C6F8B40022602B601846FFF71F
:10432000A7B905F08DF800287FF762AB3248334E0D
:1043300005F0D8FC06F09CFE4C4906F0A1FF652371
:104340000122706122602B601846FFF791B905F0D9
:1043500077F800287FF74CAB2748284E05F0C2FCC1
:1043600006F086FE414906F08BFF65230122F061CD
:1043700022602B601846FFF77BB905F061F8002832
:104380007FF736AB1C481D4E05F0ACFC00EB8000FF
:10439000430001226520F36522602860FFF768B9B9
:1043A00005F04EF800287FF723AB1348134E05F0B5
:1043B00099FC00EB800043000122652033662260F7
:1043C0002860FFF755B90D4AD2F8B0300133052BFC
:1043D000C8BF0023C2F8B0306520012323602860E5
:1043E000FFF746B923682868FFF720B9034E96F80F
:1043F0004000FFF7C0B900BFD887FF1F4893FF1FD9
:10440000C0030100E0030100000401007804010082
:10441000840401009C040100BC0401000C000100A4
:10442000DC020100F0020100000301008894FF1F7C
:1044300010030100F494FF1F24030100D894FF1F10
:1044400038030100DC94FF1F4C0301005C030100F2
:10445000AC94FF1F78030100A894FF1F8C03010098
:104460008892FF1FA00301006887FF1F00007A44A5
:10447000FEF772FE23682868FFF7D5B8724AD36F3B
:104480000133032BC8BF0023D367012363202360BC
:104490002860FFF7EDB80123236004F0D1FF002866
:1044A000F3DD6A48684E05F01DFCC6F8AC00ECE789
:1044B0000123236004F0C4FF002807DD6348624E37
:1044C00005F010FC06F0D4FDC6F88C0063202860CF
:1044D0002368FFF7ABB80123236004F0B1FF002885
:1044E000F4DD5A48584E05F0FDFB06F0C1FDC6F854
:1044F0008800EBE70123236004F0A2FF0028E5DD3C
:104500005248514E05F0EEFBA6F8BA00DEE74E4EDB
:10451000B36FB3FA83F35B0901226320B3672260B0
:104520002860FFF7A5B8484ED6F88030B3FA83F379
:104530005B0901226320C6F8803022602860FFF703
:1045400097B8434A1368B3FA83F35B0901216420E7
:10455000136021602860FFF78BB83E4AF2E73E4ABD
:104560003E4F1368002B0CBF012300234FF00100C6
:104570001360206040F0EF84034664222A606420C8
:10458000FFF751B8364ADDE7012336482360FCF7D0
:1045900059FB354A23681060EFE7344AD2E7344AC2
:1045A000D0E70123236004F04BFF002800F39B8435
:1045B000304B1A68042AC4BF02221A6064232B609D
:1045C0002368DCE7204ED6F8A030B3FA83F35B090A
:1045D00001226420C6F8A03022602860FFF748B8A6
:1045E00004F02EFF00280DDD1848174E05F07AFB69
:1045F00006F03EFD204906F043FE012262233062B0
:1046000022602B6004F01CFF00280EDD0F480E4EC8
:1046100005F068FB06F02CFD174906F031FE01227B
:104620006223C6F8BC0022602B6004F009FF00285A
:1046300040F3D1830548044E05F054FB0122622368
:10464000B06622602B601BE04893FF1FD887FF1FD6
:104650008894FF1FF494FF1FD894FF1F9C92FF1FA4
:10466000DC94FF1F0095FF1FAC94FF1FA894FF1F51
:104670008892FF1F6887FF1F00007A4404F0A4FEA1
:1046800004F0DEFE05460028F8D1C24805F098F98E
:10469000C04805F095F9BF4805F092F9BD4805F00E
:1046A0008FF9BC4805F08CF91521BB4804F0F2FEE7
:1046B000B84805F085F91421B84804F0EBFEB54878
:1046C00005F07EF91B21B64804F0E4FEB14805F080
:1046D00077F91321B34804F0DDFEAE4805F070F918
:1046E000AC4805F06DF9AB4805F06AF92021AE48F9
:1046F00004F0D0FEF068AD4906F00EFD06F062F859
:10470000009502460B46A34805F0B2F90221A848DD
:1047100004F0C0FE0221A74804F0BCFE9D4805F04D
:104720004FF92121A44804F0B5FE30699F4906F0F5
:10473000F3FC06F047F8009502460B46954805F055
:1047400097F902219A4804F0A5FE0221994804F045
:10475000A1FE904805F034F91F21984804F09AFE14
:10476000B06A06F02FF8022702460B4600978948E8
:1047700005F07EF90121924804F08CFE39468D48FF
:1047800004F088FE834805F01BF920218D4804F0D1
:1047900081FEF06A06F016F8009702460B467D4847
:1047A00005F066F90121864804F074FE3946814817
:1047B00004F070FE774805F003F92321824804F0E5
:1047C00069FEB06C794906F0A7FC05F0FBFF009587
:1047D00002460B466F4805F04BF93946744804F021
:1047E00059FE3946734804F055FE6A4805F0E8F86A
:1047F0001F21764804F04EFEF06C6C4906F08CFCEC
:1048000005F0E0FF009502460B46624805F030F9DE
:104810003946674804F03EFE3946664804F03AFEE1
:104820005C4805F0CDF81921694804F033FEB16DFC
:10483000584805F015F93946664804F02BFE39460C
:104840005C4804F027FE534805F0BAF81821624886
:1048500004F020FE706E06F00BFC604906F05CFC74
:1048600005F0B0FF009702460B464A4805F000F9F4
:1048700001215B4804F00EFE39464E4804F00AFE62
:10488000444805F09DF82B21564804F003FEB0691A
:10489000464906F041FC05F095FF009502460B469F
:1048A0003C4805F0E5F83946414804F0F3FD394647
:1048B000404804F0EFFD374805F082F81F214A48D0
:1048C00004F0E8FD716D334805F0CAF839463948FF
:1048D00004F0E0FD2F4805F073F82021434804F070
:1048E000D9FD316D2B4805F0BBF83946314804F04D
:1048F000D1FD284805F064F810213D4804F0CAFDB8
:10490000B16E244805F0ACF83946294804F0C2FDE0
:104910003946284804F0BEFD1E4805F051F8132121
:10492000344804F0B7FDF16E1A4805F099F80121FA
:10493000314804F0AFFD39461E4804F0ABFD154880
:1049400005F03EF810212D4804F0A4FD316F114808
:1049500005F086F83946164804F09CFD394615489E
:1049600004F098FD0B4805F02BF81421244804F0BE
:1049700091FD716F074805F073F801211E4804F09E
:1049800089FD39460B4804F085FD024805F018F80A
:10499000162137E0D887FF1F480501006005010098
:1049A000780501000C0001009405010000007A4424
:1049B000080001002C090100B8050100DC05010018
:1049C00044FB0000FC050100200601004406010034
:1049D000640601008006010084060100CDCCCC3DB8
:1049E00000050100A0060100CC060100EC06010054
:1049F0001007010024070100380701003C070100EF
:104A000050070100BA4804F045FD306AB94906F084
:104A100083FB05F0D7FE009502460B46B64805F02D
:104A200027F83946B54804F035FD3946B44804F056
:104A300031FDB14804F0C4FF2421B24804F02AFD3E
:104A4000D6F8BC00AB4906F067FB05F0BBFE00954D
:104A50000B460246A84805F00BF83946A74804F073
:104A600019FD3946A64804F015FDA34804F0A8FF37
:104A7000A14804F0A5FF03232360FEF7FEBE04F067
:104A8000DFFC002840F3A7819B489F4E05F02AF9E0
:104A900001226223F06622602B60F1E5002273237D
:104AA00022602B60FEF788BE04F0CAFC002840F3A9
:104AB00092819148944E05F015F9012262233067E6
:104AC00022602B60DCE504F0BBFC002840F383810E
:104AD00089488D4E05F006F9012262237067226035
:104AE0002B60CDE5894B8648874E002202211A6053
:104AF00004F0D0FC804804F063FF0B21844804F0EC
:104B0000C9FC02217E4804F0C5FC7B4804F058FF34
:104B10000122622322602B60B2E5FCF7D5FF02215F
:104B20007748794E04F0B6FC734804F049FF02213F
:104B3000734804F0AFFC704804F042FF0221704853
:104B400004F0A8FC6C4804F03BFF1721714804F006
:104B5000A1FC694804F034FFD3E704F071FC00289D
:104B600040F339816448684E05F0BCF806F080FADD
:104B700001226223B06222602B6081E504F060FCB8
:104B8000002840F328815C485F4E05F0ABF806F042
:104B90006FFA01226223F06222602B6070E504F05C
:104BA0004FFC002840F317815348574E05F09AF800
:104BB00006F05EFA4F4906F063FB01226223B064FF
:104BC00022602B605CE504F03BFC002840F303818D
:104BD00049484D4E05F086F806F04AFA454906F078
:104BE0004FFB01226223F06422602B6048E504F051
:104BF00027FC002840F3EF803F48434E05F072F851
:104C000001226223B06522602B6039E504F018FCB4
:104C1000002840F3E08038483B4E05F063F800EB95
:104C20008000430001216222736621602A6027E52B
:104C300004F006FC002840F3CE802F48324E05F0E9
:104C400051F806F015FA2B4906F01AFB01226223EF
:104C5000B06122602B6013E504F0F2FB002840F302
:104C6000BA802548284E05F03DF8012262233065C0
:104C700022602B6004E504F0E3FB002840F3AB80E6
:104C80001D48214E05F02EF806F0F2F9194906F0FC
:104C9000F7FA01226223F06022602B60F0E404F056
:104CA000CFFB002840F397801348174E05F01AF801
:104CB00006F0DEF90F4906F0E3FA012262233061C3
:104CC00022602B60DCE4C42200210F4802F0B8FD12
:104CD0002868114AA0F1730001210023B0FA80F086
:104CE000400911602360FEF765BD03F09DFE00BF23
:104CF0006807010000007A44D887FF1F0800010000
:104D00002C090100800701004893FF1F7C92FF1FC0
:104D1000B4FF00009CFF00003C87FF1F0C21B94836
:104D200004F0B8FBB848B94D04F04AFED6F8B030EC
:104D3000002B0FDD1821B64804F0ACFBD5F8B410F9
:104D4000B14804F08DFE0221B24804F0A3FBAE4846
:104D500004F036FEAC4804F033FE1B21AE4804F0EC
:104D600099FB96F8C030012B15BF12211421AB48D6
:104D7000AB4804F08FFBA44804F022FE1321A9489D
:104D800004F088FBA04804F01BFE06232360FEF716
:104D900074BD0C21A44804F07DFBC3E70D21A3489A
:104DA00004F078FBBEE70B21A14804F073FBB9E7E0
:104DB0000D21A04804F06EFBB4E70D219E4804F0DD
:104DC00069FBAFE72368002B08BF73280CBF0120E5
:104DD0000020FEF7EFBC23682868012B7EF4E4ACCA
:104DE000FEF746BC04F02CFB00287EF771AD864828
:104DF000864E04F077FF06F03BF961230122B06391
:104E000022602B601846FEF733BC04F019FB002823
:104E10007EF75EAD7C487D4E04F064FF06F028F915
:104E2000864906F079F961230122706222602B60C5
:104E30001846FEF71DBC04F003FB00287EF748ADC2
:104E40007148724E04F04EFF61230122A6F8B800AB
:104E500022602B601846FEF70BBC04F0F1FA002824
:104E60007EF7DEAD6848694E04F03CFF744BC6F82F
:104E7000A40002221A60FDF78FF901226B23226041
:104E80002B60FEF71DBF04F0DBFA00287EF7C8ADEB
:104E90005D485E4E04F026FF01226B23C6F89000A9
:104EA00022602B60FEF70CBF04F0CAFA00287EF7E0
:104EB000B7AD5548554E04F015FF614BC6F8A80034
:104EC0000322D7E704F0BCFA00287EF7A9AD4E48CC
:104ED0004E4E04F007FF01226B23C6F894002260B7
:104EE0002B60FEF7EDBE484804F0FCFE554B024631
:104EF0001860FFF75FBB1C21534804F0CBFAD7F8CA
:104F00008C00524906F008F905F05CFC0095024659
:104F10000B463D4804F0ACFD05214D4804F0BAFABB
:104F2000394804F04DFDFD6F012D45D0032D7FF470
:104F300040A91C21474804F0ADFAB6F8BA1032482F
:104F400004F08EFD0321444804F0A4FA2E4804F036
:104F500037FDFFF72EB9414B002631460B201E606E
:104F600002F03AFF31460C2002F036FF31461420A1
:104F700002F032FF3146152002F02EFF3B68FFF7AA
:104F8000FCBA2021364804F085FA1F4804F018FDC9
:104F9000FFF7E5B81721334804F07CFA1A4804F00B
:104FA0000FFDFFF7DCB81E212F4804F073FA1648F6
:104FB00004F006FDFFF7D3B81D212C4804F06AFA6F
:104FC000D7F88800214906F0A7F805F0FBFB00950B
:104FD0000B4602460C4804F04BFD05211C4804F02A
:104FE00059FA094804F0ECFCFB6F23F00203012B93
:104FF0009FD0FFF7DEB8054EFFF742BB034EFEF72A
:105000005FBE00BFD8000100D887FF1F4893FF1F75
:1050100014010100300101003401010050010100C0
:10502000640101000C000100C8000100B80001008B
:1050300008010100F8000100E80001006F12833A46
:10504000A894FF1F6887FF1FDC040100CDCCCC3D76
:10505000FC0401002405010044050100F094FF1F39
:105060003C040100600401001C040100040501006F
:1050700038B5164C164A2368101D12F8011F9042CD
:1050800041EA0323F9D12360124C03F1004323606A
:10509000114BDB6F022B11D0104B1B68012B00D082
:1050A00038BD0F4804F08CFC21680D4804F0D8FC92
:1050B00003210C48BDE8384004F0ECB920680A4DE3
:1050C00005F0D6FF2860FDF7FFFAE5E71494FF1F0F
:1050D0009F94FF1FC094FF1F4893FF1F8894FF1FDA
:1050E000D887FF1FBC0801008092FF1F30B53D4DDF
:1050F0003D4883B0294601F0C1FB2B683C2B56D0BC
:10510000B3F5407F394C08D2226836493848012A25
:1051100018BF0022FBF7F2FD2B68364A23F06043EC
:105120001A44EE2A07D822682E493148012A18BFAE
:105130000022FBF7ADFD2368012B01D003B030BD89
:105140002D4B2E481B6801930A220023019904F07D
:1051500047FC2A68234B002ADB793BDB2849294896
:1051600006F0A2FF274806F0CBFF0146254804F0D1
:1051700091F92C681B4B14F080441CD1DB798BB166
:105180002B1921491A7A1F4806F08EFF1D4806F098
:10519000B7FF01461B4804F07DF90134EB79E4B216
:1051A000A342EDD8154804F00BFC03B030BDFFF767
:1051B0005FFF2B68A4E7154D124C0FCD0FC495E887
:1051C000030044F8040B204620F81419152104F0BC
:1051D00061F9E7E70E490B4822F0604206F064FFF0
:1051E000C0E700BF9894FF1F60CAFF1F8894FF1F8D
:1051F0000095FF1FFFABAAE508CCFF1FD887FF1F54
:10520000E8080100A092FF1F14090100FC0801003A
:10521000C00801002DE9F84F9A4B9B4C1B78052BD9
:1052200008D09A48FCF7D0F8E16A06F013F9002894
:1052300000F09380964E974D002333602B60964B81
:1052400092481B68904F012B45D0FCF777F8E16935
:105250008046606905F056FE0146404606F018F9A2
:1052600000284CD18948FCF769F8E16806F010F98C
:1052700008B100232B608548834FFCF739F821697A
:1052800006F0E8F858B1002333602B68814A002B00
:1052900001DBBDE8F88F00231360BDE8F88F7B4881
:1052A000FCF726F8B96906F0D5F80028EBD1774865
:1052B000FCF71EF8D7F8BC100446B86905F024FEC8
:1052C0000146204606F0E4F8002873D0786E30607E
:1052D0000028D8DBD9E7FCF731F8E1698046206A7D
:1052E00005F010FE0146404606F0D2F80028B9D07D
:1052F0006648FCF723F8D7F82090834605E063481A
:10530000FCF71CF8D7F814908346F969484605F075
:10531000F9FD8246F86D05F0ABFE8046386E05F06B
:10532000A7FE414605F0EEFD51460746584605F0FA
:10533000E9FD0146384605F0EFFE5146074648466E
:1053400005F0E0FD0146384605F09AFF414605F0BC
:10535000DBFD06F0A7F8286084E74C48FCF734F83A
:10536000216B06F077F8002849D0494E636E474814
:105370003360FCF729F88146E06DE76A454D05F09A
:1053800077FE39468046484605F0BCFD014640465A
:1053900005F0C2FE39468046206B05F0B3FD01469C
:1053A000404605F06DFF002105F0AEFD06F07AF8ED
:1053B000286044E73548FBF79BFF8146F86DBC69E0
:1053C00005F056FE21468046484605F09BFD014605
:1053D000404605F0A1FED7F8BC108046204605F0F7
:1053E00093FD214605F08EFD0146404605F048FF3D
:1053F000002105F089FD06F055F8306068E7234884
:10540000FBF7E2FF616B06F025F830B1204E214D2D
:10541000626EE36D32602B6011E71C48FBF7D4FF2E
:10542000A16A06F017F800283FF404AF1748184E99
:10543000184DFBF7C9FF8146606ED4F8348005F043
:1054400017FE41460746484605F05CFD3946814651
:10545000002005F057FD0146484605F05DFE414637
:105460008146A06A05F04EFD0146484605F008FF5A
:10547000394605F049FD06F015F8E36D30602B6004
:10548000DDE600BFB894FF1F4893FF1F0095FF1F84
:10549000C494FF1F6C92FF1F8492FF1F08B527481A
:1054A00004F08EFA0721264803F0F4FF112002F0E1
:1054B00099FC0621F8B1234803F0ECFF122002F01A
:1054C00091FC062100B3204803F0E4FF122002F013
:1054D00089FC062108B31D4803F0DCFF132002F00D
:1054E00081FC062110BB1A4803F0D4FF1348BDE825
:1054F000084004F065BA174803F0CCFF122002F010
:1055000071FC06210028DED1134803F0C3FF1220EE
:1055100002F068FC06210028DDD1104803F0BAFF34
:10552000132002F05FFC06210028DCD00C4803F0B9
:10553000B1FF0248BDE8084004F042BAD887FF1F17
:10554000200901002809010038090100480901006B
:105550006009010030090100400901005009010003
:105560005809010010B5254C2368042B27DC0121C4
:105570000B2002F031FC01210C2002F02DFC012156
:10558000142002F029FC0121152002F025FCFF2146
:10559000162002F0A1FAFF21172002F09DFAFF2148
:1055A000052002F099FAFF21062002F095FA2368FF
:1055B00001330A2B2360C4BF0023236010BD0021E8
:1055C0000B2002F009FC00210C2002F005FC002158
:1055D000142002F001FC0021152002F0FDFB002147
:1055E000162002F079FA0021172002F075FA002146
:1055F000052002F071FA0021D6E700BFF894FF1FE2
:105600002DE9F041184CDFF86880184FD8F80030C9
:1056100023600025214608263846E671257265720A
:10562000A572E57225736573A573E57301F02EFA13
:10563000012002F00DFCD8F8003023604FF0450E39
:105640003846282201273023E6712146E57225736A
:105650006573A57384F808E06772A272E373BDE80E
:10566000F04101F013BA00BFE094FF1F60CAFF1FB2
:105670004C87FF1F10B5092182B0974802F0C6FE83
:10568000222002F06BFE954B1B78052B0BD8DFE830
:1056900013F00A010F01140119011E010600072170
:1056A0008F4802F0B3FE222002F058FEFF2002F0E5
:1056B00055FEFF2002F052FE8A4CFF2002F04EFE03
:1056C0000821894802F0A2FE2168884804F0C8F940
:1056D000FF2002F043FEFF2002F040FEFF2002F018
:1056E0003DFE0921824802F091FE21687F4804F0C6
:1056F000B7F9FF2002F032FEFF2002F02FFEFF205C
:1057000002F02CFE0C217B4802F080FE7A4B1C68D4
:105710000021204605F0BCFE002800F0C180204694
:10572000764905F0ADFD05F04DF8002402460B4624
:1057300000946E4804F09CF9FF2002F00FFEFF2059
:1057400002F00CFEFF2002F009FE09216C4802F075
:105750005DFE6C48FBF738FE05F034F80094024615
:105760000B46624804F084F9FF2002F0F7FDFF20A9
:1057700002F0F4FDFF2002F0F1FD0C21624802F07E
:1057800045FE6048FBF77EFE05F01CF800940246DB
:105790000B46564804F06CF9FF2002F0DFFDFF20B5
:1057A00002F0DCFDFF2002F0D9FD0D21574802F088
:1057B0002DFE5448FBF764FE05F004F80094024601
:1057C0000B464A4804F054F9FF2002F0C7FDFF20C1
:1057D00002F0C4FDFF2002F0C1FD09214C4802F097
:1057E00015FE4848FBF7CEFD04F0ECFF009402469E
:1057F0000B463E4804F03CF9FF2002F0AFFDFF20CD
:1058000002F0ACFDFF2002F0A9FD0C21414802F09E
:10581000FDFD3C48FBF76CFD384905F07DFC04F0CC
:10582000D1FF009402460B46304804F021F9FF20D6
:1058300002F094FDFF2002F091FDFF2002F08EFDAA
:105840000D21354802F0E2FD2E48FBF777FD2B498C
:1058500005F062FC04F0B6FF009402460B462348B4
:1058600004F006F9FF2002F079FDFF2002F076FD3A
:10587000FF2002F073FD0921284802F0C7FD284BE4
:105880001A48196804F0ECF8FF2002F067FDFF20C9
:1058900002F064FDFF2002B0BDE8104002F05EBDE2
:1058A00004F100403CE706211E4802F0AFFDFAE695
:1058B00007211D4802F0AAFDF5E607211B4802F06A
:1058C000A5FDF0E608211A4802F0A0FDEBE60B2149
:1058D000184802F09BFDE6E668090100B894FF1F36
:1058E000DCFD00003487FF1F74090100C887FF1F1B
:1058F000800901008C0901009092FF1F00007A448A
:105900009C0901000095FF1FA8090100B8090100CA
:10591000C8090100D4090100E4090100F4090100EB
:105920002487FF1FACFD0000B4FD0000C8FD00008F
:10593000D0FD0000BCFD00002DE9F0418D4DD5F8F3
:10594000B030042B3ED0032B6ED0012B00F098809A
:10595000022B01D0BDE8F081874C8848237240F2C9
:105960000E32012321462260E37101F08FF8844B4F
:105970001B685B00FF2BC8BFFF23042140224FF4AC
:1059800041702060E17122726372286D05F070FB36
:10599000696905F0C1FB7B49054605F079FD0028E2
:1059A00000F0DE802946284605F0AEFA05F0A0FD9D
:1059B00080B20312E072A3726F497048BDE8F041F3
:1059C00001F064B86C4C704AA379226043F0010383
:1059D0000822E271A371286D05F04AFB696905F0A0
:1059E0009BFB6A4905F098FB05F082FD644B684A11
:1059F0001B68126893FBF2F380B200261A1207129A
:105A0000607221465D48E372A27227722673667344
:105A1000A673E67301F03AF8A279D5F8B03066F3D0
:105A20000002032BA27190D1534C286DA372012266
:105A3000E823072140F2FF26227263722660E1719B
:105A400005F016FB696905F067FB504905F064FB3A
:105A500005F04EFD4A4B4E4A1B68126893FBF2F369
:105A600082B21E121712214644486373E2722773F2
:105A7000A67301F00BF8D5F8B030012B7FF468AFB6
:105A8000444B3D4C1B682360072280231020E271A9
:105A9000237202F0A7F9002869D13F4B1B68DFF899
:105AA000E0803B4F286D344E03EB83035B001A12FA
:105AB000A3726272D8F800303A6893FBF2F31A12BC
:105AC0006273A37305F0D4FA696905F025FB334BC3
:105AD000196805F017FA2D4905F01EFB05F008FDC1
