:1000000000800020BD0100007193000029930000D2
:1000100029930000299300002993000029930000F0
:100020002993000029930000299300007193000098
:1000300071930000299300004DB1000051B1000000
:1000400071930000719300007193000071930000A0
:100050007193000071930000719300007193000090
:100060007193000071930000719300007193000080
:100070007193000071930000719300007193000070
:100080007193000071930000719300007193000060
:1000900009770000719300007193000071930000D4
:1000A0007193000071930000719300007193000040
:1000B00071930000618600006D860000718600006B
:1000C0007D86000081860000858600007193000017
:1000D0007193000071930000719300007193000010
:1000E0007193000071930000719300007193000000
:1000F00071930000719300007193000039A100001A
:100100007193000035BE00007193000071930000F0
:1001100071930000719300007193000071930000CF
:1001200071930000719300007193000071930000BF
:1001300071930000719300007193000071930000AF
:10014000719300007193000071930000719300009F
:10015000719300007193000071930000719300008F
:100160007193000081A4000071930000719300005E
:10017000719300007193000071930000719300006F
:10018000719300007193000071930000719300005F
:10019000719300007193000071930000719300004F
:1001A000719300007193000071930000719300003F
:1001B000719300007193000071930000564B4CF254
:1001C000205210B51A804DF628121A8000BF00BFC9
:1001D00009F0D2F8514B4FF010621A60504A9A6001
:1001E000504ADA60504A136813F4807304D14F49BF
:1001F0000B604FF4A85313604D4B1A78110703D5C9
:100200001A7842F008021A704A4B4B492A221A7097
:100210004A4A4B4B8B4204D252F8040F43F8040B6A
:10022000F8E7484B484900228B4202D243F8042B9E
:10023000FAE74649464A002352F8230041F82300D2
:1002400001336F2BF8D1434B434A802103F8011B44
:100250009342FBD1414B3D4A1A60414B8A221A70AE
:10026000A3F5805324225A70A0221A709A7992071B
:10027000FCD59A79D406FCD43A4A937903F00C035E
:10028000082B384BF9D103221A7140225A719A79FE
:100290009006FCD5334A9179324B4906FBD5324A58
:1002A000324911600221516020221A709A7902F0BD
:1002B0000C020C2AFAD12E4B2E4A1A602E4B2F4AD2
:1002C0001A6000225A60072243F8042C2C4AC3F813
:1002D0000C2D62B609F008FB144B1B68DA0705D534
:1002E000284809F0E3F8284B284A1A60284B1B7865
:1002F0005B0609D5244C254B22689A4204D121483B
:1003000009F0D4F80023236009F03CF80DF066FAF8
:100310000BF030FAFEE700BF0E20054030800440AD
:10032000823F04000100002B10D0034014D0034092
:1003300002D0074000E007408092FF1F28330100F1
:100340002087FF1F8092FF1FFCD6FF1F0082FF1F28
:100350000000000000E400E05FE400E008ED00E0E1
:100360000050064000400640448004400000030165
:1003700004800440C010050014E000E0FF76010096
:1003800000002020CA2BD0621CE00340A5C3945A71
:1003900000F00740FFFFFFFFFFFFFFFFFFFFFFFF32
:1003A000FFFFFFFFFFFFFFFFFFFFFFFFFFFFFFFF5D
:1003B000FFFFFFFFFFFFFFFFFFFFFFFFFFFFFFFF4D
:1003C000FFFFFFFFFFFFFFFFFFFFFFFFFFFFFFFF3D
:1003D000FFFFFFFFFFFFFFFFFFFFFFFFFFFFFFFF2D
:1003E000FFFFFFFFFFFFFFFFFFFFFFFFFFFFFFFF1D
:1003F000FFFFFFFFFFFFFFFFFFFFFFFFFFFFFFFF0D
:10040000FFFFFFFFFFFFFFFFFFFFFFFFDEF9FFFF23
:1004100010B5054C237833B9044B13B10448AFF33E
:1004200000800123237010BD8092FF1F0000000098
:1004300024330100084B10B51BB108490848AFF33D
:1004400000800848036803B910BD074B002BFBD0A0
:10045000BDE81040184700BF000000008492FF1F55
:10046000243301008092FF1F00000000F0B400F16F
:1004700030061A4F00243146031F00F1640243F88E
:10048000044FB34241F8047F4FF0000542F8044F97
:10049000F5D10023124A134EC0F89C5047F2305455
:1004A0000121C0F8A050C0F8A450C0F8A850C0F86E
:1004B000B850C0F8B060C0F8F040C0F8AC20C0F848
:1004C000B420C0F8E43080F8C43080F8C53080F83B
:1004D000DC30C0F8F410F0BC704700BF0000A04052
:1004E000000048430000C8C238B58B7A0C46054668
:1004F0008BB30123C0F8F430CB7BFD2B5ED0087AA0
:10050000DE283DD9C87A0CF077FD4FF07C510CF015
:10051000C7FD2C490CF0BAFCC5F8A000207BEF28E1
:1005200042D80CF069FD4FF07C510CF0B9FD254923
:100530000CF0ACFCC5F8A400607BEF283AD80CF0B6
:100540005BFD4FF07C510CF0ABFD1E490CF09EFCA6
:10055000C5F8A80038BD0223C0F8F4304B7B087BF7
:100560001B01DBB243EA10100CF046FD4FF07C514A
:100570000CF096FD14490CF089FCC5F8A00038BDBC
:100580000CF03AFD4FF07C510CF08AFD0D490CF057
:100590007DFCC5F8A000E27AA37A03EB0223C5F83C
:1005A000E430207BEF28BCD90023C5F8A430607B61
:1005B000EF28C4D90023C5F8A83038BD887AFD28B3
:1005C000D2D1DCE700002C420000204290F8CC00A1
:1005D000704700BF90F8C800704700BF90F8D00087
:1005E000704700BF90F8D400704700BF0D2994BF3A
:1005F00050F82100002070472DE9F0410B4E804655
:10060000041F00F1300754F8045F314628460CF00F
:10061000E5FE30B1D8F8BC1028460CF0FDFE00B164
:100620002E46BC42EFD13046BDE8F08100002041AB
:100630002DE9F041D0F8BC704FF00008041F00F124
:10064000300654F8045F394628460CF0E5FE0849A8
:1006500048B128460CF0C2FE414620B128460CF0B5
:10066000DBFE00B1A846B442EBD14046BDE8F081C4
:100670000000A0402DE9F047D0F8BC7082464FF052
:100680000009041F00F130064FF0000854F8045F21
:10069000394628460CF0C0FE0F4950B128460CF0F0
:1006A0009DFE30B1484629460CF0F2FB08F10108E6
:1006B0008146B442EAD1CAF8E080B8F1000F02D115
:1006C0000020BDE8F08740460CF096FC0146484605
:1006D0000CF09AFDBDE8F0870000A040D0F8E000E3
:1006E000704700BF38B5D0F8F430012B03D0D0F8F4
:1006F000A040204638BDD0F8D8305BB9D0F8A4402F
:10070000D0F8A050214628460CF068FE0028F0D111
:100710002C46EEE7273350F82340204638BD00BF73
:10072000D0F8F430012B2DE9F04104D0D0F8A040EE
:100730002046BDE8F081D0F8D830002B40F0818011
:10074000D0F8A460D0F8A0500446314628460CF0FA
:100750009FFBD4F8A870394680460CF099FB794984
:100760000CF052FD4FF07C5104460CF055FE002871
:1007700065D04FF07C5128460CF04EFE4FF07C5176
:1007800010B330460CF048FE4FF07C5100285ED18B
:1007900028460CF023FE00286CD04FF07C513046E8
:1007A0000CF03AFE002865D04FF07C5138460CF032
:1007B00033FEA0B1394630460CF06AFB4FF07C5155
:1007C0000CF06EFC0446B3E728460CF007FE30B18F
:1007D0004FF07C5130460CF01FFE0028E4D14FF062
:1007E0007C5128460CF018FE002843D14FF07C5174
:1007F00028460CF011FE002843D14FF07C512846CA
:100800000CF00AFE002849D14FF07C5128460CF02C
:10081000E5FD4FF07C51002850D128460CF0DEFD5C
:10082000002856D128464FF07C510CF0D7FD30B14E
:1008300030464FF07C510CF0D1FD002856D1BDE878
:10084000F081273350F823402046BDE8F081384638
:100850000CF0E2FD00287FF46BAF4FF07C5128468E
:100860000CF0BCFD30B14FF07C5138460CF0D4FD9B
:1008700000289FD14FF07C5130460CF0AFFD00288E
:100880003DD14FF07C5130460CF0C6FD30B14FF0F9
:100890007C5138460CF0A2FD002848D14FF07C5125
:1008A00030460CF09BFD0028AED04FF07C5138460E
:1008B0000CF094FD0028A7D02C4639E730460CF008
:1008C000ABFD30B14FF07C5138460CF087FD00286D
:1008D00034D14FF07C5130460CF080FD0028A7D079
:1008E0004FF07C5138460CF097FD48BB38464FF02E
:1008F0007C510CF073FD0028A1D0134C18E74FF089
:100900007C5138460CF088FD38B94FF07C513046A8
:100910000CF082FD0028BAD1C7E7394628460CF012
:10092000B7FA4FF07C510CF0BBFB044600E74046A1
:100930004FF07C510CF0B4FB0446F9E63446F7E680
:100940003C46F5E6000040400000A0C2D0F8F4208C
:10095000012A70B503D0D0F8A040204670BDD0F871
:10096000D820002A37D10446FFF7DAFE4FF07C5139
:100970000CF052FD70B3D4F8A0604FF07C513046BB
:100980000CF04AFDD4F8A45050BBD4F8A8404FF066
:100990007C5128460CF040FD58B1294630460CF0F9
:1009A0003BFD30B1214628460CF018FD08B12C461D
:1009B000D3E74FF07C5120460CF02EFD50B1284675
:1009C00021460CF029FD28B1304621460CF024FDCB
:1009D0000028C2D170BD273250F82240204670BD99
:1009E000304629460CF0FAFCD4F8A8400028CED0B6
:1009F000304621460CF0F2FC0028C8D03446ACE763
:100A00002DE9F047814684B01546032900F276812E
:100A1000DFE811F0F600B500740004004FF0000AA2
:100A200080F8ECA0937A507A1B0103EB101000F5CC
:100A30007A700CF0E1FABA490CF032FBD9F80040B8
:100A4000C9F830004846FFF781FFD9F8AC100546D9
:100A50000CF0C4FC08B1C9F8AC50D9F8F430012B43
:100A600000F02D81D9F8A050D9F8B01028460CF02C
:100A7000D3FC08B1C9F8B05009F13406C84609F1F1
:100A800068050D2701E058F8044F316820460CF046
:100A9000A5FC30B1D9F8BC1020460CF0B3FC00B175
:100AA0003460296820460CF0B7FC04369D4920B11B
:100AB00020460CF0B1FC00B12C60013F05F10405AB
:100AC000E1D1BAF1000F00F0DB80974CD9F8E810C3
:100AD00023680193019AD9F8F030521A9A4280F0B3
:100AE000D88022680292029A0B449B1A41F2873204
:100AF000934240F21B8104B0BDE8F0874FF0000A3A
:100B000080F8ECA0937A507A1B0103EB101000F5EB
:100B10007A700CF071FA82490CF0C2FAC9F8200020
:100B20002B7B687B1B1103EB001000F57A700CF037
:100B300063FA7B490CF0B4FAC9F828002B7BEA7AF7
:100B40001B0203F47063981800F57A700CF054FAE5
:100B500073490CF0A5FAC9F82400EB7BAA7B1B02B1
:100B600003F47063981800F57A700CF045FA6C493C
:100B70000CF096FAD9F80040C9F82C0062E74FF063
:100B8000000A80F8ECA0937A507A1B0103EB101056
:100B900000F57A700CF030FA61490CF081FAC9F86E
:100BA00010002B7B687B1B1103EB001000F57A70A3
:100BB0000CF022FA5A490CF073FAC9F818002B7B92
:100BC000EA7A1B0203F47063981800F57A700CF04F
:100BD00013FA53490CF064FAC9F81400EB7BAA7BB2
:100BE0001B0203F47063981800F57A700CF004FA95
:100BF0004B490CF055FAD9F80040C9F81C0021E720
:100C00004FF0000A80F8ECA0937A507A1B0103EBB6
:100C1000101000F57A700CF0EFF941490CF040FA31
:100C2000C9F800002B7B0446687B1B1103EB001006
:100C300000F57A700CF0E0F939490CF031FAC9F896
:100C400008002B7BEA7A1B0203F47063981800F506
:100C50007A700CF0D1F932490CF022FAC9F804008C
:100C6000EB7BAA7B1B0203F47063981800F57A7083
:100C70000CF0C2F92A490CF013FAC9F80C00E1E6AD
:100C8000294B1B680093009BC9F8E83004B0BDE80D
:100C9000F0870020A9F1040309F11C0143F8040FB7
:100CA00099424FF00002F9D1C9F89C20C9F8A02060
:100CB000C9F8A420C9F8A82004B0BDE8F087D9F885
:100CC000D830FBB9D9F8A050D9F8A46028463146ED
:100CD0002F460CF083FB00B137463846D9F8B010E8
:100CE0000CF09AFB00283FF4C7AE284631460CF0C2
:100CF00075FB00283FF4BEAE3546BBE690F8ECA08D
:100D000004689FE603F12705D9F8B01059F82500CB
:100D10000CF082FB00283FF4AFAE59F82550A9E64D
:100D20006F12833A0000A04084D4FF1F02211348B1
:100D30000AF0E6F812480AF083FB062111480AF08F
:100D4000DFF83B460A2299F8DC100D480AF08CFBCC
:100D500019210D480AF0D4F823680393D9F8E82044
:100D6000D9F8F030039906481A44511A3B460A2232
:100D70000AF07AFB02480AF063FBBCE6882901000E
:100D80000888FF1F80160100881601002DE9F8432E
:100D90000026D0F8BC80C0F89C608146041F00F19A
:100DA000300754F8045F414628460CF035FB0949EA
:100DB00050B128460CF012FB30B1304629460CF0F9
:100DC00067F80646C9F89C00BC42EAD13046BDE847
:100DD000F88300BF0000A04002299ABF283150F8D4
:100DE00021000020704700BF3E2998BF80F8DC102A
:100DF000704700BFD0F8F400704700BFD0F8E4009F
:100E0000704700BF90F8C400704700BF90F8C5005D
:100E1000704700BFC0F8D810704700BF80F8C410FA
:100E2000704700BFC0F8C010704700BF80F8C51001
:100E3000704700BF30B50F4CC0F8BC1083B02046DF
:100E40000D460AF0FDFA20460AF0FAFA28460BF0A1
:100E50007DFC022502460B46009520460AF04CFB1D
:100E600020460AF0EDFA204603B0BDE830400AF013
:100E7000E7BA00BF0888FF1F70B500F57455064635
:100E8000343500F12C042046F834FFF7EFFAAC4279
:100E9000F9D106F59275012428460021FFF7BEFF1F
:100EA000214628460134FFF79FFF3F2C05F1F80546
:100EB000F2D143F63C5400250548064A064B355509
:100EC000002130617161B261F361304670BD00BFD5
:100ED00000007A44000048430000C8C270B500F525
:100EE0009274012500260DE0012620460021FFF71F
:100EF0009DFF294620460135FFF776FF3F2D04F17F
:100F0000F8040ED02046FFF77DFF0028EDD02046E4
:100F1000FFF77CFF06460028E6D120463146FFF762
:100F20007DFF304670BD00BF30B50B4C8162054679
:100F300083B020460AF084FAA86A0BF007FC032568
:100F400002460B46009520460AF0D6FA204603B02A
:100F5000BDE830400AF074BA0888FF1F2DE9F04F51
:100F600083B00546019100F592774FF001093846AC
:100F7000FFF748FF002847D0002634464FF0010B0A
:100F8000A96AA8680BF084FF214680463846FFF71F
:100F90002DFB014640460CF021FA18B10BFA04F380
:100FA0001E43B6B201340C2CEAD1019B012B3AD07E
:100FB0006D4C00222146082046FA02F313F001038B
:100FC00002F1010214BF08700B70082A01F101013F
:100FD000F2D109F1FF38B8F1070F21D8DFE808F0A6
:100FE000A29C96908A847E3C604BCBF800309BF8A4
:100FF00006305F495F4843F001038BF80630082351
:101000008BF8073007F0CCF909F10109B9F13F0F6E
:1010100007F1F807ABD1564B9A796FF300029A713A
:1010200003B0BDE8F08F54480AF00AFA072153488C
:1010300009F066FF494650480AF056FA0321504825
:1010400009F05EFF0023102231464B480AF00CFAEB
:1010500049480AF0F5F9ABE7DFF814B1494BCBF892
:1010600000309BF806304249424843F001034FF0FC
:10107000080A8BF806308BF807A007F091F9534661
:10108000504646FA03F212F0010203F1010314BFC5
:10109000207022700D2B04F10104F2D1FE238BF895
:1010A0000C308BF80D308BF80E308BF80F30B8F118
:1010B000070FB5D801A353F828F000BF6111000055
:1010C00059110000511100004911000041110000A8
:1010D0003911000031110000E90F0000DFF890B075
:1010E000294BCBF80030BCE7DFF884B0274BCBF8B6
:1010F0000030B6E7DFF878B0254BCBF80030B0E72A
:10110000DFF86CB0234BCBF80030AAE7DFF860B013
:10111000214BCBF80030A4E7DFF854B01F4BCBF8DD
:1011200000309EE7DFF848B01D4BCBF8003098E761
:101130001C4BCBF800305AE71B4BCBF8003056E77E
:101140001A4BCBF8003052E7194BCBF800304EE782
:10115000184BCBF800304AE7174BCBF8003046E786
:10116000164BCBF8003042E7A492FF1F1954551AD2
:101170009C92FF1FDCD2FF1F0888FF1FA4160100EE
:10118000AC1601001854551A1654551A1454551A11
:101190001254551A1054551A0E54551A0C54551A07
:1011A0000A54551A1754551A1554551A1354551AEA
:1011B0001154551A0F54551A0D54551A0B54551AEB
:1011C000F8B500F57557002300F574563B603436CA
:1011D00000F5927402E0F834B4420DD02046FFF7D7
:1011E00011FE0028F7D020463D68FFF777FAF83463
:1011F0002844B4423860F1D13868F8BDF0B5012B0D
:1012000083B00D4617462CD0022B01D003B0F0BDA1
:101210004B7BDF2BFAD00E6806F00F060136C6EBCB
:10122000461400EBC40000F12C0420460121FFF716
:10123000F5FD20460121FFF7F9FD29462046FFF77D
:1012400053F9012FE2D118480AF0FAF8314616484E
:101250000AF04AF915480D2103B0BDE8F04009F045
:101260004FBE0E68019306F00F06C6EB461400EB66
:10127000C40000F12C0419462046FFF7CFFD019B66
:1012800020461946FFF7D2FD29462046FFF72CF9E4
:10129000012FBBD104480AF0D3F8314602480AF0C6
:1012A00023F90D210248D7E70888FF1FC016010067
:1012B000B01601008B7AFF2B30D04B7BFF2B2DD04B
:1012C000CB7BFF2B2AD00B68A3F5D8732DE9F04117
:1012D0003E2B21D8DFE803F09D9A9794918E8B885E
:1012E00085827F7C797673706D6A6764615E5B5816
:1012F0004C494643524F554023E5E2DFDCD9D62026
:10130000D3D0CD20CAC7C420C1BEBB20B8B5B2203F
:10131000AFACA920A6A3A000BDE8F08170470027CC
:101320000925012A904606460C4600F0BD80C5EB13
:10133000451506EBC50000F12C0528460121FFF7F5
:101340006DFD28460121FFF771FD224639462846EA
:10135000BDE8F041FFF754BB03270825E1E7032769
:101360000725DEE702270725DBE701270725D8E762
:1013700000270725D5E701270825D2E700270825FC
:10138000CFE702270825CCE703270625C9E7022770
:101390000625C6E701270625C3E700270625C0E77F
:1013A00003270525BDE702270525BAE701270525FF
:1013B000B7E700270525B4E703270425B1E702278F
:1013C0000425AEE701270425ABE700270425A8E79D
:1013D00003273D46A5E702270325A2E701270325AA
:1013E0009FE7002703259CE70327022599E70227AB
:1013F0003D4696E70127022593E70027022590E75F
:10140000032701258DE7022701258AE701273D46AD
:1014100087E70027012584E70227102581E70127B8
:1014200010257EE7002710257BE702270F2578E7A8
:1014300001270F2575E700270F2572E702270E25E4
:101440006FE701270E256CE700270E2569E70227C5
:101450000D2566E701270D2563E700270D2560E7C9
:1014600002270C255DE701270C255AE700270C25EC
:1014700057E702270B2554E701270B2551E70027E3
:101480000B254EE702270A254BE701270A2548E7E7
:1014900000270A2545E70327092542E702270925F2
:1014A0003FE7012709253CE7094809F0C9FF29461C
:1014B00007480AF019F84146064809F021FD394667
:1014C00003480AF011F8024809F0BAFF2FE700BFFD
:1014D0000888FF1FD01601002DE9F043002383B0D8
:1014E0000646036000F59274012504E001353F2DA6
:1014F00004F1F80466D02046FFF784FC0028F5D0FC
:101500004E4800F02FFD29464D4800F02BFD2046A7
:10151000FFF73CFC0BF01AF902460B46494800F075
:1015200021FD2046FFF768F880462046FFF780F847
:10153000074640460BF00AF98046384689460BF0CC
:1015400005F942464B46CDE900013F4800F00AFD4F
:1015500000212046FFF740FC012180462046FFF78E
:101560003BFC074640460BF0F1F88046384689467A
:101570000BF0ECF842464B46CDE90001334800F051
:10158000F1FC2046FFF702FC014630680BF080FCBE
:1015900030602046FFF7DAF9B1690BF01FFF002831
:1015A00033D12046FFF79EF8F1690BF035FF002894
:1015B0009CD02046FFF796F801353F2DF06104F1ED
:1015C000F80498D170680BF017FD014630680BF0F5
:1015D0001BFE7169306004460BF01EFF00B17461A0
:1015E000316920460BF0FAFE00B134610B2008F09F
:1015F000F7F843F63C53F35C60B99BB143F63C53B8
:101600000122F25403B0BDE8F0832046FFF79EF9B3
:10161000B061C6E753B943F63C530022F25403B01D
:10162000BDE8F0830A4800F0CBFCE7E7094800F08A
:10163000B1FC43F63C530022F254F0E7301D0100A8
:10164000D4160100101701002417010050170100E3
:101650006C170100A417010070B5114B836000F5F1
:1016600074550646343500F5927402E0F834AC4205
:1016700013D02046FFF7C6FB0028F7D02046FEF720
:10168000BBFFB1680BF0AAFE0028EFD02046FEF7A2
:10169000B3FFF834AC42B060EBD1B06870BD00BFAE
:1016A0000000A04070B5002300F574550646C360E5
:1016B000343500F5927402E0F834AC4213D0204681
:1016C000FFF7A0FB0028F7D02046FEF7B1FFF16836
:1016D0000BF0A2FE0028EFD02046FEF7A9FFF83459
:1016E000AC42F060EBD1F06870BD00BF006870479D
:1016F00043F63853C0587047416070472DE9F041B8
:1017000000F57455884617461E46343500F5927428
:1017100002E0F834AC4213D02046FFF773FB0028F8
:10172000F7D020464146FFF775FB20463946FFF7C4
:1017300081FB20463146F834FFF774FBAC42EBD115
:10174000BDE8F0812DE9F041274A284B426200F5BF
:10175000745507464FF000080362343500F5927463
:10176000002602E0F834A54210D02046FFF74AFBDD
:101770000028F7D02046FEF7D3FF1D490BF04CFEA2
:1017800080B9F834A54206F10106EED143F638538C
:10179000F858801B0BF030FC014640460BF034FD3E
:1017A000BDE8F0812046FEF7BBFF014640460BF046
:1017B0006FFB80462046FEF795FF396A0BF02CFE42
:1017C00060B92046FFF7C2F8796A0BF007FE0028DF
:1017D000C8D02046FFF7BAF87862C3E72046FEF784
:1017E00081FF3862EDE700BF00C0794400C079C4D2
:1017F00000008CC2006A7047406A70472DE9F041D2
:1018000043F6385300F574552E4600228046C250E8
:1018100000273435383600F5927402E0F834AC42D3
:101820001AD02046FFF7EEFA0028F7D02046FEF740
:1018300021FF00210BF0F0FD0028EFD02046FEF73D
:1018400019FF014638460BF023FB3368F8340133A7
:10185000AC4207463360E4D143F6385358F80300EE
:101860000BF0CAFB014638460BF0CEFCBDE8F08118
:101870002DE9F04F06468FB092488B4600F01AFBD8
:10188000904800F017FB8F4800F014FB43F63853E4
:101890003046F2580D92FFF793FC73680C9307469D
:1018A00030680AF053FF804630468946FFF7A6FFAE
:1018B00082463046B468F568FFF744FF0AF046FFF9
:1018C000CDE90A01214628460BF0E0FA7E490BF0EB
:1018D000E7FB0AF03BFFCDE9080128460AF036FF96
:1018E000CDE9060120460AF031FFCDE9040150465A
:1018F0000AF02CFF0D9A0C9BCDE90201CDE900897D
:10190000114672483A4600F0D5FA6E4800F0D2FA15
:1019100006F592764FF001094FF0000A07E009F151
:101920000109B9F13F0F06F1F80600F09580304645
:10193000FFF768FA0028F2D03046FEF747FE30463F
:10194000FEF748FE3046FEF749FE3046FEF74AFEF7
:1019500008215F4809F0D4FA49465E4809F0C4FD01
:10196000B9F1090F40F3A88002215B4809F0C8FAD9
:101970003046FFF70BFA0AF0E9FE5FFA8BF80246F1
:101980000B46CDF80080534809F0B6FD01215348BD
:1019900009F0B6FA5546002420E00621504809F027
:1019A000AFFA29464B4809F09FFD02214D4809F046
:1019B000A7FA21463046FEF719FE0AF0C7FECDF819
:1019C000008002460B46434809F096FD0134012190
:1019D000424809F095FA0D2C09D03D46092D05F134
:1019E0000107DADC0121404809F08AFAD5E73948D5
:1019F00009F026FD3046FFF7FDF90446012C0AF1F7
:101A00000D0A4FF00901394829D009F079FA00216F
:101A10003046FFF7E1F90AF099FE022402460B4630
:101A200000942C4809F068FD0E21314809F068FA4D
:101A30003046FFF7E3F9002301461022254809F05C
:101A400013FD09F10109234809F0FAFCB9F13F0F30
:101A500006F1F8067FF46BAF0FB0BDE8F08F09F028
:101A60004FFA00213046FFF7B7F90AF06FFE022562
:101A700002460B460095174809F03EFD0A211D4815
:101A800009F03EFA21463046FFF7A6F90AF05EFE5D
:101A9000009502460B460F4809F02EFD0A21164814
:101AA00009F02EFA29463046FFF796F90AF04EFE65
:101AB000009502460B46B4E701210B4809F020FAD5
:101AC00052E700BF301D010000007A44541A0100A3
:101AD000F41A01000888FF1F88290100001B01007B
:101AE000041B0100AC1B0100BC1B01000C1B01000E
:101AF000301B0100181B0100241B01002DE9F04FD1
:101B000085B000F592758A4603929B462E464FF0AB
:101B1000010806E008F10108B8F13F0F06F1F806E8
:101B20007BD03046FFF76EF90028F3D000230A225D
:101B30005146874809F098FC0121864809F0E0F9F0
:101B400003980AF003FE00230246009380480B46E8
:101B500009F0D2FC01217F4809F0D2F959467C48AE
:101B600009F0C2FC01217B4809F0CAF941467848D6
:101B700009F0BAFC0121774809F0C2F900244FF0BE
:101B8000020921463046FEF731FD0AF0DFFDCDF8AF
:101B9000009002460B466E4809F0AEFC013401216C
:101BA0006C4809F0ADF9082C4FF00207E9D100218B
:101BB0003046FFF711F90AF0C9FD009702460B46BF
:101BC000634809F099FC0121624809F099F9012163
:101BD0003046FFF701F90AF0B9FD009702460B46BF
:101BE0005B4809F089FC01215A4809F089F9394616
:101BF0003046FFF7F1F80AF0A9FD009702460B46C0
:101C0000534809F079FC08F10108514809F018FC23
:101C1000B8F13F0F06F1F80683D14FF001084FF0FD
:101C2000000906E008F10108B8F13F0F05F1F805D9
:101C30005DD02846FFF7E6F80028F3D000230A22FB
:101C40005146454809F010FC0121424808F020F9AE
:101C500003980AF07BFDCDF8009002460B463E4803
:101C600009F04AFC01213B4808F012F959463A486C
:101C700009F03AFC0121374808F00AF94146364894
:101C800009F032FC0121334808F002F90024022750
:101C900021462846FEF7AAFC0AF058FD00970246A6
:101CA0000B462D4809F028FC01340121294808F091
:101CB000EFF80D2C4FF00206EAD12846FFF79AF80C
:101CC0000446012C4FF00001284613D0FFF784F89A
:101CD0000AF03CFD08F10108024600960B461E483A
:101CE00009F00AFCB8F13F0F05F1F805A1D105B0E4
:101CF000BDE8F08FFFF770F80AF028FD0096024665
:101D00000B46154809F0F8FB2146124808F0C0F8C8
:101D100021462846FFF760F80AF018FD00960246B3
:101D20000B460D4809F0E8FB21460A4808F0B0F8D8
:101D300031462846FFF750F80AF008FD00960246A3
:101D40000B46054809F0D8FB034809F079FB69E721
:101D50000888FF1FD0160100DC87FF1F014B187099
:101D6000704700BF2087FF1F0278002A00F0908094
:101D700070B5034682B00D46252A2AD158785C1CDE
:101D800008B325282FD0732831D0642824D069289F
:101D900022D066284FD07A2859D0782835D05828B4
:101DA0002FD062283ED0422838D06C2814D0632827
:101DB00012D0742857D054285FD009F025F96278E2
:101DC000631C002AD8D1344802B0BDE8704009F045
:101DD00037BB18781C46F0E72B1D29682E481D4696
:101DE00009F082FBEBE7104609F00EF9E7E72E68F1
:101DF00030460CF0E5FA01463046043509F080F82B
:101E0000DDE70221254809F07BF82E1D29682248CC
:101E100000231022354609F027FBD0E70221204895
:101E200009F06EF82E1D29681B4800230222354652
:101E300009F01AFBC3E7073525F007050321D5E9AB
:101E4000002315480091083509F056FBB7E7073520
:101E500025F007050021D5E900230F48009108353A
:101E600009F04AFBABE7296801290EBF0D480E486F
:101E70000121043509F044F8A1E72B68012B07BFC5
:101E800004210A480A480521043509F039F896E783
:101E9000014809F0D5BA00BF0888FF1F401B0100A8
:101EA000441B0100481B01004C1B0100501B01009A
:101EB000581B01000FB400B583B004A951F8040BFE
:101EC0000191FFF751FF03B05DF804EB04B07047D8
:101ED00070B51B4B1B4C1B6882B00D460193019BD8
:101EE0002360194604460023164617480A2209F0C3
:101EF000BBFA0321154809F003F8032C07D8DFE8E3
:101F000004F01A1510020521114808F0F9FF02210A
:101F1000104808F0F5FF31462846FFF725FF02B0CC
:101F200070BD07210C4808F0EBFFF0E704210B48D7
:101F300008F0E6FFEBE70521094808F0E1FFE6E7D6
:101F400084D4FF1FAC92FF1F0888FF1F601B010095
:101F50007C1B0100AC1B0100741B01006C1B010009
:101F6000641B01000FB400B5094B187883B020B191
:101F700003B05DF804EB04B0704705AB1A46049952
:101F80000193FFF7A5FF03B05DF804EB04B07047C1
:101F90002087FF1F0FB4094B00B51B78012B83B0BE
:101FA00004D903B05DF804EB04B0704705AB1A46E2
:101FB000049901930120FFF78BFFF2E72087FF1FB1
:101FC0000FB40B4B00B51B78032B83B004D903B0BF
:101FD0005DF804EB04B0704705AB1A460499019311
:101FE0000320FFF775FF03B05DF804EB04B0704702
:101FF0002087FF1F30B4074D074C084900232B7082
:10200000236003654365836580F85C300B6030BCFA
:10201000704700BFB892FF1FB492FF1FB092FF1F1E
:102020000A4A0B49D06D936D03FB00F34FF47A70AD
:1020300000FB03F0642310B50B600AF0DDFF0549D7
:10204000054C0BF0E1F8206010BD00BF78D1FF1FF8
:102050003487FF1FE4388E3EA0D2FF1F10B4019CCE
:10206000521AA4EB030412D0401A002C04FB00F017
:1020700002EBD27111DB00EB610101FB02F00028E1
:1020800091FBF2F10B4414DB184610BC704704EBD3
:10209000D47003EB600010BC7047A0EB610000FB44
:1020A00002F1002990FBF2F01844EEDB013010BC85
:1020B0007047581E10BC704710B5074C204609F0F9
:1020C000BFF9064B2046196809F00EFA03210448AF
:1020D000BDE8104008F014BF0888FF1F5C93FF1F85
:1020E000841B010038B5044608460D460CF068F91B
:1020F0002368024629465B682046984705462046E5
:1021000009F09EF9284438BD2DE9F8434848494D67
:10211000494F4A4CFFF7CEFE494BDFF850E14949A1
:10212000494A4A485D601226494D1E70DF6000260C
:10213000484F1C61C3F818E0474C59614FF00C0E32
:1021400046495A629862464A4648DD621E63464DD9
:102150005F6340F61C460A279C63C3F854E041F2D3
:102160000404DFF80CE19964DA64022101221862A8
:10217000C3F8C45000204FF07C55DE661F6764260C
:102180004FF496775C67C3F81CE03224C3F83CE058
:102190004FF05A0E597059721A729A6583F84000BE
:1021A0009F661F665C665D64DE654FF47A78C3F8EF
:1021B00078E0DFF8C0C0D867C3F88010C3F8D42037
:1021C000C3F88400C3F89C40C3F8AC40DFF8A8E033
:1021D000C3F8A80044F62069C3F8B420C3F8B810C7
:1021E000FF2741F28831052483F8C8204FF4FA70A4
:1021F00083F8C92040F2D662C3F8BC601D65C3F8FD
:10220000A080C3F890C0C3F894E0C3F88C90C3F8E2
:10221000B070A3F8C240A3F8CA00C3F89810A3F89E
:10222000C010A3F88820A3F88A20BDE8F88300BF77
:10223000881B010020A10700666686400000404020
:1022400078D1FF1F33338340CDCCCC3D0000824298
:10225000000020C1000020420000A0409A9979406F
:102260000AD7233D333373409A99993ECDCC4C40E5
:10227000CDCC4C3E0000684200C0204470B5464CB6
:10228000464D4748E66800232B70FFF70BFA0146DE
:1022900030460BF0A3F808B104232B704048FFF739
:1022A000DBF921690BF09AF818B12B7843F0100391
:1022B0002B703B48FFF79EFAA16A0BF0ADF818B1FE
:1022C0002B7843F040032B70002335486B70FFF7E9
:1022D00093FAE16A314E0BF081F808B10123737073
:1022E00000232F48EB70FFF7DDF905462C482B4EF5
:1022F000FFF7B2F9014628460AF0C8FDE16B0BF082
:102300008BF808B10123F370264D254800232B706C
:10231000FFF7C8F9616A0646E0680AF0B7FD0146B2
:1023200030460BF079F808B104232B701C48FFF7F6
:1023300093F9616A064620690AF0AAFD0146304613
:102340000BF04CF818B12B7843F010032B701448A5
:10235000FFF750FAA16B0646A06A0AF097FD014606
:1023600030460BF059F818B12B7843F040032B702E
:1023700000230B486B70FFF73FFAA16B0546E06A3C
:10238000084C0AF085FD014628460BF027F808B1F5
:102390000123637070BD00BF78D1FF1F64D1FF1FA0
:1023A0006C93FF1FC092FF1F2DE9F041844C2368FE
:1023B000012B82B027D0022B00F09E80032B00F06F
:1023C000BE80EBB97F4B8048D3F8AC20D3F8B01077
:1023D0000368891A002903FB01F37C49C0F2D1800C
:1023E000323381FB0301D817C0EB6111002B11447C
:1023F000C0F2DC80062002B0BDE8F04107F06AB808
:1024000002B0BDE8F081724E33680A33B3F57A7FCB
:1024100000F3C780184633600AF0EEFD6D490AF0FC
:102420003FFE8046674DD5F8AC000AF0E5FD074653
:10243000D5F8B0000AF0E0FD39460AF027FD414624
:102440000AF02EFE64490AF0DFFE39460AF020FD4C
:102450000AF0ECFF0146062007F03CF802215F4835
:1024600008F04EFD5E4808F0EBFF06215D4808F0DD
:1024700047FD30680AF0C0FD56490AF011FE0AF027
:1024800065F9022702460B460097554809F034F8D3
:102490000D21554808F034FDD5F8AC000AF0ACFD2C
:1024A000804630680AF0A8FD4A490AF0F9FD064660
:1024B000D5F8B0000AF0A0FD41460AF0E7FC01465D
:1024C00030460AF0EDFD44490AF09EFE41460AF00E
:1024D000DFFC0AF03BF900970B460246404809F042
:1024E0000BF839463D4808F00BFD3D4808F0A8FFC1
:1024F0002368022B7FF462AF354B324E00221A6004
:10250000D6F8AC000AF078FD0546D6F8B0000AF01F
:1025100073FD29460AF0BAFC00210AF0C1FD2E49DC
:102520000AF072FE29460AF0B3FC0AF07FFF01466A
:10253000062006F0CFFF2368032B7FF442AF244B25
:10254000204E4FF47A721A60D6F8AC000AF054FDAF
:102550000546D6F8B0000AF04FFD29460AF096FC71
:102560001D490AF09DFD1C490AF04EFE29460AF05D
:102570008FFC0AF05BFF0146062006F0ABFF2368E4
:102580001FE7323B81FB0310D917C1EB6011002B11
:102590000A4412DB511C062002B0BDE8F04106F0EF
:1025A00099BF00234FF0000833603BE70139062054
:1025B00002B0BDE8F04106F08DBF11461AE700BF3A
:1025C000E892FF1F78D1FF1F3487FF1F1F85EB5153
:1025D00050D2FF1FCDCCCC3D0000C842882901005D
:1025E0000888FF1FA81B0100B01B010070B5B5488B
:1025F000B54C08F025FFB34808F022FFB14808F0B9
:102600001FFF0D21B14808F07BFCD4F8A830012B46
:1026100000F0B180AE4CAB48217800230A2208F0CC
:1026200023FF2378052B0BD8DFE813F0F100F60029
:10263000FB000001050106000721A64808F060FC28
:102640000221A54808F05CFC122007F0C9F8012817
:1026500000F02081112007F0C3F8012800F0248148
:102660009E4B1B68012B00F0288102219A489C4C4C
:1026700008F046FC9B4B9348196808F035FF9148D9
:1026800008F0DEFE0421984808F03AFC0B2007F021
:10269000A7F8002301460A228A4808F0E5FE0C202C
:1026A00007F09EF8002301460A22864808F0DCFE67
:1026B000142007F095F8002301460A22814808F00B
:1026C000D3FE152007F08CF80A22002301467D482E
:1026D00008F0CAFE0621854808F012FC2368DD07D1
:1026E0004FF001014CBF8248824808F009FC236882
:1026F00098074FF001014CBF7D487E4808F000FC70
:1027000023685A074FF001014CBF7948794808F017
:10271000F7FB23681B074CBF75487648012108F07A
:10272000EFFB0421744808F0EBFB112007F058F888
:10273000002301460A22634808F096FE102007F0A5
:102740004FF8002301460A225E4808F08DFE122051
:1027500007F046F8002301460A225A4808F084FE92
:10276000132007F03DF8002301460A225548BDE832
:10277000704008F079BE0921604808F0C1FB60484C
:10278000FEF76AFF21690AF029FE002862D15C4841
:10279000FEF788FFE1680AF03FFE002864D1584840
:1027A000FEF780FF05465648FEF756FF01462846CD
:1027B0000AF06CFBE16B0AF02FFE00284FD1504865
:1027C000FEF7C0FFA16A0AF027FE00283DD14C4861
:1027D000FEF7B8FFE16A0AF001FE002830D1494B4C
:1027E00047481B68012B00F0AF80FEF735FF2169D9
:1027F000354D0AF011FE00283BD10721424808F070
:102800007FFB424B2F48196808F06EFE18E706213F
:102810003F4808F075FB13E707213E4808F070FBBE
:102820000EE707213C4808F06BFB09E708213B480D
:1028300008F066FB04E70B21394808F061FBFFE66E
:102840000D21384808F05CFBC9E70C21364808F038
:1028500057FBBCE70F21354808F052FB97E71121E1
:10286000334808F04DFBAAE70E21324808F048FB38
:1028700095E72348FEF716FFE9680AF0AFFD002848
:10288000BBD0134B1B78052B6ED008212A4808F0CB
:1028900037FBB2E70E21294808F032FB112006F081
:1028A0009FFF01287FF4DCAE0A21254808F028FBB1
:1028B0000A4B1B68012B7FF4D8AE1121214808F088
:1028C0001FFBD2E60888FF1F78D1FF1FC01B010045
:1028D0006CD1FF1F981C01008829010094D2FF1FB2
:1028E000C0D2FF1FC492FF1FD01C0100D81C0100E2
:1028F000E01C0100142D0100E41C0100D01B0100AC
:102900006C93FF1FF892FF1F601C0100F492FF1FE1
:10291000681C0100701C0100841C01008C1C01005B
:10292000781C0100201C0100101C0100DC1B0100B0
:10293000FC1B0100EC1B0100541C0100A01C010049
:10294000B01C0100BC1C0100FEF786FE216A0AF0E3
:1029500063FD002899D01621064808F0D1FA0A2113
:10296000054808F0CDFA48E70A21034808F0C8FAFC
:1029700043E700BF301C0100481C01002DE9F04F67
:10298000AB4CD4F88060012E8DB000F07981032E1D
:1029900000F0CC80DFF8DC82A64FA74EE36FA7489B
:1029A000012B09BF3168316801F10041316006F047
:1029B00015FA3B68002B40F09F80A048DFF8B492E6
:1029C00006F0E2F93B68C8F800000546002B44D148
:1029D000D4F88030964A012B53D0994928460AF002
:1029E0001BFDC0B9974928460AF0F8FC98B9964AE9
:1029F000964B12680B920B9A1A60D4F8B4000AF046
:102A0000FBFA29460AF04CFB0023C8F800003360AB
:102A10000DB0BDE8F08FDFF830A28C4FDAF800304F
:102A20000A930A983B68DFF85092C01A0AF0E0FA5D
:102A300029460AF035FB86490AF0E6FB84490AF08C
:102A4000E3FBD9F800100AF023FADAF80030099312
:102A5000099BC9F800003B60CFE709F077FE02252B
:102A600002460B4600957B4808F046FD04217A4853
:102A700008F046FAD4F88030D9F800506C4A012B9F
:102A8000ABD1764B1B68012B00F0DA81022BB4D15D
:102A9000D2F88C7038460AF0AFFA29460AF09EFC4C
:102AA00040B978420AF0A8FA29460AF0B5FC002895
:102AB00000F0F981DFF890A1644FDAF80030079355
:102AC00007983B68DFF8B091C01A0AF091FA2946DE
:102AD0000AF0E6FA5E490AF097FB5D490AF094FBBA
:102AE000D9F800100AF0D4F9DAF800300693069B02
:102AF000C9F800003B6080E7504806F045F909F04E
:102B000025FE022502460B460095524808F0F4FCCB
:102B10000321534808F0F4F9D4F88C104D4808F01C
:102B2000E3FC03214E4808F0EBF946E74D4D4B4FCF
:102B30002B68DFF84081D3F884000F2101233B602C
:102B400006F0DAF83B683B4F012B3B6800F0BF8092
:102B5000002B40F03D812B68DFF82091D3F88400F2
:102B6000436B19698EB2C9F8006005F047FEB4F8EE
:102B70008A2040F6E44303FB06F1B1FBF0F0801A33
:102B800000B20AF039FA38492B4E8246D4F8900048
:102B90000AF086FA014650460AF036FBD9F80030B2
:102BA0003060632BDFF8D4A000F30681002333608C
:102BB0003B68002B3FF4F2AE02212C4808F0A0F94C
:102BC0002B68D9F80050D3F8840040F6E44303FBA7
:102BD00005F505F013FEB5FBF0F00AF009FA05461D
:102BE000B4F88A000AF008FA014628460AF04EF9BD
:102BF00009F0ACFD022502460B460095154808F089
:102C00007BFC2946194808F07BF9306809F09EFDE5
:102C1000009502460B460F4808F06EFC2946144802
:102C200008F06EF92946114808F06AF9B6E600BFC7
:102C300078D1FF1FEC92FF1FB0D2FF1F6CD2FF1F95
:102C40000000FA430000FAC384D4FF1F60D1FF1FC5
:102C500000007A440888FF1F2C1D01004C87FF1FCD
:102C6000AC160100D0D2FF1FACC527378829010060
:102C7000281D010068D1FF1FA0D2FF1FD8D2FF1F5F
:102C8000DFF80883D4F88C70D8F8005038460AF082
:102C9000B3F929460AF0C0FB48B178420AF0ACF912
:102CA000014628460AF0B8FB002840F00381A54DF4
:102CB000A54F2A680223D2F884003B600E2106F05B
:102CC0001BF83B68A14F012B3B687FF441AF002B01
:102CD00040F0FA802B68DFF8B892D3F88400436B99
:102CE00019691FFA81FBC9F800B005F087FDB4F837
:102CF0008830974E40F6E44A0AFB0BFBBBFBF0F032
:102D0000C01A00B20AF078F992498346D4F89400C8
:102D10000AF0C6F9014658460AF076FA2A68D9F848
:102D200000303060D2F884000AFB03FA05F066FD3B
:102D3000B4F88830BAFBF0F00FFA80FAC3EB0A035C
:102D4000002BB4F8C220B8BF5B429342BCBF002343
:102D500033603B68002B3FF421AE02217E4808F02F
:102D6000CFF82B68D9F80050D3F8840040F6E4433C
:102D700003FB05F505F042FDB4F88810B5FBF0F053
:102D800000B2411A754808F0AFFB0221724808F002
:102D9000B7F8306809F0DAFC022502460B460095C8
:102DA0006E4808F0A9FB03216D4808F0A9F82946F0
:102DB000694808F0A5F8F1E52B68D3F8840005F020
:102DC0001DFDDAF8003064389842FFF4EFAEEFE60C
:102DD0006248DFF8BC91DFF86CA108F031FB0C21F0
:102DE000604808F08DF80C215F4808F089F82A68DF
:102DF0003B68D2F88400426B11698EB2C9F800605A
:102E0000002B3FF4B2AE05F0F9FC40F6E44100239C
:102E10000A2201FB06F1B1FBF0F1504808F024FB57
:102E200002214D4808F06CF8B4F88A104B4808F0BD
:102E30005BFBDAF80030D9F80060D3F8840094E640
:102E40004A4928460AF0E8FA58B9494928460AF09A
:102E5000C5FA30B9474A484B12680592059A1A607C
:102E6000CBE5DFF810A1444FDAF800300493049862
:102E70003B68DFF82091C01A0AF0BAF829460AF038
:102E80000FF93E490AF0C0F93C490AF0BDF9D9F8FA
:102E9000001009F0FDFFDAF800300393039BC9F836
:102EA00000003B60A9E5334A334B12680892089A48
:102EB0001A60A2E5234D244F28683E604FF0FF3290
:102EC0000F2105F015FC3DE62448DFF8C4901D4EA7
:102ED00008F0B6FAD4F88030012B4FF00B010CBF8C
:102EE0002748284808F00CF80C211F4808F008F87B
:102EF0002A683B68D2F88400426B11691FFA81FB93
:102F0000C9F800B0002B3FF4F0AE05F077FC40F6B6
:102F1000E44100230A2201FB0BF1B1FBF0F10F4861
:102F200008F0A2FA0121184807F0EAFFB4F8881067
:102F30000A4808F0D9FA3368D9F800B0D3F8840009
:102F4000D3E600BFD0D2FF1F4C87FF1FEC92FF1FBC
:102F5000B0D2FF1FACC52737882901000888FF1FA2
:102F6000141D0100181D0100041D01000000FA439A
:102F70000000FAC384D4FF1F60D1FF1F00007A4411
:102F8000EC1C0100F81C0100BC1B010068D1FF1FF4
:102F9000D8D2FF1FA0D2FF1F2DE9F047874D2B6825
:102FA00084B023B9864B1B68002B00F0A580854CAC
:102FB000854F864EDFF85C82D4F88420814B012A4D
:102FC00004D0D3F88020002A40F090808048FEF79B
:102FD00043FB8049D4F870A0D4F87490E56E0AF0F1
:102FE0005FF80AF049FAA36F00934A465346294610
:102FF00080B2FFF733F8E56DD4F858A005FB00F078
:103000000AFB00F000EB8000400009F0F5FF724978
:103010000AF0FAF88146306005FB0AF54FF47A7041
:1030200000FB05F009F0E8FF6B49DFF89CA10546BD
:1030300048460AF035F829460AF0E6F867490AF0EA
:103040002FF80AF0F3F96328386049DD2846624911
:103050000AF0DAF864233060CAF80030D8F800309B
:10306000002B3AD0D4F88030564D012B00F08D80E3
:10307000032B00F09780022B00F09B800221584820
:1030800007F03EFF574B186809F060FB0224024628
:103090000B460094544808F02FFA2146534807F095
:1030A0002FFF21464E4807F02BFF39684E4808F0A5
:1030B0001BFA06214E4807F023FF3068464909F005
:1030C000EFFF09F043FB009402460B46464808F028
:1030D00013FA0321474807F013FF04B0BDE8F08757
:1030E0000028BCBF0023CAF80030B7E7D6F800902C
:1030F000DD6DD3F858A08FE73F4B1B680393039A0D
:1031000042F210739A427FF652AF31482D4C2E4F47
:10311000FEF7A2FA2F49D4F87480E66ED4F87090C6
:1031200009F0BEFF0AF0A8F9A36F009331464246AA
:103130004B4680B2FEF792FFE26DA36D386002FB52
:1031400000F003FB00F000EB8000400009F054FFAA
:10315000DFF8C08020491D4E0AF056F8D8F800303C
:10316000306001222A60002B3FF426AF02211C4868
:1031700007F0C6FE1C4808F063F959211F4807F004
:10318000BFFE194808F05CF916E71D4B1B68012BC0
:103190004FF00A010CBF1B481B4807F0B1FED5F8E1
:1031A000803065E71021194807F0AAFED4F8803076
:1031B00061E70721164807F0A3FE5FE76893FF1F4A
:1031C000CCD2FF1F78D1FF1F3487FF1FA0D2FF1F73
:1031D0006C93FF1F00007A44E4388E3E0000C84222
:1031E0008829010068D1FF1F0888FF1F281D0100E2
:1031F000C41D0100CC1D010084D4FF1F341D01003B
:103200004C87FF1F901D01009C1D0100A81D01009F
:10321000BC1D01002487FF1F30B5112083B006F0CC
:10322000DFFA012818D0122006F0DAFA012813D0AC
:1032300000210B2006F0CEFA00210C2006F0CAFA7D
:103240000021152006F0C6FA2649274B012000224E
:1032500008701A6003B030BD0121152006F0BAFADB
:10326000224A234C234B1268D4F8981001921B6811
:10327000019A1D4D0B4493424FF00201296005D97C
:1032800001210C2006F0A6FA03B030BDD4F8A0004E
:1032900009F0B2FE184B19680AF0A0F80028EFD127
:1032A00001210B2006F096FA94F8C83003242C6014
:1032B00043B10C4B02221A7000210C2006F08AFA4E
:1032C00003B030BD122006F08BFA012808BF054B71
:1032D0004FF0110008BF1C7006F082FA0128EBD1F4
:1032E000E7E700BF6CD1FF1F6493FF1F84D4FF1F6B
:1032F00078D1FF1FC4D0FF1F68D1FF1FF0B5684E03
:10330000684D34682B689C4287B039D014F00101B5
:1033100055D014F0020149D014F004013DD0E30768
:103320000ED52B68DF070BD45F4F3A68002A00F0F8
:1033300082805E4B1B680193019B93426DD8346879
:10334000A0070DD52B6899070AD4594F3A68002A6F
:103350004CD0564B1B680393039B934238D8346878
:1033600062070DD52B685B070BD4524F3A68002AD1
:103370007ED04E4B1B680593059B934268D83468FA
:103380000CB107B0F0BD2146162006F0A3F8214687
:10339000172006F09FF807B0F0BD052006F09AF858
:1033A0002B68346803F0FB032B60B8E7172006F0A6
:1033B00091F82B68346803F0FD032B60ACE716200E
:1033C00006F088F82B68346803F0FE032B60A0E752
:1033D000394B1720D3F89C1006F07CF82B68346822
:1033E00043F0020300222B603A60B9E7334808F04B
:1033F00027F80C21324807F083FD304808F020F808
:10340000FF21172006F066F8284B2E4A1968029112
:10341000029912680A443A609CE7274B1620D3F8B9
:103420009C1006F057F82B68346843F00103002223
:103430002B603A6084E7FF21162006F04BF81B4B07
:10344000204A19680091009912680A443A6071E7AD
:10345000194B0520D3F89C1006F03CF82B68346813
:1034600043F0040300222B603A60002C89D18AE7E4
:10347000124807F0E5FF0C21134807F041FD0F4803
:1034800007F0DEFFFF21052006F024F8074B0D4A68
:1034900019680491049912680A443A606AE700BF07
:1034A0006493FF1FC0D2FF1F64D2FF1F84D4FF1F8D
:1034B00054D2FF1F58D2FF1F78D1FF1F0888FF1F6B
:1034C000D01D01003C87FF1FE01D01002DE9F047E2
:1034D000534EDFF870813368DFF86C91D3F88400C5
:1034E000504D0F2105F008FC0023012222214E48F7
:1034F000C8F80030C9F8002007F002FDD8F8003005
:10350000132B20DC40F6E4473368B5F888A0D3F8E5
:103510008400436B1C6905F071F9A4B2012107FB1B
:1035200004F4B4FBF0F441485444A5F8884007F093
:10353000E7FC642006F08AF9D8F800300133132B39
:10354000C8F80030E0DDB5F88830394A3948A2FBC8
:1035500003129B1A02EB5303C3F30F131946A5F88A
:10356000883007F0C1FF1D21334807F0C9FC022154
:10357000324807F0C5FC2F4807F062FF326800238D
:10358000D2F88400C8F800300E2105F0B5FB022304
:1035900022212548C9F8003007F0B2FCD8F80030E5
:1035A000132B20DC40F6E4473368B5F88A90D3F853
:1035B0008400436B1C6905F021F9A4B2012107FBCB
:1035C00004F4B4FBF0F419484C44A5F88A4007F021
:1035D00097FC642006F03AF9D8F800300133132B39
:1035E000C8F80030E0DDB5F88A30114A1148A2FB76
:1035F00003129B1A02EB5303C3F30F131946A5F8EA
:103600008A3007F071FF1D210D4807F079FC022177
:103610000A4807F075FC0748BDE8F04707F010BFFF
:10362000D0D2FF1F78D1FF1FF01D0100341E010012
:10363000876118860888FF1F141E01008829010071
:10364000381E0100CC92FF1F4C87FF1FF8B5BD4B01
:10365000BD4CBE4F1B68786D40F25131082221608D
:10366000E271002B00F0698109F0C6FC396A054659
:1036700009F016FDB64909F013FD09F0FDFE80B210
:1036800003126372B34AB44B12681B68B9692072A3
:10369000A37228461B121512E3722273657309F098
:1036A000FFFCAB4909F0FCFC09F0E6FE83B21A12FC
:1036B000A549AA48A373E27304F072FEA84BA94A75
:1036C0001B681288A049A272DDB2257205EB85063F
:1036D00003EB8305760045F3D71540F2553E1212F1
:1036E0001B1226736573082600259C48C4F800E069
:1036F000E2726372E671A573E57304F051FE40F265
:10370000563399482360E671FDF7F0FF974909F0B9
:10371000C7FC09F0B1FE20729348FDF7E7FF93491B
:1037200009F0BEFC09F0A8FE914A9049C0F30723B6
:103730001068637209F068FD09F078FE40FA06F23D
:1037400003468948E272A372FDF7FCFF804909F045
:10375000A7FC09F06BFE20738348FDF7F3FF7C495B
:1037600009F09EFC09F062FE7749A57340F3072338
:103770007A486373E57304F013FE022006F066F8DE
:103780007C4A7D4B11785078217291786072D278A2
:103790009878A172597893F800E0E2726173DA7850
:1037A000A07340F25A3368496C4884F80CE0E27325
:1037B0002360E67104F0F4FD704B63491A78587881
:1037C000227260729A78D878A272E0721A79987927
:1037D00093F805E02273A073DA79604884F80DE06D
:1037E00040F25E33E2732360E67104F0D9FD0220FB
:1037F00006F02CF8624B54491A785878227260729D
:103800009A78D878A272E0721A79987993F805E0DC
:103810002273A073DA79514884F80DE04FF45C7399
:10382000E2732360E67104F0BBFD022006F00EF89F
:1038300040F273334C482360E671FDF70DFF5149A8
:1038400009F02EFC09F018FE20724748FDF704FF2E
:103850004C4909F025FC09F00FFEC0F3072342484C
:103860006372FDF71FFF474909F01AFC09F004FED7
:10387000A0723D48FDF716FF424909F011FC09F01E
:10388000FBFDC0F307233848E372FDF7B5FF3E495F
:1038900009F0FEFA09F0F0FD20733348FDF7ACFFA4
:1038A000394909F0F5FA09F0E7FDC0F307232E487E
:1038B0006373FDF79FFF344909F0EAFA09F0DCFD74
:1038C000A0732948FDF796FF2F4909F0E1FA09F0A6
:1038D000D3FD1D49C0F307232048E37304F060FDC6
:1038E000022005F0B3FFB96DFB6D022211FB03F35B
:1038F000C3F3072740F2793110462160E271237249
:10390000677205F0A3FF40F2723317482360E67137
:10391000FDF7EEFE20721448FDF7EAFE40FA06F3CA
:10392000A5726372E57225736573A573E573064925
:103930000A48BDE8F84004F033BD09F05DFB796941
:10394000054695E6F892FF1FD092FF1F78D1FF1F22
:1039500000002041B8D2FF1FE492FF1FDCD2FF1FFE
:103960003487FF1F3A87FF1F6C93FF1F0000C84278
:1039700068D1FF1F64D1FF1FC092FF1F6087FF1F28
:103980006887FF1F00007A44339388432DE9F04194
:10399000874C884D82B007F04DFA23682860042BCD
:1039A00000F0F982022B4BD0082B00F09280072BFD
:1039B00040F02481332801F0C08500F3778331285B
:1039C00001F0A585322840F08D8007F06FFA0028BD
:1039D00040F312817848794E07F0C8FE09F00CFBDD
:1039E000774909F05DFB61230122F06322602B60BF
:1039F0001846A0F152031F2B01F26D85DFE813F08A
:103A0000570D6B0D6B0D6B0D6B0D6B0D6B0D6B0D0A
:103A10006B0D6B0D6B0D6B0D6B0D6B0D6B0D9603C5
:103A2000CB0E1005AC057A046B0D6B0D6B0D0A0403
:103A30006B0DCE0E6B0D6B0D6B0D6B0D6B0D590D74
:103A4000A0F13102422A4DD8DFE812F06F087B085E
:103A50008908960833084608530862084C004C0051
:103A60004C004C004C004C004C004C004C004C00F6
:103A70004C004C004C004C004C004C004C004C00E6
:103A80004C004C004C004C004C004C004C004C00D6
:103A90004C004C004C004C004C004C004C004C00C6
:103AA0004C004C004C004C004C004C004C004C00B6
:103AB0002D084C004C004C004C004C004C004C00BD
:103AC0004C004C004C004C004C004C0036034C00A9
:103AD000A508322800F0F582712800F0ED82312827
:103AE00000F00583002B08BF73280CBF01200020C5
:103AF000002859D0304807F0A3FC0421314807F0D2
:103B0000FFF92D4807F09CFC10212F4807F0F8F929
:103B1000294807F095FC13212C4807F0F1F92C4BAC
:103B20002548196807F0E0FC234807F089FC1421B8
:103B3000284807F0E5F9204807F082FC1E212648B6
:103B400007F0DEF91C4807F07BFC1521234807F03D
:103B5000D7F9194807F074FC1E21214807F0D0F965
:103B6000154807F06DFC20211E4807F0C9F91248DE
:103B700007F066FC19211C4807F0C2F90E4807F04F
:103B80005FFC1221194807F0BBF90B4807F058FCFD
:103B90000D21174807F0B4F9074807F051FC154A02
:103BA000002101231160236002B0BDE8F08100BF55
:103BB000D4D2FF1FB0D0FF1F0888FF1F78D1FF1F8E
:103BC0006F12833A182801002028010034280100D0
:103BD0004887FF1F48280100602801008028010055
:103BE00098280100B8280100DC280100F82801000D
:103BF0000C2901002487FF1F23682868062B40F04A
:103C00008F80A0F13002412A3FF66CAF01A151F83C
:103C100022F000BF35490000614900008D490000D5
:103C2000B9490000DF4900003F4800001149000089
:103C3000D5480000E53A0000E9480000E53A0000F8
:103C4000E53A0000E53A0000E53A0000E53A0000F8
:103C5000E53A0000E53A0000E53A0000E53A0000E8
:103C6000E53A0000E53A0000E53A0000E53A0000D8
:103C7000E53A0000E53A0000E53A0000E53A0000C8
:103C8000E53A0000E53A0000E53A0000E53A0000B8
:103C9000E53A0000E53A0000E53A0000E53A0000A8
:103CA000E53A0000E53A0000E53A0000E53A000098
:103CB000E53A0000E53A0000E53A0000E53A000088
:103CC000E53A0000E53A0000E53A0000E53A000078
:103CD000E53A0000E53A0000E53A0000E53A000068
:103CE000E53A0000E53A0000E53A0000E53A000058
:103CF000E53A0000E53A0000E53A0000E53A000048
:103D0000E53A0000E53A0000E53A0000E53A000037
:103D1000E53A0000E53A0000B94000002368286851
:103D2000052B40F08D80A0F13102402A3FF6DAAE3B
:103D300001A151F822F000BF8B460000FF470000B0
:103D4000C3470000E34700007F470000A947000089
:103D5000E53A0000E53A0000E53A0000E53A0000E7
:103D6000E53A0000E53A0000E53A0000E53A0000D7
:103D7000E53A0000E53A0000E53A0000E53A0000C7
:103D8000E53A0000E53A0000E53A0000E53A0000B7
:103D9000E53A0000E53A0000E53A0000E53A0000A7
:103DA000E53A0000E53A0000E53A0000E53A000097
:103DB000E53A0000E53A0000E53A0000E53A000087
:103DC000E53A0000E53A0000E53A0000E53A000077
:103DD000E53A0000E53A0000E53A0000E53A000067
:103DE000E53A0000E53A0000E53A0000E53A000057
:103DF000E53A0000E53A0000E53A0000E53A000047
:103E0000E53A0000E53A0000E53A0000E53A000036
:103E1000E53A0000E53A0000E53A0000E53A000026
:103E2000E53A0000E53A0000E53A0000E53A000016
:103E3000E53A0000E53A00001F48000023682868C2
:103E4000032B40F0A480A0F13002422A3FF64AAE94
:103E500001A151F822F000BF653F00002151000090
:103E6000495100007151000093510000B55100000C
:103E7000DD51000017520000095300002D530000CF
:103E8000E53A0000E53A0000E53A0000E53A0000B6
:103E9000E53A0000E53A0000E53A0000E53A0000A6
:103EA000E53A0000E53A0000E53A0000E53A000096
:103EB000E53A0000E53A0000E53A0000E53A000086
:103EC000E53A0000E53A0000E53A0000E53A000076
:103ED000E53A0000E53A0000E53A0000E53A000066
:103EE000E53A0000E53A0000E53A0000E53A000056
:103EF000E53A0000E53A0000E53A0000E53A000046
:103F0000E53A0000E53A0000E53A0000E53A000035
:103F1000E53A0000E53A0000E53A0000555300009C
:103F20002F4C000035520000535200007152000027
:103F30008F520000E54B0000094C0000E53A0000FC
:103F400073530000B5500000E53A0000E53A000068
:103F5000E53A0000E53A0000E53A0000DF500000D5
:103F6000EB50000006F0A2FF002841F3B782CF48D3
:103F7000CF4E07F0FBFB0127034601466222CD48E6
:103F8000B36527602A60FDF7B7FB23682868012B1B
:103F90007FF4A8AD2DE5A0F13102402A3FF6A2AD95
:103FA00001A151F822F000BF474A0000854A0000F5
:103FB000894A00004B4A00004F4A00006B4A00004B
:103FC000814A00001D4A0000214A0000E53A000035
:103FD000E53A0000E53A0000E53A0000E53A000065
:103FE000E53A0000E53A0000E53A0000E53A000055
:103FF000E53A0000E53A0000E53A0000E53A000045
:10400000E53A0000E53A0000E53A0000E53A000034
:10401000E53A0000E53A0000E53A0000E53A000024
:10402000E53A0000E53A0000E53A0000E53A000014
:10403000E53A0000E53A0000E53A0000E53A000004
:10404000E53A0000E53A0000E53A0000E53A0000F4
:10405000E53A0000E53A0000E53A0000E53A0000E4
:10406000E53A0000E53A0000E53A0000054A0000A4
:10407000E53A0000E53A0000E53A0000E53A0000C4
:10408000E53A0000E53A0000E53A0000E53A0000B4
:10409000E53A0000E53A0000E53A0000E53A0000A4
:1040A000E53A0000E53A0000B9400000342801F08C
:1040B0001C8271287FF416AD0023732023602860D2
:1040C00010E506F0F3FE002840F3B1837748784E00
:1040D00007F04CFB08F090FF774908F0E1FF074636
:1040E0000246336D96F840107248776415E006F08A
:1040F000DDFE002840F39F836C486D4E07F036FBD1
:10410000C0B286F84000032894BF01460021336DF9
:10411000726C684888BF86F84010FDF7EFFA0123FB
:1041200069202360286064E406F084FE06F0BEFE89
:1041300005460028F8D15D485D4E07F081F95B48DF
:1041400007F07EF9594807F07BF9584807F078F9ED
:10415000564807F075F91F21584806F0D1FE53481C
:1041600007F06EF91C21564806F0CAFE706A5549E0
:1041700008F096FF08F0EAFA009502460B464B4815
:1041800007F0BAF90221504806F0BAFE474807F096
:1041900057F923214D4806F0B3FEF06B494908F06A
:1041A0007FFF08F0D3FA009502460B463F4807F020
:1041B000A3F90221444806F0A3FE3C4807F040F969
:1041C0001921434806F09CFEB06B08F0BFFA0225A7
:1041D0000B4602460095354807F08EF929463D48C2
:1041E00006F08EFE314807F02BF922213A4806F0FE
:1041F00087FEB6F8CA102D4807F076F90321374834
:1042000006F07EFE294807F01BF907232360CBE464
:1042100006F010FE06F04AFE05460028F8D12348B5
:10422000234E07F00DF9214807F00AF91F4807F05F
:1042300007F91E4807F004F91C4807F001F9152199
:10424000274806F05DFE194807F0FAF818212548BE
:1042500006F056FE2B460A2296F84010134807F047
:1042600003F9124807F0ECF828211F4806F048FE31
:10427000706C144908F014FF08F068FA00950B46BA
:1042800002460A4807F038F902210F4806F038FEC6
:10429000064807F0D5F81321144806F031FE03480C
:1042A00007F0CEF8082323607EE400BF0888FF1FD4
:1042B00078D1FF1F6C93FF1F6F12833AA420010077
:1042C000C420010000007A44D01E0100E420010057
:1042D0000821010080200100242101004821010063
:1042E000E0280100881E0100A41E0100D41E010068
:1042F00006F0A0FD06F0DAFD05460028F8D1814859
:10430000814E07F09DF87F4807F09AF87D4807F046
:1043100097F87C4807F094F87A4807F091F8112153
:104320007A4806F0EDFD774807F08AF828217848AA
:1043300006F0E6FD7069774908F0B2FE08F006FA6B
:10434000009502460B466F4807F0D6F802217248E6
:1043500006F0D6FD6B4807F073F816216F4806F09B
:10436000CFFDF0696B4908F09BFE08F0EFF900956E
:104370000B460246634807F0BFF80221664806F084
:10438000BFFD604807F05CF8D6F8B830002B32DD8E
:104390001D21634806F0B4FD306E08F02DFE614922
:1043A00008F07EFE08F0D2F9022502460B46009581
:1043B000544807F0A1F801215B4806F0A1FD5148DF
:1043C00007F03EF81F21594806F09AFD706E08F07C
:1043D00013FE544908F064FE08F0B8F9009502464F
:1043E0000B46484807F088F801214F4806F088FD41
:1043F000444807F025F811214D4806F081FDD6F814
:10440000B830072B00F2CA87DFE813F047084C08E2
:1044100042083D08380833082E08C40706F00AFD94
:1044200006F044FD0028F9D13648374E07F008F869
:10443000344807F005F8334807F002F8314806F031
:10444000FFFF304806F0FCFF1F213A4806F058FDF8
:104450002C4806F0F5FF1E21374806F051FD29488B
:1044600006F0EEFF1A21354806F04AFDD6F88030F6
:10447000022B01F03781032B01F02B81012B01F07E
:104480001F8109212E4806F03BFD1E4806F0D8FF8B
:1044900014212C48DFF8708006F032FDF16F1948C6
:1044A00007F022F8174806F0CBFF1C21264806F03B
:1044B00027FDD6F88410134807F016F8114806F0C7
:1044C000BFFF1C21214806F01BFDD6F8B4100D4893
:1044D00007F00AF80B4806F0B3FFD6F8805025F035
:1044E0000207012F01F07C80022D01F01A811321B7
:1044F000174806F005FD034806F0A2FF02232360DB
:10450000FFF752BB0888FF1F78D1FF1F84280100E6
:10451000E81E010000007A44D01E0100141F0100B3
:104520002C1F0100CDCCCC3D7C2401004C1F010090
:104530006C1F01003C2301005C2301007C2301006F
:10454000F423010000240100182401003824010094
:10455000D41E010006F06EFC06F0A8FC0028F9D17C
:10456000BE4806F06DFFBD4806F06AFFBB4806F086
:1045700067FFBA4806F064FFB84806F061FF1321F0
:10458000B74806F0BDFCB54806F05AFF0D21B54806
:1045900006F0B6FCB14806F053FF0F21B24806F012
:1045A000AFFCB24BAD48196806F09EFFAB4806F071
:1045B00047FF1321AE4806F0A3FCAE4BA74819688D
:1045C00006F092FFA54806F03BFF1221AA4806F02C
:1045D00097FCAA4BA148196806F086FF9F4806F091
:1045E0002FFF1121A64806F08BFCA64B9B481968AB
:1045F00006F07AFF994806F023FF0E21A24806F044
:104600007FFCA24B9548D3F8A81006F06DFF9348A5
:1046100006F016FF19219E4806F072FC9D4B8F484C
:10462000196806F061FF8D4806F00AFF11219A48CB
:1046300006F066FC994B8948196806F055FF8748D3
:1046400006F0FEFE1021964806F05AFC954B834872
:10465000196806F049FF814806F0F2FE1C219248D5
:1046600006F04EFC914B7D48196806F03DFF7B48F3
:1046700006F0E6FE13218E4806F042FC774806F06D
:10468000DFFE04232360FFF78FBA06F00FFC00283B
:104690007FF7D4AB71487D4E07F068F801226B2399
:1046A000C6F8980022602B6001E006F0C3FB06F01C
:1046B000FDFB0028F9D16948744D06F0C1FE67483A
:1046C00006F0BEFE654806F0BBFE644806F0B8FE84
:1046D000624806F0B5FE2121764806F011FC5F48DD
:1046E00006F0AEFE1521744806F00AFCD6F89810C4
:1046F0005A4806F0F9FE0221704806F001FC5748BE
:1047000006F09EFE1E216E4806F0FAFBD6F8A010B9
:10471000524806F0E9FE03216A4806F0F1FB4F48D3
:1047200006F08EFE1E21684806F0EAFBD6F89C10C3
:104730004A4806F0D9FE494806F082FE1D2163482A
:1047400006F0DEFBD6F8AC10444806F0CDFE434838
:1047500006F076FE1E215E4806F0D2FBD6F8B010B9
:104760003E4806F0C1FE3D4806F06AFED6F8A83085
:10477000012B00F0EB8705232360FFF715BA06F045
:1047800095FB00287FF75AAB3448404E06F0EEFF09
:10479000424BC6F8B00003221A60FDF705FE012265
:1047A0006B2322602B6082E7384E96F8C930B3FA4B
:1047B00083F35B0901216B2286F8C93021602A60EE
:1047C00075E706F073FB00287FF738AB23482F4EC0
:1047D00006F0CCFF01226B23C6F89C0022602B6000
:1047E00065E706F063FB00287FF728AB1B48274EE0
:1047F00006F0BCFF294BC6F8AC000222CCE706F05D
:1048000055FB00287FF71AAB1448204E06F0AEFF88
:1048100001226B23C6F8A00022602B6047E71F4AE5
:1048200000237320136023602860FFF75BB92368BF
:104830002868FFF7BCB8154E96F8400063E4134AA9
:10484000D2F8B8300133072BC8BF0023C2F8B83004
:104850000123652023602860FFF7CBB80888FF1F7D
:10486000582201006C2201007C220100C8D2FF1FE7
:104870008C220100EC92FF1FA0220100A4D2FF1F96
:10488000B422010070D1FF1FC822010078D1FF1FA0
:10489000D8220100C492FF1FF4220100E892FF1FFA
:1048A00008230100BC92FF1F1C2301004487FF1F47
:1048B000D41E01004C2101007021010014200100D0
:1048C00088210100141D0100A8210100C821010058
:1048D000E8210100B54B93F8C820002A00F040867B
:1048E000002283F8C820B3E706F0E0FA00287FF73B
:1048F00015AAAF48AD4E06F039FF08F07DFBF76A08
:104900003063394608F06AFD0028A1D037639FE77D
:1049100006F0CCFA00287FF701AAA548A34E06F0BE
:1049200025FF65230122C6F8BC0022602B601846D3
:10493000FFF75FB806F0BAFA00287FF7EFA99C48A6
:1049400006F014FF994A00EB80004300116E1BB281
:104950008B42A2F8D0307FF77BAFA2F8D01077E778
:1049600006F0A4FA00287FF7D9A991488F4E06F0E7
:10497000FDFE08F041FB8F4908F046FC652301224B
:10498000706122602B601846FFF733B806F08EFA8C
:1049900000287FF7C3A98648844E06F0E7FE08F09A
:1049A0002BFB844908F030FC65230122F061226072
:1049B0002B601846FFF71DB806F078FA00287FF73D
:1049C000ADA97B48794E06F0D1FE00EB8000430094
:1049D00001226520336622602860FFF70AB806F0DE
:1049E00065FA00287FF79AA97148704E06F0BEFE5E
:1049F00000EB80004300012265207366226028607E
:104A0000FEF7F7BF6C4A1368B3FA83F35B09012121
:104A10006420136021602860FEF7EBBF674AF2E76D
:104A20000123236006F042FA002800F39E85644BC0
:104A30001A68042AC4BF02221A6064232B60236808
:104A40006420FEF7B1BF5F4ADDE75F4ADBE7574E00
:104A5000D6F8A830B3FA83F35B0901226420C6F8C4
:104A6000A83022602860FEF7C4BF012357482360A6
:104A7000FCF7A6FB564A2368106064222A60DFE731
:104A8000544AC0E7544ABEE7544A554F1368002BB6
:104A90000CBF012300234FF001001360206040F0A1
:104AA0002A860346E9E7FEF711FD23682868FEF72A
:104AB0007BBF0123236006F0F9F9002807DD3C489D
:104AC0003A4E06F053FE08F097FAC6F890006320BD
:104AD00028602368FEF76BBF0123236006F0E6F928
:104AE0000028F4DD3248314E06F040FEA6F8C20040
:104AF000EDE72E4AD2F8D4300133042BC8BF01238E
:104B0000C2F8D4300123632023602860FEF771BF10
:104B10000123236006F0CAF90028F3DD2448234E60
:104B200006F024FEC6F88C00ECE7204EF36FB3FAD3
:104B300083F35B0901226320F36722602860FEF79C
:104B400058BF1A4ED6F88430B3FA83F35B090122BA
:104B50006320C6F8843022602860FEF74ABF012334
:104B6000236006F0A3F90028CCDD11480F4E06F0B3
:104B7000FDFDC6F8B400C5E70123236006F096F9F1
:104B80000028A4DD0A48094E06F0F0FD08F034FACA
:104B9000C6F894009BE7054AD2F880300133032B16
:104BA000C8BF0023C2F88030ACE700BF78D1FF1F38
:104BB0000888FF1F00007A44B4D2FF1FBC92FF1F79
:104BC0004487FF1FC8D2FF1F70D1FF1F6C93FF1FC8
:104BD000C492FF1FE892FF1FEC92FF1FA4D2FF1F99
:104BE000D4D2FF1F06F062F900280DDD1748184ED9
:104BF00006F0BCFD08F000FA164908F005FB01229A
:104C00006223306222602B6006F050F900280EDD2E
:104C10000E480F4E06F0AAFD08F0EEF90D4908F017
:104C2000F3FA01226223C6F8C40022602B6006F06A
:104C30003DF9002840F352840448054E06F096FDE5
:104C400001226223F06622602B6007E00888FF1FC4
:104C500078D1FF1F00007A4406F0ECF806F026F940
:104C600005460028F8D1C24806F0EAFBC04806F025
:104C7000E7FBBF4806F0E4FBBD4806F0E1FBBC489B
:104C800006F0DEFB1521BB4806F03AF9B84806F0FD
:104C9000D7FB1421B84806F033F9B54806F0D0FB2D
:104CA0001B21B64806F02CF9B14806F0C9FB1321C8
:104CB000B34806F025F9AE4806F0C2FBAC4806F052
:104CC000BFFBAB4806F0BCFB2021AE4806F018F94C
:104CD000F068AD4908F0E4F907F038FD00950246A8
:104CE0000B46A34806F008FC0221A84806F008F984
:104CF0000221A74806F004F99D4806F0A1FB2121F6
:104D0000A44806F0FDF830699F4908F0C9F907F09A
:104D10001DFD009502460B46954806F0EDFB02216D
:104D20009A4806F0EDF80221994806F0E9F8904813
:104D300006F086FB1F21984806F0E2F8B06A07F0FB
:104D400005FD022702460B460097894806F0D4FB72
:104D50000121924806F0D4F839468D4806F0D0F883
:104D6000834806F06DFB20218D4806F0C9F8F06AF3
:104D700007F0ECFC009702460B467D4806F0BCFBB2
:104D80000121864806F0BCF83946814806F0B8F89B
:104D9000774806F055FB2321824806F0B1F8B06C45
:104DA000794908F07DF907F0D1FC009502460B46E1
:104DB0006F4806F0A1FB3946744806F0A1F8394661
:104DC000734806F09DF86A4806F03AFB1F217648C2
:104DD00006F096F8F06C6C4908F062F907F0B6FC42
:104DE000009502460B46624806F086FB3946674846
:104DF00006F086F83946664806F082F85C4806F008
:104E00001FFB1921694806F07BF8F16D584806F040
:104E10006BFB3946664806F073F839465C4806F085
:104E20006FF8534806F00CFB1821624806F068F84A
:104E3000B06E08F0E1F8604908F032F907F086FC3E
:104E4000009702460B464A4806F056FB01215B4894
:104E500006F056F839464E4806F052F8444806F037
:104E6000EFFA2B21564806F04BF8B069464908F096
:104E700017F907F06BFC009502460B463C4806F01C
:104E80003BFB3946414806F03BF83946404806F0BE
:104E900037F8374806F0D4FA1F214A4806F030F8B0
:104EA000B16D334806F020FB3946394806F028F842
:104EB0002F4806F0C5FA2021434806F021F8716D0D
:104EC0002B4806F011FB3946314806F019F82848FE
:104ED00006F0B6FA10213D4806F012F8F16E2448AB
:104EE00006F002FB3946294806F00AF839462848F8
:104EF00006F006F81E4806F0A3FA1321344805F020
:104F0000FFFF316F1A4806F0EFFA0121314805F032
:104F1000F7FF39461E4805F0F3FF154806F090FAF2
:104F200010212D4805F0ECFF716F114806F0DCFAF6
:104F30003946164805F0E4FF3946154805F0E0FF0C
:104F40000B4806F07DFA1421244805F0D9FFB16F13
:104F5000074806F0C9FA01211E4805F0D1FF39467D
:104F60000B4805F0CDFF024806F06AFA162137E03B
:104F70000888FF1F602501007825010090250100A9
:104F8000D41E0100AC25010000007A44D01E0100AF
:104F900088290100D0250100F42501001426010014
:104FA000182601003C260100602601008026010031
:104FB0009C260100A0260100CDCCCC3D7C24010024
:104FC000BC260100E8260100082701002C2701006B
:104FD0004027010054270100582701006C270100D9
:104FE000BB4805F08DFF306ABA4908F059F807F060
:104FF000ADFB009502460B46B74806F07DFA3946F0
:10500000B64805F07DFF3946B54805F079FFB2484E
:1050100006F016FA2421B34805F072FFD6F8C40052
:10502000AC4908F03DF807F091FB009502460B46AD
:10503000A94806F061FA3946A84805F061FF3946EB
:10504000A74805F05DFFA44806F0FAF92B21A64811
:1050500005F056FF706B07F079FB009702460B4690
:105060009D4806F049FA0121A04805F049FF39465C
:105070009B4805F045FF984806F0E2F927219C4837
:1050800005F03EFFD6F8CC00924908F009F807F089
:105090005DFB00950B4602468F4806F02DFA394617
:1050A0008E4805F02DFF8C4806F0CAF903232360D3
:1050B000FEF77ABD05F0FAFE002840F30F8286481D
:1050C0008C4E06F053FB07F097FF824908F09CF8DE
:1050D00001226223C6F8CC0022602B60BEE50022CC
:1050E000732322602B60FEF705BD834B7C48814E05
:1050F000002202211A6005F003FF774806F0A0F9AC
:105100000B217E4805F0FCFE0221754805F0F8FEF3
:10511000714806F095F90122622322602B609DE51B
:1051200005F0C4FE002840F3D9816B48714E06F0AB
:105130001DFB07F061FF674908F066F80122622352
:10514000F06022602B6089E505F0B0FE002840F396
:10515000C5816148674E06F009FB07F04DFF5D49C8
:1051600008F052F801226223306122602B6075E55D
:1051700005F09CFE002840F3B18157485D4E06F0D3
:10518000F5FA07F039FF01226223B06222602B603A
:1051900064E505F08BFE002840F3A0814E48554E93
:1051A00006F0E4FA07F028FF01226223F062226091
:1051B0002B6053E505F07AFE002840F38F814648C6
:1051C0004C4E06F0D3FA07F017FF424908F01CF8DE
:1051D00001226223B06422602B603FE505F066FE89
:1051E000002840F37B813C48424E06F0BFFA07F0AE
:1051F00003FF384908F008F80122034601464048F9
:10520000F3642260FBF790FE23686222012B2A6080
:105210007EF4CAAC22E505F049FE002840F35E8129
:105220002D48344E06F0A2FA01226223F065226076
:105230002B6013E505F03AFE002840F34F81264825
:105240002C4E06F093FA01226223306722602B6015
:1052500004E505F02BFE002840F340811E48254E52
:1052600006F084FA01226223706722602B60F5E465
:1052700005F01CFE002840F3318117481D4E06F052
:1052800075FA01226223B06722602B60E6E4FCF726
:105290003BFF02211248174E05F032FE0E4806F081
:1052A000CFF802210E4805F02BFE0B4806F0C8F897
:1052B00002210B4805F024FE074806F0C1F817212B
:1052C000104805F01DFE044806F0BAF81CE700BFC0
:1052D0008427010000007A440888FF1FD01E0100C7
:1052E000882901009C270100C42701001426010021
:1052F000F027010078D1FF1F6893FF1F7C1E01007B
:105300006C93FF1F641E010005F0D0FD002840F3E0
:10531000E5809A489A4E06F029FA00EB8000430097
:1053200001216222B36621602A6097E405F0BEFD88
:10533000002840F3D3809148914E06F017FA07F009
:105340005BFE904907F060FF01226223B06122609A
:105350002B6083E405F0AAFD002840F3BF80874856
:10536000874E06F003FA01226223706522602B60EB
:1053700074E405F09BFD002840F3B0807F48804E28
:1053800006F0F4F907F038FE012262237063226010
:105390002B6063E410217C4805F0B2FD7748784D1E
:1053A00006F04EF8D6F8B830002B12DD18217748F9
:1053B00005F0A6FDD5F8BC10704806F095F802215E
:1053C000734805F09DFD6D4806F03AF86B4806F00D
:1053D00037F81B216F4805F093FD96F8C830012B74
:1053E00015BF122114216C486C4805F089FD6348F3
:1053F00006F026F81F216A4805F082FD306B07F0A1
:10540000A5F9022502460B4600955C4806F074F8A3
:105410002946644805F074FD584806F011F81E212D
:10542000614805F06DFDB6F9D00007F0E5FD5F4974
:1054300007F036FE07F08AF900950B4602464F4802
:1054400006F05AF801215A4805F05AFD4B4805F07C
:10545000F7FF1321574805F053FD484805F0F0FFCA
:1054600006232360FEF7A0BB0421534805F048FD46
:1054700094E70B21514805F043FD8FE70D2150487B
:1054800005F03EFD8AE70D214E4805F039FD85E720
:105490000C214D4805F034FD80E70D214B4805F007
:1054A0002FFD7BE70C214A4805F02AFD76E704F042
:1054B000E5FFD8220021324803F0B2FE2868454AB1
:1054C000A0F1730001210023B0FA80F040091160BF
:1054D0002360FEF70DBB2368FEF704BB2368286832
:1054E000012B7EF4FFAAFEF784BA05F0DFFC00284A
:1054F0007EF782AB2148224E06F038F96123012263
:10550000A6F8CA0022602B601846FEF772BA05F0B2
:10551000CDFC00287EF770AB1848194E06F026F92E
:1055200007F06AFD2C4907F0BBFD61230122706280
:1055300022602B601846FEF75CBA05F0B7FC002825
:105540007EF75AAB0D480E4E06F010F907F054FDE9
:1055500061230122B06322602B601846FEF749BA2E
:10556000012283F8C820FFF773B9044806F0FEF85B
:105570001A4B02461860FFF75CBA00BF0888FF1F8D
:1055800078D1FF1F00007A44E41F0100F81F0100DA
:1055900014200100182001003420010048200100DF
:1055A000602001008020010084200100CDCCCC3D92
:1055B0007C240100D41E0100DC1F0100D01F01006B
:1055C000C01F0100B01F0100A01F0100801F0100CB
:1055D000901F01002487FF1F6F12833A4487FF1F2B
:1055E0001C21704805F08CFC6F49D8F8940007F036
:1055F00057FD07F0ABF8009702460B466B4805F0E5
:105600007BFF05216A4805F07BFC684805F018FF20
:10561000D8F88050012D19D11D21664805F070FC85
:105620006149D8F8900007F03BFD07F08FF800952E
:1056300002460B465D4805F05FFF05215C4805F01A
:105640005FFC5A4805F0FCFED8F8805025F00203B4
:10565000012B7EF449AF1C215748584F05F050FCF0
:10566000B6F8C210514805F03FFF0321544805F039
:1056700047FC4E4805F0E4FED6F88050012D7EF43C
:1056800033AF1F214F4805F03BFCD7F88C0007F0E3
:10569000B3FC4D4907F004FD07F058F80225024617
:1056A0000B460095414805F027FF2946474805F07D
:1056B00027FC3E4805F0C4FED7F88050FEF714BF23
:1056C0001E21434805F01CFC384805F0B9FEFEF7E2
:1056D000DFBE20213F4805F013FC344805F0B0FE42
:1056E000FEF7D6BE17213C4805F00AFC2F4805F00E
:1056F000A7FEFEF7CDBE394B002631460B201E60BB
:1057000004F068F831460C2004F064F831461420A7
:1057100004F060F83146152004F05CF83B68FFF7B0
:10572000ACB917212E4805F0EBFBD6F8D430012B8D
:1057300025D0022B1DD0032B27D0042B7EF4D7AE0F
:1057400028491A48FCF7CEFCFEF7D1BE2021264896
:1057500005F0D6FB95F8C9302BB924491348FCF75E
:10576000C1FCFFF708B822491048FCF7BBFCFFF763
:1057700002B820490D48FCF7B5FCFEF7B8BE1E493B
:105780000A48FCF7AFFCFEF7B2BE1C490748FCF71D
:10579000A9FCFEF7ACBE094EFFF760BA074EFEF754
:1057A00086BF00BF58240100CDCCCC3D0888FF1F28
:1057B0007824010080240100A024010078D1FF1F7B
:1057C000C0240100C42401006F12833AE4240100C4
:1057D00098230100B8230100DC2301006493FF1F1C
:1057E000E824010044250100082201002C220100C8
:1057F0003822010018250100002501003025010094
:1058000010B5124C124A2368101D12F8011F904265
:1058100041EA0323F9D10F4A236003F100431360E7
:105820000D4BD3F88030022B08D00C4B1B68012B9A
:1058300000D010BDBDE81040FCF73EBC1068084C1D
:1058400007F0DAFB2060FDF799F8EEE7BCD2FF1F06
:10585000BBD0FF1F5C93FF1F78D1FF1FC8D2FF1F73
:10586000B0D2FF1F70B51E4A1E4C507A937A216841
:10587000D27A1D4E1D4D43EA002342EA032301293B
:1058800033602B6019D01846194BD3F88030A0F53F
:105890000000022B28601BD02368012B00D070BDB4
:1058A000144805F0CDFD2968124805F01DFE0321BE
:1058B0001148BDE8704005F023BB0E4805F0C0FD5F
:1058C0000023102229680B4805F0CEFD2868DBE78D
:1058D00007F092FB094B1860FDF750F8DCE700BFBA
:1058E000B4D0FF1FC8D2FF1FBCD2FF1F5C93FF1FA5
:1058F00078D1FF1F0888FF1F841B0100B0D2FF1F53
:1059000008B5134B187BDB7AFF2813D040B243EA6B
:105910000020104B104AD3F8803000EB800000EBE1
:1059200080008000022B10600BD00C4B1B68012BF9
:1059300003D008BDFF2BE9D1FBE7BDE80840FCF729
:10594000BBBB07F059FB064B1860FDF717F8ECE7F7
:10595000B4D0FF1F78D1FF1F5C93FF1FC8D2FF1F79
:10596000B0D2FF1FF0B5844D844C854883B02946E2
:1059700002F014FCD4F88030022B33D02B68814C19
:10598000B3F5407F08D222687B497F48012A18BFBF
:105990000022FBF78FFC2B687C4A23F060431A44FB
:1059A0001E2A0CD8236874497748012B0EBF1A466B
:1059B00001230022FBF722FC2B6823F06043744A8A
:1059C0001A440E2A09D822686B496F48012A4FF001
:1059D000020318BF0022FBF711FC2368012B4BD0F8
:1059E00003B0F0BDD4F8D4202B68012A7BD0022A62
:1059F00013D0032A1FD0042AC1D1D90065491A4601
:105A000048BFC3F311228A42B9D12A7A5A4C002ADC
:105A1000B5D1FFF775FF2368B1E740F2C132934279
:105A200003D040F2C2329342A9D1FFF71BFFD4F852
:105A3000D4202B68DDE740F22252934200F08C80A4
:105A400040F22352934273D040F22152934296D1B6
:105A50002A7B697BEF7AA87AD4F880404E4E01EB1E
:105A6000022202EB074202EB0060022C3060434F3F
:105A7000414E77D0434C8FE7484B49481B68019310
:105A80000A220023019905F0EFFC2A683A4B002A0C
:105A9000DB7946DB4349444808F056FC424808F0AD
:105AA0008FFC0146404805F02BFA2C68324B14F06D
:105AB000804427D1DB798BB12B193C491A7A3A48BB
:105AC00008F042FC384808F07BFC0146364805F0F7
:105AD00017FA0134EB79E4B2A342EDD8304805F06F
