:1000000000800020BD010000E18400009984000010
:10001000998400009984000099840000998400006C
:10002000998400009984000099840000E184000014
:10003000E184000099840000A9A50000ADA600009D
:10004000E1840000E1840000E1840000E18400001C
:10005000E1840000E1840000E1840000E18400000C
:10006000E1840000E1840000E1840000E1840000FC
:10007000E1840000E1840000E1840000E1840000EC
:10008000E1840000E1840000E1840000E1840000DC
:10009000E1840000E1840000E1840000E1840000CC
:1000A000E1840000E1840000E1840000E1840000BC
:1000B000E1840000C9790000D5790000D9790000F9
:1000C000E5790000E9790000ED790000E1840000A5
:1000D000E1840000E1840000E1840000E18400008C
:1000E000E1840000E1840000E1840000E18400007C
:1000F000E1840000B5AD0000E184000081910000C2
:10010000E18400004D930000E1840000E1840000E0
:10011000E1840000E1840000E1840000E18400004B
:10012000E1840000E1840000E1840000E18400003B
:10013000E1840000E1840000E1840000E18400002B
:10014000E1840000E1840000E1840000E18400001B
:10015000E1840000E1840000E1840000E18400000B
:10016000E1840000DD950000E1840000E1840000EE
:10017000E1840000E1840000E1840000E1840000EB
:10018000E1840000E1840000E1840000E1840000DB
:10019000E1840000E1840000E1840000E1840000CB
:1001A000E1840000E1840000E1840000E1840000BB
:1001B000E1840000E1840000E1840000564B4CF231
:1001C000205210B51A804DF628121A8000BF00BFC9
:1001D00008F08AF9514B4FF010621A60504A9A6049
:1001E000504ADA60504A136813F4807304D14F49BF
:1001F0000B604FF4A85313604D4B1A78110703D5C9
:100200001A7842F008021A704A4B4B492A221A7097
:100210004A4A4B4B8B4204D252F8040F43F8040B6A
:10022000F8E7484B484900228B4202D243F8042B9E
:10023000FAE74649464A002352F8230041F82300D2
:1002400001336F2BF8D1434B434A802103F8011B44
:100250009342FBD1414B3D4A1A60414B8A221A70AE
:10026000A3F5805324225A70A0221A709A7992071B
:10027000FCD59A79D406FCD43A4A937903F00C035E
:10028000082B384BF9D103221A7140225A719A79FE
:100290009006FCD5334A9179324B4906FBD5324A58
:1002A000324911600221516020221A709A7902F0BD
:1002B0000C020C2AFAD12E4B2E4A1A602E4B2F4AD2
:1002C0001A6000225A60072243F8042C2C4AC3F813
:1002D0000C2D62B608F0BEFB144B1B68DA0705D57F
:1002E000284808F09BF9284B284A1A60284B1B78AD
:1002F0005B0609D5244C254B22689A4204D121483B
:1003000008F08CF9002323600CF03CF808F0F2F8B8
:100310000AF010FCFEE700BF0E20054030800440CC
:10032000823F04000100002B10D0034014D0034092
:1003300002D0074000E007403892FF1FF41F010081
:100340002087FF1F3892FF1F04D6FF1F0082FF1F68
:100350000000000000E400E05FE400E008ED00E0E1
:100360000050064000400640448004400000030165
:1003700004800440C010050014E000E0FF76010096
:1003800000002020E3A41E601CE00340A5C3945A93
:1003900000F00740FFFFFFFFFFFFFFFFFFFFFFFF32
:1003A000FFFFFFFFFFFFFFFFFFFFFFFFFFFFFFFF5D
:1003B000FFFFFFFFFFFFFFFFFFFFFFFFFFFFFFFF4D
:1003C000FFFFFFFFFFFFFFFFFFFFFFFFFFFFFFFF3D
:1003D000FFFFFFFFFFFFFFFFFFFFFFFFFFFFFFFF2D
:1003E000FFFFFFFFFFFFFFFFFFFFFFFFFFFFFFFF1D
:1003F000FFFFFFFFFFFFFFFFFFFFFFFFFFFFFFFF0D
:10040000FFFFFFFFFFFFFFFFFFFFFFFFDEF9FFFF23
:1004100010B5054C237833B9044B13B10448AFF33E
:1004200000800123237010BD3892FF1F00000000E0
:10043000F01F0100084B10B51BB108490848AFF385
:1004400000800848036803B910BD074B002BFBD0A0
:10045000BDE81040184700BF000000003C92FF1F9D
:10046000F01F01003892FF1F00000000F0B400F1FF
:100470003006174F00243146031F00F1640243F891
:10048000044FB34241F8047F4FF0000542F8044F97
:10049000F5D100230F4A104CC0F89C5047F2305160
:1004A000C0F8A050C0F8A450C0F8A850C0F8B85088
:1004B000C0F8B040C0F8AC20C0F8B42080F8C43018
:1004C00080F8C53080F8DC30C0F8F010F0BC704720
:1004D0000000A040000048430000C8C238B5CB7BF4
:1004E000FD2B0C46054632D0087A0BF0E5FC4FF0A8
:1004F0007C510BF035FD1D490BF028FCC5F8A00020
:10050000207BEF2809D90023C5F8A430607BEF28B1
:1005100011D90023C5F8A83038BD0BF0CDFC4FF041
:100520007C510BF01DFD11490BF010FCC5F8A40027
:10053000607BEF28EDD80BF0BFFC4FF07C510BF047
:100540000FFD0A490BF002FCC5F8A80038BD887AF7
:10055000FD28E1D00BF0B0FC4FF07C510BF000FD1A
:1005600003490BF0F3FBC5F8A00038BD00002C4296
:100570000000204290F8CC00704700BF90F8C800FF
:10058000704700BF90F8D000704700BF90F8D400CB
:10059000704700BF0D2994BF50F82100002070471C
:1005A0002DE9F0410B4E8046041F00F1300754F84E
:1005B000045F314628460BF071FE30B1D8F8BC100C
:1005C00028460BF089FE00B12E46BC42EFD13046E2
:1005D000BDE8F081000020412DE9F041D0F8BC7069
:1005E0004FF00008041F00F1300654F8045F39464C
:1005F00028460BF071FE084948B128460BF04EFE24
:10060000414620B128460BF067FE00B1A846B4422F
:10061000EBD14046BDE8F0810000A0402DE9F04755
:10062000D0F8BC7082464FF00009041F00F130067C
:100630004FF0000854F8045F394628460BF04CFE92
:100640000C4950B128460BF029FE30B148462946E6
:100650000BF07EFB08F101088146B442EAD1CAF8EA
:10066000E08040460BF028FC014648460BF02CFD8C
:10067000BDE8F0870000A040D0F8E000704700BF60
:1006800038B5D0F8D83053B9D0F8A440D0F8A0503D
:10069000214628460BF002FE30B1204638BD2733F4
:1006A00050F82340204638BD2C46204638BD00BFB8
:1006B000D0F8D8302DE9F041002B7CD1D0F8A460DF
:1006C000D0F8A0500446314628460BF041FBD4F840
:1006D000A870394680460BF03BFB7E490BF0F4FCDA
:1006E0004FF07C5104460BF0F7FD002861D04FF02D
:1006F0007C5128460BF0F0FD4FF07C51002860D172
:1007000028460BF0CBFD38B14FF07C5130460BF052
:10071000E3FD002840F0A7804FF07C5128460BF005
:10072000DBFD002860D14FF07C5128460BF0D4FD52
:10073000002840F0A1804FF07C5128460BF0CCFD02
:1007400000286CD14FF07C5128460BF0A7FD4FF0EC
:100750007C5110B330460BF0BFFD38B14FF07C51E7
:1007600038460BF09BFD002840F0B0804FF07C51E4
:1007700030460BF093FD002861D04FF07C51384695
:100780000BF0AAFD002840F0A38038464FF07C51C2
:100790000BF084FD68B1504C10E028460BF07EFD54
:1007A0000028E3D128464FF07C510BF077FD00285C
:1007B00045D1BDE8F081273350F823402046BDE8FD
:1007C000F08130460BF088FD4FF07C5100283ED080
:1007D00038460BF081FD0028F0D14FF07C512846BF
:1007E0000BF05CFD002859D14FF07C5130460BF0E6
:1007F00055FD002840D04FF07C5138460BF06CFD81
:10080000002841D14FF07C5130460BF065FD68B1B6
:100810004FF07C5138460BF041FD00284FD14FF08E
:100820007C5130460BF03AFD00288BD04FF07C51C4
:1008300038460BF033FD002884D02C46BEE7304606
:100840004FF07C510BF02AFD0028B2D09DE72846DE
:100850000BF024FD0028C7D04FF07C5130460BF040
:100860003BFD0028C0D04FF07C5138460BF034FDE2
:1008700000283FF451AF18E04FF07C5130460BF0A8
:100880002BFD0028CBD0C3E7394628460BF060FA91
:100890004FF07C510BF064FB04468FE74FF07C5126
:1008A00038460BF019FD00289ED0394630460BF033
:1008B0004FFA4FF07C510BF053FB04467EE7404665
:1008C0004FF07C510BF04CFB044677E7344675E75C
:1008D0003C4673E7000040400000A0C2D0F8D8209A
:1008E00070B5002A34D10446FFF7E2FE4FF07C5188
:1008F0000BF0F2FC58B3D4F8A0604FF07C513046B6
:100900000BF0EAFCD4F8A45038BBD4F8A8404FF060
:100910007C5128460BF0E0FC48B1294630460BF0EC
:10092000DBFC20B1214628460BF0B8FC28BB4FF079
:100930007C5120460BF0D0FC48B1284621460BF0F4
:10094000CBFC20B1304621460BF0C6FC18B970BD77
:10095000273250F82240204670BD304629460BF021
:100960009DFCD4F8A8400028D1D0304621460BF099
:1009700095FC0028CBD03446EDE72C46EBE700BFD2
:100980002DE9F047814684B01546032900F27B81AA
:10099000DFE811F0FF00BE007D0004004FF0000A08
:1009A00080F8ECA0937A507A1B0103EB101000F54D
:1009B0007A700BF081FAB6490BF0D2FAD9F8004000
:1009C000C9F830004846FFF789FFD9F8AC10054652
:1009D0000BF064FC08B1C9F8AC50D9F8D830002B42
:1009E00040F02381D9F8A060D9F8A45030462946B8
:1009F0000BF054FC002800F00C81D9F8B010284608
:100A00000BF06AFC002840F00D8109F13406C8465D
:100A100009F168050D2701E058F8044F31682046B8
:100A20000BF03CFC30B1D9F8BC1020460BF04AFC6E
:100A300000B13460296820460BF04EFC043695491D
:100A400020B120460BF048FC00B12C60013F05F1BD
:100A50000405E1D1BAF1000F00F0F6808E4CD9F810
:100A6000E81023680193019AD9F8F030521A9A429B
:100A700080F0F38022680292029A0B449B1A41F2A2
:100A80008732934240F20A8104B0BDE8F0874FF00C
:100A9000000A80F8ECA0937A507A1B0103EB101047
:100AA00000F57A700BF008FA79490BF059FAC9F899
:100AB00020002B7B687B1B1103EB001000F57A7084
:100AC0000BF0FAF972490BF04BFAC9F828002B7BAE
:100AD000EA7A1B0203F47063981800F57A700BF041
:100AE000EBF96B490BF03CFAC9F82400EB7BAA7BCD
:100AF0001B0203F47063981800F57A700BF0DCF9B0
:100B000063490BF02DFAD9F80040C9F82C0059E7D9
:100B10004FF0000A80F8ECA0937A507A1B0103EBA7
:100B2000101000F57A700BF0C7F959490BF018FA5C
:100B3000C9F810002B7B687B1B1103EB001000F53C
:100B40007A700BF0B9F952490BF00AFAC9F818009B
:100B50002B7BEA7A1B0203F47063981800F57A7015
:100B60000BF0AAF94A490BF0FBF9C9F81400EB7B2A
:100B7000AA7B1B0203F47063981800F57A700BF0DF
:100B80009BF943490BF0ECF9D9F80040C9F81C0077
:100B900018E74FF0000A80F8ECA0937A507A1B0116
:100BA00003EB101000F57A700BF086F938490BF062
:100BB000D7F9C9F800002B7B0446687B1B1103EBB7
:100BC000001000F57A700BF077F931490BF0C8F995
:100BD000C9F808002B7BEA7A1B0203F470639818AB
:100BE00000F57A700BF068F929490BF0B9F9C9F8EA
:100BF0000400EB7BAA7B1B0203F47063981800F5DA
:100C00007A700BF059F922490BF0AAF9C9F80C00D7
:100C1000D8E63146D9F8B0000BF040FB00283FF48D
:100C2000F4AE3546C9F8B050EFE609EB8303D9F8C6
:100C3000B010D3F89C5028460BF04EFB00283FF430
:100C4000E4AEC9F8B050E0E6134B1B680093009B7C
:100C5000C9F8E83004B0BDE8F0870020A9F104032A
:100C600009F11C0143F8040F8B424FF00002F9D147
:100C7000C9F89C20C9F8A020C9F8A420C9F8A82068
:100C800004B0BDE8F08790F8ECA004689AE600BFD5
:100C90006F12833A0000A0400CD3FF1F02211348BB
:100CA00009F01CFB124809F0AFFD0621114809F0BC
:100CB00015FB3B460A2299F8DC100D4809F0B4FDFB
:100CC00019210D4809F00AFB23680393D9F8E8209D
:100CD000D9F8F030039906481A44511A3B460A22C3
:100CE00009F0A2FD024809F08FFDCDE66818010069
:100CF000D887FF1F18050100200501002DE9F843E2
:100D00000026D0F8BC80C0F89C608146041F00F12A
:100D1000300754F8045F414628460BF0DDFA0949D4
:100D200050B128460BF0BAFA30B1304629460BF0E4
:100D30000FF80646C9F89C00BC42EAD13046BDE82F
:100D4000F88300BF0000A04002299ABF283150F864
:100D500021000020704700BF3E2998BF80F8DC10BA
:100D6000704700BF90F8C400704700BF90F8C500FE
:100D7000704700BFC0F8D810704700BF80F8C4109B
:100D8000704700BFC0F8C010704700BF80F8C510A2
:100D9000704700BF30B50F4CC0F8BC1083B0204680
:100DA0000D4609F031FD204609F02EFD28460AF0D7
:100DB0002DFC022502460B460095204609F07CFDDD
:100DC000204609F021FD204603B0BDE8304009F07F
:100DD0001BBD00BFD887FF1F70B500F570550646D4
:100DE000343500F128042046F434FFF73FFBAC42D1
:100DF000F9D106F58E75012428460021FFF7BEFFC4
:100E0000214628460134FFF7A7FF3F2C05F1F405E2
:100E1000F2D143F63C4400250548064A064B3555B9
:100E2000002130617161B261F361304670BD00BF75
:100E300000007A44000048430000C8C270B500F5C5
:100E40008E74012500260DE0012620460021FFF7C3
:100E50009DFF294620460135FFF77EFF3F2D04F117
:100E6000F4040AD02046FFF77DFF0028EDD020468D
:100E7000FFF77CFF0028E7D170BD304670BD00BF92
:100E8000F8B500F57157002300F570563B60343615
:100E900000F58E7402E0F434B4420DD02046FFF722
:100EA00061FF0028F7D020463D68FFF7E5FBF434EA
:100EB0002844B4423860F1D13868F8BD38B50C78B0
:100EC000A4F12103072B98BF183CA4F10A03072BB8
:100ED000154609D8F423093C03FB04002830FFF72A
:100EE000FDFA012D0CD038BDF42303FB040028309B
:100EF000FFF7F4FA012DF6D1002CF4D0082CF2DC27
:100F0000064809F081FC2146044809F0CDFC0B217C
:100F10000348BDE8384009F0E1B900BFD887FF1F9A
:100F20003C0501000B68A3F5D8732DE9F0411F2B98
:100F300011D8DFE803F012A6A29E9A96928E8A86B6
:100F4000827E7A76726E6A66625E5A56524E4A4661
:100F5000423E3A36322EBDE8F0814FF000080125BE
:100F6000012A174604460E4600F08F80F42000FB4D
:100F70000544283420460121FFF700FF20460121C7
:100F8000FFF704FF324641462046BDE8F041FFF737
:100F9000F7BC4FF003080825E2E74FF002080825E8
:100FA000DEE74FF001080825DAE74FF000080825D2
:100FB000D6E74FF003080725D2E74FF002080725D0
:100FC000CEE74FF001080725CAE74FF000080725D4
:100FD000C6E74FF003080625C2E74FF002080625D2
:100FE000BEE74FF001080625BAE74FF000080625D6
:100FF000B6E74FF003080525B2E74FF002080525D4
:10100000AEE74FF001080525AAE74FF000080525D7
:10101000A6E74FF003080425A2E74FF002080425D5
:101020009EE74FF0010804259AE74FF000080425D9
:1010300096E74FF00308454692E74FF00208032574
:101040008EE74FF0010803258AE74FF000080325DB
:1010500086E74FF00308022582E74FF00208454675
:101060007EE74FF0010802257AE74FF000080225DD
:1010700076E74FF00308012572E74FF002080125DB
:101080006EE74FF0010845466AE7094809F0BCFBE6
:101090002946074809F008FC3946064809F01EF9B8
:1010A0004146034809F000FC014809F0ADFB5DE74B
:1010B000D887FF1F480501002DE9F043002383B0C6
:1010C0000646036000F58E74012504E001353F2DCE
:1010D00004F1F40466D02046FFF744FE0028F5D062
:1010E0004E4800F0F3FC29464D4800F0EFFC204646
:1010F000FFF704FE0AF08AFA02460B46494800F060
:10110000E5FC2046FFF74CFA80462046FFF764FADC
:10111000074640460AF07AFA8046384689460AF081
:1011200075FA42464B46CDE900013F4800F0CEFC3F
:1011300000212046FFF708FE012180462046FFF7E8
:1011400003FE074640460AF061FA80463846894663
:101150000AF05CFA42464B46CDE90001334800F004
:10116000B5FC2046FFF7CAFD014630680AF0F0FDE5
:1011700030602046FFF7B2FBB1690BF08FF8002812
:1011800033D12046FFF77CFAF1690BF0A5F800286F
:101190009CD02046FFF774FA01353F2DF06104F131
:1011A000F40498D170680AF087FE014630680AF0AE
:1011B0008BFF7169306004460BF08EF800B17461EA
:1011C000316920460BF06AF800B134610B2007F05A
:1011D000BDFB43F63C43F35C60B99BB143F63C4333
:1011E0000122F25403B0BDE8F0832046FFF776FBFE
:1011F000B061C6E753B943F63C430022F25403B052
:10120000BDE8F0830A4800F08FFCE7E7094800F0EA
:1012100075FC43F63C430022F254F0E7DC0C01007D
:101220004C050100880501009C050100C80501006E
:10123000E40501001C06010070B5114B836000F548
:1012400070550646343500F58E7402E0F434AC4235
:1012500013D02046FFF786FD0028F7D02046FFF781
:101260009FF9B1680BF01AF80028EFD02046FFF77D
:1012700097F9F434AC42B060EBD1B06870BD00BFF8
:101280000000A04070B5002300F570550646C3600D
:10129000343500F58E7402E0F434AC4213D02046AD
:1012A000FFF760FD0028F7D02046FFF795F9F168B9
:1012B0000BF012F80028EFD02046FFF78DF9F43438
:1012C000AC42F060EBD1F06870BD00BF00687047C1
:1012D000416070472DE9F04100F57055884617468A
:1012E0001E46343500F58E7402E0F434AC4213D05F
:1012F0002046FFF737FD0028F7D020464146FFF78C
:1013000039FD20463946FFF745FD20463146F43485
:10131000FFF738FDAC42EBD1BDE8F0812DE9F84391
:1013200043F6384300F570550027C7502E462A4A29
:101330002A4B426280464FF000090362343538364A
:1013400000F58E7402E0F434A54213D02046FFF776
:1013500009FD0028F7D03368013333602046FFF7DA
:10136000A7F91F490AF0B8FF88B9F434A54207F17C
:101370000107EBD143F6384358F80300C01B0AF0CD
:101380009BFD014648460AF09FFEBDE8F8832046D3
:10139000FFF78EF9014648460AF0DAFC81462046FE
:1013A000FFF76EF9D8F820100AF096FF70B92046C2
:1013B000FFF794FAD8F824100AF070FF0028C2D082
:1013C0002046FFF78BFAC8F82400BCE72046FFF759
:1013D00057F9C8F82000EAE700C0794400C079C492
:1013E00000008CC2006A7047406A7047F8B500F58B
:1013F000705507460026343500F58E7402E0F4344B
:10140000AC420FD02046FFF7ADFC0028F7D02046B5
:10141000FFF704F9014630460AF09AFCF434AC4276
:101420000646EFD143F63843F8580AF045FD014629
:1014300030460AF049FEF8BD2DE9F04F06468FB060
:1014400083488B4600F0EAFA814800F0E7FA8048CA
:1014500000F0E4FA43F638433046F2580D92FFF7B5
:101460000FFD73680C93074630680AF0CFF880468A
:1014700030468946FFF7BAFF82463046B468F568C1
:10148000FFF74CFF0AF0C2F8CDE90A0121462846D1
:101490000AF05CFC6F490AF063FD0AF0B7F8CDE989
:1014A000080128460AF0B2F8CDE9060120460AF004
:1014B000ADF8CDE9040150460AF0A8F80D9A0C9B4E
:1014C000CDE90201CDE90089114663483A4600F0B2
:1014D000A5FA5F4800F0A2FA06F58E764FF00109F2
:1014E0004FF0000A07E009F10109B9F13F0F06F1D9
:1014F000F40600F0A5803046FFF734FC0028F2D057
:101500003046FFF737F83046FFF738F83046FFF738
:1015100039F83046FFF73AF80821504808F0DEFE67
:1015200049464F4809F0C0F9B9F1090F40F38B80E3
:1015300002214C4808F0D2FE3046FFF7DFFB0AF0EC
:1015400065F85FFA8BF802460B46CDF800804448F8
:1015500009F0B2F90121444808F0C0FE55460024C4
:1015600020E00621414808F0B9FE29463C4809F030
:101570009BF902213E4808F0B1FE21463046FFF7B4
:1015800009F80AF043F8CDF8008002460B463448CB
:1015900009F092F901340121334808F09FFE0D2C27
:1015A00009D03D46092D05F10107DADC012131485A
:1015B00008F094FED5E72A4809F026F909212E48BB
:1015C00008F08CFE00213046FFF7BEFB0AF01EF843
:1015D000022402460B460094214809F06DF90A21C5
:1015E000264808F07BFE01213046FFF7ADFB0AF0EC
:1015F0000DF8009402460B46194809F05DF90A21DE
:101600001F4808F06BFE21463046FFF79DFB09F0AE
:10161000FDFF009402460B46114809F04DF90121E7
:10162000184808F05BFE09F101090D4809F0ECF8D3
:10163000B9F13F0F0AF10D0A06F1F4067FF45BAF32
:101640000FB0BDE8F08F01210A4808F047FE6FE7B0
:10165000DC0C010000007A44CC0801006C09010098
:10166000D887FF1F68180100780901007C09010074
:101670005C0B01006C0B0100840901009009010062
:101680009C090100A80901002DE9F04F85B000F583
:101690008E758A4603929B462E464FF0010806E05F
:1016A00008F10108B8F13F0F06F1F4067BD030468F
:1016B000FFF758FB0028F3D000230A2251467E484A
:1016C00009F0B2F801217D4808F008FE039809F0FE
:1016D0009DFF00230246009377480B4609F0ECF883
:1016E0000121764808F0FAFD5946734809F0DCF804
:1016F0000121724808F0F2FD41466F4809F0D4F824
:1017000001216E4808F0EAFD00244FF0020921464D
:101710003046FEF73FFF09F079FFCDF80090024612
:101720000B46654809F0C8F801340121634808F008
:10173000D5FD082C4FF00207E9D100213046FFF714
:1017400003FB09F063FF009702460B465A4809F075
:10175000B3F80121594808F0C1FD01213046FFF7D7
:10176000F3FA09F053FF009702460B46524809F07E
:10177000A3F80121514808F0B1FD39463046FFF782
:10178000E3FA09F043FF009702460B464A4809F086
:1017900093F808F10108484809F036F8B8F13F0F0E
:1017A00006F1F40683D14FF001084FF0000906E07E
:1017B00008F10108B8F13F0F05F1F40579D028468A
:1017C000FFF7D0FA0028F3D000230A2251463C4804
:1017D00009F02AF80121394807F0CEFB039809F0F7
:1017E00015FFCDF8009002460B46354809F064F825
:1017F0000121324807F0C0FB5946314809F054F83E
:1018000001212E4807F0B8FB41462D4809F04CF85D
:1018100001212A4807F0B0FB002402272146284670
:10182000FEF7B8FE09F0F2FE009702460B46244888
:1018300009F042F801340121204807F09DFB0D2CEE
:101840004FF00206EAD100212846FFF77DFA09F0A1
:10185000DDFE009602460B46194809F02DF80121DD
:10186000164807F089FB01212846FFF76DFA09F0B9
:10187000CDFE009602460B46114809F01DF80121E5
:101880000E4807F079FB31462846FFF75DFA09F06C
:10189000BDFE009602460B46094809F00DF808F116
:1018A0000108074808F0B0FFB8F13F0F05F1F40553
:1018B00085D105B0BDE8F08FD887FF1F480501002E
:1018C000C887FF1F014B1870704700BF2087FF1F9C
:1018D0000278002A00F0908070B5034682B00D4671
:1018E000252A2AD158785C1C08B325282FD07328C4
:1018F00031D0642824D0692822D066284FD07A2895
:1019000059D0782835D058282FD062283ED0422888
:1019100038D06C2814D0632812D0742857D054289B
:101920005FD008F05FFD6278631C002AD8D134488C
:1019300002B0BDE8704008F067BF18781C46F0E7B9
:101940002B1D29682E481D4608F0AEFFEBE7104618
:1019500008F048FDE7E72E6830460BF0F1FA014643
:101960003046043508F0BAFCDDE70221254808F0CE
:10197000B5FC2E1D2968224800231022354608F0A8
:1019800053FFD0E70221204808F0A8FC2E1D29684B
:101990001B4800230222354608F046FFC3E70735FF
:1019A00025F007050321D5E90023154800910835E6
:1019B00008F082FFB7E7073525F007050021D5E9D4
:1019C00000230F480091083508F076FFABE729683F
:1019D00001290EBF0D480E480121043508F07EFC98
:1019E000A1E72B68012B07BF04210A480A480521FB
:1019F000043508F073FC96E7014808F005BF00BF06
:101A0000D887FF1FAC090100B0090100B40901002B
:101A1000B8090100BC090100C40901000FB400B5F8
:101A200083B004A951F8040B0191FFF751FF03B0F3
:101A30005DF804EB04B0704770B51B4B1B4C1B6882
:101A400082B00D460193019B236019460446002392
:101A5000164617480A2208F0E7FE0321154808F049
:101A60003DFC032C07D8DFE804F01A15100205210D
:101A7000114808F033FC0221104808F02FFC3146D1
:101A80002846FFF725FF02B070BD07210C4808F07B
:101A900025FCF0E704210B4808F020FCEBE70521CA
:101AA000094808F01BFCE6E70CD3FF1F5492FF1F08
:101AB000D887FF1FCC090100E80901005C0B010079
:101AC000E0090100D8090100D00901000FB400B5F8
:101AD000094B187883B020B103B05DF804EB04B073
:101AE000704705AB1A4604990193FFF7A5FF03B0B1
:101AF0005DF804EB04B070472087FF1F0FB4094B5B
:101B000000B51B78012B83B004D903B05DF804EB5A
:101B100004B0704705AB1A46049901930120FFF702
:101B20008BFFF2E72087FF1F0FB40B4B00B51B782C
:101B3000032B83B004D903B05DF804EB04B0704705
:101B400005AB1A46049901930320FFF775FF03B014
:101B50005DF804EB04B070472087FF1F30B4074DD9
:101B6000074C084900232B70236003654365836598
:101B700080F85C300B6030BC704700BF6092FF1F84
:101B80005C92FF1F5892FF1F0A4A0B49D06D936D5C
:101B900003FB00F34FF47A7000FB03F0642310B5ED
:101BA0000B600AF089F90549054C0AF08DFA2060AE
:101BB00010BD00BF4893FF1F3487FF1FE4388E3EDF
:101BC0009892FF1F38B5044608460D460BF0B8F949
:101BD0002368024629465B6820469847054620460A
:101BE00008F012FE284438BD2DE9F8434748484D17
:101BF000484F494CFFF712FF484BDFF84CE148498A
:101C0000484A49485D601226484D1E70DF60002634
:101C1000474F1C61C3F818E0464C59614FF00C0E59
:101C200045495A629862454A4548DD621E63454D02
:101C30005F6340F61C460A279C63C3F854E041F2F8
:101C40000404DFF808E19964DA64022101221862D1
:101C5000C3F8C45000204FF07C55DE661F67642631
:101C60004FF496775C67C3F81CE03224C3F83CE07D
:101C70004FF05A0E597059721A729A6583F84000E3
:101C80009F661F665C665D64DE654FF47A78C3F814
:101C900078E0DFF8BCC0D867C3F88010C3F88400D0
:101CA000C3F89C40C3F8AC40DFF8A8E0C3F8A80034
:101CB00044F62069C3F8B420C3F8B810FF2741F2F6
:101CC0008831052483F8C8204FF4FA7083F8C920BE
:101CD00040F2D662C3F8BC601D65C3F8A080C3F8AB
:101CE00090C0C3F894E0C3F88C90C3F8B070A3F828
:101CF000C240A3F8CA00C3F89810A3F8C010A3F814
:101D00008820A3F88A20BDE8F88300BFF00901000D
:101D100020A1070066668640000040404893FF1FF0
:101D200033338340CDCCCC3D00008242000020C143
:101D3000000020420000A0409A9979400AD7233D34
:101D4000333373409A99993ECDCC4C40CDCC4C3E28
:101D50000000684200C02044F0B54FF47A6087B0BC
:101D600006F02AFE00210F2006F0FEFD00210E20C5
:101D700006F0FAFD0021112006F0F6FD00211020EA
:101D800006F0F2FD0021122006F0EEFD00211320E6
:101D900006F0EAFD01210B2006F0E6FD00210B20F4
:101DA00006F0CEFD01210C2006F0DEFD00210C2006
:101DB00006F0C6FD0121142006F0D6FD00211420F6
:101DC00006F0BEFD0121152006F0CEFD00211520F4
:101DD00006F0B6FD0121162006F0C6FD00211620F2
:101DE00006F0AEFD0121172006F0BEFD00211720F0
:101DF00006F0A6FD0121052006F0B6FD0021052014
:101E000006F09EFD0121062006F0AEFD964C974D92
:101E10000021062006F094FD01210D2006F0A4FD0E
:101E200020880AF045F80146162006F007FD2088B4
:101E30000AF03EF80146172006F000FD20880AF05F
:101E400037F80146052006F0F9FC20880AF030F842
:101E500000240146062006F0F1FC00942346844A43
:101E60008449854805F058FA2B79804982486FF3F8
:101E70000003E2B201342B7105F014FA082CF3D1FF
:101E800009242B7979497C4843F00103E2B20134FB
:101E90002B7105F007FA0D2CF3D1784D2B6810212A
:101EA000D3F8840005F00AFF2B681021D3F88400D2
:101EB00005F098FF2B680221D3F8840005F054FE4A
:101EC0002B680221D3F8840005F0DCFF2B680F217A
:101ED000D3F8840006F0C4F80C21694808F0FEF934
:101EE000684808F091FC2146674808F0F7F9654812
:101EF00008F08AFC40F2836006F01CFE614808F09E
:101F000083FC1721614808F0E9F95E4808F07CFC81
:101F10005F4B1B789A0600F1DF805D4B1B781B0737
:101F200000F1E6805A4B1B785F0700F1ED80584BBB
:101F30001B789E0700F1F480564B1B781D0600F1BC
:101F4000FB80544B1B785C0600F10281514B1B78DF
:101F5000980600F109814F4B1B78590700F1108159
:101F60004C4B1B781A0700F117814A4B1B789B07D3
:101F700000F11E81434808F047FC72B6464A4CF215
:101F800020534DF628112024138023461180013B55
:101F9000FDD1424D4248434900234FF480562E80E4
:101FA00003800B8032F80E3C9BB243F0D30322F83F
:101FB0000E3C62B640F2413007F068F921463A48DB
:101FC0003A4D08F08BF92F4808F01EFC05F1D006B9
:101FD0002F462C46601B06F0CDF904F8010BB442E5
:101FE000F8D13B78122B04D0264808F00DFCFFF7FF
:101FF000FBFD0420FFF766FC2D4B2E4C0022012137
:102000000D201A6006F09CFCB96D2B48FFF760F9B3
:102010003B6D7A6C97F840102748FFF75BF9274B28
:1020200027491B68274AD7F8A400126881FB03518F
:10203000DB17A3EB211313FB02F30128238000F02D
:10204000BF80214B214C1A680592059D1A680492A5
:1020500004981B6803931E491E4B039A2560086071
:102060001A6007B0F0BD00BF2887FF1F2C94FF1F28
:1020700000D3FF1F20A1070064D1FF1FE894FF1FBA
:10208000100A0100D887FF1F200A0100300A010052
:1020900001F0074000F007400E20054004200540F5
:1020A0000620054016200540340B01004893FF1F11
:1020B0007492FF1FF494FF1F2095FF1F6487FF1F7A
:1020C0001F85EB516087FF1F0CD3FF1F1C95FF1F5F
:1020D0003494FF1FF894FF1F21213C4808F0FEF8BC
:1020E0003B4808F091FB3B4B1B781B077FF51AAF71
:1020F0000C21394808F0F2F8354808F085FB354BDB
:102100001B785F077FF513AF0E21344808F0E6F81F
:102110002F4808F079FB2F4B1B789E077FF50CAFFB
:1021200017212F4808F0DAF8294808F06DFB2D4BED
:102130001B781D067FF505AF0E212B4808F0CEF861
:10214000234808F061FB274B1B785C067FF5FEAE49
:102150001221264808F0C2F81D4808F055FB214B13
:102160001B7898067FF5F7AE1321214808F0B6F8E2
:10217000174808F049FB1B4B1B7859077FF5F0AE59
:102180001C211C4808F0AAF8114808F03DFB154B2B
:102190001B781A077FF5E9AE1921174808F09EF859
:1021A0000B4808F031FB0F4B1B789B077FF5E2AE25
:1021B0001821124808F092F8054808F025FBD9E6E6
:1021C0004FF4967006F0F8FB3BE700BF480A0100A9
:1021D000D887FF1F01F007406C0A01007C0A01004C
:1021E0008C0A010000F00740A40A0100B40A0100B3
:1021F000C80A0100DC0A0100FC0A0100180B0100FA
:1022000070B5464C464D4748E66800232B70FFF7F3
:1022100039F8014630460AF041F808B104232B7022
:102220004048FFF709F821690AF038F818B12B780F
:1022300043F010032B703B48FFF7D4F8A16A0AF073
:102240004BF818B12B7843F040032B70002335482E
:102250006B70FFF7C9F8E16A314E0AF01FF808B158
:102260000123737000232F48EB70FFF70BF805462E
:102270002C482B4EFEF7E0FF0146284609F066FD8C
:10228000E16B0AF029F808B10123F370264D2548C7
:1022900000232B70FEF7F6FF616A0646E06809F03E
:1022A00055FD014630460AF017F808B104232B709B
:1022B0001C48FEF7C1FF616A0646206909F048FD27
:1022C0000146304609F0EAFF18B12B7843F01003BD
:1022D0002B701448FFF786F8A16B0646A06A09F038
:1022E00035FD0146304609F0F7FF18B12B7843F071
:1022F00040032B7000230B486B70FFF775F8A16B40
:102300000546E06A084C09F023FD0146284609F01D
:10231000C5FF08B10123637070BD00BF4893FF1F64
:102320004493FF1F2095FF1FDC94FF1F2DE9F04110
:102330007C4C2368012B82B031D0022B00F0A880A6
:10234000032B00F0C8803BBB774B784AD3F8AC1026
:10235000D3F8B03012685B1A632B0EDD744803FBB0
:1023600002F380FB0302DB17C3EB62131944062060
:1023700002B0BDE8F04106F063B96E4803FB0223EA
:1023800080FB0302DB17C3EB22121144062002B0CC
:10239000BDE8F04106F054B902B0BDE8F081664EE8
:1023A00033680A33B3F57A7F00F3B7801846336099
:1023B00009F082FD614909F0D3FD80465A4DD5F8F8
:1023C000AC0009F079FD0746D5F8B00009F074FDBE
:1023D000394609F0BBFC414609F0C2FD584909F0F5
:1023E00073FE394609F0B4FC09F080FF014606206F
:1023F00006F026F90221534807F070FF524808F012
:1024000003FA0621514807F069FF306809F054FDCE
:102410004A4909F0A5FD09F0F9F8022702460B46E2
:102420000097494808F048FA0D21494807F056FF3F
:10243000D5F8AC0009F040FD8046306809F03CFD5D
:102440003E4909F08DFD0646D5F8B00009F034FD8F
:10245000414609F07BFC0146304609F081FD3849D0
:1024600009F032FE414609F073FC09F0CFF80097FD
:102470000B460246344808F01FFA3946314807F047
:102480002DFF314808F0C0F92368022B7FF458AFC4
:10249000294B254E00221A60D6F8AC0009F00CFD3D
:1024A0000546D6F8B00009F007FD294609F04EFCB4
:1024B000002109F055FD224909F006FE294609F0E0
:1024C00047FC09F013FF0146062006F0B9F823681F
:1024D000032B7FF438AF184B134E4FF47A721A6007
:1024E000D6F8AC0009F0E8FC0546D6F8B00009F0D3
:1024F000E3FC294609F02AFC114909F031FD104995
:1025000009F0E2FD294609F023FC09F0EFFE01463F
:10251000062006F095F8236815E700234FF0000821
:1025200033604BE7BC94FF1F4893FF1F3487FF1FA6
:102530001F85EB51CBF08D287892FF1FCDCCCC3D81
:102540000000C84268180100D887FF1F580B01001F
:10255000600B010070B5B548B54C08F055F9B348AB
:1025600008F052F9B14808F04FF90D21B14807F0D1
:10257000B5FED4F8A830012B11D0AF4CAB48217870
:1025800000230A2208F050F92378052B67D8DFE8EA
:1025900013F006010B01100115011A0101010921B7
:1025A000A64807F09BFEA648FEF746FE216909F003
:1025B00075FE18B10F21A34807F090FEA048FEF762
:1025C00061FEE16809F088FE18B10E219E4807F00F
:1025D00085FE9B48FEF756FE05469948FEF72CFE01
:1025E0000146284609F0B2FBE16B09F075FE18B10F
:1025F0001121964807F072FE9148FEF78FFEA16AFE
:1026000009F06AFE18B10C21914807F067FE8C486A
:10261000FEF784FEE16A09F041FE18B10D218D48F4
:1026200007F05CFE8C4B86481B68012B00F0E880AD
:10263000FEF702FE21697E4D09F04EFE78B180481A
:10264000FEF720FEE96809F029FE40B17A4B1B78BD
:10265000052B00F0E6800821804807F03FFE0221AC
:102660007F4807F03BFE122006F070F9012800F0C9
:10267000AF80112006F06AF9012800F0B380794B91
:102680001B68012B00F0B78002217548764C07F0DB
:1026900025FE764B6548196808F006F9634808F08E
:1026A000B3F80421724807F019FE0B2006F04EF92A
:1026B000002301460A225D4808F0B6F80C2006F017
:1026C00045F9002301460A22584808F0ADF81420C5
:1026D00006F03CF9002301460A22544808F0A4F809
:1026E000152006F033F90A22002301464F4808F06E
:1026F0009BF806215F4807F0F1FD2368DD074FF0E6
:1027000001014CBF5C485D4807F0E8FD236898076D
:102710004FF001014CBF5848584807F0DFFD2368CF
:102720005A074FF001014CBF5348544807F0D6FDFB
:1027300023681B074CBF50485048012107F0CEFDCD
:1027400004214F4807F0CAFD112006F0FFF80023CE
:1027500001460A22354808F067F8102006F0F6F81E
:10276000002301460A22314808F05EF8122006F0E4
:10277000EDF8002301460A222C4808F055F81320F2
:1027800006F0E4F8002301460A222848BDE870401C
:1027900008F04AB807213B4807F0A0FD5FE7062193
:1027A000394807F09BFD5AE70721384807F096FDA6
:1027B00055E70721364807F091FD50E708213548D5
:1027C00007F08CFD4BE70B21334807F087FD46E708
:1027D0000E21324807F082FD112006F0B7F80128DB
:1027E0007FF44DAF0A212E4807F078FD1D4B1B6882
:1027F000012B7FF449AF11212A4807F06FFD43E711
:10280000FEF71AFD216A09F067FD00283FF423AFA7
:102810001621254807F062FD0A21244807F05EFDD5
:102820001DE70A21214807F059FD18E7D887FF1F47
:102830004893FF1F700B0100D894FF1F800B01000D
:102840002095FF1F8C0B01009C0B0100AC0B0100BD
:10285000C00B0100D00B01008492FF1F040C01008B
:1028600068180100F094FF1F1894FF1FC094FF1F09
:10287000780C0100800C0100880C0100541A010042
:102880008C0C0100400C0100100C0100180C010020
:102890002C0C0100340C0100200C0100480C01003C
:1028A000580C0100640C0100E00B0100F80B010062
:1028B0002DE9F04FAB4CD4F88060012E8DB000F0C4
:1028C0007981032E00F0CC80DFF8DC82A64FA74E82
:1028D000E36FA748012B09BF3168316801F100415E
:1028E000316005F039FC3B68002B40F09F80A04828
:1028F000DFF8B49205F006FC3B68C8F80000054616
:10290000002B44D1D4F88030964A012B53D09949FA
:10291000284609F0E1FCC0B99749284609F0BEFCF9
:1029200098B9964A964B12680B920B9A1A60D4F893
:10293000B40009F0C1FA294609F012FB0023C8F8D7
:10294000000033600DB0BDE8F08FDFF830A28C4F8F
:10295000DAF800300A930A983B68DFF85092C01A00
:1029600009F0A6FA294609F0FBFA864909F0ACFB02
:10297000844909F0A9FBD9F8001009F0E9F9DAF85F
:1029800000300993099BC9F800003B60CFE708F0CD
:102990003DFE022502460B4600957B4807F08CFF62
:1029A00004217A4807F09AFCD4F88030D9F8005016
:1029B0006C4A012BABD1764B1B68012B00F0DA81FE
:1029C000022BB4D1D2F88C70384609F075FA29463A
:1029D00009F064FC40B9784209F06EFA294609F022
:1029E0007BFC002800F0F981DFF890A1644FDAF851
:1029F0000030079307983B68DFF8B091C01A09F0E0
:102A000057FA294609F0ACFA5E4909F05DFB5D49C9
:102A100009F05AFBD9F8001009F09AF9DAF80030F9
:102A20000693069BC9F800003B6080E7504805F01C
:102A300069FB08F0EBFD022502460B460095524863
:102A400007F03AFF0321534807F048FCD4F88C10F4
:102A50004D4807F029FF03214E4807F03FFC46E7A9
:102A60004D4D4B4F2B68DFF84081D3F884000F2188
:102A700001233B6005F0F4FA3B683B4F012B3B68B8
:102A800000F0BF80002B40F03D812B68DFF82091E3
:102A9000D3F88400436B19698EB2C9F8006005F061
:102AA00061F8B4F88A2040F6E44303FB06F1B1FB79
:102AB000F0F0801A00B209F0FFF938492B4E824637
:102AC000D4F8900009F04CFA0146504609F0FCFA9F
:102AD000D9F800303060632BDFF8D4A000F3068112
:102AE000002333603B68002B3FF4F2AE02212C48F8
:102AF00007F0F4FB2B68D9F80050D3F8840040F6B7
:102B0000E44303FB05F505F02DF8B5FBF0F009F003
:102B1000CFF90546B4F88A0009F0CEF901462846F7
:102B200009F014F908F072FD022502460B460095E3
:102B3000154807F0C1FE2946194807F0CFFB306859
:102B400008F064FD009502460B460F4807F0B4FEFE
:102B50002946144807F0C2FB2946114807F0BEFB7E
:102B6000B6E600BF4893FF1F1495FF1F8092FF1F1A
:102B70002093FF1F0000FA430000FAC30CD3FF1F8D
:102B80006492FF1F00007A44D887FF1FD80C010011
:102B90005487FF1FD40C0100E894FF1FACC52737F2
:102BA00068180100D00C01008C92FF1F9892FF1F43
:102BB0004093FF1FDFF80883D4F88C70D8F80050DA
:102BC000384609F079F9294609F086FB48B1784280
:102BD00009F072F90146284609F07EFB002840F012
:102BE0000381A54DA54F2A680223D2F884003B60DB
:102BF0000E2105F035FA3B68A14F012B3B687FF4AD
:102C000041AF002B40F0FA802B68DFF8B892D3F880
:102C10008400436B19691FFA81FBC9F800B004F006
:102C2000A1FFB4F88830974E40F6E44A0AFB0BFB4C
:102C3000BBFBF0F0C01A00B209F03EF9924983469E
:102C4000D4F8940009F08CF90146584609F03CFA92
:102C50002A68D9F800303060D2F884000AFB03FA01
:102C600004F080FFB4F88830BAFBF0F00FFA80FA75
:102C7000C3EB0A03002BB4F8C220B8BF5B429342F7
:102C8000BCBF002333603B68002B3FF421AE022120
:102C90007E4807F023FB2B68D9F80050D3F8840056
:102CA00040F6E44303FB05F504F05CFFB4F888103C
:102CB000B5FBF0F000B2411A754807F0F5FD0221AE
:102CC000724807F00BFB306808F0A0FC02250246B2
:102CD0000B4600956E4807F0EFFD03216D4807F0A5
:102CE000FDFA2946694807F0F9FAF1E52B68D3F8AF
:102CF000840004F037FFDAF8003064389842FFF4BB
:102D0000EFAEEFE66248DFF8BC91DFF86CA107F0A8
:102D10007BFD0C21604807F0E1FA0C215F4807F0C9
:102D2000DDFA2A683B68D2F88400426B11698EB2E2
:102D3000C9F80060002B3FF4B2AE04F013FF40F678
:102D4000E44100230A2201FB06F1B1FBF0F15048F7
:102D500007F06AFD02214D4807F0C0FAB4F88A1066
:102D60004B4807F0A1FDDAF80030D9F80060D3F83D
:102D7000840094E64A49284609F0AEFA58B9494910
:102D8000284609F08BFA30B9474A484B1268059239
:102D9000059A1A60CBE5DFF810A1444FDAF800304D
:102DA000049304983B68DFF82091C01A09F080F87A
:102DB000294609F0D5F83E4909F086F93C4909F061
:102DC00083F9D9F8001008F0C3FFDAF80030039354
:102DD000039BC9F800003B60A9E5334A334B1268F6
:102DE0000892089A1A60A2E5234D244F28683E6095
:102DF0004FF0FF320F2104F02FFE3DE62448DFF8AC
:102E0000C4901D4E07F000FDD4F88030012B4FF028
:102E10000B010CBF2748284807F060FA0C211F4817
:102E200007F05CFA2A683B68D2F88400426B1169AB
:102E30001FFA81FBC9F800B0002B3FF4F0AE04F09C
:102E400091FE40F6E44100230A2201FB0BF1B1FBA5
:102E5000F0F10F4807F0E8FC0121184807F03EFAAE
:102E6000B4F888100A4807F01FFD3368D9F800B09D
:102E7000D3F88400D3E600BFE894FF1F5487FF1FF8
:102E80001495FF1F8092FF1FACC5273768180100FB
:102E9000D887FF1FBC0C0100C00C0100AC0C010066
:102EA0000000FA430000FAC30CD3FF1F6492FF1F17
:102EB00000007A44940C0100A00C01006C0B01008E
:102EC0008C92FF1F4093FF1F9892FF1F2DE9F04740
:102ED0008D4D2B6884B043B98C4B1B680393039AC8
:102EE00042F210739A4200F2B880894C894F8A4EA0
:102EF000DFF86882D4F88420854B012A04D0D3F807
:102F00008020002A40F096808448FEF76FFA8449BA
:102F1000D4F86C90256F09F023F809F00DFA626F70
:102F2000A36FC9EB02025B1B80B29A42C9EB00009F
:102F3000D4F85C90C6BF03FB00000132584390FBFD
:102F4000F2F02844A56D00FB09F005FB00F000EB52
:102F50008000400008F0B0FF724909F0B5F88246E1
:102F6000306005FB09F54FF47A7000FB05F008F0BE
:102F7000A3FF6C49DFF89C910546504608F0F0FF2E
:102F8000294609F0A1F8684908F0EAFF09F0AEF90E
:102F90006328386048DD2846624909F095F86423C3
:102FA0003060C9F80030D8F80030002B39D0D4F8A0
:102FB0008030574D012B43D0032B00F09780022B1C
:102FC00000F08F800221594807F088F9584B1868A3
:102FD00008F01CFB022402460B460094554807F0FB
:102FE0006BFC2146544807F079F921464F4807F019
:102FF00075F939684F4807F057FC06214F4807F02C
:103000006DF93068474908F0ABFF08F0FFFA00940B
:1030100002460B46474807F04FFC0321484807F09B
:103020005DF904B0BDE8F0870028BCBF0023C9F8F3
:103030000030B8E7D6F800A0D3F85C909D6D90E71B
:10304000404B1B68012B4FF00A010CBF3E483F4824
:1030500007F044F9D5F88030AEE730482C4CFEF745
:10306000C5F92F49E76E266F08F07AFF09F064F979
:10307000626FA36FD21B9B1B80B29A42A0EB07002A
:103080003BDD03FB0000531C90FBF3F31E44E06D9B
:10309000A36D204FDFF8C4803E6000FB06F003FB09
:1030A00000F000EB8000400008F006FF1D491A4EBA
:1030B00009F00AF8D8F80030306001222A60002BAD
:1030C0003FF418AF0221194807F008F9194807F032
:1030D0009BFB59211E4807F001F9164807F094FBA5
:1030E00008E707211B4807F0F9F86BE710211A4899
:1030F00007F0F4F8D4F8803061E703FB00F393FBAA
:10310000F2F31E44C3E700BF7C92FF1F0CD3FF1FE6
:103110004893FF1F3487FF1F9892FF1F2095FF1FC2
:1031200000007A44E4388E3E0000C842681801006E
:103130008C92FF1FD887FF1FD00C0100700D01007B
:10314000780D01005487FF1F3C0D0100480D010060
:10315000E00C0100680D0100540D01003C87FF1FC9
:1031600030B5112083B005F0F1FB012818D01220F2
:1031700005F0ECFB012813D000210B2005F0E0FB4B
:1031800000210C2005F0DCFB0021152005F0D8FB08
:103190002649274B0120002208701A6003B030BD79
:1031A0000121152005F0CCFB224A234C234B126849
:1031B000D4F8981001921B68019A1D4D0B4493425C
:1031C0004FF00201296005D901210C2005F0B8FB60
:1031D00003B030BDD4F8A00008F06EFE184B19689B
:1031E00009F05CF80028EFD101210B2005F0A8FBC5
:1031F00094F8C83003242C6043B10C4B02221A709F
:1032000000210C2005F09CFB03B030BD122005F01E
:103210009DFB012808BF054B4FF0110008BF1C7033
:1032200005F094FB0128EBD1E7E700BFD894FF1F1E
:103230001095FF1F0CD3FF1F4893FF1F1C95FF1F06
:103240008C92FF1FF0B5684E684D34682B689C4225
:1032500087B039D014F0010155D014F0020149D0E3
:1032600014F004013DD0E3070ED52B68DF070BD423
:103270005F4F3A68002A00F082805E4B1B68019322
:10328000019B93426DD83468A0070DD52B68990730
:103290000AD4594F3A68002A4CD0564B1B68039306
:1032A000039B934238D8346862070DD52B685B07BF
:1032B0000BD4524F3A68002A7ED04E4B1B680593C0
:1032C000059B934268D834680CB107B0F0BD214625
:1032D000162005F0B5F92146172005F0B1F907B021
:1032E000F0BD052005F0ACF92B68346803F0FB0352
:1032F0002B60B8E7172005F0A3F92B68346803F0BA
:10330000FD032B60ACE7162005F09AF92B683468B2
:1033100003F0FE032B60A0E7394B1720D3F89C1075
:1033200005F08EF92B68346843F0020300222B600D
:103330003A60B9E7334807F067FA0C21324806F0E3
:10334000CDFF304807F060FAFF21172005F078F92B
:10335000284B2E4A19680291029912680A443A6071
:103360009CE7274B1620D3F89C1005F069F92B68D1
:10337000346843F0010300222B603A6084E7FF21A8
:10338000162005F05DF91B4B204A19680091009941
:1033900012680A443A6071E7194B0520D3F89C1073
:1033A00005F04EF92B68346843F0040300222B60CB
:1033B0003A60002C89D18AE7124807F025FA0C21DF
:1033C000134806F08BFF0F4807F01EFAFF21052077
:1033D00005F036F9074B0D4A1968049104991268F3
:1033E0000A443A606AE700BF1095FF1F1894FF1F58
:1033F0009C94FF1F0CD3FF1FA094FF1FA494FF1FDA
:103400004893FF1FD887FF1F7C0D01007487FF1FA3
:103410008C0D01002DE9F047534EDFF870813368C1
:10342000DFF86C91D3F88400504D0F2104F018FEA2
:103430000023012222214E48C8F80030C9F800209C
:1034400006F04CFFD8F80030132B20DC40F6E447A0
:103450003368B5F888A0D3F88400436B1C6904F086
:1034600081FBA4B2012107FB04F4B4FBF0F4414852
:103470005444A5F8884006F031FF642005F09CFA1A
:10348000D8F800300133132BC8F80030E0DDB5F870
:103490008830394A3948A2FB03129B1A02EB5303C6
:1034A000C3F30F131946A5F8883007F0FDF91D2165
:1034B000334806F013FF0221324806F00FFF2F4871
:1034C00007F0A2F932680023D2F88400C8F800306F
:1034D0000E2104F0C5FD022322212548C9F8003041
:1034E00006F0FCFED8F80030132B20DC40F6E44751
:1034F0003368B5F88A90D3F88400436B1C6904F0F4
:1035000031FBA4B2012107FB04F4B4FBF0F4194829
:103510004C44A5F88A4006F0E1FE642005F04CFA20
:10352000D8F800300133132BC8F80030E0DDB5F8CF
:103530008A30114A1148A2FB03129B1A02EB530373
:10354000C3F30F131946A5F88A3007F0ADF91D2112
:103550000D4806F0C3FE02210A4806F0BFFE0748E8
:10356000BDE8F04707F050B9E894FF1F4893FF1FEC
:103570009C0D0100E00D010087611886D887FF1FB0
:10358000C00D010068180100E40D0100C494FF1F84
:103590005487FF1FA64B2DE9F0411B68A54CA64D93
:1035A00040F2513108222160E271686D002B40F039
:1035B000EE8008F081FC6969064608F0D1FC9F495D
:1035C0009D4F08F0CDFC08F0B7FE80B20312637285
:1035D0009B4A9C4B12681B68A969A37215121B12A7
:1035E000E372227320726573304608F0B9FC934988
:1035F000904D08F0B5FC08F09FFE83B21A122946E0
:103600009148A373E27304F07FF8904B904A1B68D3
:103610001288A272DEB206EB8601267203EB8306E5
:10362000490046F3D71640F2553E12124FF00008FB
:103630001B1221736673294608268348C4F800E0EC
:10364000E2726372E67184F80E8084F80F8004F0F1
:103650005BF840F256337F482360E671FDF736FE93
:103660007D4908F07DFC08F067FE20727948FDF77F
:103670002DFE794908F074FC08F05EFE774A764921
:10368000C0F307236372106808F01EFD08F02EFED9
:1036900040FA06F203466F48E272A372FDF73EFE5F
:1036A000664908F05DFC08F021FE20736948FDF7CB
:1036B00035FE624908F054FC08F018FE294640F334
:1036C00007236148637384F80E8084F80F8004F048
:1036D0001BF8022005F070F9614A624B10785178AE
:1036E000207290786172D2781978A072987893F8E5
:1036F00001E0E2722173DA78A07340F25A3329466E
:10370000514884F80DE0E2732360E67103F0FCFF9A
:10371000554B4D481A785978227261729A78D97847
:10372000A272E1721A79597993F806E022736173F3
:10373000DA7984F80EE040F25E332946E2732360C2
:10374000E67103F0E1FF022005F036F9474B3E48F1
:103750001A785978227261729A78D978A272E172D5
:103760001A79597993F806E022736173DA79E67170
:103770004FF45C732946236084F80EE0E27303F093
:10378000C3FF3B4B1B68012B06D0BDE8F08108F05E
:1037900093FB296A064610E72E48FDF74DFDF96CAC
:1037A00008F0D6FA80462B48FDF76CFD01464046EE
:1037B00008F074FD0028E8D040F2C3332548EE71CC
:1037C0002B60FDF739FDBE6C314608F067FDC8B1CE
:1037D0002849304608F0C4FB08F0AEFD80B2031261
:1037E00068722B720023012604250322A672E5725B
:1037F00022736373A373E3730E491348BDE8F0416A
:1038000003F082BF1348FDF717FD1A4908F0A8FB23
:1038100008F092FDC0F307230E482B72FDF70CFD54
:10382000144908F09DFB08F087FD6872DAE700BFD5
:103830008492FF1F0095FF1F4893FF1F0000204147
:10384000E494FF1F6C92FF1F64D1FF1F3487FF1F9A
:103850003887FF1F2095FF1F0000C8428C92FF1F72
:103860004493FF1FDC94FF1F2C87FF1F5887FF1F07
:10387000F094FF1F00007A44F0B5A84CA84D83B027
:1038800006F0C6FC23682860042B00F03883022B66
:1038900000F0B780082B47D0072B40F06581332814
:1038A00001F0598500F3B683312801F03E853228B6
:1038B00043D106F0E9FC002840F3548199489A4E20
:1038C00007F034F908F0F8FA984908F049FB612349
:1038D0000122F06322602B601846A0F152031F2BD7
:1038E00001F20185DFE813F0EB0CFF0CFF0CFF0C7D
:1038F000FF0CFF0CFF0CFF0CFF0CFF0CFF0CFF0C70
:10390000FF0CFF0CFF0CD603090E4F05E805BA04A7
:10391000FF0CFF0CFF0C4A04FF0C540EFF0CFF0CB5
:10392000FF0CFF0CFF0CED0C322800F07E83712899
:1039300000F07683312800F08E83002B08BF7328B7
:103940000CBF01200020002859D0764806F05CFF0B
:103950000421774806F0C2FC724806F055FF10219A
:10396000744806F0BBFC6F4806F04EFF1321724806
:1039700006F0B4FC714B6B48196806F095FF694876
:1039800006F042FF14216E4806F0A8FC654806F0D8
:103990003BFF1E216B4806F0A1FC624806F034FF95
:1039A0001521694806F09AFC5E4806F02DFF1E219D
:1039B000664806F093FC5B4806F026FF2021644829
:1039C00006F08CFC574806F01FFF1921614806F0ED
:1039D00085FC544806F018FF12215F4806F07EFC73
:1039E000504806F011FF0D215C4806F077FC4D4869
:1039F00006F00AFF5A4A002101231160236003B038
:103A0000F0BDA0F13102422A97D801A151F822F06D
:103A1000174A00002F4A00004B4A0000654A000088
:103A2000834A0000B14900003B390000D34900003F
:103A30003B3900003B3900003B3900003B390000B6
:103A40003B3900003B3900003B3900003B390000A6
:103A50003B3900003B3900003B3900003B39000096
:103A60003B3900003B3900003B3900003B39000086
:103A70003B3900003B3900003B3900003B39000076
:103A80003B3900003B3900003B3900003B39000066
:103A90003B3900003B3900003B3900003B39000056
:103AA0003B3900003B3900003B3900003B39000046
:103AB0003B3900003B3900003B3900003B39000036
:103AC0003B3900003B3900003B3900003B39000026
:103AD0003B3900003B390000F74900003B3900004A
:103AE0003B3900003B3900003B3900003B39000006
:103AF0003B3900003B3900003B3900003B390000F6
:103B00003B3900003B3900003B3900003B390000E5
:103B1000214000003B390000034A00009C92FF1F37
:103B20006892FF1FD887FF1F4893FF1F6F12833AC9
:103B3000F4160100FC160100101701002487FF1F76
:103B4000241701003C1701005C17010074170100E5
:103B500094170100B8170100D4170100E8170100FD
:103B60003C87FF1F23682868062B40F08D80A0F15A
:103B70003102402A3FF6E1AE01A151F822F000BF28
:103B80003D48000069480000B3480000D9480000E3
:103B9000FF48000019480000954800003B3900002C
:103BA0003B3900003B3900003B3900003B39000045
:103BB0003B3900003B3900003B3900003B39000035
:103BC0003B3900003B3900003B3900003B39000025
:103BD0003B3900003B3900003B3900003B39000015
:103BE0003B3900003B3900003B3900003B39000005
:103BF0003B3900003B3900003B3900003B390000F5
:103C00003B3900003B3900003B3900003B390000E4
:103C10003B3900003B3900003B3900003B390000D4
:103C20003B3900003B3900003B3900003B390000C4
:103C30003B3900003B3900003B3900003B390000B4
:103C40003B3900003B3900003B3900003B390000A4
:103C50003B3900003B3900003B3900003B39000094
:103C60003B3900003B3900003B3900003B39000084
:103C70003B3900003B3900003B3900003B39000074
:103C80002140000023682868052B40F08D80A0F1BA
:103C90003102402A3FF651AE01A151F822F000BF97
:103CA000EB4500005F47000023470000434700004A
:103CB000DF460000094700003B3900003B390000A7
:103CC0003B3900003B3900003B3900003B39000024
:103CD0003B3900003B3900003B3900003B39000014
:103CE0003B3900003B3900003B3900003B39000004
:103CF0003B3900003B3900003B3900003B390000F4
:103D00003B3900003B3900003B3900003B390000E3
:103D10003B3900003B3900003B3900003B390000D3
:103D20003B3900003B3900003B3900003B390000C3
:103D30003B3900003B3900003B3900003B390000B3
:103D40003B3900003B3900003B3900003B390000A3
:103D50003B3900003B3900003B3900003B39000093
:103D60003B3900003B3900003B3900003B39000083
:103D70003B3900003B3900003B3900003B39000073
:103D80003B3900003B3900003B3900003B39000063
:103D90003B3900003B3900003B3900003B39000053
:103DA0007F47000023682868032B40F0A480A0F11F
:103DB0003002422A3FF6C1AD01A151F822F000BF06
:103DC000CD3E0000994F0000C14F0000E94F0000B8
:103DD0000B5000002D500000555000007D50000099
:103DE0004B5100006F5100003B3900003B3900008F
:103DF0003B3900003B3900003B3900003B390000F3
:103E00003B3900003B3900003B3900003B390000E2
:103E10003B3900003B3900003B3900003B390000D2
:103E20003B3900003B3900003B3900003B390000C2
:103E30003B3900003B3900003B3900003B390000B2
:103E40003B3900003B3900003B3900003B390000A2
:103E50003B3900003B3900003B3900003B39000092
:103E60003B3900003B3900003B3900003B39000082
:103E70003B3900003B3900003B3900003B39000072
:103E80003B39000097510000EB4A00009B500000B6
:103E9000B9500000D7500000F5500000A14A0000C2
:103EA000C54A00003B3900003B3900003B390000A7
:103EB0003B3900003B3900003B3900003B39000032
:103EC0003B390000E1510000ED51000006F0DCF943
:103ED000002841F31182CF48CF4E06F027FE01277C
:103EE000034601466222CD48B36527602A60FDF78C
:103EF000EFF923682868012B7FF41FADEDE4A0F1F2
:103F00003102402A3FF619AD01A151F822F000BF5D
:103F100039490000AD4900008B490000A949000063
:103F2000514900006D4900008349000087490000A5
:103F3000134900003B3900003B3900003B390000C9
:103F40003B3900003B3900003B3900003B390000A1
:103F50003B3900003B3900003B3900003B39000091
:103F60003B3900003B3900003B3900003B39000081
:103F70003B3900003B3900003B3900003B39000071
:103F80003B3900003B3900003B3900003B39000061
:103F90003B3900003B3900003B3900003B39000051
:103FA0003B3900003B3900003B3900003B39000041
:103FB0003B3900003B3900003B3900003B39000031
:103FC0003B3900003B3900003B3900003B39000021
:103FD0003B3900003B3900003B3900003B39000011
:103FE0003B3900003B3900003B3900003B39000001
:103FF0003B3900003B3900003B3900003B390000F1
:104000003B3900003B3900003B3900003B390000E0
:1040100021400000342801F0768171287FF48DACB6
:10402000002373202360286087E406F02DF9002820
:1040300040F3AD837748784E06F078FD07F03CFFFB
:10404000774907F08DFF07460246336D96F840101A
:104050007248776415E006F017F9002840F39B8357
:104060006C486D4E06F062FDC0B286F84000022832
:1040700094BF01460021336D726C684888BF86F892
:104080004010FDF727F9012369202360286024E40C
:1040900006F0BEF806F0F8F805460028F8D15D48AD
:1040A0005D4E06F0B1FB5B4806F0AEFB594806F0EA
:1040B000ABFB584806F0A8FB564806F0A5FB1F21AD
:1040C000584806F00BF9534806F09EFB1C21564851
:1040D00006F004F9706A554907F042FF07F096FAB6
:1040E000009502460B464B4806F0E6FB022150487D
:1040F00006F0F4F8474806F087FB23214D4806F008
:10410000EDF8F06B494907F02BFF07F07FFA0095B7
:1041100002460B463F4806F0CFFB0221444806F01A
:10412000DDF83C4806F070FB1921434806F0D6F84C
:10413000B06B07F06BFA02250B4602460095354836
:1041400006F0BAFB29463D4806F0C8F8314806F0AB
:104150005BFB22213A4806F0C1F8B6F8CA102D4898
:1041600006F0A2FB0321374806F0B8F8294806F00C
:104170004BFB0723236042E406F04AF806F084F87C
:1041800005460028F8D12348234E06F03DFB214880
:1041900006F03AFB1F4806F037FB1E4806F034FBDA
:1041A0001C4806F031FB1521274806F097F81948FE
:1041B00006F02AFB1821254806F090F82B460A2223
:1041C00096F84010134806F02FFB124806F01CFB2F
:1041D00028211F4806F082F8706C144907F0C0FED1
:1041E00007F014FA00950B4602460A4806F064FBF5
:1041F00002210F4806F072F8064806F005FB13216D
:10420000144806F06BF8034806F0FEFA0823236012
:10421000FFF7F5BBD887FF1F4893FF1F2095FF1FAF
:104220006F12833AF80F01001810010000007A4461
:104230007C0E0100381001005C10010078100100B4
:104240007C100100A0100100BC170100340E010019
:10425000500E0100800E010005F0DAFF06F014F8A0
:1042600005460028F8D17F487F4E06F0CDFA7D48FC
:1042700006F0CAFA7B4806F0C7FA7A4806F0C4FA94
:10428000784806F0C1FA1121784806F027F87548F9
:1042900006F0BAFA2821764806F020F870697549C8
:1042A00007F05EFE07F0B2F9009502460B466D4836
:1042B00006F002FB0221704806F010F8694806F08B
:1042C000A3FA16216D4806F009F8F069694907F06C
:1042D00047FE07F09BF900950B460246614806F041
:1042E000EBFA0221644805F0F9FF5E4806F08CFA0B
:1042F000D6F8B830002B32DD1D21614805F0EEFF05
:10430000306E07F0D9FD5F4907F02AFE07F07EF90D
:10431000022502460B460095524806F0CDFA0121CF
:10432000594805F0DBFF4F4806F06EFA1F21574849
:1043300005F0D4FF706E07F0BFFD524907F010FE84
:1043400007F064F9009502460B46464806F0B4FAB9
:1043500001214D4805F0C2FF424806F055FA1121EF
:104360004B4805F0BBFFD6F8B830062B00F2528759
:10437000DFE813F09B07A007960791078C078707D4
:104380004C0705F045FF05F07FFF0028F9D13548BF
:10439000354E06F039FA334806F036FA314806F061
:1043A00033FA304806F030FA2E4806F02DFA1F2175
:1043B000384805F093FF2B4806F026FA1E213648B0
:1043C00005F08CFF274806F01FFA1A21334805F044
:1043D00085FFD6F88030022B01F06A80032B01F0B4
:1043E0005E80012B01F06D8009212D4805F076FFDC
:1043F0001C4806F009FA14212A481B4F05F06EFFED
:10440000F16F184806F050FA164806F0FDF91C2125
:10441000254805F063FFD6F88410124806F044FAE8
:10442000104806F0F1F91C21204805F057FFD6F896
:10443000B4100C4806F038FA0A4806F0E5F9D6F848
:10444000805025F00205012D00F0A58713211848A2
:1044500005F044FF034806F0D7F902232360FFF775
:10446000CEBA00BFD887FF1F4893FF1F6017010017
:10447000940E010000007A447C0E0100C00E010081
:10448000D80E0100CDCCCC3DD4130100F80E0100B4
:10449000180F010094120100B4120100D41201009F
:1044A0004C13010058130100701301009013010018
:1044B000800E010005F0ACFE05F0E6FE0028F9D103
:1044C000B74806F0A1F9B64806F09EF9B44806F0E0
:1044D0009BF9B34806F098F9B14806F095F9132115
:1044E000B04805F0FBFEAE4806F08EF90D21AE484F
:1044F00005F0F4FEAA4806F087F90F21AB4805F055
:10450000EDFEAB4BA648196806F0CEF9A44806F0BC
:104510007BF91321A74805F0E1FEA74BA0481968D5
:1045200006F0C2F99E4806F06FF91221A34805F083
:10453000D5FEA34B9A48196806F0B6F9984806F0DC
:1045400063F911219F4805F0C9FE9F4B94481968F3
:1045500006F0AAF9924806F057F90E219B4805F09B
:10456000BDFE9B4B8E48D3F8A81006F09DF98C48F1
:1045700006F04AF91921974805F0B0FE964B884895
:10458000196806F091F9864806F03EF91121934822
:1045900005F0A4FE924B8248196806F085F9804820
:1045A00006F032F910218F4805F098FE8E4B7C48BA
:1045B000196806F079F97A4806F026F91C218B482B
:1045C00005F08CFE8A4B7648196806F06DF9744840
:1045D00006F01AF91321874805F080FE704806F0AE
:1045E00013F904232360FFF70ABA05F04DFE0028F3
:1045F0007FF7D8AB6A48764E06F098FA01226B2313
:10460000C6F8980022602B6001E005F001FE05F07D
:104610003BFE0028F9D162486D4D06F0F5F8604880
:1046200006F0F2F85E4806F0EFF85D4806F0ECF8A8
:104630005B4806F0E9F821216F4805F04FFE584825
:1046400006F0E2F815216D4805F048FED6F89810FE
:10465000534806F029F90221694805F03FFE504809
:1046600006F0D2F81E21674805F038FED6F8A010F3
:104670004B4806F019F90321634805F02FFE48481E
:1046800006F0C2F81E21614805F028FED6F89C10FD
:10469000434806F009F9424806F0B6F81D215C4887
:1046A00005F01CFED6F8AC103D4806F0FDF83C487D
:1046B00006F0AAF81E21574805F010FED6F8B010F3
:1046C000374806F0F1F8364806F09EF8D6F8A830DC
:1046D000012B00F0FF8605232360FFF790B905F05A
:1046E000D3FD00287FF75EAB2D48394E06F01EFA49
:1046F0003B4BC6F8B00003221A60FDF717FE0122FB
:104700006B2322602B6082E7314E96F8C930B3FAF2
:1047100083F35B0901216B2286F8C93021602A608E
:1047200075E705F0B1FD00287FF73CAB1C48284E2B
:1047300006F0FCF901226B23C6F89C0022602B6076
:1047400065E705F0A1FD00287FF72CAB1448204E4B
:1047500006F0ECF9224BC6F8AC000222CCE705F0DB
:1047600093FD00287FF71EAB0D48194E06F0DEF9C9
:1047700001226B23C6F8A00022602B6047E7184A8D
:1047800000237320136023602860FFF7D6B82368E6
:104790002868FFF781B80E4E96F8400067E400BF26
:1047A000D887FF1FB0110100C4110100D41101000E
:1047B0009894FF1FE41101001495FF1FF8110100E8
:1047C000D494FF1F0C120100FC94FF1F2012010063
:1047D0004893FF1F30120100C094FF1F4C120100CC
:1047E000BC94FF1F601201008892FF1F7412010029
:1047F0006887FF1F800E0100A4100100C81001008F
:10480000AC0F0100E0100100BC0C01000011010020
:10481000201101004011010005F036FD00287FF74E
:1048200031AAB948B94E06F081F965230122C6F8CC
:10483000BC0022602B601846FFF74FB805F024FD3E
:1048400000287FF71FAAB048B04E06F06FF907F0B6
:1048500033FBAF4907F038FC652301227061226009
:104860002B601846FFF739B805F00EFD00287FF7DA
:1048700009AAA548A54E06F059F907F01DFBA44961
:1048800007F022FC65230122F06122602B601846AC
:10489000FFF723B89D4B93F8C820002A00F06E85DF
:1048A000002283F8C8200123652023602860FFF7D9
:1048B00014B805F0E9FC00287FF7E4A99248934E6C
:1048C00006F034F900EB80004300012265203366D6
:1048D00022602860FFF701B805F0D6FC00287FF7BA
:1048E000D1A98948894E06F021F900EB80004300E8
:1048F00001226520736622602860FEF7EEBF834ABE
:10490000D2F8B8300133062BC8BF0023C2F8B83044
:10491000C9E70123236005F0B7FC002800F33385C5
:104920007C4B1A68042AC4BF02221A6064232B60DD
:1049300023686420FEF7AEBF774A1368B3FA83F3A7
:104940005B0901216420136021602860FEF7C5BF68
:104950006E4ED6F8A830B3FA83F35B0901226420C7
:10496000C6F8A83022602860FEF7B7BF01236B4865
:104970002360FCF785FA6A4A2368106064222A6083
:10498000D7E7684AD9E7684AD7E7684A684F1368A3
:10499000002B0CBF012300234FF0010013602060A7
:1049A00040F067850346E9E7624AC6E7624AC4E722
:1049B0000123236005F068FC002805DD5248534EB2
:1049C00006F0B4F8A6F8C200632028602368FEF75A
:1049D00063BF0123236005F057FC002805DD4A482A
:1049E0004A4E06F0A3F8C6F88C000123632023602A
:1049F0002860FEF772BFFEF70DFD23682868FEF7FA
:104A000049BF424AD2F880300133032BC8BF00238C
:104A1000C2F88030E9E73D4EF36FB3FA83F35B09E8
:104A200001226320F36722602860FEF756BF374EED
:104A3000D6F88430B3FA83F35B0901226320C6F809
:104A4000843022602860FEF748BF0123236005F010
:104A50001BFC0028C9DD2C482C4E06F067F8C6F870
:104A6000B400C2E70123236005F00EFC0028ABDD93
:104A70002548264E06F05AF807F01EFAC6F89400AC
:104A8000A2E70123236005F0FFFB00289CDD1E4800
:104A90001E4E06F04BF807F00FFAC6F8900093E7A9
:104AA00005F0F2FB00280DDD1748184E06F03EF821
:104AB00007F002FA164907F007FB01226223306271
:104AC00022602B6005F0E0FB00280EDD0E480F4E43
:104AD00006F02CF807F0F0F90D4907F0F5FA01227D
:104AE0006223C6F8C40022602B6005F0CDFB0028CD
:104AF00040F302840448054E06F018F801226223B0
:104B0000F06622602B601BE0D887FF1F4893FF1FD1
:104B100000007A446887FF1F9894FF1F2095FF1FAD
:104B2000C094FF1FBC94FF1F8892FF1FD494FF1FE7
:104B30009C92FF1FFC94FF1F1495FF1F05F068FB5C
:104B400005F0A2FB05460028F8D1C24805F05CFE3E
:104B5000C04805F059FEBF4805F056FEBD4805F0B7
:104B600053FEBC4805F050FE1521BB4805F0B6FBCE
:104B7000B84805F049FE1421B84805F0AFFBB54828
:104B800005F042FE1B21B64805F0A8FBB14805F030
:104B90003BFE1321B34805F0A1FBAE4805F034FEFF
:104BA000AC4805F031FEAB4805F02EFE2021AE48A2
:104BB00005F094FBF068AD4907F0D2F906F026FD48
:104BC000009502460B46A34805F076FE0221A84850
:104BD00005F084FB0221A74805F080FB9D4805F005
:104BE00013FE2121A44805F079FB30699F4907F0A5
:104BF000B7F906F00BFD009502460B46954805F007
:104C00005BFE02219A4805F069FB0221994805F0F4
:104C100065FB904805F0F8FD1F21984805F05EFB04
:104C2000B06A06F0F3FC022702460B46009789485B
:104C300005F042FE0121924805F050FB39468D48AF
:104C400005F04CFB834805F0DFFD20218D4805F081
:104C500045FBF06A06F0DAFC009702460B467D48F9
:104C600005F02AFE0121864805F038FB39468148C7
:104C700005F034FB774805F0C7FD2321824805F095
:104C80002DFBB06C794907F06BF906F0BFFC00957D
:104C900002460B466F4805F00FFE3946744805F092
:104CA0001DFB3946734805F019FB6A4805F0ACFD59
:104CB0001F21764805F012FBF06C6C4907F050F9A3
:104CC00006F0A4FC009502460B46624805F0F4FD90
:104CD0003946674805F002FB3946664805F0FEFA9A
:104CE0005C4805F091FD1921694805F0F7FAF16D6E
:104CF000584805F0D9FD3946664805F0EFFA3946BF
:104D00005C4805F0EBFA534805F07EFD1821624837
:104D100005F0E4FAB06E07F0CFF8604907F020F92B
:104D200006F074FC009702460B464A4805F0C4FDA5
:104D300001215B4805F0D2FA39464E4805F0CEFA1B
:104D4000444805F061FD2B21564805F0C7FAB069CB
:104D5000464907F005F906F059FC009502460B4656
:104D60003C4805F0A9FD3946414805F0B7FA3946F7
:104D7000404805F0B3FA374805F046FD1F214A4880
:104D800005F0ACFAB16D334805F08EFD394639486F
:104D900005F0A4FA2F4805F037FD2021434805F01F
:104DA0009DFA716D2B4805F07FFD3946314805F0BD
:104DB00095FA284805F028FD10213D4805F08EFAA7
:104DC000F16E244805F070FD3946294805F086FA51
:104DD0003946284805F082FA1E4805F015FD1321D2
:104DE000344805F07BFA316F1A4805F05DFD01216A
:104DF000314805F073FA39461E4805F06FFA154838
:104E000005F002FD10212D4805F068FA716F114878
:104E100005F04AFD3946164805F060FA394615484E
:104E200005F05CFA0B4805F0EFFC1421244805F06E
:104E300055FAB16F074805F037FD01211E4805F00E
:104E40004DFA39460B4805F049FA024805F0DCFCFA
:104E5000162137E0D887FF1F4014010058140100C5
:104E600070140100800E01008C14010000007A44CF
:104E70007C0E010068180100B0140100D414010078
:104E8000A8090100F4140100181501003C150100E7
:104E90005C150100781501007C150100CDCCCC3DDE
:104EA000D413010098150100C4150100E415010098
:104EB000081601001C16010030160100341601000E
:104EC00048160100BB4805F009FA306ABA4907F0F4
:104ED00047F806F09BFB009502460B46B74805F0E5
:104EE000EBFC3946B64805F0F9F93946B54805F006
:104EF000F5F9B24805F088FC2421B34805F0EEF935
:104F0000D6F8C400AC4907F02BF806F07FFB0095FB
:104F100002460B46A94805F0CFFC3946A84805F0E3
:104F2000DDF93946A74805F0D9F9A44805F06CFC2D
:104F30002B21A64805F0D2F9706B06F067FB0097AD
:104F400002460B469D4805F0B7FC0121A04805F03C
:104F5000C5F939469B4805F0C1F9984805F054FC5D
:104F600027219C4805F0BAF9D6F8CC00924906F002
:104F7000F7FF06F04BFB00950B4602468F4805F005
:104F80009BFC39468E4805F0A9F98C4805F03CFC9D
:104F900003232360FEF733BD05F076F9002840F3C4
:104FA000AB8186488C4E05F0C1FD06F085FF824935
:104FB00007F08AF801226223F06022602B60BFE5CF
:104FC00005F062F9002840F397817C48824E05F095
:104FD000ADFD06F071FF784907F076F801226223F3
:104FE000306122602B60ABE505F04EF9002840F3FC
:104FF00083817248784E05F099FD06F05DFF01222D
:105000006223B06222602B609AE505F03DF900282A
:1050100040F372816948704E05F088FD06F04CFF40
:1050200001226223F06222602B6089E505F02CF9F1
:10503000002840F361816148674E05F077FD06F076
:105040003BFF5D4907F040F801226223B064226013
:105050002B6075E505F018F9002840F34D8157489D
:105060005D4E05F063FD06F027FF534907F02CF86D
:1050700001226223F06422602B6061E505F004F9EF
:10508000002840F339814D48534E05F04FFD012271
:105090006223F06522602B6052E505F0F5F80028E8
:1050A00040F32A8145484C4E05F040FD0122622321
:1050B000306722602B6043E505F0E6F8002840F3F6
:1050C0001B813E48444E05F031FD0122622370678A
:1050D00022602B6034E505F0D7F8002840F30C81FE
:1050E00036483D4E05F022FD01226223B067226062
:1050F0002B6025E5FCF778FD02213248364E05F09D
:10510000EDF82E4805F080FB02212E4805F0E6F868
:105110002A4805F079FB02212A4805F0DFF82748E4
:1051200005F072FB17212D4805F0D8F8234805F04B
:105130006BFB0221234805F0D1F8204805F064FB01
:105140000122622322602B60FAE405F09DF800281A
:1051500040F3D2801948204E05F0E8FC00EB8000B7
:10516000430001216222B36621602A60E8E405F071
:105170008BF8002840F3C0801048174E05F0D6FC8D
:1051800006F09AFE0C4906F09FFF01226223B061EF
:1051900022602B60D4E405F077F8002840F3AC805F
:1051A00006480D4E05F0C2FC0122622370652260A4
:1051B0002B60C5E46016010000007A44D887FF1F09
:1051C0007C0E01006818010078160100A01601008D
:1051D000A8090100CC1601004893FF1F100E010022
:1051E0000022732322602B60FEF7AFBBC44BC5487F
:1051F000C54E002202211A6005F070F8C34805F080
:1052000003FB0B21C24805F069F892E70421C1486D
:1052100005F064F8BD48BC4D05F0F6FAD6F8B83094
:10522000002B12DD1821BC4805F058F8D5F8BC1049
:10523000B64805F039FB0221B84805F04FF8B348ED
:1052400005F0E2FAB14805F0DFFA1B21B44805F099
:1052500045F896F8C830012B15BF12211421B1482A
:10526000B14805F03BF8A94805F0CEFA1321AF4844
:1052700005F034F8A54805F0C7FA06232360FEF7C9
:10528000BEBB0B21AA4805F029F8C3E70D21A948A8
:1052900005F024F8BEE70D21A74805F01FF8B9E78F
:1052A0000C21A64805F01AF8B4E70D21A44805F032
:1052B00015F8AFE70C21A34805F010F8AAE704F0B1
:1052C0008BF9D0220021904803F06EF828689E4A9E
:1052D000A0F1730001210023B0FA80F040091160B1
:1052E0002360FEF730BB2368002B08BF73280CBF78
:1052F00001200020FEF727BB23682868012B7EF4DD
:105300001CABFEF7EABA04F0BFFF00287EF72AAC18
:105310007E487D4E05F00AFC61230122A6F8CA00F2
:1053200022602B601846FEF7D8BA04F0ADFF0028C3
:105330007EF718AC7548744E05F0F8FB06F0BCFD1E
:10534000824906F00DFE61230122706222602B600B
:105350001846FEF7C2BA04F097FF00287EF702ACA9
:105360006A48694E05F0E2FB06F0A6FD61230122C2
:10537000B06322602B601846FEF7AFBA012283F8B3
:10538000C820FFF790BA614805F0D0FB704B024689
:105390001860FFF7C7BA1C216E4804F09FFFD7F8CA
:1053A00094006D4906F0DCFD06F030F900950246E8
:1053B0000B46564805F080FA0521684804F08EFF38
:1053C000524805F021FAD7F88050012D19D11D213E
:1053D000634804F083FFD7F890005F4906F0C0FDF2
:1053E00006F014F9009502460B46484805F064FAA9
:1053F00005215A4804F072FF444805F005FAD7F831
:10540000805025F00205012D7FF420A81C2155486D
:105410003D4D04F063FFB6F8C2103C4805F044FA75
:105420000321514804F05AFF384805F0EDF9D6F849
:105430008030012B7FF40AA81F214C4804F04EFF56
:10544000D5F88C0006F038FD404906F089FD06F0DD
:10545000DDF8022502460B4600952C4805F02CFA93
:105460002946434804F03AFF284805F0CDF9FEF7F5
:10547000EDBF404B002631460B201E6003F060FA62
:1054800031460C2003F05CFA3146142003F058FA40
:105490003146152003F054FA3B68FFF76FBA20211C
:1054A000354804F01BFF194805F0AEF9FEF7A3BF1D
:1054B0001721324804F012FF144805F0A5F9FEF751
:1054C0009ABF1E212E4804F009FF104805F09CF9F0
:1054D000FEF791BF20212B4804F000FF95F8C9305A
:1054E0002BB929490948FCF76DFBFFF7F4B82749A8
:1054F0000648FCF767FBFFF7EEB8034EFFF720BB4B
:105500007C92FF1F681801004893FF1FD887FF1F78
:10551000280E0100880F0100900F0100AC0F010060
:10552000B00F0100CC0F0100E00F0100800E010060
:105530007C0F01006C0F01005C0F01004C0F01009B
:105540002C0F01003C0F01003C87FF1F6F12833AB4
:105550006887FF1FB0130100CDCCCC3DD0130100F4
:10556000D8130100F8130100181401001C140100E5
:105570003C1401001095FF1F1013010034130100AB
:10558000F01201006011010084110100901101006E
:10559000014EFFF73CB800BF4893FF1F38B5174CCA
:1055A000174A2368101D12F8011F904241EA032395
:1055B000F9D12360134C03F100432360124BD3F85D
:1055C0008030022B11D0114B1B68012B00D038BD4D
:1055D0000F4805F019F921680D4805F065F9032118
:1055E0000C48BDE8384004F079BE20680A4D06F04A
:1055F00063FC2860FDF75CF9E5E700BF2494FF1F1A
:10560000B394FF1FE094FF1F4893FF1F9894FF1F60
:10561000D887FF1FF81701008092FF1F30B53E4D5D
:105620003E4883B0294601F067FF2B6840F2C23242
:10563000934256D0B3F5407F394C08D222683649A0
:105640003848012A18BF0022FBF76CFC2B68364A49
:1056500023F060431A44EE2A07D822682E493148C5
:10566000012A18BF0022FBF729FC2368012B01D077
:1056700003B030BD2D4B2E481B6801930A22002336
:10568000019905F0D1F82A68234B002ADB793BDB2E
:105690002849294807F02CFC274807F051FC01460F
:1056A000254804F01BFE2C681B4B14F080441CD1D1
:1056B000DB798BB12B1921491A7A1F4807F018FCA6
:1056C0001D4807F03DFC01461B4804F007FE01346D
:1056D000EB79E4B2A342EDD8154805F095F803B094
:1056E00030BDFFF75BFF2B68A4E7154D124C0FCDC3
:1056F0000FC495E8030044F8040B204620F8141961
:10570000152104F0EBFDE7E70E490B4822F060425B
:1057100007F0EEFBC0E700BFAC94FF1F64D1FF1F92
:105720009894FF1F2095FF1FFFABAAE50CD3FF1F26
:10573000D887FF1F24180100A092FF1F50180100F6
:1057400038180100FC170100A24B1B78052B00F054
:10575000A1802DE9F04FA04CA04EA14DA26E236E6A
:10576000A048326083B02B60FBF73EFEE16A06F092
:1057700095FD08B100232B609A48FBF733FEA16A20
:1057800006F0AAFD10B1002333602B609548FBF7AB
:1057900079FDE16806F0A0FD08B100232B60914877
:1057A000FBF770FDE16806F097FD08B100232B6060
:1057B0008C48894FFBF740FD216906F06FFD0028FA
:1057C0006ED0002333602B68854F002B53DD854856
:1057D000DFF80482FBF706FE216B06F05FFD002870
:1057E00040F0C480804B7F481B687B4F012B00F04A
:1057F000FD80FBF747FDE1698046606906F0A6FA87
:105800000146404606F068FD002834D0286806F0BE
:1058100053FB82467348FBF735FDD7F81480834667
:10582000F969404606F092FA8146786E06F044FB2C
:105830000446386E06F040FB214606F087FA4946DA
:105840000746584606F082FA0146384606F088FBBD
:1058500049460746404606F079FA0146384606F0C2
:1058600033FC214606F074FA0146504606F06EFA03
:1058700006F03CFD28603368584A002BAFBF2B6808
:105880002B6800211160002B01DA00232B6003B08C
:10589000BDE8F08F5149524A00230B6013607047F6
:1058A0005048FBF7C9FCB96906F0F8FC002888D11C
:1058B0003368DFF82891002B85DD4A48FBF794FD1B
:1058C000796B06F009FD002840F0B3804548424F4F
:1058D000FBF7B2FC216906F0FFFC002800F09F8076
:1058E0004048DFF8F480FBF7A7FCD4F8C410074663
:1058F000A06906F02DFA0146384606F0CFFC0028D4
:105900003FF461AF306806F0D7FA82463548FBF7BE
:1059100093FC8346D8F86000D8F8187006F0CCFAEB
:1059200039468146584606F011FA4946834600201A
:1059300006F00CFA0146584606F012FBD8F8C410DF
:105940008346384606F004FA394606F0FFF9014668
:10595000584606F0B9FB494606F0FAF901465046AA
:1059600006F0F4F906F0C2FC30602CE7386806F067
:10597000A3FA83461B48FBF735FD0190D8F8600079
:10598000D8F82CA006F098FA019B8146514618469B
:1059900006F0DCF949460190002006F0D7F9019B9A
:1059A0000146184606F0DCFA51460190D8F830005E
:1059B00006F0CCF9019B0146184606F085FB4946E6
:1059C00006F0C6F90146584606F0C0F906F08EFC0E
:1059D000386007E7D894FF1F4893FF1FE494FF1F28
:1059E0006C92FF1F2095FF1F8492FF1FFBF74AFC5C
:1059F000E1698046206A06F0A9F90146404606F0B2
:105A00006BFC00283FF437AF286806F055FA824651
:105A10001E48FBF737FCD7F82080834600E71B4879
:105A2000FBF70AFCB96906F057FC00287FF458AF71
:105A3000C9E6D9F8000006F03FFA82461348FBF7A2
:105A4000D3FC0190B86ED7F8348006F035FA019B8C
:105A500083464146184606F079F90146584606F055
:105A60007FFA41468346B86A06F070F90146584607
:105A700006F02AFB002106F06BF90146504606F0BD
:105A800065F906F033FCC9F800001FE72095FF1FF9
:105A900008B5274804F0B8FE0721264804F01EFC8C
:105AA000112002F053FF0621F8B1234804F016FC40
:105AB000122002F04BFF062100B3204804F00EFC38
:105AC000122002F043FF062108B31D4804F006FC33
:105AD000132002F03BFF062110BB1A4804F0FEFB26
