:1000000000800020BD010000AD68000065680000B0
:1000100065680000656800006568000065680000AC
:10002000656800006568000065680000AD68000054
:10003000AD68000065680000ED7F0000F180000001
:10004000AD680000AD680000AD680000AD6800005C
:10005000AD680000AD680000AD680000AD6800004C
:10006000AD680000AD680000AD680000AD6800003C
:10007000AD680000AD680000AD680000AD6800002C
:10008000AD680000AD680000AD680000AD6800001C
:10009000AD680000AD680000AD680000AD6800000C
:1000A000AD680000AD680000AD680000AD680000FC
:1000B000AD6800009D5E0000A95E0000AD5E00001E
:1000C000B95E0000BD5E0000C15E0000AD680000CA
:1000D000AD680000AD680000AD680000AD680000CC
:1000E000AD680000AD680000AD680000AD680000BC
:1000F000AD680000D1870000AD680000A16E00006F
:10010000AD6800006D700000AD680000AD680000D3
:10011000AD680000AD680000AD680000AD6800008B
:10012000AD680000AD680000AD680000AD6800007B
:10013000AD680000AD680000AD680000AD6800006B
:10014000AD680000AD680000AD680000AD6800005B
:10015000AD680000AD680000AD680000AD6800004B
:10016000AD680000B9720000AD680000AD68000025
:10017000AD680000AD680000AD680000AD6800002B
:10018000AD680000AD680000AD680000AD6800001B
:10019000AD680000AD680000AD680000AD6800000B
:1001A000AD680000AD680000AD680000AD680000FB
:1001B000AD680000AD680000AD680000564B4CF221
:1001C000205210B51A804DF628121A8000BF00BFC9
:1001D00006F070FB514B4FF010621A60504A9A6063
:1001E000504ADA60504A136813F4807304D14F49BF
:1001F0000B604FF4A85313604D4B1A78110703D5C9
:100200001A7842F008021A704A4B4B492A221A7097
:100210004A4A4B4B8B4204D252F8040F43F8040B6A
:10022000F8E7484B484900228B4202D243F8042B9E
:10023000FAE74649464A002352F8230041F82300D2
:1002400001336F2BF8D1434B434A802103F8011B44
:100250009342FBD1414B3D4A1A60414B8A221A70AE
:10026000A3F5805324225A70A0221A709A7992071B
:10027000FCD59A79D406FCD43A4A937903F00C035E
:10028000082B384BF9D103221A7140225A719A79FE
:100290009006FCD5334A9179324B4906FBD5324A58
:1002A000324911600221516020221A709A7902F0BD
:1002B0000C020C2AFAD12E4B2E4A1A602E4B2F4AD2
:1002C0001A6000225A60072243F8042C2C4AC3F813
:1002D0000C2D62B606F064FD144B1B68DA0705D5D9
:1002E000284806F063FB284B284A1A60284B1B78E5
:1002F0005B0609D5244C254B22689A4204D121483B
:1003000006F054FB0023236009F0D6FA06F0D8FA71
:1003100008F090F8FEE700BF0E2005403080044052
:10032000823F04000100002B10D0034014D0034092
:1003300002D0074000E007402892FF1FDCF10000D8
:100340002087FF1F2892FF1FC8CEFF1F0082FF1FBC
:100350000000000000E400E05FE400E008ED00E0E1
:100360000050064000400640448004400000030165
:1003700004800440C010050014E000E0FF76010096
:1003800000002020DB4CDB5B1CE00340A5C3945A3B
:1003900000F00740FFFFFFFFFFFFFFFFFFFFFFFF32
:1003A000FFFFFFFFFFFFFFFFFFFFFFFFFFFFFFFF5D
:1003B000FFFFFFFFFFFFFFFFFFFFFFFFFFFFFFFF4D
:1003C000FFFFFFFFFFFFFFFFFFFFFFFFFFFFFFFF3D
:1003D000FFFFFFFFFFFFFFFFFFFFFFFFFFFFFFFF2D
:1003E000FFFFFFFFFFFFFFFFFFFFFFFFFFFFFFFF1D
:1003F000FFFFFFFFFFFFFFFFFFFFFFFFFFFFFFFF0D
:10040000FFFFFFFFFFFFFFFFFFFFFFFFDEF9FFFF23
:1004100010B5054C237833B9044B13B10448AFF33E
:1004200000800123237010BD2892FF1F00000000F0
:10043000D8F10000084B10B51BB108490848AFF3CC
:1004400000800848036803B910BD074B002BFBD0A0
:10045000BDE81040184700BF000000002C92FF1FAD
:10046000D8F100002892FF1F00000000F0B400F156
:100470002C06144F00243146031F00F15C0243F8A0
:10048000044FB34241F8047F4FF0000542F8044F97
:10049000F5D10D4A0D49C0F890500023C0F8945092
:1004A000C0F89850C0F89C50C0F8AC50C0F8A020DC
:1004B000C0F8A820C0F8A41080F8B43080F8CC3080
:1004C000F0BC70470000A040000048430000C8C2D4
:1004D00038B50446087A0D4608F088FF4FF07C5185
:1004E00008F0D8FF064908F0CBFE00220023C4F82C
:1004F00094002A73C4F898306A73C4F89C3038BDED
:1005000000002C4290F8BC00704700BF90F8B80083
:10051000704700BF90F8C000704700BF90F8C4005B
:10052000704700BF0C2994BF50F82100002070478D
:100530002DE9F0410B4E8046041F00F12C0754F8C2
:10054000045F3146284609F043F930B1D8F8B010BD
:10055000284609F05BF900B12E46BC42EFD1304687
:10056000BDE8F081000020412DE9F041D0F8B070E5
:100570004FF00008041F00F12C0654F8045F3946C0
:10058000284609F043F9084948B1284609F020F9FE
:10059000414620B1284609F039F900B1A846B442D5
:1005A000EBD14046BDE8F0810000A0402DE9F047C6
:1005B000D0F8B07082464FF00009041F00F12C06FD
:1005C0004FF0000854F8045F3946284609F01EF938
:1005D0000C4950B1284609F0FBF830B1484629468D
:1005E00008F050FE08F101088146B442EAD1CAF889
:1005F000D080404608F0FAFE0146484608F0FEFF6B
:10060000BDE8F0870000A040D0F8D000704700BFE0
:1006100038B5D0F89840D0F894502146284609F0D3
:10062000D7F800B92C46204638BD00BFD0F8C830F6
:100630002DE9F041002B7CD1D0F89860D0F894508F
:1006400004463146284608F01DFED4F89C70394611
:10065000804608F017FE7F4908F0D0FF4FF07C512C
:10066000044609F0D3F8002861D04FF07C512846A9
:1006700009F0CCF84FF07C51002861D1284609F0F0
:10068000A7F838B14FF07C51304609F0BFF8002888
:1006900040F0A8804FF07C51284609F0B7F80028B8
:1006A00061D14FF07C51284609F0B0F8002840F0A5
:1006B000A2804FF07C51284609F0A8F800286DD19F
:1006C0004FF07C51284609F083F84FF07C5110B36D
:1006D000304609F09BF838B14FF07C51384609F0AC
:1006E00077F8002840F0B1804FF07C51304609F097
:1006F0006FF8002862D04FF07C51384609F086F838
:10070000002840F0A48038464FF07C5109F060F892
:1007100068B1514C11E0284609F05AF80028E3D19D
:1007200028464FF07C5109F053F8002846D1BDE827
:10073000F08100EB8300D0F890402046BDE8F081C6
:10074000304609F063F84FF07C5100283ED038461F
:1007500009F05CF80028F0D14FF07C51284609F0F0
:1007600037F8002859D14FF07C51304609F030F865
:10077000002840D04FF07C51384609F047F8002857
:1007800041D14FF07C51304609F040F868B14FF04C
:100790007C51384609F01CF800284FD14FF07C51AD
:1007A000304609F015F800288AD04FF07C513846C1
:1007B00009F00EF8002883D02C46BEE730464FF0F3
:1007C0007C5109F005F80028B1D09CE7284608F0D4
:1007D000FFFF0028C7D04FF07C51304609F016F8D3
:1007E0000028C0D04FF07C51384609F00FF800289F
:1007F0003FF450AF18E04FF07C51304609F006F856
:100800000028CBD0C3E73946284608F03BFD4FF01F
:100810007C5108F03FFE04468FE74FF07C5138468C
:1008200008F0F4FF00289ED03946304608F02AFD33
:100830004FF07C5108F02EFE04467EE740464FF014
:100840007C5108F027FE044677E7344675E73C46BE
:1008500073E700BF000040400000A0C270B504462E
:10086000FFF7E4FE4FF07C5108F0D0FF40B3D4F81E
:1008700094604FF07C51304608F0C8FFD4F898508F
:10088000F8B9D4F89C404FF07C51284608F0BEFFE0
:1008900058B12946304608F0B9FF30B12146284604
:1008A00008F096FF08B12C4621E04FF07C5120461D
:1008B00008F0ACFF20B12846214608F0A7FF80B918
:1008C00070BD3046294608F083FFD4F89C400028CC
:1008D000D9D03046214608F07BFF0028D3D03446DB
:1008E00005E03046214608F091FF0028E8D0204678
:1008F00070BD00BF01292DE9F8438146154600F07F
:10090000CC80022900F08C80002945D0046848463C
:10091000FFF7A4FFD9F8A010054608F059FF08B169
:10092000C9F8A050D9F89460D9F8985031462846B3
:1009300008F06CFF00286BD13146D9F8A40008F00C
:1009400047FF10B13546C9F8A45009F13006C84632
:1009500009F160050C2701E058F8044F3068214682
:1009600008F054FF214628B1D9F8B00008F03AFF4A
:1009700000B134602146286808F02AFF0436654932
:1009800020B1204608F042FF00B12C60013F05F184
:100990000405E1D1BDE8F883937A507A1B0103EB9B
:1009A000101000F57A7008F021FD5B4908F072FD27
:1009B000C9F800002B7B0446687B1B1103EB001079
:1009C00000F57A7008F012FD534908F063FDC9F88C
:1009D00008002B7BE87A1B0203F47063184400F5CF
:1009E0007A7008F003FD4C4908F054FDC9F8040082
:1009F000EB7BA87B1B0203F47063184400F57A704C
:100A000008F0F4FC444908F045FDC9F80C007EE705
:100A1000D9F8A410284608F0F9FE002895D092E7EE
:100A2000937A507A1B0103EB101000F57A7008F0EE
:100A3000DDFC394908F02EFDC9F820002B7B687BCE
:100A40001B1103EB001000F57A7008F0CFFC32495F
:100A500008F020FDC9F828002B7BE87A1B0203F47C
:100A60007063184400F57A7008F0C0FC2A4908F059
:100A700011FDC9F82400EB7BA87B1B0203F4706313
:100A8000184400F57A7008F0B1FC234908F002FD23
:100A9000D9F80040C9F82C0039E7937A507A1B0145
:100AA00003EB101000F57A7008F0A0FC1A4908F06A
:100AB000F1FCC9F810002B7B687B1B1103EB0010C5
:100AC00000F57A7008F092FC134908F0E3FCC9F8CD
:100AD00018002B7BE87A1B0203F47063184400F5BE
:100AE0007A7008F083FC0C4908F0D4FCC9F81400B3
:100AF000EB7BA87B1B0203F47063184400F57A704B
:100B000008F074FC044908F0C5FCD9F80040C9F8A5
:100B10001C00FCE60000A0406F12833A2DE9F84368
:100B20000026D0F8B080C0F890608146041F00F124
:100B30002C0754F8045F4146284608F067FE09492F
:100B400050B1284608F044FE30B13046294608F03E
:100B500099FB0646C9F89000BC42EAD13046BDE890
:100B6000F88300BF0000A04002299ABF00EB81007B
:100B7000D0F89400002070473E2998BF80F8CC1030
:100B8000704700BF90F8B400704700BFC0F8C810AD
:100B9000704700BF80F8B410704700BF30B50F4CED
:100BA000C0F8B01083B020460D4607F0ABFA2046DF
:100BB00007F0A8FA284608F03BF8022502460B4643
:100BC0000095204607F0F8FA204607F09BFA2046E9
:100BD00003B0BDE8304007F095BA00BFC487FF1FDF
:100BE00070B500F555550646083500F1200420463D
:100BF000D834FFF73BFCAC42F9D106F1F8050124EB
:100C000028460021FFF7C6FF214628460134FFF79A
:100C1000B3FF3F2C05F1D805F2D143F25054002523
:100C20000548064A064B3555002130617161B261B5
:100C3000F361304670BD00BF00007A4400004843B5
:100C40000000C8C22DE9F04143F2545300F5555657
:100C5000374600228046C2500836143700F1F804A7
:100C600002E0D834B4420DD02046FFF78BFF0028B5
:100C7000F7D020463D68FFF7C7FCD8342844B4427B
:100C80003860F1D143F2545358F80300BDE8F081C5
:100C900038B50C78D82303FB040015462030FFF745
:100CA00017FC012D00D038BD002CFCD0064807F001
:100CB00029FA2146044807F075FA0B210348BDE8DC
:100CC000384007F02DB800BFC487FF1FA8DA000026
:100CD0000B68A3F580732DE9F041CE2B00F2D18093
:100CE000DFE813F0D10061025D02CF005902550226
:100CF0005102CF004D0249024502CF0041023D02A0
:100D00003902CF00350231022D02CF00290225021F
:100D10002102CF001D0219021502CF0011020D029F
:100D20000902CF00CF00CF00CF00CF00CF00CF000F
:100D3000CF00CF00CF00CF00CF00CF00CF00CF003B
:100D4000CF00CF0005020102FD01CF00F901F5013E
:100D5000F101CF00ED01E901E501CF00E101DD0185
:100D6000D901CF00D501D101CD01CF00C901C50105
:100D7000C101CF00BD01B901B501CF00B101AD0185
:100D8000A901CF00CF00CF00CF00CF00CF00CF0010
:100D9000CF00CF00CF00CF00CF00CF00CF00CF00DB
:100DA000CF00CF00CF00CF00CF00CF00CF00CF00CB
:100DB000CF00CF00CF00CF00CF00CF00CF00CF00BB
:100DC000CF00CF00A501A1019D01CF0099019501A0
:100DD0009101CF008D0189018501CF0081017D0145
:100DE0007901CF00750171016D01CF0069016501C5
:100DF0006101CF005D0159015501CF0051014D0145
:100E00004901CF00CF00CF00CF00CF00CF00CF00EF
:100E1000CF00CF00CF00CF00CF00CF00CF00CF005A
:100E2000CF00CF00CF00CF00CF00CF00CF00CF004A
:100E3000CF00CF00CF00CF00CF00CF00CF00CF003A
:100E4000CF00CF00450141013D01CF0039013501FF
:100E50003101CF002D0129012501CF0021011D0104
:100E60001901CF00150111010D01CF000901050184
:100E70000101CF00FD00F900F500CF00F100ED0009
:100E8000E900BDE8F0814FF000081F25012A174650
:100E900004460E4600F08B81D82000FB0544203428
:100EA00020460121FFF776FE324641462046BDE846
:100EB000F041FFF71FBD4FF002080825E6E74FF0AD
:100EC00001080825E2E74FF000080825DEE74FF0AB
:100ED00002080725DAE74FF001080725D6E74FF0AB
:100EE00000080725D2E74FF002080625CEE74FF0AD
:100EF00001080625CAE74FF000080625C6E74FF0AF
:100F000002080525C2E74FF001080525BEE74FF0AE
:100F100000080525BAE74FF002080425B6E74FF0B0
:100F200001080425B2E74FF000080425AEE74FF0B2
:100F300002080325AAE74FF001080325A6E74FF0B2
:100F400000080325A2E74FF0020845469EE74FF050
:100F5000010802259AE74FF00008022596E74FF0B6
:100F60000208012592E74FF0010845468EE74FF051
:100F7000000801258AE74FF00208122586E74FF0A6
:100F80000108122582E74FF0000812257EE74FF096
:100F9000020811257AE74FF00108112576E74FF096
:100FA0000008112572E74FF0020810256EE74FF098
:100FB000010810256AE74FF00008102566E74FF09A
:100FC00002080F2562E74FF001080F255EE74FF09A
:100FD00000080F255AE74FF002080E2556E74FF09C
:100FE00001080E2552E74FF000080E254EE74FF09E
:100FF00002080D254AE74FF001080D2546E74FF09E
:1010000000080D2542E74FF002080C253EE74FF09F
:1010100001080C253AE74FF000080C2536E74FF0A1
:1010200002080B2532E74FF001080B252EE74FF0A1
:1010300000080B252AE74FF002081C2526E74FF091
:1010400001081C2522E74FF000081C251EE74FF081
:1010500002081B251AE74FF001081B2516E74FF081
:1010600000081B2512E74FF002081A250EE74FF083
:1010700001081A250AE74FF000081A2506E74FF085
:101080000208192502E74FF001081925FEE64FF086
:1010900000081925FAE64FF002081825F6E64FF089
:1010A00001081825F2E64FF000081825EEE64FF08B
:1010B00002081725EAE64FF001081725E6E64FF08B
:1010C00000081725E2E64FF002081625DEE64FF08D
:1010D00001081625DAE64FF000081625D6E64FF08F
:1010E00002081525D2E64FF001081525CEE64FF08F
:1010F00000081525CAE64FF002082625C6E64FF07F
:1011000001082625C2E64FF000082625BEE64FF06E
:1011100002082525BAE64FF001082525B6E64FF06E
:1011200000082525B2E64FF002082425AEE64FF070
:1011300001082425AAE64FF000082425A6E64FF072
:1011400002082325A2E64FF0010823259EE64FF072
:10115000000823259AE64FF00208222596E64FF074
:101160000108222592E64FF0000822258EE64FF076
:10117000020821258AE64FF00108212586E64FF076
:101180000008212582E64FF0020820257EE64FF078
:10119000010820257AE64FF00008202576E64FF07A
:1011A00002081F2572E64FF001081F256EE6094868
:1011B00006F0A8FF2946074806F0F4FF394606481E
:1011C00006F0AEFD4146034806F0ECFF014806F08C
:1011D00099FF61E6C487FF1FB4DA0000704700BFC3
:1011E000704700BF704700BF2DE9F043044600235D
:1011F00083B0064644F8F83B012504E001353F2D55
:1012000004F1D80466D02046FFF7BCFC0028F5D0D6
:101210004E4800F089FB29464D4800F085FB2046EA
:10122000FFF77CFC07F004FD02460B46494800F03E
:101230007BFB2046FFF77CF980462046FFF794F9B8
:101240000746404607F0F4FC80463846894607F0DA
:10125000EFFC42464B46CDE900013F4800F064FBFD
:1012600000212046FFF780FC012180462046FFF741
:101270007BFC0746404607F0DBFC80463846894643
:1012800007F0D6FC42464B46CDE90001334800F05A
:101290004BFB2046FFF742FC0146306807F0F2FFA7
:1012A00030602046FFF7DAFAB16908F091FA0028B9
:1012B00033D12046FFF7ACF9F16908F0A7FA00280E
:1012C0009CD02046FFF7A4F901353F2DF06104F1D1
:1012D000D80498D1706808F089F80146306808F0A1
:1012E0008DF971693060044608F090FA00B17461BC
:1012F0003169204608F06CFA00B134610B2005F02A
:10130000EDFC43F25053F35C60B99BB143F2505390
:101310000122F25403B0BDE8F0832046FFF79EFAA5
:10132000B061C6E753B943F250530022F25403B000
:10133000BDE8F0830A4800F025FBE7E7094800F024
:101340000BFB43F250530022F254F0E76CE4000030
:10135000B8DA0000F4DA000008DB000034DB00003B
:1013600050DB000088DB000070B5114B836000F596
:1013700055550646083500F1F80402E0D834AC4271
:1013800013D02046FFF7FEFB0028F7D02046FFF7DA
:10139000CFF8B16808F01CFA0028EFD02046FFF71C
:1013A000C7F8D834AC42B060EBD1B06870BD00BFB4
:1013B0000000A04070B5002300F555550646C360F7
:1013C000083500F1F80402E0D834AC4213D02046CE
:1013D000FFF7D8FB0028F7D02046FFF7C5F8F168E3
:1013E00008F014FA0028EFD02046FFF7BDF8D834F3
:1013F000AC42F060EBD1F06870BD00BF0068704790
:1014000041607047F8B500F555550F46164608354A
:1014100000F1F80402E0D834AC420FD02046FFF7C8
:10142000B1FB0028F7D020463946FFF7AFFB204636
:101430003146D834FFF7B2FBAC42EFD1F8BD00BF64
:101440002DE9F84300F5555543F24C532E4600273D
:101450008146C7504FF0000808350C3600F1F804FB
:1014600002E0D834AC4213D02046FFF78BFB0028B3
:10147000F7D03368013333602046FFF7D7F80F49C0
:1014800008F0C4F988B9D834AC4207F10107EBD1B0
:1014900043F24C5359F80300C01B07F0A7FF014665
:1014A000404608F0ABF8BDE8F8832046FFF7BEF8E9
:1014B0000146404607F0E6FE8046D2E700008CC2B7
:1014C000F8B500F5555507460026083500F1F80433
:1014D00002E0D834AC420FD02046FFF753FB00287F
:1014E000F7D02046FFF762F80146304607F0CAFE03
:1014F000D834AC420646EFD143F24C53F85807F0CB
:1015000075FF0146304608F079F8F8BD2DE9F04F37
:1015100006468DB07B4800F0AFF97A4800F0ACF990
:10152000784800F0A9F943F24C533046F758FFF7DA
:1015300089FB0B90306807F07BFB044630460D4674
:10154000FFF7BEFF0A90B06807F072FB8246F068B2
:101550008B4607F06DFB804630468946FFF770FFEB
:1015600007F066FB0A9BCDE908011846CDE904ABFC
:10157000CDE9068907F05CFB0B9ACDE90201CDE9C4
:1015800000453946604800F077F95E4800F074F98C
:10159000F8364FF001094FF0000A07E009F10109A0
:1015A000B9F13F0F06F1D80600F0A3803046FFF7EF
:1015B000E9FA0028F2D03046FEF7A4FF3046FEF7E5
:1015C000A5FF3046FEF7A6FF3046FEF7A7FF08212D
:1015D0004E4806F0A5FB49464D4806F0E3FDB9F13B
:1015E000090F40F3898002214A4806F099FB3046F2
:1015F000FFF794FA07F01CFB022402460B46009406
:10160000434806F0D9FD0121434806F089FB5546C1
:1016100000241FE00621414806F082FB29463C4891
:1016200006F0C0FD02213E4806F07AFB2146304616
:10163000FEF778FF07F0FCFA009702460B463448A5
:1016400006F0BAFD01340121334806F069FB0C2C89
:101650000BD04546092D4FF0020705F10108D9DCF2
:101660000121304806F05CFBD4E7294806F04AFD2A
:1016700009212D4806F054FB00213046FFF774FA8B
:1016800007F0D6FA009702460B46214806F094FD73
:101690000A21264806F044FB01213046FFF764FA90
:1016A00007F0C6FA009702460B46194806F084FD7B
:1016B0000A211F4806F034FB39463046FFF754FA3A
:1016C00007F0B6FA009702460B46114806F074FD83
:1016D0000121184806F024FB09F101090C4806F025
:1016E00011FDB9F13F0F0AF10C0A06F1D8067FF49B
:1016F0005DAF0DB0BDE8F08F01210A4806F010FB88
:1017000071E700BF6CE4000038DE0000B8DE0000C6
:10171000C487FF1F20EC0000C4DE0000C8DE00000C
:10172000A8E00000E8E30000D0DE0000DCDE0000FE
:10173000E8DE0000F4DE0000014B1870704700BFC7
:101740002087FF1F0278002A00F0858070B50346CD
:1017500082B00D4621E058785C1C68B3252831D052
:10176000732833D064281DD069281BD0662851D037
:10177000782839D0582833D0622842D042283CD02B
:101780006C280FD063280DD074284FD0542857D020
:1017900006F04AFB6278631C72B1252ADBD0187808
:1017A0001C46F5E72B1D29682C481D4606F0FAFC5F
:1017B0006278631C002AF0D1284802B0BDE870406E
:1017C00006F0A0BC104606F02FFBE3E72E6830467B
:1017D00008F056FE01463046043506F0A1FAD9E776
:1017E00002211F4806F09CFA2E1D29681B48002381
:1017F0001022354606F096FCCCE70221194806F087
:101800008FFA2E1D2968154800230222354606F05E
:1018100089FCBFE7073525F007050321D5E900233B
:101820000E480091083506F0C7FCB3E72968012986
:101830000EBF0D480D480121043506F071FAA9E7E5
:101840002B68012B07BF042109480A4805210435EC
:1018500006F066FA9EE7014806F054BCC487FF1FF5
:10186000F8DE0000FCDE000000DF000004DF000006
:1018700008DF000010DF00000FB400B583B004A93A
:1018800051F8040B0191FFF75DFF03B05DF804EB25
:1018900004B0704770B51B4B1B4C1B6882B00D46E3
:1018A0000193019B236019460446002316461748FE
:1018B0000A2206F037FC0321154806F031FA032C02
:1018C00007D8DFE804F01A1510020521114806F0C8
:1018D00027FA0221104806F023FA31462846FFF77E
:1018E00031FF02B070BD07210C4806F019FAF0E78D
:1018F00004210B4806F014FAEBE70521094806F02D
:101900000FFAE6E7D0CBFF1F4492FF1FC487FF1FEB
:1019100018DF000034DF0000A8E000002CDF00002A
:1019200024DF00001CDF00000FB400B5094B18785D
:1019300083B020B103B05DF804EB04B0704705AB91
:101940001A4604990193FFF7A5FF03B05DF804EB75
:1019500004B070472087FF1F0FB4094B00B51B78F8
:10196000012B83B004D903B05DF804EB04B07047D9
:1019700005AB1A46049901930120FFF78BFFF2E7AC
:101980002087FF1F0FB40B4B00B51B78032B83B0D0
:1019900004D903B05DF804EB04B0704705AB1A46F8
:1019A000049901930320FFF775FF03B05DF804EB82
:1019B00004B070472087FF1F30B4074D074C08491B
:1019C00000232B70236003654365836580F85C30DA
:1019D0000B6030BC704700BF5092FF1F4C92FF1F3E
:1019E0004892FF1FF8B52C482C4F2D4EFFF744FFAF
:1019F0002C4B2D4A2D482E495A60012411220025D6
:101A00001A701C722B4A2C4C18619F614FF07C504D
:101A10002A4F99622A49DE621D6364260E255A63A5
:101A20009C6340F61C420A2458649F6441F20400FF
:101A30005A27D96402219E651D65224E224D9A6661
:101A4000DC6600224FF4967418675F673220597085
:101A500059725965D96741F2883E4FF47A77FF2170
:101A6000DE605E61DD61DD6383F840209A675C665D
:101A7000DC651866C3F88020C3F88800C3F890209E
:101A8000C3F89800C3F89420C3F884E0C3F88C70BE
:101A9000C3F89C10F8BD00BF3CDF0000CDCC4C402B
:101AA000000020C12493FF1F20A107000000404038
:101AB00000008242000020420000A0409A99794034
:101AC0000AD7233D33338340CDCC4C3EF0B54FF4A1
:101AD0007A6083B005F016F900210E2005F00CF9AC
:101AE00000210F2005F008F90021112005F004F96C
:101AF0000021102005F000F90021122005F0FCF86B
:101B00000021132005F0F8F801210B2005F0F4F86E
:101B100001210C2005F0F0F80121142005F0ECF86B
:101B20000121152005F0E8F80121162005F0E4F860
:101B30000121172005F0E0F80121052005F0DCF86F
:101B4000924C934D0121062005F0D6F801210D207D
:101B500005F0D2F8208807F045FC0146162005F074
:101B600035F8208807F03EFC0146172005F02EF8D6
:101B7000208807F037FC0146052005F027F820886B
:101B800007F030FC00240146062005F01FF8009401
:101B90002346804A8049814803F028FEE6B2324657
:101BA0007B497E4803F0D0FD2B7979497B486FF360
:101BB0000003013432462B7103F0BCFD082CEDD13B
:101BC0000924E6B232467249744803F0BDFD2B7910
:101BD0006F49724843F00103013432462B7103F020
:101BE000A9FD0D2CEDD16E4D4FF0FF32286810216C
:101BF00004F0C8F928684FF0FF32102104F09AF978
:101C000028684FF0FF32022104F0A8F928684FF04D
:101C1000FF32022104F0ACF900220E21286804F002
:101C2000BBF90C215F4806F07BF85F4806F06AFAC2
:101C300021465E4806F074F85B4806F063FA5A489D
:101C400006F060FA17215A4806F06AF8564806F07E
:101C500059FA584B1B789A0600F1C880554B1B78EF
:101C60001B0700F1CF80534B1B785F0700F1D68034
:101C7000504B1B789E0700F1DD804F4B1B781D06F3
:101C800000F1E4804C4B1B785C0600F1EB804A4B82
:101C90001B78980600F1F280474B1B78590700F13A
:101CA000F980454B1B781A0700F10081424B1B78E5
:101CB0009B0700F107813C4806F024FA72B63F4AC0
:101CC0004CF220534DF62811202413802346118016
:101CD000013BFDD13A4D3B483B4900234FF4805630
:101CE0002E8003800B8032F80E3C9BB243F0D3036E
:101CF00022F80E3C62B640F2413005F057F9214619
:101D00003248334D06F00CF8274806F0FBF905F190
:101D1000A0062F462C46601B04F012FD04F8010BB0
:101D2000B442F8D13B78112B01D0FFF75BFE294874
:101D3000294CFFF757FA0420FFF7FEFC274B2548F4
:101D400000221A60FFF74CFA01210D2004F0C0FFB9
:101D5000796D2048FFF754FB7A6C97F840101D48C6
:101D6000FFF750FB1E4B1F491B681F4AD7F8900016
:101D7000126881FB0351DB17A3EB211313FB02F362
:101D80000128238000F0A68003B0F0BD2C87FF1F40
:101D9000CC93FF1FC8CBFF1F20A107002CCAFF1F39
:101DA0006094FF1F5CDF0000C487FF1F6CDF000032
:101DB0007CDF000001F0074000F007400E200540E6
:101DC00004200540062005401620054080E0000064
:101DD0002493FF1FD494FF1F6C94FF1F6492FF1F76
:101DE0005887FF1F1F85EB515487FF1F21213D4856
:101DF00005F096FF3C4806F085F93C4B1B781B0725
:101E00007FF531AF0C213A4805F08AFF364806F0DD
:101E100079F9364B1B785F077FF52AAF0E213548DD
:101E200005F07EFF304806F06DF9304B1B789E07B9
:101E30007FF523AF1721304805F072FF2A4806F0DE
:101E400061F92E4B1B781D067FF51CAF0E212C4827
:101E500005F066FF244806F055F9284B1B785C0610
:101E60007FF515AF1221274805F05AFF1E4806F0EE
:101E700049F9224B1B7898067FF50EAF13212248B3
:101E800005F04EFF184806F03DF91C4B1B7859072A
:101E90007FF507AF1C211D4805F042FF124806F0F0
:101EA00031F9164B1B781A077FF500AF1921184836
:101EB00005F036FF0C4806F025F9104B1B789B0700
:101EC0007FF5F9AE1821134805F02AFF064806F001
:101ED00019F9F0E64FF4967003B0BDE8F04004F055
:101EE00011BF00BF94DF0000C487FF1F01F007404F
:101EF000B8DF0000C8DF0000D8DF000000F00740B6
:101F0000F0DF000000E0000014E0000028E0000026
:101F100048E0000064E0000070B5464C464D47487C
:101F2000E66800232B70FFF745FA0146304607F0BC
:101F30004FFC08B104232B704048FFF715FA2169C4
:101F400007F046FC18B12B7843F010032B703B4888
:101F5000FFF776FAA16A07F059FC18B12B7843F025
:101F600040032B70002335486B70FFF769FAE16A74
:101F7000314E07F02DFC08B10123737000232F4868
:101F8000EB70FFF717FA05462C482B4EFFF7ECF9DC
:101F90000146284607F074F9E16B07F037FC08B1F9
:101FA0000123F370264D254800232B70FFF702FA1A
:101FB000616A0646E06807F063F90146304607F0BB
:101FC00025FC08B104232B701C48FFF7CDF9616A8A
:101FD0000646206907F056F90146304607F0F8FB3F
:101FE00018B12B7843F010032B701448FFF728FA30
:101FF000A16B0646A06A07F043F90146304607F098
:1020000005FC18B12B7843F040032B7000230B48DC
:102010006B70FFF715FAA16B0546E06A084C07F0F4
:1020200031F90146284607F0D3FB08B1012363705C
:1020300070BD00BF2493FF1F2093FF1FD494FF1F88
:102040005494FF1F514B1B68002B74D0F0B5504DBA
:102050002B680533B3F57A7F83B040F38E8000237D
:1020600000272B604B4CD4F8980007F0BFF90646C8
:10207000D4F89C0007F0BAF9314607F001F9394667
:1020800007F008FA444907F0B9FA314607F0FAF8C0
:1020900007F0C6FB0146062004F09AFC02213F48E7
:1020A00005F03EFE3E4806F02DF806213D4805F0BD
:1020B00037FE286807F09AF93B4907F0EBF906F07C
:1020C000B7FD022602460B460096354806F074F826
:1020D0000D21364805F024FED4F8980007F086F963
:1020E0000746286807F082F92F4907F0D3F905461B
:1020F000D4F89C0007F07AF9394607F0C1F8014698
:10210000284607F0C7F9244907F078FA394607F05E
:10211000B9F806F08DFD009602460B46204806F001
:102120004BF831461D4805F0FBFD1D4803B0BDE8E6
:10213000F04005F0E7BF174B1D4AD3F89810D3F8CD
:102140009C3012685B1A632B0BDD1A4803FB02F309
:1021500080FB0302DB17C3EB62131944062004F073
:1021600037BC154803FB022380FB0302DB17C3EBDC
:1021700022121144062004F02BBC18462B6007F0F5
:1021800035F9094907F086F907466BE74094FF1FC8
:102190006892FF1F2493FF1F0000C84220EC00003C
:1021A000C487FF1FA4E00000CDCCCC3DACE0000014
:1021B0003887FF1F1F85EB51CBF08D2830B54D4878
:1021C0004D4C83B005F09EFF4A4805F09BFF4948FF
:1021D00005F098FF494B47481B680193019900237C
:1021E0000A2205F09FFF0E21454805F099FDD4F81D
:1021F0009430012B0ED0434C3E48217800230A2214
:1022000005F090FF2378052B35D8DFE803F0494E21
:1022100053585D4409213C4805F082FD3B48FFF7D7
:10222000A3F8216907F0D4FA18B10F21384805F056
:1022300077FD3648FFF7BEF8E16807F0E7FA18B116
:102240000E21344805F06CFD30482B4DFFF78CF81B
:10225000216907F0DBFA70B12C48FFF7ABF8E968A9
:1022600007F0B6FA38B1274B1B78052B3CD0082174
:10227000294805F055FD0221284805F051FD12209E
:1022800004F02CFD01282AD0112004F027FD01289C
:102290001FD003B030BD0721214805F041FDEAE71A
:1022A0000621204805F03CFDE5E707211E4805F022
:1022B00037FDE0E707211D4805F032FDDBE7082187
:1022C0001B4805F02DFDD6E70B211A4805F028FD27
:1022D000D1E70A21184805F023FD03B030BD0E21D7
:1022E000164805F01DFDCFE70A21154805F018FD39
:1022F000C1E700BFC487FF1F2493FF1FD0CBFF1F80
:10230000BCE000005094FF1FCCE00000D494FF1FFD
:10231000D8E00000E8E0000004E1000020EC00004C
:1023200040E1000010E1000018E100002CE1000095
:1023300034E1000020E1000058E1000048E1000025
:10234000F8E000002DE9F04FA54CDFF80083E76FBF
:10235000012F8DB000F09480A24EA36FA24C012BF0
:10236000A24B08BF3068196818BF306801F101023C
:1023700004BF00F10040306044F821000F2A9C4C5B
:102380001A60C4BF00221A6004F14005002354F80B
:10239000041F184606F076FFA5420346F7D14FF01A
:1023A000765107F077F8012F0446C8F8000036D0C0
:1023B000904907F02BFA78B98F49204607F008FAC0
:1023C00050B98E4A8E4B12680B920B9A1A600023FA
:1023D00033600DB0BDE8F08FDFF82082884DD8F86B
:1023E00000300A930A982B68864FC01A06F0FAFF4D
:1023F000214607F04FF8844907F000F9824907F0B9
:10240000FDF8396806F03EFFD8F800300993099BC3
:102410002B600023386033600DB0BDE8F08F7B4B3C
:102420001B68012B00F03F81022BD0D1784907F0C7
:10243000EDF930B97749204607F0CAF9002800F0D5
:102440006181DFF8B8816E4DD8F8003007930798A6
:102450002B686C4FC01A06F0C5FF214607F01AF82A
:10246000694907F0CBF8684907F0C8F8396806F001
:1024700009FFD8F800300693069B38602B60A6E76A
:10248000D8F800506449284607F0A2F928B1284638
:10249000624907F0BBF9002878D1614D5B4E28688E
:1024A000022300220F21336003F076FD33685D4F75
:1024B000012B3B6800F0CC80002B5ED10021286806
:1024C000DFF86C91564E03F0B9FD3B681FFA80FAB5
:1024D000C9F800A0002B2DD100212868414E03F03F
:1024E00033FD40F6E44303FB0AF3B3FBF0F006F0E0
:1024F00079FF4D4BDFF828A10546188806F076FFD6
:102500000146284606F0BCFE484B0546186806F012
:102510006DFF0146284606F0BDFFD9F80030306057
:10252000632B434D52DC002333603B68002B36D1D4
:10253000E76F12E70021306803F006FD834650463E
:1025400006F054FF3B4906F0A5FF0646584606F044
:1025500049FF0146304607F051F806F069FB0526B1
:1025600002460B460096344805F026FE0221334809
:1025700005F0D6FBD9F800A0AEE70C21304805F0F5
:10258000CFFB0C212F4805F0CBFB97E7244D1F4EC6
:102590002868376000220E2103F0FEFC86E7022146
:1025A000264805F0BDFB306806F042FB02250246D6
:1025B0000B460095204805F0FFFD2946224805F00E
:1025C000AFFB29461D4805F0ABFBB1E7DAF8000088
:1025D000002103F0B9FC2B6864389842A3D3A4E728
:1025E0002493FF1F7092FF1F9494FF1FC893FF1F37
:1025F0009094FF1F0000FA430000FAC3D0CBFF1FE6
:102600005492FF1F8092FF1F00007A446887FF1FCB
:1026100000C82F4800A08CC600709446007094C675
:102620006094FF1F8894FF1F5287FF1F2487FF1F9E
:102630001C93FF1F33335340C487FF1F20EC00005F
:1026400084E1000070E1000080E100007C92FF1F47
:10265000002B40F0818000212868DFF84C91434E28
:1026600003F0ECFC3B681FFA80FAC9F800A0002BCD
:102670004FD1002128683E4E03F066FC40F6E4434B
:1026800003FB0AF3B3FBF0F006F0ACFE394BDFF8C6
:10269000DCA00546188806F0A9FE0146284606F08B
:1026A000EFFD354937E7354907F0B0F858B93449F7
:1026B000204607F08DF830B9324A334B1268059244
:1026C000059A1A6083E6DFF8BC802F4DD8F80030F9
:1026D000049304982B682D4FC01A06F083FE214600
:1026E00006F0D8FE2A4906F089FF294906F086FF40
:1026F000396806F0C7FDD8F800300393039B3860B3
:102700002B6064E61F4A204B12680892089A1A60F0
:102710005DE60021306803F017FC8346504606F062
:1027200065FE1C4906F0B6FE0646584606F05AFEFF
:102730000146304606F062FF06F07AFA05260246A8
:102740000B460096144805F037FD0221134805F0AA
:10275000E7FAD9F800A08CE70B21114805F0E0FA60
:102760000C21104805F0DCFA75E700BF6094FF1FEC
:102770007092FF1F5087FF1F33337B410000FA43E5
:102780000000FAC3D0CBFF1F5492FF1F8092FF1F9F
:1027900000007A4433335340C487FF1F20EC00000D
:1027A00064E1000070E100001C93FF1F2DE9F04779
:1027B0008C4C236884B0002B76D08B4DDFF83082B0
:1027C0008A4FD5F88030884E012B00F08780D7F8EB
:1027D0000090D6F858A0746D854E04FB0AF44FF4AF
:1027E0007A7000FB04F006F001FE82490446484678
:1027F00006F050FE214606F001FF7F4906F04AFE32
:1028000007F00EF86328C8F8000048DD2046794933
:1028100006F0F4FE642338603360784B1B68002BAD
:102820003AD0EB6F012B00F087800721744805F048
:1028300077FA0221734805F073FA734B186806F0B3
:10284000F7F9022402460B460094704805F0B4FCE8
:1028500021466F4805F064FA21466A4805F060FA9F
:10286000D8F80010694805F09DFC0621694805F07C
:1028700057FA38685F4906F00DFE06F0D9F9009462
:1028800002460B46614805F097FC0321624805F0BB
:1028900047FA5E4805F036FC04B0BDE8F087002832
:1028A000BCBF00233360B8E75C4E4F4D33680293E2
:1028B000029A42F228339A4200F2878033680393E7
:1028C000039A42F210739A4241D8D5F88030DFF86B
:1028D0002081464F444E012B7FF479AF5048FEF7DC
:1028E000EFFD5049D6F86890F46E06F0D3FD06F07F
:1028F000BDFF326F736FD5F858A0C9EB02021B1BE6
:1029000080B29A42C9EB0000C6BF03FB000001324F
:10291000584390FBF2F020446C6D00FB0AF004FB7E
:1029200000F000EB8000400006F060FD314906F049
:1029300065FE814638604FE73B4B1B68012B4FF02B
:102940000A010CBF39483A4805F0EAF971E7344802
:10295000FEF7B6FD3349AF6EEE6E06F09BFD06F056
:1029600085FF2A6F6B6FD21B9B1B80B29A42A0EB34
:10297000070031DD03FB0000531C90FBF3F31E4402
:10298000A86D6B6DDFF86880184FC8F8006000FB19
:1029900006F003FB00F000EB8000400006F026FD8F
:1029A000144906F02BFE01233860022115482360EC
:1029B00005F0B6F9154805F0A5FB59211D4805F0AD
:1029C000AFF9124805F09EFBFBE615486A6C95F8D6
:1029D0004010FEF717FD71E703FB00F393FBF2F3E2
:1029E0001E44CDE76C92FF1F2493FF1F8092FF1FB0
:1029F0003887FF1FE4388E3E0000C8424087FF1F23
:102A000008E2000020EC00007C92FF1FC487FF1F3B
:102A100080E1000010E2000018E20000D0CBFF1FB0
:102A2000D494FF1F00007A446887FF1FF0E1000084
:102A3000FCE1000094E10000F0B5112083B004F047
:102A40004DF9012813D000210B2004F041F9002199
:102A50000C2004F03DF90021152004F039F91D493E
:102A60001D4B0120002208701A6003B0F0BD014622
:102A70000446152004F02CF91849194A194B096825
:102A80000191D2F884001B680199134D034402267A
:102A90008B422E6017D8D2F88C0006F0A7FC124BA0
:102AA000196806F095FE074668B921460B2004F028
:102AB0000FF9084A032339460C2016702B6004F0E6
:102AC00007F903B0F0BD01210C2004F001F903B0B7
:102AD000F0BD00BF5094FF1F8494FF1FD0CBFF1F99
:102AE0002493FF1F9094FF1F7C92FF1FF0B5464E6A
:102AF000464D33682C68A34285B010D013F0010115
:102B000052D09B0716D5424F3A6812B3414B1B680F
:102B10000193019B93422DD83468A10739D43CB965
:102B20002146162003F054FF2146172003F050FFE2
:102B300005B0F0BD1720002103F04AFF2B68346870
:102B400003F0FD03E0072B60E7D5314F3A68002A18
:102B5000DCD1FF21162003F03BFF2E4B2E4A1968D3
:102B6000009100991B6812680193019B0A449342EB
:102B70003A60D1D9294B1620D3F8881003F028FFEA
:102B80002B68346843F001030022A1072B603A60F0
:102B9000C5D5234F3A68BAB11E4B1B680393039BFC
:102BA000934222D83468BAE7162003F011FF2B684D
:102BB000326803F0FE0394072B60BBD5D207A2D482
:102BC000174F3A68002AE7D1FF21172003F000FFD2
:102BD000104B114A1968029102991B6812680393FD
:102BE000039B0A4493423A60DCD90C4B1720D3F87C
:102BF000881003F0EDFE2B68346843F002030022D6
:102C00002B603A608BE700BF8494FF1FC493FF1FC3
:102C10003894FF1FD0CBFF1F7487FF1F2493FF1F23
:102C20003C94FF1F2DE9F8434B4DDFF8589128687D
:102C30004A4E4B4F00220E2103F0AEF90123222110
:102C40004848C9F8003005F06BF83368132B1EDCD8
:102C500040F6E4480021286803F0F0F9002104461A
:102C6000286803F071F93B88A4B2012108FB04F441
:102C7000B4FBF0F43C481C443C8005F051F864205F
:102C800004F040F833680133132B3360E2DD3B88F6
:102C9000364A3748A2FB03129B1A02EB5303C3F3D5
:102CA0000F1319463B8005F07DFA1D213148324F44
:102CB00005F036F80221314805F032F82C4805F0CD
:102CC00021FA00231A460F212868336003F064F9C3
:102CD000022322212348C9F8003005F021F8336887
:102CE000132B1EDC40F6E4480021286803F0A6F907
:102CF00000210446286803F027F93B88A4B201218B
:102D000008FB04F4B4FBF0F417481C443C8005F0C5
:102D100007F8642003F0F6FF33680133132B3360A8
:102D2000E2DD3B88114A1248A2FB03129B1A02EB18
:102D30005303C3F30F1319463B8005F033FA1D21EB
:102D40000F4804F0EDFF02210C4804F0E9FF0848A9
:102D5000BDE8F84305F0D6B96094FF1F7892FF1FD5
:102D60005087FF1F1CE2000060E2000087611886A8
:102D7000C487FF1F40E200005287FF1F20EC0000C5
:102D800064E200006887FF1F2DE9F843B14CB24FA1
:102D9000DFF80483386D40F2513208232260E3717A
:102DA00006F024FB7969064606F074FBAB4906F091
:102DB00071FB06F05BFDAA4BAA4A1B681268A3725E
:102DC00085B21B12304625722E121512E372227341
:102DD000B9696672657306F05DFBA04906F05AFB9F
:102DE00006F044FDA04B1B7880B2A073052B4FEA80
:102DF0002020E07300F0D780002388F80230954D42
:102E00009A48294602F0EAFE994B9A4A1B681688AE
:102E1000A672DAB202EB8201227203EB830249004E
:102E200042F3D7124FEA262E4FF0000908261B1254
:102E300021736273294640F255328C4884F80BE0C6
:102E400022606372E67184F80E9084F80F9002F0AD
:102E5000C5FE40F2563388482360E671FEF7CEFA8D
:102E6000864906F017FB06F001FD20728248FEF746
:102E7000C5FA824906F00EFB06F0F8FC804A7F494D
:102E8000C0F307236372106806F0B8FB06F0C8FCB5
:102E900040FA06F203467848E272A372FEF7D0FACF
:102EA0006E4906F0F7FA06F0E1FC20737248FEF76F
:102EB000C7FA6A4906F0EEFA06F0D8FC2946C0F3D4
:102EC00007236A48637384F80E9084F80F9002F029
:102ED00085FE022003F016FF6A4B98F800001A786E
:102EE000597893F802E02273DA78617340F25A332A
:102EF000294684F80EE0E27398F801E098F8022081
:102F00002360207298F80330584884F809E0A272D0
:102F1000E372E67102F062FE5B4B54481A7859780E
:102F200093F802E022726172DA78197993F805C099
:102F300084F80AE0E27293F806E0DA79217340F24D
:102F40005E33294684F80DC084F80EE0E2732360F6
:102F5000E67102F043FE022003F0D4FE4B4B4348DF
:102F60001A78597893F802E022726172DA78197946
:102F700093F805C084F80AE0E27293F806E0DA7983
:102F800021734FF45C7329462360E67184F80DC009
:102F900084F80EE0E27302F021FE3D4B1B68012B2A
:102FA0000AD0BDE8F8830023F02288F80220A3723B
:102FB000E3722373637322E72F48DFF89C80FEF7E8
:102FC000D3F9F96C06F05EF907462B48FEF7F2F9E3
:102FD0000146384606F0FCFB0028E2D040F2C3333D
:102FE0002548EE712B60FEF7BFF9D8F848603146EE
:102FF00006F0EEFBC8B12749304606F04BFA06F062
:1030000035FC80B2031228726B720023012604255E
:103010000322A672E57222736373A373E3730D49EF
:103020001248BDE8F84302F0D9BD1348FEF79CF9F9
:10303000184906F02FFA06F019FC28720E48FEF720
:1030400093F9144906F026FA06F010FCC0F30720A5
:103050006872DAE77494FF1F2493FF1F0000204179
:103060005C92FF1F5C94FF1F5094FF1F2CCAFF1F30
:103070003887FF1F3C87FF1FD494FF1F0000C84202
:103080007C92FF1F5494FF1F3087FF1F6087FF1F34
:103090006894FF1F00007A442093FF1F2DE9F04140
:1030A000B44CB54D82B004F0D5FD26682860042EDE
:1030B00000F0DC81022E00F09280062E2DD0072E2B
:1030C00040F0CA80332801F0EF8200F3E782312814
:1030D00001F00883322829D104F0F8FD002841F3DB
:1030E000B182A648A64E05F0A1F906F07FF9A549E0
:1030F00006F0D0F9F06305F09BFD022602460B4670
:1031000000969E4805F058F89F48122104F008FEEA
:10311000012361202360286060E1652800F0F682C9
:10312000712800F04F81312800F0D682002E08BFB0
:1031300073280CBF0120002000284DD08F4804F0D8
:10314000E1FF0421914804F0EBFD8C4804F0DAFF24
:1031500010218F4804F0E4FD884804F0D3FF1421C7
:103160008C4804F0DDFD854804F0CCFF1E218A4820
:1031700004F0D6FD814804F0C5FF1E21874804F005
:10318000CFFD7E4804F0BEFF2021854804F0C8FD35
:103190007A4804F0B7FF1321824804F0C1FD774854
:1031A00004F0B0FF1221804804F0BAFD734804F027
:1031B000A9FF0F217D4804F0B3FD704804F0A2FF81
:1031C0000D217B4804F0ACFD6C4804F09BFF794A6C
:1031D000002101231160236002B0BDE8F081632863
:1031E00001F07A8240F36582712800F05D827328D5
:1031F0009CD1634BDA6F012A01F08F8201223146A4
:103200006D48DA6704F08CFD5C4804F07BFF6B4886
:10321000192104F085FD3146674804F081FD5748C7
:1032200004F070FF2668286847E70221624804F02E
:1032300077FD524804F066FF2421614804F070FDD8
:103240004E4804F05FFF02215B4804F069FD4B48E3
:1032500004F058FF26682868052E40F0B980A0F1D8
:103260003103402B3FF662AF01A252F823F000BFBA
:103270008D3B0000E53B00000B3C00008B3A00005A
:10328000673B00002D3100002D3100002D31000082
:103290002D3100002D3100002D3100002D310000B6
:1032A0002D3100002D3100002D3100002D310000A6
:1032B0002D3100002D3100002D3100002D31000096
:1032C0002D3100002D3100002D3100002D31000086
:1032D0002D3100002D3100002D3100002D31000076
:1032E0002D3100002D3100002D3100002D31000066
:1032F0002D3100002D3100002D3100002D31000056
:103300002D3100002D3100002D3100002D31000045
:103310002D3100002D3100002D3100002D31000035
:103320002D3100002D3100002D3100002D31000025
:103330002D3100002D3100002D3100002D31000015
:10334000B33B00002D3100002D3100002D31000075
:103350002D3100002D3100002D3100002D310000F5
:103360002D3100002D3100002D3100002D310000E5
:10337000A93600004494FF1F5892FF1FC487FF1F07
:103380002493FF1F6F12833A10E30000D0EA00007D
:10339000D8EA0000ECEA000004EB000024EB000097
:1033A00044EB000068EB00007CEB000090EB0000B9
:1033B000A0EB00004087FF1F20EC0000A8E2000007
:1033C000C4E2000000207323206006462B607320B7
:1033D000032E00F0D580012E7FF4A8AE52381F28AE
:1033E0003FF6FAAE01A353F820F000BF61390000A8
:1033F000D9310000D9310000D9310000D9310000A5
:10340000D9310000D9310000D9310000D931000094
:10341000D9310000D9310000D9310000D931000084
:10342000D9310000D9310000E53900005F370000D4
:10343000DD37000069380000D9310000D9310000C3
:10344000D9310000D9310000D9310000D931000054
:1034500033470000D9310000D9310000D9310000D4
:10346000D9310000D93100003D370000A0F131030F
:10347000402B3FF65BAE01A252F823F0513C000016
:103480008D3C0000393C0000913C0000553C0000A0
:10349000713C0000893C00002D3100002D310000FE
:1034A0002D3100002D3100002D3100002D310000A4
:1034B0002D3100002D3100002D3100002D31000094
:1034C0002D3100002D3100002D3100002D31000084
:1034D0002D3100002D3100002D3100002D31000074
:1034E0002D3100002D3100002D3100002D31000064
:1034F0002D3100002D3100002D3100002D31000054
:103500002D3100002D3100002D3100002D31000043
:103510002D3100002D3100002D3100002D31000033
:103520002D3100002D3100002D3100002D31000023
:103530002D3100002D3100002D3100002D31000013
:103540002D3100002D3100002D3100002D31000003
:103550002D3100002D3100002D3100002D310000F3
:103560002D3100002D3100002D3100002D310000E3
:103570002D3100002D3100002D310000A936000052
:10358000A0F13103422B3FF6D1AD01A252F823F056
:103590001D44000063440000854400001B450000FA
:1035A00055450000C94500000F4600006B3D000076
:1035B000A93E00002D3100002D3100002D3100000A
:1035C0002D3100002D3100002D3100002D31000083
:1035D0002D3100002D3100002D3100002D31000073
:1035E0002D3100002D3100002D3100002D31000063
:1035F0002D3100002D3100002D3100002D31000053
:103600002D3100002D3100002D3100002D31000042
:103610002D3100002D3100002D3100002D31000032
:103620002D3100002D3100002D3100002D31000022
:103630002D3100002D3100002D3100002D31000012
:103640002D3100002D3100002D3100002D31000002
:10365000EF3E0000333F0000773F0000F53F0000E1
:10366000A7430000C74300003D3D0000BF440000E9
:10367000ED440000B33D0000013D0000E13D0000CD
:10368000253E00002D3100002D3100002D310000BD
:103690006B3E0000773E00009B45000065283FF42C
:1036A000C4AD71287FF442AD0026732026602860E7
:1036B0003CE5312800F0CA8732287FF437ADA94EA7
:1036C000D6F88030B3FA83F35B0901226320C6F891
:1036D00080302260286081E604F0F8FA002840F388
:1036E000A782A1489F4E04F0A1FE034601469E48D2
:1036F000C6F8903004F056FD0C219C4804F010FBF5
:1037000001207323206006462B6060E60221984862
:1037100004F006FB944804F0F5FC2421954804F0DD
:10372000FFFA914804F0EEFC0221914804F0F8FA07
:103730008D4804F0E7FC26682868C0E4A022002138
:10374000884803F017F828688B4AA0F1730001211C
:103750000023B0FA80F0400911602360ECE4824855
:1037600004F0D0FC804804F0CDFC7F4804F0CAFC93
:103770007D4804F0C7FC7C4804F0C4FC15217F4858
:1037800004F0CEFA784804F0BDFC14217C4804F023
:10379000C7FA754804F0B6FC14217A4804F0C0FA60
:1037A000714804F0AFFC1121774804F0B9FA6E4873
:1037B00004F0A8FC1B21754804F0B2FA6A4804F032
:1037C000A1FC1321724804F0ABFA674804F09AFC9C
:1037D000654804F097FC03232360FDE46248614DD3
:1037E00004F090FC604804F08DFC5F4804F08AFC13
:1037F0005D4804F087FC5C4804F084FC1F216548A8
:1038000004F08EFA584804F07DFC1E21624804F052
:1038100087FA554804F076FC2521604804F080FAC8
:10382000514804F06FFC14215D4804F079FAA96F47
:103830004D4804F0B7FC4C4804F064FC1C21594886
:1038400004F06EFAD5F88010474804F0ABFC464807
:1038500004F058FC13214E4804F062FA424804F088
:1038600051FC02232360B7E43F4804F04BFC3E4880
:1038700004F048FC3C4804F045FC3B4804F042FCA2
:10388000394804F03FFC1321474804F049FA364810
:1038900004F038FC0D21454804F042FA324804F0A7
:1038A00031FC0F21424804F03BFA424B2E48196884
:1038B00004F078FC2C4804F025FC13213E4804F069
:1038C0002FFA3E4B2848196804F06CFC264804F097
:1038D00019FC12213A4804F023FA3A4B224819689D
:1038E00004F060FC204804F00DFC1121364804F07F
:1038F00017FA364B1C48196804F054FC1A4804F0B7
:1039000001FC0E21324804F00BFA164B1648D3F88E
:10391000941004F047FC144804F0F4FB19212D48DE
:1039200004F0FEF92C4B1048196804F03BFC0E48DB
:1039300004F0E8FB1121294804F0F2F9284B0A4869
:10394000196804F02FFC084804F0DCFB1321104830
:1039500004F0E6F9044804F0D5FB042323603BE4BB
:1039600003F0A8FC2493FF1FC487FF1FECE20000B4
:1039700020EC0000C4E200004087FF1F58EA00006E
:1039800070EA000088EA0000A0EA0000B4EA000043
:10399000A4E90000B8E90000D8E90000F8E9000057
:1039A00020EA000038EA0000F4E8000008E900001E
:1039B00018E900003494FF1F28E900008894FF1FD5
:1039C0003CE900007094FF1F50E900001893FF1FAE
:1039D00064E9000074E900004C94FF1F90E90000C6
:1039E0004094FF1FAB48AC4D04F08CFBA94804F099
:1039F00089FBA84804F086FBA64804F083FBA54891
:103A000004F080FB1F21A54804F08AF9A14804F0C6
:103A100079FB1E21A24804F083F9686AA14905F0E8
:103A200039FD05F005F9002602460B460096994837
:103A300004F0C2FB974804F065FB25219A4804F086
:103A40006FF9E86B974905F025FD05F0F1F8009650
:103A500002460B468F4804F0AFFB8E4804F052FB41
:103A60001A21924804F05CF9A86B05F0E1F80225F0
:103A700002460B460095874804F09EFB854804F0FB
:103A800041FB07232360FFF7A7BB04F01FF90028C1
:103A900040F3D4857F48804E04F0C8FC03460146BD
:103AA0007C48C6F8983004F07DFB8148122104F070
:103AB00037F901226B2322602B60764804F022FB49
:103AC000744804F01FFB734804F01CFB714804F0B9
:103AD00019FB704804F016FB2121764804F020F908
:103AE0006C4804F00FFB1521734804F019F9D6F85F
:103AF0008410684804F056FB664804F003FB1E215E
:103B00006E4804F00DF9D6F88C10624804F04AFBB8
:103B1000604804F0F7FA1E21694804F001F9D6F86C
:103B200088105C4804F03EFB5A4804F0EBFA1D2173
:103B3000644804F0F5F8D6F89810564804F032FBC3
:103B4000544804F0DFFA1E215F4804F0E9F8D6F883
:103B50009C10504804F026FB4E4804F0D3FA05238D
:103B60002360FFF739BB04F0B1F8002840F3668505
:103B70004848494E04F05AFC034601464548C6F8F9
:103B80009C3004F00FFB1321504890E704F09EF89E
:103B9000002840F353853F483F4E04F047FC03465E
:103BA00001463C48C6F8843004F0FCFA1621484827
:103BB0007DE70221474804F0B3F8364804F0A2FA42
:103BC0002421454804F0ACF8324804F09BFA022165
:103BD000404804F0A5F82F4804F094FA26682868B5
:103BE000FFF7F6BB04F072F8002840F32785294858
:103BF000294E04F01BFC034601462648C6F88C30CB
:103C000004F0D0FA1921354851E704F05FF8002894
:103C100040F314851F48204E04F008FC034601467B
:103C20001C48C6F8883004F0BDFA13212C483EE742
:103C300026682868FFF743BA2A4A1368B3FA83F361
:103C40005B0901216420136021602860FFF7C6BB77
:103C5000254AF2E7104ED6F89430B3FA83F35B09A5
:103C600001226420C6F8943022602860FFF7B6BBBA
:103C700001231E482360FCF7E5FF1D4B26681860F2
:103C800064202860FFF719BA1A4AD6E71A4AD4E71F
:103C90001A4AD2E7C487FF1F2493FF1FB4E700002E
:103CA000D4E7000000007A44F4E700001CE80000BC
:103CB00080E3000038E800005CE8000074E80000E1
:103CC00094E80000B4E80000D4E8000094E30000A9
:103CD00038E3000020EC0000C4E2000050E30000E4
:103CE0006CE300007094FF1F3494FF1FD494FF1FF7
:103CF0004C94FF1F4094FF1F8894FF1F1893FF1FD1
:103D000003F0E4FF002819DDA848A94E04F08EFB5B
:103D100005F06CFBA74905F071FCA649306205F07F
:103D2000B9FB04F085FF002602460B4600969F482B
:103D300004F042FA1421A04803F0F2FF03F0C6FF9A
:103D4000002840F3D0809948994E04F06FFB034659
:103D500001469648B36604F025FA0E21974803F011
:103D6000DFFF26682868FFF736BB03F0AFFF0028A7
:103D700040F3B9808D488E4E04F058FB00EB800074
:103D80004300F365184605F031FB8D4905F082FBD1
:103D900004F04EFF022602460B460096834804F0CC
:103DA0000BFA0D21874803F0BBFF26682868FFF750
:103DB00012BB03F08BFF002840F395807B487C4EBC
:103DC00004F034FB034601467848736704F0EAF9CF
:103DD0000F217D4803F0A4FF26682868FFF7FBBA8F
:103DE00003F074FF00287EDD7048714E04F01EFB66
:103DF00005F0FCFA6F4905F001FC6E49F06105F031
:103E000049FB04F015FF002602460B460096674862
:103E100004F0D2F913216D4803F082FF2668286868
:103E2000FFF7D9BA03F052FF00285CDD5F48604E0F
:103E300004F0FCFA00EB800043003366184605F0FE
:103E4000D5FA5F4905F026FB04F0F2FE0226024691
:103E50000B460096554804F0AFF90D215C4803F07D
:103E60005FFF26682868FFF7B6BA00227323226036
:103E70002B60FFF763B9574B5748002202211A60A5
:103E800003F04EFF494804F03DF90B21534803F07D
:103E900047FF0221504803F043FF444804F032F941
:103EA00026682868FFF797BA03F010FF00281ADD8C
:103EB0003E483F4E04F0BAFA00EB800043007366C0
:103EC000184605F093FA3E4905F0E4FA04F0B0FE16
:103ED000022602460B460096344804F06DF90F2185
:103EE0003F4803F01DFF26682868FFF774BA03F007
:103EF000EDFE0028F7DD2D482D4E04F097FA05F071
:103F000075FA2C4905F07AFB2A49706105F0C2FA6E
:103F100004F08EFE002602460B460096234804F06D
:103F20004BF920212F4803F0FBFE26682868FFF795
:103F300052BA03F0CBFE0028D5DD1C481C4E04F01D
:103F400075FA05F053FA1B4905F058FB1949B061A1
:103F500005F0A0FA04F06CFE002602460B4600961F
:103F6000124804F029F923211F4803F0D9FE2668DE
:103F70002868FFF730BA03F0A9FE0028B3DD0B482C
:103F80000B4E04F053FA034601460848736504F0EB
:103F900009F91921154803F0C3FE716D1448FDF7A6
:103FA0002FFA26682868FFF716BA00BFC487FF1FDC
:103FB0002493FF1F00007A442CE6000044E6000032
:103FC000CDCCCC3D94E7000074E60000FCE5000099
:103FD00084E700006C92FF1F20EC0000C0E30000AB
:103FE000A4E7000084E60000A8E60000CCE600009C
:103FF000D494FF1F0221C648C64E03F091FEC64866
:1040000004F080F80221C24803F08AFEC24804F09E
:1040100079F8F068C14905F03DFA04F009FE4FF067
:10402000000802460B46CDF80080BB4804F0C4F8F7
:104030001D21BB4803F074FE0221B54803F070FE59
:10404000B54804F05FF83069B44905F023FA04F08C
:10405000EFFDCDF8008002460B46AF4804F0ACF807
:104060001D21B04803F05CFE0221A94803F058FE70
:10407000A94804F047F8B06A04F0DAFD02270246C6
:104080000B460097A44804F097F81E21A64803F0B9
:1040900047FE39469E4803F043FE9F4804F032F83D
:1040A000F06A04F0C5FD009702460B469A4804F0FA
:1040B00083F81F219D4803F033FE3946944803F0EE
:1040C0002FFE954804F01EF8B06C944905F0E2F913
:1040D00004F0AEFDCDF8008002460B468E4804F099
:1040E0006BF82021924803F01BFE3946884803F004
:1040F00017FE894804F006F8F06C884905F0CAF903
:1041000004F096FDCDF8008002460B46824804F08C
:1041100053F82121874803F003FE39467C4803F019
:10412000FFFD7D4803F0EEFFB16D7B4804F03AF8E7
:104130001821814803F0F4FD3946754803F0F0FD7D
:10414000754803F0DFFFF06D05F050F97B4905F08D
:10415000A1F904F06DFD009702460B466E4804F08D
:104160002BF81121764803F0DBFD3946684803F04F
:10417000D7FD694803F0C6FF306E05F037F96F4987
:1041800005F088F904F054FD009702460B4662489A
:1041900004F012F811216B4803F0C2FD39465C4867
:1041A00003F0BEFD5C4803F0ADFF706E05F01EF934
:1041B000624905F06FF904F03BFD009702460B469B
:1041C000554803F0F9FF14215F4803F0A9FD394673
:1041D0004F4803F0A5FD504803F094FF70694F4924
:1041E00005F058F904F024FDCDF8008002460B4696
:1041F000494803F0E1FF2521544803F091FD394679
:10420000434803F08DFD444803F07CFFB069434907
:1042100005F040F904F00CFDCDF8008002460B4695
:104220003D4803F0C9FF2721494803F079FD39468D
:10423000374803F075FD384803F064FF716D364868
:1042400003F0B0FF1E21434803F06AFD39463048B1
:1042500003F066FD304803F055FF316D2E4803F042
:10426000A1FF14213C4803F05BFD3946284803F0C8
:1042700057FD294803F046FFB16E274803F092FF2F
:104280001221364803F04CFD3946214803F048FD21
:10429000214803F037FFF16E1F4803F083FF12211E
:1042A0002F4803F03DFD3946194803F039FD1A48FF
:1042B00003F028FF316F184803F074FF12212948DA
:1042C00003F02EFD3946124803F02AFD124803F090
:1042D00019FF716F104803F065FF1321224803F0A6
:1042E0001FFD39460A4803F01BFD0B4803F00AFF87
:1042F000306A0A4905F0CEF804F09AFCCDF8008047
:1043000002460B46044803F057FF17212EE000BF7A
:1043100020EC00002493FF1FC487FF1F00007A4495
:10432000CCE30000ECE300000CE400002CE400000F
:104330004CE4000070E4000094E40000CDCCCC3DDF
:10434000B0E40000C4E40000D8E40000F0E40000A1
:1043500018E5000040E5000060E5000078E5000099
:104360008CE50000A0E50000B4E50000BD4803F0C6
:10437000D7FC3946BC4803F0D3FCBC4803F0C2FE6E
:10438000F069BB4905F086F804F052FCCDF80080D6
:1043900002460B46B54803F00FFF1821B54803F05D
:1043A000BFFC394676E50221AF4803F0B9FCAF48BF
:1043B00003F0A8FE2421B04803F0B2FCAB4803F0A0
:1043C000A1FE022166E5FDF70DFB0221A64803F0E0
:1043D000A7FCA64803F096FE0221A34803F0A0FC28
:1043E000A24803F08FFE02219F4803F099FC9F48EA
:1043F00003F088FE1721A14803F092FC9B4803F0CC
:1044000081FE0221984803F08BFC984803F07AFE65
:104410000322642322602B60FEF7DEBE03F056FC0D
:1044200000287FF760AD9148954E03F0FFFF04F040
:10443000DDFF8F4905F0E2F88D49F06005F02AF8BC
:1044400004F0F6FB002602460B460096874803F070
:10445000B3FE18218B4803F063FC26682868FEF73A
:10446000BABF03F033FC00287FF73DAD7F48844E90
:1044700003F0DCFF04F0BAFF7D4905F0BFF87C498A
:104480003061DBE703F022FC00287FF72CAD774892
:104490007B4E03F0CBFF04F0A9FFB06204F0C8FB31
:1044A000022602460B460096704803F085FE1A214C
:1044B000754803F035FC26682868FEF78CBF03F0CA
:1044C00005FC00287FF70FAD68486D4E03F0AEFF86
:1044D000034601466548F36603F064FE0F216B480E
:1044E00003F01EFC26682868FEF775BF03F0EEFB9C
:1044F00000287FF7F8AC5D48614E03F097FF034654
:1045000001465A48336703F04DFE0E21604803F020
:1045100007FC26682868FEF75EBF03F0D7FB00287B
:104520007FF7E1AC5148564E03F080FF04F05EFF88
:10453000F06204F07DFB022602460B4600964B48D3
:1045400003F03AFE1B21534803F0EAFB2668286873
:10455000FEF741BF03F0BAFB00287FF7C4AC434825
:10456000474E03F063FF04F041FF414905F046F870
:104570003F49B06404F08EFF04F05AFB0026024667
:104580000B460096394803F017FE1B21424803F002
:10459000C7FB26682868FEF71EBF03F097FB0028BC
:1045A0007FF7A1AC3148364E03F040FF0346014689
:1045B0002E48336503F0F6FD1021384803F0B0FBB8
:1045C00026682868FEF707BF03F080FB00287FF706
:1045D0008AAC26482A4E03F029FF04F007FF24493D
:1045E00005F00CF82249F06404F054FF04F020FBBD
:1045F000002602460B4600961C4803F0DDFD1C21F8
:10460000274803F08DFB26682868FEF7E4BE03F018
:104610005DFB00287FF767AC1448194E03F006FFD6
:10462000034601461148B36503F0BCFD13211D4844
:1046300003F076FB26682868FEF7CDBE266828685A
:10464000FEF7C6BE26682868FEF706BE0C4EB36F9E
:10465000B3FA83F35B0901226320B3672260286009
:10466000FEF7BCBEC8E5000020EC0000C487FF1FB9
:1046700000007A44E0E50000C4E20000A8E3000086
:104680002493FF1F10E60000FCE6000054E6000043
:1046900064E6000018E7000034E70000E8E60000E8
:1046A00050E7000070E7000003F010FB0028C9DDB0
:1046B0002148224E03F0BAFE04F098FEB06304F0E5
:1046C000B7FA022602460B4600961B4803F074FD1B
:1046D00011211B48FEF71ABDFEF7A4FA26682868C8
:1046E000FEF7EBBC03F0F2FA0028ABDD1248134EE4
:1046F00003F09CFE04F07AFE124904F0CBFE7062D7
:1047000004F096FA022602460B4600960A4803F089
:1047100053FD12210C48FEF7F9BC31460B48DE6709
:1047200003F0FEFA044803F0EDFC17210848FEF7F9
:1047300070BD024EFFF7C1B9C487FF1F2493FF1F4E
:1047400024E300006F12833AFCE2000020EC00003A
:1047500090E2000038B5164C164A2368101D12F876
:10476000011F904241EA0323F9D12360124C03F167
:1047700000432360114BDB6F022B11D0104B1B68E1
:10478000012B00D038BD0F4803F0BCFC21680D4858
:1047900003F008FD03210C48BDE8384003F0C0BA1F
:1047A00020680A4D04F022FE2860FDF7CBFDE5E706
:1047B0001493FF1F8B92FF1F5894FF1F2493FF1F1A
:1047C0003494FF1FC487FF1FB0EB00007092FF1FDF
:1047D00030B53F4C3F4883B0214601F0F7F82368DD
:1047E0003C2B5BD0B3F5407F09D23B4B38491A686C
:1047F0003A48012A18BF0022FCF76AFA2368384AAF
:1048000023F060431A44EE2A08D8334B30491A6823
:104810003248012A18BF0022FCF73AFA314B1B68D4
:10482000012B01D003B030BD2B4B1B68012BF9D1FC
:104830002D4B2E481B6801930A220023019903F097
:1048400071FC2268224B002ADB793ADB284929488F
:1048500005F0E8FD274805F013FE0146254803F062
:104860005FFA25681A4B15F080451BD1DB798BB1B7
:10487000631921491A7A1F4805F0D4FD1D4805F037
:10488000FFFD01461B4803F04BFA0135E379EDB219
:10489000AB42EDD8154803F035FCC3E7FFF75AFFEC
:1048A00023689FE7154D134C0FCD0FC495E8030007
:1048B00044F8040B204620F81419152103F030FAAF
:1048C000E8E70F490B4822F0604205F0ABFDC1E775
:1048D0008492FF1F2CCAFF1F3494FF1FD494FF1F24
:1048E000FFABAAE54087FF1FD0CBFF1FC487FF1F88
:1048F000DCEB00009492FF1F08EC0000F0EB0000DE
:10490000B4EB00002DE9F84F9C4B9D4C1B78052B18
:1049100008D09C48FCF794FDE16A04F059FF002898
:1049200000F08F80984E994D002333602B60984B98
:1049300094481B68924F012B2DD0FCF73BFDE16999
:104940008046606904F09CFC0146404604F05EFF2E
:10495000002848D18B488A4FFCF72CFDE16804F011
:1049600055FF002836D000232B608648844DFCF785
:10497000FBFC216904F02CFF18B100233360BDE873
:10498000F88F8048FCF7F0FCA96904F021FF0028AB
:10499000F3D1BDE8F88FFCF70DFDE1698046206A90
:1049A00004F06EFC0146404604F030FF002875D14B
:1049B0007448734FFCF7FEFCE16804F027FF002801
:1049C000D1D17048FCF7F6FC396A04F01FFF0028CB
:1049D000C9D1CAE76B48FCF7EDFC796904F016FF12
:1049E0000028C0D1C1E76748FCF7E4FCD7F8149071
:1049F000F9698346484604F043FC8246F86D04F0AA
:104A0000F5FC8046386E04F0F1FC414604F038FCB9
:104A100051460746584604F033FC0146384604F038
:104A200039FD51460746484604F02AFC01463846FF
:104A300004F0E4FD414604F025FC04F0F1FE28609A
:104A400088E75048FCF7FCFC216B04F0C1FE00280D
:104A500052D04D4E636E4B483360FCF7F1FC8146FB
:104A6000E06DE76A494D04F0C1FC3946804648468E
:104A700004F006FC0146404604F00CFD3946804631
:104A8000206B04F0FDFB0146404604F0B7FD002119
:104A900004F0F8FB04F0C4FE286048E73948FCF74E
:104AA00089FCD7F82090F9698346484604F0E8FB72
:104AB0008246F86D04F09AFC8046386E04F096FC4D
:104AC000414604F0DDFB51460746584604F0D8FB4A
:104AD0000146384604F0DEFC51460746484604F0DD
:104AE000CFFB0146384604F089FD414604F0CAFB7D
:104AF00004F096FE28605BE72248FCF7A1FC616B9E
:104B000004F066FE30B1204E204D626EE36D3260DF
:104B10002B600CE71B48FCF793FCA16A04F058FEDD
:104B200000283FF4FFAE1748174E184DFCF788FCDD
:104B30008146606ED4F8348004F058FC4146074644
:104B4000484604F09DFB39468146002004F098FB5E
:104B50000146484604F09EFC41468146A06A04F0A6
:104B60008FFB0146484604F049FD394604F08AFBB4
:104B700004F056FEE36D30602B60D8E65094FF1FC2
:104B80002493FF1FD494FF1F5C94FF1F5C92FF1FB0
:104B90007492FF1F08B5274803F0B4FA072126488E
:104BA00003F0BEF8112002F099F80621F8B123486D
:104BB00003F0B6F8122002F091F8062100B3204865
:104BC00003F0AEF8122002F089F8062108B31D4860
:104BD00003F0A6F8132002F081F8062110BB1A4852
:104BE00003F09EF81348BDE8084003F08BBA17485D
:104BF00003F096F8122002F071F806210028DED1A9
:104C0000134803F08DF8122002F068F806210028FE
:104C1000DDD1104803F084F8132002F05FF806217C
:104C20000028DCD00C4803F07BF80248BDE80840BF
:104C300003F068BAC487FF1F14EC00001CEC0000EE
:104C40002CEC00003CEC000054EC000024EC0000D4
:104C500034EC000044EC00004CEC000010B5254C96
:104C60002368042B27DC01210B2002F031F80121FD
:104C70000C2002F02DF80121142002F029F8012166
:104C8000152002F025F80121162002F021F801215B
:104C9000172002F01DF80121052002F019F801216A
:104CA000062002F015F8236801330A2B2360C4BFE5
:104CB0000023236010BD00210B2002F009F8002121
:104CC0000C2002F005F80021142002F001F8002168
:104CD000152001F0FDFF0021162001F0F9FF002151
:104CE000172001F0F5FF0021052001F0F1FF002160
:104CF000D6E700BF8C94FF1F2DE9F041184CDFF878
:104D00006880184FD8F80030236000252146082617
:104D10003846E67125726572A572E5722573657372
:104D2000A573E57300F05AFF012001F0EBFFD8F8FE
:104D3000003023604FF0450E3846282201273023EB
:104D4000E6712146E57225736573A57384F808E062
:104D50006772A272E373BDE8F04100F03FBF00BF8D
:104D60007494FF1F2CCAFF1F4C87FF1F38B5234BBD
:104D7000B3F9000004F03AFB214B224904461868BD
:104D800004F088FB214604F07BFA1F4904F082FB03
:104D90001E4B0546186804F029FB214604F070FA02
:104DA0000146284604F02AFC194904F06BFA04F085
:104DB00037FD0146052001F00BFE1648FCF7D4FA3A
:104DC000154B196904F004FD88B9144B14491B688C
:104DD0006FF0A80202FB03F381FB0321DB17C3EB97
:104DE0002111DC310620BDE8384001F0F1BDE021A1
:104DF0000620BDE8384001F0EBBD00BF6C94FF1FFA
:104E00007C92FF1F6F12833A00004D435487FF1FAF
:104E100000004842D494FF1F2493FF1F3887FF1FD0
:104E2000CBF08D28F8B53E4B3E4C1B682360072223
:104E300020231020E271237201F050FF00285DD181
:104E4000394B1B6803EB83035B001A126372A27277
:104E5000364F374B3A68374D324E286D83FB02137D
:104E6000A3EBE2731A122273E37204F0BFFA6969CA
:104E700004F010FB304B196804F002FA2F4904F0DB
:104E800009FB04F0F3FC83B21A1231462C48637319
:104E9000A27300F0A3FE022001F034FF294B1B682F
:104EA0002360072220231020E271237201F016FFF5
:104EB00060B3254B1B6803EB830343F3D713737273
:104EC0003A681B4B286D83FB0213A3EBE2731A12A3
:104ED000E372227304F08AFA696904F0DBFA174975
:104EE00004F0D8FA04F0C2FC83B21A126373A273FE
:104EF0000C491348BDE8F84000F070BE124B1B6827
:104F000003EB830343F3D7136372A1E7064B1B68DC
:104F100003EB83035B001A127372B272D0E700BF17
:104F20006C87FF1F7494FF1F4487FF1F5C92FF1F55
:104F3000565555552493FF1F5C87FF1F00002041E5
:104F40002CCAFF1F7087FF1F4887FF1F2DE9F04302
:104F500087B001E0FFF73CFC9A4800F001FD002813
:104F6000F8D102F0B3FE002801DDFEF797F8964C69
:104F7000D4F89030002B7DD1944F3B68012B01D0A9
:104F8000FDF7B4FDD4F89450914E012D00F0388116
:104F90003378052B1AD8DFE813F08B00A500CA0080
:104FA000E4000D0106008B4B002212201A6001F074
:104FB00095FE012808BF0323874808BF3370FBF71D
:104FC00041FE864B1B68984200F07481844DE36F6C
:104FD000012B00F084802B68824A0393039B1168A5
:104FE0007F485B1AB3F5FA7F05D82B680593059BBC
:104FF00007B0BDE8F08303680493049B7648136010
:10500000FCF7F2F87448FCF7AFF9216904F0E0FB13
:10501000002836D1744B1B68002B38D1734B1B68AA
:10502000002B3DD13B68002B3FD1FDF7BFFBFFF7C5
:1050300069FCFDF7A9FEFFF75FFED4F89430012B61
:1050400001D0FCF7FFFF654C63482368ABB1FBF769
:10505000F9FD236898421CBF05233370FCF75CFF01
:1050600072B6634B4AF202614BF2804219801A8099
:1050700062B6BAE701F0EAFF7EE7FBF7E3FD2060E6
:10508000ECE705233370584B1B68002BC6D0FDF7A7
:1050900095F85148FCF73AFA544B1B68002BC1D0E5
:1050A000FFF778FD3B68002BBFD0FFF7D7FDBCE7CB
:1050B000484B4B4D4FF0000841461420C3F8008088
:1050C00001F006FE41460B2001F002FE0123337081
:1050D000E36F484A012BC2F800807FF47CAFFDF7F4
:1050E00031F978E73B4B3C48374D00221A60FCF71A
:1050F00061F9A16C04F08AFB002840F03B813E4B33
:1051000000221A60122001F0E9FD012800F06881F8
:10511000112001F0E3FD0128314D7FF458AF2A68DA
:10512000364B0292029A1A60042333704FE7294BE0
:105130004FF001081120C3F8008001F0CFFD0546B3
:1051400000287FF443AF0146152001F0C1FD294638
:105150000B2001F0BDFD274B86F800801D60204D1F
:1051600035E71C4B0022012114201A6001F0B0FD2C
:105170001948FCF71FF9A16C04F048FB002840F027
:10518000F2801D4B18601448FCF714F9E16804F034
:105190003DFB002840F0E080122001F09FFD002838
:1051A0007FF414AF0146142001F092FD0123337007
:1051B0000B4D0CE7074B0A4D00221A60FDF73CFC33
:1051C00005E700BF2CCAFF1F2493FF1F7094FF1F29
:1051D0005094FF1F6494FF1FD494FF1F4C94FF1F33
:1051E000D0CBFF1F6092FF1F4087FF1F1893FF1F48
:1051F0000C2005408494FF1F6894FF1F9094FF1FAC
:1052000000231120337001F069FDDFF81482D8F813
:105210000030002849D1012B00F0DF8079487A4D19
:10522000FCF7C8F8A16C04F0F1FA00284FD1774BD5
:1052300000221A60D8F800807248734DB8F1010F4F
:105240006BD0FCF7B7F8E16804F0E0FA002800F052
:10525000A9806F4D0021142001F03AFD2B6803F066
:1052600001032B606748DFF8A081FCF77DF8216916
:1052700004F0AEFA00283ED000210B2001F028FDFA
:105280002B6803F002032B60624DFFF76FFD2B6864
:1052900061490193614A019B096812685B1A934254
:1052A0007FF695AEFFF7BEFD91E6002BB6D1C8F8AC
:1052B0000050B3E75348FCF757F8216904F09CFA13
:1052C00000283FF483AE0123524D33707FE64D48F2
:1052D000FCF770F881464B48FCF746F8E96C03F0A0
:1052E000D1FF0146484604F091FA00289FD0474B71
:1052F00001221A609EE74348FCF736F8D8F81810E8
:1053000004F066FA0028B7D101210B2001F0E0FC7F
:105310002B6843F001032B60B6E7FCF74BF8216ADA
:1053200004F074FA002894D13648FCF71DF8E969B6
:105330008146286A364D03F0A3FF0146484604F033
:1053400047FA00288ED04146142001F0C1FC2B689A
:1053500043F002032B6085E70021142001F0B8FC24
:105360000123337018E72748FBF738FF274B01224A
:105370001A6008E72348FCF71DF880462148FBF730
:10538000F3FFE96C03F07EFF0146404604F03EFA6D
:1053900000283FF4B4AE1B48FBF720FF1B4B012253
:1053A0001A60AFE61748FCF705F8696904F02EFAB1
:1053B00000287FF44EAF1348FBF7D6FFE96980461B
:1053C0006869134D03F05CFF0146404604F000FAA3
:1053D00000283FF447AF0121B6E7C8F800001DE7F9
:1053E000E16CA06C03F04EFF05460648FBF7E2FFB8
:1053F0000146284604F00AFA00283FF489AE032348
:10540000337085E6D494FF1F2493FF1F6894FF1F19
:105410008494FF1FD0CBFF1F4894FF1F2887FF1FD6
:105420007492FF1F10B501F043F90848FBF7D8FB51
:105430000748FCF7C1FA4FF4B67003F003F80446CE
:1054400000F046FD034B1C6010BD00BFD494FF1F4D
:10545000D493FF1F6094FF1F00207047704700BF68
:1054600030B40B46054603C905EBC204043484E896
:105470000300197911F0010F296812D11C68124834
:105480001023843113FB0211A40420400860296812
:10549000803113FB021230BC136823F40013136035
:1054A000704718688431102313FB021120F060400C
:1054B00008602968803113FB021230BC136843F482
:1054C00000131360704700BF0000FC1F70B44388D6
:1054D00082689BB202EB031304461E685D689A68FB
:1054E000DB68CB608A600E604D606388A188012014
:1054F0009BB2034493FBF1F201FB12339BB2638036
:1055000070BC7047F8B5204C204A21790546034607
:1055100001F0FD0102202A606FF30001002285F8EE
:1055200094011D2720261020C5F8A020C5F8F8708A
:10553000A5F89661A5F8980121712260114643F8FB
:10554000B02F05F1F00243F8041F93424FF000041E
:10555000F9D1C5F88440C5F88840C5F88C40C5F835
:1055600090409822214605F1FC0004F007FD1F221F
:105570000F2385F8FC40C5F80841C5F80021C5F89F
:105580000C312846F8BD00BFC8CBFF1F00400240C9
:1055900038B5D0F8A03003B138BD0446B0F8980152
:1055A000000102F051FFD4F8B020C4F8A000AAB165
:1055B0000023B4F89851B4F89611A4F89430C4F8C4
:1055C0009C00A4F89630C4F8AC20A4F8A430A4F849
:1055D0009850A4F8A810A4F8A63038BDB4F89601E5
:1055E000000102F031FFC4F8B0000246D4F8A00078
:1055F000DEE700BFF8B52C4BB3FBF1F5052DB3FB8F
:10560000F5F6A1EB06064BD900229E461746931CE1
:10561000B5FBF3F4192C02F1010203FB04F3F6D8F5
:10562000BEFBF3F3CB1A002BB8BF5B42B3422EDBB9
:105630002FD0052CEBD87B1CB5FBF3F5053D142DC5
:105640001CD8B6F5967F19DC184A006805EB4505AD
:105650005319515D5A789B7801F0070141F480019C
:10566000D20441F4804102F460121B040A4303F4A3
:10567000E023134343EA07674760F8BD39210C482C
:1056800002F04EFB0B48BDE8F84002F03BBD1E4661
:1056900017460B2CCDD9122C9CBF1E461746C8E7C7
:1056A00001230027C8E700BF0024F4007887FF1F0C
:1056B000F4EC0000C487FF1F0F2930B404462DDC32
:1056C00069BBD0F8A030012084F8940123B30022F4
:1056D00010252368803315FB02330132196801F469
:1056E000001141F08061196094F89401C0F1100339
:1056F000D2B2DBB29342ECD80F2B0DD810204FF072
:1057000000612268803210FB03220133DBB2102BD0
:105710001160F6D194F8940130BC70470F21D4F891
:10572000A03084F894111BB11029D0D10023E5E7F3
:105730000846F1E790F89431C3F11003DBB29A42C6
:1057400001D2FFF78DBE704790F89431C3F110037A
:10575000DBB29A4217D200EBC2020B7950680860A4
:10576000107A60F300030B71137A0879C3F34003D6
:1057700063F341000871137AC2B29B0863F3870296
:105780000A71012070470020704700BF90F89431E3
:10579000C3F11003DBB29A4220D2036810B41C6834
:1057A000E4011CD41C6844F080441C600468236835
:1057B00043F08053236004682368DB01FCD504F5C3
:1057C000086404EB820211600268136823F08053BE
:1057D000136002681368DB01FCD410BC704703F54A
:1057E000086303EB820210BC1160F7E72DE9F0417A
:1057F0000546164698460C469DF81870FFF7C8FEF9
:105800002A68524B9A4200F08F80514A4F491378D0
:1058100043F0800313702B688B427BD05A6822F4CC
:1058200000525A602A68136843F0804313602A6864
:10583000136823F0004313602A681368DB02FCD46A
:10584000136883F0007313602B681A689701FCD407
:105850001A68D001FCD51A6842F400321A60214659
:105860002846FFF7C7FE2A68136843F480331360A5
:1058700095F89431102B18BF002404D11DE0013499
:10588000E4B29C4219D2224600212846FFF77EFF4F
:1058900095F89431C3F11003DBB2A342EFD922464D
:1058A00031462846FFF7DCFD95F894310134C3F109
:1058B0001003DBB2E4B29C42E5D32A68136823F0FC
:1058C000805313602B681A68D101FCD41A68120146
:1058D000FCD495F894112846FFF7EEFED5F8F83081
:1058E00003F1604303F5644340221A70D5F8F820B1
:1058F00053099B0003F1604303F5614302F01F026B
:10590000012101FA02F21A602B684FF6FF729A62C7
:10591000BDE8F081A2F5E732A2F5E272136843F028
:10592000100313602B6879E7B8F1010F06BF03F588
:1059300018334833074B4FF40072012F1A600CBF25
:10594000054B064B4FF400721A605EE700400240C0
:1059500000500640309004404CA004403490044075
:10596000D0F8F83030B45C09A10001F1604101F5D4
:10597000614101220968144D03F01F0302FA03F389
:10598000194008BF002280F8F42045F82430B0F810
:10599000A430B0F8A6209BB292B29B1A44BFB0F8D4
:1059A000A8209B1869B1D0F8F8104A09920002F1BA
:1059B000604202F5614201F01F01012000FA01F18D
:1059C0001160184630BC704780E100E0F8B504462D
:1059D000D0F8F8001A4F4609B30003F1604303F50D
:1059E000614301221D6800F01F0002FA00F31D420E
:1059F00014BF1546002584F8F45047F82630B4F853
:105A0000A420B4F8A63092B29BB29A4216D004F108
:105A1000A400FFF75BFD94F8F45075B1D4F8F820BA
:105A200053099B0003F1604303F56143012102F038
:105A30001F0201FA02F21A60F8BDF8BD0020ECE77F
:105A400080E100E070B48B7913F0010F036828D077
:105A50000C681025843315FB023324F0604412FBDC
:105A600005F21C6003688C68883324BA9C50036874
:105A7000CC688C3324BA9C508B79DC071DD513F08D
:105A8000020FCB7901684FEA034303F4702301F15D
:105A9000800114BF43F0476343F046638B5070BCF2
:105AA00070470D680E4C1026843316FB0233AD048C
:105AB0002C4012FB06F21C60D4E713F0020FCB79E6
:105AC00001684FEA034303F4702301F1800114BF1E
:105AD00043F0416343F040638B5070BC704700BF9C
