:1000000000800020BD010000E59200009D920000EC
:100010009D9200009D9200009D9200009D92000024
:100020009D9200009D9200009D920000E5920000CC
:10003000E59200009D920000C1B00000C5B0000034
:10004000E5920000E5920000E5920000E5920000D4
:10005000E5920000E5920000E5920000E5920000C4
:10006000E5920000E5920000E5920000E5920000B4
:10007000E5920000E5920000E5920000E5920000A4
:10008000E5920000E5920000E5920000E592000094
:10009000E5920000E5920000E5920000E592000084
:1000A000E5920000E5920000E5920000E592000074
:1000B000E5920000258600003186000035860000AC
:1000C000418600004586000049860000E592000058
:1000D000E5920000E5920000E5920000E592000044
:1000E000E5920000E5920000E5920000E592000034
:1000F000E5920000E5920000E5920000ADA000004E
:10010000E5920000ADBD0000E5920000E592000020
:10011000E5920000E5920000E5920000E592000003
:10012000E5920000E5920000E5920000E5920000F3
:10013000E5920000E5920000E5920000E5920000E3
:10014000E5920000E5920000E5920000E5920000D3
:10015000E5920000E5920000E5920000E5920000C3
:10016000E5920000F5A30000E5920000E592000092
:10017000E5920000E5920000E5920000E5920000A3
:10018000E5920000E5920000E5920000E592000093
:10019000E5920000E5920000E5920000E592000083
:1001A000E5920000E5920000E5920000E592000073
:1001B000E5920000E5920000E5920000564B4CF2FB
:1001C000205210B51A804DF628121A8000BF00BFC9
:1001D00009F08CF8514B4FF010621A60504A9A6047
:1001E000504ADA60504A136813F4807304D14F49BF
:1001F0000B604FF4A85313604D4B1A78110703D5C9
:100200001A7842F008021A704A4B4B492A221A7097
:100210004A4A4B4B8B4204D252F8040F43F8040B6A
:10022000F8E7484B484900228B4202D243F8042B9E
:10023000FAE74649464A002352F8230041F82300D2
:1002400001336F2BF8D1434B434A802103F8011B44
:100250009342FBD1414B3D4A1A60414B8A221A70AE
:10026000A3F5805324225A70A0221A709A7992071B
:10027000FCD59A79D406FCD43A4A937903F00C035E
:10028000082B384BF9D103221A7140225A719A79FE
:100290009006FCD5334A9179324B4906FBD5324A58
:1002A000324911600221516020221A709A7902F0BD
:1002B0000C020C2AFAD12E4B2E4A1A602E4B2F4AD2
:1002C0001A6000225A60072243F8042C2C4AC3F813
:1002D0000C2D62B609F0C2FA144B1B68DA0705D57B
:1002E000284809F09DF8284B284A1A60284B1B78AB
:1002F0005B0609D5244C254B22689A4204D121483B
:1003000009F08EF80023236008F0F6FF0DF022FAC2
:100310000BF0ECF9FEE700BF0E20054030800440F2
:10032000823F04000100002B10D0034014D0034092
:1003300002D0074000E007408092FF1F9832010082
:100340002087FF1F8092FF1F04D6FF1F0082FF1F20
:100350000000000000E400E05FE400E008ED00E0E1
:100360000050064000400640448004400000030165
:1003700004800440C010050014E000E0FF76010096
:100380000000202053AB73621CE00340A5C3945AC5
:1003900000F00740FFFFFFFFFFFFFFFFFFFFFFFF32
:1003A000FFFFFFFFFFFFFFFFFFFFFFFFFFFFFFFF5D
:1003B000FFFFFFFFFFFFFFFFFFFFFFFFFFFFFFFF4D
:1003C000FFFFFFFFFFFFFFFFFFFFFFFFFFFFFFFF3D
:1003D000FFFFFFFFFFFFFFFFFFFFFFFFFFFFFFFF2D
:1003E000FFFFFFFFFFFFFFFFFFFFFFFFFFFFFFFF1D
:1003F000FFFFFFFFFFFFFFFFFFFFFFFFFFFFFFFF0D
:10040000FFFFFFFFFFFFFFFFFFFFFFFFDEF9FFFF23
:1004100010B5054C237833B9044B13B10448AFF33E
:1004200000800123237010BD8092FF1F0000000098
:1004300094320100084B10B51BB108490848AFF3CE
:1004400000800848036803B910BD074B002BFBD0A0
:10045000BDE81040184700BF000000008492FF1F55
:10046000943201008092FF1F00000000F0B400F100
:100470003006184F00243146031F00F1640243F890
:10048000044FB34241F8047F4FF0000542F8044F97
:10049000F5D10023104A114CC0F89C5047F230515E
:1004A000C0F8A050C0F8A450C0F8A850C0F8B85088
:1004B000C0F8B040C0F8AC20C0F8B420C0F8E430B8
:1004C00080F8C43080F8C53080F8DC30C0F8F01017
:1004D000F0BC70470000A040000048430000C8C2C4
:1004E00038B5CB7BFD2B0C46054649D0087ADE2873
:1004F00020D9C87A0CF03CFD4FF07C510CF08CFDFB
:1005000027490CF07FFCC5F8A000207BEF2825D8F8
:100510000CF02EFD4FF07C510CF07EFD20490CF0CC
:1005200071FCC5F8A400607BEF281DD90023C5F835
:10053000A83038BD0CF01CFD4FF07C510CF06CFD68
:1005400017490CF05FFCC5F8A000E27AA37A03EB30
:100550000223C5F8E430207BEF28D9D90023C5F861
:10056000A430607BEF28E1D80CF002FD4FF07C5105
:100570000CF052FD0A490CF045FCC5F8A80038BD46
:10058000887AFD28D5D00CF0F3FC4FF07C510CF0AC
:1005900043FD04490CF036FCC5F8A00038BD00BF8F
:1005A00000002C420000204290F8CC00704700BFB1
:1005B00090F8C800704700BF90F8D000704700BFA7
:1005C00090F8D400704700BF0D2994BF50F8210067
:1005D000002070472DE9F0410B4E8046041F00F1CA
:1005E000300754F8045F314628460CF0B3FE30B1B2
:1005F000D8F8BC1028460CF0CBFE00B12E46BC4209
:10060000EFD13046BDE8F081000020412DE9F041F6
:10061000D0F8BC704FF00008041F00F1300654F809
:10062000045F394628460CF0B3FE084948B1284615
:100630000CF090FE414620B128460CF0A9FE00B116
:10064000A846B442EBD14046BDE8F0810000A0408E
:100650002DE9F047D0F8BC7082464FF00009041F26
:1006600000F130064FF0000854F8045F3946284680
:100670000CF08EFE0F4950B128460CF06BFE30B1E5
:10068000484629460CF0C0FB08F101088146B442F7
:10069000EAD1CAF8E080B8F1000F02D10020BDE82D
:1006A000F08740460CF064FC014648460CF068FDBB
:1006B000BDE8F0870000A040D0F8E000704700BF20
:1006C00038B5D0F8D83053B9D0F8A440D0F8A050FD
:1006D000214628460CF03EFE30B1204638BD273377
:1006E00050F82340204638BD2C46204638BD00BF78
:1006F000D0F8D8302DE9F041002B7CD1D0F8A4609F
:10070000D0F8A0500446314628460CF07DFBD4F8C2
:10071000A870394680460CF077FB7E490CF030FD1E
:100720004FF07C5104460CF033FE002861D04FF0AE
:100730007C5128460CF02CFE4FF07C51002860D1F3
:1007400028460CF007FE38B14FF07C5130460CF0D3
:100750001FFE002840F0A7804FF07C5128460CF087
:1007600017FE002860D14FF07C5128460CF010FE97
:10077000002840F0A1804FF07C5128460CF008FE84
:1007800000286CD14FF07C5128460CF0E3FD4FF06F
:100790007C5110B330460CF0FBFD38B14FF07C516A
:1007A00038460CF0D7FD002840F0B0804FF07C5167
:1007B00030460CF0CFFD002861D04FF07C51384618
:1007C0000CF0E6FD002840F0A38038464FF07C5145
:1007D0000CF0C0FD68B1504C10E028460CF0BAFD9A
:1007E0000028E3D128464FF07C510CF0B3FD0028DF
:1007F00045D1BDE8F081273350F823402046BDE8BD
:10080000F08130460CF0C4FD4FF07C5100283ED002
:1008100038460CF0BDFD0028F0D14FF07C51284641
:100820000CF098FD002859D14FF07C5130460CF067
:1008300091FD002840D04FF07C5138460CF0A8FDC7
:10084000002841D14FF07C5130460CF0A1FD68B139
:100850004FF07C5138460CF07DFD00284FD14FF011
:100860007C5130460CF076FD00288BD04FF07C5147
:1008700038460CF06FFD002884D02C46BEE7304689
:100880004FF07C510CF066FD0028B2D09DE7284661
:100890000CF060FD0028C7D04FF07C5130460CF0C2
:1008A00077FD0028C0D04FF07C5138460CF070FD29
:1008B00000283FF451AF18E04FF07C5130460CF067
:1008C00067FD0028CBD0C3E7394628460CF09CFAD8
:1008D0004FF07C510CF0A0FB04468FE74FF07C51A9
:1008E00038460CF055FD00289ED0394630460CF0B5
:1008F0008BFA4FF07C510CF08FFB04467EE74046AC
:100900004FF07C510CF088FB044677E7344675E7DE
:100910003C4673E7000040400000A0C2D0F8D82059
:1009200070B5002A34D10446FFF7E2FE4FF07C5147
:100930000CF02EFD58B3D4F8A0604FF07C51304637
:100940000CF026FDD4F8A45038BBD4F8A8404FF0E2
:100950007C5128460CF01CFD48B1294630460CF06D
:1009600017FD20B1214628460CF0F4FC28BB4FF0BF
:100970007C5120460CF00CFD48B1284621460CF075
:1009800007FD20B1304621460CF002FD18B970BDBC
:10099000273250F82240204670BD304629460CF0E0
:1009A000D9FCD4F8A8400028D1D0304621460CF01C
:1009B000D1FC0028CBD03446EDE72C46EBE700BF56
:1009C0002DE9F047814684B01546032900F27B816A
:1009D000DFE811F0FF00BE007D0004004FF0000AC8
:1009E00080F8ECA0937A507A1B0103EB101000F50D
:1009F0007A700CF0BDFAB6490CF00EFBD9F8004045
:100A0000C9F830004846FFF789FFD9F8AC10054611
:100A10000CF0A0FC08B1C9F8AC50D9F8D830002BC4
:100A200040F02381D9F8A060D9F8A4503046294677
:100A30000CF090FC002800F00C81D9F8B01028468A
:100A40000CF0A6FC002840F00D8109F13406C846E0
:100A500009F168050D2701E058F8044F3168204678
:100A60000CF078FC30B1D9F8BC1020460CF086FCB4
:100A700000B13460296820460CF08AFC04369549A0
:100A800020B120460CF084FC00B12C60013F05F140
:100A90000405E1D1BAF1000F00F0F6808E4CD9F8D0
:100AA000E81023680193019AD9F8F030521A9A425B
:100AB00080F0F38022680292029A0B449B1A41F262
:100AC0008732934240F20A8104B0BDE8F0874FF0CC
:100AD000000A80F8ECA0937A507A1B0103EB101007
:100AE00000F57A700CF044FA79490CF095FAC9F8DF
:100AF00020002B7B687B1B1103EB001000F57A7044
:100B00000CF036FA72490CF087FAC9F828002B7BF2
:100B1000EA7A1B0203F47063981800F57A700CF0FF
:100B200027FA6B490CF078FAC9F82400EB7BAA7B12
:100B30001B0203F47063981800F57A700CF018FA31
:100B400063490CF069FAD9F80040C9F82C0059E75C
:100B50004FF0000A80F8ECA0937A507A1B0103EB67
:100B6000101000F57A700CF003FA59490CF054FAA1
:100B7000C9F810002B7B687B1B1103EB001000F5FC
:100B80007A700CF0F5F952490CF046FAC9F81800E1
:100B90002B7BEA7A1B0203F47063981800F57A70D5
:100BA0000CF0E6F94A490CF037FAC9F81400EB7B6F
:100BB000AA7B1B0203F47063981800F57A700CF09E
:100BC000D7F943490CF028FAD9F80040C9F81C00BD
:100BD00018E74FF0000A80F8ECA0937A507A1B01D6
:100BE00003EB101000F57A700CF0C2F938490CF0E4
:100BF00013FAC9F800002B7B0446687B1B1103EB3A
:100C0000001000F57A700CF0B3F931490CF004FAD9
:100C1000C9F808002B7BEA7A1B0203F4706398186A
:100C200000F57A700CF0A4F929490CF0F5F9C9F82F
:100C30000400EB7BAA7B1B0203F47063981800F599
:100C40007A700CF095F922490CF0E6F9C9F80C001D
:100C5000D8E63146D9F8B0000CF07CFB00283FF410
:100C6000F4AE3546C9F8B050EFE609EB8303D9F886
:100C7000B010D3F89C5028460CF08AFB00283FF4B3
:100C8000E4AEC9F8B050E0E6134B1B680093009B3C
:100C9000C9F8E83004B0BDE8F0870020A9F10403EA
:100CA00009F11C0143F8040F8B424FF00002F9D107
:100CB000C9F89C20C9F8A020C9F8A420C9F8A82028
:100CC00004B0BDE8F08790F8ECA004689AE600BF95
:100CD0006F12833A0000A0408CD3FF1F02211348FB
:100CE0000AF0C8F812480AF065FB062111480AF01C
:100CF000C1F83B460A2299F8DC100D480AF06EFB59
:100D000019210D480AF0B6F823680393D9F8E820B2
:100D1000D9F8F030039906481A44511A3B460A2282
:100D20000AF05CFB02480AF045FBCDE6F42801001E
:100D30000888FF1F00160100081601002DE9F8437E
:100D40000026D0F8BC80C0F89C608146041F00F1EA
:100D5000300754F8045F414628460CF019FB094956
:100D600050B128460CF0F6FA30B1304629460CF066
:100D70004BF80646C9F89C00BC42EAD13046BDE8B3
:100D8000F88300BF0000A04002299ABF283150F824
:100D900021000020704700BF3E2998BF80F8DC107A
:100DA000704700BFD0F8E400704700BF90F8C4005F
:100DB000704700BF90F8C500704700BFC0F8D8105A
:100DC000704700BF80F8C410704700BFC0F8C01063
:100DD000704700BF80F8C510704700BF30B50F4C9A
:100DE000C0F8BC1083B020460D460AF0E3FA204656
:100DF0000AF0E0FA28460BF065FC022502460B4695
:100E0000009520460AF034FB20460AF0D3FA20462B
:100E100003B0BDE830400AF0CDBA00BF0888FF1F1C
:100E200070B500F570550646383500F12C042046A3
:100E3000F434FFF71BFBAC42F9D106F590750124A1
:100E400028460021FFF7BEFF214628460134FFF760
:100E5000A3FF3F2C05F1F405F2D106F57153064AC4
:100E60003261002405480649B06100227461F161D5
:100E700030461A7070BD00BF00007A44000048433D
:100E80000000C8C270B500F59074012500260DE081
:100E9000012620460021FFF79DFF29462046013507
:100EA000FFF77AFF3F2D04F1F4040ED02046FFF740
:100EB0007DFF0028EDD02046FFF77CFF0646002886
:100EC000E6D120463146FFF77DFF304670BD00BFBA
:100ED00030B50B4C8162054683B020460AF06AFAB1
:100EE000A86A0BF0EFFB032502460B46009520464F
:100EF0000AF0BEFA204603B0BDE830400AF05ABA04
:100F00000888FF1F2DE9F04F83B00546019100F5D9
:100F100090774FF001093846FFF748FF002847D087
:100F2000002634464FF0010BA96AA8680BF06CFF4D
:100F3000214680463846FFF747FB014640460CF005
:100F400009FA18B10BFA04F31E43B6B201340C2CA3
:100F5000EAD1019B012B3AD06D4C0022214608209A
:100F600046FA02F313F0010302F1010214BF087004
:100F70000B70082A01F10101F2D109F1FF38B8F133
:100F8000070F21D8DFE808F0A29C96908A847E3C67
:100F9000604BCBF800309BF806305F495F4843F068
:100FA00001038BF8063008238BF8073007F0DAF9D5
:100FB00009F10109B9F13F0F07F1F407ABD1564B25
:100FC0009A796FF300029A7103B0BDE8F08F54482C
:100FD0000AF0F0F90721534809F04CFF4946504800
:100FE0000AF03CFA0321504809F044FF0023102284
:100FF00031464B480AF0F2F949480AF0DBF9ABE711
:10100000DFF814B1494BCBF800309BF80630424969
:10101000424843F001034FF0080A8BF806308BF882
:1010200007A007F09FF95346504646FA03F212F024
:10103000010203F1010314BF207022700D2B04F193
:101040000104F2D1FE238BF80C308BF80D308BF8B5
:101050000E308BF80F30B8F1070FB5D801A353F855
:1010600028F000BF0911000001110000F910000074
:10107000F1100000E9100000E1100000D91000009C
:10108000910F0000DFF890B0294BCBF80030BCE79F
:10109000DFF884B0274BCBF80030B6E7DFF878B044
:1010A000254BCBF80030B0E7DFF86CB0234BCBF822
:1010B0000030AAE7DFF860B0214BCBF80030A4E79E
:1010C000DFF854B01F4BCBF800309EE7DFF848B094
:1010D0001D4BCBF8003098E71C4BCBF800305AE79B
:1010E0001B4BCBF8003056E71A4BCBF8003052E7D9
:1010F000194BCBF800304EE7184BCBF800304AE7DD
:10110000174BCBF8003046E7164BCBF8003042E7E0
:10111000A492FF1F1954551A9C92FF1FE4D1FF1F80
:101120000888FF1F241601002C1601001854551AB8
:101130001654551A1454551A1254551A1054551A57
:101140000E54551A0C54551A0A54551A1754551A58
:101150001554551A1354551A1154551A0F54551A3B
:101160000D54551A0B54551A43F644432DE9F041DA
:10117000002200F5705600F571578046C25038368F
:10118000043700F5907402E0F434B4420DD02046E8
:10119000FFF70CFE0028F7D020463D68FFF78CFAD9
:1011A000F4342844B4423860F1D143F6444358F84B
:1011B0000300BDE8F08100BF012AF8B50E460446E1
:1011C0000D7827D0A5F10B03302B11D9F42000FBAB
:1011D00005442C3420460121FFF7F4FD204601216F
:1011E000FFF7F8FD31462046BDE8F840FFF778B933
:1011F00028460BF0BDFE4FF07C510BF00DFF22494D
:101200000BF000FE0CF0CEF8F42303FB004000F1DD
:101210002C04DFE71D4817460AF0CCF829461B4886
:101220000AF01CF903211A4809F024FEA5F10B036A
:10123000302B0CD828460BF09BFE4FF07C510BF066
:10124000EBFE11490BF0DEFD0CF0ACF80546F42383
:1012500003FB05442C3420463946FFF7B3FD3946DD
:101260002046FFF7B7FD31462046FFF739F907481A
:101270000AF0A0F8294605480AF0F0F80B210548C5
:10128000BDE8F84009F0F6BD000070410888FF1F76
:101290002C160100301601000B68A3F5D8732DE958
:1012A000F0413E2B40D8DFE813F0D900D500D10043
:1012B000CD00C900C500C100BD00B900B500B10036
:1012C000AD00A900A500A1009D0099009500910026
:1012D0008D008900850081007D006D00690065003A
:1012E00061007500710079005D0041003901350130
:1012F00031012D01290125013F0021011D011901A5
:101300003F00150111010D013F0009010501010117
:101310003F00FD00F900F5003F00F100ED00E9009D
:101320003F00E500E100DD00BDE8F0814FF000087E
:101330000925012A174604460E4600F0F380F420E2
:1013400000FB05442C3420460121FFF73BFD2046DD
:101350000121FFF73FFD324641462046BDE8F041FE
:10136000FFF72EBB4FF003080825E2E74FF0030814
:101370000725DEE74FF002080725DAE74FF00108FE
:101380000725D6E74FF000080725D2E74FF0010800
:101390000825CEE74FF000080825CAE74FF00208FD
:1013A0000825C6E74FF003080625C2E74FF00208FC
:1013B0000625BEE74FF001080625BAE74FF0000802
:1013C0000625B6E74FF003080525B2E74FF00208FF
:1013D0000525AEE74FF001080525AAE74FF0000804
:1013E0000525A6E74FF003080425A2E74FF0020801
:1013F00004259EE74FF0010804259AE74FF0000806
:10140000042596E74FF00308454692E74FF002089F
:1014100003258EE74FF0010803258AE74FF0000807
:10142000032586E74FF00308022582E74FF0020804
:1014300045467EE74FF0010802257AE74FF00008A5
:10144000022576E74FF00308012572E74FF0020806
:1014500001256EE74FF0010845466AE74FF00008A6
:10146000012566E74FF00208102562E74FF00108FA
:1014700010255EE74FF0000810255AE74FF00208EC
:101480000F2556E74FF001080F2552E74FF00008EF
:101490000F254EE74FF002080E254AE74FF00108EE
:1014A0000E2546E74FF000080E2542E74FF00208F0
:1014B0000D253EE74FF001080D253AE74FF00008F3
:1014C0000D2536E74FF002080C2532E74FF00108F2
:1014D0000C252EE74FF000080C252AE74FF00208F4
:1014E0000B2526E74FF001080B2522E74FF00008F7
:1014F0000B251EE74FF002080A251AE74FF00108F6
:101500000A2516E74FF000080A2512E74FF00308F6
:1015100009250EE74FF0020809250AE74FF00108F8
:10152000092506E7094809F045FF2946074809F05B
:1015300095FF3946064809F09DFC4146034809F0ED
:101540008DFF024809F036FFF9E600BF0888FF1F4B
:101550003C1601002DE9F043002383B006460360EA
:1015600000F59074012504E001353F2D04F1F404E9
:1015700066D02046FFF71AFC0028F5D04B4800F053
:1015800003FD29464A4800F0FFFC2046FFF7D6FB42
:101590000BF098F802460B46464800F0F5FC204652
:1015A000FFF718F880462046FFF730F80746404618
:1015B0000BF088F88046384689460BF083F842469F
:1015C0004B46CDE900013C4800F0DEFC00212046FE
:1015D000FFF7DAFB012180462046FFF7D5FB0746DF
:1015E00040460BF06FF88046384689460BF06AF8A3
:1015F00042464B46CDE90001304800F0C5FC20468C
:10160000FFF79CFB014630680BF0FEFB3060204684
:10161000FFF784F9B1690BF09DFE002831D1204617
:10162000FFF74EF8F1690BF0B3FE00289CD020467E
:10163000FFF746F801353F2DF06104F1F40498D12D
:1016400070680BF095FC014630680BF099FD7169EC
:10165000306004460BF09CFE00B174613169204695
:101660000BF078FE00B134610B2008F073F806F53A
:101670007156337850B97BB10123337003B0BDE8A4
:10168000F0832046FFF74AF9B061C8E743B9002369
:10169000337003B0BDE8F083094800F0A3FCEBE72A
:1016A000084800F089FC00233370F2E79C1C01001D
:1016B000401601007C16010090160100BC160100C6
:1016C000D81601001017010070B5114B836000F5AA
:1016D00070550646383500F5907402E0F434AC429B
:1016E00013D02046FFF762FB0028F7D02046FEF714
:1016F00071FFB1680BF02EFE0028EFD02046FEF7F8
:1017000069FFF434AC42B060EBD1B06870BD00BF8B
:101710000000A04070B5002300F570550646C36078
:10172000383500F5907402E0F434AC4213D0204612
:10173000FFF73CFB0028F7D02046FEF767FFF16873
:101740000BF026FE0028EFD02046FEF75FFFF434B2
:10175000AC42F060EBD1F06870BD00BF006870472C
:1017600043F63C43C0587047416070472DE9F04153
:1017700000F57055884617461E46383500F59074BA
:1017800002E0F434AC4213D02046FFF70FFB0028F0
:10179000F7D020464146FFF711FB20463946FFF7B8
:1017A0001DFB20463146F434FFF710FBAC42EBD171
:1017B000BDE8F0812DE9F041274A284B426200F54F
:1017C000705507464FF000080362383500F59074F5
:1017D000002602E0F434A54210D02046FFF7E6FAD6
:1017E0000028F7D02046FEF783FF1D490BF0D0FDFF
:1017F00080B9F434A54206F10106EED143F63C432C
:10180000F858801B0BF0B4FB014640460BF0B8FCC7
:10181000BDE8F0812046FEF76BFF014640460BF025
:10182000F3FA80462046FEF74BFF396A0BF0B0FD15
:1018300060B92046FFF772F8796A0BF08BFD00283B
:10184000C8D02046FFF76AF87862C3E72046FEF763
:1018500037FF3862EDE700BF00C0794400C079C4AB
:1018600000008CC2006A7047406A70472DE9F04161
:1018700043F63C4300F570552E4600228046C25088
:10188000002738353C3600F5907402E0F434AC4261
:101890001AD02046FFF78AFA0028F7D02046FEF734
:1018A000D7FE00210BF074FD0028EFD02046FEF794
:1018B000CFFE014638460BF0A7FA3368F434013303
:1018C000AC4207463360E4D143F63C4358F803008A
:1018D0000BF04EFB014638460BF052FCBDE8F081A0
:1018E0002DE9F04F06468FB088488B4600F0F4FA99
:1018F000864800F0F1FA854800F0EEFA43F63C43E2
:101900003046F2580D92FFF72FFC73680C93074690
:1019100030680AF0D7FE804630468946FFF7A6FFBA
:1019200082463046B468F568FFF744FF0AF0CAFE05
:10193000CDE90A01214628460BF064FA74490BF000
:101940006BFB0AF0BFFECDE9080128460AF0BAFE9B
:10195000CDE9060120460AF0B5FECDE90401504666
:101960000AF0B0FE0D9A0C9BCDE90201CDE9008989
:10197000114668483A4600F0AFFA644800F0ACFA05
:1019800006F590764FF001094FF0000A07E009F1E3
:101990000109B9F13F0F06F1F40600F0AE803046C0
:1019A000FFF704FA0028F2D03046FEF7FDFD30467E
:1019B000FEF7FEFD3046FEF7FFFD3046FEF700FE67
:1019C0000821554809F056FA4946544809F046FDA1
:1019D000B9F1090F40F394800221514809F04AFA05
:1019E0003046FFF7ABF90AF06DFE5FFA8BF802465E
:1019F0000B46CDF80080494809F03AFD01214948DD
:101A000009F038FA5546002420E00621464809F03E
:101A100031FA2946414809F021FD0221434809F0E5
:101A200029FA21463046FEF7CFFD0AF04BFECDF8ED
:101A3000008002460B46394809F01AFD01340121A5
:101A4000384809F017FA0D2C09D03D46092D05F14B
:101A50000107DADC0121364809F00CFAD5E72F48F6
:101A600009F0A8FC0921334809F004FA00213046A6
:101A7000FFF78AF90AF026FE022402460B4600947C
:101A8000264809F0F5FC0A212B4809F0F3F9012159
:101A90003046FFF779F90AF015FE009402460B462E
:101AA0001E4809F0E5FC0A21244809F0E3F9214623
:101AB0003046FFF769F90AF005FE009402460B462E
:101AC000164809F0D5FC0E211D4809F0D3F930461F
:101AD000FFF768F9002301461022104809F07EFC48
:101AE00009F101090D4809F065FCB9F13F0F0AF150
:101AF0000D0A06F1F4067FF452AF0FB0BDE8F08F87
:101B000001210B4809F0B6F966E700BF9C1C0100F3
:101B100000007A44C0190100601A01000888FF1F04
:101B2000F42801006C1A0100701A0100181B010052
:101B3000281B0100781A0100841A0100901A010084
:101B40009C1A01002DE9F04F85B000F590758A468A
:101B500003929B462E464FF0010806E008F101086B
:101B6000B8F13F0F06F1F4067BD03046FFF71EF9BF
:101B70000028F3D000230A2251467E4809F02EFCAB
:101B800001217D4809F076F903980AF09BFD0023B6
:101B90000246009377480B4609F06AFC012176481B
:101BA00009F068F95946734809F058FC0121724858
:101BB00009F060F941466F4809F050FC01216E4878
:101BC00009F058F900244FF0020921463046FEF78B
:101BD000FBFC0AF077FDCDF8009002460B46654805
:101BE00009F046FC01340121634809F043F9082C4F
:101BF0004FF00207E9D100213046FFF7C5F80AF09F
:101C000061FD009702460B465A4809F031FC01215C
:101C1000594809F02FF901213046FFF7B5F80AF0CD
:101C200051FD009702460B46524809F021FC012164
:101C3000514809F01FF939463046FFF7A5F80AF078
:101C400041FD009702460B464A4809F011FC08F195
:101C50000108484809F0AEFBB8F13F0F06F1F40661
:101C600083D14FF001084FF0000906E008F10108A8
:101C7000B8F13F0F05F1F40579D02846FFF796F843
:101C80000028F3D000230A2251463C4809F0A6FB65
:101C90000121394808F0B6F803980AF013FDCDF891
:101CA000009002460B46354809F0E2FB012132481C
:101CB00008F0A8F85946314809F0D0FB01212E4818
:101CC00008F0A0F841462D4809F0C8FB01212A4838
:101CD00008F098F80024022721462846FEF774FCF5
:101CE0000AF0F0FC009702460B46244809F0C0FBBE
:101CF00001340121204808F085F80D2C4FF0020630
:101D0000EAD100212846FFF73FF80AF0DBFC0096F5
:101D100002460B46194809F0ABFB0121164808F0B2
:101D200071F801212846FFF72FF80AF0CBFC009646
:101D300002460B46114809F09BFB01210E4808F0B2
:101D400061F831462846FFF71FF80AF0BBFC009601
:101D500002460B46094809F08BFB08F101080748C9
:101D600009F028FBB8F13F0F05F1F40585D105B066
:101D7000BDE8F08F0888FF1F3C160100DC87FF1FBD
:101D8000014B1870704700BF2087FF1F0278002AA0
:101D900000F0908070B5034682B00D46252A2AD106
:101DA00058785C1C08B325282FD0732831D06428BC
:101DB00024D0692822D066284FD07A2859D0782894
:101DC00035D058282FD062283ED0422838D06C28F1
:101DD00014D0632812D0742857D054285FD009F04B
:101DE000CDF86278631C002AD8D1344802B0BDE82F
:101DF000704009F0DFBA18781C46F0E72B1D2968FF
:101E00002E481D4609F02AFBEBE7104609F0B6F80C
:101E1000E7E72E6830460CF093FA01463046043569
:101E200009F028F8DDE70221254809F023F82E1DE6
:101E30002968224800231022354609F0CFFAD0E75E
:101E40000221204809F016F82E1D29681B4800239E
:101E50000222354609F0C2FAC3E7073525F0070527
:101E60000321D5E9002315480091083509F000FB4E
:101E7000B7E7073525F007050021D5E900230F480E
:101E80000091083509F0F4FAABE7296801290EBF83
:101E90000D480E480121043508F0ECFFA1E72B683E
:101EA000012B07BF04210A480A480521043508F020
:101EB000E1FF96E7014809F07DBA00BF0888FF1FDF
:101EC000AC1A0100B01A0100B41A0100B81A0100DE
:101ED000BC1A0100C41A01000FB400B583B004A9F4
:101EE00051F8040B0191FFF751FF03B05DF804EBCB
:101EF00004B0704770B51B4B1B4C1B6882B00D467D
:101F00000193019B23601946044600231646174897
:101F10000A2209F063FA0321154808F0ABFF032CED
:101F200007D8DFE804F01A1510020521114808F05F
:101F3000A1FF0221104808F09DFF31462846FFF717
:101F400025FF02B070BD07210C4808F093FFF0E7B1
:101F500004210B4808F08EFFEBE70521094808F043
:101F600089FFE6E78CD3FF1FAC92FF1F0888FF1F95
:101F7000CC1A0100E81A0100181B0100E01A010048
:101F8000D81A0100D01A01000FB400B5094B187817
:101F900083B020B103B05DF804EB04B0704705AB2B
:101FA0001A4604990193FFF7A5FF03B05DF804EB0F
:101FB00004B070472087FF1F0FB4094B00B51B7892
:101FC000012B83B004D903B05DF804EB04B0704773
:101FD00005AB1A46049901930120FFF78BFFF2E746
:101FE0002087FF1F0FB40B4B00B51B78032B83B06A
:101FF00004D903B05DF804EB04B0704705AB1A4692
:10200000049901930320FFF775FF03B05DF804EB1B
:1020100004B070472087FF1F30B4074D074C0849B4
:1020200000232B70236003654365836580F85C3073
:102030000B6030BC704700BFB892FF1FB492FF1F07
:10204000B092FF1F0A4A0B49D06D936D03FB00F35A
:102050004FF47A7000FB03F0642310B50B600AF0B4
:1020600087FF0549054C0BF08BF8206010BD00BFC1
:1020700084D0FF1F3487FF1FE4388E3EB0D1FF1F8E
:1020800010B4019C521AA4EB030412D0401A002C85
:1020900004FB00F002EBD27111DB00EB610101FBEC
:1020A00002F0002891FBF2F10B4414DB184610BC3F
:1020B000704704EBD47003EB600010BC7047A0EBDA
:1020C000610000FB02F1002990FBF2F01844EEDB06
:1020D000013010BC7047581E10BC704710B5074C3B
:1020E000204609F067F9064B2046196809F0B6F951
:1020F00003210448BDE8104008F0BCBE0888FF1F5B
:102100006093FF1FF01A010038B5044608460D46DB
:102110000CF016F92368024629465B68204698476A
:102120000546204609F046F9284438BD2DE9F84314
:102130004848494D494F4A4CFFF7CEFE494BDFF81E
:1021400050E14949494A4A485D601226494D1E708E
:10215000DF600026484F1C61C3F818E0474C596106
:102160004FF00C0E46495A629862464A4648DD6274
:102170001E63464D5F6340F61C460A279C63C3F806
:1021800054E041F20404DFF80CE19964DA640221BE
:1021900001221862C3F8C45000204FF07C55DE665F
:1021A0001F6764264FF496775C67C3F81CE03224FF
:1021B000C3F83CE04FF05A0E597059721A729A6582
:1021C00083F840009F661F665C665D64DE654FF4C1
:1021D0007A78C3F878E0DFF8C0C0D867C3F8801019
:1021E000C3F8D420C3F88400C3F89C40C3F8AC40C3
:1021F000DFF8A8E0C3F8A80044F62069C3F8B420CB
:10220000C3F8B810FF2741F28831052483F8C820AD
:102210004FF4FA7083F8C92040F2D662C3F8BC606C
:102220001D65C3F8A080C3F890C0C3F894E0C3F85C
:102230008C90C3F8B070A3F8C240A3F8CA00C3F8EA
:102240009810A3F8C010A3F88820A3F88A20BDE84E
:10225000F88300BFF41A010020A1070066668640DB
:102260000000404084D0FF1F33338340CDCCCC3DB1
:1022700000008242000020C1000020420000A04077
:102280009A9979400AD7233D333373409A99993EFE
:10229000CDCC4C40CDCC4C3E0000684200C0204428
:1022A00070B5464C464D4748E66800232B70FFF753
:1022B00031FA014630460BF04DF808B104232B707B
:1022C0004048FFF701FA21690BF044F818B12B7868
:1022D00043F010032B703B48FFF7C4FAA16A0BF0E0
:1022E00057F818B12B7843F040032B700023354882
:1022F0006B70FFF7B9FAE16A314E0BF02BF808B1B9
:102300000123737000232F48EB70FFF703FA054693
:102310002C482B4EFFF7D8F9014628460AF072FDEB
:10232000E16B0BF035F808B10123F370264D254819
:1023300000232B70FFF7EEF9616A0646E0680AF0A9
:1023400061FD014630460BF023F808B104232B70E1
:102350001C48FFF7B9F9616A064620690AF054FD86
:10236000014630460AF0F6FF18B12B7843F010030F
:102370002B701448FFF776FAA16B0646A06A0AF0A4
:1023800041FD014630460BF003F818B12B7843F0BD
:1023900040032B7000230B486B70FFF765FAA16BAD
:1023A0000546E06A084C0AF02FFD014628460AF06F
:1023B000D1FF08B10123637070BD00BF84D0FF1F3F
:1023C00070D0FF1F7093FF1FC092FF1F2DE9F041D7
:1023D000844C2368012B82B027D0022B00F09E8012
:1023E000032B00F0BE80EBB97F4B8048D3F8AC20C4
:1023F000D3F8B0100368891A002903FB01F37C4964
:10240000C0F2D180323381FB0301D817C0EB6111D8
:10241000002B1144C0F2DC80062002B0BDE8F04180
:1024200007F012B802B0BDE8F081724E33680A338B
:10243000B3F57A7F00F3C780184633600AF098FD41
:102440006D490AF0E9FD8046674DD5F8AC000AF009
:102450008FFD0746D5F8B0000AF08AFD39460AF02C
:10246000D1FC41460AF0D8FD64490AF089FE39469C
:102470000AF0CAFC0AF096FF0146062006F0E4FFC7
:1024800002215F4808F0F6FC5E4808F093FF062141
:102490005D4808F0EFFC30680AF06AFD56490AF022
:1024A000BBFD0AF00FF9022702460B46009755487C
:1024B00008F0DEFF0D21554808F0DCFCD5F8AC0033
:1024C0000AF056FD804630680AF052FD4A490AF08B
:1024D000A3FD0646D5F8B0000AF04AFD41460AF0D1
:1024E00091FC014630460AF097FD44490AF048FE47
:1024F00041460AF089FC0AF0E5F800970B460246CF
:10250000404808F0B5FF39463D4808F0B3FC3D4867
:1025100008F050FF2368022B7FF462AF354B324E38
:1025200000221A60D6F8AC000AF022FD0546D6F863
:10253000B0000AF01DFD29460AF064FC00210AF0F3
:102540006BFD2E490AF01CFE29460AF05DFC0AF0DC
:1025500029FF0146062006F077FF2368032B7FF44E
:1025600042AF244B204E4FF47A721A60D6F8AC007A
:102570000AF0FEFC0546D6F8B0000AF0F9FC294640
:102580000AF040FC1D490AF047FD1C490AF0F8FD1D
:1025900029460AF039FC0AF005FF0146062006F03C
:1025A00053FF23681FE7323B81FB0310D917C1EBB0
:1025B0006011002B0A4412DB511C062002B0BDE85A
:1025C000F04106F041BF00234FF0000833603BE7C5
:1025D0000139062002B0BDE8F04106F035BF1146D2
:1025E0001AE700BFEC92FF1F84D0FF1F3487FF1F44
:1025F0001F85EB515CD1FF1FCDCCCC3D0000C84204
:10260000F42801000888FF1F141B01001C1B010097
:1026100070B5B548B54C08F0CDFEB34808F0CAFE19
:10262000B14808F0C7FE0D21B14808F023FCD4F8EA
:10263000A830012B00F0B180AE4CAB4821780023CC
:102640000A2208F0CBFE2378052B0BD8DFE813F025
:10265000F100F600FB000001050106000721A64875
:1026600008F008FC0221A54808F004FC122007F03D
:1026700071F8012800F02081112007F06BF8012883
:1026800000F024819E4B1B68012B00F02881022161
:102690009A489C4C08F0EEFB9B4B9348196808F055
:1026A000DDFE914808F086FE0421984808F0E2FB20
:1026B0000B2007F04FF8002301460A228A4808F051
:1026C0008DFE0C2007F046F8002301460A228648BA
:1026D00008F084FE142007F03DF8002301460A228A
:1026E000814808F07BFE152007F034F80A22002309
:1026F00001467D4808F072FE0621854808F0BAFBC5
:102700002368DD074FF001014CBF8248824808F082
:10271000B1FB236898074FF001014CBF7D487E480C
:1027200008F0A8FB23685A074FF001014CBF794815
:10273000794808F09FFB23681B074CBF7548764813
:10274000012108F097FB0421744808F093FB112045
:1027500007F000F8002301460A22634808F03EFE15
:10276000102006F0F7FF002301460A225E4808F019
:1027700035FE122006F0EEFF002301460A225A48D9
:1027800008F02CFE132006F0E5FF002301460A2284
:102790005548BDE8704008F021BE0921604808F0A6
:1027A00069FB6048FEF790FF21690AF0D3FD00281D
:1027B00062D15C48FEF7AEFFE1680AF0E9FD00284F
:1027C00064D15848FEF7A6FF05465648FEF77CFF41
:1027D000014628460AF016FBE16B0AF0D9FD0028F5
:1027E0004FD15048FEF7E6FFA16A0AF0D1FD00285C
:1027F0003DD14C48FEF7DEFFE16A0AF0ABFD002850
:1028000030D1494B47481B68012B00F0AF80FEF7E1
:102810005BFF2169354D0AF0BBFD00283BD1072144
:10282000424808F027FB424B2F48196808F016FE73
:1028300018E706213F4808F01DFB13E707213E4833
:1028400008F018FB0EE707213C4808F013FB09E7E6
:1028500008213B4808F00EFB04E70B21394808F03B
:1028600009FBFFE60D21384808F004FBC9E70C21FD
:10287000364808F0FFFABCE70F21354808F0FAFAAD
:1028800097E71121334808F0F5FAAAE70E213248FC
:1028900008F0F0FA95E72348FEF73CFFE9680AF0F4
:1028A00059FD0028BBD0134B1B78052B6ED0082197
:1028B0002A4808F0DFFAB2E70E21294808F0DAFAD0
:1028C000112006F047FF01287FF4DCAE0A212548DD
:1028D00008F0D0FA0A4B1B68012B7FF4D8AE112107
:1028E000214808F0C7FAD2E60888FF1F84D0FF1FEE
:1028F0002C1B010078D0FF1F041C0100F4280100EC
:10290000A4D1FF1FD0D1FF1FC892FF1F3C1C0100A4
:10291000441C01004C1C0100802C0100501C0100D3
:102920003C1B01007093FF1FFC92FF1FCC1B01009A
:10293000F892FF1FD41B0100DC1B0100F01B0100FB
:10294000F81B0100E41B01008C1B01007C1B010033
:10295000481B0100681B0100581B0100C01B01003F
:102960000C1C01001C1C0100281C0100FEF7ACFE21
:10297000216A0AF00DFD002899D01621064808F0BA
:1029800079FA0A21054808F075FA48E70A21034850
:1029900008F070FA43E700BF9C1B0100B41B010064
:1029A0002DE9F04FAB4CD4F88060012E8DB000F0D3
:1029B0007981032E00F0CC80DFF8DC82A64FA74E91
:1029C000E36FA748012B09BF3168316801F100416D
:1029D000316006F0E5F93B68002B40F09F80A0488D
:1029E000DFF8B49206F0B2F93B68C8F8000005467B
:1029F000002B44D1D4F88030964A012B53D099490A
:102A000028460AF0C5FCC0B9974928460AF0A2FC3E
:102A100098B9964A964B12680B920B9A1A60D4F8A2
:102A2000B4000AF0A5FA29460AF0F6FA0023C8F81D
:102A3000000033600DB0BDE8F08FDFF830A28C4F9E
:102A4000DAF800300A930A983B68DFF85092C01A0F
:102A50000AF08AFA29460AF0DFFA86490AF090FB62
:102A600084490AF08DFBD9F800100AF0CDF9DAF8A4
:102A700000300993099BC9F800003B60CFE709F0DB
:102A800021FE022502460B4600957B4808F0F0FC2B
:102A900004217A4808F0EEF9D4F88030D9F80050D3
:102AA0006C4A012BABD1764B1B68012B00F0DA810D
:102AB000022BB4D1D2F88C7038460AF059FA294664
:102AC0000AF048FC40B978420AF052FA29460AF066
:102AD0005FFC002800F0F981DFF890A1644FDAF87C
:102AE0000030079307983B68DFF8B091C01A0AF0EE
:102AF0003BFA29460AF090FA5E490AF041FB5D492B
:102B00000AF03EFBD9F800100AF07EF9DAF800303E
:102B10000693069BC9F800003B6080E7504806F02A
:102B200015F909F0CFFD022502460B4600955248E3
:102B300008F09EFC0321534808F09CF9D4F88C104F
:102B40004D4808F08BFC03214E4808F093F946E706
:102B50004D4D4B4F2B68DFF84081D3F884000F2197
:102B600001233B6006F0AAF83B683B4F012B3B6812
:102B700000F0BF80002B40F03D812B68DFF82091F2
:102B8000D3F88400436B19698EB2C9F8006005F070
:102B900017FEB4F88A2040F6E44303FB06F1B1FBCC
:102BA000F0F0801A00B20AF0E3F938492B4E824661
:102BB000D4F890000AF030FA014650460AF0E0FAE4
:102BC000D9F800303060632BDFF8D4A000F3068121
:102BD000002333603B68002B3FF4F2AE02212C4807
:102BE00008F048F92B68D9F80050D3F8840040F673
:102BF000E44303FB05F505F0E3FDB5FBF0F00AF057
:102C0000B3F90546B4F88A000AF0B2F9014628463D
:102C10000AF0F8F809F056FD022502460B46009529
:102C2000154808F025FC2946194808F023F93068B2
:102C300009F048FD009502460B460F4808F018FCC5
:102C40002946144808F016F92946114808F012F9E7
:102C5000B6E600BF84D0FF1FF092FF1FC0D1FF1F58
:102C600078D1FF1F0000FA430000FAC38CD3FF1F86
:102C70006CD0FF1F00007A440888FF1F981C0100D9
:102C80004C87FF1F2C160100D8D1FF1FACC527377A
:102C9000F4280100941C010074D0FF1FB0D1FF1F65
:102CA000E0D1FF1FDFF80883D4F88C70D8F800500B
:102CB00038460AF05DF929460AF06AFB48B17842C5
:102CC0000AF056F9014628460AF062FB002840F057
:102CD0000381A54DA54F2A680223D2F884003B60EA
:102CE0000E2105F0EBFF3B68A14F012B3B687FF401
:102CF00041AF002B40F0FA802B68DFF8B892D3F890
:102D00008400436B19691FFA81FBC9F800B005F014
:102D100057FDB4F88830974E40F6E44A0AFB0BFBA7
:102D2000BBFBF0F0C01A00B20AF022F992498346C8
:102D3000D4F894000AF070F9014658460AF020FAD7
:102D40002A68D9F800303060D2F884000AFB03FA10
:102D500005F036FDB4F88830BAFBF0F00FFA80FACF
:102D6000C3EB0A03002BB4F8C220B8BF5B42934206
:102D7000BCBF002333603B68002B3FF421AE02212F
:102D80007E4808F077F82B68D9F80050D3F8840013
:102D900040F6E44303FB05F505F012FDB4F8881096
:102DA000B5FBF0F000B2411A754808F057FB02215C
:102DB000724808F05FF8306809F084FC022502468A
:102DC0000B4600956E4808F053FB03216D4808F050
:102DD00051F82946694808F04DF8F1E52B68D3F819
:102DE000840005F0EDFCDAF8003064389842FFF416
:102DF000EFAEEFE66248DFF8BC91DFF86CA108F0B7
:102E0000D9FA0C21604808F035F80C215F4808F029
:102E100031F82A683B68D2F88400426B11698EB29F
:102E2000C9F80060002B3FF4B2AE05F0C9FC40F6D3
:102E3000E44100230A2201FB06F1B1FBF0F1504806
:102E400008F0CCFA02214D4808F014F8B4F88A10C2
:102E50004B4808F003FBDAF80030D9F80060D3F8EB
:102E6000840094E64A4928460AF092FA58B949493A
:102E700028460AF06FFA30B9474A484B1268059263
:102E8000059A1A60CBE5DFF810A1444FDAF800305C
:102E9000049304983B68DFF82091C01A0AF064F8A4
:102EA00029460AF0B9F83E490AF06AF93C490AF0A5
:102EB00067F9D9F8001009F0A7FFDAF8003003939A
:102EC000039BC9F800003B60A9E5334A334B126805
:102ED0000892089A1A60A2E5234D244F28683E60A4
:102EE0004FF0FF320F2105F0E5FB3DE62448DFF807
:102EF000C4901D4E08F05EFAD4F88030012B4FF0DC
:102F00000B010CBF2748284807F0B4FF0C211F48CD
:102F100007F0B0FF2A683B68D2F88400426B116961
:102F20001FFA81FBC9F800B0002B3FF4F0AE05F0AA
:102F300047FC40F6E44100230A2201FB0BF1B1FB00
:102F4000F0F10F4808F04AFA0121184807F092FF03
:102F5000B4F888100A4808F081FA3368D9F800B04C
:102F6000D3F88400D3E600BFD8D1FF1F4C87FF1FE2
:102F7000F092FF1FC0D1FF1FACC52737F428010016
:102F80000888FF1F801C0100841C0100701C0100C8
:102F90000000FA430000FAC38CD3FF1F6CD0FF1F60
:102FA00000007A44581C0100641C0100281B010029
:102FB00074D0FF1FE0D1FF1FB0D1FF1F2DE9F047F4
:102FC000844D2B6884B043B9834B1B680393039AE9
:102FD00042F210739A4200F2B180804C804F814ED1
:102FE000DFF84482D4F884207C4B012A04D0D3F843
:102FF0008020002A40F08F807B48FEF737FC7B4919
:10300000D4F870A0D4F87490E56E0AF005F80AF0D0
:10301000EFF9A36F00934A465346294680B2FFF763
:103020002FF8E56DD4F858A005FB00F00AFB00F07E
:1030300000EB8000400009F09BFF6D490AF0A0F80A
:103040008146306005FB0AF54FF47A7000FB05F00D
:1030500009F08EFF6649DFF888A10546484609F069
:10306000DBFF29460AF08CF8624909F0D5FF0AF027
:1030700099F96328386048DD28465D490AF080F8F0
:1030800064233060CAF80030D8F80030002B39D003
:10309000D4F88030514D012B43D0032B00F09380A6
:1030A000022B00F08B800221534807F0E3FE534BC4
:1030B000186809F007FB022402460B4600945048AA
:1030C00008F0D6F921464F4807F0D4FE21464A4879
:1030D00007F0D0FE39684A4808F0C0F906214A488E
:1030E00007F0C8FE3068424909F096FF09F0EAFA95
:1030F000009402460B46424808F0BAF903214348BF
:1031000007F0B8FE04B0BDE8F0870028BCBF00237C
:10311000CAF80030B8E7D6F80090DD6DD3F858A0B3
:1031200090E73B4B1B68012B4FF00A010CBF39485D
:10313000394807F09FFED5F88030AEE72A48274C83
:10314000274FFEF793FB2949D4F87480E66ED4F834
:10315000709009F061FF0AF04BF9A36F00933146BC
:1031600042464B4680B2FEF78BFFE26DA36D38609E
:1031700002FB00F003FB00F000EB8000400009F0D0
:10318000F7FEDFF8A4801A49164E09F0F9FFD8F8C7
:103190000030306001222A60002B3FF423AF02216F
:1031A000154807F067FE164808F004F959211B4836
:1031B00007F060FE124808F0FDF813E707211848F1
:1031C00007F058FE6FE71021164807F053FED4F8B9
:1031D000803065E76C93FF1F8CD3FF1F84D0FF1FE7
:1031E0003487FF1FB0D1FF1F7093FF1F00007A4488
:1031F000E4388E3E0000C842F428010074D0FF1F5E
:103200000888FF1F941C0100301D0100381D0100BB
:103210004C87FF1FFC1C0100081D0100A01C0100C1
:10322000281D0100141D01002487FF1F30B5112047
:1032300083B006F08FFA012818D0122006F08AFA1F
:10324000012813D000210B2006F07EFA00210C206B
:1032500006F07AFA0021152006F076FA2649274B67
:103260000120002208701A6003B030BD0121152032
:1032700006F06AFA224A234C234B1268D4F89810BD
:1032800001921B68019A1D4D0B4493424FF00201BD
:10329000296005D901210C2006F056FA03B030BD93
:1032A000D4F8A00009F064FE184B19680AF052F82F
:1032B0000028EFD101210B2006F046FA94F8C8301F
:1032C00003242C6043B10C4B02221A7000210C2005
:1032D00006F03AFA03B030BD122006F03BFA01289E
:1032E00008BF054B4FF0110008BF1C7006F032FA02
:1032F0000128EBD1E7E700BF78D0FF1F6893FF1FDD
:103300008CD3FF1F84D0FF1FCCCFFF1F74D0FF1FB3
:10331000F0B5684E684D34682B689C4287B039D050
:1033200014F0010155D014F0020149D014F0040149
:103330003DD0E3070ED52B68DF070BD45F4F3A680B
:10334000002A00F082805E4B1B680193019B934230
:103350006DD83468A0070DD52B6899070AD4594F4A
:103360003A68002A4CD0564B1B680393039B934248
:1033700038D8346862070DD52B685B070BD4524FE1
:103380003A68002A7ED04E4B1B680593059B9342FA
:1033900068D834680CB107B0F0BD2146162006F09D
:1033A00053F82146172006F04FF807B0F0BD05206E
:1033B00006F04AF82B68346803F0FB032B60B8E78B
:1033C000172006F041F82B68346803F0FD032B60EA
:1033D000ACE7162006F038F82B68346803F0FE03DB
:1033E0002B60A0E7394B1720D3F89C1006F02CF87F
:1033F0002B68346843F0020300222B603A60B9E77F
:10340000334807F0D7FF0C21324807F033FD30482E
:1034100007F0D0FFFF21172006F016F8284B2E4AA0
:1034200019680291029912680A443A609CE7274B96
:103430001620D3F89C1006F007F82B68346843F088
:10344000010300222B603A6084E7FF21162005F07B
:10345000FBFF1B4B204A19680091009912680A442F
:103460003A6071E7194B0520D3F89C1005F0ECFF8A
:103470002B68346843F0040300222B603A60002C70
:1034800089D18AE7124807F095FF0C21134807F00D
:10349000F1FC0F4807F08EFFFF21052005F0D4FF57
:1034A000074B0D4A19680491049912680A443A605E
:1034B0006AE700BF6893FF1FD0D1FF1F60D1FF1FD5
:1034C0008CD3FF1F64D1FF1F68D1FF1F84D0FF1F63
:1034D0000888FF1F3C1D01003C87FF1F4C1D010099
:1034E0002DE9F047534EDFF870813368DFF86C91B7
:1034F000D3F88400504D0F2105F0E0FB002301229A
:1035000022214E48C8F80030C9F8002007F0B2FC6C
:10351000D8F80030132B20DC40F6E4473368B5F8C8
:1035200088A0D3F88400436B1C6905F049F9A4B264
:10353000012107FB04F4B4FBF0F441485444A5F81E
:10354000884007F097FC642006F03AF9D8F800307C
:103550000133132BC8F80030E0DDB5F88830394A64
:103560003948A2FB03129B1A02EB5303C3F30F1358
:103570001946A5F8883007F071FF1D21334807F080
:1035800079FC0221324807F075FC2F4807F012FF42
:1035900032680023D2F88400C8F800300E2105F00C
:1035A0008DFB022322212548C9F8003007F062FC78
:1035B000D8F80030132B20DC40F6E4473368B5F828
:1035C0008A90D3F88400436B1C6905F0F9F8A4B223
:1035D000012107FB04F4B4FBF0F419484C44A5F8AE
:1035E0008A4007F047FC642006F0EAF8D8F800307B
:1035F0000133132BC8F80030E0DDB5F88A30114AEA
:103600001148A2FB03129B1A02EB5303C3F30F13DF
:103610001946A5F88A3007F021FF1D210D4807F053
:1036200029FC02210A4807F025FC0748BDE8F047BD
:1036300007F0C0BED8D1FF1F84D0FF1F5C1D010062
:10364000A01D0100876118860888FF1F801D0100EA
:10365000F4280100A41D0100D092FF1F4C87FF1F1A
:10366000F8B5BD4BBD4CBE4F1B68786D40F2513173
:1036700008222160E271002B00F0698109F078FCDA
:10368000396A054609F0C8FCB64909F0C5FC09F0DD
:10369000AFFE80B203126372B34AB44B12681B6868
:1036A000B9692072A37228461B121512E3722273A5
:1036B000657309F0B1FCAB4909F0AEFC09F098FE66
:1036C00083B21A12A549AA48A373E27304F04AFE12
:1036D000A84BA94A1B681288A049A272DDB22572C4
:1036E00005EB850603EB8305760045F3D71540F21D
:1036F000553E12121B1226736573082600259C483E
:10370000C4F800E0E2726372E671A573E57304F039
:1037100029FE40F2563399482360E671FEF71EF801
:10372000974909F079FC09F063FE20729348FEF78F
:1037300015F8934909F070FC09F05AFE914A904936
:10374000C0F307231068637209F01AFD09F02AFE1E
:1037500040FA06F203468948E272A372FEF72AF89D
:10376000804909F059FC09F01DFE20738348FEF7DB
:1037700021F87C4909F050FC09F014FE7749A57343
:1037800040F307237A486373E57304F0EBFD0220EE
:1037900006F016F87C4A7D4B1178507821729178AA
:1037A0006072D2789878A172597893F800E0E2724A
:1037B0006173DA78A07340F25A3368496C4884F830
:1037C0000CE0E2732360E67104F0CCFD704B6349BA
:1037D0001A785878227260729A78D878A272E07259
:1037E0001A79987993F805E02273A073DA79604822
:1037F00084F80DE040F25E33E2732360E67104F07A
:10380000B1FD022005F0DCFF624B54491A7858786C
:10381000227260729A78D878A272E0721A799879D6
:1038200093F805E02273A073DA79514884F80DE02B
:103830004FF45C73E2732360E67104F093FD0220A1
:1038400005F0BEFF40F273334C482360E671FDF78C
:103850003BFF514909F0E0FB09F0CAFD20724748DF
:10386000FDF732FF4C4909F0D7FB09F0C1FDC0F369
:10387000072342486372FDF74DFF474909F0CCFB2F
:1038800009F0B6FDA0723D48FDF744FF424909F03A
:10389000C3FB09F0ADFDC0F307233848E372FDF721
:1038A000E3FF3E4909F0B0FA09F0A2FD2073334866
:1038B000FDF7DAFF394909F0A7FA09F099FDC0F3DD
:1038C00007232E486373FDF7CDFF344909F09CFAB6
:1038D00009F08EFDA0732948FDF7C4FF2F4909F0B8
:1038E00093FA09F085FD1D49C0F307232048E373CF
:1038F00004F038FD022005F063FFB96DFB6D022274
:1039000011FB03F3C3F3072740F27931104621601E
:10391000E2712372677205F053FF40F27233174869
:103920002360E671FDF71CFF20721448FDF718FFB5
:1039300040FA06F3A5726372E57225736573A57389
:10394000E57306490A48BDE8F84004F00BBD09F0EC
:103950000FFB7969054695E6FC92FF1FD492FF1F85
:1039600084D0FF1F00002041C8D1FF1FE892FF1F35
:10397000E4D1FF1F3487FF1F3A87FF1F7093FF1F9B
:103980000000C84274D0FF1F70D0FF1FC092FF1FFD
:103990006487FF1F6C87FF1F00007A4433938843BE
:1039A0002DE9F041874C884D82B007F0FDF923687E
:1039B0002860042B00F0F982022B4BD0082B00F07A
:1039C0009280072B40F02481332801F0C08500F35A
:1039D0007783312801F0A585322840F08D8007F0EB
:1039E0001FFA002840F312817848794E07F07AFEDA
:1039F00009F0BEFA774909F00FFB61230122F06359
:103A000022602B601846A0F152031F2B01F26D8536
:103A1000DFE813F0570D6B0D6B0D6B0D6B0D6B0D20
:103A20006B0D6B0D6B0D6B0D6B0D6B0D6B0D6B0DD6
:103A30006B0D9603CB0E1005AC057A046B0D6B0D68
:103A40006B0D0A046B0DCE0E6B0D6B0D6B0D6B0DBC
:103A50006B0D590DA0F13102422A4DD8DFE812F06A
:103A60006F087B08890896083308460853086208DF
:103A70004C004C004C004C004C004C004C004C00E6
:103A80004C004C004C004C004C004C004C004C00D6
:103A90004C004C004C004C004C004C004C004C00C6
:103AA0004C004C004C004C004C004C004C004C00B6
:103AB0004C004C004C004C004C004C004C004C00A6
:103AC0004C004C002D084C004C004C004C004C00AD
:103AD0004C004C004C004C004C004C004C004C0086
:103AE00036034C00A508322800F0F582712800F05A
:103AF000ED82312800F00583002B08BF73280CBF2E
:103B000001200020002859D0304807F053FC042140
:103B1000314807F0AFF92D4807F04CFC10212F4831
:103B200007F0A8F9294807F045FC13212C4807F0B5
:103B3000A1F92C4B2548196807F090FC234807F0A1
:103B400039FC1421284807F095F9204807F032FC89
:103B50001E21264807F08EF91C4807F02BFC152182
:103B6000234807F087F9194807F024FC1E21214853
:103B700007F080F9154807F01DFC20211E4807F0CA
:103B800079F9124807F016FC19211C4807F072F960
:103B90000E4807F00FFC1221194807F06BF90B488B
:103BA00007F008FC0D21174807F064F9074807F0F3
:103BB00001FC154A002101231160236002B0BDE819
:103BC000F08100BF98D1FF1FB8CFFF1F0888FF1FEB
:103BD00084D0FF1F6F12833A842701008C270100D5
:103BE000A02701004887FF1FB4270100CC27010050
:103BF000EC270100042801002428010048280100C6
:103C000064280100782801002487FF1F23682868A2
:103C1000062B40F08F80A0F13002412A3FF66CAFB6
:103C200001A151F822F000BF494900007549000088
:103C3000A1490000CD490000F349000053480000AD
:103C400025490000E9480000F93A0000FD4800005D
:103C5000F93A0000F93A0000F93A0000F93A000098
:103C6000F93A0000F93A0000F93A0000F93A000088
:103C7000F93A0000F93A0000F93A0000F93A000078
:103C8000F93A0000F93A0000F93A0000F93A000068
:103C9000F93A0000F93A0000F93A0000F93A000058
:103CA000F93A0000F93A0000F93A0000F93A000048
:103CB000F93A0000F93A0000F93A0000F93A000038
:103CC000F93A0000F93A0000F93A0000F93A000028
:103CD000F93A0000F93A0000F93A0000F93A000018
:103CE000F93A0000F93A0000F93A0000F93A000008
:103CF000F93A0000F93A0000F93A0000F93A0000F8
:103D0000F93A0000F93A0000F93A0000F93A0000E7
:103D1000F93A0000F93A0000F93A0000F93A0000D7
:103D2000F93A0000F93A0000F93A0000CD400000ED
:103D300023682868052B40F08D80A0F13102402ACD
:103D40003FF6DAAE01A151F822F000BF9F46000015
:103D500013480000D7470000F747000093470000D2
:103D6000BD470000F93A0000F93A0000F93A0000B6
:103D7000F93A0000F93A0000F93A0000F93A000077
:103D8000F93A0000F93A0000F93A0000F93A000067
:103D9000F93A0000F93A0000F93A0000F93A000057
:103DA000F93A0000F93A0000F93A0000F93A000047
:103DB000F93A0000F93A0000F93A0000F93A000037
:103DC000F93A0000F93A0000F93A0000F93A000027
:103DD000F93A0000F93A0000F93A0000F93A000017
:103DE000F93A0000F93A0000F93A0000F93A000007
:103DF000F93A0000F93A0000F93A0000F93A0000F7
:103E0000F93A0000F93A0000F93A0000F93A0000E6
:103E1000F93A0000F93A0000F93A0000F93A0000D6
:103E2000F93A0000F93A0000F93A0000F93A0000C6
:103E3000F93A0000F93A0000F93A0000F93A0000B6
:103E4000F93A0000F93A0000F93A0000334800005E
:103E500023682868032B40F0A480A0F13002422A96
:103E60003FF64AAE01A151F822F000BF793F0000B1
:103E7000355100005D51000085510000A751000040
:103E8000C9510000F15100002B5200001D530000E9
:103E900041530000F93A0000F93A0000F93A0000F5
:103EA000F93A0000F93A0000F93A0000F93A000046
:103EB000F93A0000F93A0000F93A0000F93A000036
:103EC000F93A0000F93A0000F93A0000F93A000026
:103ED000F93A0000F93A0000F93A0000F93A000016
:103EE000F93A0000F93A0000F93A0000F93A000006
:103EF000F93A0000F93A0000F93A0000F93A0000F6
:103F0000F93A0000F93A0000F93A0000F93A0000E5
:103F1000F93A0000F93A0000F93A0000F93A0000D5
:103F2000F93A0000F93A0000F93A0000F93A0000C5
:103F300069530000434C00004952000067520000E2
:103F400085520000A3520000F94B00001D4C0000F8
:103F5000F93A000087530000C9500000F93A000008
:103F6000F93A0000F93A0000F93A0000F93A000085
:103F7000F3500000FF50000006F052FF002841F30C
:103F8000B782CF48CF4E07F0ADFB0127034601466D
:103F90006222CD48B36527602A60FDF7E5FB236800
:103FA0002868012B7FF4A8AD2DE5A0F13102402A4D
:103FB0003FF6A2AD01A151F822F000BF5B4A00001C
:103FC000994A00009D4A00005F4A0000634A0000D1
:103FD0007F4A0000954A0000314A0000354A00003F
:103FE000F93A0000F93A0000F93A0000F93A000005
:103FF000F93A0000F93A0000F93A0000F93A0000F5
:10400000F93A0000F93A0000F93A0000F93A0000E4
:10401000F93A0000F93A0000F93A0000F93A0000D4
:10402000F93A0000F93A0000F93A0000F93A0000C4
:10403000F93A0000F93A0000F93A0000F93A0000B4
:10404000F93A0000F93A0000F93A0000F93A0000A4
:10405000F93A0000F93A0000F93A0000F93A000094
:10406000F93A0000F93A0000F93A0000F93A000084
:10407000F93A0000F93A0000F93A0000F93A000074
:10408000194A0000F93A0000F93A0000F93A000034
:10409000F93A0000F93A0000F93A0000F93A000054
:1040A000F93A0000F93A0000F93A0000F93A000044
:1040B000F93A0000F93A0000F93A0000CD4000005A
:1040C000342801F01C8271287FF416AD0023732080
:1040D0002360286010E506F0A3FE002840F3B183BA
:1040E0007748784E07F0FEFA08F042FF774908F06B
:1040F00093FF07460246336D96F840107248776486
:1041000015E006F08DFE002840F39F836C486D4E4D
:1041100007F0E8FAC0B286F84000032894BF0146D1
:104120000021336D726C684888BF86F84010FDF737
:104130001DFB012369202360286064E406F034FE3F
:1041400006F06EFE05460028F8D15D485D4E07F08A
:1041500031F95B4807F02EF9594807F02BF9584818
:1041600007F028F9564807F025F91F21584806F0AE
:1041700081FE534807F01EF91C21564806F07AFECE
:10418000706A554908F048FF08F09CFA009502460D
:104190000B464B4807F06CF90221504806F06AFEC6
:1041A000474807F007F923214D4806F063FEF06BFE
:1041B000494908F031FF08F085FA009502460B46A0
:1041C0003F4807F055F90221444806F053FE3C48A9
:1041D00007F0F0F81921434806F04CFEB06B08F0E8
:1041E00071FA02250B4602460095354807F040F962
:1041F00029463D4806F03EFE314807F0DBF8222113
:104200003A4806F037FEB6F8CA102D4807F026F9EE
:104210000321374806F02EFE294807F0CBF8072384
:104220002360CBE406F0C0FD06F0FAFD0546002849
:10423000F8D12348234E07F0BDF8214807F0BAF81B
:104240001F4807F0B7F81E4807F0B4F81C4807F0FD
:10425000B1F81521274806F00DFE194807F0AAF815
:104260001821254806F006FE2B460A2296F8401033
:10427000134807F0B3F8124807F09CF828211F48AC
:1042800006F0F8FD706C144908F0C6FE08F01AFA42
:1042900000950B4602460A4807F0EAF802210F484B
:1042A00006F0E8FD064807F085F81321144806F0EB
:1042B000E1FD034807F07EF8082323607EE400BF99
:1042C0000888FF1F84D0FF1F7093FF1F6F12833A6F
:1042D000102001003020010000007A443C1E010043
:1042E0005020010074200100EC1F0100902001000B
:1042F000B42001004C280100F41D0100101E010033
:10430000401E010006F050FD06F08AFD054600281B
:10431000F8D18148814E07F04DF87F4807F04AF800
:104320007D4807F047F87C4807F044F87A4807F0E2
:1043300041F811217A4806F09DFD774807F03AF8D8
:104340002821784806F096FD7069774908F064FEE8
:1043500008F0B8F9009502460B466F4807F088F858
:104360000221724806F086FD6B4807F023F81621FB
:104370006F4806F07FFDF0696B4908F04DFE08F0CC
:10438000A1F900950B460246634807F071F8022137
:10439000664806F06FFD604807F00CF8D6F8B830B4
:1043A000002B32DD1D21634806F064FD306E08F0FD
:1043B000DFFD614908F030FE08F084F9022502466D
:1043C0000B460095544807F053F801215B4806F06E
:1043D00051FD514806F0EEFF1F21594806F04AFDF5
:1043E000706E08F0C5FD544908F016FE08F06AF931
:1043F000009502460B46484807F03AF801214F481D
:1044000006F038FD444806F0D5FF11214D4806F06E
:1044100031FDD6F8B830072B00F2CA87DFE813F079
:1044200047084C0842083D08380833082E08C407DE
:1044300006F0BAFC06F0F4FC0028F9D13648374EF5
:1044400006F0B8FF344806F0B5FF334806F0B2FF77
:10445000314806F0AFFF304806F0ACFF1F213A4864
:1044600006F008FD2C4806F0A5FF1E21374806F08F
:1044700001FD294806F09EFF1A21354806F0FAFC96
:10448000D6F88030022B01F03781032B01F02B810D
:10449000012B01F01F8109212E4806F0EBFC1E487C
:1044A00006F088FF14212C48DFF8708006F0E2FC4B
:1044B000F16F194806F0D2FF174806F07BFF1C2168
:1044C000264806F0D7FCD6F88410134806F0C6FF3D
:1044D000114806F06FFF1C21214806F0CBFCD6F8EE
:1044E000B4100D4806F0BAFF0B4806F063FFD6F88B
:1044F000805025F00207012F01F07C80022D01F091
:104500001A811321174806F0B5FC034806F052FF44
:1045100002232360FFF752BB0888FF1F84D0FF1FD0
:10452000F0270100541E010000007A443C1E0100E7
:10453000801E0100981E0100CDCCCC3DE823010077
:10454000B81E0100D81E0100A8220100C8220100E7
:10455000E8220100602301006C2301008423010094
:10456000A4230100401E010006F01EFC06F058FCCA
:104570000028F9D1BE4806F01DFFBD4806F01AFF1D
:10458000BB4806F017FFBA4806F014FFB84806F01B
:1045900011FF1321B74806F06DFCB54806F00AFF7D
:1045A0000D21B54806F066FCB14806F003FF0F2167
:1045B000B24806F05FFCB24BAD48196806F04EFFFA
:1045C000AB4806F0F7FE1321AE4806F053FCAE4BA5
:1045D000A748196806F042FFA54806F0EBFE122135
:1045E000AA4806F047FCAA4BA148196806F036FF16
:1045F0009F4806F0DFFE1121A64806F03BFCA64BC3
:104600009B48196806F02AFF994806F0D3FE0E2150
:10461000A24806F02FFCA24B9548D3F8A81006F04C
:104620001DFF934806F0C6FE19219E4806F022FCA5
:104630009D4B8F48196806F011FF8D4806F0BAFEB1
:1046400011219A4806F016FC994B8948196806F022
:1046500005FF874806F0AEFE1021964806F00AFCDA
:10466000954B8348196806F0F9FE814806F0A2FED2
:104670001C21924806F0FEFB914B7D48196806F01C
:10468000EDFE7B4806F096FE13218E4806F0F2FB05
:10469000774806F08FFE04232360FFF78FBA06F0F9
:1046A000BFFB00287FF7D4AB71487D4E07F01AF8A6
:1046B00001226B23C6F8980022602B6001E006F00F
:1046C00073FB06F0ADFB0028F9D16948744D06F084
:1046D00071FE674806F06EFE654806F06BFE6448A2
:1046E00006F068FE624806F065FE2121764806F075
:1046F000C1FB5F4806F05EFE1521744806F0BAFB68
:10470000D6F898105A4806F0A9FE0221704806F023
:10471000B1FB574806F04EFE1E216E4806F0AAFB7C
:10472000D6F8A010524806F099FE03216A4806F018
:10473000A1FB4F4806F03EFE1E21684806F09AFB9A
:10474000D6F89C104A4806F089FE494806F032FE29
:104750001D21634806F08EFBD6F8AC10444806F0E5
:104760007DFE434806F026FE1E215E4806F082FBD1
:10477000D6F8B0103E4806F071FE3D4806F01AFE2D
:10478000D6F8A830012B00F0EB8705232360FFF754
:1047900015BA06F045FB00287FF75AAB3448404E67
:1047A00006F0A0FF424BC6F8B00003221A60FDF7E6
:1047B0000DFE01226B2322602B6082E7384E96F8B3
:1047C000C930B3FA83F35B0901216B2286F8C93043
:1047D00021602A6075E706F023FB00287FF738ABDD
:1047E00023482F4E06F07EFF01226B23C6F89C0063
:1047F00022602B6065E706F013FB00287FF728ABEB
:104800001B48274E06F06EFF294BC6F8AC0002226B
:10481000CCE706F005FB00287FF71AAB1448204EC2
:1048200006F060FF01226B23C6F8A00022602B6017
:1048300047E71F4A00237320136023602860FFF7B7
:104840005BB923682868FFF7BCB8154E96F840009E
:1048500063E4134AD2F8B8300133072BC8BF0023F2
:10486000C2F8B8300123652023602860FFF7CBB879
:104870000888FF1FC4210100D8210100E8210100A0
:10488000D4D1FF1FF8210100F092FF1F0C2201007C
:10489000B4D1FF1F202201007CD0FF1F3422010071
:1048A00084D0FF1F44220100C892FF1F6022010034
:1048B000EC92FF1F74220100DCD1FF1F882201004F
:1048C0004487FF1F401E0100B8200100DC200100CA
:1048D000801F0100F4200100801C01001421010050
:1048E0003421010054210100B54B93F8C820002A5F
:1048F00000F04086002283F8C820B3E706F090FA63
:1049000000287FF715AAAF48AD4E06F0EBFE08F081
:104910002FFBF76A3063394608F01CFD0028A1D050
:1049200037639FE706F07CFA00287FF701AAA548C5
:10493000A34E06F0D7FE65230122C6F8BC00226014
:104940002B601846FFF75FB806F06AFA00287FF779
:10495000EFA99C4806F0C6FE994A00EB8000430090
:10496000116E1BB28B42A2F8D0307FF77BAFA2F85A
:10497000D01077E706F054FA00287FF7D9A99148BC
:104980008F4E06F0AFFE08F0F3FA8F4908F0F8FBFF
:1049900065230122706122602B601846FFF733B84F
:1049A00006F03EFA00287FF7C3A98648844E06F039
:1049B00099FE08F0DDFA844908F0E2FB6523012244
:1049C000F06122602B601846FFF71DB806F028FA48
:1049D00000287FF7ADA97B48794E06F083FE00EBF7
:1049E0008000430001226520336622602860FFF7C3
:1049F0000AB806F015FA00287FF79AA97148704E98
:104A000006F070FE00EB8000430001226520736613
:104A100022602860FEF7F7BF6C4A1368B3FA83F38D
:104A20005B0901216420136021602860FEF7EBBF61
:104A3000674AF2E70123236006F0F2F9002800F349
:104A40009E85644B1A68042AC4BF02221A6064233C
:104A50002B6023686420FEF7B1BF5F4ADDE75F4A41
:104A6000DBE7574ED6F8A830B3FA83F35B0901228F
:104A70006420C6F8A83022602860FEF7C4BF012376
:104A800057482360FCF770FB564A23681060642285
:104A90002A60DFE7544AC0E7544ABEE7544A554FFC
:104AA0001368002B0CBF012300234FF0010013609B
:104AB000206040F02A860346E9E7FEF711FD2368EF
:104AC0002868FEF77BBF0123236006F0A9F90028C0
:104AD00007DD3C483A4E06F005FE08F049FAC6F8F4
:104AE0009000632028602368FEF76BBF01232360DA
:104AF00006F096F90028F4DD3248314E06F0F2FD5A
:104B0000A6F8C200EDE72E4AD2F8D4300133042BC8
:104B1000C8BF0123C2F8D43001236320236028607A
:104B2000FEF771BF0123236006F07AF90028F3DD58
:104B30002448234E06F0D6FDC6F88C00ECE7204E44
:104B4000F36FB3FA83F35B0901226320F3672260FA
:104B50002860FEF758BF1A4ED6F88430B3FA83F3B4
:104B60005B0901226320C6F8843022602860FEF7CA
:104B70004ABF0123236006F053F90028CCDD114819
:104B80000F4E06F0AFFDC6F8B400C5E70123236061
:104B900006F046F90028A4DD0A48094E06F0A2FDF9
:104BA00008F0E6F9C6F894009BE7054AD2F8803091
:104BB0000133032BC8BF0023C2F88030ACE700BF2D
:104BC00084D0FF1F0888FF1F00007A44C4D1FF1F54
:104BD000DCD1FF1F4487FF1FD4D1FF1F7CD0FF1FF4
:104BE0007093FF1FC892FF1FEC92FF1FF092FF1FF0
:104BF000B4D1FF1F98D1FF1F06F012F900280DDD78
:104C00001748184E06F06EFD08F0B2F9164908F084
:104C1000B7FA01226223306222602B6006F000F9AD
:104C200000280EDD0E480F4E06F05CFD08F0A0F9DE
:104C30000D4908F0A5FA01226223C6F8C4002260DB
:104C40002B6006F0EDF8002840F352840448054E2E
:104C500006F048FD01226223F06622602B6007E027
:104C60000888FF1F84D0FF1F00007A4406F09CF8DC
:104C700006F0D6F805460028F8D1C24806F09AFB9F
:104C8000C04806F097FBBF4806F094FBBD4806F00D
:104C900091FBBC4806F08EFB1521BB4806F0EAF8F4
:104CA000B84806F087FB1421B84806F0E3F8B54889
:104CB00006F080FB1B21B64806F0DCF8B14806F090
:104CC00079FB1321B34806F0D5F8AE4806F072FB25
:104CD000AC4806F06FFBAB4806F06CFB2021AE48F9
:104CE00006F0C8F8F068AD4908F096F907F0EAFC5C
:104CF000009502460B46A34806F0BAFB0221A848DD
:104D000006F0B8F80221A74806F0B4F89D4806F06E
:104D100051FB2121A44806F0ADF830699F4908F005
:104D20007BF907F0CFFC009502460B46954806F04C
:104D30009FFB02219A4806F09DF80221994806F04F
:104D400099F8904806F036FB1F21984806F092F833
:104D5000B06A07F0B7FC022702460B460097894865
:104D600006F086FB0121924806F084F839468D480A
:104D700006F080F8834806F01DFB20218D4806F0E0
:104D800079F8F06A07F09EFC009702460B467D48D2
:104D900006F06EFB0121864806F06CF83946814822
:104DA00006F068F8774806F005FB2321824806F0F4
:104DB00061F8B06C794908F02FF907F083FC009591
:104DC00002460B466F4806F053FB3946744806F01E
:104DD00051F83946734806F04DF86A4806F0EAFA89
:104DE0001F21764806F046F8F06C6C4908F014F97B
:104DF00007F068FC009502460B46624806F038FB57
:104E00003946674806F036F83946664806F032F803
:104E10005C4806F0CFFA1921694806F02BF8F16DCD
:104E2000584806F01BFB3946664806F023F8394619
:104E30005C4806F01FF8534806F0BCFA1821624897
:104E400006F018F8B06E08F093F8604908F0E4F83E
:104E500007F038FC009702460B464A4806F008FB6C
:104E600001215B4806F006F839464E4806F002F884
:104E7000444806F09FFA2B21564805F0FBFFB06925
:104E8000464908F0C9F807F01DFC009502460B469C
:104E90003C4806F0EDFA3946414805F0EBFF39464B
:104EA000404805F0E7FF374806F084FA1F214A48DA
:104EB00005F0E0FFB16D334806F0D0FA39463948C5
:104EC00005F0D8FF2F4806F075FA2021434805F079
:104ED000D1FF716D2B4806F0C1FA3946314805F013
:104EE000C9FF284806F066FA10213D4805F0C2FFC8
:104EF000F16E244806F0B2FA3946294805F0BAFFA7
:104F00003946284805F0B6FF1E4806F053FA13212B
:104F1000344805F0AFFF316F1A4806F09FFA0121BF
:104F2000314805F0A7FF39461E4805F0A3FF154894
:104F300006F040FA10212D4805F09CFF716F1148D2
:104F400006F08CFA3946164805F094FF39461548A4
:104F500005F090FF0B4806F02DFA1421244805F0C7
:104F600089FFB16F074806F079FA01211E4805F064
:104F700081FF39460B4805F07DFF024806F01AFA1A
:104F8000162137E00888FF1FCC240100E42401002B
:104F9000FC240100401E01001825010000007A4495
:104FA0003C1E0100F42801003C25010060250100A1
:104FB0008025010084250100A8250100CC250100E1
:104FC000EC250100082601000C260100CDCCCC3DCB
:104FD000E823010028260100542601007426010060
:104FE00098260100AC260100C0260100C42601005D
:104FF000D8260100BB4805F03DFF306ABA4908F0E9
:105000000BF807F05FFB009502460B46B74806F029
:105010002FFA3946B64805F02DFF3946B54805F058
:1050200029FFB24806F0C6F92421B34805F022FF53
:10503000D6F8C400AC4907F0EFFF07F043FB00953A
:1050400002460B46A94806F013FA3946A84805F06F
:1050500011FF3946A74805F00DFFA44806F0AAF94C
:105060002B21A64805F006FF706B07F02BFB00977D
:1050700002460B469D4806F0FBF90121A04805F0C9
:10508000F9FE39469B4805F0F5FE984806F092F97E
:1050900027219C4805F0EEFED6F8CC00924907F097
:1050A000BBFF07F00FFB00950B4602468F4806F04A
:1050B000DFF939468E4805F0DDFE8C4806F07AF9B6
:1050C00003232360FEF77ABD05F0AAFE002840F313
:1050D0000F8286488C4E06F005FB07F049FF824997
:1050E00008F04EF801226223C6F8CC0022602B6043
:1050F000BEE50022732322602B60FEF705BD834BC3
:105100007C48814E002202211A6005F0B3FE7748E8
:1051100006F050F90B217E4805F0ACFE02217548DF
:1051200005F0A8FE714806F045F9012262232260CD
:105130002B609DE505F074FE002840F3D9816B4893
:10514000714E06F0CFFA07F013FF674908F018F820
:1051500001226223F06022602B6089E505F060FE89
:10516000002840F3C5816148674E06F0BBFA07F09E
:10517000FFFE5D4908F004F80122622330612260DD
:105180002B6075E505F04CFE002840F3B1815748CF
:105190005D4E06F0A7FA07F0EBFE01226223B06233
:1051A00022602B6064E505F03BFE002840F3A081FF
:1051B0004E48554E06F096FA07F0DAFE01226223B9
:1051C000F06222602B6053E505F02AFE002840F3D0
:1051D0008F8146484C4E06F085FA07F0C9FE4249D9
:1051E00007F0CEFF01226223B06422602B603FE50E
:1051F00005F016FE002840F37B813C48424E06F045
:1052000071FA07F0B5FE384907F0BAFF01220346EC
:1052100001464048F3642260FBF75AFE236862228D
:10522000012B2A607EF4CAAC22E505F0F9FD0028C6
:1052300040F35E812D48344E06F054FA0122622379
:10524000F06522602B6013E505F0EAFD002840F3CD
:105250004F8126482C4E06F045FA01226223306722
:1052600022602B6004E505F0DBFD002840F340815F
:105270001E48254E06F036FA01226223706722602E
:105280002B60F5E405F0CCFD002840F33181174890
:105290001D4E06F027FA01226223B06722602B60C0
:1052A000E6E4FCF743FF02211248174E05F0E2FD49
:1052B0000E4806F07FF802210E4805F0DBFD0B4892
:1052C00006F078F802210B4805F0D4FD074806F0F7
:1052D00071F81721104805F0CDFD044806F06AF872
:1052E0001CE700BFF026010000007A440888FF1F79
:1052F0003C1E0100F42801000827010030270100AE
:10530000802501005C27010084D0FF1F6C93FF1FE4
:10531000E81D01007093FF1FD01D010005F080FD06
:10532000002840F3E5809A489A4E06F0DBF900EB3E
:105330008000430001216222B36621602A6097E465
:1053400005F06EFD002840F3D3809148914E06F0A1
:10535000C9F907F00DFE904907F012FF0122622300
:10536000B06122602B6083E405F05AFD002840F311
:10537000BF808748874E06F0B5F901226223706529
:1053800022602B6074E405F04BFD002840F3B080F0
:105390007F48804E06F0A6F907F0EAFD012262235D
:1053A000706322602B6063E410217C4805F062FD8D
:1053B0007748784D05F0FEFFD6F8B830002B12DDA7
:1053C0001821774805F056FDD5F8BC10704806F056
:1053D00045F80221734805F04DFD6D4805F0EAFFE0
:1053E0006B4805F0E7FF1B216F4805F043FD96F879
:1053F000C830012B15BF122114216C486C4805F0F0
:1054000039FD634805F0D6FF1F216A4805F032FDDB
:10541000306B07F057F9022502460B4600955C48B1
:1054200006F026F82946644805F024FD584805F0A2
:10543000C1FF1E21614805F01DFDB6F9D00007F03F
:1054400097FD5F4907F0E8FD07F03CF900950B4632
:1054500002464F4806F00CF801215A4805F00AFDB3
:105460004B4805F0A7FF1321574805F003FD4848B6
:1054700005F0A0FF06232360FEF7A0BB04215348DC
:1054800005F0F8FC94E70B21514805F0F3FC8FE799
:105490000D21504805F0EEFC8AE70D214E4805F03D
:1054A000E9FC85E70C214D4805F0E4FC80E70D217F
:1054B0004B4805F0DFFC7BE70C214A4805F0DAFC9D
:1054C00076E704F095FFD8220021324803F062FE0F
:1054D0002868454AA0F1730001210023B0FA80F04A
:1054E000400911602360FEF70DBB2368FEF704BB83
:1054F00023682868012B7EF4FFAAFEF784BA05F022
:105500008FFC00287EF782AB2148224E06F0EAF895
:1055100061230122A6F8CA0022602B601846FEF71C
:1055200072BA05F07DFC00287EF770AB1848194E62
:1055300006F0D8F807F01CFD2C4907F06DFD61233B
:105540000122706222602B601846FEF75CBA05F0FB
:1055500067FC00287EF75AAB0D480E4E06F0C2F8E5
:1055600007F006FD61230122B06322602B6018461C
:10557000FEF749BA012283F8C820FFF773B904483F
:1055800006F0B0F81A4B02461860FFF75CBA00BF8D
:105590000888FF1F84D0FF1F00007A44501F0100BD
:1055A000641F0100801F0100841F0100A01F010073
:1055B000B41F0100CC1F0100EC1F0100F01F01000F
:1055C000CDCCCC3DE8230100401E0100481F010066
:1055D0003C1F01002C1F01001C1F01000C1F0100BB
:1055E000EC1E0100FC1E01002487FF1F6F12833A8E
:1055F0004487FF1F1C21704805F03CFC6F49D8F818
:10560000940007F009FD07F05DF8009702460B468D
:105610006B4805F02DFF05216A4805F02BFC684812
:1056200005F0C8FED8F88050012D19D11D2166481B
:1056300005F020FC6149D8F8900007F0EDFC07F078
:1056400041F8009502460B465D4805F011FF052123
:105650005C4805F00FFC5A4805F0ACFED8F88050C5
:1056600025F00203012B7EF449AF1C215748584F07
:1056700005F000FCB6F8C210514805F0EFFE03211A
:10568000544805F0F7FB4E4805F094FED6F88050DC
:10569000012D7EF433AF1F214F4805F0EBFBD7F807
:1056A0008C0007F065FC4D4907F0B6FC07F00AF8DE
:1056B000022502460B460095414805F0D9FE2946D1
:1056C000474805F0D7FB3E4805F074FED7F88050F8
:1056D000FEF714BF1E21434805F0CCFB384805F007
:1056E00069FEFEF7DFBE20213F4805F0C3FB3448CA
:1056F00005F060FEFEF7D6BE17213C4805F0BAFB68
:105700002F4805F057FEFEF7CDBE394B0026314637
:105710000B201E6004F018F831460C2004F014F839
:105720003146142004F010F83146152004F00CF82E
:105730003B68FFF7ACB917212E4805F09BFBD6F864
:10574000D430012B25D0022B1DD0032B27D0042BC6
:105750007EF4D7AE28491A48FCF7D6FCFEF7D1BE36
:105760002021264805F086FB95F8C9302BB924493D
:105770001348FCF7C9FCFFF708B822491048FCF7AA
:10578000C3FCFFF702B820490D48FCF7BDFCFEF74B
:10579000B8BE1E490A48FCF7B7FCFEF7B2BE1C496A
:1057A0000748FCF7B1FCFEF7ACBE094EFFF760BA44
:1057B000074EFEF786BF00BFC4230100CDCCCC3D11
:1057C0000888FF1FE4230100EC2301000C240100E2
:1057D00084D0FF1F2C240100302401006F12833A73
:1057E0005024010004230100242301004823010068
:1057F0006893FF1F54240100B024010074210100AC
:1058000098210100A4210100842401006C240100DE
:105810009C24010010B5124C124A2368101D12F886
:10582000011F904241EA0323F9D10F4A236003F19B
:10583000004313600D4BD3F88030022B08D00C4B83
:105840001B68012B00D010BDBDE81040FCF746BC22
:105850001068084C07F08CFB2060FDF7A1F8EEE71C
:10586000CCD1FF1FC3CFFF1F6093FF1F84D0FF1F4A
:10587000D4D1FF1FC0D1FF1F70B51E4A1E4C507AF5
:10588000937A2168D27A1D4E1D4D43EA002342EAE5
:105890000323012933602B6019D01846194BD3F824
:1058A0008030A0F50000022B28601BD02368012B5C
:1058B00000D070BD144805F07DFD2968124805F040
:1058C000CDFD03211148BDE8704005F0D3BA0E4864
:1058D00005F070FD0023102229680B4805F07EFDBD
:1058E0002868DBE707F044FB094B1860FDF758F820
:1058F000DCE700BFBCCFFF1FD4D1FF1FCCD1FF1FFF
:105900006093FF1F84D0FF1F0888FF1FF01A01005B
:10591000C0D1FF1F08B5134B187BDB7AFF2813D0CB
:1059200040B243EA0020104B104AD3F8803000EB1D
:10593000800000EB80008000022B10600BD00C4B2D
:105940001B68012B03D008BDFF2BE9D1FBE7BDE8A5
:105950000840FCF7C3BB07F00BFB064B1860FDF7D4
:105960001FF8ECE7BCCFFF1F84D0FF1F6093FF1F21
:10597000D4D1FF1FC0D1FF1FF0B57A4D7A4C7B48C0
:1059800083B0294602F0ECFBD4F88030022B20D003
:105990002B68774CB3F5407F08D22268714975486F
:1059A000012A18BF0022FBF777FC2B68724A23F00C
:1059B00060431A44EE2A07D822686A496D48012AD2
:1059C00018BF0022FBF7F8FB2368012B4BD003B074
:1059D000F0BDD4F8D4202B68012A7BD0022A13D042
:1059E000032A1FD0042AD4D1D90064491A4648BFDB
:1059F000C3F311228A42CCD12A7A5A4C002AC8D148
:105A0000FFF788FF2368C4E740F2C132934203D016
:105A100040F2C2329342BCD1FFF72EFFD4F8D4201B
:105A20002B68DDE740F22252934200F08D8040F275
:105A30002352934273D040F221529342A9D1504E47
:105A4000D4F8804032797179F778B0784D4E01EB17
:105A5000022202EB074202EB0060022C3060424E51
:105A600075D0434CA2E7484B48481B6801930A2273
:105A70000023019905F0B2FC2A683A4B002ADB7931
:105A800046DB4349434808F01BFC424808F058FCF9
:105A90000146404805F0EEF92C68324B14F0804482
:105AA00027D1DB798BB12B193B491A7A394808F099
:105AB00007FC384808F044FC0146364805F0DAF99E
:105AC0000134EB79E4B2A342EDD8304805F072FC22
:105AD00003B0F0BD40F2C13293422FD040F2C23247
