:1000000000800020BD010000698A0000218A0000F4
:10001000218A0000218A0000218A0000218A000034
:10002000218A0000218A0000218A0000698A0000DC
:10003000698A0000218A000031AB000035AC000065
:10004000698A0000698A0000698A0000698A0000E4
:10005000698A0000698A0000698A0000698A0000D4
:10006000698A0000698A0000698A0000698A0000C4
:10007000698A0000698A0000698A0000698A0000B4
:10008000698A0000698A0000698A0000698A0000A4
:10009000698A0000698A0000698A0000698A000094
:1000A000698A0000698A0000698A0000698A000084
:1000B000698A0000517F00005D7F0000617F0000C1
:1000C0006D7F0000717F0000757F0000698A00006D
:1000D000698A0000698A0000698A0000698A000054
:1000E000698A0000698A0000698A0000698A000044
:1000F000698A00003DB30000698A0000099700008A
:10010000698A0000D5980000698A0000698A0000A9
:10011000698A0000698A0000698A0000698A000013
:10012000698A0000698A0000698A0000698A000003
:10013000698A0000698A0000698A0000698A0000F3
:10014000698A0000698A0000698A0000698A0000E3
:10015000698A0000698A0000698A0000698A0000D3
:10016000698A0000659B0000698A0000698A0000B6
:10017000698A0000698A0000698A0000698A0000B3
:10018000698A0000698A0000698A0000698A0000A3
:10019000698A0000698A0000698A0000698A000093
:1001A000698A0000698A0000698A0000698A000083
:1001B000698A0000698A0000698A0000564B4CF287
:1001C000205210B51A804DF628121A8000BF00BFC9
:1001D00008F04EFC514B4FF010621A60504A9A6082
:1001E000504ADA60504A136813F4807304D14F49BF
:1001F0000B604FF4A85313604D4B1A78110703D5C9
:100200001A7842F008021A704A4B4B492A221A7097
:100210004A4A4B4B8B4204D252F8040F43F8040B6A
:10022000F8E7484B484900228B4202D243F8042B9E
:10023000FAE74649464A002352F8230041F82300D2
:1002400001336F2BF8D1434B434A802103F8011B44
:100250009342FBD1414B3D4A1A60414B8A221A70AE
:10026000A3F5805324225A70A0221A709A7992071B
:10027000FCD59A79D406FCD43A4A937903F00C035E
:10028000082B384BF9D103221A7140225A719A79FE
:100290009006FCD5334A9179324B4906FBD5324A58
:1002A000324911600221516020221A709A7902F0BD
:1002B0000C020C2AFAD12E4B2E4A1A602E4B2F4AD2
:1002C0001A6000225A60072243F8042C2C4AC3F813
:1002D0000C2D62B608F082FE144B1B68DA0705D5B8
:1002E000284808F05FFC284B284A1A60284B1B78E6
:1002F0005B0609D5244C254B22689A4204D121483B
:1003000008F050FC002323600CF000FB08F0B6FB63
:100310000AF0D4FEFEE700BF0E2005403080044006
:10032000823F04000100002B10D0034014D0034092
:1003300002D0074000E007403092FF1FE426010092
:100340002087FF1F3092FF1F14D6FF1F0082FF1F60
:100350000000000000E400E05FE400E008ED00E0E1
:100360000050064000400640448004400000030165
:1003700004800440C010050014E000E0FF76010096
:100380000000202009ED89601CE00340A5C3945AB9
:1003900000F00740FFFFFFFFFFFFFFFFFFFFFFFF32
:1003A000FFFFFFFFFFFFFFFFFFFFFFFFFFFFFFFF5D
:1003B000FFFFFFFFFFFFFFFFFFFFFFFFFFFFFFFF4D
:1003C000FFFFFFFFFFFFFFFFFFFFFFFFFFFFFFFF3D
:1003D000FFFFFFFFFFFFFFFFFFFFFFFFFFFFFFFF2D
:1003E000FFFFFFFFFFFFFFFFFFFFFFFFFFFFFFFF1D
:1003F000FFFFFFFFFFFFFFFFFFFFFFFFFFFFFFFF0D
:10040000FFFFFFFFFFFFFFFFFFFFFFFFDEF9FFFF23
:1004100010B5054C237833B9044B13B10448AFF33E
:1004200000800123237010BD3092FF1F00000000E8
:10043000E0260100084B10B51BB108490848AFF38E
:1004400000800848036803B910BD074B002BFBD0A0
:10045000BDE81040184700BF000000003492FF1FA5
:10046000E02601003092FF1F00000000F0B400F110
:100470003006174F00243146031F00F1640243F891
:10048000044FB34241F8047F4FF0000542F8044F97
:10049000F5D100230F4A104CC0F89C5047F2305160
:1004A000C0F8A050C0F8A450C0F8A850C0F8B85088
:1004B000C0F8B040C0F8AC20C0F8B42080F8C43018
:1004C00080F8C53080F8DC30C0F8F010F0BC704720
:1004D0000000A040000048430000C8C238B5CB7BF4
:1004E000FD2B0C46054632D0087A0BF0A9FF4FF0E1
:1004F0007C510BF0F9FF1D490BF0ECFEC5F8A00094
:10050000207BEF2809D90023C5F8A430607BEF28B1
:1005100011D90023C5F8A83038BD0BF091FF4FF07A
:100520007C510BF0E1FF11490BF0D4FEC5F8A4009B
:10053000607BEF28EDD80BF083FF4FF07C510BF080
:10054000D3FF0A490BF0C6FEC5F8A80038BD887A6B
:10055000FD28E1D00BF074FF4FF07C510BF0C4FF8D
:1005600003490BF0B7FEC5F8A00038BD00002C42CF
:100570000000204290F8CC00704700BF90F8C800FF
:10058000704700BF90F8D000704700BF90F8D400CB
:10059000704700BF0D2994BF50F82100002070471C
:1005A0002DE9F0410B4E8046041F00F1300754F84E
:1005B000045F314628460CF035F930B1D8F8BC104C
:1005C00028460CF04DF900B12E46BC42EFD1304622
:1005D000BDE8F081000020412DE9F041D0F8BC7069
:1005E0004FF00008041F00F1300654F8045F39464C
:1005F00028460CF035F9084948B128460CF012F9A4
:10060000414620B128460CF02BF900B1A846B4426F
:10061000EBD14046BDE8F0810000A0402DE9F04755
:10062000D0F8BC7082464FF00009041F00F130067C
:100630004FF0000854F8045F394628460CF010F9D2
:100640000C4950B128460CF0EDF830B14846294627
:100650000BF042FE08F101088146B442EAD1CAF823
:10066000E08040460BF0ECFE014648460BF0F0FF00
:10067000BDE8F0870000A040D0F8E000704700BF60
:1006800038B5D0F8D83053B9D0F8A440D0F8A0503D
:10069000214628460CF0C6F830B1204638BD273335
:1006A00050F82340204638BD2C46204638BD00BFB8
:1006B000D0F8D8302DE9F041002B7CD1D0F8A460DF
:1006C000D0F8A0500446314628460BF005FED4F879
:1006D000A870394680460BF0FFFD7E490BF0B8FF4D
:1006E0004FF07C5104460CF0BBF8002861D04FF06D
:1006F0007C5128460CF0B4F84FF07C51002860D1B2
:1007000028460CF08FF838B14FF07C5130460CF091
:10071000A7F8002840F0A7804FF07C5128460CF045
:100720009FF8002860D14FF07C5128460CF098F8D3
:10073000002840F0A1804FF07C5128460CF090F842
:1007400000286CD14FF07C5128460CF06BF84FF02C
:100750007C5110B330460CF083F838B14FF07C5127
:1007600038460CF05FF8002840F0B0804FF07C5124
:1007700030460CF057F8002861D04FF07C513846D5
:100780000CF06EF8002840F0A38038464FF07C5102
:100790000CF048F868B1504C10E028460CF042F8D4
:1007A0000028E3D128464FF07C510CF03BF800289C
:1007B00045D1BDE8F081273350F823402046BDE8FD
:1007C000F08130460CF04CF84FF07C5100283ED0C0
:1007D00038460CF045F80028F0D14FF07C512846FF
:1007E0000CF020F8002859D14FF07C5130460CF025
:1007F00019F8002840D04FF07C5138460CF030F802
:10080000002841D14FF07C5130460CF029F868B1F6
:100810004FF07C5138460CF005F800284FD14FF0CE
:100820007C5130460BF0FEFF00288BD04FF07C51FE
:1008300038460BF0F7FF002884D02C46BEE7304640
:100840004FF07C510BF0EEFF0028B2D09DE7284618
:100850000BF0E8FF0028C7D04FF07C5130460BF07A
:10086000FFFF0028C0D04FF07C5138460BF0F8FF56
:1008700000283FF451AF18E04FF07C5130460BF0A8
:10088000EFFF0028CBD0C3E7394628460BF024FD04
:100890004FF07C510BF028FE04468FE74FF07C515F
:1008A00038460BF0DDFF00289ED0394630460BF06D
:1008B00013FD4FF07C510BF017FE04467EE74046D7
:1008C0004FF07C510BF010FE044677E7344675E795
:1008D0003C4673E7000040400000A0C2D0F8D8209A
:1008E00070B5002A34D10446FFF7E2FE4FF07C5188
:1008F0000BF0B6FF58B3D4F8A0604FF07C513046EF
:100900000BF0AEFFD4F8A45038BBD4F8A8404FF099
:100910007C5128460BF0A4FF48B1294630460BF025
:100920009FFF20B1214628460BF07CFF28BB4FF0EB
:100930007C5120460BF094FF48B1284621460BF02D
:100940008FFF20B1304621460BF08AFF18B970BDE9
:10095000273250F82240204670BD304629460BF021
:1009600061FFD4F8A8400028D1D0304621460BF0D2
:1009700059FF0028CBD03446EDE72C46EBE700BF0B
:100980002DE9F047814684B01546032900F27B81AA
:10099000DFE811F0FF00BE007D0004004FF0000A08
:1009A00080F8ECA0937A507A1B0103EB101000F54D
:1009B0007A700BF045FDB6490BF096FDD9F8004072
:1009C000C9F830004846FFF789FFD9F8AC10054652
:1009D0000BF028FF08B1C9F8AC50D9F8D830002B7B
:1009E00040F02381D9F8A060D9F8A45030462946B8
:1009F0000BF018FF002800F00C81D9F8B010284641
:100A00000BF02EFF002840F00D8109F13406C84696
:100A100009F168050D2701E058F8044F31682046B8
:100A20000BF000FF30B1D9F8BC1020460BF00EFFE0
:100A300000B13460296820460BF012FF0436954956
:100A400020B120460BF00CFF00B12C60013F05F1F6
:100A50000405E1D1BAF1000F00F0F6808E4CD9F810
:100A6000E81023680193019AD9F8F030521A9A429B
:100A700080F0F38022680292029A0B449B1A41F2A2
:100A80008732934240F20A8104B0BDE8F0874FF00C
:100A9000000A80F8ECA0937A507A1B0103EB101047
:100AA00000F57A700BF0CCFC79490BF01DFDC9F80C
:100AB00020002B7B687B1B1103EB001000F57A7084
:100AC0000BF0BEFC72490BF00FFDC9F828002B7B20
:100AD000EA7A1B0203F47063981800F57A700BF041
:100AE000AFFC6B490BF000FDC9F82400EB7BAA7B3F
:100AF0001B0203F47063981800F57A700BF0A0FCE9
:100B000063490BF0F1FCD9F80040C9F82C0059E713
:100B10004FF0000A80F8ECA0937A507A1B0103EBA7
:100B2000101000F57A700BF08BFC59490BF0DCFCCF
:100B3000C9F810002B7B687B1B1103EB001000F53C
:100B40007A700BF07DFC52490BF0CEFCC9F818000E
:100B50002B7BEA7A1B0203F47063981800F57A7015
:100B60000BF06EFC4A490BF0BFFCC9F81400EB7B9C
:100B7000AA7B1B0203F47063981800F57A700BF0DF
:100B80005FFC43490BF0B0FCD9F80040C9F81C00E9
:100B900018E74FF0000A80F8ECA0937A507A1B0116
:100BA00003EB101000F57A700BF04AFC38490BF09B
:100BB0009BFCC9F800002B7B0446687B1B1103EBF0
:100BC000001000F57A700BF03BFC31490BF08CFC07
:100BD000C9F808002B7BEA7A1B0203F470639818AB
:100BE00000F57A700BF02CFC29490BF07DFCC9F85C
:100BF0000400EB7BAA7B1B0203F47063981800F5DA
:100C00007A700BF01DFC22490BF06EFCC9F80C0049
:100C1000D8E63146D9F8B0000BF004FE00283FF4C6
:100C2000F4AE3546C9F8B050EFE609EB8303D9F8C6
:100C3000B010D3F89C5028460BF012FE00283FF469
:100C4000E4AEC9F8B050E0E6134B1B680093009B7C
:100C5000C9F8E83004B0BDE8F0870020A9F104032A
:100C600009F11C0143F8040F8B424FF00002F9D147
:100C7000C9F89C20C9F8A020C9F8A420C9F8A82068
:100C800004B0BDE8F08790F8ECA004689AE600BFD5
:100C90006F12833A0000A0401CD3FF1F02211348AB
:100CA00009F0E0FD12480AF073F80621114809F036
:100CB000D9FD3B460A2299F8DC100D480AF078F875
:100CC00019210D4809F0CEFD23680393D9F8E820D7
:100CD000D9F8F030039906481A44511A3B460A22C3
:100CE0000AF066F802480AF053F8CDE6FC1E01004F
:100CF000D487FF1FD80A0100E00A01002DE9F8435C
:100D00000026D0F8BC80C0F89C608146041F00F12A
:100D1000300754F8045F414628460BF0A1FD09490D
:100D200050B128460BF07EFD30B1304629460BF01D
:100D3000D3FA0646C9F89C00BC42EAD13046BDE869
:100D4000F88300BF0000A04002299ABF283150F864
:100D500021000020704700BF3E2998BF80F8DC10BA
:100D6000704700BF90F8C400704700BF90F8C500FE
:100D7000704700BFC0F8D810704700BF80F8C4109B
:100D8000704700BFC0F8C010704700BF80F8C510A2
:100D9000704700BF30B50F4CC0F8BC1083B0204680
:100DA0000D4609F0F5FF204609F0F2FF28460AF04B
:100DB000F1FE022502460B46009520460AF040F857
:100DC000204609F0E5FF204603B0BDE8304009F0B9
:100DD000DFBF00BFD487FF1F70B500F57055064612
:100DE000343500F128042046F434FFF73FFBAC42D1
:100DF000F9D106F58E75012428460021FFF7BEFFC4
:100E0000214628460134FFF7A7FF3F2C05F1F405E2
:100E1000F2D143F63C4400250548064A064B3555B9
:100E2000002130617161B261F361304670BD00BF75
:100E300000007A44000048430000C8C270B500F5C5
:100E40008E74012500260DE0012620460021FFF7C3
:100E50009DFF294620460135FFF77EFF3F2D04F117
:100E6000F4040ED02046FFF77DFF0028EDD0204689
:100E7000FFF77CFF06460028E6D120463146FFF703
:100E80007DFF304670BD00BFF8B500F571570023F7
:100E900000F570563B60343600F58E7402E0F43491
:100EA000B4420DD02046FFF75DFF0028F7D0204662
:100EB0003D68FFF7E1FBF4342844B4423860F1D1D7
:100EC0003868F8BD012AF8B50E4604460D7827D0DB
:100ED000A5F10B03302B11D9F42000FB0544283475
:100EE00020460121FFF74AFF20460121FFF74EFF70
:100EF00031462046BDE8F840FFF7F0BA28460BF02F
:100F00009FFA4FF07C510BF0EFFA22490BF0E2F917
:100F10000BF0B0FCF42303FB004000F12804DFE7F2
:100F20001D48174609F034FF29461B4809F080FF89
:100F300003211A4809F096FCA5F10B03302B0CD8BD
:100F400028460BF07DFA4FF07C510BF0CDFA114999
:100F50000BF0C0F90BF08EFC0546F42303FB0544AF
:100F6000283420463946FFF709FF39462046FFF767
:100F70000DFF31462046FFF7B1FA074809F008FF98
:100F80002946054809F054FF0B210548BDE8F84003
:100F900009F068BC00007041D487FF1FFC0A010003
:100FA000000B01000B68A3F5D8732DE9F0413E2B2F
:100FB00040D8DFE813F0D900D500D100CD00C9003A
:100FC000C500C100BD00B900B500B100AD00A90069
:100FD000A500A1009D009900950091008D00890059
:100FE000850081007D006D0069006500610075006D
:100FF000710079005D0041003901350131012D0199
:10100000290125013F0021011D0119013F001501A2
:1010100011010D013F000901050101013F00FD0023
:10102000F900F5003F00F100ED00E9003F00E500A8
:10103000E100DD00BDE8F0814FF000080925012A3C
:10104000174604460E4600F0F380F42000FB0544EA
:10105000283420460121FFF791FE20460121FFF7A9
:1010600095FE324641462046BDE8F041FFF788BC78
:101070004FF003080825E2E74FF003080725DEE7F5
:101080004FF002080725DAE74FF001080725D6E7F9
:101090004FF000080725D2E74FF001080825CEE7FA
:1010A0004FF000080825CAE74FF002080825C6E7F8
:1010B0004FF003080625C2E74FF002080625BEE7F9
:1010C0004FF001080625BAE74FF000080625B6E7FD
:1010D0004FF003080525B2E74FF002080525AEE7FB
:1010E0004FF001080525AAE74FF000080525A6E7FF
:1010F0004FF003080425A2E74FF0020804259EE7FD
:101100004FF0010804259AE74FF00008042596E700
:101110004FF00308454692E74FF0020803258EE79B
:101120004FF0010803258AE74FF00008032586E702
:101130004FF00308022582E74FF0020845467EE79C
:101140004FF0010802257AE74FF00008022576E704
:101150004FF00308012572E74FF0020801256EE702
:101160004FF0010845466AE74FF00008012566E7A1
:101170004FF00208102562E74FF0010810255EE7E6
:101180004FF0000810255AE74FF002080F2556E7E8
:101190004FF001080F2552E74FF000080F254EE7EA
:1011A0004FF002080E254AE74FF001080E2546E7EA
:1011B0004FF000080E2542E74FF002080D253EE7EC
:1011C0004FF001080D253AE74FF000080D2536E7EE
:1011D0004FF002080C2532E74FF001080C252EE7EE
:1011E0004FF000080C252AE74FF002080B2526E7F0
:1011F0004FF001080B2522E74FF000080B251EE7F2
:101200004FF002080A251AE74FF001080A2516E7F1
:101210004FF000080A2512E74FF0030809250EE7F2
:101220004FF0020809250AE74FF00108092506E7F3
:10123000094809F0ADFD2946074809F0F9FD39468E
:10124000064809F00FFB4146034809F0F1FD02484A
:1012500009F09EFDF9E600BFD487FF1F0C0B0100CB
:101260002DE9F043002383B00646036000F58E7439
:10127000012504E001353F2D04F1F40466D0204639
:10128000FFF770FD0028F5D04E4800F0F7FC294626
:101290004D4800F0F3FC2046FFF730FD0AF07AFCE1
:1012A00002460B46494800F0E9FC2046FFF778F972
:1012B00080462046FFF790F9074640460AF06AFC50
:1012C0008046384689460AF065FC42464B46CDE9E1
:1012D00000013F4800F0D2FC00212046FFF734FD1A
:1012E000012180462046FFF72FFD074640460AF0C1
:1012F00051FC8046384689460AF04CFC42464B4633
:10130000CDE90001334800F0B9FC2046FFF7F6FCB8
:10131000014630680AF0E0FF30602046FFF7DEFA51
:10132000B1690BF07FFA002833D12046FFF7A8F906
:10133000F1690BF095FA00289CD02046FFF7A0F940
:1013400001353F2DF06104F1F40498D170680BF081
:1013500077F8014630680BF07BF97169306004461C
:101360000BF07EFA00B17461316920460BF05AFA35
:1013700000B134610B2007F0ADFD43F63C43F35C54
:1013800060B99BB143F63C430122F25403B0BDE87F
:10139000F0832046FFF7A2FAB061C6E753B943F6DF
:1013A0003C430022F25403B0BDE8F0830A4800F049
:1013B00093FCE7E7094800F079FC43F63C43002240
:1013C000F254F0E7A8120100100B01004C0B0100D1
:1013D000600B01008C0B0100A80B0100E00B010069
:1013E00070B5114B836000F570550646343500F535
:1013F0008E7402E0F434AC4213D02046FFF7B2FC06
:101400000028F7D02046FFF7CBF8B1680BF00AFAB6
:101410000028EFD02046FFF7C3F8F434AC42B060A8
:10142000EBD1B06870BD00BF0000A04070B50023D4
:1014300000F570550646C360343500F58E7402E041
:10144000F434AC4213D02046FFF78CFC0028F7D0D0
:101450002046FFF7C1F8F1680BF002FA0028EFD040
:101460002046FFF7B9F8F434AC42F060EBD1F068F5
:1014700070BD00BF0068704743F63843C0587047DE
:10148000416070472DE9F04100F5705588461746D8
:101490001E46343500F58E7402E0F434AC4213D0AD
:1014A0002046FFF75FFC0028F7D020464146FFF7B3
:1014B00061FC20463946FFF76DFC20463146F43486
:1014C000FFF760FCAC42EBD1BDE8F0812DE9F843B9
:1014D00043F6384300F570550027C7502E462A4A78
:1014E0002A4B426280464FF0000903623435383699
:1014F00000F58E7402E0F434A54213D02046FFF7C5
:1015000031FC0028F7D03368013333602046FFF701
:10151000CFF81F490BF0A4F988B9F434A54207F1BC
:101520000107EBD143F6384358F80300C01B0AF01B
:1015300087FF014648460BF08BF8BDE8F88320464C
:10154000FFF7B6F8014648460AF0C6FE8146204637
:10155000FFF796F8D8F820100BF082F970B9204602
:10156000FFF7BCF9D8F824100BF05CF90028C2D0C2
:101570002046FFF7B3F9C8F82400BCE72046FFF780
:101580007FF8C8F82000EAE700C0794400C079C4B9
:1015900000008CC2006A7047406A7047F8B500F5D9
:1015A000705507460026343500F58E7402E0F43499
:1015B000AC420FD02046FFF7D5FB0028F7D02046DD
:1015C000FFF72CF8014630460AF086FEF434AC42B0
:1015D0000646EFD143F63843F8580AF031FF01468A
:1015E00030460BF035F8F8BD2DE9F04F06468FB0C8
:1015F00083488B4600F0EAFA814800F0E7FA804819
:1016000000F0E4FA43F638433046F2580D92FFF703
:101610003BFC73680C93074630680AF0BBFA8046BF
:1016200030468946FFF7BAFF82463046B468F5680F
:10163000FFF74CFF0AF0AEFACDE90A012146284631
:101640000AF048FE6F490AF04FFF0AF0A3FACDE90D
:10165000080128460AF09EFACDE9060120460AF064
:1016600099FACDE9040150460AF094FA0D9A0C9BC0
:10167000CDE90201CDE90089114663483A4600F000
:10168000A5FA5F4800F0A2FA06F58E764FF0010940
:101690004FF0000A07E009F10109B9F13F0F06F127
:1016A000F40600F0A5803046FFF75CFB0028F2D07E
:1016B0003046FEF75FFF3046FEF760FF3046FEF72C
:1016C00061FF3046FEF762FF0821504809F0CAF872
:1016D00049464F4809F0ACFBB9F1090F40F38B8044
:1016E00002214C4809F0BEF83046FFF707FB0AF02C
:1016F00051FA5FFA8BF802460B46CDF80080444859
:1017000009F09EFB0121444809F0ACF8554600243D
:1017100020E00621414809F0A5F829463C4809F097
:1017200087FB02213E4809F09DF821463046FEF72E
:1017300031FF0AF02FFACDF8008002460B463448FC
:1017400009F07EFB01340121334809F08BF80D2CA0
:1017500009D03D46092D05F10107DADC01213148A8
:1017600009F080F8D5E72A4809F012FB09212E4834
:1017700009F078F800213046FFF7E6FA0AF00AFA95
:10178000022402460B460094214809F059FB0A2125
:10179000264809F067F801213046FFF7D5FA0AF02C
:1017A000F9F9009402460B46194809F049FB0A2151
:1017B0001F4809F057F821463046FFF7C5FA0AF0EE
:1017C000E9F9009402460B46114809F039FB012162
:1017D000184809F047F809F101090D4809F0D8FA4D
:1017E000B9F13F0F0AF10D0A06F1F4067FF45BAF81
:1017F0000FB0BDE8F08F01210A4809F033F86FE718
:10180000A812010000007A44900E0100300F010080
:10181000D487FF1FFC1E01003C0F0100400F010098
:101820002411010034110100480F0100540F010080
:10183000600F01006C0F01002DE9F04F85B000F53D
:101840008E758A4603929B462E464FF0010806E0AD
:1018500008F10108B8F13F0F06F1F4067BD03046DD
:10186000FFF780FA0028F3D000230A2251467E4871
:1018700009F09EFA01217D4808F0F4FF03980AF070
:1018800089F900230246009377480B4609F0D8FAFD
:101890000121764808F0E6FF5946734809F0C8FA76
:1018A0000121724808F0DEFF41466F4809F0C0FA96
:1018B00001216E4808F0D6FF00244FF002092146AE
:1018C0003046FEF767FE0AF065F9CDF80090024653
:1018D0000B46654809F0B4FA01340121634808F069
:1018E000C1FF082C4FF00207E9D100213046FFF775
:1018F0002BFA0AF04FF9009702460B465A4809F0B6
:101900009FFA0121594808F0ADFF01213046FFF749
:101910001BFA0AF03FF9009702460B46524809F0BD
:101920008FFA0121514808F09DFF39463046FFF7F4
:101930000BFA0AF02FF9009702460B464A4809F0C5
:101940007FFA08F10108484809F022FAB8F13F0F80
:1019500006F1F40683D14FF001084FF0000906E0CC
:1019600008F10108B8F13F0F05F1F40579D02846D8
:10197000FFF7F8F90028F3D000230A2251463C482B
:1019800009F016FA0121394807F0BAFD03980AF068
:1019900001F9CDF8009002460B46354809F050FA9F
:1019A0000121324807F0ACFD5946314809F040FAB0
:1019B00001212E4807F0A4FD41462D4809F038FAD0
:1019C00001212A4807F09CFD0024022721462846D1
:1019D000FEF7E0FD0AF0DEF8009702460B462448C9
:1019E00009F02EFA01340121204807F089FD0D2C61
:1019F0004FF00206EAD100212846FFF7A5F90AF0C8
:101A0000C9F8009602460B46194809F019FA012157
:101A1000164807F075FD01212846FFF795F90AF0F1
:101A2000B9F8009602460B46114809F009FA01215F
:101A30000E4807F065FD31462846FFF785F90AF0A4
:101A4000A9F8009602460B46094809F0F9F908F191
:101A50000108074809F09CF9B8F13F0F05F1F405BA
:101A600085D105B0BDE8F08FD487FF1F0C0B0100B6
:101A7000C487FF1F014B1870704700BF2087FF1FEE
:101A80000278002A00F0908070B5034682B00D46BF
:101A9000252A2AD158785C1C08B325282FD0732812
:101AA00031D0642824D0692822D066284FD07A28E3
:101AB00059D0782835D058282FD062283ED04228D7
:101AC00038D06C2814D0632812D0742857D05428EA
:101AD0005FD008F04BFF6278631C002AD8D13448ED
:101AE00002B0BDE8704009F053B918781C46F0E721
:101AF0002B1D29682E481D4609F09AF9EBE7104680
:101B000008F034FFE7E72E6830460BF0F9FC014699
:101B10003046043508F0A6FEDDE70221254808F02E
:101B2000A1FE2E1D2968224800231022354609F007
:101B30003FF9D0E70221204808F094FE2E1D2968C5
:101B40001B4800230222354609F032F9C3E7073566
:101B500025F007050321D5E9002315480091083534
:101B600009F06EF9B7E7073525F007050021D5E93B
:101B700000230F480091083509F062F9ABE72968A6
:101B800001290EBF0D480E480121043508F06AFEF8
:101B9000A1E72B68012B07BF04210A480A48052149
:101BA000043508F05FFE96E7014809F0F1B800BF80
:101BB000D487FF1F700F0100740F0100780F010020
:101BC0007C0F0100800F0100880F01000FB400B5E9
:101BD00083B004A951F8040B0191FFF751FF03B042
:101BE0005DF804EB04B0704770B51B4B1B4C1B68D1
:101BF00082B00D460193019B2360194604460023E1
:101C0000164617480A2209F0D3F80321154808F0B0
:101C100029FE032C07D8DFE804F01A15100205216D
:101C2000114808F01FFE0221104808F01BFE314643
:101C30002846FFF725FF02B070BD07210C4808F0C9
:101C400011FEF0E704210B4808F00CFEEBE705213C
:101C5000094808F007FEE6E71CD3FF1F4C92FF1F60
:101C6000D487FF1F900F0100AC0F01002411010069
:101C7000A40F01009C0F0100940F01000FB400B5E8
:101C8000094B187883B020B103B05DF804EB04B0C1
:101C9000704705AB1A4604990193FFF7A5FF03B0FF
:101CA0005DF804EB04B070472087FF1F0FB4094BA9
:101CB00000B51B78012B83B004D903B05DF804EBA9
:101CC00004B0704705AB1A46049901930120FFF751
:101CD0008BFFF2E72087FF1F0FB40B4B00B51B787B
:101CE000032B83B004D903B05DF804EB04B0704754
:101CF00005AB1A46049901930320FFF775FF03B063
:101D00005DF804EB04B070472087FF1F30B4074D27
:101D1000074C084900232B702360036543658365E6
:101D200080F85C300B6030BC704700BF5892FF1FDA
:101D30005492FF1F5092FF1F0A4A0B49D06D936DBA
:101D400003FB00F34FF47A7000FB03F0642310B53B
:101D50000B600AF075FB0549054C0AF079FC206020
:101D600010BD00BF18D0FF1F3487FF1FE4388E3E20
:101D700044D1FF1F10B5074C204609F009F8064B67
:101D80002046196809F054F803210448BDE81040C2
:101D900008F068BDD487FF1F0093FF1FB40F010038
:101DA00038B5044608460D460BF0AAFB23680246E8
:101DB00029465B68204698470546204608F0E8FF1C
:101DC000284438BD2DE9F8434848494D494F4A4C0D
:101DD000FFF7FCFE494BDFF850E14949494A4A48C0
:101DE0005D601226494D1E70DF600026484F1C6161
:101DF000C3F818E0474C59614FF00C0E46495A623F
:101E00009862464A4648DD621E63464D5F6340F66F
:101E10001C460A279C63C3F854E041F20404DFF82F
:101E20000CE19964DA64022101221862C3F8C450FB
:101E300000204FF07C55DE661F6764264FF49677CE
:101E40005C67C3F81CE03224C3F83CE04FF05A0E44
:101E5000597059721A729A6583F840009F661F661E
:101E60005C665D64DE654FF47A78C3F878E0DFF88D
:101E7000C0C0D867C3F88010C3F8D420C3F884006A
:101E8000C3F89C40C3F8AC40DFF8A8E0C3F8A80052
:101E900044F62069C3F8B420C3F8B810FF2741F214
:101EA0008831052483F8C8204FF4FA7083F8C920DC
:101EB00040F2D662C3F8BC601D65C3F8A080C3F8C9
:101EC00090C0C3F894E0C3F88C90C3F8B070A3F846
:101ED000C240A3F8CA00C3F89810A3F8C010A3F832
:101EE0008820A3F88A20BDE8F88300BFB80F01005E
:101EF00020A10700666686400000404018D0FF1F02
:101F000033338340CDCCCC3D00008242000020C161
:101F1000000020420000A0409A9979400AD7233D52
:101F2000333373409A99993ECDCC4C40CDCC4C3E46
:101F30000000684200C02044F0B54FF47A6087B0DA
:101F400006F0FEFF00210F2006F0D2FF00210E2038
:101F500006F0CEFF0021112006F0CAFF002110205C
:101F600006F0C6FF0021122006F0C2FF0021132058
:101F700006F0BEFF01210B2006F0BAFF00210B2066
:101F800006F0A2FF01210C2006F0B2FF00210C2078
:101F900006F09AFF0121142006F0AAFF0021142068
:101FA00006F092FF0121152006F0A2FF0021152066
:101FB00006F08AFF0121162006F09AFF0021162064
:101FC00006F082FF0121172006F092FF0021172062
:101FD00006F07AFF0121052006F08AFF0021052086
:101FE00006F072FF0121062006F082FF934C944D0B
:101FF0000021062006F068FF01210D2006F078FF81
:1020000020880AF019FA0146162006F0DBFE208827
:102010000AF012FA0146172006F0D4FE20880AF0D2
:102020000BFA0146052006F0CDFE20880AF004FADE
:1020300000240146062006F0C5FE00942346814A8E
:102040008149824805F02CFC2B797D497F486FF34C
:102050000003E2B201342B7105F0E8FB082CF3D148
:1020600009242B797649794843F00103E2B201341F
:102070002B7105F0DBFB0D2CF3D1754D2B68102176
:10208000D3F8840006F0DEF82B681021D3F8840022
:1020900006F06CF92B680221D3F8840006F028F8CA
:1020A0002B680221D3F8840006F0B0F92B680F21C9
:1020B000D3F8840006F098FA0C21664808F0D2FBA9
:1020C000654808F065FE2146644808F0CBFB62488D
:1020D00008F05EFE40F2836006F0F0FF5E4808F014
:1020E00057FE17215E4808F0BDFB5B4808F050FE24
:1020F0005C4B1B789A0600F1D9805A4B1B781B0762
:1021000000F1E080574B1B785F0700F1E780554BEB
:102110001B789E0700F1EE80534B1B781D0600F1E3
:10212000F580514B1B785C0600F1FC804E4B1B7810
:10213000980600F103814C4B1B78590700F10A8186
:10214000494B1B781A0700F11181474B1B789B07FD
:1021500000F11881404808F01BFE72B6434A4CF269
:1021600020534DF628112024138023461180013B73
:10217000FDD13F4D3F48404900234FF480562E800B
:1021800003800B8032F80E3C9BB243F0D30322F85D
:102190000E3C62B640F2413007F03CFB2146374826
:1021A000374D08F05FFB2C4808F0F2FD05F1D8062A
:1021B0002F462C46601B06F0A1FB04F8010BB4422D
:1021C000F8D13B78122B04D0234808F0E1FDFFF74B
:1021D000F9FD0420FFF74EFC2A4B2B4D0022012174
:1021E0000D201A6006F070FEB96D2848FFF748F917
:1021F0003B6D7A6C97F840102448FFF743F9244868
:10220000244B02680592059F046804941B682249C8
:10221000224A049E224C006803901268276081FBCA
:102220000301DB171F48039C2E60A3EB21131E49FB
:10223000046013FB02F30B8007B0F0BD3887FF1F6B
:10224000F8D0FF1F10D3FF1F20A1070074D1FF1F7C
:1022500068D1FF1FD80F0100D487FF1FE80F0100CE
:10226000F80F010001F0074000F007400E20054084
:10227000042005400620054016200540FC10010002
:1022800018D0FF1F9492FF1F70CFFF1F1093FF1FE6
:102290001CD3FF1F5C87FF1F1F85EB515887FF1F53
:1022A00068CFFF1F14D0FF1F30D1FF1F21213948F5
:1022B00008F0D8FA384808F06BFD384B1B781B073C
:1022C0007FF520AF0C21364808F0CCFA324808F0F0
:1022D0005FFD324B1B785F077FF519AF0E21314848
:1022E00008F0C0FA2C4808F053FD2C4B1B789E07D1
:1022F0007FF512AF17212C4808F0B4FA264808F0F1
:1023000047FD2A4B1B781D067FF50BAF0E21284891
:1023100008F0A8FA204808F03BFD244B1B785C0627
:102320007FF504AF1221234808F09CFA1A4808F000
:102330002FFD1E4B1B7898067FF5FDAE13211E481E
:1023400008F090FA144808F023FD184B1B78590741
:102350007FF5F6AE1C21194808F084FA0E4808F003
:1023600017FD124B1B781A077FF5EFAE19211448A1
:1023700008F078FA084808F00BFD0C4B1B789B0717
:102380007FF5E8AE18210F4808F06CFA024808F013
:10239000FFFCDFE610100100D487FF1F01F00740AB
:1023A00034100100441001005410010000F00740F7
:1023B0006C1001007C10010090100100A4100100BD
:1023C000C4100100E010010070B5464C464D47486E
:1023D000E66800232B70FFF729F8014630460AF023
:1023E00021FA08B104232B704048FEF7F9FF216958
:1023F0000AF018FA18B12B7843F010032B703B4801
:10240000FFF7C8F8A16A0AF02BFA18B12B7843F04D
:1024100040032B70002335486B70FFF7BDF8E16A6D
:10242000314E0AF0FFF908B10123737000232F48E1
:10243000EB70FEF7FBFF05462C482B4EFEF7D0FF56
:102440000146284609F046FFE16B0AF009FA08B197
:102450000123F370264D254800232B70FEF7E6FF7D
:10246000616A0646E06809F035FF014630460AF029
:10247000F7F908B104232B701C48FEF7B1FF616A1D
:102480000646206909F028FF014630460AF0CAF9DD
:1024900018B12B7843F010032B701448FFF77AF82B
:1024A000A16B0646A06A09F015FF014630460AF006
:1024B000D7F918B12B7843F040032B7000230B4859
:1024C0006B70FFF769F8A16B0546E06A084C09F0EC
:1024D00003FF014628460AF0A5F908B101236370FD
:1024E00070BD00BF18D0FF1F04D0FF1F1093FF1F47
:1024F0006092FF1F2DE9F0417C4C2368012B82B0D4
:1025000031D0022B00F0A880032B00F0C8803BBB29
:10251000774B784AD3F8AC10D3F8B03012685B1A16
:10252000632B0EDD744803FB02F380FB0302DB1711
:10253000C3EB62131944062002B0BDE8F04106F077
:1025400043BB6E4803FB022380FB0302DB17C3EB94
:1025500022121144062002B0BDE8F04106F034BB5F
:1025600002B0BDE8F081664E33680A33B3F57A7F76
:1025700000F3B7801846336009F062FF614909F043
:10258000B3FF80465A4DD5F8AC0009F059FF074615
:10259000D5F8B00009F054FF394609F09BFE4146DA
:1025A00009F0A2FF58490AF053F8394609F094FEA1
:1025B0000AF060F90146062006F006FB02215348A6
:1025C00008F050F9524808F0E3FB0621514808F0A2
:1025D00049F9306809F034FF4A4909F085FF09F0EC
:1025E000D9FA022702460B460097494808F028FC12
:1025F0000D21494808F036F9D5F8AC0009F020FF64
:102600008046306809F01CFF3E4909F06DFF064620
:10261000D5F8B00009F014FF414609F05BFE014611
:10262000304609F061FF38490AF012F8414609F0D6
:1026300053FE09F0AFFA00970B460246344808F003
:10264000FFFB3946314808F00DF9314808F0A0FB8E
:102650002368022B7FF458AF294B254E00221A60C5
:10266000D6F8AC0009F0ECFE0546D6F8B00009F04B
:10267000E7FE294609F02EFE002109F035FF224928
:1026800009F0E6FF294609F027FE0AF0F3F80146B3
:10269000062006F099FA2368032B7FF438AF184B15
:1026A000134E4FF47A721A60D6F8AC0009F0C8FEE7
:1026B0000546D6F8B00009F0C3FE294609F00AFE27
:1026C000114909F011FF104909F0C2FF294609F02C
:1026D00003FE0AF0CFF80146062006F075FA2368DB
:1026E00015E700234FF0000833604BE79092FF1F7F
:1026F00018D0FF1F3487FF1F1F85EB51CBF08D28AB
:10270000F0D0FF1FCDCCCC3D0000C842FC1E010024
:10271000D487FF1F201101002811010070B5B548B2
:10272000B54C08F035FBB34808F032FBB14808F06F
:102730002FFB0D21B14808F095F8D4F8A830012BF3
:1027400000F0B180AE4CAB48217800230A2208F09B
:102750002FFB2378052B0BD8DFE813F0F100F600F0
:10276000FB000001050106000721A64808F07AF8E1
:102770000221A54808F076F8122006F0ABFB0128EC
:1027800000F02081112006F0A5FB012800F0248133
:102790009E4B1B68012B00F0288102219A489C4C1B
:1027A00008F060F89B4B9348196808F041FB91488A
:1027B00008F0EEFA0421984808F054F80B2006F0CF
:1027C00089FB002301460A228A4808F0F1FA0C200E
:1027D00006F080FB002301460A22864808F0E8FA4A
:1027E000142006F077FB002301460A22814808F0F6
:1027F000DFFA152006F06EFB0A22002301467D4811
:1028000008F0D6FA0621854808F02CF82368DD0781
:102810004FF001014CBF8248824808F023F823683A
:1028200098074FF001014CBF7D487E4808F01AF828
:1028300023685A074FF001014CBF7948794808F0E6
:1028400011F823681B074CBF75487648012108F032
:1028500009F80421744808F005F8112006F03AFB45
:10286000002301460A22634808F0A2FA102006F06D
:1028700031FB002301460A225E4808F099FA122033
:1028800006F028FB002301460A225A4808F090FA75
:10289000132006F01FFB002301460A225548BDE81D
:1028A000704008F085BA0921604807F0DBFF6048F6
:1028B000FEF796FD216909F0B5FF002862D15C485A
:1028C000FEF7B4FDE16809F0CBFF002864D1584859
:1028D000FEF7ACFD05465648FEF782FD0146284648
:1028E00009F0F8FCE16B09F0BBFF00284FD150481C
:1028F000FEF7ECFDA16A09F0B3FF00283DD14C487A
:10290000FEF7E4FDE16A09F08DFF002830D1494B64
:1029100047481B68012B00F0AF80FEF761FD21697D
:10292000354D09F09DFF00283BD10721424807F0B3
:1029300099FF424B2F48196808F07AFA18E70621E8
:102940003F4807F08FFF13E707213E4807F08AFF53
:102950000EE707213C4807F085FF09E708213B48BF
:1029600007F080FF04E70B21394807F07BFFFFE603
:102970000D21384807F076FFC9E70C21364807F0EB
:1029800071FFBCE70F21354807F06CFF97E7112175
:10299000334807F067FFAAE70E21324807F062FFCD
:1029A00095E72348FEF742FDE96809F03BFF002860
:1029B000BBD0134B1B78052B6ED008212A4807F09B
:1029C00051FFB2E70E21294807F04CFF112006F015
:1029D00081FA01287FF4DCAE0A21254807F042FF86
:1029E0000A4B1B68012B7FF4D8AE1121214807F058
:1029F00039FFD2E6D487FF1F18D0FF1F381101001E
:102A00000CD0FF1F10120100FC1E010008D1FF1F97
:102A10005CD1FF1F6C92FF1F481201005012010091
:102A200058120100402101005C1201004811010010
:102A30001093FF1F9C92FF1FD81101009892FF1F57
:102A4000E0110100E8110100FC1101000412010075
:102A5000F0110100981101008811010054110100CA
:102A60007411010064110100CC1101001812010061
:102A70002812010034120100FEF7B2FC216A09F0AD
:102A8000EFFE002899D01621064807F0EBFE0A2138
:102A9000054807F0E7FE48E70A21034807F0E2FE91
:102AA00043E700BFA8110100C01101002DE9F04F5C
:102AB000AB4CD4F88060012E8DB000F07981032EEC
:102AC00000F0CC80DFF8DC82A64FA74EE36FA7486A
:102AD000012B09BF3168316801F10041316005F017
:102AE000FFFD3B68002B40F09F80A048DFF8B492C8
:102AF00005F0CCFD3B68C8F800000546002B44D12A
:102B0000D4F88030964A012B53D09949284609F0D1
:102B1000A7FEC0B99749284609F084FE98B9964A9D
:102B2000964B12680B920B9A1A60D4F8B40009F015
:102B300087FC294609F0D8FC0023C8F80000336060
:102B40000DB0BDE8F08FDFF830A28C4FDAF800301E
:102B50000A930A983B68DFF85092C01A09F06CFC9F
:102B6000294609F0C1FC864909F072FD844909F043
:102B70006FFDD9F8001009F0AFFBDAF800300993C7
:102B8000099BC9F800003B60CFE709F003F8022574
:102B900002460B4600957B4808F052F904217A481A
:102BA00007F060FED4F88030D9F800506C4A012B51
:102BB000ABD1764B1B68012B00F0DA81022BB4D12C
:102BC000D2F88C70384609F03BFC294609F02AFE01
:102BD00040B9784209F034FC294609F041FE00284A
:102BE00000F0F981DFF890A1644FDAF80030079324
:102BF00007983B68DFF8B091C01A09F01DFC294620
:102C000009F072FC5E4909F023FD5D4909F020FDE1
:102C1000D9F8001009F060FBDAF800300693069B43
:102C2000C9F800003B6080E7504805F02FFD08F030
:102C3000B1FF022502460B460095524808F000F904
:102C40000321534807F00EFED4F88C104D4808F0CD
:102C5000EFF803214E4807F005FE46E74D4D4B4F78
:102C60002B68DFF84081D3F884000F2101233B60FB
:102C700005F0BAFC3B683B4F012B3B6800F0BF807E
:102C8000002B40F03D812B68DFF82091D3F88400C1
:102C9000436B19698EB2C9F8006005F027FAB4F8E1
:102CA0008A2040F6E44303FB06F1B1FBF0F0801A02
:102CB00000B209F0C5FB38492B4E8246D4F890008B
:102CC00009F012FC0146504609F0C2FCD9F8003068
:102CD0003060632BDFF8D4A000F30681002333605B
:102CE0003B68002B3FF4F2AE02212C4807F0BAFDFE
:102CF0002B68D9F80050D3F8840040F6E44303FB76
:102D000005F505F0F3F9B5FBF0F009F095FB054684
:102D1000B4F88A0009F094FB0146284609F0DAFA73
:102D200008F038FF022502460B460095154808F0CA
:102D300087F82946194807F095FD306808F02AFF02
:102D4000009502460B460F4808F07AF829461448C9
:102D500007F088FD2946114807F084FDB6E600BF5C
:102D600018D0FF1FFCCFFF1F50D1FF1F10D1FF1F36
:102D70000000FA430000FAC31CD3FF1F6892FF1F34
:102D800000007A44D487FF1FA41201004C87FF1F64
:102D9000FC0A010068D1FF1FACC52737FC1E0100EB
:102DA000A012010008D0FF1F44D1FF1F70D1FF1FE8
:102DB000DFF80883D4F88C70D8F80050384609F052
:102DC0003FFB294609F04CFD48B1784209F038FB39
:102DD0000146284609F044FD002840F00381A54D36
:102DE000A54F2A680223D2F884003B600E2105F02B
:102DF000FBFB3B68A14F012B3B687FF441AF002BED
:102E000040F0FA802B68DFF8B892D3F88400436B67
:102E100019691FFA81FBC9F800B005F067F9B4F829
:102E20008830974E40F6E44A0AFB0BFBBBFBF0F000
:102E3000C01A00B209F004FB92498346D4F894000A
:102E400009F052FB0146584609F002FC2A68D9F8FD
:102E500000303060D2F884000AFB03FA05F046F92E
:102E6000B4F88830BAFBF0F00FFA80FAC3EB0A032B
:102E7000002BB4F8C220B8BF5B429342BCBF002312
:102E800033603B68002B3FF421AE02217E4807F0FF
:102E9000E9FC2B68D9F80050D3F8840040F6E443ED
:102EA00003FB05F505F022F9B4F88810B5FBF0F046
:102EB00000B2411A754807F0BBFF0221724807F0C3
:102EC000D1FC306808F066FE022502460B460095EC
:102ED0006E4807F0B5FF03216D4807F0C3FC294693
:102EE000694807F0BFFCF1E52B68D3F8840005F0D2
:102EF000FDF8DAF8003064389842FFF4EFAEEFE600
:102F00006248DFF8BC91DFF86CA107F041FF0C21AB
:102F1000604807F0A7FC0C215F4807F0A3FC2A6873
:102F20003B68D2F88400426B11698EB2C9F8006028
:102F3000002B3FF4B2AE05F0D9F840F6E44100238F
:102F40000A2201FB06F1B1FBF0F1504807F030FF17
:102F500002214D4807F086FCB4F88A104B4807F070
:102F600067FFDAF80030D9F80060D3F8840094E6FF
:102F70004A49284609F074FC58B94949284609F0DD
:102F800051FC30B9474A484B12680592059A1A60BD
:102F9000CBE5DFF810A1444FDAF800300493049831
:102FA0003B68DFF82091C01A09F046FA294609F07B
:102FB0009BFA3E4909F04CFB3C4909F049FBD9F822
:102FC000001009F089F9DAF800300393039BC9F87F
:102FD00000003B60A9E5334A334B12680892089A17
:102FE0001A60A2E5234D244F28683E604FF0FF325F
:102FF0000F2104F0F5FF3DE62448DFF8C4901D4E94
:1030000007F0C6FED4F88030012B4FF00B010CBF47
:103010002748284807F026FC0C211F4807F022FC0F
:103020002A683B68D2F88400426B11691FFA81FB61
:10303000C9F800B0002B3FF4F0AE05F057F840F6A9
:10304000E44100230A2201FB0BF1B1FBF0F10F4830
:1030500007F0AEFE0121184807F004FCB4F8881010
:103060000A4807F0E5FE3368D9F800B0D3F88400C9
:10307000D3E600BF68D1FF1F4C87FF1FFCCFFF1FA7
:1030800050D1FF1FACC52737FC1E0100D487FF1F9E
:103090008C120100901201007C1201000000FA4322
:1030A0000000FAC31CD3FF1F6892FF1F00007A4480
:1030B00064120100701201003411010008D0FF1FDA
:1030C00070D1FF1F44D1FF1F2DE9F0478D4D2B68B4
:1030D00084B043B98C4B1B680393039A42F210737C
:1030E0009A4200F2B880894C894F8A4EDFF8688294
:1030F000D4F88420854B012A04D0D3F88020002AFC
:1031000040F096808448FEF749FA8449D4F86C90E0
:10311000256F09F0E9F909F0D3FB626FA36FC9EBE2
:1031200002025B1B80B29A42C9EB0000D4F85C90AB
:10313000C6BF03FB00000132584390FBF2F0284465
:10314000A56D00FB09F005FB00F000EB80004000DE
:1031500009F076F9724909F07BFA8246306005FB86
:1031600009F54FF47A7000FB05F009F069F96C4934
:10317000DFF89C910546504609F0B6F9294609F05A
:1031800067FA684909F0B0F909F074FB6328386000
:1031900048DD2846624909F05BFA64233060C9F8CB
:1031A0000030D8F80030002B39D0D4F88030574D9B
:1031B000012B43D0032B00F09780022B00F08F806F
:1031C0000221594807F04EFB584B186808F0E2FC02
:1031D000022402460B460094554807F031FE214672
:1031E000544807F03FFB21464F4807F03BFB396846
:1031F0004F4807F01DFE06214F4807F033FB3068AB
:10320000474909F071F908F0C5FC009402460B46E5
:10321000474807F015FE0321484807F023FB04B098
:10322000BDE8F0870028BCBF0023C9F80030B8E72C
:10323000D6F800A0D3F85C909D6D90E7404B1B68DA
:10324000012B4FF00A010CBF3E483F4807F00AFB34
:10325000D5F88030AEE730482C4CFEF79FF92F4967
:10326000E76E266F09F040F909F02AFB626FA36F41
:10327000D21B9B1B80B29A42A0EB07003BDD03FBF5
:103280000000531C90FBF3F31E44E06DA36D204F30
:10329000DFF8C4803E6000FB06F003FB00F000EBAB
:1032A0008000400009F0CCF81D491A4E09F0D0F911
:1032B000D8F80030306001222A60002B3FF418AFAC
:1032C0000221194807F0CEFA194807F061FD59218B
:1032D0001E4807F0C7FA164807F05AFD08E707210D
:1032E0001B4807F0BFFA6BE710211A4807F0BAFA3B
:1032F000D4F8803061E703FB00F393FBF2F31E4444
:10330000C3E700BF0C93FF1F1CD3FF1F18D0FF1F84
:103310003487FF1F44D1FF1F1093FF1F00007A4422
:10332000E4388E3E0000C842FC1E010008D0FF1F9A
:10333000D487FF1FA01201003C13010044130100B9
:103340004C87FF1F0813010014130100AC12010089
:1033500034130100201301002487FF1F30B5112012
:1033600083B005F0B7FD012818D0122005F0B2FD9A
:10337000012813D000210B2005F0A6FD00210C2010
:1033800005F0A2FD0021152005F09EFD2649274BE2
:103390000120002208701A6003B030BD0121152001
:1033A00005F092FD224A234C234B1268D4F8981062
:1033B00001921B68019A1D4D0B4493424FF002018C
:1033C000296005D901210C2005F07EFD03B030BD38
:1033D000D4F8A00009F034F8184B196809F022FA63
:1033E0000028EFD101210B2005F06EFD94F8C830C4
:1033F00003242C6043B10C4B02221A7000210C20D4
:1034000005F062FD03B030BD122005F063FD012818
:1034100008BF054B4FF0110008BF1C7005F05AFDA6
:103420000128EBD1E7E700BF0CD0FF1F0893FF1F77
:103430001CD3FF1F18D0FF1F68CFFF1F08D0FF1F2E
:10344000F0B5684E684D34682B689C4287B039D01F
:1034500014F0010155D014F0020149D014F0040118
:103460003DD0E3070ED52B68DF070BD45F4F3A68DA
:10347000002A00F082805E4B1B680193019B9342FF
:103480006DD83468A0070DD52B6899070AD4594F19
:103490003A68002A4CD0564B1B680393039B934217
:1034A00038D8346862070DD52B685B070BD4524FB0
:1034B0003A68002A7ED04E4B1B680593059B9342C9
:1034C00068D834680CB107B0F0BD2146162005F06D
:1034D0007BFB2146172005F077FB07B0F0BD0520E8
:1034E00005F072FB2B68346803F0FB032B60B8E730
:1034F000172005F069FB2B68346803F0FD032B608F
:10350000ACE7162005F060FB2B68346803F0FE037F
:103510002B60A0E7394B1720D3F89C1005F054FB23
:103520002B68346843F0020300222B603A60B9E74D
:10353000334807F02DFC0C21324807F093F930484E
:1035400007F026FCFF21172005F03EFB284B2E4AF2
:1035500019680291029912680A443A609CE7274B65
:103560001620D3F89C1005F02FFB2B68346843F02D
:10357000010300222B603A6084E7FF21162005F04A
:1035800023FB1B4B204A19680091009912680A44DA
:103590003A6071E7194B0520D3F89C1005F014FB35
:1035A0002B68346843F0040300222B603A60002C3F
:1035B00089D18AE7124807F0EBFB0C21134807F08A
:1035C00051F90F4807F0E4FBFF21052005F0FCFA54
:1035D000074B0D4A19680491049912680A443A602D
:1035E0006AE700BF0893FF1F5CD1FF1FF4D0FF1FE5
:1035F0001CD3FF1F00D1FF1F04D1FF1F18D0FF1FD6
:10360000D487FF1F481301003C87FF1F5813010098
:103610002DE9F047534EDFF870813368DFF86C9185
:10362000D3F88400504D0F2104F0DEFF0023012267
:1036300022214E48C8F80030C9F8002007F012F9DE
:10364000D8F80030132B20DC40F6E4473368B5F897
:1036500088A0D3F88400436B1C6904F047FDA4B232
:10366000012107FB04F4B4FBF0F441485444A5F8ED
:10367000884007F0F7F8642005F062FCD8F80030C5
:103680000133132BC8F80030E0DDB5F88830394A33
:103690003948A2FB03129B1A02EB5303C3F30F1327
:1036A0001946A5F8883007F0C3FB1D21334807F001
:1036B000D9F80221324807F0D5F82F4807F068FB07
:1036C00032680023D2F88400C8F800300E2104F0DC
:1036D0008BFF022322212548C9F8003007F0C2F8E9
:1036E000D8F80030132B20DC40F6E4473368B5F8F7
:1036F0008A90D3F88400436B1C6904F0F7FCA4B2F1
:10370000012107FB04F4B4FBF0F419484C44A5F87C
:103710008A4007F0A7F8642005F012FCD8F80030C2
:103720000133132BC8F80030E0DDB5F88A30114AB8
:103730001148A2FB03129B1A02EB5303C3F30F13AE
:103740001946A5F88A3007F073FB1D210D4807F0D4
:1037500089F802210A4807F085F80748BDE8F047D4
:1037600007F016BB68D1FF1F18D0FF1F68130100B8
:10377000AC13010087611886D487FF1F8C130100EA
:10378000FC1E0100B01301007492FF1F4C87FF1F45
:10379000F8B5BD4BBD4CBE4F1B68786D40F2513142
:1037A00008222160E271002B00F0698108F048FED8
:1037B000396A054608F098FEB64908F095FE09F00A
:1037C0007FF880B203126372B34AB44B12681B686D
:1037D000B9692072A37228461B121512E372227374
:1037E000657308F081FEAB4908F07EFE09F068F8C9
:1037F00083B21A12A549AA48A373E27304F048FAE7
:10380000A84BA94A1B681288A049A272DDB2257292
:1038100005EB850603EB8305760045F3D71540F2EB
:10382000553E12121B1226736573082600259C480C
:10383000C4F800E0E2726372E671A573E57304F008
:1038400027FA40F2563399482360E671FDF712FEDD
:10385000974908F049FE09F033F820729348FDF7C4
:1038600009FE934908F040FE09F02AF8914A904970
:10387000C0F307231068637208F0EAFE08F0FAFF4D
:1038800040FA06F203468948E272A372FDF71EFE73
:10389000804908F029FE08F0EDFF20738348FDF70A
:1038A00015FE7C4908F020FE08F0E4FF7749A57377
:1038B00040F307237A486373E57304F0E9F90220C3
:1038C00005F03EFB7C4A7D4B11785078217291784F
:1038D0006072D2789878A172597893F800E0E27219
:1038E0006173DA78A07340F25A3368496C4884F8FF
:1038F0000CE0E2732360E67104F0CAF9704B63498F
:103900001A785878227260729A78D878A272E07227
:103910001A79987993F805E02273A073DA796048F0
:1039200084F80DE040F25E33E2732360E67104F048
:10393000AFF9022005F004FB624B54491A7858781D
:10394000227260729A78D878A272E0721A799879A5
:1039500093F805E02273A073DA79514884F80DE0FA
:103960004FF45C73E2732360E67104F091F9022076
:1039700005F0E6FA40F273334C482360E671FDF738
:103980002FFD514908F0B0FD08F09AFF207247481A
:10399000FDF726FD4C4908F0A7FD08F091FFC0F3A4
:1039A000072342486372FDF741FD474908F09CFD3B
:1039B00008F086FFA0723D48FDF738FD424908F047
:1039C00093FD08F07DFFC0F307233848E372FDF74D
:1039D000E3FD3E4908F080FC08F072FF2073334895
:1039E000FDF7DAFD394908F077FC08F069FFC0F30C
:1039F00007232E486373FDF7CDFD344908F06CFCB6
:103A000008F05EFFA0732948FDF7C4FD2F4908F0B8
:103A100063FC08F055FF1D49C0F307232048E373FA
:103A200004F036F9022005F08BFAB96DFB6D022225
:103A300011FB03F3C3F3072740F2793110462160ED
:103A4000E2712372677205F07BFA40F27233174815
:103A50002360E671FDF710FD20721448FDF70CFDA0
:103A600040FA06F3A5726372E57225736573A57358
:103A7000E57306490A48BDE8F84004F009B908F0C2
:103A8000DFFC7969054695E69C92FF1F7892FF1F3F
:103A900018D0FF1F0000204154D1FF1F8C92FF1F40
:103AA00074D1FF1F3487FF1F3A87FF1F1093FF1F3A
:103AB0000000C84208D0FF1F04D0FF1F6092FF1F04
:103AC0006087FF1F6887FF1F00007A443393884395
:103AD0002DE9F041874C884D82B006F05DFE2368E9
:103AE0002860042B00F0F982022B4BD0082B00F049
:103AF0009280072B40F02481332801F0B08500F339
:103B00007783312801F08385322840F08D8006F0DC
:103B10007FFE002840F312817848794E07F0CAFAF8
:103B200008F08EFC774908F0DFFC61230122F06386
:103B300022602B601846A0F152031F2B01F257851B
:103B4000DFE813F0530D550D550D550D550D550D61
:103B5000550D550D550D550D550D550D550D550D55
:103B6000550D9603C40E1005AC057A04550D550D80
:103B7000550D0A04550DC10E550D550D550D550D1C
:103B8000550D410DA0F13102422A4DD8DFE812F067
:103B9000A2082C083A084C085F086E087B088508C4
:103BA0004C004C004C004C004C004C004C004C00B5
:103BB0004C004C004C004C004C004C004C004C00A5
:103BC0004C004C004C004C004C004C004C004C0095
:103BD0004C004C004C004C004C004C004C004C0085
:103BE0004C004C004C004C004C004C004C004C0075
:103BF0004C004C0092084C004C004C004C004C0017
:103C00004C004C004C004C004C004C004C004C0054
:103C100036034C009808322800F0F582712800F035
:103C2000ED82312800F00583002B08BF73280CBFFC
:103C300001200020002859D0304807F0A9F80421BD
:103C4000314806F00FFE2D4807F0A2F810212F484A
:103C500006F008FE294807F09BF813212C4806F0CF
:103C600001FE2C4B2548196807F0E2F8234807F0BD
:103C70008FF81421284806F0F5FD204807F088F851
:103C80001E21264806F0EEFD1C4807F081F815219C
:103C9000234806F0E7FD194807F07AF81E2121486D
:103CA00006F0E0FD154807F073F820211E4806F0E5
:103CB000D9FD124807F06CF819211C4806F0D2FD16
:103CC0000E4807F065F81221194806F0CBFD0B48A5
:103CD00007F05EF80D21174806F0C4FD074807F00D
:103CE00057F8154A002101231160236002B0BDE896
:103CF000F08100BF6CD1FF1F54CFFF1FD487FF1F7F
:103D000018D0FF1F6F12833A8C1D0100941D010013
:103D1000A81D01004887FF1FBC1D0100D41D010024
:103D2000F41D01000C1E01002C1E0100501E01009C
:103D30006C1E0100801E01002487FF1F2368286875
:103D4000062B40F08F80A0F13002412A3FF66CAF85
:103D500001A151F822F000BF9B4A0000CF4A0000A9
:103D6000FB4A0000274B00004D4B0000734B000046
:103D7000874B0000AB4B0000293C0000BF4B00000C
:103D8000293C0000293C0000293C0000293C00009F
:103D9000293C0000293C0000293C0000293C00008F
:103DA000293C0000293C0000293C0000293C00007F
:103DB000293C0000293C0000293C0000293C00006F
:103DC000293C0000293C0000293C0000293C00005F
:103DD000293C0000293C0000293C0000293C00004F
:103DE000293C0000293C0000293C0000293C00003F
:103DF000293C0000293C0000293C0000293C00002F
:103E0000293C0000293C0000293C0000293C00001E
:103E1000293C0000293C0000293C0000293C00000E
:103E2000293C0000293C0000293C0000293C0000FE
:103E3000293C0000293C0000293C0000293C0000EE
:103E4000293C0000293C0000293C0000293C0000DE
:103E5000293C0000293C0000293C0000FD410000F5
:103E600023682868052B40F08D80A0F13102402A9C
:103E70003FF6DAAE01A151F822F000BFCF470000B3
:103E8000434900000749000027490000C3480000DB
:103E9000ED480000293C0000293C0000293C0000BE
:103EA000293C0000293C0000293C0000293C00007E
:103EB000293C0000293C0000293C0000293C00006E
:103EC000293C0000293C0000293C0000293C00005E
:103ED000293C0000293C0000293C0000293C00004E
:103EE000293C0000293C0000293C0000293C00003E
:103EF000293C0000293C0000293C0000293C00002E
:103F0000293C0000293C0000293C0000293C00001D
:103F1000293C0000293C0000293C0000293C00000D
:103F2000293C0000293C0000293C0000293C0000FD
:103F3000293C0000293C0000293C0000293C0000ED
:103F4000293C0000293C0000293C0000293C0000DD
:103F5000293C0000293C0000293C0000293C0000CD
:103F6000293C0000293C0000293C0000293C0000BD
:103F7000293C0000293C0000293C00006349000066
:103F800023682868032B40F0A480A0F13002422A65
:103F90003FF64AAE01A151F822F000BFA94000004F
:103FA000ED510000155200003D5200005F5200002C
:103FB00081520000A9520000D15200009F5300001E
:103FC000C3530000293C0000293C0000293C0000AC
:103FD000293C0000293C0000293C0000293C00004D
:103FE000293C0000293C0000293C0000293C00003D
:103FF000293C0000293C0000293C0000293C00002D
:10400000293C0000293C0000293C0000293C00001C
:10401000293C0000293C0000293C0000293C00000C
:10402000293C0000293C0000293C0000293C0000FC
:10403000293C0000293C0000293C0000293C0000EC
:10404000293C0000293C0000293C0000293C0000DC
:10405000293C0000293C0000293C0000293C0000CC
:10406000EB530000674D0000EF5200000D530000BD
:104070002B530000495300001D4D0000414D00002E
:10408000293C00003554000057540000293C000032
:10409000293C0000293C0000293C0000293C00008C
:1040A000815400008D54000006F0B2FB002841F35B
:1040B000A782CF48CF4E06F0FDFF012703460146F9
:1040C0006222CD48B36527602A60FDF7D9F92368DD
:1040D0002868012B7FF4A8AD2DE5A0F13102402A1C
:1040E0003FF6A2AD01A151F822F000BF83490000C4
:1040F000154A0000194A00003F4A00007F4A0000AC
:10410000434A0000554A0000594A00005D4A000039
:10411000293C0000293C0000293C0000293C00000B
:10412000293C0000293C0000293C0000293C0000FB
:10413000293C0000293C0000293C0000293C0000EB
:10414000293C0000293C0000293C0000293C0000DB
:10415000293C0000293C0000293C0000293C0000CB
:10416000293C0000293C0000293C0000293C0000BB
:10417000293C0000293C0000293C0000293C0000AB
:10418000293C0000293C0000293C0000293C00009B
:10419000293C0000293C0000293C0000293C00008B
:1041A000293C0000293C0000293C0000293C00007B
:1041B000293C0000293C0000293C0000293C00006B
:1041C000293C0000293C0000293C0000293C00005B
:1041D000293C0000293C0000293C0000293C00004B
:1041E000293C0000293C0000293C0000FD41000062
:1041F000342801F0228271287FF416AD0023732049
:104200002360286010E506F003FB002840F3B1832B
:104210007748784E06F04EFF08F012F9774908F01B
:1042200063F907460246336D96F84010724877648A
:1042300015E006F0EDFA002840F39F836C486D4EC0
:1042400006F038FFC0B286F84000032894BF01464C
:104250000021336D726C684888BF86F84010FDF706
:1042600011F9012369202360286064E406F094FAC0
:1042700006F0CEFA05460028F8D15D485D4E06F0FE
:1042800087FD5B4806F084FD594806F081FD5848DB
:1042900006F07EFD564806F07BFD1F21584806F0CB
:1042A000E1FA534806F074FD1C21564806F0DAFA8C
:1042B000706A554908F018F907F06CFC0095024641
:1042C0000B464B4806F0BCFD0221504806F0CAFAE6
:1042D000474806F05DFD23214D4806F0C3FAF06B18
:1042E000494908F001F907F055FC009502460B46D4
:1042F0003F4806F0A5FD0221444806F0B3FA3C48C9
:1043000006F046FD1921434806F0ACFAB06B07F001
:1043100041FC02250B4602460095354806F090FD0B
:1043200029463D4806F09EFA314806F031FD22212B
:104330003A4806F097FAB6F8CA102D4806F078FD0C
:104340000321374806F08EFA294806F021FD07239D
:104350002360CBE406F020FA06F05AFA054600285E
:10436000F8D12348234E06F013FD214806F010FD36
:104370001F4806F00DFD1E4806F00AFD1C4806F019
:1043800007FD1521274806F06DFA194806F000FDD3
:104390001821254806F066FA2B460A2296F84010A6
:1043A000134806F005FD124806F0F2FC28211F48CC
:1043B00006F058FA706C144908F096F807F0EAFB1A
:1043C00000950B4602460A4806F03AFD02210F48C6
:1043D00006F048FA064806F0DBFC1321144806F004
:1043E00041FA034806F0D4FC082323607EE400BFB2
:1043F000D487FF1F18D0FF1F1093FF1F6F12833A3F
:104400001C1601003C16010000007A44481401000B
:104410005C16010080160100F81501009C160100D1
:10442000C0160100541E0100001401001C140100FC
:104430004C14010006F0B0F906F0EAF90546002830
:10444000F8D18148814E06F0A3FC7F4806F0A0FC1D
:104450007D4806F09DFC7C4806F09AFC7A4806F000
:1044600097FC11217A4806F0FDF9774806F090FC98
:104470002821784806F0F6F97069774908F034F891
:1044800007F088FB009502460B466F4806F0D8FC03
:104490000221724806F0E6F96B4806F079FC162115
:1044A0006F4806F0DFF9F0696B4908F01DF807F076
:1044B00071FB00950B460246634806F0C1FC0221E1
:1044C000664806F0CFF9604806F062FCD6F8B830CE
:1044D000002B32DD1D21634806F0C4F9306E07F071
:1044E000AFFF614908F000F807F054FB02250246CF
:1044F0000B460095544806F0A3FC01215B4806F0EA
:10450000B1F9514806F044FC1F21594806F0AAF9B8
:10451000706E07F095FF544907F0E6FF07F03AFB8D
:10452000009502460B46484806F08AFC01214F4898
:1045300006F098F9444806F02BFC11214D4806F08E
:1045400091F9D6F8B830072B00F2B487DFE813F002
:104550001D081808AE0731082C082708220836085D
:1045600006F01AF906F054F90028F9D13648374E0A
:1045700006F00EFC344806F00BFC334806F008FC4D
:10458000314806F005FC304806F002FC1F213A488D
:1045900006F068F92C4806F0FBFB1E21374806F0B0
:1045A00061F9294806F0F4FB1A21354806F05AF95A
:1045B000D6F88030022B01F04381032B01F03781C4
:1045C000012B01F02B8109212E4806F04BF91E48E2
:1045D00006F0DEFB14212C48DFF8708006F042F96B
:1045E000F16F194806F024FC174806F0D1FB1C2196
:1045F000264806F037F9D6F88410134806F018FC60
:10460000114806F0C5FB1C21214806F02BF9D6F80D
:10461000B4100D4806F00CFC0B4806F0B9FBD6F8B8
:10462000805025F00207012F01F07280022D01F069
:104630001D811321174806F015F9034806F0A8FB61
:1046400002232360FFF752BBD487FF1F18D0FF1F40
:10465000F81D01006014010000007A4448140100B4
:104660008C140100A4140100CDCCCC3DF419010040
:10467000C4140100E4140100B4180100D4180100AE
:10468000F41801006C19010078190100901901005B
:10469000B01901004C14010006F07EF806F0B8F8DD
:1046A0000028F9D1BD4806F073FBBC4806F070FB4A
:1046B000BA4806F06DFBB94806F06AFBB74806F049
:1046C00067FB1321B64806F0CDF8B44806F060FB4E
:1046D0000D21B44806F0C6F8B04806F059FB0F218A
:1046E000B14806F0BFF8B14BAC48196806F0A0FB22
:1046F000AA4806F04DFB1321AD4806F0B3F8AD4BC8
:10470000A648196806F094FBA44806F041FB122164
:10471000A94806F0A7F8A94BA048196806F088FB3D
:104720009E4806F035FB1121A54806F09BF8A54BE5
:104730009A48196806F07CFB984806F029FB0E2180
:10474000A14806F08FF8A14B9448D3F8A81006F0C2
:104750006FFB924806F01CFB19219D4806F082F879
:104760009C4B8E48196806F063FB8C4806F010FBE2
:104770001121994806F076F8984B8848196806F098
:1047800057FB864806F004FB1021954806F06AF8AE
:10479000944B8248196806F04BFB804806F0F8FA03
:1047A0001C21914806F05EF8904B7C48196806F091
:1047B0003FFB7A4806F0ECFA13218D4806F052F8D8
:1047C000764806F0E5FA04232360FFF78FBA06F077
:1047D0001FF800287FF7D4AB70487C4E06F06AFCC7
:1047E00001226B23C6F8980022602B6001E005F0DF
:1047F000D3FF06F00DF80028F9D16848734D06F094
:10480000C7FA664806F0C4FA644806F0C1FA63487D
:1048100006F0BEFA614806F0BBFA2121754806F0A1
:1048200021F85E4806F0B4FA1521734806F01AF82C
:10483000D6F89810594806F0FBFA02216F4806F0A6
:1048400011F8564806F0A4FA1E216D4806F00AF841
:10485000D6F8A010514806F0EBFA0321694806F09B
:1048600001F84E4806F094FA1E21674805F0FAFF59
:10487000D6F89C10494806F0DBFA484806F088FA5A
:104880001D21624805F0EEFFD6F8AC10434806F053
:10489000CFFA424806F07CFA1E215D4805F0E2FF9F
:1048A000D6F8B0103D4806F0C3FA3C4806F070FA5E
:1048B000D6F8A830012B00F0CC8705232360FFF742
:1048C00015BA05F0A5FF00287FF75AAB33483F4ED5
:1048D00006F0F0FB414BC6F8B00003221A60FDF76A
:1048E00009FE01226B2322602B6082E7374E96F887
:1048F000C930B3FA83F35B0901216B2286F8C93012
:1049000021602A6075E705F083FF00287FF738AB48
:1049100022482E4E06F0CEFB01226B23C6F89C00E7
:1049200022602B6065E705F073FF00287FF728AB56
:104930001A48264E06F0BEFB284BC6F8AC000222F1
:10494000CCE705F065FF00287FF71AAB13481F4E30
:1049500006F0B0FB01226B23C6F8A00022602B609A
:1049600047E71E4A00237320136023602860FFF787
:104970005BB923682868FFF7BCB8144E96F840006E
:1049800063E40A4A1368B3FA83F35B0901216420E4
:10499000136021602860FFF7CEB800BFD487FF1FE7
:1049A000D0170100E4170100F417010064D1FF1FC4
:1049B00004180100FCCFFF1F1818010038D1FF1F99
:1049C0002C18010010D0FF1F4018010018D0FF1F45
:1049D000501801006C92FF1F6C1801009092FF1F8D
:1049E000801801005C92FF1F941801004487FF1F8C
:1049F0004C140100C4160100E81601008C150100DA
:104A0000001701008C12010020170100401701005F
:104A100060170100B54AB5E7B54AB64F1368002BD9
:104A20000CBF012300234FF001001360206040F011
:104A3000DF86034664222A606420FFF757B8AE4A37
:104A4000A0E70123AD482360FCF71EFAAC4A2368B7
:104A50001060EFE7AB4A95E7AB4A93E70123236089
:104A600005F0D6FE002800F30D86A84B1A68042A2C
:104A7000C4BF02221A6064232B602368DCE7A44EC3
:104A8000D6F8A830B3FA83F35B0901226420C6F894
:104A9000A83022602860FFF74EB805F0B9FE002864
:104AA0007FF7DEA99B4806F005FB994A00EB8000E2
:104AB0004300116E1BB28B42A2F8D03001DDA2F888
:104AC000D0100123652023602860FFF734B805F07B
:104AD0009FFE00287FF7C4A98E488D4E06F0EAFAA3
:104AE00007F0AEFC8C4907F0B3FD6523012270612D
:104AF00022602B601846FFF71EB805F089FE0028DB
:104B00007FF7AEA98348824E06F0D4FA07F098FCEE
:104B1000814907F09DFD65230122F06122602B6031
:104B20001846FFF708B805F073FE00287FF798A92C
:104B30007848774E06F0BEFA00EB80004300012271
:104B40006520336622602860FEF7F5BF05F060FE41
:104B500000287FF785A96F486D4E06F0ABFA00EB91
:104B60008000430001226520736622602860FEF702
:104B7000E2BF674AD2F8B8300133072BC8BF002321
:104B8000C2F8B8309DE705F043FE00287FF768A91A
:104B900060485F4E06F08EFA65230122C6F8BC001D
:104BA00022602B601846FEF7C6BF594B93F8C82009
:104BB000002A00F06F85002283F8C82081E705F005
:104BC00027FE00287FF74CA95248514E06F072FA92
:104BD00007F036FCF76A3063394607F023FE0028F9
:104BE0003FF46FAF37636CE7494ED6F88430B3FAC1
:104BF00083F35B0901226320C6F8843022602860B9
:104C0000FEF799BF0123236005F002FE002805DDB1
:104C100040483F4E06F04EFAC6F8B4000123632028
:104C200023602860FEF787BF0123236005F0F0FDB5
:104C3000002807DD3748364E06F03CFA07F000FC46
:104C4000C6F89400632028602368FEF752BF012352
:104C5000236005F0DDFD0028F4DD2E482C4E06F023
:104C600029FA07F0EDFBC6F89000EBE7012323607B
:104C700005F0CEFD0028E5DD2648254E06F01AFA9F
:104C8000A6F8C200DEE7224AD2F8D4300133042B62
:104C9000C8BF0123C2F8D430C0E70123236005F068
:104CA000B7FD0028BADD1B48194E06F003FAC6F816
:104CB0008C00B3E7FEF7ACFC23682868FEF716BF4C
:104CC000134AD2F880300133032BC8BF0023C2F847
:104CD0008030A3E70E4EF36FB3FA83F35B09012232
:104CE0006320F36722602860FEF725BFFCCFFF1F1B
:104CF00038D1FF1F6CD1FF1F10D0FF1F1093FF1F73
:104D00006C92FF1F9092FF1F5C92FF1F4487FF1F52
:104D100018D0FF1FD487FF1F00007A4405F078FDEC
:104D200000280DDD1748184E06F0C4F907F088FB7F
:104D3000164907F08DFC01226223306222602B604D
:104D400005F066FD00280EDD0E480F4E06F0B2F9A4
:104D500007F076FB0D4907F07BFC01226223C6F8C1
:104D6000C40022602B6005F053FD002840F3488406
:104D70000448054E06F09EF901226223F066226087
:104D80002B6007E0D487FF1F18D0FF1F00007A4474
:104D900005F002FD05F03CFD05460028F8D1C248AB
:104DA00005F0F6FFC04805F0F3FFBF4805F0F0FF3F
:104DB000BD4805F0EDFFBC4805F0EAFF1521BB48F2
:104DC00005F050FDB84805F0E3FF1421B84805F0A0
:104DD00049FDB54805F0DCFF1B21B64805F042FD52
:104DE000B14805F0D5FF1321B34805F03BFDAE48AF
:104DF00005F0CEFFAC4805F0CBFFAB4805F0C8FF8F
:104E00002021AE4805F02EFDF068AD4907F06CFB9F
:104E100006F0C0FE009502460B46A34806F010F8C7
:104E20000221A84805F01EFD0221A74805F01AFD41
:104E30009D4805F0ADFF2121A44805F013FD306920
:104E40009F4907F051FB06F0A5FE009502460B4670
:104E5000954805F0F5FF02219A4805F003FD02216F
:104E6000994805F0FFFC904805F092FF1F219848F3
:104E700005F0F8FCB06A06F08DFE022702460B46EC
:104E80000097894805F0DCFF0121924805F0EAFC13
:104E900039468D4805F0E6FC834805F079FF20216E
:104EA0008D4805F0DFFCF06A06F074FE00970246BC
:104EB0000B467D4805F0C4FF0121864805F0D2FC71
:104EC0003946814805F0CEFC774805F061FF232183
:104ED000824805F0C7FCB06C794907F005FB06F085
:104EE00059FE009502460B466F4805F0A9FF39466A
:104EF000744805F0B7FC3946734805F0B3FC6A48BE
:104F000005F046FF1F21764805F0ACFCF06C6C49BB
:104F100007F0EAFA06F03EFE009502460B466248AC
:104F200005F08EFF3946674805F09CFC3946664817
:104F300005F098FC5C4805F02BFF1921694805F045
:104F400091FCF16D584805F073FF3946664805F04D
:104F500089FC39465C4805F085FC534805F018FF8C
:104F60001821624805F07EFCB06E07F069FA6049CE
:104F700007F0BAFA06F00EFE009702460B464A48C2
:104F800005F05EFF01215B4805F06CFC39464E4898
:104F900005F068FC444805F0FBFE2B21564805F05F
:104FA00061FCB069464907F09FFA06F0F3FD0095F1
:104FB00002460B463C4805F043FF3946414805F0A0
:104FC00051FC3946404805F04DFC374805F0E0FEFD
:104FD0001F214A4805F046FCB16D334805F028FF13
:104FE0003946394805F03EFC2F4805F0D1FE202116
:104FF000434805F037FC716D2B4805F019FF394621
:10500000314805F02FFC284805F0C2FE10213D482C
:1050100005F028FCF16E244805F00AFF39462948BE
:1050200005F020FC3946284805F01CFC1E4805F018
:10503000AFFE1321344805F015FC316F1A4805F016
:10504000F7FE0121314805F00DFC39461E4805F0F8
:1050500009FC154805F09CFE10212D4805F002FCC6
:10506000716F114805F0E4FE3946164805F0FAFB69
:105070003946154805F0F6FB0B4805F089FE14216A
:10508000244805F0EFFBB16F074805F0D1FE012180
:105090001E4805F0E7FB39460B4805F0E3FB0248E4
:1050A00005F076FE162137E0D487FF1FD81A0100DD
:1050B000F01A0100081B01004C140100241B010020
:1050C00000007A4448140100FC1E0100481B010046
:1050D0006C1B01006C0F01008C1B0100B01B010058
:1050E000D41B0100F41B0100101C0100141C010062
:1050F000CDCCCC3DF4190100301C01005C1C01003A
:105100007C1C0100A01C0100B41C0100C81C010093
:10511000CC1C0100E01C0100BB4805F0A3FB306A79
:10512000BA4907F0E1F906F035FD009502460B4655
:10513000B74805F085FE3946B64805F093FB394679
:10514000B54805F08FFBB24805F022FE2421B34894
:1051500005F088FBD6F8C400AC4907F0C5F906F0A5
:1051600019FD009502460B46A94805F069FE39462F
:10517000A84805F077FB3946A74805F073FBA4481B
:1051800005F006FE2B21A64805F06CFB706B06F0BF
:1051900001FD009702460B469D4805F051FE012196
:1051A000A04805F05FFB39469B4805F05BFB98483B
:1051B00005F0EEFD27219C4805F054FBD6F8CC0005
:1051C000924907F091F906F0E5FC00950B4602467E
:1051D0008F4805F035FE39468E4805F043FB8C4874
:1051E00005F0D6FD03232360FEF780BD05F010FB1C
:1051F000002840F3058286488C4E05F05BFF07F0DF
:105200001FF9824907F024FA01226223F06022602C
:105210002B60BFE505F0FCFA002840F3F1817C48E3
:10522000824E05F047FF07F00BF9784907F010FAB6
:1052300001226223306122602B60ABE505F0E8FAC1
:10524000002840F3DD817248784E05F033FF07F007
:10525000F7F801226223B06222602B609AE505F024
:10526000D7FA002840F3CC816948704E05F022FF40
:1052700007F0E6F801226223F06222602B6089E5E4
:1052800005F0C6FA002840F3BB816148674E05F07F
:1052900011FF07F0D5F85D4907F0DAF90122622322
:1052A000B06422602B6075E505F0B2FA002840F387
:1052B000A78157485D4E05F0FDFE07F0C1F8534940
:1052C00007F0C6F901226223F06422602B6061E5D9
:1052D00005F09EFA002840F393814D48534E05F0A7
:1052E000E9FE01226223F06522602B6052E505F0A1
:1052F0008FFA002840F3848145484C4E05F0DAFED1
:1053000001226223306722602B6043E505F080FABA
:10531000002840F375813E48444E05F0CBFE012243
:105320006223706722602B6034E505F071FA002873
:1053300040F3668136483D4E05F0BCFE01226223F3
:10534000B06722602B6025E5FCF73CFD0221324866
:10535000364E05F087FA2E4805F01AFD02212E4838
:1053600005F080FA2A4805F013FD02212A4805F0CD
:1053700079FA274805F00CFD17212D4805F072FA3F
:10538000234805F005FD0221234805F06BFA20486B
:1053900005F0FEFC0122622322602B60FAE405F096
:1053A00037FA002840F32C811948204E05F082FE80
:1053B00000EB8000430001216222B36621602A6075
:1053C000E8E405F025FA002840F31A811048174E4A
:1053D00005F070FE07F034F80C4907F039F90122A6
:1053E0006223B06122602B60D4E405F011FA00283A
:1053F00040F3068106480D4E05F05CFE0122622353
:10540000706522602B60C5E4F81C010000007A443E
:10541000D487FF1F48140100FC1E0100101D01006D
:10542000381D01006C0F0100641D010018D0FF1F22
:10543000DC13010005F0ECF9002840F3E180984806
:10544000984E05F037FE06F0FBFF012262237063E1
:1054500022602B609EE405F0DBF9002840F3D08049
:105460008F48904E05F026FE06F0EAFF8E4907F0C1
:10547000EFF801226223C6F8CC0022602B6089E499
:105480000022732322602B60FEF7D6BB874B88482F
:10549000844E002202211A6005F0E4F9804805F0EC
:1054A00077FC0B21834805F0DDF96CE70C2182487D
:1054B00005F0D8F97A487B4D05F06AFCD6F8B8308B
:1054C000002B12DD18217D4805F0CCF9D5F8BC1071
:1054D000734805F0ADFC0221794805F0C3F9704826
:1054E00005F056FC6E4805F053FC1B21754805F08D
:1054F000B9F996F8C830012B15BF12211421724852
:10550000724805F0AFF9664805F042FC1F2170486B
:1055100005F0A8F9306B06F03DFB022502460B466C
:1055200000955F4805F08CFC29466A4805F09AF919
:105530005B4805F02DFC1E21674805F093F9B6F98C
:10554000D00006F07DFF654906F0CEFF06F022FB95
:1055500000950B460246524805F072FC0121604856
:1055600005F080F94E4805F013FC13215D4805F065
:1055700079F94B4805F00CFC06232360FEF7B6BB17
:105580000C21594805F06EF994E70D21574805F0B4
:1055900069F98FE70421564805F064F98AE70B2181
:1055A000544805F05FF985E70D21534805F05AF995
:1055B00080E70D21514805F055F97BE7102150484F
:1055C00005F050F976E7D8220021364803F0B0F90B
:1055D00028684C4AA0F1730001210023B0FA80F042
:1055E000400911602360FEF725BB04F0B9FA236877
:1055F000002B08BF73280CBF01200020FEF71ABB48
:1056000023682868012B7EF40FABFEF794BA05F0EF
:10561000FFF800287EF792AB2148224E05F04AFDA4
:1056200006F00EFF384906F05FFF61230122706229
:1056300022602B601846FEF77EBA05F0E9F80028D4
:105640007EF77CAB1648174E05F034FD612301222E
:10565000A6F8CA0022602B601846FEF76CBA05F067
:10566000D7F800287EF76AAB0D480E4E05F022FDF4
:1056700006F0E6FE61230122B06322602B6018462B
:10568000FEF759BA064805F015FD204B0246186092
:10569000FFF7EDB9012283F8C820FFF712BA00BF67
:1056A000D487FF1F18D0FF1F00007A440C93FF1F00
:1056B000FC1E0100F4130100181501007015010013
:1056C0008C15010090150100AC150100C0150100FA
:1056D000D8150100F8150100FC150100CDCCCC3D1A
:1056E000F41901004C14010008150100F814010020
:1056F0005415010048150100381501002815010056
:105700005C1501002487FF1F6F12833A4487FF1F37
:105710001C21704805F0A6F86F49D8F8940006F0EF
:10572000E3FE06F037FA009702460B466B4805F099
:1057300087FB05216A4805F095F8684805F028FBC5
:10574000D8F88050012D19D11D21664805F08AF83E
:105750006149D8F8900006F0C7FE06F01BFA0095E4
:1057600002460B465D4805F06BFB05215C4805F0E1
:1057700079F85A4805F00CFBD8F8805025F0020360
:10578000012B7EF453AF1C215748584F05F06AF89F
:10579000B6F8C210514805F04BFB0321544805F000
:1057A00061F84E4805F0F4FAD6F88050012D7EF4E9
:1057B0003DAF1F214F4805F055F8D7F88C0006F093
:1057C0003FFE4D4906F090FE06F0E4F90225024640
:1057D0000B460095414805F033FB2946474805F044
:1057E00041F83E4805F0D4FAD7F88050FEF71EBFC6
:1057F000434B002631460B201E6003F065FB31460B
:105800000C2003F061FB3146142003F05DFB3146B0
:10581000152003F059FB3B68FFF70CB91E213948EE
:1058200005F020F82D4805F0B3FAFEF7D3BE20218D
:10583000354805F017F8294805F0AAFAFEF7CABE60
:105840001721324805F00EF8244805F0A1FAFEF7BA
:10585000C1BE20212E4805F005F895F8C930D3B90E
:105860002C491E48FCF79CFAFFF727B817212A4855
:1058700004F0F8FFD6F8D430012B18D0022B10D04A
:10588000032B1AD0042B7EF4D4AE24491348FCF722
:1058900087FAFEF7CEBE22491048FCF781FAFFF7DF
:1058A0000CB820490D48FCF77BFAFEF7C2BE1E4932
:1058B0000A48FCF775FAFEF7BCBE1C490748FCF71E
:1058C0006FFAFEF7B6BE094EFEF793BF074EFFF71D
:1058D00061BA00BFD0190100CDCCCC3DD487FF1FE9
:1058E000F0190100F8190100181A010018D0FF1F63
:1058F000381A01003C1A01006F12833A5C1A010049
:105900000893FF1F101901003019010054190100FC
:1059100080170100A4170100601A0100BC1A0100E1
:10592000B0170100901A0100781A0100A81A0100AE
:1059300010B5124C124A2368101D12F8011F904234
:1059400041EA0323F9D10F4A236003F100431360B6
:105950000D4BD3F88030022B08D00C4B1B68012B69
:1059600000D010BDBDE81040FCF704BA1068084C28
:1059700006F066FD2060FDF799F8EEE758D1FF1FAD
:105980005FCFFF1F0093FF1F18D0FF1F64D1FF1FC1
:1059900050D1FF1F70B51E4A1E4C507A937A216871
:1059A000D27A1D4E1D4D43EA002342EA032301290A
:1059B00033602B6019D01846194BD3F88030A0F50E
:1059C0000000022B28601BD02368012B00D070BD83
:1059D000144805F0DDF92968124805F029FA032179
:1059E0001148BDE8704004F03DBF0E4805F0D0F905
:1059F0000023102229680B4805F0DAF92868DBE754
:105A000006F01EFD094B1860FDF750F8DCE700BFFB
:105A100058CFFF1F64D1FF1F58D1FF1F0093FF1FF6
:105A200018D0FF1FD487FF1FB40F010050D1FF1FF4
:105A300008B5134B187BDB7AFF2813D040B243EA3A
:105A40000020104B104AD3F8803000EB800000EBB0
:105A500080008000022B10600BD00C4B1B68012BC8
:105A600003D008BDFF2BE9D1FBE7BDE80840FCF7F8
:105A700081B906F0E5FC064B1860FDF717F8ECE776
:105A800058CFFF1F18D0FF1F0093FF1F64D1FF1FC7
:105A900050D1FF1F70B56B4D6B4C6C4882B02946DE
:105AA00001F0EEFFD4F88030022B20D02B68684C38
:105AB000B3F5407F08D2226862496648012A18BFC0
:105AC0000022FBF76FFA2B68634A23F060431A4405
:105AD000EE2A07D822685B495E48012A18BF0022D7
